{
  "abi": [
    {
      "inputs": [],
      "stateMutability": "nonpayable",
      "type": "constructor"
    },
    {
      "inputs": [],
      "name": "InvalidInitialization",
      "type": "error"
    },
    {
      "inputs": [],
      "name": "NotInitializing",
      "type": "error"
    },
    {
      "inputs": [
        {
          "internalType": "address",
          "name": "owner",
          "type": "address"
        }
      ],
      "name": "OwnableInvalidOwner",
      "type": "error"
    },
    {
      "inputs": [
        {
          "internalType": "address",
          "name": "account",
          "type": "address"
        }
      ],
      "name": "OwnableUnauthorizedAccount",
      "type": "error"
    },
    {
      "inputs": [],
      "name": "RewarderFactory__InvalidRewarderType",
      "type": "error"
    },
    {
      "inputs": [],
      "name": "RewarderFactory__ZeroAddress",
      "type": "error"
    },
    {
      "anonymous": false,
      "inputs": [
        {
          "indexed": false,
          "internalType": "uint64",
          "name": "version",
          "type": "uint64"
        }
      ],
      "name": "Initialized",
      "type": "event"
    },
    {
      "anonymous": false,
      "inputs": [
        {
          "indexed": true,
          "internalType": "address",
          "name": "previousOwner",
          "type": "address"
        },
        {
          "indexed": true,
          "internalType": "address",
          "name": "newOwner",
          "type": "address"
        }
      ],
      "name": "OwnershipTransferStarted",
      "type": "event"
    },
    {
      "anonymous": false,
      "inputs": [
        {
          "indexed": true,
          "internalType": "address",
          "name": "previousOwner",
          "type": "address"
        },
        {
          "indexed": true,
          "internalType": "address",
          "name": "newOwner",
          "type": "address"
        }
      ],
      "name": "OwnershipTransferred",
      "type": "event"
    },
    {
      "anonymous": false,
      "inputs": [
        {
          "indexed": true,
          "internalType": "enum IRewarderFactory.RewarderType",
          "name": "rewarderType",
          "type": "uint8"
        },
        {
          "indexed": true,
          "internalType": "contract IERC20",
          "name": "token",
          "type": "address"
        },
        {
          "indexed": true,
          "internalType": "uint256",
          "name": "pid",
          "type": "uint256"
        },
        {
          "indexed": false,
          "internalType": "contract IBaseRewarder",
          "name": "rewarder",
          "type": "address"
        }
      ],
      "name": "RewarderCreated",
      "type": "event"
    },
    {
      "anonymous": false,
      "inputs": [
        {
          "indexed": true,
          "internalType": "enum IRewarderFactory.RewarderType",
          "name": "rewarderType",
          "type": "uint8"
        },
        {
          "indexed": true,
          "internalType": "contract IBaseRewarder",
          "name": "implementation",
          "type": "address"
        }
      ],
      "name": "RewarderImplementationSet",
      "type": "event"
    },
    {
      "inputs": [],
      "name": "acceptOwnership",
      "outputs": [],
      "stateMutability": "nonpayable",
      "type": "function"
    },
    {
      "inputs": [
        {
          "internalType": "enum IRewarderFactory.RewarderType",
          "name": "rewarderType",
          "type": "uint8"
        },
        {
          "internalType": "contract IERC20",
          "name": "token",
          "type": "address"
        },
        {
          "internalType": "uint256",
          "name": "pid",
          "type": "uint256"
        }
      ],
      "name": "createRewarder",
      "outputs": [
        {
          "internalType": "contract IBaseRewarder",
          "name": "rewarder",
          "type": "address"
        }
      ],
      "stateMutability": "nonpayable",
      "type": "function"
    },
    {
      "inputs": [
        {
          "internalType": "enum IRewarderFactory.RewarderType",
          "name": "rewarderType",
          "type": "uint8"
        },
        {
          "internalType": "uint256",
          "name": "index",
          "type": "uint256"
        }
      ],
      "name": "getRewarderAt",
      "outputs": [
        {
          "internalType": "contract IBaseRewarder",
          "name": "",
          "type": "address"
        }
      ],
      "stateMutability": "view",
      "type": "function"
    },
    {
      "inputs": [
        {
          "internalType": "enum IRewarderFactory.RewarderType",
          "name": "rewarderType",
          "type": "uint8"
        }
      ],
      "name": "getRewarderCount",
      "outputs": [
        {
          "internalType": "uint256",
          "name": "",
          "type": "uint256"
        }
      ],
      "stateMutability": "view",
      "type": "function"
    },
    {
      "inputs": [
        {
          "internalType": "enum IRewarderFactory.RewarderType",
          "name": "rewarderType",
          "type": "uint8"
        }
      ],
      "name": "getRewarderImplementation",
      "outputs": [
        {
          "internalType": "contract IBaseRewarder",
          "name": "",
          "type": "address"
        }
      ],
      "stateMutability": "view",
      "type": "function"
    },
    {
      "inputs": [
        {
          "internalType": "contract IBaseRewarder",
          "name": "rewarder",
          "type": "address"
        }
      ],
      "name": "getRewarderType",
      "outputs": [
        {
          "internalType": "enum IRewarderFactory.RewarderType",
          "name": "",
          "type": "uint8"
        }
      ],
      "stateMutability": "view",
      "type": "function"
    },
    {
      "inputs": [
        {
          "internalType": "address",
          "name": "initialOwner",
          "type": "address"
        },
        {
          "internalType": "enum IRewarderFactory.RewarderType[]",
          "name": "initialRewarderTypes",
          "type": "uint8[]"
        },
        {
          "internalType": "contract IBaseRewarder[]",
          "name": "initialRewarders",
          "type": "address[]"
        }
      ],
      "name": "initialize",
      "outputs": [],
      "stateMutability": "nonpayable",
      "type": "function"
    },
    {
      "inputs": [],
      "name": "owner",
      "outputs": [
        {
          "internalType": "address",
          "name": "",
          "type": "address"
        }
      ],
      "stateMutability": "view",
      "type": "function"
    },
    {
      "inputs": [],
      "name": "pendingOwner",
      "outputs": [
        {
          "internalType": "address",
          "name": "",
          "type": "address"
        }
      ],
      "stateMutability": "view",
      "type": "function"
    },
    {
      "inputs": [],
      "name": "renounceOwnership",
      "outputs": [],
      "stateMutability": "nonpayable",
      "type": "function"
    },
    {
      "inputs": [
        {
          "internalType": "enum IRewarderFactory.RewarderType",
          "name": "rewarderType",
          "type": "uint8"
        },
        {
          "internalType": "contract IBaseRewarder",
          "name": "implementation",
          "type": "address"
        }
      ],
      "name": "setRewarderImplementation",
      "outputs": [],
      "stateMutability": "nonpayable",
      "type": "function"
    },
    {
      "inputs": [
        {
          "internalType": "address",
          "name": "newOwner",
          "type": "address"
        }
      ],
      "name": "transferOwnership",
      "outputs": [],
      "stateMutability": "nonpayable",
      "type": "function"
    }
  ],
  "bytecode": {
    "object": "0x608060405234801561001057600080fd5b5061001961001e565b6100d0565b7ff0c57e16840df040f15088dc2f81fe391c3923bec73e23a9662efc9c229c6a00805468010000000000000000900460ff161561006e5760405163f92ee8a960e01b815260040160405180910390fd5b80546001600160401b03908116146100cd5780546001600160401b0319166001600160401b0390811782556040519081527fc7f505b2f371ae2175ee4913f4499e1f2633a7b5936321eed1cdaeb6115181d29060200160405180910390a15b50565b610e14806100df6000396000f3fe608060405234801561001057600080fd5b50600436106100d45760003560e01c80639e9dccb611610081578063e30c39781161005b578063e30c3978146101b6578063e6300a03146101be578063f2fde38b146101d157600080fd5b80639e9dccb614610157578063cd23517814610190578063cdffa538146101a357600080fd5b806372bdf244116100b257806372bdf2441461013457806379ba5097146101475780638da5cb5b1461014f57600080fd5b806316bc54b3146100d95780633628896a14610109578063715018a61461012a575b600080fd5b6100ec6100e7366004610bb5565b6101e4565b6040516001600160a01b0390911681526020015b60405180910390f35b61011c610117366004610bf4565b610274565b604051908152602001610100565b6101326102b4565b005b6100ec610142366004610c16565b6102c8565b61013261032c565b6100ec610379565b610183610165366004610c40565b6001600160a01b031660009081526002602052604090205460ff1690565b6040516101009190610c73565b6100ec61019e366004610bf4565b6103ae565b6101326101b1366004610c9b565b6103f6565b6100ec61040c565b6101326101cc366004610d1e565b610435565b6101326101df366004610c40565b6105d1565b600060028460038111156101fa576101fa610c5d565b1461020757610207610656565b610212848484610688565b905081836001600160a01b031685600381111561023157610231610c5d565b6040516001600160a01b03851681527f9f6902c2aefd6fe22828245dde3226eb65e7633ffcdee0e32948a4e541f91dd89060200160405180910390a49392505050565b60006001600083600381111561028c5761028c610c5d565b600381111561029d5761029d610c5d565b815260208101919091526040016000205492915050565b6102bc610656565b6102c660006108d3565b565b6000600160008460038111156102e0576102e0610c5d565b60038111156102f1576102f1610c5d565b8152602001908152602001600020828154811061031057610310610da1565b6000918252602090912001546001600160a01b03169392505050565b338061033661040c565b6001600160a01b03161461036d5760405163118cdaa760e01b81526001600160a01b03821660048201526024015b60405180910390fd5b610376816108d3565b50565b6000807f9016d09d72d40fdae2fd8ceac6b6234c7706214fd39c1cd1e609a0528c1993005b546001600160a01b031692915050565b60008060008360038111156103c5576103c5610c5d565b60038111156103d6576103d6610c5d565b81526020810191909152604001600020546001600160a01b031692915050565b6103fe610656565b610408828261090b565b5050565b6000807f237e158222e3e6968b72b9db0d8043aacf074ad9f650f0d1606b4d82ee432c0061039e565b7ff0c57e16840df040f15088dc2f81fe391c3923bec73e23a9662efc9c229c6a00805468010000000000000000810460ff16159067ffffffffffffffff166000811580156104805750825b905060008267ffffffffffffffff16600114801561049d5750303b155b9050811580156104ab575080155b156104c95760405163f92ee8a960e01b815260040160405180910390fd5b845467ffffffffffffffff1916600117855583156104fd57845468ff00000000000000001916680100000000000000001785555b6105068a6109cf565b8760005b81811015610578576105688b8b8381811061052757610527610da1565b905060200201602081019061053c9190610bf4565b8a8a8481811061054e5761054e610da1565b90506020020160208101906105639190610c40565b61090b565b61057181610db7565b905061050a565b505083156105c557845468ff000000000000000019168555604051600181527fc7f505b2f371ae2175ee4913f4499e1f2633a7b5936321eed1cdaeb6115181d29060200160405180910390a15b50505050505050505050565b6105d9610656565b7f237e158222e3e6968b72b9db0d8043aacf074ad9f650f0d1606b4d82ee432c0080546001600160a01b0319166001600160a01b038316908117825561061d610379565b6001600160a01b03167f38d16b8cac22d99fc7c124b9cd0de2d3fa1faef420bfe791d8c362d765e2270060405160405180910390a35050565b3361065f610379565b6001600160a01b0316146102c65760405163118cdaa760e01b8152336004820152602401610364565b60008084600381111561069d5761069d610c5d565b036106bb5760405163dac76ec560e01b815260040160405180910390fd5b60008060008660038111156106d2576106d2610c5d565b60038111156106e3576106e3610c5d565b81526020810191909152604001600020546001600160a01b031690508061071d57604051632aabcc1360e01b815260040160405180910390fd5b60006001600087600381111561073557610735610c5d565b600381111561074657610746610c5d565b815260200190815260200160002090506000858560405160200161078892919060609290921b6bffffffffffffffffffffffff19168252601482015260340190565b604051602081830303815290604052905060008760038111156107ad576107ad610c5d565b835460405160f89290921b7fff00000000000000000000000000000000000000000000000000000000000000166020830152602182015260410160405160208183030381529060405280519060200120905061080a8483836109e0565b8354600180820186556000868152602080822090930180546001600160a01b0319166001600160a01b03861690811790915581526002909252604090912080549297508a92909160ff199091169083600381111561086a5761086a610c5d565b021790555060405163189acdbd60e31b81523360048201526001600160a01b0386169063c4d66de890602401600060405180830381600087803b1580156108b057600080fd5b505af11580156108c4573d6000803e3d6000fd5b50505050505050509392505050565b7f237e158222e3e6968b72b9db0d8043aacf074ad9f650f0d1606b4d82ee432c0080546001600160a01b031916815561040882610a9b565b600082600381111561091f5761091f610c5d565b0361093d5760405163dac76ec560e01b815260040160405180910390fd5b8060008084600381111561095357610953610c5d565b600381111561096457610964610c5d565b8152602081019190915260400160002080546001600160a01b0319166001600160a01b0392831617905581168260038111156109a2576109a2610c5d565b6040517fe6f4086f57b7e875a8858b8ecc873e8dfcf686d42d08de2a31d38d403c2b07e490600090a35050565b6109d7610b0c565b61037681610b5a565b600060408303516020840351845180602087010180516002830161ffca811115610a125763c8c781396000526004601cfd5b6c5af43d3d93803e603357fd5bf3895289600d8a03527d6100003d81600a3d39f3363d3d373d3d3d3d610000806035363936013d738160481b176035820160d81b1760218a03528060f01b835287603f8201601f8b036000f596505085610a815763301164256000526004601cfd5b90528552601f19850152603f199093019290925250919050565b7f9016d09d72d40fdae2fd8ceac6b6234c7706214fd39c1cd1e609a0528c19930080546001600160a01b031981166001600160a01b03848116918217845560405192169182907f8be0079c531659141344cd1fd0a4f28419497f9722a3daafe3b4186f6b6457e090600090a3505050565b7ff0c57e16840df040f15088dc2f81fe391c3923bec73e23a9662efc9c229c6a005468010000000000000000900460ff166102c657604051631afcd79f60e31b815260040160405180910390fd5b610b62610b0c565b6001600160a01b03811661036d57604051631e4fbdf760e01b815260006004820152602401610364565b803560048110610b9b57600080fd5b919050565b6001600160a01b038116811461037657600080fd5b600080600060608486031215610bca57600080fd5b610bd384610b8c565b92506020840135610be381610ba0565b929592945050506040919091013590565b600060208284031215610c0657600080fd5b610c0f82610b8c565b9392505050565b60008060408385031215610c2957600080fd5b610c3283610b8c565b946020939093013593505050565b600060208284031215610c5257600080fd5b8135610c0f81610ba0565b634e487b7160e01b600052602160045260246000fd5b6020810160048310610c9557634e487b7160e01b600052602160045260246000fd5b91905290565b60008060408385031215610cae57600080fd5b610cb783610b8c565b91506020830135610cc781610ba0565b809150509250929050565b60008083601f840112610ce457600080fd5b50813567ffffffffffffffff811115610cfc57600080fd5b6020830191508360208260051b8501011115610d1757600080fd5b9250929050565b600080600080600060608688031215610d3657600080fd5b8535610d4181610ba0565b9450602086013567ffffffffffffffff80821115610d5e57600080fd5b610d6a89838a01610cd2565b90965094506040880135915080821115610d8357600080fd5b50610d9088828901610cd2565b969995985093965092949392505050565b634e487b7160e01b600052603260045260246000fd5b600060018201610dd757634e487b7160e01b600052601160045260246000fd5b506001019056fea2646970667358221220218d3656d34742a938fd1acbeaa3a31bae5275a837dae01fd427f510db8b614964736f6c63430008140033",
    "linkReferences": {}
  },
  "methodIdentifiers": {
    "acceptOwnership()": "79ba5097",
    "createRewarder(uint8,address,uint256)": "16bc54b3",
    "getRewarderAt(uint8,uint256)": "72bdf244",
    "getRewarderCount(uint8)": "3628896a",
    "getRewarderImplementation(uint8)": "cd235178",
    "getRewarderType(address)": "9e9dccb6",
    "initialize(address,uint8[],address[])": "e6300a03",
    "owner()": "8da5cb5b",
    "pendingOwner()": "e30c3978",
    "renounceOwnership()": "715018a6",
    "setRewarderImplementation(uint8,address)": "cdffa538",
    "transferOwnership(address)": "f2fde38b"
  },
  "id": 98
}