{"abi":[{"type":"constructor","inputs":[],"stateMutability":"nonpayable"},{"type":"function","name":"acceptOwnership","inputs":[],"outputs":[],"stateMutability":"nonpayable"},{"type":"function","name":"createRewarder","inputs":[{"name":"rewarderType","type":"uint8","internalType":"enum IRewarderFactory.RewarderType"},{"name":"token","type":"address","internalType":"contract IERC20"},{"name":"pid","type":"uint256","internalType":"uint256"}],"outputs":[{"name":"rewarder","type":"address","internalType":"contract IBaseRewarder"}],"stateMutability":"nonpayable"},{"type":"function","name":"getRewarderAt","inputs":[{"name":"rewarderType","type":"uint8","internalType":"enum IRewarderFactory.RewarderType"},{"name":"index","type":"uint256","internalType":"uint256"}],"outputs":[{"name":"","type":"address","internalType":"contract IBaseRewarder"}],"stateMutability":"view"},{"type":"function","name":"getRewarderCount","inputs":[{"name":"rewarderType","type":"uint8","internalType":"enum IRewarderFactory.RewarderType"}],"outputs":[{"name":"","type":"uint256","internalType":"uint256"}],"stateMutability":"view"},{"type":"function","name":"getRewarderImplementation","inputs":[{"name":"rewarderType","type":"uint8","internalType":"enum IRewarderFactory.RewarderType"}],"outputs":[{"name":"","type":"address","internalType":"contract IBaseRewarder"}],"stateMutability":"view"},{"type":"function","name":"getRewarderType","inputs":[{"name":"rewarder","type":"address","internalType":"contract IBaseRewarder"}],"outputs":[{"name":"","type":"uint8","internalType":"enum IRewarderFactory.RewarderType"}],"stateMutability":"view"},{"type":"function","name":"initialize","inputs":[{"name":"initialOwner","type":"address","internalType":"address"},{"name":"initialRewarderTypes","type":"uint8[]","internalType":"enum IRewarderFactory.RewarderType[]"},{"name":"initialRewarders","type":"address[]","internalType":"contract IBaseRewarder[]"}],"outputs":[],"stateMutability":"nonpayable"},{"type":"function","name":"owner","inputs":[],"outputs":[{"name":"","type":"address","internalType":"address"}],"stateMutability":"view"},{"type":"function","name":"pendingOwner","inputs":[],"outputs":[{"name":"","type":"address","internalType":"address"}],"stateMutability":"view"},{"type":"function","name":"renounceOwnership","inputs":[],"outputs":[],"stateMutability":"nonpayable"},{"type":"function","name":"setRewarderImplementation","inputs":[{"name":"rewarderType","type":"uint8","internalType":"enum IRewarderFactory.RewarderType"},{"name":"implementation","type":"address","internalType":"contract IBaseRewarder"}],"outputs":[],"stateMutability":"nonpayable"},{"type":"function","name":"transferOwnership","inputs":[{"name":"newOwner","type":"address","internalType":"address"}],"outputs":[],"stateMutability":"nonpayable"},{"type":"event","name":"Initialized","inputs":[{"name":"version","type":"uint64","indexed":false,"internalType":"uint64"}],"anonymous":false},{"type":"event","name":"OwnershipTransferStarted","inputs":[{"name":"previousOwner","type":"address","indexed":true,"internalType":"address"},{"name":"newOwner","type":"address","indexed":true,"internalType":"address"}],"anonymous":false},{"type":"event","name":"OwnershipTransferred","inputs":[{"name":"previousOwner","type":"address","indexed":true,"internalType":"address"},{"name":"newOwner","type":"address","indexed":true,"internalType":"address"}],"anonymous":false},{"type":"event","name":"RewarderCreated","inputs":[{"name":"rewarderType","type":"uint8","indexed":true,"internalType":"enum IRewarderFactory.RewarderType"},{"name":"token","type":"address","indexed":true,"internalType":"contract IERC20"},{"name":"pid","type":"uint256","indexed":true,"internalType":"uint256"},{"name":"rewarder","type":"address","indexed":false,"internalType":"contract IBaseRewarder"}],"anonymous":false},{"type":"event","name":"RewarderImplementationSet","inputs":[{"name":"rewarderType","type":"uint8","indexed":true,"internalType":"enum IRewarderFactory.RewarderType"},{"name":"implementation","type":"address","indexed":true,"internalType":"contract IBaseRewarder"}],"anonymous":false},{"type":"error","name":"InvalidInitialization","inputs":[]},{"type":"error","name":"NotInitializing","inputs":[]},{"type":"error","name":"OwnableInvalidOwner","inputs":[{"name":"owner","type":"address","internalType":"address"}]},{"type":"error","name":"OwnableUnauthorizedAccount","inputs":[{"name":"account","type":"address","internalType":"address"}]},{"type":"error","name":"RewarderFactory__InvalidPid","inputs":[]},{"type":"error","name":"RewarderFactory__InvalidRewarderType","inputs":[]},{"type":"error","name":"RewarderFactory__ZeroAddress","inputs":[]}],"bytecode":{"object":"0x608060405234801561001057600080fd5b5061001961001e565b6100d0565b7ff0c57e16840df040f15088dc2f81fe391c3923bec73e23a9662efc9c229c6a00805468010000000000000000900460ff161561006e5760405163f92ee8a960e01b815260040160405180910390fd5b80546001600160401b03908116146100cd5780546001600160401b0319166001600160401b0390811782556040519081527fc7f505b2f371ae2175ee4913f4499e1f2633a7b5936321eed1cdaeb6115181d29060200160405180910390a15b50565b610e4c806100df6000396000f3fe608060405234801561001057600080fd5b50600436106100d45760003560e01c80639e9dccb611610081578063e30c39781161005b578063e30c3978146101b6578063e6300a03146101be578063f2fde38b146101d157600080fd5b80639e9dccb614610157578063cd23517814610190578063cdffa538146101a357600080fd5b806372bdf244116100b257806372bdf2441461013457806379ba5097146101475780638da5cb5b1461014f57600080fd5b806316bc54b3146100d95780633628896a14610109578063715018a61461012a575b600080fd5b6100ec6100e7366004610bed565b6101e4565b6040516001600160a01b0390911681526020015b60405180910390f35b61011c610117366004610c2c565b6102b1565b604051908152602001610100565b6101326102f1565b005b6100ec610142366004610c4e565b610305565b610132610369565b6100ec6103b6565b610183610165366004610c78565b6001600160a01b031660009081526002602052604090205460ff1690565b6040516101009190610cab565b6100ec61019e366004610c2c565b6103eb565b6101326101b1366004610cd3565b610433565b6100ec610449565b6101326101cc366004610d56565b610472565b6101326101df366004610c78565b61060e565b600060028460038111156101fa576101fa610c95565b1461020757610207610693565b600384600381111561021b5761021b610c95565b14801561022757508115155b156102445760405162491c1960e01b815260040160405180910390fd5b61024f8484846106c5565b905081836001600160a01b031685600381111561026e5761026e610c95565b6040516001600160a01b03851681527f9f6902c2aefd6fe22828245dde3226eb65e7633ffcdee0e32948a4e541f91dd89060200160405180910390a49392505050565b6000600160008360038111156102c9576102c9610c95565b60038111156102da576102da610c95565b815260208101919091526040016000205492915050565b6102f9610693565b610303600061090b565b565b60006001600084600381111561031d5761031d610c95565b600381111561032e5761032e610c95565b8152602001908152602001600020828154811061034d5761034d610dd9565b6000918252602090912001546001600160a01b03169392505050565b3380610373610449565b6001600160a01b0316146103aa5760405163118cdaa760e01b81526001600160a01b03821660048201526024015b60405180910390fd5b6103b38161090b565b50565b6000807f9016d09d72d40fdae2fd8ceac6b6234c7706214fd39c1cd1e609a0528c1993005b546001600160a01b031692915050565b600080600083600381111561040257610402610c95565b600381111561041357610413610c95565b81526020810191909152604001600020546001600160a01b031692915050565b61043b610693565b6104458282610943565b5050565b6000807f237e158222e3e6968b72b9db0d8043aacf074ad9f650f0d1606b4d82ee432c006103db565b7ff0c57e16840df040f15088dc2f81fe391c3923bec73e23a9662efc9c229c6a00805468010000000000000000810460ff16159067ffffffffffffffff166000811580156104bd5750825b905060008267ffffffffffffffff1660011480156104da5750303b155b9050811580156104e8575080155b156105065760405163f92ee8a960e01b815260040160405180910390fd5b845467ffffffffffffffff19166001178555831561053a57845468ff00000000000000001916680100000000000000001785555b6105438a610a07565b8760005b818110156105b5576105a58b8b8381811061056457610564610dd9565b90506020020160208101906105799190610c2c565b8a8a8481811061058b5761058b610dd9565b90506020020160208101906105a09190610c78565b610943565b6105ae81610def565b9050610547565b5050831561060257845468ff000000000000000019168555604051600181527fc7f505b2f371ae2175ee4913f4499e1f2633a7b5936321eed1cdaeb6115181d29060200160405180910390a15b50505050505050505050565b610616610693565b7f237e158222e3e6968b72b9db0d8043aacf074ad9f650f0d1606b4d82ee432c0080546001600160a01b0319166001600160a01b038316908117825561065a6103b6565b6001600160a01b03167f38d16b8cac22d99fc7c124b9cd0de2d3fa1faef420bfe791d8c362d765e2270060405160405180910390a35050565b3361069c6103b6565b6001600160a01b0316146103035760405163118cdaa760e01b81523360048201526024016103a1565b6000808460038111156106da576106da610c95565b036106f85760405163dac76ec560e01b815260040160405180910390fd5b600080600086600381111561070f5761070f610c95565b600381111561072057610720610c95565b81526020810191909152604001600020546001600160a01b031690508061075a57604051632aabcc1360e01b815260040160405180910390fd5b60006001600087600381111561077257610772610c95565b600381111561078357610783610c95565b81526020019081526020016000209050600085856040516020016107c592919060609290921b6bffffffffffffffffffffffff19168252601482015260340190565b60408051601f198184030181529181523360008181526003602052918220805493945091929091836107f683610def565b9091555060405160609290921b6bffffffffffffffffffffffff191660208301526034820152605401604051602081830303815290604052805190602001209050610842848383610a18565b8354600180820186556000868152602080822090930180546001600160a01b0319166001600160a01b03861690811790915581526002909252604090912080549297508a92909160ff19909116908360038111156108a2576108a2610c95565b021790555060405163189acdbd60e31b81523360048201526001600160a01b0386169063c4d66de890602401600060405180830381600087803b1580156108e857600080fd5b505af11580156108fc573d6000803e3d6000fd5b50505050505050509392505050565b7f237e158222e3e6968b72b9db0d8043aacf074ad9f650f0d1606b4d82ee432c0080546001600160a01b031916815561044582610ad3565b600082600381111561095757610957610c95565b036109755760405163dac76ec560e01b815260040160405180910390fd5b8060008084600381111561098b5761098b610c95565b600381111561099c5761099c610c95565b8152602081019190915260400160002080546001600160a01b0319166001600160a01b0392831617905581168260038111156109da576109da610c95565b6040517fe6f4086f57b7e875a8858b8ecc873e8dfcf686d42d08de2a31d38d403c2b07e490600090a35050565b610a0f610b44565b6103b381610b92565b600060408303516020840351845180602087010180516002830161ffca811115610a4a5763c8c781396000526004601cfd5b6c5af43d3d93803e603357fd5bf3895289600d8a03527d6100003d81600a3d39f3363d3d373d3d3d3d610000806035363936013d738160481b176035820160d81b1760218a03528060f01b835287603f8201601f8b036000f596505085610ab95763301164256000526004601cfd5b90528552601f19850152603f199093019290925250919050565b7f9016d09d72d40fdae2fd8ceac6b6234c7706214fd39c1cd1e609a0528c19930080546001600160a01b031981166001600160a01b03848116918217845560405192169182907f8be0079c531659141344cd1fd0a4f28419497f9722a3daafe3b4186f6b6457e090600090a3505050565b7ff0c57e16840df040f15088dc2f81fe391c3923bec73e23a9662efc9c229c6a005468010000000000000000900460ff1661030357604051631afcd79f60e31b815260040160405180910390fd5b610b9a610b44565b6001600160a01b0381166103aa57604051631e4fbdf760e01b8152600060048201526024016103a1565b803560048110610bd357600080fd5b919050565b6001600160a01b03811681146103b357600080fd5b600080600060608486031215610c0257600080fd5b610c0b84610bc4565b92506020840135610c1b81610bd8565b929592945050506040919091013590565b600060208284031215610c3e57600080fd5b610c4782610bc4565b9392505050565b60008060408385031215610c6157600080fd5b610c6a83610bc4565b946020939093013593505050565b600060208284031215610c8a57600080fd5b8135610c4781610bd8565b634e487b7160e01b600052602160045260246000fd5b6020810160048310610ccd57634e487b7160e01b600052602160045260246000fd5b91905290565b60008060408385031215610ce657600080fd5b610cef83610bc4565b91506020830135610cff81610bd8565b809150509250929050565b60008083601f840112610d1c57600080fd5b50813567ffffffffffffffff811115610d3457600080fd5b6020830191508360208260051b8501011115610d4f57600080fd5b9250929050565b600080600080600060608688031215610d6e57600080fd5b8535610d7981610bd8565b9450602086013567ffffffffffffffff80821115610d9657600080fd5b610da289838a01610d0a565b90965094506040880135915080821115610dbb57600080fd5b50610dc888828901610d0a565b969995985093965092949392505050565b634e487b7160e01b600052603260045260246000fd5b600060018201610e0f57634e487b7160e01b600052601160045260246000fd5b506001019056fea26469706673582212209674492db8b59f89eec0cddf396961490b93e4dfecd39842ff47f9e3ac40d68b64736f6c63430008140033","linkReferences":{}},"methodIdentifiers":{"acceptOwnership()":"79ba5097","createRewarder(uint8,address,uint256)":"16bc54b3","getRewarderAt(uint8,uint256)":"72bdf244","getRewarderCount(uint8)":"3628896a","getRewarderImplementation(uint8)":"cd235178","getRewarderType(address)":"9e9dccb6","initialize(address,uint8[],address[])":"e6300a03","owner()":"8da5cb5b","pendingOwner()":"e30c3978","renounceOwnership()":"715018a6","setRewarderImplementation(uint8,address)":"cdffa538","transferOwnership(address)":"f2fde38b"},"id":101}