{"abi":[{"type":"constructor","inputs":[{"name":"masterchef","type":"address","internalType":"contract IMasterChef"},{"name":"joeStaking","type":"address","internalType":"contract IJoeStaking"},{"name":"nativeSymbol","type":"string","internalType":"string"}],"stateMutability":"nonpayable"},{"type":"function","name":"getFarmData","inputs":[{"name":"start","type":"uint256","internalType":"uint256"},{"name":"nb","type":"uint256","internalType":"uint256"},{"name":"user","type":"address","internalType":"address"}],"outputs":[{"name":"farms","type":"tuple","internalType":"struct MoeLens.FarmData","components":[{"name":"masterChef","type":"address","internalType":"address"},{"name":"moe","type":"address","internalType":"address"},{"name":"totalVotes","type":"uint256","internalType":"uint256"},{"name":"totalWeight","type":"uint256","internalType":"uint256"},{"name":"alpha","type":"uint256","internalType":"uint256"},{"name":"totalMoePerSec","type":"uint256","internalType":"uint256"},{"name":"totalNumberOfFarms","type":"uint256","internalType":"uint256"},{"name":"userTotalVeMoe","type":"uint256","internalType":"uint256"},{"name":"userTotalVotes","type":"uint256","internalType":"uint256"},{"name":"farms","type":"tuple[]","internalType":"struct MoeLens.Farm[]","components":[{"name":"pid","type":"uint256","internalType":"uint256"},{"name":"isRewardable","type":"bool","internalType":"bool"},{"name":"votesOnFarm","type":"uint256","internalType":"uint256"},{"name":"moePerSec","type":"uint256","internalType":"uint256"},{"name":"totalVotesOnFarm","type":"uint256","internalType":"uint256"},{"name":"totalWeightOnFarm","type":"uint256","internalType":"uint256"},{"name":"lpToken","type":"tuple","internalType":"struct MoeLens.Token","components":[{"name":"token","type":"address","internalType":"address"},{"name":"decimals","type":"uint256","internalType":"uint256"},{"name":"symbol","type":"string","internalType":"string"}]},{"name":"totalStaked","type":"uint256","internalType":"uint256"},{"name":"totalSupply","type":"uint256","internalType":"uint256"},{"name":"reserves","type":"tuple","internalType":"struct MoeLens.Reserves","components":[{"name":"token0","type":"tuple","internalType":"struct MoeLens.Token","components":[{"name":"token","type":"address","internalType":"address"},{"name":"decimals","type":"uint256","internalType":"uint256"},{"name":"symbol","type":"string","internalType":"string"}]},{"name":"token1","type":"tuple","internalType":"struct MoeLens.Token","components":[{"name":"token","type":"address","internalType":"address"},{"name":"decimals","type":"uint256","internalType":"uint256"},{"name":"symbol","type":"string","internalType":"string"}]},{"name":"reserve0","type":"uint256","internalType":"uint256"},{"name":"reserve1","type":"uint256","internalType":"uint256"}]},{"name":"rewarder","type":"tuple","internalType":"struct MoeLens.Rewarder","components":[{"name":"version","type":"uint256","internalType":"uint256"},{"name":"isSet","type":"bool","internalType":"bool"},{"name":"isStarted","type":"bool","internalType":"bool"},{"name":"isEnded","type":"bool","internalType":"bool"},{"name":"pid","type":"uint256","internalType":"uint256"},{"name":"totalDeposited","type":"uint256","internalType":"uint256"},{"name":"reward","type":"tuple","internalType":"struct MoeLens.Reward","components":[{"name":"token","type":"tuple","internalType":"struct MoeLens.Token","components":[{"name":"token","type":"address","internalType":"address"},{"name":"decimals","type":"uint256","internalType":"uint256"},{"name":"symbol","type":"string","internalType":"string"}]},{"name":"userPendingAmount","type":"uint256","internalType":"uint256"}]},{"name":"remainingReward","type":"uint256","internalType":"uint256"},{"name":"rewardPerSec","type":"uint256","internalType":"uint256"},{"name":"lastUpdateTimestamp","type":"uint256","internalType":"uint256"},{"name":"endUpdateTimestamp","type":"uint256","internalType":"uint256"}]},{"name":"userVotesOnFarm","type":"uint256","internalType":"uint256"},{"name":"userAmount","type":"uint256","internalType":"uint256"},{"name":"userPendingMoeReward","type":"uint256","internalType":"uint256"}]}]}],"stateMutability":"view"},{"type":"function","name":"getFarmDataAt","inputs":[{"name":"pid","type":"uint256","internalType":"uint256"},{"name":"user","type":"address","internalType":"address"}],"outputs":[{"name":"farm","type":"tuple","internalType":"struct MoeLens.Farm","components":[{"name":"pid","type":"uint256","internalType":"uint256"},{"name":"isRewardable","type":"bool","internalType":"bool"},{"name":"votesOnFarm","type":"uint256","internalType":"uint256"},{"name":"moePerSec","type":"uint256","internalType":"uint256"},{"name":"totalVotesOnFarm","type":"uint256","internalType":"uint256"},{"name":"totalWeightOnFarm","type":"uint256","internalType":"uint256"},{"name":"lpToken","type":"tuple","internalType":"struct MoeLens.Token","components":[{"name":"token","type":"address","internalType":"address"},{"name":"decimals","type":"uint256","internalType":"uint256"},{"name":"symbol","type":"string","internalType":"string"}]},{"name":"totalStaked","type":"uint256","internalType":"uint256"},{"name":"totalSupply","type":"uint256","internalType":"uint256"},{"name":"reserves","type":"tuple","internalType":"struct MoeLens.Reserves","components":[{"name":"token0","type":"tuple","internalType":"struct MoeLens.Token","components":[{"name":"token","type":"address","internalType":"address"},{"name":"decimals","type":"uint256","internalType":"uint256"},{"name":"symbol","type":"string","internalType":"string"}]},{"name":"token1","type":"tuple","internalType":"struct MoeLens.Token","components":[{"name":"token","type":"address","internalType":"address"},{"name":"decimals","type":"uint256","internalType":"uint256"},{"name":"symbol","type":"string","internalType":"string"}]},{"name":"reserve0","type":"uint256","internalType":"uint256"},{"name":"reserve1","type":"uint256","internalType":"uint256"}]},{"name":"rewarder","type":"tuple","internalType":"struct MoeLens.Rewarder","components":[{"name":"version","type":"uint256","internalType":"uint256"},{"name":"isSet","type":"bool","internalType":"bool"},{"name":"isStarted","type":"bool","internalType":"bool"},{"name":"isEnded","type":"bool","internalType":"bool"},{"name":"pid","type":"uint256","internalType":"uint256"},{"name":"totalDeposited","type":"uint256","internalType":"uint256"},{"name":"reward","type":"tuple","internalType":"struct MoeLens.Reward","components":[{"name":"token","type":"tuple","internalType":"struct MoeLens.Token","components":[{"name":"token","type":"address","internalType":"address"},{"name":"decimals","type":"uint256","internalType":"uint256"},{"name":"symbol","type":"string","internalType":"string"}]},{"name":"userPendingAmount","type":"uint256","internalType":"uint256"}]},{"name":"remainingReward","type":"uint256","internalType":"uint256"},{"name":"rewardPerSec","type":"uint256","internalType":"uint256"},{"name":"lastUpdateTimestamp","type":"uint256","internalType":"uint256"},{"name":"endUpdateTimestamp","type":"uint256","internalType":"uint256"}]},{"name":"userVotesOnFarm","type":"uint256","internalType":"uint256"},{"name":"userAmount","type":"uint256","internalType":"uint256"},{"name":"userPendingMoeReward","type":"uint256","internalType":"uint256"}]}],"stateMutability":"view"},{"type":"function","name":"getJoeStakingData","inputs":[{"name":"user","type":"address","internalType":"address"}],"outputs":[{"name":"data","type":"tuple","internalType":"struct MoeLens.JoeStakingData","components":[{"name":"joeStakingAddress","type":"address","internalType":"address"},{"name":"joeAddress","type":"address","internalType":"address"},{"name":"rewarderAddress","type":"address","internalType":"address"},{"name":"totalStaked","type":"uint256","internalType":"uint256"},{"name":"userStaked","type":"uint256","internalType":"uint256"},{"name":"userReward","type":"tuple","internalType":"struct MoeLens.Reward","components":[{"name":"token","type":"tuple","internalType":"struct MoeLens.Token","components":[{"name":"token","type":"address","internalType":"address"},{"name":"decimals","type":"uint256","internalType":"uint256"},{"name":"symbol","type":"string","internalType":"string"}]},{"name":"userPendingAmount","type":"uint256","internalType":"uint256"}]}]}],"stateMutability":"view"},{"type":"function","name":"getMasterChefPendingRewardsAt","inputs":[{"name":"user","type":"address","internalType":"address"},{"name":"pid","type":"uint256","internalType":"uint256"}],"outputs":[{"name":"moeReward","type":"uint256","internalType":"uint256"},{"name":"extraToken","type":"address","internalType":"address"},{"name":"extraReward","type":"uint256","internalType":"uint256"}],"stateMutability":"view"},{"type":"function","name":"getPoolDataAt","inputs":[{"name":"lpToken","type":"address","internalType":"address"}],"outputs":[{"name":"reserves","type":"tuple","internalType":"struct MoeLens.Reserves","components":[{"name":"token0","type":"tuple","internalType":"struct MoeLens.Token","components":[{"name":"token","type":"address","internalType":"address"},{"name":"decimals","type":"uint256","internalType":"uint256"},{"name":"symbol","type":"string","internalType":"string"}]},{"name":"token1","type":"tuple","internalType":"struct MoeLens.Token","components":[{"name":"token","type":"address","internalType":"address"},{"name":"decimals","type":"uint256","internalType":"uint256"},{"name":"symbol","type":"string","internalType":"string"}]},{"name":"reserve0","type":"uint256","internalType":"uint256"},{"name":"reserve1","type":"uint256","internalType":"uint256"}]}],"stateMutability":"view"},{"type":"function","name":"getRewardData","inputs":[{"name":"token","type":"address","internalType":"address"},{"name":"amount","type":"uint256","internalType":"uint256"}],"outputs":[{"name":"reward","type":"tuple","internalType":"struct MoeLens.Reward","components":[{"name":"token","type":"tuple","internalType":"struct MoeLens.Token","components":[{"name":"token","type":"address","internalType":"address"},{"name":"decimals","type":"uint256","internalType":"uint256"},{"name":"symbol","type":"string","internalType":"string"}]},{"name":"userPendingAmount","type":"uint256","internalType":"uint256"}]}],"stateMutability":"view"},{"type":"function","name":"getStakingData","inputs":[{"name":"user","type":"address","internalType":"address"}],"outputs":[{"name":"staking","type":"tuple","internalType":"struct MoeLens.MoeStakingData","components":[{"name":"moeStakingAddress","type":"address","internalType":"address"},{"name":"veMoeAddress","type":"address","internalType":"address"},{"name":"sMoeAddress","type":"address","internalType":"address"},{"name":"totalStaked","type":"uint256","internalType":"uint256"},{"name":"totalVotes","type":"uint256","internalType":"uint256"},{"name":"totalWeight","type":"uint256","internalType":"uint256"},{"name":"alpha","type":"uint256","internalType":"uint256"},{"name":"userStaked","type":"uint256","internalType":"uint256"},{"name":"userTotalVeMoe","type":"uint256","internalType":"uint256"},{"name":"userTotalVotes","type":"uint256","internalType":"uint256"},{"name":"userRewards","type":"tuple[]","internalType":"struct MoeLens.Reward[]","components":[{"name":"token","type":"tuple","internalType":"struct MoeLens.Token","components":[{"name":"token","type":"address","internalType":"address"},{"name":"decimals","type":"uint256","internalType":"uint256"},{"name":"symbol","type":"string","internalType":"string"}]},{"name":"userPendingAmount","type":"uint256","internalType":"uint256"}]}]}],"stateMutability":"view"},{"type":"function","name":"getVeMoeData","inputs":[{"name":"start","type":"uint256","internalType":"uint256"},{"name":"nb","type":"uint256","internalType":"uint256"},{"name":"user","type":"address","internalType":"address"}],"outputs":[{"name":"data","type":"tuple","internalType":"struct MoeLens.VeMoeData","components":[{"name":"moeStakingAddress","type":"address","internalType":"address"},{"name":"veMoeAddress","type":"address","internalType":"address"},{"name":"totalVotes","type":"uint256","internalType":"uint256"},{"name":"totalWeight","type":"uint256","internalType":"uint256"},{"name":"alpha","type":"uint256","internalType":"uint256"},{"name":"maxVeMoe","type":"uint256","internalType":"uint256"},{"name":"veMoePerSecondPerMoe","type":"uint256","internalType":"uint256"},{"name":"topPoolsIds","type":"uint256[]","internalType":"uint256[]"},{"name":"votes","type":"tuple[]","internalType":"struct MoeLens.Vote[]","components":[{"name":"pid","type":"uint256","internalType":"uint256"},{"name":"totalVotesOnFarm","type":"uint256","internalType":"uint256"},{"name":"totalWeightOnFarm","type":"uint256","internalType":"uint256"},{"name":"rewarder","type":"tuple","internalType":"struct MoeLens.Rewarder","components":[{"name":"version","type":"uint256","internalType":"uint256"},{"name":"isSet","type":"bool","internalType":"bool"},{"name":"isStarted","type":"bool","internalType":"bool"},{"name":"isEnded","type":"bool","internalType":"bool"},{"name":"pid","type":"uint256","internalType":"uint256"},{"name":"totalDeposited","type":"uint256","internalType":"uint256"},{"name":"reward","type":"tuple","internalType":"struct MoeLens.Reward","components":[{"name":"token","type":"tuple","internalType":"struct MoeLens.Token","components":[{"name":"token","type":"address","internalType":"address"},{"name":"decimals","type":"uint256","internalType":"uint256"},{"name":"symbol","type":"string","internalType":"string"}]},{"name":"userPendingAmount","type":"uint256","internalType":"uint256"}]},{"name":"remainingReward","type":"uint256","internalType":"uint256"},{"name":"rewardPerSec","type":"uint256","internalType":"uint256"},{"name":"lastUpdateTimestamp","type":"uint256","internalType":"uint256"},{"name":"endUpdateTimestamp","type":"uint256","internalType":"uint256"}]},{"name":"userVotesOnFarm","type":"uint256","internalType":"uint256"},{"name":"userPendingReward","type":"uint256","internalType":"uint256"}]},{"name":"userTotalVeMoe","type":"uint256","internalType":"uint256"},{"name":"userTotalVotes","type":"uint256","internalType":"uint256"}]}],"stateMutability":"view"},{"type":"function","name":"getVeMoeDataAt","inputs":[{"name":"pid","type":"uint256","internalType":"uint256"},{"name":"user","type":"address","internalType":"address"}],"outputs":[{"name":"vote","type":"tuple","internalType":"struct MoeLens.Vote","components":[{"name":"pid","type":"uint256","internalType":"uint256"},{"name":"totalVotesOnFarm","type":"uint256","internalType":"uint256"},{"name":"totalWeightOnFarm","type":"uint256","internalType":"uint256"},{"name":"rewarder","type":"tuple","internalType":"struct MoeLens.Rewarder","components":[{"name":"version","type":"uint256","internalType":"uint256"},{"name":"isSet","type":"bool","internalType":"bool"},{"name":"isStarted","type":"bool","internalType":"bool"},{"name":"isEnded","type":"bool","internalType":"bool"},{"name":"pid","type":"uint256","internalType":"uint256"},{"name":"totalDeposited","type":"uint256","internalType":"uint256"},{"name":"reward","type":"tuple","internalType":"struct MoeLens.Reward","components":[{"name":"token","type":"tuple","internalType":"struct MoeLens.Token","components":[{"name":"token","type":"address","internalType":"address"},{"name":"decimals","type":"uint256","internalType":"uint256"},{"name":"symbol","type":"string","internalType":"string"}]},{"name":"userPendingAmount","type":"uint256","internalType":"uint256"}]},{"name":"remainingReward","type":"uint256","internalType":"uint256"},{"name":"rewardPerSec","type":"uint256","internalType":"uint256"},{"name":"lastUpdateTimestamp","type":"uint256","internalType":"uint256"},{"name":"endUpdateTimestamp","type":"uint256","internalType":"uint256"}]},{"name":"userVotesOnFarm","type":"uint256","internalType":"uint256"},{"name":"userPendingReward","type":"uint256","internalType":"uint256"}]}],"stateMutability":"view"},{"type":"function","name":"getVeMoeRewarderData","inputs":[{"name":"start","type":"uint256","internalType":"uint256"},{"name":"nb","type":"uint256","internalType":"uint256"}],"outputs":[{"name":"data","type":"tuple","internalType":"struct MoeLens.VeMoeRewarderData","components":[{"name":"rewarderFactory","type":"address","internalType":"address"},{"name":"totalNumberOfRewarders","type":"uint256","internalType":"uint256"},{"name":"rewarders","type":"tuple[]","internalType":"struct MoeLens.Rewarder[]","components":[{"name":"version","type":"uint256","internalType":"uint256"},{"name":"isSet","type":"bool","internalType":"bool"},{"name":"isStarted","type":"bool","internalType":"bool"},{"name":"isEnded","type":"bool","internalType":"bool"},{"name":"pid","type":"uint256","internalType":"uint256"},{"name":"totalDeposited","type":"uint256","internalType":"uint256"},{"name":"reward","type":"tuple","internalType":"struct MoeLens.Reward","components":[{"name":"token","type":"tuple","internalType":"struct MoeLens.Token","components":[{"name":"token","type":"address","internalType":"address"},{"name":"decimals","type":"uint256","internalType":"uint256"},{"name":"symbol","type":"string","internalType":"string"}]},{"name":"userPendingAmount","type":"uint256","internalType":"uint256"}]},{"name":"remainingReward","type":"uint256","internalType":"uint256"},{"name":"rewardPerSec","type":"uint256","internalType":"uint256"},{"name":"lastUpdateTimestamp","type":"uint256","internalType":"uint256"},{"name":"endUpdateTimestamp","type":"uint256","internalType":"uint256"}]}]}],"stateMutability":"view"},{"type":"function","name":"getVeMoeRewarderDataAt","inputs":[{"name":"index","type":"uint256","internalType":"uint256"}],"outputs":[{"name":"rewarder","type":"tuple","internalType":"struct MoeLens.Rewarder","components":[{"name":"version","type":"uint256","internalType":"uint256"},{"name":"isSet","type":"bool","internalType":"bool"},{"name":"isStarted","type":"bool","internalType":"bool"},{"name":"isEnded","type":"bool","internalType":"bool"},{"name":"pid","type":"uint256","internalType":"uint256"},{"name":"totalDeposited","type":"uint256","internalType":"uint256"},{"name":"reward","type":"tuple","internalType":"struct MoeLens.Reward","components":[{"name":"token","type":"tuple","internalType":"struct MoeLens.Token","components":[{"name":"token","type":"address","internalType":"address"},{"name":"decimals","type":"uint256","internalType":"uint256"},{"name":"symbol","type":"string","internalType":"string"}]},{"name":"userPendingAmount","type":"uint256","internalType":"uint256"}]},{"name":"remainingReward","type":"uint256","internalType":"uint256"},{"name":"rewardPerSec","type":"uint256","internalType":"uint256"},{"name":"lastUpdateTimestamp","type":"uint256","internalType":"uint256"},{"name":"endUpdateTimestamp","type":"uint256","internalType":"uint256"}]}],"stateMutability":"view"}],"bytecode":{"object":"0x6101606040523480156200001257600080fd5b506040516200520238038062005202833981016040819052620000359162000304565b6001600160a01b038316608052600062000050828262000493565b50816001600160a01b0316610120816001600160a01b031681525050826001600160a01b03166393f945036040518163ffffffff1660e01b8152600401602060405180830381865afa158015620000ab573d6000803e3d6000fd5b505050506040513d601f19601f82011682018060405250810190620000d191906200055f565b6001600160a01b031660a0816001600160a01b031681525050826001600160a01b0316637e63f0286040518163ffffffff1660e01b8152600401602060405180830381865afa15801562000129573d6000803e3d6000fd5b505050506040513d601f19601f820116820180604052508101906200014f91906200055f565b6001600160a01b031660c0816001600160a01b031681525050826001600160a01b0316635c4323ab6040518163ffffffff1660e01b8152600401602060405180830381865afa158015620001a7573d6000803e3d6000fd5b505050506040513d601f19601f82011682018060405250810190620001cd91906200055f565b6001600160a01b0316610140816001600160a01b03168152505060c0516001600160a01b03166372f148b86040518163ffffffff1660e01b8152600401602060405180830381865afa15801562000228573d6000803e3d6000fd5b505050506040513d601f19601f820116820180604052508101906200024e91906200055f565b6001600160a01b031661010081905260408051637ac20b5760e01b81529051637ac20b57916004808201926020929091908290030181865afa15801562000299573d6000803e3d6000fd5b505050506040513d601f19601f82011682018060405250810190620002bf91906200055f565b6001600160a01b031660e0525062000586915050565b6001600160a01b0381168114620002eb57600080fd5b50565b634e487b7160e01b600052604160045260246000fd5b6000806000606084860312156200031a57600080fd5b83516200032781620002d5565b809350506020808501516200033c81620002d5565b60408601519093506001600160401b03808211156200035a57600080fd5b818701915087601f8301126200036f57600080fd5b815181811115620003845762000384620002ee565b604051601f8201601f19908116603f01168101908382118183101715620003af57620003af620002ee565b816040528281528a86848701011115620003c857600080fd5b600093505b82841015620003ec5784840186015181850187015292850192620003cd565b60008684830101528096505050505050509250925092565b600181811c908216806200041957607f821691505b6020821081036200043a57634e487b7160e01b600052602260045260246000fd5b50919050565b601f8211156200048e57600081815260208120601f850160051c81016020861015620004695750805b601f850160051c820191505b818110156200048a5782815560010162000475565b5050505b505050565b81516001600160401b03811115620004af57620004af620002ee565b620004c781620004c0845462000404565b8462000440565b602080601f831160018114620004ff5760008415620004e65750858301515b600019600386901b1c1916600185901b1785556200048a565b600085815260208120601f198616915b8281101562000530578886015182559484019460019091019084016200050f565b50858210156200054f5787850151600019600388901b60f8161c191681555b5050505050600190811b01905550565b6000602082840312156200057257600080fd5b81516200057f81620002d5565b9392505050565b60805160a05160c05160e051610100516101205161014051614ab56200074d600039600081816112d50152818161138d0152612b080152600081816127c5015281816128d601528181612934015281816129c40152612a6b01526000818161041201528181611738015281816117c50152611a0101526000818161156b01526117960152600081816103970152818161044101528181610470015281816104f70152818161057e0152818161060e015281816106a90152818161073001528181610819015281816109a301528181610a3601528181610b5701528181610be501528181610f74015281816117670152818161184c015281816118d30152818161195a01528181611a9301528181611b2501528181611bd201528181611c5b01528181611ce901528181611d8c01528181611edd0152818161204901528181612d3f01528181612f6901528181612ff0015281816130770152818161318b015261324c015260008181612848015281816129050152612f3a0152600081816102c001528181610ac601528181610c7601528181610df70152818161100b015281816110af0152818161233601528181612e4901528181612f0b01526130fe0152614ab56000f3fe608060405234801561001057600080fd5b50600436106100c95760003560e01c8063840fe8ab11610081578063ca5cf4ad1161005b578063ca5cf4ad146101ed578063ea3224841461020d578063f4804a6d1461022d57600080fd5b8063840fe8ab14610177578063a017140a14610197578063a11e5fb8146101cd57600080fd5b806367453db1116100b257806367453db11461011757806367a7b5f61461013757806374e88e691461015757600080fd5b80632030c498146100ce57806349614e51146100f7575b600080fd5b6100e16100dc366004613704565b61024d565b6040516100ee919061396a565b60405180910390f35b61010a610105366004613a30565b610982565b6040516100ee9190613b86565b61012a610125366004613ba0565b61129f565b6040516100ee9190613bc2565b61014a610145366004613c4a565b6114cf565b6040516100ee9190613cbc565b61016a610165366004613a30565b611ba1565b6040516100ee9190613d81565b61018a610185366004613d94565b61211f565b6040516100ee9190613dc0565b6101aa6101a5366004613d94565b6122e6565b604080519384526001600160a01b039092166020840152908201526060016100ee565b6101e06101db366004613c4a565b61242f565b6040516100ee9190613dd3565b6102006101fb366004613c4a565b612793565b6040516100ee9190613de6565b61022061021b366004613e42565b612ae6565b6040516100ee9190613e5b565b61024061023b366004613704565b612ddd565b6040516100ee9190613eb6565b6102bc60405180610160016040528060006001600160a01b0316815260200160006001600160a01b031681526020016000815260200160008152602001600081526020016000815260200160008152602001606081526020016060815260200160008152602001600081525090565b60007f00000000000000000000000000000000000000000000000000000000000000006001600160a01b031663c7a617836040518163ffffffff1660e01b8152600401602060405180830381865afa15801561031c573d6000803e3d6000fd5b505050506040513d601f19601f820116820180604052508101906103409190613f59565b90508085101561036f57806103558587613f88565b116103605783610372565b61036a8582613fa1565b610372565b60005b6040516370a0823160e01b81526001600160a01b0385811660048301529195506000917f000000000000000000000000000000000000000000000000000000000000000016906370a0823190602401602060405180830381865afa1580156103de573d6000803e3d6000fd5b505050506040513d601f19601f820116820180604052508101906104029190613f59565b90506040518061016001604052807f00000000000000000000000000000000000000000000000000000000000000006001600160a01b031681526020017f00000000000000000000000000000000000000000000000000000000000000006001600160a01b031681526020017f00000000000000000000000000000000000000000000000000000000000000006001600160a01b0316639a0e7d666040518163ffffffff1660e01b8152600401602060405180830381865afa1580156104cc573d6000803e3d6000fd5b505050506040513d601f19601f820116820180604052508101906104f09190613f59565b81526020017f00000000000000000000000000000000000000000000000000000000000000006001600160a01b03166306aba0e16040518163ffffffff1660e01b8152600401602060405180830381865afa158015610553573d6000803e3d6000fd5b505050506040513d601f19601f820116820180604052508101906105779190613f59565b81526020017f00000000000000000000000000000000000000000000000000000000000000006001600160a01b031663f4988a3d6040518163ffffffff1660e01b8152600401602060405180830381865afa1580156105da573d6000803e3d6000fd5b505050506040513d601f19601f820116820180604052508101906105fe9190613f59565b8152602001670de0b6b3a76400007f00000000000000000000000000000000000000000000000000000000000000006001600160a01b031663888ed79e6040518163ffffffff1660e01b8152600401602060405180830381865afa15801561066a573d6000803e3d6000fd5b505050506040513d601f19601f8201168201806040525081019061068e9190613f59565b6106989085613fb4565b6106a29190613fcb565b81526020017f00000000000000000000000000000000000000000000000000000000000000006001600160a01b0316634f913d346040518163ffffffff1660e01b8152600401602060405180830381865afa158015610705573d6000803e3d6000fd5b505050506040513d601f19601f820116820180604052508101906107299190613f59565b81526020017f00000000000000000000000000000000000000000000000000000000000000006001600160a01b031663e1e4d4196040518163ffffffff1660e01b8152600401600060405180830381865afa15801561078c573d6000803e3d6000fd5b505050506040513d6000823e601f3d908101601f191682016040526107b49190810190614134565b81526020018667ffffffffffffffff8111156107d2576107d2613fed565b60405190808252806020026020018201604052801561080b57816020015b6107f86134b0565b8152602001906001900390816107f05790505b5081526020018281526020017f00000000000000000000000000000000000000000000000000000000000000006001600160a01b031663518ab0d0876040518263ffffffff1660e01b815260040161087291906001600160a01b0391909116815260200190565b602060405180830381865afa15801561088f573d6000803e3d6000fd5b505050506040513d601f19601f820116820180604052508101906108b39190613f59565b9052925060005b8581101561097857306374e88e696108d2838a613f88565b6040516001600160e01b031960e084901b16815260048101919091526001600160a01b0388166024820152604401600060405180830381865afa92505050801561093e57506040513d6000823e601f3d908101601f1916820160405261093b919081019061439e565b60015b156109685780856101000151838151811061095b5761095b614440565b6020026020010181905250505b61097181614456565b90506108ba565b5050509392505050565b61098a6134ec565b82815260405163444f303960e11b8152600481018490527f00000000000000000000000000000000000000000000000000000000000000006001600160a01b03169063889e607290602401602060405180830381865afa1580156109f2573d6000803e3d6000fd5b505050506040513d601f19601f82011682018060405250810190610a16919061446f565b1515602082015260405160016267ef6760e01b03198152600481018490527f00000000000000000000000000000000000000000000000000000000000000006001600160a01b03169063ff98109990602401602060405180830381865afa158015610a85573d6000803e3d6000fd5b505050506040513d601f19601f82011682018060405250810190610aa99190613f59565b6040828101919091525163d4f9dd1d60e01b8152600481018490527f00000000000000000000000000000000000000000000000000000000000000006001600160a01b03169063d4f9dd1d90602401602060405180830381865afa158015610b15573d6000803e3d6000fd5b505050506040513d601f19601f82011682018060405250810190610b399190613f59565b606082015260405160016267ef6760e01b03198152600481018490527f00000000000000000000000000000000000000000000000000000000000000006001600160a01b03169063ff98109990602401602060405180830381865afa158015610ba6573d6000803e3d6000fd5b505050506040513d601f19601f82011682018060405250810190610bca9190613f59565b608082015260405163d851fdfd60e01b8152600481018490527f00000000000000000000000000000000000000000000000000000000000000006001600160a01b03169063d851fdfd90602401602060405180830381865afa158015610c34573d6000803e3d6000fd5b505050506040513d601f19601f82011682018060405250810190610c589190613f59565b60a0820152604051631c96a19760e31b8152600481018490526000907f00000000000000000000000000000000000000000000000000000000000000006001600160a01b03169063e4b50cb890602401602060405180830381865afa158015610cc5573d6000803e3d6000fd5b505050506040513d601f19601f82011682018060405250810190610ce9919061448a565b90506000816001600160a01b031663313ce5676040518163ffffffff1660e01b8152600401602060405180830381865afa158015610d2b573d6000803e3d6000fd5b505050506040513d601f19601f82011682018060405250810190610d4f91906144a7565b60ff1690506040518060600160405280836001600160a01b03168152602001828152602001836001600160a01b03166395d89b416040518163ffffffff1660e01b8152600401600060405180830381865afa158015610db2573d6000803e3d6000fd5b505050506040513d6000823e601f3d908101601f19168201604052610dda91908101906144ca565b905260c084015260405163691d5cbd60e11b8152600481018690527f00000000000000000000000000000000000000000000000000000000000000006001600160a01b03169063d23ab97a90602401602060405180830381865afa158015610e46573d6000803e3d6000fd5b505050506040513d601f19601f82011682018060405250810190610e6a9190613f59565b8360e0018181525050816001600160a01b03166318160ddd6040518163ffffffff1660e01b8152600401602060405180830381865afa158015610eb1573d6000803e3d6000fd5b505050506040513d601f19601f82011682018060405250810190610ed59190613f59565b610100840152604051631423cbf760e31b81526001600160a01b0383166004820152309063a11e5fb890602401600060405180830381865afa925050508015610f4057506040513d6000823e601f3d908101601f19168201604052610f3d919081019061459d565b60015b15610f4c576101208401525b50506040516303a997ab60e11b81526001600160a01b038381166004830152602482018590527f000000000000000000000000000000000000000000000000000000000000000016906307532f5690604401602060405180830381865afa158015610fbb573d6000803e3d6000fd5b505050506040513d601f19601f82011682018060405250810190610fdf9190613f59565b610160820152604051634fa44f2760e11b8152600481018490526001600160a01b0383811660248301527f00000000000000000000000000000000000000000000000000000000000000001690639f489e4e90604401602060405180830381865afa158015611052573d6000803e3d6000fd5b505050506040513d601f19601f820116820180604052508101906110769190613f59565b61018082015260008061108984866122e6565b6101a086018390526040516339996d0560e21b81526004810189905292945092506000917f00000000000000000000000000000000000000000000000000000000000000006001600160a01b0316915063e665b41490602401602060405180830381865afa1580156110ff573d6000803e3d6000fd5b505050506040513d601f19601f82011682018060405250810190611123919061448a565b90506001600160a01b0381161561129657600080600080846001600160a01b03166339cbec9d6040518163ffffffff1660e01b8152600401608060405180830381865afa158015611178573d6000803e3d6000fd5b505050506040513d601f19601f8201168201806040525081019061119c91906145d2565b93509350935093506111ac613594565b60405163840fe8ab60e01b81526001600160a01b038616600482015260248101889052309063840fe8ab90604401600060405180830381865afa92505050801561121857506040513d6000823e601f3d908101601f191682016040526112159190810190614611565b60015b156112205790505b60008061122c886133dd565b6040805161016081018252918252600160208301524280891115918301919091528611156060820152608081018f905260e0808e015160a083015260c082019590955293840152505061010081019390935261012083019190915261014080830191909152860152505b50505092915050565b60408051606080820183526000808352602083015291810191909152604051631b1444b560e11b81526000906001600160a01b037f00000000000000000000000000000000000000000000000000000000000000001690633628896a9061130b90600290600401614668565b602060405180830381865afa158015611328573d6000803e3d6000fd5b505050506040513d601f19601f8201168201806040525081019061134c9190613f59565b90508084101561137b57806113618486613f88565b1161136c578261137e565b6113768482613fa1565b61137e565b60005b925060405180606001604052807f00000000000000000000000000000000000000000000000000000000000000006001600160a01b031681526020018281526020018467ffffffffffffffff8111156113d9576113d9613fed565b60405190808252806020026020018201604052801561141257816020015b6113ff6135d9565b8152602001906001900390816113f75790505b509052915060005b838110156114c7573063ea3224846114328388613f88565b6040518263ffffffff1660e01b815260040161145091815260200190565b600060405180830381865afa92505050801561148e57506040513d6000823e601f3d908101601f1916820160405261148b9190810190614676565b60015b156114b75780846040015183815181106114aa576114aa614440565b6020026020010181905250505b6114c081614456565b905061141a565b505092915050565b61154760405180610160016040528060006001600160a01b0316815260200160006001600160a01b0316815260200160006001600160a01b0316815260200160008152602001600081526020016000815260200160008152602001600081526020016000815260200160008152602001606081525090565b60405163f6ed201760e01b81526001600160a01b03838116600483015260009182917f0000000000000000000000000000000000000000000000000000000000000000169063f6ed201790602401600060405180830381865afa1580156115b2573d6000803e3d6000fd5b505050506040513d6000823e601f3d908101601f191682016040526115da919081019061470f565b915091506000825167ffffffffffffffff8111156115fa576115fa613fed565b60405190808252806020026020018201604052801561163357816020015b611620613594565b8152602001906001900390816116185790505b50905060005b835181101561172957306001600160a01b031663840fe8ab85838151811061166357611663614440565b602002602001015185848151811061167d5761167d614440565b60200260200101516040518363ffffffff1660e01b81526004016116b69291906001600160a01b03929092168252602082015260400190565b600060405180830381865afa9250505080156116f457506040513d6000823e601f3d908101601f191682016040526116f19190810190614611565b60015b15611719578083838151811061170c5761170c614440565b6020026020010181905250505b61172281614456565b9050611639565b506040518061016001604052807f00000000000000000000000000000000000000000000000000000000000000006001600160a01b031681526020017f00000000000000000000000000000000000000000000000000000000000000006001600160a01b031681526020017f00000000000000000000000000000000000000000000000000000000000000006001600160a01b031681526020017f00000000000000000000000000000000000000000000000000000000000000006001600160a01b031663c022215c6040518163ffffffff1660e01b8152600401602060405180830381865afa158015611821573d6000803e3d6000fd5b505050506040513d601f19601f820116820180604052508101906118459190613f59565b81526020017f00000000000000000000000000000000000000000000000000000000000000006001600160a01b0316639a0e7d666040518163ffffffff1660e01b8152600401602060405180830381865afa1580156118a8573d6000803e3d6000fd5b505050506040513d601f19601f820116820180604052508101906118cc9190613f59565b81526020017f00000000000000000000000000000000000000000000000000000000000000006001600160a01b03166306aba0e16040518163ffffffff1660e01b8152600401602060405180830381865afa15801561192f573d6000803e3d6000fd5b505050506040513d601f19601f820116820180604052508101906119539190613f59565b81526020017f00000000000000000000000000000000000000000000000000000000000000006001600160a01b031663f4988a3d6040518163ffffffff1660e01b8152600401602060405180830381865afa1580156119b6573d6000803e3d6000fd5b505050506040513d601f19601f820116820180604052508101906119da9190613f59565b8152604051637092a7dd60e11b81526001600160a01b0388811660048301526020909201917f0000000000000000000000000000000000000000000000000000000000000000169063e1254fba90602401602060405180830381865afa158015611a48573d6000803e3d6000fd5b505050506040513d601f19601f82011682018060405250810190611a6c9190613f59565b81526040516370a0823160e01b81526001600160a01b0388811660048301526020909201917f000000000000000000000000000000000000000000000000000000000000000016906370a0823190602401602060405180830381865afa158015611ada573d6000803e3d6000fd5b505050506040513d601f19601f82011682018060405250810190611afe9190613f59565b8152604051630518ab0d60e41b81526001600160a01b0388811660048301526020909201917f0000000000000000000000000000000000000000000000000000000000000000169063518ab0d090602401602060405180830381865afa158015611b6c573d6000803e3d6000fd5b505050506040513d601f19601f82011682018060405250810190611b909190613f59565b815260200191909152949350505050565b611ba96134b0565b8281526040516303a997ab60e11b81526001600160a01b038381166004830152602482018590527f000000000000000000000000000000000000000000000000000000000000000016906307532f5690604401602060405180830381865afa158015611c19573d6000803e3d6000fd5b505050506040513d601f19601f82011682018060405250810190611c3d9190613f59565b608082015260405160016267ef6760e01b03198152600481018490527f00000000000000000000000000000000000000000000000000000000000000006001600160a01b03169063ff98109990602401602060405180830381865afa158015611caa573d6000803e3d6000fd5b505050506040513d601f19601f82011682018060405250810190611cce9190613f59565b602082015260405163d851fdfd60e01b8152600481018490527f00000000000000000000000000000000000000000000000000000000000000006001600160a01b03169063d851fdfd90602401602060405180830381865afa158015611d38573d6000803e3d6000fd5b505050506040513d601f19601f82011682018060405250810190611d5c9190613f59565b60408281019190915251630df7df1b60e11b81526001600160a01b038381166004830152602482018590526000917f000000000000000000000000000000000000000000000000000000000000000090911690631befbe3690604401602060405180830381865afa158015611dd5573d6000803e3d6000fd5b505050506040513d601f19601f82011682018060405250810190611df9919061448a565b90506001600160a01b0381161561211857600080600080846001600160a01b03166339cbec9d6040518163ffffffff1660e01b8152600401608060405180830381865afa158015611e4e573d6000803e3d6000fd5b505050506040513d601f19601f82011682018060405250810190611e7291906145d2565b9350935093509350611e82613594565b604080516001808252818301909252600091602080830190803683370190505090508981600081518110611eb857611eb8614440565b6020908102919091010152604051632b357fb560e11b81526000906001600160a01b037f0000000000000000000000000000000000000000000000000000000000000000169063566aff6a90611f14908d908690600401614773565b600060405180830381865afa158015611f31573d6000803e3d6000fd5b505050506040513d6000823e601f3d908101601f19168201604052611f59919081019061470f565b915050306001600160a01b031663840fe8ab8883600081518110611f7f57611f7f614440565b60200260200101516040518363ffffffff1660e01b8152600401611fb89291906001600160a01b03929092168252602082015260400190565b600060405180830381865afa925050508015611ff657506040513d6000823e601f3d908101601f19168201604052611ff39190810190614611565b60015b15611ffe5792505b505060008061200c886133dd565b91509150604051806101600160405280828152602001600115158152602001428711151515815260200142861115151581526020018c81526020017f00000000000000000000000000000000000000000000000000000000000000006001600160a01b031663e720e4838b8f6040518363ffffffff1660e01b81526004016120a99291906001600160a01b03929092168252602082015260400190565b602060405180830381865afa1580156120c6573d6000803e3d6000fd5b505050506040513d601f19601f820116820180604052508101906120ea9190613f59565b81526020810194909452604084019290925250606080830195909552608082019390935260a0015290840152505b5092915050565b612127613594565b60006001600160a01b038416156121a357836001600160a01b03166395d89b416040518163ffffffff1660e01b8152600401600060405180830381865afa158015612176573d6000803e3d6000fd5b505050506040513d6000823e601f3d908101601f1916820160405261219e91908101906144ca565b61222f565b600080546121b0906147bd565b80601f01602080910402602001604051908101604052809291908181526020018280546121dc906147bd565b80156122295780601f106121fe57610100808354040283529160200191612229565b820191906000526020600020905b81548152906001019060200180831161220c57829003601f168201915b50505050505b905060006001600160a01b038516156122a957846001600160a01b031663313ce5676040518163ffffffff1660e01b8152600401602060405180830381865afa158015612280573d6000803e3d6000fd5b505050506040513d601f19601f820116820180604052508101906122a491906144a7565b6122ac565b60125b6040805160a0810182526001600160a01b0390971690870190815260ff919091166060870152608086019290925250835250602082015290565b6040805160018082528183019092526000918291829182919060208083019080368337019050509050848160008151811061232357612323614440565b60200260200101818152505060008060007f00000000000000000000000000000000000000000000000000000000000000006001600160a01b031663566aff6a8a866040518363ffffffff1660e01b8152600401612382929190614773565b600060405180830381865afa15801561239f573d6000803e3d6000fd5b505050506040513d6000823e601f3d908101601f191682016040526123c791908101906147f7565b925092509250826000815181106123e0576123e0614440565b6020026020010151826000815181106123fb576123fb614440565b60200260200101518260008151811061241657612416614440565b6020026020010151965096509650505050509250925092565b61243761363f565b600080836001600160a01b0316630902f1ac6040518163ffffffff1660e01b8152600401606060405180830381865afa158015612478573d6000803e3d6000fd5b505050506040513d601f19601f8201168201806040525081019061249c919061489d565b506dffffffffffffffffffffffffffff1691506dffffffffffffffffffffffffffff1691506000846001600160a01b0316630dfe16816040518163ffffffff1660e01b8152600401602060405180830381865afa158015612501573d6000803e3d6000fd5b505050506040513d601f19601f82011682018060405250810190612525919061448a565b90506000856001600160a01b031663d21220a76040518163ffffffff1660e01b8152600401602060405180830381865afa158015612567573d6000803e3d6000fd5b505050506040513d601f19601f8201168201806040525081019061258b919061448a565b90506000826001600160a01b031663313ce5676040518163ffffffff1660e01b8152600401602060405180830381865afa1580156125cd573d6000803e3d6000fd5b505050506040513d601f19601f820116820180604052508101906125f191906144a7565b60ff1690506000826001600160a01b031663313ce5676040518163ffffffff1660e01b8152600401602060405180830381865afa158015612636573d6000803e3d6000fd5b505050506040513d601f19601f8201168201806040525081019061265a91906144a7565b60ff1690506040518060600160405280856001600160a01b03168152602001838152602001856001600160a01b03166395d89b416040518163ffffffff1660e01b8152600401600060405180830381865afa1580156126bd573d6000803e3d6000fd5b505050506040513d6000823e601f3d908101601f191682016040526126e591908101906144ca565b81525087600001819052506040518060600160405280846001600160a01b03168152602001828152602001846001600160a01b03166395d89b416040518163ffffffff1660e01b8152600401600060405180830381865afa15801561274e573d6000803e3d6000fd5b505050506040513d6000823e601f3d908101601f1916820160405261277691908101906144ca565b905260208801525050505060408301919091526060820152919050565b61279b613696565b6127a3613594565b6040516326fceb5d60e11b81526001600160a01b0384811660048301526000917f000000000000000000000000000000000000000000000000000000000000000090911690634df9d6ba906024016040805180830381865afa15801561280d573d6000803e3d6000fd5b505050506040513d601f19601f8201168201806040525081019061283191906148e2565b60405163840fe8ab60e01b81526001600160a01b037f00000000000000000000000000000000000000000000000000000000000000001660048201526024810182905290925030915063840fe8ab90604401600060405180830381865afa9250505080156128c157506040513d6000823e601f3d908101601f191682016040526128be9190810190614611565b60015b156128c95791505b6040518060c001604052807f00000000000000000000000000000000000000000000000000000000000000006001600160a01b031681526020017f00000000000000000000000000000000000000000000000000000000000000006001600160a01b031681526020017f00000000000000000000000000000000000000000000000000000000000000006001600160a01b0316639015dcc96040518163ffffffff1660e01b8152600401602060405180830381865afa158015612990573d6000803e3d6000fd5b505050506040513d601f19601f820116820180604052508101906129b4919061448a565b6001600160a01b031681526020017f00000000000000000000000000000000000000000000000000000000000000006001600160a01b031663c022215c6040518163ffffffff1660e01b8152600401602060405180830381865afa158015612a20573d6000803e3d6000fd5b505050506040513d601f19601f82011682018060405250810190612a449190613f59565b8152604051637092a7dd60e11b81526001600160a01b0387811660048301526020909201917f0000000000000000000000000000000000000000000000000000000000000000169063e1254fba90602401602060405180830381865afa158015612ab2573d6000803e3d6000fd5b505050506040513d601f19601f82011682018060405250810190612ad69190613f59565b8152602001929092525092915050565b612aee6135d9565b604051631caf7c9160e21b81526000906001600160a01b037f000000000000000000000000000000000000000000000000000000000000000016906372bdf24490612b40906002908790600401614910565b602060405180830381865afa158015612b5d573d6000803e3d6000fd5b505050506040513d601f19601f82011682018060405250810190612b81919061448a565b9050600080600080846001600160a01b03166339cbec9d6040518163ffffffff1660e01b8152600401608060405180830381865afa158015612bc7573d6000803e3d6000fd5b505050506040513d601f19601f82011682018060405250810190612beb91906145d2565b93509350935093506000856001600160a01b031663c87729636040518163ffffffff1660e01b8152600401602060405180830381865afa158015612c33573d6000803e3d6000fd5b505050506040513d601f19601f82011682018060405250810190612c579190613f59565b9050612c61613594565b60405163840fe8ab60e01b81526001600160a01b038716600482015260006024820152309063840fe8ab90604401600060405180830381865afa925050508015612ccd57506040513d6000823e601f3d908101601f19168201604052612cca9190810190614611565b60015b15612cd55790505b600080612ce1896133dd565b60408051610160810182528281526000602082015242808b111582840152891115606082015260808101889052905163e720e48360e01b81526001600160a01b038d81166004830152602482018990529395509193509160a08301917f00000000000000000000000000000000000000000000000000000000000000009091169063e720e48390604401602060405180830381865afa158015612d88573d6000803e3d6000fd5b505050506040513d601f19601f82011682018060405250810190612dac9190613f59565b8152602001848152602001838152602001888152602001878152602001868152509950505050505050505050919050565b612e4560405180610140016040528060006001600160a01b0316815260200160006001600160a01b0316815260200160008152602001600081526020016000815260200160008152602001600081526020016000815260200160008152602001606081525090565b60007f00000000000000000000000000000000000000000000000000000000000000006001600160a01b031663c7a617836040518163ffffffff1660e01b8152600401602060405180830381865afa158015612ea5573d6000803e3d6000fd5b505050506040513d601f19601f82011682018060405250810190612ec99190613f59565b905080851015612ef85780612ede8587613f88565b11612ee95783612efb565b612ef38582613fa1565b612efb565b60005b93506040518061014001604052807f00000000000000000000000000000000000000000000000000000000000000006001600160a01b031681526020017f00000000000000000000000000000000000000000000000000000000000000006001600160a01b031681526020017f00000000000000000000000000000000000000000000000000000000000000006001600160a01b0316639a0e7d666040518163ffffffff1660e01b8152600401602060405180830381865afa158015612fc5573d6000803e3d6000fd5b505050506040513d601f19601f82011682018060405250810190612fe99190613f59565b81526020017f00000000000000000000000000000000000000000000000000000000000000006001600160a01b03166306aba0e16040518163ffffffff1660e01b8152600401602060405180830381865afa15801561304c573d6000803e3d6000fd5b505050506040513d601f19601f820116820180604052508101906130709190613f59565b81526020017f00000000000000000000000000000000000000000000000000000000000000006001600160a01b031663f4988a3d6040518163ffffffff1660e01b8152600401602060405180830381865afa1580156130d3573d6000803e3d6000fd5b505050506040513d601f19601f820116820180604052508101906130f79190613f59565b81526020017f00000000000000000000000000000000000000000000000000000000000000006001600160a01b0316635b92d8316040518163ffffffff1660e01b8152600401602060405180830381865afa15801561315a573d6000803e3d6000fd5b505050506040513d601f19601f8201168201806040525081019061317e9190613f59565b81526020018281526020017f00000000000000000000000000000000000000000000000000000000000000006001600160a01b03166370a08231866040518263ffffffff1660e01b81526004016131e491906001600160a01b0391909116815260200190565b602060405180830381865afa158015613201573d6000803e3d6000fd5b505050506040513d601f19601f820116820180604052508101906132259190613f59565b8152604051630518ab0d60e41b81526001600160a01b0386811660048301526020909201917f0000000000000000000000000000000000000000000000000000000000000000169063518ab0d090602401602060405180830381865afa158015613293573d6000803e3d6000fd5b505050506040513d601f19601f820116820180604052508101906132b79190613f59565b81526020018567ffffffffffffffff8111156132d5576132d5613fed565b60405190808252806020026020018201604052801561330e57816020015b6132fb6134ec565b8152602001906001900390816132f35790505b509052915060005b848110156133d457306349614e5161332e8389613f88565b6040516001600160e01b031960e084901b16815260048101919091526001600160a01b0387166024820152604401600060405180830381865afa92505050801561339a57506040513d6000823e601f3d908101601f19168201604052613397919081019061492b565b60015b156133c4578084610120015183815181106133b7576133b7614440565b6020026020010181905250505b6133cd81614456565b9050613316565b50509392505050565b60408051600481526024810182526020810180517bffffffffffffffffffffffffffffffffffffffffffffffffffffffff16630605afe560e51b1790529051600091829182916001600160a01b038616916134389190614a63565b600060405180830381855afa9150503d8060008114613473576040519150601f19603f3d011682016040523d82523d6000602084013e613478565b606091505b50915050601f815111156134a5578080602001905181019061349a9190613f59565b9250600291506134aa565b600191505b50915091565b6040518060c001604052806000815260200160008152602001600081526020016134d86135d9565b815260200160008152602001600081525090565b604051806101c001604052806000815260200160001515815260200160008152602001600081526020016000815260200160008152602001613551604051806060016040528060006001600160a01b0316815260200160008152602001606081525090565b8152602001600081526020016000815260200161356c61363f565b81526020016135796135d9565b81526020016000815260200160008152602001600081525090565b60405180604001604052806135cc604051806060016040528060006001600160a01b0316815260200160008152602001606081525090565b8152602001600081525090565b60405180610160016040528060008152602001600015158152602001600015158152602001600015158152602001600081526020016000815260200161361d613594565b8152602001600081526020016000815260200160008152602001600081525090565b6040805160e0810190915260006080820181815260a0830191909152606060c0830152819081526020016134d8604051806060016040528060006001600160a01b0316815260200160008152602001606081525090565b6040518060c0016040528060006001600160a01b0316815260200160006001600160a01b0316815260200160006001600160a01b0316815260200160008152602001600081526020016136e7613594565b905290565b6001600160a01b038116811461370157600080fd5b50565b60008060006060848603121561371957600080fd5b83359250602084013591506040840135613732816136ec565b809150509250925092565b600081518084526020808501945080840160005b8381101561376d57815187529582019590820190600101613751565b509495945050505050565b60005b8381101561379357818101518382015260200161377b565b50506000910152565b6001600160a01b03815116825260208101516020830152600060408201516060604085015280518060608601526137da816080870160208501613778565b601f01601f1916939093016080019392505050565b6000815160408452613804604085018261379c565b602093840151949093019390935250919050565b6000610160825184526020830151613834602086018215159052565b506040830151613848604086018215159052565b50606083015161385c606086018215159052565b506080830151608085015260a083015160a085015260c08301518160c0860152613888828601826137ef565b60e0858101519087015261010080860151908701526101208086015190870152610140948501519490950193909352509192915050565b8051825260208101516020830152604081015160408301526000606082015160c060608501526138f260c0850182613818565b90506080830151608085015260a083015160a08501528091505092915050565b600082825180855260208086019550808260051b84010181860160005b8481101561395d57601f1986840301895261394b8383516138bf565b9884019892509083019060010161392f565b5090979650505050505050565b602081526139846020820183516001600160a01b03169052565b600060208301516139a060408401826001600160a01b03169052565b506040830151606083015260608301516080830152608083015160a083015260a083015160c083015260c083015160e083015260e083015161016061010081818601526139f161018086018461373d565b9250808601519050610120601f198685030181870152613a118483613912565b9087015161014087810191909152909601519190940152509192915050565b60008060408385031215613a4357600080fd5b823591506020830135613a55816136ec565b809150509250929050565b6000815160808452613a75608085018261379c565b905060208301518482036020860152613a8e828261379c565b91505060408301516040850152606083015160608501528091505092915050565b60006101c0825184526020830151613acb602086018215159052565b5060408301516040850152606083015160608501526080830151608085015260a083015160a085015260c08301518160c0860152613b0b8286018261379c565b91505060e083015160e08501526101008084015181860152506101208084015185830382870152613b3c8382613a60565b925050506101408084015185830382870152613b588382613818565b610160868101519088015261018080870151908801526101a095860151959096019490945250929392505050565b602081526000613b996020830184613aaf565b9392505050565b60008060408385031215613bb357600080fd5b50508035926020909101359150565b60006020808352608083016001600160a01b0385511682850152818501516040850152604085015160608086015281815180845260a08701915060a08160051b8801019350848301925060005b81811015613c3d57609f19888603018352613c2b858551613818565b94509285019291850191600101613c0f565b5092979650505050505050565b600060208284031215613c5c57600080fd5b8135613b99816136ec565b600081518084526020808501808196508360051b8101915082860160005b85811015613caf578284038952613c9d8483516137ef565b98850198935090840190600101613c85565b5091979650505050505050565b60208152613cd66020820183516001600160a01b03169052565b60006020830151613cf260408401826001600160a01b03169052565b5060408301516001600160a01b03811660608401525060608301516080830152608083015160a083015260a083015160c083015260c083015160e083015260e0830151610100818185015280850151915050610120818185015280850151915050610140818185015280850151915050610160808185015250613d79610180840182613c67565b949350505050565b602081526000613b9960208301846138bf565b60008060408385031215613da757600080fd5b8235613db2816136ec565b946020939093013593505050565b602081526000613b9960208301846137ef565b602081526000613b996020830184613a60565b6020815260006001600160a01b038084511660208401528060208501511660408401528060408501511660608401525060608301516080830152608083015160a083015260a083015160c080840152613d7960e08401826137ef565b600060208284031215613e5457600080fd5b5035919050565b602081526000613b996020830184613818565b600081518084526020808501808196508360051b8101915082860160005b85811015613caf578284038952613ea4848351613aaf565b98850198935090840190600101613e8c565b60208152613ed06020820183516001600160a01b03169052565b60006020830151613eec60408401826001600160a01b03169052565b506040830151606083015260608301516080830152608083015160a083015260a083015160c083015260c083015160e083015260e0830151610100818185015280850151915050610120818185015280850151915050610140808185015250613d79610160840182613e6e565b600060208284031215613f6b57600080fd5b5051919050565b634e487b7160e01b600052601160045260246000fd5b80820180821115613f9b57613f9b613f72565b92915050565b81810381811115613f9b57613f9b613f72565b8082028115828204841417613f9b57613f9b613f72565b600082613fe857634e487b7160e01b600052601260045260246000fd5b500490565b634e487b7160e01b600052604160045260246000fd5b604051610160810167ffffffffffffffff8111828210171561402757614027613fed565b60405290565b60405160c0810167ffffffffffffffff8111828210171561402757614027613fed565b6040516101c0810167ffffffffffffffff8111828210171561402757614027613fed565b604051601f8201601f1916810167ffffffffffffffff8111828210171561409d5761409d613fed565b604052919050565b600067ffffffffffffffff8211156140bf576140bf613fed565b5060051b60200190565b600082601f8301126140da57600080fd5b815160206140ef6140ea836140a5565b614074565b82815260059290921b8401810191818101908684111561410e57600080fd5b8286015b848110156141295780518352918301918301614112565b509695505050505050565b60006020828403121561414657600080fd5b815167ffffffffffffffff81111561415d57600080fd5b613d79848285016140c9565b8051801515811461417957600080fd5b919050565b600082601f83011261418f57600080fd5b815167ffffffffffffffff8111156141a9576141a9613fed565b6141bc601f8201601f1916602001614074565b8181528460208386010111156141d157600080fd5b613d79826020830160208701613778565b6000606082840312156141f457600080fd5b6040516060810167ffffffffffffffff828210818311171561421857614218613fed565b816040528293508451915061422c826136ec565b81835260208501516020840152604085015191508082111561424d57600080fd5b5061425a8582860161417e565b6040830152505092915050565b60006040828403121561427957600080fd5b6040516040810167ffffffffffffffff828210818311171561429d5761429d613fed565b8160405282935084519150808211156142b557600080fd5b506142c2858286016141e2565b825250602083015160208201525092915050565b600061016082840312156142e957600080fd5b6142f1614003565b90508151815261430360208301614169565b602082015261431460408301614169565b604082015261432560608301614169565b60608201526080820151608082015260a082015160a082015260c082015167ffffffffffffffff81111561435857600080fd5b61436484828501614267565b60c08301525060e082015160e082015261010080830151818301525061012080830151818301525061014080830151818301525092915050565b6000602082840312156143b057600080fd5b815167ffffffffffffffff808211156143c857600080fd5b9083019060c082860312156143dc57600080fd5b6143e461402d565b82518152602083015160208201526040830151604082015260608301518281111561440e57600080fd5b61441a878286016142d6565b6060830152506080830151608082015260a083015160a082015280935050505092915050565b634e487b7160e01b600052603260045260246000fd5b60006001820161446857614468613f72565b5060010190565b60006020828403121561448157600080fd5b613b9982614169565b60006020828403121561449c57600080fd5b8151613b99816136ec565b6000602082840312156144b957600080fd5b815160ff81168114613b9957600080fd5b6000602082840312156144dc57600080fd5b815167ffffffffffffffff8111156144f357600080fd5b613d798482850161417e565b60006080828403121561451157600080fd5b6040516080810167ffffffffffffffff828210818311171561453557614535613fed565b81604052829350845191508082111561454d57600080fd5b614559868387016141e2565b8352602085015191508082111561456f57600080fd5b5061457c858286016141e2565b60208301525060408301516040820152606083015160608201525092915050565b6000602082840312156145af57600080fd5b815167ffffffffffffffff8111156145c657600080fd5b613d79848285016144ff565b600080600080608085870312156145e857600080fd5b84516145f3816136ec565b60208601516040870151606090970151919890975090945092505050565b60006020828403121561462357600080fd5b815167ffffffffffffffff81111561463a57600080fd5b613d7984828501614267565b6004811061466457634e487b7160e01b600052602160045260246000fd5b9052565b60208101613f9b8284614646565b60006020828403121561468857600080fd5b815167ffffffffffffffff81111561469f57600080fd5b613d79848285016142d6565b600082601f8301126146bc57600080fd5b815160206146cc6140ea836140a5565b82815260059290921b840181019181810190868411156146eb57600080fd5b8286015b84811015614129578051614702816136ec565b83529183019183016146ef565b6000806040838503121561472257600080fd5b825167ffffffffffffffff8082111561473a57600080fd5b614746868387016146ab565b9350602085015191508082111561475c57600080fd5b50614769858286016140c9565b9150509250929050565b6000604082016001600160a01b03851683526020604081850152818551808452606086019150828701935060005b8181101561395d578451835293830193918301916001016147a1565b600181811c908216806147d157607f821691505b6020821081036147f157634e487b7160e01b600052602260045260246000fd5b50919050565b60008060006060848603121561480c57600080fd5b835167ffffffffffffffff8082111561482457600080fd5b614830878388016140c9565b9450602086015191508082111561484657600080fd5b614852878388016146ab565b9350604086015191508082111561486857600080fd5b50614875868287016140c9565b9150509250925092565b80516dffffffffffffffffffffffffffff8116811461417957600080fd5b6000806000606084860312156148b257600080fd5b6148bb8461487f565b92506148c96020850161487f565b9150604084015163ffffffff8116811461373257600080fd5b600080604083850312156148f557600080fd5b8251614900816136ec565b6020939093015192949293505050565b6040810161491e8285614646565b8260208301529392505050565b60006020828403121561493d57600080fd5b815167ffffffffffffffff8082111561495557600080fd5b908301906101c0828603121561496a57600080fd5b614972614050565b8251815261498260208401614169565b602082015260408301516040820152606083015160608201526080830151608082015260a083015160a082015260c0830151828111156149c157600080fd5b6149cd878286016141e2565b60c08301525060e083015160e082015261010080840151818301525061012080840151838111156149fd57600080fd5b614a09888287016144ff565b8284015250506101408084015183811115614a2357600080fd5b614a2f888287016142d6565b9183019190915250610160838101519082015261018080840151908201526101a09283015192810192909252509392505050565b60008251614a75818460208701613778565b919091019291505056fea2646970667358221220761fe1ac61a113fed6f6adc39fd5bdeaa0802d3520536d36bcf707eb37531d8864736f6c63430008140033","linkReferences":{}},"methodIdentifiers":{"getFarmData(uint256,uint256,address)":"f4804a6d","getFarmDataAt(uint256,address)":"49614e51","getJoeStakingData(address)":"ca5cf4ad","getMasterChefPendingRewardsAt(address,uint256)":"a017140a","getPoolDataAt(address)":"a11e5fb8","getRewardData(address,uint256)":"840fe8ab","getStakingData(address)":"67a7b5f6","getVeMoeData(uint256,uint256,address)":"2030c498","getVeMoeDataAt(uint256,address)":"74e88e69","getVeMoeRewarderData(uint256,uint256)":"67453db1","getVeMoeRewarderDataAt(uint256)":"ea322484"},"id":68}