{"abi":[{"type":"constructor","inputs":[{"name":"masterchef","type":"address","internalType":"contract IMasterChef"},{"name":"joeStaking","type":"address","internalType":"contract IJoeStaking"},{"name":"nativeSymbol","type":"string","internalType":"string"}],"stateMutability":"nonpayable"},{"type":"function","name":"getFarmData","inputs":[{"name":"start","type":"uint256","internalType":"uint256"},{"name":"nb","type":"uint256","internalType":"uint256"},{"name":"user","type":"address","internalType":"address"}],"outputs":[{"name":"farms","type":"tuple","internalType":"struct MoeLens.FarmData","components":[{"name":"masterChef","type":"address","internalType":"address"},{"name":"moe","type":"address","internalType":"address"},{"name":"totalVotes","type":"uint256","internalType":"uint256"},{"name":"totalMoePerSec","type":"uint256","internalType":"uint256"},{"name":"totalNumberOfFarms","type":"uint256","internalType":"uint256"},{"name":"userTotalVeMoe","type":"uint256","internalType":"uint256"},{"name":"userTotalVotes","type":"uint256","internalType":"uint256"},{"name":"farms","type":"tuple[]","internalType":"struct MoeLens.Farm[]","components":[{"name":"pid","type":"uint256","internalType":"uint256"},{"name":"isRewardable","type":"bool","internalType":"bool"},{"name":"votesOnFarm","type":"uint256","internalType":"uint256"},{"name":"moePerSec","type":"uint256","internalType":"uint256"},{"name":"totalVotesOnFarm","type":"uint256","internalType":"uint256"},{"name":"lpToken","type":"tuple","internalType":"struct MoeLens.Token","components":[{"name":"token","type":"address","internalType":"address"},{"name":"decimals","type":"uint256","internalType":"uint256"},{"name":"symbol","type":"string","internalType":"string"}]},{"name":"totalStaked","type":"uint256","internalType":"uint256"},{"name":"totalSupply","type":"uint256","internalType":"uint256"},{"name":"reserves","type":"tuple","internalType":"struct MoeLens.Reserves","components":[{"name":"token0","type":"tuple","internalType":"struct MoeLens.Token","components":[{"name":"token","type":"address","internalType":"address"},{"name":"decimals","type":"uint256","internalType":"uint256"},{"name":"symbol","type":"string","internalType":"string"}]},{"name":"token1","type":"tuple","internalType":"struct MoeLens.Token","components":[{"name":"token","type":"address","internalType":"address"},{"name":"decimals","type":"uint256","internalType":"uint256"},{"name":"symbol","type":"string","internalType":"string"}]},{"name":"reserve0","type":"uint256","internalType":"uint256"},{"name":"reserve1","type":"uint256","internalType":"uint256"}]},{"name":"rewarder","type":"tuple","internalType":"struct MoeLens.Rewarder","components":[{"name":"isSet","type":"bool","internalType":"bool"},{"name":"isStarted","type":"bool","internalType":"bool"},{"name":"isEnded","type":"bool","internalType":"bool"},{"name":"pid","type":"uint256","internalType":"uint256"},{"name":"totalDeposited","type":"uint256","internalType":"uint256"},{"name":"reward","type":"tuple","internalType":"struct MoeLens.Reward","components":[{"name":"token","type":"tuple","internalType":"struct MoeLens.Token","components":[{"name":"token","type":"address","internalType":"address"},{"name":"decimals","type":"uint256","internalType":"uint256"},{"name":"symbol","type":"string","internalType":"string"}]},{"name":"userPendingAmount","type":"uint256","internalType":"uint256"}]},{"name":"rewardPerSec","type":"uint256","internalType":"uint256"},{"name":"lastUpdateTimestamp","type":"uint256","internalType":"uint256"},{"name":"endUpdateTimestamp","type":"uint256","internalType":"uint256"}]},{"name":"userVotesOnFarm","type":"uint256","internalType":"uint256"},{"name":"userAmount","type":"uint256","internalType":"uint256"},{"name":"userPendingMoeReward","type":"uint256","internalType":"uint256"}]}]}],"stateMutability":"view"},{"type":"function","name":"getFarmDataAt","inputs":[{"name":"pid","type":"uint256","internalType":"uint256"},{"name":"user","type":"address","internalType":"address"}],"outputs":[{"name":"farm","type":"tuple","internalType":"struct MoeLens.Farm","components":[{"name":"pid","type":"uint256","internalType":"uint256"},{"name":"isRewardable","type":"bool","internalType":"bool"},{"name":"votesOnFarm","type":"uint256","internalType":"uint256"},{"name":"moePerSec","type":"uint256","internalType":"uint256"},{"name":"totalVotesOnFarm","type":"uint256","internalType":"uint256"},{"name":"lpToken","type":"tuple","internalType":"struct MoeLens.Token","components":[{"name":"token","type":"address","internalType":"address"},{"name":"decimals","type":"uint256","internalType":"uint256"},{"name":"symbol","type":"string","internalType":"string"}]},{"name":"totalStaked","type":"uint256","internalType":"uint256"},{"name":"totalSupply","type":"uint256","internalType":"uint256"},{"name":"reserves","type":"tuple","internalType":"struct MoeLens.Reserves","components":[{"name":"token0","type":"tuple","internalType":"struct MoeLens.Token","components":[{"name":"token","type":"address","internalType":"address"},{"name":"decimals","type":"uint256","internalType":"uint256"},{"name":"symbol","type":"string","internalType":"string"}]},{"name":"token1","type":"tuple","internalType":"struct MoeLens.Token","components":[{"name":"token","type":"address","internalType":"address"},{"name":"decimals","type":"uint256","internalType":"uint256"},{"name":"symbol","type":"string","internalType":"string"}]},{"name":"reserve0","type":"uint256","internalType":"uint256"},{"name":"reserve1","type":"uint256","internalType":"uint256"}]},{"name":"rewarder","type":"tuple","internalType":"struct MoeLens.Rewarder","components":[{"name":"isSet","type":"bool","internalType":"bool"},{"name":"isStarted","type":"bool","internalType":"bool"},{"name":"isEnded","type":"bool","internalType":"bool"},{"name":"pid","type":"uint256","internalType":"uint256"},{"name":"totalDeposited","type":"uint256","internalType":"uint256"},{"name":"reward","type":"tuple","internalType":"struct MoeLens.Reward","components":[{"name":"token","type":"tuple","internalType":"struct MoeLens.Token","components":[{"name":"token","type":"address","internalType":"address"},{"name":"decimals","type":"uint256","internalType":"uint256"},{"name":"symbol","type":"string","internalType":"string"}]},{"name":"userPendingAmount","type":"uint256","internalType":"uint256"}]},{"name":"rewardPerSec","type":"uint256","internalType":"uint256"},{"name":"lastUpdateTimestamp","type":"uint256","internalType":"uint256"},{"name":"endUpdateTimestamp","type":"uint256","internalType":"uint256"}]},{"name":"userVotesOnFarm","type":"uint256","internalType":"uint256"},{"name":"userAmount","type":"uint256","internalType":"uint256"},{"name":"userPendingMoeReward","type":"uint256","internalType":"uint256"}]}],"stateMutability":"view"},{"type":"function","name":"getJoeStakingData","inputs":[{"name":"user","type":"address","internalType":"address"}],"outputs":[{"name":"data","type":"tuple","internalType":"struct MoeLens.JoeStakingData","components":[{"name":"joeStakingAddress","type":"address","internalType":"address"},{"name":"joeAddress","type":"address","internalType":"address"},{"name":"rewarderAddress","type":"address","internalType":"address"},{"name":"totalStaked","type":"uint256","internalType":"uint256"},{"name":"userStaked","type":"uint256","internalType":"uint256"},{"name":"userReward","type":"tuple","internalType":"struct MoeLens.Reward","components":[{"name":"token","type":"tuple","internalType":"struct MoeLens.Token","components":[{"name":"token","type":"address","internalType":"address"},{"name":"decimals","type":"uint256","internalType":"uint256"},{"name":"symbol","type":"string","internalType":"string"}]},{"name":"userPendingAmount","type":"uint256","internalType":"uint256"}]}]}],"stateMutability":"view"},{"type":"function","name":"getMasterChefPendingRewardsAt","inputs":[{"name":"user","type":"address","internalType":"address"},{"name":"pid","type":"uint256","internalType":"uint256"}],"outputs":[{"name":"moeReward","type":"uint256","internalType":"uint256"},{"name":"extraToken","type":"address","internalType":"address"},{"name":"extraReward","type":"uint256","internalType":"uint256"}],"stateMutability":"view"},{"type":"function","name":"getPoolDataAt","inputs":[{"name":"lpToken","type":"address","internalType":"address"}],"outputs":[{"name":"reserves","type":"tuple","internalType":"struct MoeLens.Reserves","components":[{"name":"token0","type":"tuple","internalType":"struct MoeLens.Token","components":[{"name":"token","type":"address","internalType":"address"},{"name":"decimals","type":"uint256","internalType":"uint256"},{"name":"symbol","type":"string","internalType":"string"}]},{"name":"token1","type":"tuple","internalType":"struct MoeLens.Token","components":[{"name":"token","type":"address","internalType":"address"},{"name":"decimals","type":"uint256","internalType":"uint256"},{"name":"symbol","type":"string","internalType":"string"}]},{"name":"reserve0","type":"uint256","internalType":"uint256"},{"name":"reserve1","type":"uint256","internalType":"uint256"}]}],"stateMutability":"view"},{"type":"function","name":"getRewardData","inputs":[{"name":"token","type":"address","internalType":"address"},{"name":"amount","type":"uint256","internalType":"uint256"}],"outputs":[{"name":"reward","type":"tuple","internalType":"struct MoeLens.Reward","components":[{"name":"token","type":"tuple","internalType":"struct MoeLens.Token","components":[{"name":"token","type":"address","internalType":"address"},{"name":"decimals","type":"uint256","internalType":"uint256"},{"name":"symbol","type":"string","internalType":"string"}]},{"name":"userPendingAmount","type":"uint256","internalType":"uint256"}]}],"stateMutability":"view"},{"type":"function","name":"getStakingData","inputs":[{"name":"user","type":"address","internalType":"address"}],"outputs":[{"name":"staking","type":"tuple","internalType":"struct MoeLens.MoeStakingData","components":[{"name":"moeStakingAddress","type":"address","internalType":"address"},{"name":"veMoeAddress","type":"address","internalType":"address"},{"name":"sMoeAddress","type":"address","internalType":"address"},{"name":"totalStaked","type":"uint256","internalType":"uint256"},{"name":"totalVotes","type":"uint256","internalType":"uint256"},{"name":"userStaked","type":"uint256","internalType":"uint256"},{"name":"userTotalVeMoe","type":"uint256","internalType":"uint256"},{"name":"userTotalVotes","type":"uint256","internalType":"uint256"},{"name":"userRewards","type":"tuple[]","internalType":"struct MoeLens.Reward[]","components":[{"name":"token","type":"tuple","internalType":"struct MoeLens.Token","components":[{"name":"token","type":"address","internalType":"address"},{"name":"decimals","type":"uint256","internalType":"uint256"},{"name":"symbol","type":"string","internalType":"string"}]},{"name":"userPendingAmount","type":"uint256","internalType":"uint256"}]}]}],"stateMutability":"view"},{"type":"function","name":"getVeMoeData","inputs":[{"name":"start","type":"uint256","internalType":"uint256"},{"name":"nb","type":"uint256","internalType":"uint256"},{"name":"user","type":"address","internalType":"address"}],"outputs":[{"name":"data","type":"tuple","internalType":"struct MoeLens.VeMoeData","components":[{"name":"moeStakingAddress","type":"address","internalType":"address"},{"name":"veMoeAddress","type":"address","internalType":"address"},{"name":"totalVotes","type":"uint256","internalType":"uint256"},{"name":"maxVeMoe","type":"uint256","internalType":"uint256"},{"name":"veMoePerSecondPerMoe","type":"uint256","internalType":"uint256"},{"name":"topPoolsIds","type":"uint256[]","internalType":"uint256[]"},{"name":"votes","type":"tuple[]","internalType":"struct MoeLens.Vote[]","components":[{"name":"pid","type":"uint256","internalType":"uint256"},{"name":"totalVotesOnFarm","type":"uint256","internalType":"uint256"},{"name":"rewarder","type":"tuple","internalType":"struct MoeLens.Rewarder","components":[{"name":"isSet","type":"bool","internalType":"bool"},{"name":"isStarted","type":"bool","internalType":"bool"},{"name":"isEnded","type":"bool","internalType":"bool"},{"name":"pid","type":"uint256","internalType":"uint256"},{"name":"totalDeposited","type":"uint256","internalType":"uint256"},{"name":"reward","type":"tuple","internalType":"struct MoeLens.Reward","components":[{"name":"token","type":"tuple","internalType":"struct MoeLens.Token","components":[{"name":"token","type":"address","internalType":"address"},{"name":"decimals","type":"uint256","internalType":"uint256"},{"name":"symbol","type":"string","internalType":"string"}]},{"name":"userPendingAmount","type":"uint256","internalType":"uint256"}]},{"name":"rewardPerSec","type":"uint256","internalType":"uint256"},{"name":"lastUpdateTimestamp","type":"uint256","internalType":"uint256"},{"name":"endUpdateTimestamp","type":"uint256","internalType":"uint256"}]},{"name":"userVotesOnFarm","type":"uint256","internalType":"uint256"},{"name":"userPendingReward","type":"uint256","internalType":"uint256"}]},{"name":"userTotalVeMoe","type":"uint256","internalType":"uint256"},{"name":"userTotalVotes","type":"uint256","internalType":"uint256"}]}],"stateMutability":"view"},{"type":"function","name":"getVeMoeDataAt","inputs":[{"name":"pid","type":"uint256","internalType":"uint256"},{"name":"user","type":"address","internalType":"address"}],"outputs":[{"name":"vote","type":"tuple","internalType":"struct MoeLens.Vote","components":[{"name":"pid","type":"uint256","internalType":"uint256"},{"name":"totalVotesOnFarm","type":"uint256","internalType":"uint256"},{"name":"rewarder","type":"tuple","internalType":"struct MoeLens.Rewarder","components":[{"name":"isSet","type":"bool","internalType":"bool"},{"name":"isStarted","type":"bool","internalType":"bool"},{"name":"isEnded","type":"bool","internalType":"bool"},{"name":"pid","type":"uint256","internalType":"uint256"},{"name":"totalDeposited","type":"uint256","internalType":"uint256"},{"name":"reward","type":"tuple","internalType":"struct MoeLens.Reward","components":[{"name":"token","type":"tuple","internalType":"struct MoeLens.Token","components":[{"name":"token","type":"address","internalType":"address"},{"name":"decimals","type":"uint256","internalType":"uint256"},{"name":"symbol","type":"string","internalType":"string"}]},{"name":"userPendingAmount","type":"uint256","internalType":"uint256"}]},{"name":"rewardPerSec","type":"uint256","internalType":"uint256"},{"name":"lastUpdateTimestamp","type":"uint256","internalType":"uint256"},{"name":"endUpdateTimestamp","type":"uint256","internalType":"uint256"}]},{"name":"userVotesOnFarm","type":"uint256","internalType":"uint256"},{"name":"userPendingReward","type":"uint256","internalType":"uint256"}]}],"stateMutability":"view"},{"type":"function","name":"getVeMoeRewarderData","inputs":[{"name":"start","type":"uint256","internalType":"uint256"},{"name":"nb","type":"uint256","internalType":"uint256"}],"outputs":[{"name":"data","type":"tuple","internalType":"struct MoeLens.VeMoeRewarderData","components":[{"name":"rewarderFactory","type":"address","internalType":"address"},{"name":"totalNumberOfRewarders","type":"uint256","internalType":"uint256"},{"name":"rewarders","type":"tuple[]","internalType":"struct MoeLens.Rewarder[]","components":[{"name":"isSet","type":"bool","internalType":"bool"},{"name":"isStarted","type":"bool","internalType":"bool"},{"name":"isEnded","type":"bool","internalType":"bool"},{"name":"pid","type":"uint256","internalType":"uint256"},{"name":"totalDeposited","type":"uint256","internalType":"uint256"},{"name":"reward","type":"tuple","internalType":"struct MoeLens.Reward","components":[{"name":"token","type":"tuple","internalType":"struct MoeLens.Token","components":[{"name":"token","type":"address","internalType":"address"},{"name":"decimals","type":"uint256","internalType":"uint256"},{"name":"symbol","type":"string","internalType":"string"}]},{"name":"userPendingAmount","type":"uint256","internalType":"uint256"}]},{"name":"rewardPerSec","type":"uint256","internalType":"uint256"},{"name":"lastUpdateTimestamp","type":"uint256","internalType":"uint256"},{"name":"endUpdateTimestamp","type":"uint256","internalType":"uint256"}]}]}],"stateMutability":"view"},{"type":"function","name":"getVeMoeRewarderDataAt","inputs":[{"name":"index","type":"uint256","internalType":"uint256"}],"outputs":[{"name":"rewarder","type":"tuple","internalType":"struct MoeLens.Rewarder","components":[{"name":"isSet","type":"bool","internalType":"bool"},{"name":"isStarted","type":"bool","internalType":"bool"},{"name":"isEnded","type":"bool","internalType":"bool"},{"name":"pid","type":"uint256","internalType":"uint256"},{"name":"totalDeposited","type":"uint256","internalType":"uint256"},{"name":"reward","type":"tuple","internalType":"struct MoeLens.Reward","components":[{"name":"token","type":"tuple","internalType":"struct MoeLens.Token","components":[{"name":"token","type":"address","internalType":"address"},{"name":"decimals","type":"uint256","internalType":"uint256"},{"name":"symbol","type":"string","internalType":"string"}]},{"name":"userPendingAmount","type":"uint256","internalType":"uint256"}]},{"name":"rewardPerSec","type":"uint256","internalType":"uint256"},{"name":"lastUpdateTimestamp","type":"uint256","internalType":"uint256"},{"name":"endUpdateTimestamp","type":"uint256","internalType":"uint256"}]}],"stateMutability":"view"}],"bytecode":{"object":"0x6101606040523480156200001257600080fd5b5060405162004af538038062004af5833981016040819052620000359162000304565b6001600160a01b038316608052600062000050828262000493565b50816001600160a01b0316610120816001600160a01b031681525050826001600160a01b03166393f945036040518163ffffffff1660e01b8152600401602060405180830381865afa158015620000ab573d6000803e3d6000fd5b505050506040513d601f19601f82011682018060405250810190620000d191906200055f565b6001600160a01b031660a0816001600160a01b031681525050826001600160a01b0316637e63f0286040518163ffffffff1660e01b8152600401602060405180830381865afa15801562000129573d6000803e3d6000fd5b505050506040513d601f19601f820116820180604052508101906200014f91906200055f565b6001600160a01b031660c0816001600160a01b031681525050826001600160a01b0316635c4323ab6040518163ffffffff1660e01b8152600401602060405180830381865afa158015620001a7573d6000803e3d6000fd5b505050506040513d601f19601f82011682018060405250810190620001cd91906200055f565b6001600160a01b0316610140816001600160a01b03168152505060c0516001600160a01b03166372f148b86040518163ffffffff1660e01b8152600401602060405180830381865afa15801562000228573d6000803e3d6000fd5b505050506040513d601f19601f820116820180604052508101906200024e91906200055f565b6001600160a01b031661010081905260408051637ac20b5760e01b81529051637ac20b57916004808201926020929091908290030181865afa15801562000299573d6000803e3d6000fd5b505050506040513d601f19601f82011682018060405250810190620002bf91906200055f565b6001600160a01b031660e0525062000586915050565b6001600160a01b0381168114620002eb57600080fd5b50565b634e487b7160e01b600052604160045260246000fd5b6000806000606084860312156200031a57600080fd5b83516200032781620002d5565b809350506020808501516200033c81620002d5565b60408601519093506001600160401b03808211156200035a57600080fd5b818701915087601f8301126200036f57600080fd5b815181811115620003845762000384620002ee565b604051601f8201601f19908116603f01168101908382118183101715620003af57620003af620002ee565b816040528281528a86848701011115620003c857600080fd5b600093505b82841015620003ec5784840186015181850187015292850192620003cd565b60008684830101528096505050505050509250925092565b600181811c908216806200041957607f821691505b6020821081036200043a57634e487b7160e01b600052602260045260246000fd5b50919050565b601f8211156200048e57600081815260208120601f850160051c81016020861015620004695750805b601f850160051c820191505b818110156200048a5782815560010162000475565b5050505b505050565b81516001600160401b03811115620004af57620004af620002ee565b620004c781620004c0845462000404565b8462000440565b602080601f831160018114620004ff5760008415620004e65750858301515b600019600386901b1c1916600185901b1785556200048a565b600085815260208120601f198616915b8281101562000530578886015182559484019460019091019084016200050f565b50858210156200054f5787850151600019600388901b60f8161c191681555b5050505050600190811b01905550565b6000602082840312156200057257600080fd5b81516200057f81620002d5565b9392505050565b60805160a05160c05160e0516101005161012051610140516143e0620007156000396000818161110c015281816111c4015261275e01526000818161241b0152818161252c0152818161258a0152818161261a01526126c101526000818161040401528181611561015281816115ee015261171c01526000818161139401526115bf0152600081816103890152818161043301528181610462015281816104f20152818161058d01528181610614015281816106fd015281816108860152818161091901528181610a3a01528181610dc60152818161159001528181611675015281816117ae01528181611840015281816118ed0152818161197601528181611a1701528181611b6801528181611cda0152818161297c01528181612b9001528181612ca40152612d6501526000818161249e0152818161255b0152612b610152600081816102b2015281816109a901528181610acb01528181610c4c01528181610e5d01528181610f0101528181611f8c01528181612a7001528181612b320152612c1701526143e06000f3fe608060405234801561001057600080fd5b50600436106100c95760003560e01c8063840fe8ab11610081578063ca5cf4ad1161005b578063ca5cf4ad146101ed578063ea3224841461020d578063f4804a6d1461022d57600080fd5b8063840fe8ab14610177578063a017140a14610197578063a11e5fb8146101cd57600080fd5b806367453db1116100b257806367453db11461011757806367a7b5f61461013757806374e88e691461015757600080fd5b80632030c498146100ce57806349614e51146100f7575b600080fd5b6100e16100dc366004613112565b61024d565b6040516100ee9190613352565b60405180910390f35b61010a610105366004613400565b610865565b6040516100ee919061354a565b61012a610125366004613564565b6110d6565b6040516100ee9190613586565b61014a61014536600461360e565b611306565b6040516100ee9190613680565b61016a610165366004613400565b6118bc565b6040516100ee9190613727565b61018a61018536600461373a565b611d75565b6040516100ee9190613766565b6101aa6101a536600461373a565b611f3c565b604080519384526001600160a01b039092166020840152908201526060016100ee565b6101e06101db36600461360e565b612085565b6040516100ee9190613779565b6102006101fb36600461360e565b6123e9565b6040516100ee919061378c565b61022061021b3660046137e8565b61273c565b6040516100ee9190613801565b61024061023b366004613112565b612a12565b6040516100ee919061385c565b6102ae60405180610120016040528060006001600160a01b0316815260200160006001600160a01b03168152602001600081526020016000815260200160008152602001606081526020016060815260200160008152602001600081525090565b60007f00000000000000000000000000000000000000000000000000000000000000006001600160a01b031663c7a617836040518163ffffffff1660e01b8152600401602060405180830381865afa15801561030e573d6000803e3d6000fd5b505050506040513d601f19601f8201168201806040525081019061033291906138ce565b905080851015610361578061034785876138fd565b116103525783610364565b61035c8582613916565b610364565b60005b6040516370a0823160e01b81526001600160a01b0385811660048301529195506000917f000000000000000000000000000000000000000000000000000000000000000016906370a0823190602401602060405180830381865afa1580156103d0573d6000803e3d6000fd5b505050506040513d601f19601f820116820180604052508101906103f491906138ce565b90506040518061012001604052807f00000000000000000000000000000000000000000000000000000000000000006001600160a01b031681526020017f00000000000000000000000000000000000000000000000000000000000000006001600160a01b031681526020017f00000000000000000000000000000000000000000000000000000000000000006001600160a01b0316639a0e7d666040518163ffffffff1660e01b8152600401602060405180830381865afa1580156104be573d6000803e3d6000fd5b505050506040513d601f19601f820116820180604052508101906104e291906138ce565b8152602001670de0b6b3a76400007f00000000000000000000000000000000000000000000000000000000000000006001600160a01b031663888ed79e6040518163ffffffff1660e01b8152600401602060405180830381865afa15801561054e573d6000803e3d6000fd5b505050506040513d601f19601f8201168201806040525081019061057291906138ce565b61057c9085613929565b6105869190613940565b81526020017f00000000000000000000000000000000000000000000000000000000000000006001600160a01b0316634f913d346040518163ffffffff1660e01b8152600401602060405180830381865afa1580156105e9573d6000803e3d6000fd5b505050506040513d601f19601f8201168201806040525081019061060d91906138ce565b81526020017f00000000000000000000000000000000000000000000000000000000000000006001600160a01b031663e1e4d4196040518163ffffffff1660e01b8152600401600060405180830381865afa158015610670573d6000803e3d6000fd5b505050506040513d6000823e601f3d908101601f191682016040526106989190810190613aa9565b81526020018667ffffffffffffffff8111156106b6576106b6613962565b6040519080825280602002602001820160405280156106ef57816020015b6106dc612ef5565b8152602001906001900390816106d45790505b5081526020018281526020017f00000000000000000000000000000000000000000000000000000000000000006001600160a01b031663518ab0d0876040518263ffffffff1660e01b815260040161075691906001600160a01b0391909116815260200190565b602060405180830381865afa158015610773573d6000803e3d6000fd5b505050506040513d601f19601f8201168201806040525081019061079791906138ce565b9052925060005b8581101561085b57306374e88e696107b6838a6138fd565b6040516001600160e01b031960e084901b16815260048101919091526001600160a01b0388166024820152604401600060405180830381865afa92505050801561082257506040513d6000823e601f3d908101601f1916820160405261081f9190810190613cfb565b60015b1561084b57808560c00151838151811061083e5761083e613d93565b6020026020010181905250505b61085481613da9565b905061079e565b5050509392505050565b61086d612f2a565b82815260405163444f303960e11b8152600481018490527f00000000000000000000000000000000000000000000000000000000000000006001600160a01b03169063889e607290602401602060405180830381865afa1580156108d5573d6000803e3d6000fd5b505050506040513d601f19601f820116820180604052508101906108f99190613dc2565b1515602082015260405160016267ef6760e01b03198152600481018490527f00000000000000000000000000000000000000000000000000000000000000006001600160a01b03169063ff98109990602401602060405180830381865afa158015610968573d6000803e3d6000fd5b505050506040513d601f19601f8201168201806040525081019061098c91906138ce565b6040828101919091525163d4f9dd1d60e01b8152600481018490527f00000000000000000000000000000000000000000000000000000000000000006001600160a01b03169063d4f9dd1d90602401602060405180830381865afa1580156109f8573d6000803e3d6000fd5b505050506040513d601f19601f82011682018060405250810190610a1c91906138ce565b606082015260405160016267ef6760e01b03198152600481018490527f00000000000000000000000000000000000000000000000000000000000000006001600160a01b03169063ff98109990602401602060405180830381865afa158015610a89573d6000803e3d6000fd5b505050506040513d601f19601f82011682018060405250810190610aad91906138ce565b6080820152604051631c96a19760e31b8152600481018490526000907f00000000000000000000000000000000000000000000000000000000000000006001600160a01b03169063e4b50cb890602401602060405180830381865afa158015610b1a573d6000803e3d6000fd5b505050506040513d601f19601f82011682018060405250810190610b3e9190613ddd565b90506000816001600160a01b031663313ce5676040518163ffffffff1660e01b8152600401602060405180830381865afa158015610b80573d6000803e3d6000fd5b505050506040513d601f19601f82011682018060405250810190610ba49190613dfa565b60ff1690506040518060600160405280836001600160a01b03168152602001828152602001836001600160a01b03166395d89b416040518163ffffffff1660e01b8152600401600060405180830381865afa158015610c07573d6000803e3d6000fd5b505050506040513d6000823e601f3d908101601f19168201604052610c2f9190810190613e1d565b905260a084015260405163691d5cbd60e11b8152600481018690527f00000000000000000000000000000000000000000000000000000000000000006001600160a01b03169063d23ab97a90602401602060405180830381865afa158015610c9b573d6000803e3d6000fd5b505050506040513d601f19601f82011682018060405250810190610cbf91906138ce565b8360c0018181525050816001600160a01b03166318160ddd6040518163ffffffff1660e01b8152600401602060405180830381865afa158015610d06573d6000803e3d6000fd5b505050506040513d601f19601f82011682018060405250810190610d2a91906138ce565b60e0840152604051631423cbf760e31b81526001600160a01b0383166004820152309063a11e5fb890602401600060405180830381865afa925050508015610d9457506040513d6000823e601f3d908101601f19168201604052610d919190810190613ef0565b60015b15610da0576101008401525b6040516303a997ab60e11b81526001600160a01b038581166004830152602482018790527f000000000000000000000000000000000000000000000000000000000000000016906307532f5690604401602060405180830381865afa158015610e0d573d6000803e3d6000fd5b505050506040513d601f19601f82011682018060405250810190610e3191906138ce565b610140840152604051634fa44f2760e11b8152600481018690526001600160a01b0385811660248301527f00000000000000000000000000000000000000000000000000000000000000001690639f489e4e90604401602060405180830381865afa158015610ea4573d6000803e3d6000fd5b505050506040513d601f19601f82011682018060405250810190610ec891906138ce565b610160840152600080610edb8688611f3c565b61018088018390526040516339996d0560e21b8152600481018b905292945092506000917f00000000000000000000000000000000000000000000000000000000000000006001600160a01b0316915063e665b41490602401602060405180830381865afa158015610f51573d6000803e3d6000fd5b505050506040513d601f19601f82011682018060405250810190610f759190613ddd565b90506001600160a01b038116156110cb57600080600080846001600160a01b03166339cbec9d6040518163ffffffff1660e01b8152600401608060405180830381865afa158015610fca573d6000803e3d6000fd5b505050506040513d601f19601f82011682018060405250810190610fee9190613f25565b9350935093509350610ffe612fcb565b60405163840fe8ab60e01b81526001600160a01b038616600482015260248101889052309063840fe8ab90604401600060405180830381865afa92505050801561106a57506040513d6000823e601f3d908101601f191682016040526110679190810190613f64565b60015b156110725790505b604080516101208082018352600182524280871115602084015285111592820192909252606081018f905260c0808e0151608083015260a08201939093529182019490945260e081019290925261010082015290880152505b505050505092915050565b60408051606080820183526000808352602083015291810191909152604051631b1444b560e11b81526000906001600160a01b037f00000000000000000000000000000000000000000000000000000000000000001690633628896a9061114290600290600401613fbb565b602060405180830381865afa15801561115f573d6000803e3d6000fd5b505050506040513d601f19601f8201168201806040525081019061118391906138ce565b9050808410156111b2578061119884866138fd565b116111a357826111b5565b6111ad8482613916565b6111b5565b60005b925060405180606001604052807f00000000000000000000000000000000000000000000000000000000000000006001600160a01b031681526020018281526020018467ffffffffffffffff81111561121057611210613962565b60405190808252806020026020018201604052801561124957816020015b611236613010565b81526020019060019003908161122e5790505b509052915060005b838110156112fe573063ea32248461126983886138fd565b6040518263ffffffff1660e01b815260040161128791815260200190565b600060405180830381865afa9250505080156112c557506040513d6000823e601f3d908101601f191682016040526112c29190810190613fc9565b60015b156112ee5780846040015183815181106112e1576112e1613d93565b6020026020010181905250505b6112f781613da9565b9050611251565b505092915050565b61137060405180610120016040528060006001600160a01b0316815260200160006001600160a01b0316815260200160006001600160a01b031681526020016000815260200160008152602001600081526020016000815260200160008152602001606081525090565b60405163f6ed201760e01b81526001600160a01b03838116600483015260009182917f0000000000000000000000000000000000000000000000000000000000000000169063f6ed201790602401600060405180830381865afa1580156113db573d6000803e3d6000fd5b505050506040513d6000823e601f3d908101601f191682016040526114039190810190614062565b915091506000825167ffffffffffffffff81111561142357611423613962565b60405190808252806020026020018201604052801561145c57816020015b611449612fcb565b8152602001906001900390816114415790505b50905060005b835181101561155257306001600160a01b031663840fe8ab85838151811061148c5761148c613d93565b60200260200101518584815181106114a6576114a6613d93565b60200260200101516040518363ffffffff1660e01b81526004016114df9291906001600160a01b03929092168252602082015260400190565b600060405180830381865afa92505050801561151d57506040513d6000823e601f3d908101601f1916820160405261151a9190810190613f64565b60015b15611542578083838151811061153557611535613d93565b6020026020010181905250505b61154b81613da9565b9050611462565b506040518061012001604052807f00000000000000000000000000000000000000000000000000000000000000006001600160a01b031681526020017f00000000000000000000000000000000000000000000000000000000000000006001600160a01b031681526020017f00000000000000000000000000000000000000000000000000000000000000006001600160a01b031681526020017f00000000000000000000000000000000000000000000000000000000000000006001600160a01b031663c022215c6040518163ffffffff1660e01b8152600401602060405180830381865afa15801561164a573d6000803e3d6000fd5b505050506040513d601f19601f8201168201806040525081019061166e91906138ce565b81526020017f00000000000000000000000000000000000000000000000000000000000000006001600160a01b0316639a0e7d666040518163ffffffff1660e01b8152600401602060405180830381865afa1580156116d1573d6000803e3d6000fd5b505050506040513d601f19601f820116820180604052508101906116f591906138ce565b8152604051637092a7dd60e11b81526001600160a01b0388811660048301526020909201917f0000000000000000000000000000000000000000000000000000000000000000169063e1254fba90602401602060405180830381865afa158015611763573d6000803e3d6000fd5b505050506040513d601f19601f8201168201806040525081019061178791906138ce565b81526040516370a0823160e01b81526001600160a01b0388811660048301526020909201917f000000000000000000000000000000000000000000000000000000000000000016906370a0823190602401602060405180830381865afa1580156117f5573d6000803e3d6000fd5b505050506040513d601f19601f8201168201806040525081019061181991906138ce565b8152604051630518ab0d60e41b81526001600160a01b0388811660048301526020909201917f0000000000000000000000000000000000000000000000000000000000000000169063518ab0d090602401602060405180830381865afa158015611887573d6000803e3d6000fd5b505050506040513d601f19601f820116820180604052508101906118ab91906138ce565b815260200191909152949350505050565b6118c4612ef5565b8281526040516303a997ab60e11b81526001600160a01b038381166004830152602482018590527f000000000000000000000000000000000000000000000000000000000000000016906307532f5690604401602060405180830381865afa158015611934573d6000803e3d6000fd5b505050506040513d601f19601f8201168201806040525081019061195891906138ce565b606082015260405160016267ef6760e01b03198152600481018490527f00000000000000000000000000000000000000000000000000000000000000006001600160a01b03169063ff98109990602401602060405180830381865afa1580156119c5573d6000803e3d6000fd5b505050506040513d601f19601f820116820180604052508101906119e991906138ce565b6020820152604051630df7df1b60e11b81526001600160a01b038381166004830152602482018590526000917f000000000000000000000000000000000000000000000000000000000000000090911690631befbe3690604401602060405180830381865afa158015611a60573d6000803e3d6000fd5b505050506040513d601f19601f82011682018060405250810190611a849190613ddd565b90506001600160a01b03811615611d6e57600080600080846001600160a01b03166339cbec9d6040518163ffffffff1660e01b8152600401608060405180830381865afa158015611ad9573d6000803e3d6000fd5b505050506040513d601f19601f82011682018060405250810190611afd9190613f25565b9350935093509350611b0d612fcb565b604080516001808252818301909252600091602080830190803683370190505090508981600081518110611b4357611b43613d93565b6020908102919091010152604051632b357fb560e11b81526000906001600160a01b037f0000000000000000000000000000000000000000000000000000000000000000169063566aff6a90611b9f908d9086906004016140c6565b600060405180830381865afa158015611bbc573d6000803e3d6000fd5b505050506040513d6000823e601f3d908101601f19168201604052611be49190810190614062565b915050306001600160a01b031663840fe8ab8883600081518110611c0a57611c0a613d93565b60200260200101516040518363ffffffff1660e01b8152600401611c439291906001600160a01b03929092168252602082015260400190565b600060405180830381865afa925050508015611c8157506040513d6000823e601f3d908101601f19168201604052611c7e9190810190613f64565b60015b15611c895792505b6040805161012081018252600181524280881115602083015286111581830152606081018d9052905163e720e48360e01b81526001600160a01b038a81166004830152602482018e905260808301917f00000000000000000000000000000000000000000000000000000000000000009091169063e720e48390604401602060405180830381865afa158015611d23573d6000803e3d6000fd5b505050506040513d601f19601f82011682018060405250810190611d4791906138ce565b81526020810194909452604080850197909752606084019590955250506080015290840152505b5092915050565b611d7d612fcb565b60006001600160a01b03841615611df957836001600160a01b03166395d89b416040518163ffffffff1660e01b8152600401600060405180830381865afa158015611dcc573d6000803e3d6000fd5b505050506040513d6000823e601f3d908101601f19168201604052611df49190810190613e1d565b611e85565b60008054611e0690614110565b80601f0160208091040260200160405190810160405280929190818152602001828054611e3290614110565b8015611e7f5780601f10611e5457610100808354040283529160200191611e7f565b820191906000526020600020905b815481529060010190602001808311611e6257829003601f168201915b50505050505b905060006001600160a01b03851615611eff57846001600160a01b031663313ce5676040518163ffffffff1660e01b8152600401602060405180830381865afa158015611ed6573d6000803e3d6000fd5b505050506040513d601f19601f82011682018060405250810190611efa9190613dfa565b611f02565b60125b6040805160a0810182526001600160a01b0390971690870190815260ff919091166060870152608086019290925250835250602082015290565b60408051600180825281830190925260009182918291829190602080830190803683370190505090508481600081518110611f7957611f79613d93565b60200260200101818152505060008060007f00000000000000000000000000000000000000000000000000000000000000006001600160a01b031663566aff6a8a866040518363ffffffff1660e01b8152600401611fd89291906140c6565b600060405180830381865afa158015611ff5573d6000803e3d6000fd5b505050506040513d6000823e601f3d908101601f1916820160405261201d919081019061414a565b9250925092508260008151811061203657612036613d93565b60200260200101518260008151811061205157612051613d93565b60200260200101518260008151811061206c5761206c613d93565b6020026020010151965096509650505050509250925092565b61208d61304d565b600080836001600160a01b0316630902f1ac6040518163ffffffff1660e01b8152600401606060405180830381865afa1580156120ce573d6000803e3d6000fd5b505050506040513d601f19601f820116820180604052508101906120f291906141f0565b506dffffffffffffffffffffffffffff1691506dffffffffffffffffffffffffffff1691506000846001600160a01b0316630dfe16816040518163ffffffff1660e01b8152600401602060405180830381865afa158015612157573d6000803e3d6000fd5b505050506040513d601f19601f8201168201806040525081019061217b9190613ddd565b90506000856001600160a01b031663d21220a76040518163ffffffff1660e01b8152600401602060405180830381865afa1580156121bd573d6000803e3d6000fd5b505050506040513d601f19601f820116820180604052508101906121e19190613ddd565b90506000826001600160a01b031663313ce5676040518163ffffffff1660e01b8152600401602060405180830381865afa158015612223573d6000803e3d6000fd5b505050506040513d601f19601f820116820180604052508101906122479190613dfa565b60ff1690506000826001600160a01b031663313ce5676040518163ffffffff1660e01b8152600401602060405180830381865afa15801561228c573d6000803e3d6000fd5b505050506040513d601f19601f820116820180604052508101906122b09190613dfa565b60ff1690506040518060600160405280856001600160a01b03168152602001838152602001856001600160a01b03166395d89b416040518163ffffffff1660e01b8152600401600060405180830381865afa158015612313573d6000803e3d6000fd5b505050506040513d6000823e601f3d908101601f1916820160405261233b9190810190613e1d565b81525087600001819052506040518060600160405280846001600160a01b03168152602001828152602001846001600160a01b03166395d89b416040518163ffffffff1660e01b8152600401600060405180830381865afa1580156123a4573d6000803e3d6000fd5b505050506040513d6000823e601f3d908101601f191682016040526123cc9190810190613e1d565b905260208801525050505060408301919091526060820152919050565b6123f16130a4565b6123f9612fcb565b6040516326fceb5d60e11b81526001600160a01b0384811660048301526000917f000000000000000000000000000000000000000000000000000000000000000090911690634df9d6ba906024016040805180830381865afa158015612463573d6000803e3d6000fd5b505050506040513d601f19601f820116820180604052508101906124879190614235565b60405163840fe8ab60e01b81526001600160a01b037f00000000000000000000000000000000000000000000000000000000000000001660048201526024810182905290925030915063840fe8ab90604401600060405180830381865afa92505050801561251757506040513d6000823e601f3d908101601f191682016040526125149190810190613f64565b60015b1561251f5791505b6040518060c001604052807f00000000000000000000000000000000000000000000000000000000000000006001600160a01b031681526020017f00000000000000000000000000000000000000000000000000000000000000006001600160a01b031681526020017f00000000000000000000000000000000000000000000000000000000000000006001600160a01b0316639015dcc96040518163ffffffff1660e01b8152600401602060405180830381865afa1580156125e6573d6000803e3d6000fd5b505050506040513d601f19601f8201168201806040525081019061260a9190613ddd565b6001600160a01b031681526020017f00000000000000000000000000000000000000000000000000000000000000006001600160a01b031663c022215c6040518163ffffffff1660e01b8152600401602060405180830381865afa158015612676573d6000803e3d6000fd5b505050506040513d601f19601f8201168201806040525081019061269a91906138ce565b8152604051637092a7dd60e11b81526001600160a01b0387811660048301526020909201917f0000000000000000000000000000000000000000000000000000000000000000169063e1254fba90602401602060405180830381865afa158015612708573d6000803e3d6000fd5b505050506040513d601f19601f8201168201806040525081019061272c91906138ce565b8152602001929092525092915050565b612744613010565b604051631caf7c9160e21b81526000906001600160a01b037f000000000000000000000000000000000000000000000000000000000000000016906372bdf24490612796906002908790600401614263565b602060405180830381865afa1580156127b3573d6000803e3d6000fd5b505050506040513d601f19601f820116820180604052508101906127d79190613ddd565b9050600080600080846001600160a01b03166339cbec9d6040518163ffffffff1660e01b8152600401608060405180830381865afa15801561281d573d6000803e3d6000fd5b505050506040513d601f19601f820116820180604052508101906128419190613f25565b93509350935093506000856001600160a01b031663c87729636040518163ffffffff1660e01b8152600401602060405180830381865afa158015612889573d6000803e3d6000fd5b505050506040513d601f19601f820116820180604052508101906128ad91906138ce565b90506128b7612fcb565b60405163840fe8ab60e01b81526001600160a01b038716600482015260006024820152309063840fe8ab90604401600060405180830381865afa92505050801561292357506040513d6000823e601f3d908101601f191682016040526129209190810190613f64565b60015b1561292b5790505b604080516101208101825260008152428087111560208301528511158183015260608101849052905163e720e48360e01b81526001600160a01b0389811660048301526024820185905260808301917f00000000000000000000000000000000000000000000000000000000000000009091169063e720e48390604401602060405180830381865afa1580156129c5573d6000803e3d6000fd5b505050506040513d601f19601f820116820180604052508101906129e991906138ce565b815260200182815260200186815260200185815260200184815250975050505050505050919050565b612a6c60405180610100016040528060006001600160a01b0316815260200160006001600160a01b031681526020016000815260200160008152602001600081526020016000815260200160008152602001606081525090565b60007f00000000000000000000000000000000000000000000000000000000000000006001600160a01b031663c7a617836040518163ffffffff1660e01b8152600401602060405180830381865afa158015612acc573d6000803e3d6000fd5b505050506040513d601f19601f82011682018060405250810190612af091906138ce565b905080851015612b1f5780612b0585876138fd565b11612b105783612b22565b612b1a8582613916565b612b22565b60005b93506040518061010001604052807f00000000000000000000000000000000000000000000000000000000000000006001600160a01b031681526020017f00000000000000000000000000000000000000000000000000000000000000006001600160a01b031681526020017f00000000000000000000000000000000000000000000000000000000000000006001600160a01b0316639a0e7d666040518163ffffffff1660e01b8152600401602060405180830381865afa158015612bec573d6000803e3d6000fd5b505050506040513d601f19601f82011682018060405250810190612c1091906138ce565b81526020017f00000000000000000000000000000000000000000000000000000000000000006001600160a01b0316635b92d8316040518163ffffffff1660e01b8152600401602060405180830381865afa158015612c73573d6000803e3d6000fd5b505050506040513d601f19601f82011682018060405250810190612c9791906138ce565b81526020018281526020017f00000000000000000000000000000000000000000000000000000000000000006001600160a01b03166370a08231866040518263ffffffff1660e01b8152600401612cfd91906001600160a01b0391909116815260200190565b602060405180830381865afa158015612d1a573d6000803e3d6000fd5b505050506040513d601f19601f82011682018060405250810190612d3e91906138ce565b8152604051630518ab0d60e41b81526001600160a01b0386811660048301526020909201917f0000000000000000000000000000000000000000000000000000000000000000169063518ab0d090602401602060405180830381865afa158015612dac573d6000803e3d6000fd5b505050506040513d601f19601f82011682018060405250810190612dd091906138ce565b81526020018567ffffffffffffffff811115612dee57612dee613962565b604051908082528060200260200182016040528015612e2757816020015b612e14612f2a565b815260200190600190039081612e0c5790505b509052915060005b84811015612eec57306349614e51612e4783896138fd565b6040516001600160e01b031960e084901b16815260048101919091526001600160a01b0387166024820152604401600060405180830381865afa925050508015612eb357506040513d6000823e601f3d908101601f19168201604052612eb0919081019061427e565b60015b15612edc57808460e001518381518110612ecf57612ecf613d93565b6020026020010181905250505b612ee581613da9565b9050612e2f565b50509392505050565b6040518060a001604052806000815260200160008152602001612f16613010565b815260200160008152602001600081525090565b604051806101a0016040528060008152602001600015158152602001600081526020016000815260200160008152602001612f88604051806060016040528060006001600160a01b0316815260200160008152602001606081525090565b81526020016000815260200160008152602001612fa361304d565b8152602001612fb0613010565b81526020016000815260200160008152602001600081525090565b6040518060400160405280613003604051806060016040528060006001600160a01b0316815260200160008152602001606081525090565b8152602001600081525090565b6040518061012001604052806000151581526020016000151581526020016000151581526020016000815260200160008152602001612fb0612fcb565b6040805160e0810190915260006080820181815260a0830191909152606060c083015281908152602001612f16604051806060016040528060006001600160a01b0316815260200160008152602001606081525090565b6040518060c0016040528060006001600160a01b0316815260200160006001600160a01b0316815260200160006001600160a01b0316815260200160008152602001600081526020016130f5612fcb565b905290565b6001600160a01b038116811461310f57600080fd5b50565b60008060006060848603121561312757600080fd5b83359250602084013591506040840135613140816130fa565b809150509250925092565b600081518084526020808501945080840160005b8381101561317b5781518752958201959082019060010161315f565b509495945050505050565b60005b838110156131a1578181015183820152602001613189565b50506000910152565b6001600160a01b03815116825260208101516020830152600060408201516060604085015280518060608601526131e8816080870160208501613186565b601f01601f1916939093016080019392505050565b600081516040845261321260408501826131aa565b602093840151949093019390935250919050565b60006101208251151584526020830151613244602086018215159052565b506040830151613258604086018215159052565b50606083015160608501526080830151608085015260a08301518160a0860152613284828601826131fd565b91505060c083015160c085015260e083015160e08501526101008084015181860152508091505092915050565b80518252602081015160208301526000604082015160a060408501526132da60a0850182613226565b905060608301516060850152608083015160808501528091505092915050565b600082825180855260208086019550808260051b84010181860160005b8481101561334557601f198684030189526133338383516132b1565b98840198925090830190600101613317565b5090979650505050505050565b6020815261336c6020820183516001600160a01b03169052565b6000602083015161338860408401826001600160a01b03169052565b506040830151606083015260608301516080830152608083015160a083015260a08301516101208060c08501526133c361014085018361314b565b915060c0850151601f198584030160e08601526133e083826132fa565b60e087015161010087810191909152909601519190940152509192915050565b6000806040838503121561341357600080fd5b823591506020830135613425816130fa565b809150509250929050565b600081516080845261344560808501826131aa565b90506020830151848203602086015261345e82826131aa565b91505060408301516040850152606083015160608501528091505092915050565b60006101a082518452602083015161349b602086018215159052565b5060408301516040850152606083015160608501526080830151608085015260a08301518160a08601526134d1828601826131aa565b91505060c083015160c085015260e083015160e085015261010080840151858303828701526135008382613430565b92505050610120808401518583038287015261351c8382613226565b6101408681015190880152610160808701519088015261018095860151959096019490945250929392505050565b60208152600061355d602083018461347f565b9392505050565b6000806040838503121561357757600080fd5b50508035926020909101359150565b60006020808352608083016001600160a01b0385511682850152818501516040850152604085015160608086015281815180845260a08701915060a08160051b8801019350848301925060005b8181101561360157609f198886030183526135ef858551613226565b945092850192918501916001016135d3565b5092979650505050505050565b60006020828403121561362057600080fd5b813561355d816130fa565b600081518084526020808501808196508360051b8101915082860160005b858110156136735782840389526136618483516131fd565b98850198935090840190600101613649565b5091979650505050505050565b6020815261369a6020820183516001600160a01b03169052565b600060208301516136b660408401826001600160a01b03169052565b5060408301516001600160a01b03811660608401525060608301516080830152608083015160a083015260a083015160c083015260c083015160e083015260e083015161010081818501528085015191505061012080818501525061371f61014084018261362b565b949350505050565b60208152600061355d60208301846132b1565b6000806040838503121561374d57600080fd5b8235613758816130fa565b946020939093013593505050565b60208152600061355d60208301846131fd565b60208152600061355d6020830184613430565b6020815260006001600160a01b038084511660208401528060208501511660408401528060408501511660608401525060608301516080830152608083015160a083015260a083015160c08084015261371f60e08401826131fd565b6000602082840312156137fa57600080fd5b5035919050565b60208152600061355d6020830184613226565b600081518084526020808501808196508360051b8101915082860160005b8581101561367357828403895261384a84835161347f565b98850198935090840190600101613832565b6020815260006001600160a01b03808451166020840152806020850151166040840152506040830151606083015260608301516080830152608083015160a083015260a083015160c083015260c083015160e083015260e083015161010080818501525061371f610120840182613814565b6000602082840312156138e057600080fd5b5051919050565b634e487b7160e01b600052601160045260246000fd5b80820180821115613910576139106138e7565b92915050565b81810381811115613910576139106138e7565b8082028115828204841417613910576139106138e7565b60008261395d57634e487b7160e01b600052601260045260246000fd5b500490565b634e487b7160e01b600052604160045260246000fd5b604051610120810167ffffffffffffffff8111828210171561399c5761399c613962565b60405290565b60405160a0810167ffffffffffffffff8111828210171561399c5761399c613962565b6040516101a0810167ffffffffffffffff8111828210171561399c5761399c613962565b604051601f8201601f1916810167ffffffffffffffff81118282101715613a1257613a12613962565b604052919050565b600067ffffffffffffffff821115613a3457613a34613962565b5060051b60200190565b600082601f830112613a4f57600080fd5b81516020613a64613a5f83613a1a565b6139e9565b82815260059290921b84018101918181019086841115613a8357600080fd5b8286015b84811015613a9e5780518352918301918301613a87565b509695505050505050565b600060208284031215613abb57600080fd5b815167ffffffffffffffff811115613ad257600080fd5b61371f84828501613a3e565b80518015158114613aee57600080fd5b919050565b600082601f830112613b0457600080fd5b815167ffffffffffffffff811115613b1e57613b1e613962565b613b31601f8201601f19166020016139e9565b818152846020838601011115613b4657600080fd5b61371f826020830160208701613186565b600060608284031215613b6957600080fd5b6040516060810167ffffffffffffffff8282108183111715613b8d57613b8d613962565b8160405282935084519150613ba1826130fa565b818352602085015160208401526040850151915080821115613bc257600080fd5b50613bcf85828601613af3565b6040830152505092915050565b600060408284031215613bee57600080fd5b6040516040810167ffffffffffffffff8282108183111715613c1257613c12613962565b816040528293508451915080821115613c2a57600080fd5b50613c3785828601613b57565b825250602083015160208201525092915050565b60006101208284031215613c5e57600080fd5b613c66613978565b9050613c7182613ade565b8152613c7f60208301613ade565b6020820152613c9060408301613ade565b6040820152606082015160608201526080820151608082015260a082015167ffffffffffffffff811115613cc357600080fd5b613ccf84828501613bdc565b60a08301525060c082015160c082015260e082015160e082015261010080830151818301525092915050565b600060208284031215613d0d57600080fd5b815167ffffffffffffffff80821115613d2557600080fd5b9083019060a08286031215613d3957600080fd5b613d416139a2565b8251815260208301516020820152604083015182811115613d6157600080fd5b613d6d87828601613c4b565b604083015250606083015160608201526080830151608082015280935050505092915050565b634e487b7160e01b600052603260045260246000fd5b600060018201613dbb57613dbb6138e7565b5060010190565b600060208284031215613dd457600080fd5b61355d82613ade565b600060208284031215613def57600080fd5b815161355d816130fa565b600060208284031215613e0c57600080fd5b815160ff8116811461355d57600080fd5b600060208284031215613e2f57600080fd5b815167ffffffffffffffff811115613e4657600080fd5b61371f84828501613af3565b600060808284031215613e6457600080fd5b6040516080810167ffffffffffffffff8282108183111715613e8857613e88613962565b816040528293508451915080821115613ea057600080fd5b613eac86838701613b57565b83526020850151915080821115613ec257600080fd5b50613ecf85828601613b57565b60208301525060408301516040820152606083015160608201525092915050565b600060208284031215613f0257600080fd5b815167ffffffffffffffff811115613f1957600080fd5b61371f84828501613e52565b60008060008060808587031215613f3b57600080fd5b8451613f46816130fa565b60208601516040870151606090970151919890975090945092505050565b600060208284031215613f7657600080fd5b815167ffffffffffffffff811115613f8d57600080fd5b61371f84828501613bdc565b60048110613fb757634e487b7160e01b600052602160045260246000fd5b9052565b602081016139108284613f99565b600060208284031215613fdb57600080fd5b815167ffffffffffffffff811115613ff257600080fd5b61371f84828501613c4b565b600082601f83011261400f57600080fd5b8151602061401f613a5f83613a1a565b82815260059290921b8401810191818101908684111561403e57600080fd5b8286015b84811015613a9e578051614055816130fa565b8352918301918301614042565b6000806040838503121561407557600080fd5b825167ffffffffffffffff8082111561408d57600080fd5b61409986838701613ffe565b935060208501519150808211156140af57600080fd5b506140bc85828601613a3e565b9150509250929050565b6000604082016001600160a01b03851683526020604081850152818551808452606086019150828701935060005b81811015613345578451835293830193918301916001016140f4565b600181811c9082168061412457607f821691505b60208210810361414457634e487b7160e01b600052602260045260246000fd5b50919050565b60008060006060848603121561415f57600080fd5b835167ffffffffffffffff8082111561417757600080fd5b61418387838801613a3e565b9450602086015191508082111561419957600080fd5b6141a587838801613ffe565b935060408601519150808211156141bb57600080fd5b506141c886828701613a3e565b9150509250925092565b80516dffffffffffffffffffffffffffff81168114613aee57600080fd5b60008060006060848603121561420557600080fd5b61420e846141d2565b925061421c602085016141d2565b9150604084015163ffffffff8116811461314057600080fd5b6000806040838503121561424857600080fd5b8251614253816130fa565b6020939093015192949293505050565b604081016142718285613f99565b8260208301529392505050565b60006020828403121561429057600080fd5b815167ffffffffffffffff808211156142a857600080fd5b908301906101a082860312156142bd57600080fd5b6142c56139c5565b825181526142d560208401613ade565b602082015260408301516040820152606083015160608201526080830151608082015260a08301518281111561430a57600080fd5b61431687828601613b57565b60a08301525060c083015160c082015260e083015160e0820152610100808401518381111561434457600080fd5b61435088828701613e52565b828401525050610120808401518381111561436a57600080fd5b61437688828701613c4b565b918301919091525061014083810151908201526101608084015190820152610180928301519281019290925250939250505056fea2646970667358221220db512511aa03613a7ceaf7adfb479f5e2d953e90d6cc44824ae933a58a96991e64736f6c63430008140033","linkReferences":{}},"methodIdentifiers":{"getFarmData(uint256,uint256,address)":"f4804a6d","getFarmDataAt(uint256,address)":"49614e51","getJoeStakingData(address)":"ca5cf4ad","getMasterChefPendingRewardsAt(address,uint256)":"a017140a","getPoolDataAt(address)":"a11e5fb8","getRewardData(address,uint256)":"840fe8ab","getStakingData(address)":"67a7b5f6","getVeMoeData(uint256,uint256,address)":"2030c498","getVeMoeDataAt(uint256,address)":"74e88e69","getVeMoeRewarderData(uint256,uint256)":"67453db1","getVeMoeRewarderDataAt(uint256)":"ea322484"},"id":65}