{"abi":[{"type":"constructor","inputs":[{"name":"masterchef","type":"address","internalType":"contract IMasterChef"},{"name":"joeStaking","type":"address","internalType":"contract IJoeStaking"},{"name":"nativeSymbol","type":"string","internalType":"string"}],"stateMutability":"nonpayable"},{"type":"function","name":"SCALE","inputs":[],"outputs":[{"name":"","type":"uint256","internalType":"uint256"}],"stateMutability":"view"},{"type":"function","name":"getFarmData","inputs":[{"name":"start","type":"uint256","internalType":"uint256"},{"name":"nb","type":"uint256","internalType":"uint256"},{"name":"user","type":"address","internalType":"address"}],"outputs":[{"name":"farms","type":"tuple","internalType":"struct MoeLens.FarmData","components":[{"name":"masterChef","type":"address","internalType":"address"},{"name":"moe","type":"address","internalType":"address"},{"name":"totalVotes","type":"uint256","internalType":"uint256"},{"name":"totalMoePerSecScaled","type":"uint256","internalType":"uint256"},{"name":"totalNumberOfFarms","type":"uint256","internalType":"uint256"},{"name":"userTotalVeMoe","type":"uint256","internalType":"uint256"},{"name":"userTotalVotes","type":"uint256","internalType":"uint256"},{"name":"farms","type":"tuple[]","internalType":"struct MoeLens.Farm[]","components":[{"name":"pid","type":"uint256","internalType":"uint256"},{"name":"isRewardable","type":"bool","internalType":"bool"},{"name":"votesOnFarm","type":"uint256","internalType":"uint256"},{"name":"moePerSecScaled","type":"uint256","internalType":"uint256"},{"name":"totalVotesOnFarm","type":"uint256","internalType":"uint256"},{"name":"lpToken","type":"address","internalType":"address"},{"name":"lpTokenSymbol","type":"string","internalType":"string"},{"name":"totalStakedScaled","type":"uint256","internalType":"uint256"},{"name":"totalSupplyScaled","type":"uint256","internalType":"uint256"},{"name":"token0","type":"tuple","internalType":"struct MoeLens.Token","components":[{"name":"token","type":"address","internalType":"address"},{"name":"symbol","type":"string","internalType":"string"},{"name":"reserveScaled","type":"uint256","internalType":"uint256"}]},{"name":"token1","type":"tuple","internalType":"struct MoeLens.Token","components":[{"name":"token","type":"address","internalType":"address"},{"name":"symbol","type":"string","internalType":"string"},{"name":"reserveScaled","type":"uint256","internalType":"uint256"}]},{"name":"rewarder","type":"tuple","internalType":"struct MoeLens.Rewarder","components":[{"name":"isSet","type":"bool","internalType":"bool"},{"name":"isStarted","type":"bool","internalType":"bool"},{"name":"isEnded","type":"bool","internalType":"bool"},{"name":"pid","type":"uint256","internalType":"uint256"},{"name":"totalDepositedScaled","type":"uint256","internalType":"uint256"},{"name":"reward","type":"tuple","internalType":"struct MoeLens.Reward","components":[{"name":"token","type":"address","internalType":"address"},{"name":"symbol","type":"string","internalType":"string"},{"name":"userPendingAmountScaled","type":"uint256","internalType":"uint256"}]},{"name":"rewardPerSecScaled","type":"uint256","internalType":"uint256"},{"name":"lastUpdateTimestamp","type":"uint256","internalType":"uint256"},{"name":"endUpdateTimestamp","type":"uint256","internalType":"uint256"}]},{"name":"userVotesOnFarm","type":"uint256","internalType":"uint256"},{"name":"userAmountScaled","type":"uint256","internalType":"uint256"},{"name":"userPendingMoeRewardScaled","type":"uint256","internalType":"uint256"}]}]}],"stateMutability":"view"},{"type":"function","name":"getFarmDataAt","inputs":[{"name":"pid","type":"uint256","internalType":"uint256"},{"name":"user","type":"address","internalType":"address"}],"outputs":[{"name":"farm","type":"tuple","internalType":"struct MoeLens.Farm","components":[{"name":"pid","type":"uint256","internalType":"uint256"},{"name":"isRewardable","type":"bool","internalType":"bool"},{"name":"votesOnFarm","type":"uint256","internalType":"uint256"},{"name":"moePerSecScaled","type":"uint256","internalType":"uint256"},{"name":"totalVotesOnFarm","type":"uint256","internalType":"uint256"},{"name":"lpToken","type":"address","internalType":"address"},{"name":"lpTokenSymbol","type":"string","internalType":"string"},{"name":"totalStakedScaled","type":"uint256","internalType":"uint256"},{"name":"totalSupplyScaled","type":"uint256","internalType":"uint256"},{"name":"token0","type":"tuple","internalType":"struct MoeLens.Token","components":[{"name":"token","type":"address","internalType":"address"},{"name":"symbol","type":"string","internalType":"string"},{"name":"reserveScaled","type":"uint256","internalType":"uint256"}]},{"name":"token1","type":"tuple","internalType":"struct MoeLens.Token","components":[{"name":"token","type":"address","internalType":"address"},{"name":"symbol","type":"string","internalType":"string"},{"name":"reserveScaled","type":"uint256","internalType":"uint256"}]},{"name":"rewarder","type":"tuple","internalType":"struct MoeLens.Rewarder","components":[{"name":"isSet","type":"bool","internalType":"bool"},{"name":"isStarted","type":"bool","internalType":"bool"},{"name":"isEnded","type":"bool","internalType":"bool"},{"name":"pid","type":"uint256","internalType":"uint256"},{"name":"totalDepositedScaled","type":"uint256","internalType":"uint256"},{"name":"reward","type":"tuple","internalType":"struct MoeLens.Reward","components":[{"name":"token","type":"address","internalType":"address"},{"name":"symbol","type":"string","internalType":"string"},{"name":"userPendingAmountScaled","type":"uint256","internalType":"uint256"}]},{"name":"rewardPerSecScaled","type":"uint256","internalType":"uint256"},{"name":"lastUpdateTimestamp","type":"uint256","internalType":"uint256"},{"name":"endUpdateTimestamp","type":"uint256","internalType":"uint256"}]},{"name":"userVotesOnFarm","type":"uint256","internalType":"uint256"},{"name":"userAmountScaled","type":"uint256","internalType":"uint256"},{"name":"userPendingMoeRewardScaled","type":"uint256","internalType":"uint256"}]}],"stateMutability":"view"},{"type":"function","name":"getJoeStakingData","inputs":[{"name":"user","type":"address","internalType":"address"}],"outputs":[{"name":"data","type":"tuple","internalType":"struct MoeLens.JoeStakingData","components":[{"name":"joeStakingAddress","type":"address","internalType":"address"},{"name":"joeAddress","type":"address","internalType":"address"},{"name":"rewarderAddress","type":"address","internalType":"address"},{"name":"totalStakedScaled","type":"uint256","internalType":"uint256"},{"name":"userStakedScaled","type":"uint256","internalType":"uint256"},{"name":"userReward","type":"tuple","internalType":"struct MoeLens.Reward","components":[{"name":"token","type":"address","internalType":"address"},{"name":"symbol","type":"string","internalType":"string"},{"name":"userPendingAmountScaled","type":"uint256","internalType":"uint256"}]}]}],"stateMutability":"view"},{"type":"function","name":"getMasterChefPendingRewardsAt","inputs":[{"name":"user","type":"address","internalType":"address"},{"name":"pid","type":"uint256","internalType":"uint256"}],"outputs":[{"name":"moeReward","type":"uint256","internalType":"uint256"},{"name":"extraToken","type":"address","internalType":"address"},{"name":"extraReward","type":"uint256","internalType":"uint256"}],"stateMutability":"view"},{"type":"function","name":"getPoolDataAt","inputs":[{"name":"lpToken","type":"address","internalType":"address"}],"outputs":[{"name":"token0","type":"tuple","internalType":"struct MoeLens.Token","components":[{"name":"token","type":"address","internalType":"address"},{"name":"symbol","type":"string","internalType":"string"},{"name":"reserveScaled","type":"uint256","internalType":"uint256"}]},{"name":"token1","type":"tuple","internalType":"struct MoeLens.Token","components":[{"name":"token","type":"address","internalType":"address"},{"name":"symbol","type":"string","internalType":"string"},{"name":"reserveScaled","type":"uint256","internalType":"uint256"}]}],"stateMutability":"view"},{"type":"function","name":"getRewardData","inputs":[{"name":"token","type":"address","internalType":"address"},{"name":"amount","type":"uint256","internalType":"uint256"}],"outputs":[{"name":"","type":"tuple","internalType":"struct MoeLens.Reward","components":[{"name":"token","type":"address","internalType":"address"},{"name":"symbol","type":"string","internalType":"string"},{"name":"userPendingAmountScaled","type":"uint256","internalType":"uint256"}]}],"stateMutability":"view"},{"type":"function","name":"getStakingData","inputs":[{"name":"user","type":"address","internalType":"address"}],"outputs":[{"name":"staking","type":"tuple","internalType":"struct MoeLens.MoeStakingData","components":[{"name":"moeStakingAddress","type":"address","internalType":"address"},{"name":"veMoeAddress","type":"address","internalType":"address"},{"name":"sMoeAddress","type":"address","internalType":"address"},{"name":"totalStakedScaled","type":"uint256","internalType":"uint256"},{"name":"totalVotes","type":"uint256","internalType":"uint256"},{"name":"userStakedScaled","type":"uint256","internalType":"uint256"},{"name":"userTotalVeMoe","type":"uint256","internalType":"uint256"},{"name":"userTotalVotes","type":"uint256","internalType":"uint256"},{"name":"userRewards","type":"tuple[]","internalType":"struct MoeLens.Reward[]","components":[{"name":"token","type":"address","internalType":"address"},{"name":"symbol","type":"string","internalType":"string"},{"name":"userPendingAmountScaled","type":"uint256","internalType":"uint256"}]}]}],"stateMutability":"view"},{"type":"function","name":"getVeMoeData","inputs":[{"name":"start","type":"uint256","internalType":"uint256"},{"name":"nb","type":"uint256","internalType":"uint256"},{"name":"user","type":"address","internalType":"address"}],"outputs":[{"name":"data","type":"tuple","internalType":"struct MoeLens.VeMoeData","components":[{"name":"moeStakingAddress","type":"address","internalType":"address"},{"name":"veMoeAddress","type":"address","internalType":"address"},{"name":"totalVotes","type":"uint256","internalType":"uint256"},{"name":"maxVeMoe","type":"uint256","internalType":"uint256"},{"name":"veMoePerSecondPerMoe","type":"uint256","internalType":"uint256"},{"name":"topPoolsIds","type":"uint256[]","internalType":"uint256[]"},{"name":"votes","type":"tuple[]","internalType":"struct MoeLens.Vote[]","components":[{"name":"pid","type":"uint256","internalType":"uint256"},{"name":"totalVotesOnFarm","type":"uint256","internalType":"uint256"},{"name":"rewarder","type":"tuple","internalType":"struct MoeLens.Rewarder","components":[{"name":"isSet","type":"bool","internalType":"bool"},{"name":"isStarted","type":"bool","internalType":"bool"},{"name":"isEnded","type":"bool","internalType":"bool"},{"name":"pid","type":"uint256","internalType":"uint256"},{"name":"totalDepositedScaled","type":"uint256","internalType":"uint256"},{"name":"reward","type":"tuple","internalType":"struct MoeLens.Reward","components":[{"name":"token","type":"address","internalType":"address"},{"name":"symbol","type":"string","internalType":"string"},{"name":"userPendingAmountScaled","type":"uint256","internalType":"uint256"}]},{"name":"rewardPerSecScaled","type":"uint256","internalType":"uint256"},{"name":"lastUpdateTimestamp","type":"uint256","internalType":"uint256"},{"name":"endUpdateTimestamp","type":"uint256","internalType":"uint256"}]},{"name":"userVotesOnFarm","type":"uint256","internalType":"uint256"},{"name":"userPendingRewardScaled","type":"uint256","internalType":"uint256"}]},{"name":"userTotalVeMoe","type":"uint256","internalType":"uint256"},{"name":"userTotalVotes","type":"uint256","internalType":"uint256"}]}],"stateMutability":"view"},{"type":"function","name":"getVeMoeDataAt","inputs":[{"name":"pid","type":"uint256","internalType":"uint256"},{"name":"user","type":"address","internalType":"address"}],"outputs":[{"name":"vote","type":"tuple","internalType":"struct MoeLens.Vote","components":[{"name":"pid","type":"uint256","internalType":"uint256"},{"name":"totalVotesOnFarm","type":"uint256","internalType":"uint256"},{"name":"rewarder","type":"tuple","internalType":"struct MoeLens.Rewarder","components":[{"name":"isSet","type":"bool","internalType":"bool"},{"name":"isStarted","type":"bool","internalType":"bool"},{"name":"isEnded","type":"bool","internalType":"bool"},{"name":"pid","type":"uint256","internalType":"uint256"},{"name":"totalDepositedScaled","type":"uint256","internalType":"uint256"},{"name":"reward","type":"tuple","internalType":"struct MoeLens.Reward","components":[{"name":"token","type":"address","internalType":"address"},{"name":"symbol","type":"string","internalType":"string"},{"name":"userPendingAmountScaled","type":"uint256","internalType":"uint256"}]},{"name":"rewardPerSecScaled","type":"uint256","internalType":"uint256"},{"name":"lastUpdateTimestamp","type":"uint256","internalType":"uint256"},{"name":"endUpdateTimestamp","type":"uint256","internalType":"uint256"}]},{"name":"userVotesOnFarm","type":"uint256","internalType":"uint256"},{"name":"userPendingRewardScaled","type":"uint256","internalType":"uint256"}]}],"stateMutability":"view"},{"type":"function","name":"getVeMoeRewarderData","inputs":[{"name":"start","type":"uint256","internalType":"uint256"},{"name":"nb","type":"uint256","internalType":"uint256"}],"outputs":[{"name":"data","type":"tuple","internalType":"struct MoeLens.VeMoeRewarderData","components":[{"name":"rewarderFactory","type":"address","internalType":"address"},{"name":"totalNumberOfRewarders","type":"uint256","internalType":"uint256"},{"name":"rewarders","type":"tuple[]","internalType":"struct MoeLens.Rewarder[]","components":[{"name":"isSet","type":"bool","internalType":"bool"},{"name":"isStarted","type":"bool","internalType":"bool"},{"name":"isEnded","type":"bool","internalType":"bool"},{"name":"pid","type":"uint256","internalType":"uint256"},{"name":"totalDepositedScaled","type":"uint256","internalType":"uint256"},{"name":"reward","type":"tuple","internalType":"struct MoeLens.Reward","components":[{"name":"token","type":"address","internalType":"address"},{"name":"symbol","type":"string","internalType":"string"},{"name":"userPendingAmountScaled","type":"uint256","internalType":"uint256"}]},{"name":"rewardPerSecScaled","type":"uint256","internalType":"uint256"},{"name":"lastUpdateTimestamp","type":"uint256","internalType":"uint256"},{"name":"endUpdateTimestamp","type":"uint256","internalType":"uint256"}]}]}],"stateMutability":"view"},{"type":"function","name":"getVeMoeRewarderDataAt","inputs":[{"name":"index","type":"uint256","internalType":"uint256"}],"outputs":[{"name":"rewarder","type":"tuple","internalType":"struct MoeLens.Rewarder","components":[{"name":"isSet","type":"bool","internalType":"bool"},{"name":"isStarted","type":"bool","internalType":"bool"},{"name":"isEnded","type":"bool","internalType":"bool"},{"name":"pid","type":"uint256","internalType":"uint256"},{"name":"totalDepositedScaled","type":"uint256","internalType":"uint256"},{"name":"reward","type":"tuple","internalType":"struct MoeLens.Reward","components":[{"name":"token","type":"address","internalType":"address"},{"name":"symbol","type":"string","internalType":"string"},{"name":"userPendingAmountScaled","type":"uint256","internalType":"uint256"}]},{"name":"rewardPerSecScaled","type":"uint256","internalType":"uint256"},{"name":"lastUpdateTimestamp","type":"uint256","internalType":"uint256"},{"name":"endUpdateTimestamp","type":"uint256","internalType":"uint256"}]}],"stateMutability":"view"}],"bytecode":{"object":"0x6101606040523480156200001257600080fd5b5060405162004edd38038062004edd833981016040819052620000359162000304565b6001600160a01b038316608052600062000050828262000493565b50816001600160a01b0316610120816001600160a01b031681525050826001600160a01b03166393f945036040518163ffffffff1660e01b8152600401602060405180830381865afa158015620000ab573d6000803e3d6000fd5b505050506040513d601f19601f82011682018060405250810190620000d191906200055f565b6001600160a01b031660a0816001600160a01b031681525050826001600160a01b0316637e63f0286040518163ffffffff1660e01b8152600401602060405180830381865afa15801562000129573d6000803e3d6000fd5b505050506040513d601f19601f820116820180604052508101906200014f91906200055f565b6001600160a01b031660c0816001600160a01b031681525050826001600160a01b0316635c4323ab6040518163ffffffff1660e01b8152600401602060405180830381865afa158015620001a7573d6000803e3d6000fd5b505050506040513d601f19601f82011682018060405250810190620001cd91906200055f565b6001600160a01b0316610140816001600160a01b03168152505060c0516001600160a01b03166372f148b86040518163ffffffff1660e01b8152600401602060405180830381865afa15801562000228573d6000803e3d6000fd5b505050506040513d601f19601f820116820180604052508101906200024e91906200055f565b6001600160a01b031661010081905260408051637ac20b5760e01b81529051637ac20b57916004808201926020929091908290030181865afa15801562000299573d6000803e3d6000fd5b505050506040513d601f19601f82011682018060405250810190620002bf91906200055f565b6001600160a01b031660e0525062000586915050565b6001600160a01b0381168114620002eb57600080fd5b50565b634e487b7160e01b600052604160045260246000fd5b6000806000606084860312156200031a57600080fd5b83516200032781620002d5565b809350506020808501516200033c81620002d5565b60408601519093506001600160401b03808211156200035a57600080fd5b818701915087601f8301126200036f57600080fd5b815181811115620003845762000384620002ee565b604051601f8201601f19908116603f01168101908382118183101715620003af57620003af620002ee565b816040528281528a86848701011115620003c857600080fd5b600093505b82841015620003ec5784840186015181850187015292850192620003cd565b60008684830101528096505050505050509250925092565b600181811c908216806200041957607f821691505b6020821081036200043a57634e487b7160e01b600052602260045260246000fd5b50919050565b601f8211156200048e57600081815260208120601f850160051c81016020861015620004695750805b601f850160051c820191505b818110156200048a5782815560010162000475565b5050505b505050565b81516001600160401b03811115620004af57620004af620002ee565b620004c781620004c0845462000404565b8462000440565b602080601f831160018114620004ff5760008415620004e65750858301515b600019600386901b1c1916600185901b1785556200048a565b600085815260208120601f198616915b8281101562000530578886015182559484019460019091019084016200050f565b50858210156200054f5787850151600019600388901b60f8161c191681555b5050505050600190811b01905550565b6000602082840312156200057257600080fd5b81516200057f81620002d5565b9392505050565b60805160a05160c05160e0516101005161012051610140516147c862000715600039600081816112770152818161132f0152612af10152600081816127ae015281816128bf0152818161291d015281816129ad0152612a5401526000818161042d015281816116f10152818161177e01526118ac0152600081816114ff015261174f0152600081816103b20152818161045c0152818161048b0152818161051b015281816105b60152818161063d01528181610726015281816108ac0152818161093f01528181610a6001528181610e3801528181611720015281816118050152818161193e015281816119d001528181611a7d01528181611b0601528181611ba701528181611dae01528181611f2201528181612dc301528181612ff50152818161310901526131ca015260008181612831015281816128ee0152612fc60152600081816102db015281816109cf01528181610af101528181610c8201528181610edb01528181610f930152818161223d01528181612ed501528181612f97015261307c01526147c86000f3fe608060405234801561001057600080fd5b50600436106100d45760003560e01c8063a017140a11610081578063ea3224841161005b578063ea32248414610219578063eced552614610239578063f4804a6d1461025657600080fd5b8063a017140a146101a2578063a11e5fb8146101d8578063ca5cf4ad146101f957600080fd5b806367a7b5f6116100b257806367a7b5f61461014257806374e88e6914610162578063840fe8ab1461018257600080fd5b80632030c498146100d957806349614e511461010257806367453db114610122575b600080fd5b6100ec6100e73660046134ce565b610276565b6040516100f991906136fa565b60405180910390f35b6101156101103660046137a8565b61088e565b6040516100f991906138dc565b6101356101303660046138f6565b611241565b6040516100f99190613918565b6101556101503660046139a0565b611471565b6040516100f99190613a08565b6101756101703660046137a8565b611a4c565b6040516100f99190613aaf565b610195610190366004613ac2565b611fdb565b6040516100f99190613aee565b6101b56101b0366004613ac2565b6121ed565b604080519384526001600160a01b039092166020840152908201526060016100f9565b6101eb6101e63660046139a0565b612336565b6040516100f9929190613b01565b61020c6102073660046139a0565b612715565b6040516100f99190613b2f565b61022c610227366004613b8b565b612acf565b6040516100f99190613ba4565b610248670de0b6b3a764000081565b6040519081526020016100f9565b6102696102643660046134ce565b612e77565b6040516100f99190613bfc565b6102d760405180610120016040528060006001600160a01b0316815260200160006001600160a01b03168152602001600081526020016000815260200160008152602001606081526020016060815260200160008152602001600081525090565b60007f00000000000000000000000000000000000000000000000000000000000000006001600160a01b031663c7a617836040518163ffffffff1660e01b8152600401602060405180830381865afa158015610337573d6000803e3d6000fd5b505050506040513d601f19601f8201168201806040525081019061035b9190613c6e565b90508085101561038a57806103708587613c9d565b1161037b578361038d565b6103858582613cb0565b61038d565b60005b6040516370a0823160e01b81526001600160a01b0385811660048301529195506000917f000000000000000000000000000000000000000000000000000000000000000016906370a0823190602401602060405180830381865afa1580156103f9573d6000803e3d6000fd5b505050506040513d601f19601f8201168201806040525081019061041d9190613c6e565b90506040518061012001604052807f00000000000000000000000000000000000000000000000000000000000000006001600160a01b031681526020017f00000000000000000000000000000000000000000000000000000000000000006001600160a01b031681526020017f00000000000000000000000000000000000000000000000000000000000000006001600160a01b0316639a0e7d666040518163ffffffff1660e01b8152600401602060405180830381865afa1580156104e7573d6000803e3d6000fd5b505050506040513d601f19601f8201168201806040525081019061050b9190613c6e565b8152602001670de0b6b3a76400007f00000000000000000000000000000000000000000000000000000000000000006001600160a01b031663888ed79e6040518163ffffffff1660e01b8152600401602060405180830381865afa158015610577573d6000803e3d6000fd5b505050506040513d601f19601f8201168201806040525081019061059b9190613c6e565b6105a59085613cc3565b6105af9190613cda565b81526020017f00000000000000000000000000000000000000000000000000000000000000006001600160a01b0316634f913d346040518163ffffffff1660e01b8152600401602060405180830381865afa158015610612573d6000803e3d6000fd5b505050506040513d601f19601f820116820180604052508101906106369190613c6e565b81526020017f00000000000000000000000000000000000000000000000000000000000000006001600160a01b031663e1e4d4196040518163ffffffff1660e01b8152600401600060405180830381865afa158015610699573d6000803e3d6000fd5b505050506040513d6000823e601f3d908101601f191682016040526106c19190810190613e43565b81526020018667ffffffffffffffff8111156106df576106df613cfc565b60405190808252806020026020018201604052801561071857816020015b61070561335a565b8152602001906001900390816106fd5790505b5081526020018281526020017f00000000000000000000000000000000000000000000000000000000000000006001600160a01b031663518ab0d0876040518263ffffffff1660e01b815260040161077f91906001600160a01b0391909116815260200190565b602060405180830381865afa15801561079c573d6000803e3d6000fd5b505050506040513d601f19601f820116820180604052508101906107c09190613c6e565b9052925060005b8581101561088457306374e88e696107df838a613c9d565b6040516001600160e01b031960e084901b16815260048101919091526001600160a01b0388166024820152604401600060405180830381865afa92505050801561084b57506040513d6000823e601f3d908101601f191682016040526108489190810190614030565b60015b1561087457808560c001518381518110610867576108676140c8565b6020026020010181905250505b61087d816140de565b90506107c7565b5050509392505050565b61089661338f565b60405163444f303960e11b8152600481018490527f00000000000000000000000000000000000000000000000000000000000000006001600160a01b03169063889e607290602401602060405180830381865afa1580156108fb573d6000803e3d6000fd5b505050506040513d601f19601f8201168201806040525081019061091f91906140f7565b1515602082015260405160016267ef6760e01b03198152600481018490527f00000000000000000000000000000000000000000000000000000000000000006001600160a01b03169063ff98109990602401602060405180830381865afa15801561098e573d6000803e3d6000fd5b505050506040513d601f19601f820116820180604052508101906109b29190613c6e565b6040828101919091525163d4f9dd1d60e01b8152600481018490527f00000000000000000000000000000000000000000000000000000000000000006001600160a01b03169063d4f9dd1d90602401602060405180830381865afa158015610a1e573d6000803e3d6000fd5b505050506040513d601f19601f82011682018060405250810190610a429190613c6e565b606082015260405160016267ef6760e01b03198152600481018490527f00000000000000000000000000000000000000000000000000000000000000006001600160a01b03169063ff98109990602401602060405180830381865afa158015610aaf573d6000803e3d6000fd5b505050506040513d601f19601f82011682018060405250810190610ad39190613c6e565b6080820152604051631c96a19760e31b8152600481018490526000907f00000000000000000000000000000000000000000000000000000000000000006001600160a01b03169063e4b50cb890602401602060405180830381865afa158015610b40573d6000803e3d6000fd5b505050506040513d601f19601f82011682018060405250810190610b649190614112565b90506000816001600160a01b031663313ce5676040518163ffffffff1660e01b8152600401602060405180830381865afa158015610ba6573d6000803e3d6000fd5b505050506040513d601f19601f82011682018060405250810190610bca919061412f565b610bd590600a614236565b9050818360a001906001600160a01b031690816001600160a01b031681525050816001600160a01b03166395d89b416040518163ffffffff1660e01b8152600401600060405180830381865afa158015610c33573d6000803e3d6000fd5b505050506040513d6000823e601f3d908101601f19168201604052610c5b9190810190614245565b60c084015260405163691d5cbd60e11b8152600481018690528190670de0b6b3a7640000907f00000000000000000000000000000000000000000000000000000000000000006001600160a01b03169063d23ab97a90602401602060405180830381865afa158015610cd1573d6000803e3d6000fd5b505050506040513d601f19601f82011682018060405250810190610cf59190613c6e565b610cff9190613cc3565b610d099190613cda565b8360e001818152505080670de0b6b3a7640000836001600160a01b03166318160ddd6040518163ffffffff1660e01b8152600401602060405180830381865afa158015610d5a573d6000803e3d6000fd5b505050506040513d601f19601f82011682018060405250810190610d7e9190613c6e565b610d889190613cc3565b610d929190613cda565b610100840152604051631423cbf760e31b81526001600160a01b0383166004820152309063a11e5fb890602401600060405180830381865afa925050508015610dfd57506040513d6000823e601f3d908101601f19168201604052610dfa919081019061427a565b60015b15610e12576101208501919091526101408401525b6040516303a997ab60e11b81526001600160a01b038581166004830152602482018790527f000000000000000000000000000000000000000000000000000000000000000016906307532f5690604401602060405180830381865afa158015610e7f573d6000803e3d6000fd5b505050506040513d601f19601f82011682018060405250810190610ea39190613c6e565b610180840152604051634fa44f2760e11b8152600481018690526001600160a01b0385811660248301528291670de0b6b3a7640000917f00000000000000000000000000000000000000000000000000000000000000001690639f489e4e90604401602060405180830381865afa158015610f22573d6000803e3d6000fd5b505050506040513d601f19601f82011682018060405250810190610f469190613c6e565b610f509190613cc3565b610f5a9190613cda565b6101a0840152600080610f6d86886121ed565b6101c088018390526040516339996d0560e21b8152600481018b905292945092506000917f00000000000000000000000000000000000000000000000000000000000000006001600160a01b0316915063e665b41490602401602060405180830381865afa158015610fe3573d6000803e3d6000fd5b505050506040513d601f19601f820116820180604052508101906110079190614112565b90506001600160a01b0381161561123657600080600080846001600160a01b03166339cbec9d6040518163ffffffff1660e01b8152600401608060405180830381865afa15801561105c573d6000803e3d6000fd5b505050506040513d601f19601f8201168201806040525081019061108091906142de565b93509350935093506110b5604051806060016040528060006001600160a01b0316815260200160608152602001600081525090565b60405163840fe8ab60e01b81526001600160a01b038616600482015260248101889052309063840fe8ab90604401600060405180830381865afa92505050801561112157506040513d6000823e601f3d908101601f1916820160405261111e919081019061431d565b60015b156111295790505b60006001600160a01b038616156111ac57856001600160a01b031663313ce5676040518163ffffffff1660e01b8152600401602060405180830381865afa158015611178573d6000803e3d6000fd5b505050506040513d601f19601f8201168201806040525081019061119c919061412f565b6111a790600a614236565b6111b6565b670de0b6b3a76400005b9050604051806101200160405280600115158152602001428611151515815260200142851115151581526020018f81526020018d60e00151815260200183815260200182670de0b6b3a76400008861120e9190613cc3565b6112189190613cda565b81526020810195909552604090940192909252505061016089015250505b505050505092915050565b60408051606080820183526000808352602083015291810191909152604051631b1444b560e11b81526000906001600160a01b037f00000000000000000000000000000000000000000000000000000000000000001690633628896a906112ad90600290600401614374565b602060405180830381865afa1580156112ca573d6000803e3d6000fd5b505050506040513d601f19601f820116820180604052508101906112ee9190613c6e565b90508084101561131d57806113038486613c9d565b1161130e5782611320565b6113188482613cb0565b611320565b60005b925060405180606001604052807f00000000000000000000000000000000000000000000000000000000000000006001600160a01b031681526020018281526020018467ffffffffffffffff81111561137b5761137b613cfc565b6040519080825280602002602001820160405280156113b457816020015b6113a161346c565b8152602001906001900390816113995790505b509052915060005b83811015611469573063ea3224846113d48388613c9d565b6040518263ffffffff1660e01b81526004016113f291815260200190565b600060405180830381865afa92505050801561143057506040513d6000823e601f3d908101601f1916820160405261142d9190810190614382565b60015b1561145957808460400151838151811061144c5761144c6140c8565b6020026020010181905250505b611462816140de565b90506113bc565b505092915050565b6114db60405180610120016040528060006001600160a01b0316815260200160006001600160a01b0316815260200160006001600160a01b031681526020016000815260200160008152602001600081526020016000815260200160008152602001606081525090565b60405163f6ed201760e01b81526001600160a01b03838116600483015260009182917f0000000000000000000000000000000000000000000000000000000000000000169063f6ed201790602401600060405180830381865afa158015611546573d6000803e3d6000fd5b505050506040513d6000823e601f3d908101601f1916820160405261156e919081019061441b565b915091506000825167ffffffffffffffff81111561158e5761158e613cfc565b6040519080825280602002602001820160405280156115ec57816020015b6115d9604051806060016040528060006001600160a01b0316815260200160608152602001600081525090565b8152602001906001900390816115ac5790505b50905060005b83518110156116e257306001600160a01b031663840fe8ab85838151811061161c5761161c6140c8565b6020026020010151858481518110611636576116366140c8565b60200260200101516040518363ffffffff1660e01b815260040161166f9291906001600160a01b03929092168252602082015260400190565b600060405180830381865afa9250505080156116ad57506040513d6000823e601f3d908101601f191682016040526116aa919081019061431d565b60015b156116d257808383815181106116c5576116c56140c8565b6020026020010181905250505b6116db816140de565b90506115f2565b506040518061012001604052807f00000000000000000000000000000000000000000000000000000000000000006001600160a01b031681526020017f00000000000000000000000000000000000000000000000000000000000000006001600160a01b031681526020017f00000000000000000000000000000000000000000000000000000000000000006001600160a01b031681526020017f00000000000000000000000000000000000000000000000000000000000000006001600160a01b031663c022215c6040518163ffffffff1660e01b8152600401602060405180830381865afa1580156117da573d6000803e3d6000fd5b505050506040513d601f19601f820116820180604052508101906117fe9190613c6e565b81526020017f00000000000000000000000000000000000000000000000000000000000000006001600160a01b0316639a0e7d666040518163ffffffff1660e01b8152600401602060405180830381865afa158015611861573d6000803e3d6000fd5b505050506040513d601f19601f820116820180604052508101906118859190613c6e565b8152604051637092a7dd60e11b81526001600160a01b0388811660048301526020909201917f0000000000000000000000000000000000000000000000000000000000000000169063e1254fba90602401602060405180830381865afa1580156118f3573d6000803e3d6000fd5b505050506040513d601f19601f820116820180604052508101906119179190613c6e565b81526040516370a0823160e01b81526001600160a01b0388811660048301526020909201917f000000000000000000000000000000000000000000000000000000000000000016906370a0823190602401602060405180830381865afa158015611985573d6000803e3d6000fd5b505050506040513d601f19601f820116820180604052508101906119a99190613c6e565b8152604051630518ab0d60e41b81526001600160a01b0388811660048301526020909201917f0000000000000000000000000000000000000000000000000000000000000000169063518ab0d090602401602060405180830381865afa158015611a17573d6000803e3d6000fd5b505050506040513d601f19601f82011682018060405250810190611a3b9190613c6e565b815260200191909152949350505050565b611a5461335a565b8281526040516303a997ab60e11b81526001600160a01b038381166004830152602482018590527f000000000000000000000000000000000000000000000000000000000000000016906307532f5690604401602060405180830381865afa158015611ac4573d6000803e3d6000fd5b505050506040513d601f19601f82011682018060405250810190611ae89190613c6e565b606082015260405160016267ef6760e01b03198152600481018490527f00000000000000000000000000000000000000000000000000000000000000006001600160a01b03169063ff98109990602401602060405180830381865afa158015611b55573d6000803e3d6000fd5b505050506040513d601f19601f82011682018060405250810190611b799190613c6e565b6020820152604051630df7df1b60e11b81526001600160a01b038381166004830152602482018590526000917f000000000000000000000000000000000000000000000000000000000000000090911690631befbe3690604401602060405180830381865afa158015611bf0573d6000803e3d6000fd5b505050506040513d601f19601f82011682018060405250810190611c149190614112565b90506001600160a01b03811615611fd457600080600080846001600160a01b03166339cbec9d6040518163ffffffff1660e01b8152600401608060405180830381865afa158015611c69573d6000803e3d6000fd5b505050506040513d601f19601f82011682018060405250810190611c8d91906142de565b9296509094509250905060006001600160a01b03851615611d1a57846001600160a01b031663313ce5676040518163ffffffff1660e01b8152600401602060405180830381865afa158015611ce6573d6000803e3d6000fd5b505050506040513d601f19601f82011682018060405250810190611d0a919061412f565b611d1590600a614236565b611d24565b670de0b6b3a76400005b9050611d53604051806060016040528060006001600160a01b0316815260200160608152602001600081525090565b604080516001808252818301909252600091602080830190803683370190505090508a81600081518110611d8957611d896140c8565b6020908102919091010152604051632b357fb560e11b81526000906001600160a01b037f0000000000000000000000000000000000000000000000000000000000000000169063566aff6a90611de5908e908690600401614475565b600060405180830381865afa158015611e02573d6000803e3d6000fd5b505050506040513d6000823e601f3d908101601f19168201604052611e2a919081019061441b565b915050306001600160a01b031663840fe8ab8983600081518110611e5057611e506140c8565b60200260200101516040518363ffffffff1660e01b8152600401611e899291906001600160a01b03929092168252602082015260400190565b600060405180830381865afa925050508015611ec757506040513d6000823e601f3d908101601f19168201604052611ec4919081019061431d565b60015b15611ecf5792505b50506040805161012081018252600181524280871115602083015285111581830152606081018c9052905163e720e48360e01b81526001600160a01b038981166004830152602482018d905260808301917f00000000000000000000000000000000000000000000000000000000000000009091169063e720e48390604401602060405180830381865afa158015611f6b573d6000803e3d6000fd5b505050506040513d601f19601f82011682018060405250810190611f8f9190613c6e565b81526020810183905260400183611fae670de0b6b3a764000089613cc3565b611fb89190613cda565b8152602081019590955260409485019390935250509085015250505b5092915050565b612008604051806060016040528060006001600160a01b0316815260200160608152602001600081525090565b60006001600160a01b0384161561208457836001600160a01b03166395d89b416040518163ffffffff1660e01b8152600401600060405180830381865afa158015612057573d6000803e3d6000fd5b505050506040513d6000823e601f3d908101601f1916820160405261207f9190810190614245565b612110565b60008054612091906144bf565b80601f01602080910402602001604051908101604052809291908181526020018280546120bd906144bf565b801561210a5780601f106120df5761010080835404028352916020019161210a565b820191906000526020600020905b8154815290600101906020018083116120ed57829003601f168201915b50505050505b905060006001600160a01b0385161561219557846001600160a01b031663313ce5676040518163ffffffff1660e01b8152600401602060405180830381865afa158015612161573d6000803e3d6000fd5b505050506040513d601f19601f82011682018060405250810190612185919061412f565b61219090600a614236565b61219f565b670de0b6b3a76400005b90506040518060600160405280866001600160a01b0316815260200183815260200182670de0b6b3a7640000876121d69190613cc3565b6121e09190613cda565b9052925050505b92915050565b6040805160018082528183019092526000918291829182919060208083019080368337019050509050848160008151811061222a5761222a6140c8565b60200260200101818152505060008060007f00000000000000000000000000000000000000000000000000000000000000006001600160a01b031663566aff6a8a866040518363ffffffff1660e01b8152600401612289929190614475565b600060405180830381865afa1580156122a6573d6000803e3d6000fd5b505050506040513d6000823e601f3d908101601f191682016040526122ce91908101906144f9565b925092509250826000815181106122e7576122e76140c8565b602002602001015182600081518110612302576123026140c8565b60200260200101518260008151811061231d5761231d6140c8565b6020026020010151965096509650505050509250925092565b612363604051806060016040528060006001600160a01b0316815260200160608152602001600081525090565b612390604051806060016040528060006001600160a01b0316815260200160608152602001600081525090565b600080846001600160a01b0316630902f1ac6040518163ffffffff1660e01b8152600401606060405180830381865afa1580156123d1573d6000803e3d6000fd5b505050506040513d601f19601f820116820180604052508101906123f5919061459f565b506dffffffffffffffffffffffffffff1691506dffffffffffffffffffffffffffff1691506000856001600160a01b0316630dfe16816040518163ffffffff1660e01b8152600401602060405180830381865afa15801561245a573d6000803e3d6000fd5b505050506040513d601f19601f8201168201806040525081019061247e9190614112565b90506000866001600160a01b031663d21220a76040518163ffffffff1660e01b8152600401602060405180830381865afa1580156124c0573d6000803e3d6000fd5b505050506040513d601f19601f820116820180604052508101906124e49190614112565b90506040518060600160405280836001600160a01b03168152602001836001600160a01b03166395d89b416040518163ffffffff1660e01b8152600401600060405180830381865afa15801561253e573d6000803e3d6000fd5b505050506040513d6000823e601f3d908101601f191682016040526125669190810190614245565b8152602001836001600160a01b031663313ce5676040518163ffffffff1660e01b8152600401602060405180830381865afa1580156125a9573d6000803e3d6000fd5b505050506040513d601f19601f820116820180604052508101906125cd919061412f565b6125d890600a614236565b6125ea670de0b6b3a764000088613cc3565b6125f49190613cda565b81525095506040518060600160405280826001600160a01b03168152602001826001600160a01b03166395d89b416040518163ffffffff1660e01b8152600401600060405180830381865afa158015612651573d6000803e3d6000fd5b505050506040513d6000823e601f3d908101601f191682016040526126799190810190614245565b8152602001826001600160a01b031663313ce5676040518163ffffffff1660e01b8152600401602060405180830381865afa1580156126bc573d6000803e3d6000fd5b505050506040513d601f19601f820116820180604052508101906126e0919061412f565b6126eb90600a614236565b6126fd670de0b6b3a764000087613cc3565b6127079190613cda565b815250945050505050915091565b61275f6040805160c081018252600080825260208083018290528284018290526060808401839052608084018390528451808201865283815291820152928301529060a082015290565b61278c604051806060016040528060006001600160a01b0316815260200160608152602001600081525090565b6040516326fceb5d60e11b81526001600160a01b0384811660048301526000917f000000000000000000000000000000000000000000000000000000000000000090911690634df9d6ba906024016040805180830381865afa1580156127f6573d6000803e3d6000fd5b505050506040513d601f19601f8201168201806040525081019061281a91906145e4565b60405163840fe8ab60e01b81526001600160a01b037f00000000000000000000000000000000000000000000000000000000000000001660048201526024810182905290925030915063840fe8ab90604401600060405180830381865afa9250505080156128aa57506040513d6000823e601f3d908101601f191682016040526128a7919081019061431d565b60015b156128b25791505b6040518060c001604052807f00000000000000000000000000000000000000000000000000000000000000006001600160a01b031681526020017f00000000000000000000000000000000000000000000000000000000000000006001600160a01b031681526020017f00000000000000000000000000000000000000000000000000000000000000006001600160a01b0316639015dcc96040518163ffffffff1660e01b8152600401602060405180830381865afa158015612979573d6000803e3d6000fd5b505050506040513d601f19601f8201168201806040525081019061299d9190614112565b6001600160a01b031681526020017f00000000000000000000000000000000000000000000000000000000000000006001600160a01b031663c022215c6040518163ffffffff1660e01b8152600401602060405180830381865afa158015612a09573d6000803e3d6000fd5b505050506040513d601f19601f82011682018060405250810190612a2d9190613c6e565b8152604051637092a7dd60e11b81526001600160a01b0387811660048301526020909201917f0000000000000000000000000000000000000000000000000000000000000000169063e1254fba90602401602060405180830381865afa158015612a9b573d6000803e3d6000fd5b505050506040513d601f19601f82011682018060405250810190612abf9190613c6e565b8152602001929092525092915050565b612ad761346c565b604051631caf7c9160e21b81526000906001600160a01b037f000000000000000000000000000000000000000000000000000000000000000016906372bdf24490612b29906002908790600401614612565b602060405180830381865afa158015612b46573d6000803e3d6000fd5b505050506040513d601f19601f82011682018060405250810190612b6a9190614112565b9050600080600080846001600160a01b03166339cbec9d6040518163ffffffff1660e01b8152600401608060405180830381865afa158015612bb0573d6000803e3d6000fd5b505050506040513d601f19601f82011682018060405250810190612bd491906142de565b93509350935093506000856001600160a01b031663c87729636040518163ffffffff1660e01b8152600401602060405180830381865afa158015612c1c573d6000803e3d6000fd5b505050506040513d601f19601f82011682018060405250810190612c409190613c6e565b905060006001600160a01b03861615612cc557856001600160a01b031663313ce5676040518163ffffffff1660e01b8152600401602060405180830381865afa158015612c91573d6000803e3d6000fd5b505050506040513d601f19601f82011682018060405250810190612cb5919061412f565b612cc090600a614236565b612ccf565b670de0b6b3a76400005b9050612cfe604051806060016040528060006001600160a01b0316815260200160608152602001600081525090565b60405163840fe8ab60e01b81526001600160a01b038816600482015260006024820152309063840fe8ab90604401600060405180830381865afa925050508015612d6a57506040513d6000823e601f3d908101601f19168201604052612d67919081019061431d565b60015b15612d725790505b604080516101208101825260008152428088111560208301528611158183015260608101859052905163e720e48360e01b81526001600160a01b038a811660048301526024820186905260808301917f00000000000000000000000000000000000000000000000000000000000000009091169063e720e48390604401602060405180830381865afa158015612e0c573d6000803e3d6000fd5b505050506040513d601f19601f82011682018060405250810190612e309190613c6e565b81526020810183905260400183612e4f670de0b6b3a76400008a613cc3565b612e599190613cda565b81526020018681526020018581525098505050505050505050919050565b612ed160405180610100016040528060006001600160a01b0316815260200160006001600160a01b031681526020016000815260200160008152602001600081526020016000815260200160008152602001606081525090565b60007f00000000000000000000000000000000000000000000000000000000000000006001600160a01b031663c7a617836040518163ffffffff1660e01b8152600401602060405180830381865afa158015612f31573d6000803e3d6000fd5b505050506040513d601f19601f82011682018060405250810190612f559190613c6e565b905080851015612f845780612f6a8587613c9d565b11612f755783612f87565b612f7f8582613cb0565b612f87565b60005b93506040518061010001604052807f00000000000000000000000000000000000000000000000000000000000000006001600160a01b031681526020017f00000000000000000000000000000000000000000000000000000000000000006001600160a01b031681526020017f00000000000000000000000000000000000000000000000000000000000000006001600160a01b0316639a0e7d666040518163ffffffff1660e01b8152600401602060405180830381865afa158015613051573d6000803e3d6000fd5b505050506040513d601f19601f820116820180604052508101906130759190613c6e565b81526020017f00000000000000000000000000000000000000000000000000000000000000006001600160a01b0316635b92d8316040518163ffffffff1660e01b8152600401602060405180830381865afa1580156130d8573d6000803e3d6000fd5b505050506040513d601f19601f820116820180604052508101906130fc9190613c6e565b81526020018281526020017f00000000000000000000000000000000000000000000000000000000000000006001600160a01b03166370a08231866040518263ffffffff1660e01b815260040161316291906001600160a01b0391909116815260200190565b602060405180830381865afa15801561317f573d6000803e3d6000fd5b505050506040513d601f19601f820116820180604052508101906131a39190613c6e565b8152604051630518ab0d60e41b81526001600160a01b0386811660048301526020909201917f0000000000000000000000000000000000000000000000000000000000000000169063518ab0d090602401602060405180830381865afa158015613211573d6000803e3d6000fd5b505050506040513d601f19601f820116820180604052508101906132359190613c6e565b81526020018567ffffffffffffffff81111561325357613253613cfc565b60405190808252806020026020018201604052801561328c57816020015b61327961338f565b8152602001906001900390816132715790505b509052915060005b8481101561335157306349614e516132ac8389613c9d565b6040516001600160e01b031960e084901b16815260048101919091526001600160a01b0387166024820152604401600060405180830381865afa92505050801561331857506040513d6000823e601f3d908101601f19168201604052613315919081019061462d565b60015b1561334157808460e001518381518110613334576133346140c8565b6020026020010181905250505b61334a816140de565b9050613294565b50509392505050565b6040518060a00160405280600081526020016000815260200161337b61346c565b815260200160008152602001600081525090565b604051806101e001604052806000815260200160001515815260200160008152602001600081526020016000815260200160006001600160a01b03168152602001606081526020016000815260200160008152602001613412604051806060016040528060006001600160a01b0316815260200160608152602001600081525090565b8152602001613444604051806060016040528060006001600160a01b0316815260200160608152602001600081525090565b815260200161345161346c565b81526020016000815260200160008152602001600081525090565b6040805161012081018252600080825260208083018290528284018290526060808401839052608084018390528451808201865283815291820152928301529060a0820190613451565b6001600160a01b03811681146134cb57600080fd5b50565b6000806000606084860312156134e357600080fd5b833592506020840135915060408401356134fc816134b6565b809150509250925092565b600081518084526020808501945080840160005b838110156135375781518752958201959082019060010161351b565b509495945050505050565b60005b8381101561355d578181015183820152602001613545565b50506000910152565b6000815180845261357e816020860160208601613542565b601f01601f19169290920160200192915050565b6001600160a01b03815116825260006020820151606060208501526135ba6060850182613566565b604093840151949093019390935250919050565b600061012082511515845260208301516135ec602086018215159052565b506040830151613600604086018215159052565b50606083015160608501526080830151608085015260a08301518160a086015261362c82860182613592565b91505060c083015160c085015260e083015160e08501526101008084015181860152508091505092915050565b80518252602081015160208301526000604082015160a0604085015261368260a08501826135ce565b905060608301516060850152608083015160808501528091505092915050565b600082825180855260208086019550808260051b84010181860160005b848110156136ed57601f198684030189526136db838351613659565b988401989250908301906001016136bf565b5090979650505050505050565b602081526137146020820183516001600160a01b03169052565b6000602083015161373060408401826001600160a01b03169052565b506040830151606083015260608301516080830152608083015160a083015260a08301516101208060c085015261376b610140850183613507565b915060c0850151601f198584030160e086015261378883826136a2565b60e087015161010087810191909152909601519190940152509192915050565b600080604083850312156137bb57600080fd5b8235915060208301356137cd816134b6565b809150509250929050565b60006101e08251845260208301516137f4602086018215159052565b5060408301516040850152606083015160608501526080830151608085015260a083015161382d60a08601826001600160a01b03169052565b5060c08301518160c086015261384582860182613566565b91505060e083015160e085015261010080840151818601525061012080840151858303828701526138768382613592565b9250505061014080840151858303828701526138928382613592565b9250505061016080840151858303828701526138ae83826135ce565b61018086810151908801526101a080870151908801526101c095860151959096019490945250929392505050565b6020815260006138ef60208301846137d8565b9392505050565b6000806040838503121561390957600080fd5b50508035926020909101359150565b60006020808352608083016001600160a01b0385511682850152818501516040850152604085015160608086015281815180845260a08701915060a08160051b8801019350848301925060005b8181101561399357609f198886030183526139818585516135ce565b94509285019291850191600101613965565b5092979650505050505050565b6000602082840312156139b257600080fd5b81356138ef816134b6565b600082825180855260208086019550808260051b84010181860160005b848110156136ed57601f198684030189526139f6838351613592565b988401989250908301906001016139da565b60208152613a226020820183516001600160a01b03169052565b60006020830151613a3e60408401826001600160a01b03169052565b5060408301516001600160a01b03811660608401525060608301516080830152608083015160a083015260a083015160c083015260c083015160e083015260e0830151610100818185015280850151915050610120808185015250613aa76101408401826139bd565b949350505050565b6020815260006138ef6020830184613659565b60008060408385031215613ad557600080fd5b8235613ae0816134b6565b946020939093013593505050565b6020815260006138ef6020830184613592565b604081526000613b146040830185613592565b8281036020840152613b268185613592565b95945050505050565b6020815260006001600160a01b038084511660208401528060208501511660408401528060408501511660608401525060608301516080830152608083015160a083015260a083015160c080840152613aa760e0840182613592565b600060208284031215613b9d57600080fd5b5035919050565b6020815260006138ef60208301846135ce565b6000815180845260208085019450848260051b860182860160005b858110156136ed578383038952613bea8383516137d8565b98850198925090840190600101613bd2565b6020815260006001600160a01b03808451166020840152806020850151166040840152506040830151606083015260608301516080830152608083015160a083015260a083015160c083015260c083015160e083015260e0830151610100808185015250613aa7610120840182613bb7565b600060208284031215613c8057600080fd5b5051919050565b634e487b7160e01b600052601160045260246000fd5b808201808211156121e7576121e7613c87565b818103818111156121e7576121e7613c87565b80820281158282048414176121e7576121e7613c87565b600082613cf757634e487b7160e01b600052601260045260246000fd5b500490565b634e487b7160e01b600052604160045260246000fd5b604051610120810167ffffffffffffffff81118282101715613d3657613d36613cfc565b60405290565b60405160a0810167ffffffffffffffff81118282101715613d3657613d36613cfc565b6040516101e0810167ffffffffffffffff81118282101715613d3657613d36613cfc565b604051601f8201601f1916810167ffffffffffffffff81118282101715613dac57613dac613cfc565b604052919050565b600067ffffffffffffffff821115613dce57613dce613cfc565b5060051b60200190565b600082601f830112613de957600080fd5b81516020613dfe613df983613db4565b613d83565b82815260059290921b84018101918181019086841115613e1d57600080fd5b8286015b84811015613e385780518352918301918301613e21565b509695505050505050565b600060208284031215613e5557600080fd5b815167ffffffffffffffff811115613e6c57600080fd5b613aa784828501613dd8565b80518015158114613e8857600080fd5b919050565b8051613e88816134b6565b600082601f830112613ea957600080fd5b815167ffffffffffffffff811115613ec357613ec3613cfc565b613ed6601f8201601f1916602001613d83565b818152846020838601011115613eeb57600080fd5b613aa7826020830160208701613542565b600060608284031215613f0e57600080fd5b6040516060810167ffffffffffffffff8282108183111715613f3257613f32613cfc565b8160405282935084519150613f46826134b6565b90825260208401519080821115613f5c57600080fd5b50613f6985828601613e98565b602083015250604083015160408201525092915050565b60006101208284031215613f9357600080fd5b613f9b613d12565b9050613fa682613e78565b8152613fb460208301613e78565b6020820152613fc560408301613e78565b6040820152606082015160608201526080820151608082015260a082015167ffffffffffffffff811115613ff857600080fd5b61400484828501613efc565b60a08301525060c082015160c082015260e082015160e082015261010080830151818301525092915050565b60006020828403121561404257600080fd5b815167ffffffffffffffff8082111561405a57600080fd5b9083019060a0828603121561406e57600080fd5b614076613d3c565b825181526020830151602082015260408301518281111561409657600080fd5b6140a287828601613f80565b604083015250606083015160608201526080830151608082015280935050505092915050565b634e487b7160e01b600052603260045260246000fd5b6000600182016140f0576140f0613c87565b5060010190565b60006020828403121561410957600080fd5b6138ef82613e78565b60006020828403121561412457600080fd5b81516138ef816134b6565b60006020828403121561414157600080fd5b815160ff811681146138ef57600080fd5b600181815b8085111561418d57816000190482111561417357614173613c87565b8085161561418057918102915b93841c9390800290614157565b509250929050565b6000826141a4575060016121e7565b816141b1575060006121e7565b81600181146141c757600281146141d1576141ed565b60019150506121e7565b60ff8411156141e2576141e2613c87565b50506001821b6121e7565b5060208310610133831016604e8410600b8410161715614210575081810a6121e7565b61421a8383614152565b806000190482111561422e5761422e613c87565b029392505050565b60006138ef60ff841683614195565b60006020828403121561425757600080fd5b815167ffffffffffffffff81111561426e57600080fd5b613aa784828501613e98565b6000806040838503121561428d57600080fd5b825167ffffffffffffffff808211156142a557600080fd5b6142b186838701613efc565b935060208501519150808211156142c757600080fd5b506142d485828601613efc565b9150509250929050565b600080600080608085870312156142f457600080fd5b84516142ff816134b6565b60208601516040870151606090970151919890975090945092505050565b60006020828403121561432f57600080fd5b815167ffffffffffffffff81111561434657600080fd5b613aa784828501613efc565b6004811061437057634e487b7160e01b600052602160045260246000fd5b9052565b602081016121e78284614352565b60006020828403121561439457600080fd5b815167ffffffffffffffff8111156143ab57600080fd5b613aa784828501613f80565b600082601f8301126143c857600080fd5b815160206143d8613df983613db4565b82815260059290921b840181019181810190868411156143f757600080fd5b8286015b84811015613e3857805161440e816134b6565b83529183019183016143fb565b6000806040838503121561442e57600080fd5b825167ffffffffffffffff8082111561444657600080fd5b614452868387016143b7565b9350602085015191508082111561446857600080fd5b506142d485828601613dd8565b6000604082016001600160a01b03851683526020604081850152818551808452606086019150828701935060005b818110156136ed578451835293830193918301916001016144a3565b600181811c908216806144d357607f821691505b6020821081036144f357634e487b7160e01b600052602260045260246000fd5b50919050565b60008060006060848603121561450e57600080fd5b835167ffffffffffffffff8082111561452657600080fd5b61453287838801613dd8565b9450602086015191508082111561454857600080fd5b614554878388016143b7565b9350604086015191508082111561456a57600080fd5b5061457786828701613dd8565b9150509250925092565b80516dffffffffffffffffffffffffffff81168114613e8857600080fd5b6000806000606084860312156145b457600080fd5b6145bd84614581565b92506145cb60208501614581565b9150604084015163ffffffff811681146134fc57600080fd5b600080604083850312156145f757600080fd5b8251614602816134b6565b6020939093015192949293505050565b604081016146208285614352565b8260208301529392505050565b60006020828403121561463f57600080fd5b815167ffffffffffffffff8082111561465757600080fd5b908301906101e0828603121561466c57600080fd5b614674613d5f565b8251815261468460208401613e78565b60208201526040830151604082015260608301516060820152608083015160808201526146b360a08401613e8d565b60a082015260c0830151828111156146ca57600080fd5b6146d687828601613e98565b60c08301525060e083015160e0820152610100808401518183015250610120808401518381111561470657600080fd5b61471288828701613efc565b828401525050610140808401518381111561472c57600080fd5b61473888828701613efc565b828401525050610160808401518381111561475257600080fd5b61475e88828701613f80565b918301919091525061018083810151908201526101a080840151908201526101c0928301519281019290925250939250505056fea26469706673582212208db5607cb1be379ac94060622b10b120f520667d2dee29f565e4642dc6fc435f64736f6c63430008140033","linkReferences":{}},"methodIdentifiers":{"SCALE()":"eced5526","getFarmData(uint256,uint256,address)":"f4804a6d","getFarmDataAt(uint256,address)":"49614e51","getJoeStakingData(address)":"ca5cf4ad","getMasterChefPendingRewardsAt(address,uint256)":"a017140a","getPoolDataAt(address)":"a11e5fb8","getRewardData(address,uint256)":"840fe8ab","getStakingData(address)":"67a7b5f6","getVeMoeData(uint256,uint256,address)":"2030c498","getVeMoeDataAt(uint256,address)":"74e88e69","getVeMoeRewarderData(uint256,uint256)":"67453db1","getVeMoeRewarderDataAt(uint256)":"ea322484"},"id":64}