{"abi":[{"type":"constructor","inputs":[{"name":"factory","type":"address","internalType":"address"}],"stateMutability":"nonpayable"},{"type":"function","name":"getFactory","inputs":[],"outputs":[{"name":"","type":"address","internalType":"address"}],"stateMutability":"view"},{"type":"function","name":"getPrice","inputs":[{"name":"path","type":"address[]","internalType":"address[]"}],"outputs":[{"name":"","type":"uint256","internalType":"uint256"}],"stateMutability":"view"},{"type":"function","name":"getPrices","inputs":[{"name":"paths","type":"address[][]","internalType":"address[][]"}],"outputs":[{"name":"prices","type":"uint256[]","internalType":"uint256[]"}],"stateMutability":"view"},{"type":"function","name":"getQuoteIn","inputs":[{"name":"path","type":"address[]","internalType":"address[]"},{"name":"amountOut","type":"uint256","internalType":"uint256"}],"outputs":[{"name":"","type":"tuple","internalType":"struct IMoeQuoter.Quote","components":[{"name":"token","type":"address[]","internalType":"address[]"},{"name":"amount","type":"uint256[]","internalType":"uint256[]"},{"name":"virtualAmount","type":"uint256[]","internalType":"uint256[]"},{"name":"fees","type":"uint256[]","internalType":"uint256[]"}]}],"stateMutability":"view"},{"type":"function","name":"getQuoteOut","inputs":[{"name":"path","type":"address[]","internalType":"address[]"},{"name":"amountIn","type":"uint256","internalType":"uint256"}],"outputs":[{"name":"","type":"tuple","internalType":"struct IMoeQuoter.Quote","components":[{"name":"token","type":"address[]","internalType":"address[]"},{"name":"amount","type":"uint256[]","internalType":"uint256[]"},{"name":"virtualAmount","type":"uint256[]","internalType":"uint256[]"},{"name":"fees","type":"uint256[]","internalType":"uint256[]"}]}],"stateMutability":"view"},{"type":"function","name":"getQuotesIn","inputs":[{"name":"paths","type":"address[][]","internalType":"address[][]"},{"name":"amountsOut","type":"uint256[]","internalType":"uint256[]"}],"outputs":[{"name":"quotes","type":"tuple[]","internalType":"struct IMoeQuoter.Quote[]","components":[{"name":"token","type":"address[]","internalType":"address[]"},{"name":"amount","type":"uint256[]","internalType":"uint256[]"},{"name":"virtualAmount","type":"uint256[]","internalType":"uint256[]"},{"name":"fees","type":"uint256[]","internalType":"uint256[]"}]}],"stateMutability":"view"},{"type":"function","name":"getQuotesOut","inputs":[{"name":"paths","type":"address[][]","internalType":"address[][]"},{"name":"amountsIn","type":"uint256[]","internalType":"uint256[]"}],"outputs":[{"name":"quotes","type":"tuple[]","internalType":"struct IMoeQuoter.Quote[]","components":[{"name":"token","type":"address[]","internalType":"address[]"},{"name":"amount","type":"uint256[]","internalType":"uint256[]"},{"name":"virtualAmount","type":"uint256[]","internalType":"uint256[]"},{"name":"fees","type":"uint256[]","internalType":"uint256[]"}]}],"stateMutability":"view"}],"bytecode":{"object":"0x60a060405234801561001057600080fd5b50604051611dce380380611dce83398101604081905261002f91610040565b6001600160a01b0316608052610070565b60006020828403121561005257600080fd5b81516001600160a01b038116811461006957600080fd5b9392505050565b608051611d2f61009f6000396000818160f8015281816107990152818161092b0152610c3f0152611d2f6000f3fe608060405234801561001057600080fd5b506004361061007d5760003560e01c806388cc58e41161005b57806388cc58e4146100eb5780639b00550714610122578063cae3ca6414610143578063f873d8241461015657600080fd5b8063116652ee146100825780631570519d146100ab57806354121b18146100cb575b600080fd5b610095610090366004611584565b610169565b6040516100a2919061170d565b60405180910390f35b6100be6100b936600461176f565b610261565b6040516100a291906117a4565b6100de6100d93660046117e8565b61030a565b6040516100a2919061182d565b6040516001600160a01b037f00000000000000000000000000000000000000000000000000000000000000001681526020016100a2565b610135610130366004611840565b61040b565b6040519081526020016100a2565b6100de6101513660046117e8565b610485565b610095610164366004611584565b6104e6565b6060825167ffffffffffffffff811115610185576101856113e4565b6040519080825280602002602001820160405280156101e157816020015b6101ce6040518060800160405280606081526020016060815260200160608152602001606081525090565b8152602001906001900390816101a35790505b50905060005b835181101561025a5761022c84828151811061020557610205611875565b602002602001015184838151811061021f5761021f611875565b602002602001015161030a565b82828151811061023e5761023e611875565b602002602001018190525080610253906118a1565b90506101e7565b5092915050565b6060815167ffffffffffffffff81111561027d5761027d6113e4565b6040519080825280602002602001820160405280156102a6578160200160208202803683370190505b50905060005b8251811015610304576102d78382815181106102ca576102ca611875565b602002602001015161040b565b8282815181106102e9576102e9611875565b60209081029190910101526102fd816118a1565b90506102ac565b50919050565b6103356040518060800160405280606081526020016060815260200160608152602001606081525090565b3330146103f857604051630a82436360e31b815230906354121b189061036190869086906004016118f3565b600060405180830381865afa92505050801561039f57506040513d6000823e601f3d908101601f1916820160405261039c91908101906119d4565b60015b6103f157506040805160006080820181815260a0830184528252825181815260208082018552808401919091528351828152808201855283850152835191825281019092526060810191909152610405565b9050610405565b61040283836105d7565b90505b92915050565b600033301461047c57604051639b00550760e01b81523090639b00550790610437908590600401611aad565b602060405180830381865afa925050508015610470575060408051601f3d908101601f1916820190925261046d91810190611ac0565b60015b61040557506000919050565b610405826108bb565b6104b06040518060800160405280606081526020016060815260200160608152602001606081525090565b3330146104dc576040516332b8f29960e21b8152309063cae3ca649061036190869086906004016118f3565b6104028383610a85565b6060825167ffffffffffffffff811115610502576105026113e4565b60405190808252806020026020018201604052801561055e57816020015b61054b6040518060800160405280606081526020016060815260200160608152602001606081525090565b8152602001906001900390816105205790505b50905060005b835181101561025a576105a984828151811061058257610582611875565b602002602001015184838151811061059c5761059c611875565b6020026020010151610485565b8282815181106105bb576105bb611875565b6020026020010181905250806105d0906118a1565b9050610564565b6106026040518060800160405280606081526020016060815260200160608152602001606081525090565b60008360008151811061061757610617611875565b6020026020010151905060008451905060006001826106369190611ad9565b86855290508167ffffffffffffffff811115610654576106546113e4565b60405190808252806020026020018201604052801561067d578160200160208202803683370190505b5060208501528167ffffffffffffffff81111561069c5761069c6113e4565b6040519080825280602002602001820160405280156106c5578160200160208202803683370190505b5060408501528067ffffffffffffffff8111156106e4576106e46113e4565b60405190808252806020026020018201604052801561070d578160200160208202803683370190505b50846060018190525084846020015160008151811061072e5761072e611875565b60200260200101818152505084846040015160008151811061075257610752611875565b60209081029190910101528460005b828110156108b057600088610777836001611aec565b8151811061078757610787611875565b602002602001015190506000806107bf7f00000000000000000000000000000000000000000000000000000000000000008985610d34565b9150915060006107d08b8484610e0c565b90506108106107ee660aa87bee538000670de0b6b3a7640000611ad9565b6107f89088611aff565b61080a85670de0b6b3a7640000611aff565b84610f25565b9550808a602001518660016108259190611aec565b8151811061083557610835611875565b602090810291909101015260408a01518690610852876001611aec565b8151811061086257610862611875565b602002602001018181525050660aa87bee5380008a60600151868151811061088c5761088c611875565b602090810291909101015299509196506108a991508290506118a1565b9050610761565b505050505092915050565b8051670de0b6b3a76400009060005b6108d5600183611ad9565b811015610a7e576000808583815181106108f1576108f1611875565b6020026020010151868460016109079190611aec565b8151811061091757610917611875565b6020026020010151915091506000806109517f00000000000000000000000000000000000000000000000000000000000000008585610d34565b915091506000846001600160a01b031663313ce5676040518163ffffffff1660e01b8152600401602060405180830381865afa158015610995573d6000803e3d6000fd5b505050506040513d601f19601f820116820180604052508101906109b99190611b16565b60ff1690506000846001600160a01b031663313ce5676040518163ffffffff1660e01b8152600401602060405180830381865afa1580156109fe573d6000803e3d6000fd5b505050506040513d601f19601f82011682018060405250810190610a229190611b16565b60ff169050610a3282600a611c24565b610a3c9084611aff565b610a4782600a611c24565b610a51868c611aff565b610a5b9190611aff565b610a659190611c30565b985050505050505080610a77906118a1565b90506108ca565b5050919050565b610ab06040518060800160405280606081526020016060815260200160608152602001606081525090565b82516000610abf600183611ad9565b90506000858281518110610ad557610ad5611875565b602090810291909101015186855290508267ffffffffffffffff811115610afe57610afe6113e4565b604051908082528060200260200182016040528015610b27578160200160208202803683370190505b5060208501528267ffffffffffffffff811115610b4657610b466113e4565b604051908082528060200260200182016040528015610b6f578160200160208202803683370190505b5060408501528167ffffffffffffffff811115610b8e57610b8e6113e4565b604051908082528060200260200182016040528015610bb7578160200160208202803683370190505b5084606001819052508484602001518381518110610bd757610bd7611875565b6020026020010181815250508484604001518381518110610bfa57610bfa611875565b602090810291909101015284825b80156108b057600088610c1a83611c52565b92508281518110610c2d57610c2d611875565b60200260200101519050600080610c657f00000000000000000000000000000000000000000000000000000000000000008488610d34565b915091506000610c768b8484610ffa565b9050610cb6610c8d87670de0b6b3a7640000611aff565b610ca6660aa87bee538000670de0b6b3a7640000611ad9565b610cb09085611aff565b85610f25565b9550808a602001518681518110610ccf57610ccf611875565b602002602001018181525050858a604001518681518110610cf257610cf2611875565b602002602001018181525050660aa87bee5380008a606001518681518110610d1c57610d1c611875565b60209081029190910101529950919450610c08915050565b6000806000610d438585611120565b509050600080610d54888888611209565b6001600160a01b0316630902f1ac6040518163ffffffff1660e01b8152600401606060405180830381865afa158015610d91573d6000803e3d6000fd5b505050506040513d601f19601f82011682018060405250810190610db59190611c8c565b506dffffffffffffffffffffffffffff1691506dffffffffffffffffffffffffffff169150826001600160a01b0316876001600160a01b031614610dfa578082610dfd565b81815b90999098509650505050505050565b6000808411610e705760405162461bcd60e51b815260206004820152602560248201527f4d6f654c6962726172793a20494e53554646494349454e545f494e5055545f416044820152641353d5539560da1b60648201526084015b60405180910390fd5b600083118015610e805750600082115b610ed75760405162461bcd60e51b815260206004820152602260248201527f4d6f654c6962726172793a20494e53554646494349454e545f4c495155494449604482015261545960f01b6064820152608401610e67565b6000610ee5856103e5611aff565b90506000610ef38483611aff565b9050600082610f04876103e8611aff565b610f0e9190611aec565b9050610f1a8183611c30565b979650505050505050565b6000808411610f765760405162461bcd60e51b815260206004820152601f60248201527f4d6f654c6962726172793a20494e53554646494349454e545f414d4f554e54006044820152606401610e67565b600083118015610f865750600082115b610fdd5760405162461bcd60e51b815260206004820152602260248201527f4d6f654c6962726172793a20494e53554646494349454e545f4c495155494449604482015261545960f01b6064820152608401610e67565b82610fe88386611aff565b610ff29190611c30565b949350505050565b600080841161105a5760405162461bcd60e51b815260206004820152602660248201527f4d6f654c6962726172793a20494e53554646494349454e545f4f55545055545f604482015265105353d5539560d21b6064820152608401610e67565b60008311801561106a5750600082115b6110c15760405162461bcd60e51b815260206004820152602260248201527f4d6f654c6962726172793a20494e53554646494349454e545f4c495155494449604482015261545960f01b6064820152608401610e67565b60006110cd8585611aff565b6110d9906103e8611aff565b905060006110e78685611ad9565b6110f3906103e5611aff565b905080611101600184611ad9565b61110b9190611c30565b611116906001611aec565b9695505050505050565b600080826001600160a01b0316846001600160a01b0316036111845760405162461bcd60e51b815260206004820152601f60248201527f4d6f654c6962726172793a204944454e544943414c5f414444524553534553006044820152606401610e67565b826001600160a01b0316846001600160a01b0316106111a45782846111a7565b83835b90925090506001600160a01b0382166112025760405162461bcd60e51b815260206004820152601860248201527f4d6f654c6962726172793a205a45524f5f4144445245535300000000000000006044820152606401610e67565b9250929050565b600080846001600160a01b03166373f9936d6040518163ffffffff1660e01b8152600401602060405180830381865afa15801561124a573d6000803e3d6000fd5b505050506040513d601f19601f8201168201806040525081019061126e9190611cdc565b905061127c85828686611285565b95945050505050565b60008060006112948585611120565b6040516bffffffffffffffffffffffff19606084811b8216602084015283901b166034820152919350915060009060480160408051601f19818403018152919052805160208201209091506112eb8883838c6112f8565b9998505050505050505050565b6000806113058686611312565b90506111168185856113bb565b600060408203516020830351835180602086010180516002830161ffca8111156113445763c8c781396000526004601cfd5b6c5af43d3d93803e603357fd5bf38852600c198801989098526035880160d81b604889901b177d6100003d81600a3d39f3363d3d373d3d3d3d610000806035363936013d731760201988015260f088901b8252603f909701601e198701209690528452601f19840152603f19909201919091525090565b600060355160ff600053603594855260609290921b600152506015919091526055600020915290565b634e487b7160e01b600052604160045260246000fd5b6040516080810167ffffffffffffffff8111828210171561141d5761141d6113e4565b60405290565b604051601f8201601f1916810167ffffffffffffffff8111828210171561144c5761144c6113e4565b604052919050565b600067ffffffffffffffff82111561146e5761146e6113e4565b5060051b60200190565b6001600160a01b038116811461148d57600080fd5b50565b600082601f8301126114a157600080fd5b813560206114b66114b183611454565b611423565b82815260059290921b840181019181810190868411156114d557600080fd5b8286015b848110156114f95780356114ec81611478565b83529183019183016114d9565b509695505050505050565b600082601f83011261151557600080fd5b813560206115256114b183611454565b82815260059290921b8401810191818101908684111561154457600080fd5b8286015b848110156114f957803567ffffffffffffffff8111156115685760008081fd5b6115768986838b0101611490565b845250918301918301611548565b6000806040838503121561159757600080fd5b823567ffffffffffffffff808211156115af57600080fd5b6115bb86838701611504565b93506020915081850135818111156115d257600080fd5b85019050601f810186136115e557600080fd5b80356115f36114b182611454565b81815260059190911b8201830190838101908883111561161257600080fd5b928401925b8284101561163057833582529284019290840190611617565b80955050505050509250929050565b600081518084526020808501945080840160005b8381101561166f57815187529582019590820190600101611653565b509495945050505050565b8051608080845281519084018190526000916020919082019060a0860190845b818110156116bf5783516001600160a01b03168352928401929184019160010161169a565b5050828501519150858103838701526116d8818361163f565b92505050604083015184820360408601526116f3828261163f565b9150506060830151848203606086015261127c828261163f565b6000602080830181845280855180835260408601915060408160051b870101925083870160005b8281101561176257603f1988860301845261175085835161167a565b94509285019290850190600101611734565b5092979650505050505050565b60006020828403121561178157600080fd5b813567ffffffffffffffff81111561179857600080fd5b610ff284828501611504565b6020808252825182820181905260009190848201906040850190845b818110156117dc578351835292840192918401916001016117c0565b50909695505050505050565b600080604083850312156117fb57600080fd5b823567ffffffffffffffff81111561181257600080fd5b61181e85828601611490565b95602094909401359450505050565b602081526000610402602083018461167a565b60006020828403121561185257600080fd5b813567ffffffffffffffff81111561186957600080fd5b610ff284828501611490565b634e487b7160e01b600052603260045260246000fd5b634e487b7160e01b600052601160045260246000fd5b6000600182016118b3576118b361188b565b5060010190565b600081518084526020808501945080840160005b8381101561166f5781516001600160a01b0316875295820195908201906001016118ce565b60408152600061190660408301856118ba565b90508260208301529392505050565b600082601f83011261192657600080fd5b815160206119366114b183611454565b82815260059290921b8401810191818101908684111561195557600080fd5b8286015b848110156114f957805161196c81611478565b8352918301918301611959565b600082601f83011261198a57600080fd5b8151602061199a6114b183611454565b82815260059290921b840181019181810190868411156119b957600080fd5b8286015b848110156114f957805183529183019183016119bd565b6000602082840312156119e657600080fd5b815167ffffffffffffffff808211156119fe57600080fd5b9083019060808286031215611a1257600080fd5b611a1a6113fa565b825182811115611a2957600080fd5b611a3587828601611915565b825250602083015182811115611a4a57600080fd5b611a5687828601611979565b602083015250604083015182811115611a6e57600080fd5b611a7a87828601611979565b604083015250606083015182811115611a9257600080fd5b611a9e87828601611979565b60608301525095945050505050565b60208152600061040260208301846118ba565b600060208284031215611ad257600080fd5b5051919050565b818103818111156104055761040561188b565b808201808211156104055761040561188b565b80820281158282048414176104055761040561188b565b600060208284031215611b2857600080fd5b815160ff81168114611b3957600080fd5b9392505050565b600181815b80851115611b7b578160001904821115611b6157611b6161188b565b80851615611b6e57918102915b93841c9390800290611b45565b509250929050565b600082611b9257506001610405565b81611b9f57506000610405565b8160018114611bb55760028114611bbf57611bdb565b6001915050610405565b60ff841115611bd057611bd061188b565b50506001821b610405565b5060208310610133831016604e8410600b8410161715611bfe575081810a610405565b611c088383611b40565b8060001904821115611c1c57611c1c61188b565b029392505050565b60006104028383611b83565b600082611c4d57634e487b7160e01b600052601260045260246000fd5b500490565b600081611c6157611c6161188b565b506000190190565b80516dffffffffffffffffffffffffffff81168114611c8757600080fd5b919050565b600080600060608486031215611ca157600080fd5b611caa84611c69565b9250611cb860208501611c69565b9150604084015163ffffffff81168114611cd157600080fd5b809150509250925092565b600060208284031215611cee57600080fd5b8151611b398161147856fea264697066735822122046fe5d3c85158c040c6487aa231f5494fb25da191e8110583a406d1737789e9564736f6c63430008140033","linkReferences":{}},"methodIdentifiers":{"getFactory()":"88cc58e4","getPrice(address[])":"9b005507","getPrices(address[][])":"1570519d","getQuoteIn(address[],uint256)":"cae3ca64","getQuoteOut(address[],uint256)":"54121b18","getQuotesIn(address[][],uint256[])":"f873d824","getQuotesOut(address[][],uint256[])":"116652ee"},"id":76}