{
  "abi": [
    {
      "inputs": [
        {
          "internalType": "address",
          "name": "_factory",
          "type": "address"
        },
        {
          "internalType": "address",
          "name": "_wNative",
          "type": "address"
        }
      ],
      "stateMutability": "nonpayable",
      "type": "constructor"
    },
    {
      "inputs": [
        {
          "internalType": "address",
          "name": "target",
          "type": "address"
        }
      ],
      "name": "AddressEmptyCode",
      "type": "error"
    },
    {
      "inputs": [
        {
          "internalType": "address",
          "name": "account",
          "type": "address"
        }
      ],
      "name": "AddressInsufficientBalance",
      "type": "error"
    },
    {
      "inputs": [],
      "name": "FailedInnerCall",
      "type": "error"
    },
    {
      "inputs": [
        {
          "internalType": "address",
          "name": "token",
          "type": "address"
        }
      ],
      "name": "SafeERC20FailedOperation",
      "type": "error"
    },
    {
      "inputs": [
        {
          "internalType": "address",
          "name": "tokenA",
          "type": "address"
        },
        {
          "internalType": "address",
          "name": "tokenB",
          "type": "address"
        },
        {
          "internalType": "uint256",
          "name": "amountADesired",
          "type": "uint256"
        },
        {
          "internalType": "uint256",
          "name": "amountBDesired",
          "type": "uint256"
        },
        {
          "internalType": "uint256",
          "name": "amountAMin",
          "type": "uint256"
        },
        {
          "internalType": "uint256",
          "name": "amountBMin",
          "type": "uint256"
        },
        {
          "internalType": "address",
          "name": "to",
          "type": "address"
        },
        {
          "internalType": "uint256",
          "name": "deadline",
          "type": "uint256"
        }
      ],
      "name": "addLiquidity",
      "outputs": [
        {
          "internalType": "uint256",
          "name": "amountA",
          "type": "uint256"
        },
        {
          "internalType": "uint256",
          "name": "amountB",
          "type": "uint256"
        },
        {
          "internalType": "uint256",
          "name": "liquidity",
          "type": "uint256"
        }
      ],
      "stateMutability": "nonpayable",
      "type": "function"
    },
    {
      "inputs": [
        {
          "internalType": "address",
          "name": "token",
          "type": "address"
        },
        {
          "internalType": "uint256",
          "name": "amountTokenDesired",
          "type": "uint256"
        },
        {
          "internalType": "uint256",
          "name": "amountTokenMin",
          "type": "uint256"
        },
        {
          "internalType": "uint256",
          "name": "amountNativeMin",
          "type": "uint256"
        },
        {
          "internalType": "address",
          "name": "to",
          "type": "address"
        },
        {
          "internalType": "uint256",
          "name": "deadline",
          "type": "uint256"
        }
      ],
      "name": "addLiquidityNative",
      "outputs": [
        {
          "internalType": "uint256",
          "name": "amountToken",
          "type": "uint256"
        },
        {
          "internalType": "uint256",
          "name": "amountNative",
          "type": "uint256"
        },
        {
          "internalType": "uint256",
          "name": "liquidity",
          "type": "uint256"
        }
      ],
      "stateMutability": "payable",
      "type": "function"
    },
    {
      "inputs": [],
      "name": "factory",
      "outputs": [
        {
          "internalType": "address",
          "name": "",
          "type": "address"
        }
      ],
      "stateMutability": "view",
      "type": "function"
    },
    {
      "inputs": [
        {
          "internalType": "uint256",
          "name": "amountOut",
          "type": "uint256"
        },
        {
          "internalType": "uint256",
          "name": "reserveIn",
          "type": "uint256"
        },
        {
          "internalType": "uint256",
          "name": "reserveOut",
          "type": "uint256"
        }
      ],
      "name": "getAmountIn",
      "outputs": [
        {
          "internalType": "uint256",
          "name": "amountIn",
          "type": "uint256"
        }
      ],
      "stateMutability": "pure",
      "type": "function"
    },
    {
      "inputs": [
        {
          "internalType": "uint256",
          "name": "amountIn",
          "type": "uint256"
        },
        {
          "internalType": "uint256",
          "name": "reserveIn",
          "type": "uint256"
        },
        {
          "internalType": "uint256",
          "name": "reserveOut",
          "type": "uint256"
        }
      ],
      "name": "getAmountOut",
      "outputs": [
        {
          "internalType": "uint256",
          "name": "amountOut",
          "type": "uint256"
        }
      ],
      "stateMutability": "pure",
      "type": "function"
    },
    {
      "inputs": [
        {
          "internalType": "uint256",
          "name": "amountOut",
          "type": "uint256"
        },
        {
          "internalType": "address[]",
          "name": "path",
          "type": "address[]"
        }
      ],
      "name": "getAmountsIn",
      "outputs": [
        {
          "internalType": "uint256[]",
          "name": "amounts",
          "type": "uint256[]"
        }
      ],
      "stateMutability": "view",
      "type": "function"
    },
    {
      "inputs": [
        {
          "internalType": "uint256",
          "name": "amountIn",
          "type": "uint256"
        },
        {
          "internalType": "address[]",
          "name": "path",
          "type": "address[]"
        }
      ],
      "name": "getAmountsOut",
      "outputs": [
        {
          "internalType": "uint256[]",
          "name": "amounts",
          "type": "uint256[]"
        }
      ],
      "stateMutability": "view",
      "type": "function"
    },
    {
      "inputs": [
        {
          "internalType": "uint256",
          "name": "amountA",
          "type": "uint256"
        },
        {
          "internalType": "uint256",
          "name": "reserveA",
          "type": "uint256"
        },
        {
          "internalType": "uint256",
          "name": "reserveB",
          "type": "uint256"
        }
      ],
      "name": "quote",
      "outputs": [
        {
          "internalType": "uint256",
          "name": "amountB",
          "type": "uint256"
        }
      ],
      "stateMutability": "pure",
      "type": "function"
    },
    {
      "inputs": [
        {
          "internalType": "address",
          "name": "tokenA",
          "type": "address"
        },
        {
          "internalType": "address",
          "name": "tokenB",
          "type": "address"
        },
        {
          "internalType": "uint256",
          "name": "liquidity",
          "type": "uint256"
        },
        {
          "internalType": "uint256",
          "name": "amountAMin",
          "type": "uint256"
        },
        {
          "internalType": "uint256",
          "name": "amountBMin",
          "type": "uint256"
        },
        {
          "internalType": "address",
          "name": "to",
          "type": "address"
        },
        {
          "internalType": "uint256",
          "name": "deadline",
          "type": "uint256"
        }
      ],
      "name": "removeLiquidity",
      "outputs": [
        {
          "internalType": "uint256",
          "name": "amountA",
          "type": "uint256"
        },
        {
          "internalType": "uint256",
          "name": "amountB",
          "type": "uint256"
        }
      ],
      "stateMutability": "nonpayable",
      "type": "function"
    },
    {
      "inputs": [
        {
          "internalType": "address",
          "name": "token",
          "type": "address"
        },
        {
          "internalType": "uint256",
          "name": "liquidity",
          "type": "uint256"
        },
        {
          "internalType": "uint256",
          "name": "amountTokenMin",
          "type": "uint256"
        },
        {
          "internalType": "uint256",
          "name": "amountNativeMin",
          "type": "uint256"
        },
        {
          "internalType": "address",
          "name": "to",
          "type": "address"
        },
        {
          "internalType": "uint256",
          "name": "deadline",
          "type": "uint256"
        }
      ],
      "name": "removeLiquidityNative",
      "outputs": [
        {
          "internalType": "uint256",
          "name": "amountToken",
          "type": "uint256"
        },
        {
          "internalType": "uint256",
          "name": "amountNative",
          "type": "uint256"
        }
      ],
      "stateMutability": "nonpayable",
      "type": "function"
    },
    {
      "inputs": [
        {
          "internalType": "address",
          "name": "token",
          "type": "address"
        },
        {
          "internalType": "uint256",
          "name": "liquidity",
          "type": "uint256"
        },
        {
          "internalType": "uint256",
          "name": "amountTokenMin",
          "type": "uint256"
        },
        {
          "internalType": "uint256",
          "name": "amountNativeMin",
          "type": "uint256"
        },
        {
          "internalType": "address",
          "name": "to",
          "type": "address"
        },
        {
          "internalType": "uint256",
          "name": "deadline",
          "type": "uint256"
        }
      ],
      "name": "removeLiquidityNativeSupportingFeeOnTransferTokens",
      "outputs": [
        {
          "internalType": "uint256",
          "name": "amountNative",
          "type": "uint256"
        }
      ],
      "stateMutability": "nonpayable",
      "type": "function"
    },
    {
      "inputs": [
        {
          "internalType": "address",
          "name": "token",
          "type": "address"
        },
        {
          "internalType": "uint256",
          "name": "liquidity",
          "type": "uint256"
        },
        {
          "internalType": "uint256",
          "name": "amountTokenMin",
          "type": "uint256"
        },
        {
          "internalType": "uint256",
          "name": "amountNativeMin",
          "type": "uint256"
        },
        {
          "internalType": "address",
          "name": "to",
          "type": "address"
        },
        {
          "internalType": "uint256",
          "name": "deadline",
          "type": "uint256"
        },
        {
          "internalType": "bool",
          "name": "approveMax",
          "type": "bool"
        },
        {
          "internalType": "uint8",
          "name": "v",
          "type": "uint8"
        },
        {
          "internalType": "bytes32",
          "name": "r",
          "type": "bytes32"
        },
        {
          "internalType": "bytes32",
          "name": "s",
          "type": "bytes32"
        }
      ],
      "name": "removeLiquidityNativeWithPermit",
      "outputs": [
        {
          "internalType": "uint256",
          "name": "amountToken",
          "type": "uint256"
        },
        {
          "internalType": "uint256",
          "name": "amountNative",
          "type": "uint256"
        }
      ],
      "stateMutability": "nonpayable",
      "type": "function"
    },
    {
      "inputs": [
        {
          "internalType": "address",
          "name": "token",
          "type": "address"
        },
        {
          "internalType": "uint256",
          "name": "liquidity",
          "type": "uint256"
        },
        {
          "internalType": "uint256",
          "name": "amountTokenMin",
          "type": "uint256"
        },
        {
          "internalType": "uint256",
          "name": "amountNativeMin",
          "type": "uint256"
        },
        {
          "internalType": "address",
          "name": "to",
          "type": "address"
        },
        {
          "internalType": "uint256",
          "name": "deadline",
          "type": "uint256"
        },
        {
          "internalType": "bool",
          "name": "approveMax",
          "type": "bool"
        },
        {
          "internalType": "uint8",
          "name": "v",
          "type": "uint8"
        },
        {
          "internalType": "bytes32",
          "name": "r",
          "type": "bytes32"
        },
        {
          "internalType": "bytes32",
          "name": "s",
          "type": "bytes32"
        }
      ],
      "name": "removeLiquidityNativeWithPermitSupportingFeeOnTransferTokens",
      "outputs": [
        {
          "internalType": "uint256",
          "name": "amountNative",
          "type": "uint256"
        }
      ],
      "stateMutability": "nonpayable",
      "type": "function"
    },
    {
      "inputs": [
        {
          "internalType": "address",
          "name": "tokenA",
          "type": "address"
        },
        {
          "internalType": "address",
          "name": "tokenB",
          "type": "address"
        },
        {
          "internalType": "uint256",
          "name": "liquidity",
          "type": "uint256"
        },
        {
          "internalType": "uint256",
          "name": "amountAMin",
          "type": "uint256"
        },
        {
          "internalType": "uint256",
          "name": "amountBMin",
          "type": "uint256"
        },
        {
          "internalType": "address",
          "name": "to",
          "type": "address"
        },
        {
          "internalType": "uint256",
          "name": "deadline",
          "type": "uint256"
        },
        {
          "internalType": "bool",
          "name": "approveMax",
          "type": "bool"
        },
        {
          "internalType": "uint8",
          "name": "v",
          "type": "uint8"
        },
        {
          "internalType": "bytes32",
          "name": "r",
          "type": "bytes32"
        },
        {
          "internalType": "bytes32",
          "name": "s",
          "type": "bytes32"
        }
      ],
      "name": "removeLiquidityWithPermit",
      "outputs": [
        {
          "internalType": "uint256",
          "name": "amountA",
          "type": "uint256"
        },
        {
          "internalType": "uint256",
          "name": "amountB",
          "type": "uint256"
        }
      ],
      "stateMutability": "nonpayable",
      "type": "function"
    },
    {
      "inputs": [
        {
          "internalType": "uint256",
          "name": "amountOutMin",
          "type": "uint256"
        },
        {
          "internalType": "address[]",
          "name": "path",
          "type": "address[]"
        },
        {
          "internalType": "address",
          "name": "to",
          "type": "address"
        },
        {
          "internalType": "uint256",
          "name": "deadline",
          "type": "uint256"
        }
      ],
      "name": "swapExactNativeForTokens",
      "outputs": [
        {
          "internalType": "uint256[]",
          "name": "amounts",
          "type": "uint256[]"
        }
      ],
      "stateMutability": "payable",
      "type": "function"
    },
    {
      "inputs": [
        {
          "internalType": "uint256",
          "name": "amountOutMin",
          "type": "uint256"
        },
        {
          "internalType": "address[]",
          "name": "path",
          "type": "address[]"
        },
        {
          "internalType": "address",
          "name": "to",
          "type": "address"
        },
        {
          "internalType": "uint256",
          "name": "deadline",
          "type": "uint256"
        }
      ],
      "name": "swapExactNativeForTokensSupportingFeeOnTransferTokens",
      "outputs": [],
      "stateMutability": "payable",
      "type": "function"
    },
    {
      "inputs": [
        {
          "internalType": "uint256",
          "name": "amountIn",
          "type": "uint256"
        },
        {
          "internalType": "uint256",
          "name": "amountOutMin",
          "type": "uint256"
        },
        {
          "internalType": "address[]",
          "name": "path",
          "type": "address[]"
        },
        {
          "internalType": "address",
          "name": "to",
          "type": "address"
        },
        {
          "internalType": "uint256",
          "name": "deadline",
          "type": "uint256"
        }
      ],
      "name": "swapExactTokensForNative",
      "outputs": [
        {
          "internalType": "uint256[]",
          "name": "amounts",
          "type": "uint256[]"
        }
      ],
      "stateMutability": "nonpayable",
      "type": "function"
    },
    {
      "inputs": [
        {
          "internalType": "uint256",
          "name": "amountIn",
          "type": "uint256"
        },
        {
          "internalType": "uint256",
          "name": "amountOutMin",
          "type": "uint256"
        },
        {
          "internalType": "address[]",
          "name": "path",
          "type": "address[]"
        },
        {
          "internalType": "address",
          "name": "to",
          "type": "address"
        },
        {
          "internalType": "uint256",
          "name": "deadline",
          "type": "uint256"
        }
      ],
      "name": "swapExactTokensForNativeSupportingFeeOnTransferTokens",
      "outputs": [],
      "stateMutability": "nonpayable",
      "type": "function"
    },
    {
      "inputs": [
        {
          "internalType": "uint256",
          "name": "amountIn",
          "type": "uint256"
        },
        {
          "internalType": "uint256",
          "name": "amountOutMin",
          "type": "uint256"
        },
        {
          "internalType": "address[]",
          "name": "path",
          "type": "address[]"
        },
        {
          "internalType": "address",
          "name": "to",
          "type": "address"
        },
        {
          "internalType": "uint256",
          "name": "deadline",
          "type": "uint256"
        }
      ],
      "name": "swapExactTokensForTokens",
      "outputs": [
        {
          "internalType": "uint256[]",
          "name": "amounts",
          "type": "uint256[]"
        }
      ],
      "stateMutability": "nonpayable",
      "type": "function"
    },
    {
      "inputs": [
        {
          "internalType": "uint256",
          "name": "amountIn",
          "type": "uint256"
        },
        {
          "internalType": "uint256",
          "name": "amountOutMin",
          "type": "uint256"
        },
        {
          "internalType": "address[]",
          "name": "path",
          "type": "address[]"
        },
        {
          "internalType": "address",
          "name": "to",
          "type": "address"
        },
        {
          "internalType": "uint256",
          "name": "deadline",
          "type": "uint256"
        }
      ],
      "name": "swapExactTokensForTokensSupportingFeeOnTransferTokens",
      "outputs": [],
      "stateMutability": "nonpayable",
      "type": "function"
    },
    {
      "inputs": [
        {
          "internalType": "uint256",
          "name": "amountOut",
          "type": "uint256"
        },
        {
          "internalType": "address[]",
          "name": "path",
          "type": "address[]"
        },
        {
          "internalType": "address",
          "name": "to",
          "type": "address"
        },
        {
          "internalType": "uint256",
          "name": "deadline",
          "type": "uint256"
        }
      ],
      "name": "swapNativeForExactTokens",
      "outputs": [
        {
          "internalType": "uint256[]",
          "name": "amounts",
          "type": "uint256[]"
        }
      ],
      "stateMutability": "payable",
      "type": "function"
    },
    {
      "inputs": [
        {
          "internalType": "uint256",
          "name": "amountOut",
          "type": "uint256"
        },
        {
          "internalType": "uint256",
          "name": "amountInMax",
          "type": "uint256"
        },
        {
          "internalType": "address[]",
          "name": "path",
          "type": "address[]"
        },
        {
          "internalType": "address",
          "name": "to",
          "type": "address"
        },
        {
          "internalType": "uint256",
          "name": "deadline",
          "type": "uint256"
        }
      ],
      "name": "swapTokensForExactNative",
      "outputs": [
        {
          "internalType": "uint256[]",
          "name": "amounts",
          "type": "uint256[]"
        }
      ],
      "stateMutability": "nonpayable",
      "type": "function"
    },
    {
      "inputs": [
        {
          "internalType": "uint256",
          "name": "amountOut",
          "type": "uint256"
        },
        {
          "internalType": "uint256",
          "name": "amountInMax",
          "type": "uint256"
        },
        {
          "internalType": "address[]",
          "name": "path",
          "type": "address[]"
        },
        {
          "internalType": "address",
          "name": "to",
          "type": "address"
        },
        {
          "internalType": "uint256",
          "name": "deadline",
          "type": "uint256"
        }
      ],
      "name": "swapTokensForExactTokens",
      "outputs": [
        {
          "internalType": "uint256[]",
          "name": "amounts",
          "type": "uint256[]"
        }
      ],
      "stateMutability": "nonpayable",
      "type": "function"
    },
    {
      "inputs": [],
      "name": "wNative",
      "outputs": [
        {
          "internalType": "address",
          "name": "",
          "type": "address"
        }
      ],
      "stateMutability": "view",
      "type": "function"
    },
    {
      "stateMutability": "payable",
      "type": "receive"
    }
  ],
  "bytecode": {
    "object": "0x60c06040523480156200001157600080fd5b506040516200439138038062004391833981016040819052620000349162000069565b6001600160a01b039182166080521660a052620000a1565b80516001600160a01b03811681146200006457600080fd5b919050565b600080604083850312156200007d57600080fd5b62000088836200004c565b915062000098602084016200004c565b90509250929050565b60805160a051614150620002416000396000818161015f0152818161025e015281816105290152818161075801528181610acd01528181610c0901528181610d4d01528181610df801528181611098015281816111aa01528181611238015281816114c50152818161151d015281816115d0015281816116c1015281816119d101528181611aef01528181611b7d01528181611ce701528181611d3d01528181611d7a01528181611e0f01528181611f4101528181611fbe01528181612032015281816122ab015261236d015260008181610430015281816105a50152818161064f015281816108550152818161088e0152818161098501528181610a2f01528181610b4901528181610c8901528181610e9a015281816111130152818161126a01528181611406015281816115ae0152818161169f015281816117af01528181611a4c01528181611baf01528181611d1b015281816120640152818161225c0152818161241d015281816128410152818161289101528181612cdc01528181612e8501528181613206015281816132a8015261331f01526141506000f3fe60806040526004361061014f5760003560e01c8063a96605e8116100b6578063c45a01551161006f578063c45a01551461041e578063c9e164e314610452578063cbacf4e414610480578063d06ca61f14610493578063d638d856146104b3578063e8e33700146104d357600080fd5b8063a96605e81461036b578063ad615dec1461038b578063b47c632e146103ab578063b7de50b4146103cb578063baa2abde146103eb578063c075a5911461040b57600080fd5b80634436f4fd116101085780634436f4fd146102b857806356400497146102d85780635c11d795146102f8578063800a758a1461031857806385f8c2591461032b5780638803dbee1461034b57600080fd5b8063029e384f14610193578063054d50d4146101c95780631f00ca74146101f75780632195995c146102175780632d68efc91461024c57806338ed17391461029857600080fd5b3661018e57336001600160a01b037f0000000000000000000000000000000000000000000000000000000000000000161461018c5761018c61380c565b005b600080fd5b34801561019f57600080fd5b506101b36101ae36600461388c565b6104f3565b6040516101c091906138ff565b60405180910390f35b3480156101d557600080fd5b506101e96101e4366004613943565b610837565b6040519081526020016101c0565b34801561020357600080fd5b506101b3610212366004613985565b61084e565b34801561022357600080fd5b50610237610232366004613a75565b610884565b604080519283526020830191909152016101c0565b34801561025857600080fd5b506102807f000000000000000000000000000000000000000000000000000000000000000081565b6040516001600160a01b0390911681526020016101c0565b3480156102a457600080fd5b506101b36102b336600461388c565b61095d565b3480156102c457600080fd5b506101b36102d336600461388c565b610aa0565b3480156102e457600080fd5b5061018c6102f336600461388c565b610bde565b34801561030457600080fd5b5061018c61031336600461388c565b610e70565b6101b3610326366004613b1f565b611073565b34801561033757600080fd5b506101e9610346366004613943565b6113d1565b34801561035757600080fd5b506101b361036636600461388c565b6113de565b34801561037757600080fd5b50610237610386366004613b86565b61149b565b34801561039757600080fd5b506101e96103a6366004613943565b611597565b3480156103b757600080fd5b506102376103c6366004613be4565b6115a4565b3480156103d757600080fd5b506101e96103e6366004613be4565b611697565b3480156103f757600080fd5b50610237610406366004613c7a565b611784565b6101b3610419366004613b1f565b6119ac565b34801561042a57600080fd5b506102807f000000000000000000000000000000000000000000000000000000000000000081565b610465610460366004613b86565b611cbb565b604080519384526020840192909252908201526060016101c0565b61018c61048e366004613b1f565b611f1e565b34801561049f57600080fd5b506101b36104ae366004613985565b612255565b3480156104bf57600080fd5b506101e96104ce366004613b86565b612282565b3480156104df57600080fd5b506104656104ee366004613cec565b6123db565b6060814281101561051f5760405162461bcd60e51b815260040161051690613d68565b60405180910390fd5b6001600160a01b037f0000000000000000000000000000000000000000000000000000000000000000168686610556600182613daa565b81811061056557610565613dbd565b905060200201602081019061057a9190613dd3565b6001600160a01b0316146105a05760405162461bcd60e51b815260040161051690613df0565b6105fe7f0000000000000000000000000000000000000000000000000000000000000000898888808060200260200160405190810160405280939291908181526020018383602002808284376000920191909152506124ef92505050565b91508682600184516106109190613daa565b8151811061062057610620613dbd565b602002602001015110156106465760405162461bcd60e51b815260040161051690613e27565b610717336106c37f00000000000000000000000000000000000000000000000000000000000000008989600081811061068157610681613dbd565b90506020020160208101906106969190613dd3565b8a8a60018181106106a9576106a9613dbd565b90506020020160208101906106be9190613dd3565b612675565b846000815181106106d6576106d6613dbd565b6020026020010151898960008181106106f1576106f1613dbd565b90506020020160208101906107069190613dd3565b6001600160a01b03169291906126f1565b6107568287878080602002602001604051908101604052809392919081815260200183836020028082843760009201919091525030925061275e915050565b7f00000000000000000000000000000000000000000000000000000000000000006001600160a01b0316632e1a7d4d83600185516107949190613daa565b815181106107a4576107a4613dbd565b60200260200101516040518263ffffffff1660e01b81526004016107ca91815260200190565b600060405180830381600087803b1580156107e457600080fd5b505af11580156107f8573d6000803e3d6000fd5b5050505061082c84836001855161080f9190613daa565b8151811061081f5761081f613dbd565b6020026020010151612960565b509695505050505050565b6000610844848484612a12565b90505b9392505050565b606061087b7f00000000000000000000000000000000000000000000000000000000000000008484612aeb565b90505b92915050565b60008060006108b47f00000000000000000000000000000000000000000000000000000000000000008f8f612675565b90506000876108c3578c6108c7565b6000195b60405163d505accf60e01b81529091506001600160a01b0383169063d505accf90610902903390309086908f908e908e908e90600401613e6c565b600060405180830381600087803b15801561091c57600080fd5b505af1158015610930573d6000803e3d6000fd5b505050506109438f8f8f8f8f8f8f611784565b809450819550505050509b509b9950505050505050505050565b606081428110156109805760405162461bcd60e51b815260040161051690613d68565b6109de7f0000000000000000000000000000000000000000000000000000000000000000898888808060200260200160405190810160405280939291908181526020018383602002808284376000920191909152506124ef92505050565b91508682600184516109f09190613daa565b81518110610a0057610a00613dbd565b60200260200101511015610a265760405162461bcd60e51b815260040161051690613e27565b610a61336106c37f00000000000000000000000000000000000000000000000000000000000000008989600081811061068157610681613dbd565b61082c8287878080602002602001604051908101604052809392919081815260200183836020028082843760009201919091525089925061275e915050565b60608142811015610ac35760405162461bcd60e51b815260040161051690613d68565b6001600160a01b037f0000000000000000000000000000000000000000000000000000000000000000168686610afa600182613daa565b818110610b0957610b09613dbd565b9050602002016020810190610b1e9190613dd3565b6001600160a01b031614610b445760405162461bcd60e51b815260040161051690613df0565b610ba27f000000000000000000000000000000000000000000000000000000000000000089888880806020026020016040519081016040528093929190818152602001838360200280828437600092019190915250612aeb92505050565b91508682600081518110610bb857610bb8613dbd565b602002602001015111156106465760405162461bcd60e51b815260040161051690613ead565b8042811015610bff5760405162461bcd60e51b815260040161051690613d68565b6001600160a01b037f0000000000000000000000000000000000000000000000000000000000000000168585610c36600182613daa565b818110610c4557610c45613dbd565b9050602002016020810190610c5a9190613dd3565b6001600160a01b031614610c805760405162461bcd60e51b815260040161051690613df0565b610cf733610ce37f000000000000000000000000000000000000000000000000000000000000000088886000818110610cbb57610cbb613dbd565b9050602002016020810190610cd09190613dd3565b898960018181106106a9576106a9613dbd565b89888860008181106106f1576106f1613dbd565b610d35858580806020026020016040519081016040528093929190818152602001838360200280828437600092019190915250309250612c67915050565b6040516370a0823160e01b81523060048201526000907f00000000000000000000000000000000000000000000000000000000000000006001600160a01b0316906370a0823190602401602060405180830381865afa158015610d9c573d6000803e3d6000fd5b505050506040513d601f19601f82011682018060405250810190610dc09190613eee565b905086811015610de25760405162461bcd60e51b815260040161051690613e27565b604051632e1a7d4d60e01b8152600481018290527f00000000000000000000000000000000000000000000000000000000000000006001600160a01b031690632e1a7d4d90602401600060405180830381600087803b158015610e4457600080fd5b505af1158015610e58573d6000803e3d6000fd5b50505050610e668482612960565b5050505050505050565b8042811015610e915760405162461bcd60e51b815260040161051690613d68565b610ecc33610ce37f000000000000000000000000000000000000000000000000000000000000000088886000818110610cbb57610cbb613dbd565b60008585610edb600182613daa565b818110610eea57610eea613dbd565b9050602002016020810190610eff9190613dd3565b6040516370a0823160e01b81526001600160a01b03868116600483015291909116906370a0823190602401602060405180830381865afa158015610f47573d6000803e3d6000fd5b505050506040513d601f19601f82011682018060405250810190610f6b9190613eee565b9050610fab868680806020026020016040519081016040528093929190818152602001838360200280828437600092019190915250889250612c67915050565b86818787610fba600182613daa565b818110610fc957610fc9613dbd565b9050602002016020810190610fde9190613dd3565b6040516370a0823160e01b81526001600160a01b03888116600483015291909116906370a08231906024015b602060405180830381865afa158015611027573d6000803e3d6000fd5b505050506040513d601f19601f8201168201806040525081019061104b9190613eee565b6110559190613daa565b1015610e665760405162461bcd60e51b815260040161051690613e27565b606081428110156110965760405162461bcd60e51b815260040161051690613d68565b7f00000000000000000000000000000000000000000000000000000000000000006001600160a01b0316868660008181106110d3576110d3613dbd565b90506020020160208101906110e89190613dd3565b6001600160a01b03161461110e5760405162461bcd60e51b815260040161051690613df0565b61116c7f000000000000000000000000000000000000000000000000000000000000000088888880806020026020016040519081016040528093929190818152602001838360200280828437600092019190915250612aeb92505050565b9150348260008151811061118257611182613dbd565b602002602001015111156111a85760405162461bcd60e51b815260040161051690613ead565b7f00000000000000000000000000000000000000000000000000000000000000006001600160a01b031663d0e30db0836000815181106111ea576111ea613dbd565b60200260200101516040518263ffffffff1660e01b81526004016000604051808303818588803b15801561121d57600080fd5b505af1158015611231573d6000803e3d6000fd5b50505050507f00000000000000000000000000000000000000000000000000000000000000006001600160a01b031663a9059cbb61129c7f00000000000000000000000000000000000000000000000000000000000000008989600081811061068157610681613dbd565b846000815181106112af576112af613dbd565b60200260200101516040518363ffffffff1660e01b81526004016112e89291906001600160a01b03929092168252602082015260400190565b6020604051808303816000875af1158015611307573d6000803e3d6000fd5b505050506040513d601f19601f8201168201806040525081019061132b9190613f07565b6113375761133761380c565b6113768287878080602002602001604051908101604052809392919081815260200183836020028082843760009201919091525089925061275e915050565b8160008151811061138957611389613dbd565b60200260200101513411156113c7576113c733836000815181106113af576113af613dbd565b6020026020010151346113c29190613daa565b612960565b5095945050505050565b6000610844848484612f41565b606081428110156114015760405162461bcd60e51b815260040161051690613d68565b61145f7f000000000000000000000000000000000000000000000000000000000000000089888880806020026020016040519081016040528093929190818152602001838360200280828437600092019190915250612aeb92505050565b9150868260008151811061147557611475613dbd565b60200260200101511115610a265760405162461bcd60e51b815260040161051690613ead565b60008082428110156114bf5760405162461bcd60e51b815260040161051690613d68565b6114ee897f00000000000000000000000000000000000000000000000000000000000000008a8a8a308a611784565b90935091506115076001600160a01b038a16868561302c565b604051632e1a7d4d60e01b8152600481018390527f00000000000000000000000000000000000000000000000000000000000000006001600160a01b031690632e1a7d4d90602401600060405180830381600087803b15801561156957600080fd5b505af115801561157d573d6000803e3d6000fd5b5050505061158b8583612960565b50965096945050505050565b600061084484848461305d565b60008060006115f47f00000000000000000000000000000000000000000000000000000000000000008e7f0000000000000000000000000000000000000000000000000000000000000000612675565b9050600087611603578c611607565b6000195b60405163d505accf60e01b81529091506001600160a01b0383169063d505accf90611642903390309086908f908e908e908e90600401613e6c565b600060405180830381600087803b15801561165c57600080fd5b505af1158015611670573d6000803e3d6000fd5b505050506116828e8e8e8e8e8e61149b565b909f909e509c50505050505050505050505050565b6000806116e57f00000000000000000000000000000000000000000000000000000000000000008d7f0000000000000000000000000000000000000000000000000000000000000000612675565b90506000866116f4578b6116f8565b6000195b60405163d505accf60e01b81529091506001600160a01b0383169063d505accf90611733903390309086908e908d908d908d90600401613e6c565b600060405180830381600087803b15801561174d57600080fd5b505af1158015611761573d6000803e3d6000fd5b505050506117738d8d8d8d8d8d612282565b9d9c50505050505050505050505050565b60008082428110156117a85760405162461bcd60e51b815260040161051690613d68565b60006117d57f00000000000000000000000000000000000000000000000000000000000000008c8c612675565b6040516323b872dd60e01b81523360048201526001600160a01b03821660248201819052604482018c90529192506323b872dd906064016020604051808303816000875af115801561182b573d6000803e3d6000fd5b505050506040513d601f19601f8201168201806040525081019061184f9190613f07565b5060405163226bf2d160e21b81526001600160a01b03878116600483015260009182918416906389afcb449060240160408051808303816000875af115801561189c573d6000803e3d6000fd5b505050506040513d601f19601f820116820180604052508101906118c09190613f24565b9150915060006118d08e8e6130ef565b509050806001600160a01b03168e6001600160a01b0316146118f35781836118f6565b82825b90975095508a87101561194b5760405162461bcd60e51b815260206004820181905260248201527f4d6f65526f757465723a20494e53554646494349454e545f415f414d4f554e546044820152606401610516565b8986101561199b5760405162461bcd60e51b815260206004820181905260248201527f4d6f65526f757465723a20494e53554646494349454e545f425f414d4f554e546044820152606401610516565b505050505097509795505050505050565b606081428110156119cf5760405162461bcd60e51b815260040161051690613d68565b7f00000000000000000000000000000000000000000000000000000000000000006001600160a01b031686866000818110611a0c57611a0c613dbd565b9050602002016020810190611a219190613dd3565b6001600160a01b031614611a475760405162461bcd60e51b815260040161051690613df0565b611aa57f0000000000000000000000000000000000000000000000000000000000000000348888808060200260200160405190810160405280939291908181526020018383602002808284376000920191909152506124ef92505050565b9150868260018451611ab79190613daa565b81518110611ac757611ac7613dbd565b60200260200101511015611aed5760405162461bcd60e51b815260040161051690613e27565b7f00000000000000000000000000000000000000000000000000000000000000006001600160a01b031663d0e30db083600081518110611b2f57611b2f613dbd565b60200260200101516040518263ffffffff1660e01b81526004016000604051808303818588803b158015611b6257600080fd5b505af1158015611b76573d6000803e3d6000fd5b50505050507f00000000000000000000000000000000000000000000000000000000000000006001600160a01b031663a9059cbb611be17f00000000000000000000000000000000000000000000000000000000000000008989600081811061068157610681613dbd565b84600081518110611bf457611bf4613dbd565b60200260200101516040518363ffffffff1660e01b8152600401611c2d9291906001600160a01b03929092168252602082015260400190565b6020604051808303816000875af1158015611c4c573d6000803e3d6000fd5b505050506040513d601f19601f82011682018060405250810190611c709190613f07565b611c7c57611c7c61380c565b6113c78287878080602002602001604051908101604052809392919081815260200183836020028082843760009201919091525089925061275e915050565b60008060008342811015611ce15760405162461bcd60e51b815260040161051690613d68565b611d0f8a7f00000000000000000000000000000000000000000000000000000000000000008b348c8c6131d8565b90945092506000611d617f00000000000000000000000000000000000000000000000000000000000000008c7f0000000000000000000000000000000000000000000000000000000000000000612675565b9050611d786001600160a01b038c163383886126f1565b7f00000000000000000000000000000000000000000000000000000000000000006001600160a01b031663d0e30db0856040518263ffffffff1660e01b81526004016000604051808303818588803b158015611dd357600080fd5b505af1158015611de7573d6000803e3d6000fd5b505060405163a9059cbb60e01b81526001600160a01b038581166004830152602482018990527f000000000000000000000000000000000000000000000000000000000000000016935063a9059cbb925060440190506020604051808303816000875af1158015611e5c573d6000803e3d6000fd5b505050506040513d601f19601f82011682018060405250810190611e809190613f07565b611e8c57611e8c61380c565b6040516335313c2160e11b81526001600160a01b038881166004830152821690636a627842906024016020604051808303816000875af1158015611ed4573d6000803e3d6000fd5b505050506040513d601f19601f82011682018060405250810190611ef89190613eee565b925083341115611f1057611f10336113c28634613daa565b505096509650969350505050565b8042811015611f3f5760405162461bcd60e51b815260040161051690613d68565b7f00000000000000000000000000000000000000000000000000000000000000006001600160a01b031685856000818110611f7c57611f7c613dbd565b9050602002016020810190611f919190613dd3565b6001600160a01b031614611fb75760405162461bcd60e51b815260040161051690613df0565b60003490507f00000000000000000000000000000000000000000000000000000000000000006001600160a01b031663d0e30db0826040518263ffffffff1660e01b81526004016000604051808303818588803b15801561201757600080fd5b505af115801561202b573d6000803e3d6000fd5b50505050507f00000000000000000000000000000000000000000000000000000000000000006001600160a01b031663a9059cbb6120967f00000000000000000000000000000000000000000000000000000000000000008989600081811061068157610681613dbd565b6040516001600160e01b031960e084901b1681526001600160a01b039091166004820152602481018490526044016020604051808303816000875af11580156120e3573d6000803e3d6000fd5b505050506040513d601f19601f820116820180604052508101906121079190613f07565b6121135761211361380c565b60008686612122600182613daa565b81811061213157612131613dbd565b90506020020160208101906121469190613dd3565b6040516370a0823160e01b81526001600160a01b03878116600483015291909116906370a0823190602401602060405180830381865afa15801561218e573d6000803e3d6000fd5b505050506040513d601f19601f820116820180604052508101906121b29190613eee565b90506121f2878780806020026020016040519081016040528093929190818152602001838360200280828437600092019190915250899250612c67915050565b87818888612201600182613daa565b81811061221057612210613dbd565b90506020020160208101906122259190613dd3565b6040516370a0823160e01b81526001600160a01b03898116600483015291909116906370a082319060240161100a565b606061087b7f000000000000000000000000000000000000000000000000000000000000000084846124ef565b600081428110156122a55760405162461bcd60e51b815260040161051690613d68565b6122d4887f00000000000000000000000000000000000000000000000000000000000000008989893089611784565b6040516370a0823160e01b8152306004820152909350612357915085906001600160a01b038b16906370a0823190602401602060405180830381865afa158015612322573d6000803e3d6000fd5b505050506040513d601f19601f820116820180604052508101906123469190613eee565b6001600160a01b038b16919061302c565b604051632e1a7d4d60e01b8152600481018390527f00000000000000000000000000000000000000000000000000000000000000006001600160a01b031690632e1a7d4d90602401600060405180830381600087803b1580156123b957600080fd5b505af11580156123cd573d6000803e3d6000fd5b5050505061082c8483612960565b600080600083428110156124015760405162461bcd60e51b815260040161051690613d68565b8b8b61241182828e8e8e8e6131d8565b909650945060006124437f00000000000000000000000000000000000000000000000000000000000000008484612675565b905061245a6001600160a01b03841633838a6126f1565b61246f6001600160a01b0383163383896126f1565b6040516335313c2160e11b81526001600160a01b038a81166004830152821690636a627842906024016020604051808303816000875af11580156124b7573d6000803e3d6000fd5b505050506040513d601f19601f820116820180604052508101906124db9190613eee565b945050505050985098509895505050505050565b606060028251101561253e5760405162461bcd60e51b815260206004820152601860248201527709adeca98d2c4e4c2e4f27440929cac82989288bea082a8960431b6044820152606401610516565b815167ffffffffffffffff8111156125585761255861396f565b604051908082528060200260200182016040528015612581578160200160208202803683370190505b509050828160008151811061259857612598613dbd565b60200260200101818152505060005b600183516125b59190613daa565b81101561266d57600080612608878685815181106125d5576125d5613dbd565b6020026020010151878660016125eb9190613f48565b815181106125fb576125fb613dbd565b602002602001015161345c565b9150915061263084848151811061262157612621613dbd565b60200260200101518383612a12565b8461263c856001613f48565b8151811061264c5761264c613dbd565b6020026020010181815250505050808061266590613f5b565b9150506125a7565b509392505050565b600080846001600160a01b0316635c60da1b6040518163ffffffff1660e01b8152600401602060405180830381865afa1580156126b6573d6000803e3d6000fd5b505050506040513d601f19601f820116820180604052508101906126da9190613f74565b90506126e885828686613526565b95945050505050565b6040516001600160a01b0384811660248301528381166044830152606482018390526127589186918216906323b872dd906084015b604051602081830303815290604052915060e01b6020820180516001600160e01b038381831617835250505050613599565b50505050565b60005b6001835161276f9190613daa565b8110156127585760008084838151811061278b5761278b613dbd565b6020026020010151858460016127a19190613f48565b815181106127b1576127b1613dbd565b60200260200101519150915060006127c983836130ef565b5090506000876127da866001613f48565b815181106127ea576127ea613dbd565b60200260200101519050600080836001600160a01b0316866001600160a01b0316146128185782600061281c565b6000835b91509150600060028a516128309190613daa565b881061283c578861288a565b61288a7f0000000000000000000000000000000000000000000000000000000000000000878c61286d8c6002613f48565b8151811061287d5761287d613dbd565b6020026020010151612675565b90506128b77f00000000000000000000000000000000000000000000000000000000000000008888612675565b6001600160a01b031663022c0d9f84848460006040519080825280601f01601f1916602001820160405280156128f4576020820181803683370190505b506040518563ffffffff1660e01b81526004016129149493929190613fb5565b600060405180830381600087803b15801561292e57600080fd5b505af1158015612942573d6000803e3d6000fd5b5050505050505050505050808061295890613f5b565b915050612761565b6000826001600160a01b03168260405160006040518083038185875af1925050503d80600081146129ad576040519150601f19603f3d011682016040523d82523d6000602084013e6129b2565b606091505b5050905080612a0d5760405162461bcd60e51b815260206004820152602160248201527f4d6f65526f757465723a204e41544956455f5452414e534645525f4641494c456044820152601160fa1b6064820152608401610516565b505050565b6000808411612a715760405162461bcd60e51b815260206004820152602560248201527f4d6f654c6962726172793a20494e53554646494349454e545f494e5055545f416044820152641353d5539560da1b6064820152608401610516565b600083118015612a815750600082115b612a9d5760405162461bcd60e51b815260040161051690614005565b6000612aab856103e5614047565b90506000612ab98483614047565b9050600082612aca876103e8614047565b612ad49190613f48565b9050612ae0818361405e565b979650505050505050565b6060600282511015612b3a5760405162461bcd60e51b815260206004820152601860248201527709adeca98d2c4e4c2e4f27440929cac82989288bea082a8960431b6044820152606401610516565b815167ffffffffffffffff811115612b5457612b5461396f565b604051908082528060200260200182016040528015612b7d578160200160208202803683370190505b509050828160018351612b909190613daa565b81518110612ba057612ba0613dbd565b602002602001018181525050600060018351612bbc9190613daa565b90505b801561266d57600080612c028786612bd8600187613daa565b81518110612be857612be8613dbd565b60200260200101518786815181106125fb576125fb613dbd565b91509150612c2a848481518110612c1b57612c1b613dbd565b60200260200101518383612f41565b84612c36600186613daa565b81518110612c4657612c46613dbd565b60200260200101818152505050508080612c5f90614080565b915050612bbf565b60005b60018351612c789190613daa565b811015612a0d57600080848381518110612c9457612c94613dbd565b602002602001015185846001612caa9190613f48565b81518110612cba57612cba613dbd565b6020026020010151915091506000612cd283836130ef565b5090506000612d027f00000000000000000000000000000000000000000000000000000000000000008585612675565b9050600080600080846001600160a01b0316630902f1ac6040518163ffffffff1660e01b8152600401606060405180830381865afa158015612d48573d6000803e3d6000fd5b505050506040513d601f19601f82011682018060405250810190612d6c91906140ae565b506001600160701b031691506001600160701b03169150600080876001600160a01b03168a6001600160a01b031614612da6578284612da9565b83835b6040516370a0823160e01b81526001600160a01b038a8116600483015292945090925083918c16906370a0823190602401602060405180830381865afa158015612df7573d6000803e3d6000fd5b505050506040513d601f19601f82011682018060405250810190612e1b9190613eee565b612e259190613daa565b9550612e32868383612a12565b945050505050600080856001600160a01b0316886001600160a01b031614612e5c57826000612e60565b6000835b91509150600060028c51612e749190613daa565b8a10612e80578a612eb1565b612eb17f0000000000000000000000000000000000000000000000000000000000000000898e61286d8e6002613f48565b6040805160008152602081019182905263022c0d9f60e01b9091529091506001600160a01b0387169063022c0d9f90612ef39086908690869060248101613fb5565b600060405180830381600087803b158015612f0d57600080fd5b505af1158015612f21573d6000803e3d6000fd5b505050505050505050505050508080612f3990613f5b565b915050612c6a565b6000808411612fa15760405162461bcd60e51b815260206004820152602660248201527f4d6f654c6962726172793a20494e53554646494349454e545f4f55545055545f604482015265105353d5539560d21b6064820152608401610516565b600083118015612fb15750600082115b612fcd5760405162461bcd60e51b815260040161051690614005565b6000612fd98585614047565b612fe5906103e8614047565b90506000612ff38685613daa565b612fff906103e5614047565b90508061300d600184613daa565b613017919061405e565b613022906001613f48565b9695505050505050565b6040516001600160a01b03838116602483015260448201839052612a0d91859182169063a9059cbb90606401612726565b60008084116130ae5760405162461bcd60e51b815260206004820152601f60248201527f4d6f654c6962726172793a20494e53554646494349454e545f414d4f554e54006044820152606401610516565b6000831180156130be5750600082115b6130da5760405162461bcd60e51b815260040161051690614005565b826130e58386614047565b610844919061405e565b600080826001600160a01b0316846001600160a01b0316036131535760405162461bcd60e51b815260206004820152601f60248201527f4d6f654c6962726172793a204944454e544943414c5f414444524553534553006044820152606401610516565b826001600160a01b0316846001600160a01b031610613173578284613176565b83835b90925090506001600160a01b0382166131d15760405162461bcd60e51b815260206004820152601860248201527f4d6f654c6962726172793a205a45524f5f4144445245535300000000000000006044820152606401610516565b9250929050565b60405163e6a4390560e01b81526001600160a01b0387811660048301528681166024830152600091829182917f00000000000000000000000000000000000000000000000000000000000000009091169063e6a4390590604401602060405180830381865afa15801561324f573d6000803e3d6000fd5b505050506040513d601f19601f820116820180604052508101906132739190613f74565b6001600160a01b031603613317576040516364e329cb60e11b81526001600160a01b03898116600483015288811660248301527f0000000000000000000000000000000000000000000000000000000000000000169063c9c65396906044016020604051808303816000875af11580156132f1573d6000803e3d6000fd5b505050506040513d601f19601f820116820180604052508101906133159190613f74565b505b6000806133457f00000000000000000000000000000000000000000000000000000000000000008b8b61345c565b91509150816000148015613357575080155b156133675787935086925061344f565b600061337489848461305d565b90508781116133d857858110156133cd5760405162461bcd60e51b815260206004820181905260248201527f4d6f65526f757465723a20494e53554646494349454e545f425f414d4f554e546044820152606401610516565b88945092508261344d565b60006133e589848661305d565b9050898111156133f7576133f761380c565b878110156134475760405162461bcd60e51b815260206004820181905260248201527f4d6f65526f757465723a20494e53554646494349454e545f415f414d4f554e546044820152606401610516565b94508793505b505b5050965096945050505050565b600080600061346b85856130ef565b50905060008061347c888888612675565b6001600160a01b0316630902f1ac6040518163ffffffff1660e01b8152600401606060405180830381865afa1580156134b9573d6000803e3d6000fd5b505050506040513d601f19601f820116820180604052508101906134dd91906140ae565b506001600160701b031691506001600160701b03169150826001600160a01b0316876001600160a01b031614613514578082613517565b81815b90999098509650505050505050565b600080600061353585856130ef565b6040516bffffffffffffffffffffffff19606084811b8216602084015283901b166034820152919350915060009060480160408051601f198184030181529190528051602082012090915061358c8883838c6135fc565b9998505050505050505050565b60006135ae6001600160a01b03841683613616565b905080516000141580156135d35750808060200190518101906135d19190613f07565b155b15612a0d57604051635274afe760e01b81526001600160a01b0384166004820152602401610516565b6000806136098686613624565b90506130228185856136cd565b606061087b838360006136f6565b600060408203516020830351835180602086010180516002830161ffca8111156136565763c8c781396000526004601cfd5b6c5af43d3d93803e603357fd5bf38852600c198801989098526035880160d81b604889901b177d6100003d81600a3d39f3363d3d373d3d3d3d610000806035363936013d731760201988015260f088901b8252603f909701601e198701209690528452601f19840152603f19909201919091525090565b600060355160ff600053603594855260609290921b600152506015919091526055600020915290565b60608147101561371b5760405163cd78605960e01b8152306004820152602401610516565b600080856001600160a01b0316848660405161373791906140fe565b60006040518083038185875af1925050503d8060008114613774576040519150601f19603f3d011682016040523d82523d6000602084013e613779565b606091505b509150915061302286838360608261379957613794826137e0565b610847565b81511580156137b057506001600160a01b0384163b155b156137d957604051639996b31560e01b81526001600160a01b0385166004820152602401610516565b5080610847565b8051156137f05780518082602001fd5b604051630a12f52160e11b815260040160405180910390fd5b50565b634e487b7160e01b600052600160045260246000fd5b60008083601f84011261383457600080fd5b50813567ffffffffffffffff81111561384c57600080fd5b6020830191508360208260051b85010111156131d157600080fd5b6001600160a01b038116811461380957600080fd5b803561388781613867565b919050565b60008060008060008060a087890312156138a557600080fd5b8635955060208701359450604087013567ffffffffffffffff8111156138ca57600080fd5b6138d689828a01613822565b90955093505060608701356138ea81613867565b80925050608087013590509295509295509295565b6020808252825182820181905260009190848201906040850190845b818110156139375783518352928401929184019160010161391b565b50909695505050505050565b60008060006060848603121561395857600080fd5b505081359360208301359350604090920135919050565b634e487b7160e01b600052604160045260246000fd5b6000806040838503121561399857600080fd5b8235915060208084013567ffffffffffffffff808211156139b857600080fd5b818601915086601f8301126139cc57600080fd5b8135818111156139de576139de61396f565b8060051b604051601f19603f83011681018181108582111715613a0357613a0361396f565b604052918252848201925083810185019189831115613a2157600080fd5b938501935b82851015613a4657613a378561387c565b84529385019392850192613a26565b8096505050505050509250929050565b801515811461380957600080fd5b803560ff8116811461388757600080fd5b60008060008060008060008060008060006101608c8e031215613a9757600080fd5b8b35613aa281613867565b9a5060208c0135613ab281613867565b995060408c0135985060608c0135975060808c0135965060a08c0135613ad781613867565b955060c08c0135945060e08c0135613aee81613a56565b9350613afd6101008d01613a64565b92506101208c013591506101408c013590509295989b509295989b9093969950565b600080600080600060808688031215613b3757600080fd5b85359450602086013567ffffffffffffffff811115613b5557600080fd5b613b6188828901613822565b9095509350506040860135613b7581613867565b949793965091946060013592915050565b60008060008060008060c08789031215613b9f57600080fd5b8635613baa81613867565b95506020870135945060408701359350606087013592506080870135613bcf81613867565b8092505060a087013590509295509295509295565b6000806000806000806000806000806101408b8d031215613c0457600080fd5b8a35613c0f81613867565b995060208b0135985060408b0135975060608b0135965060808b0135613c3481613867565b955060a08b0135945060c08b0135613c4b81613a56565b9350613c5960e08c01613a64565b92506101008b013591506101208b013590509295989b9194979a5092959850565b600080600080600080600060e0888a031215613c9557600080fd5b8735613ca081613867565b96506020880135613cb081613867565b955060408801359450606088013593506080880135925060a0880135613cd581613867565b8092505060c0880135905092959891949750929550565b600080600080600080600080610100898b031215613d0957600080fd5b8835613d1481613867565b97506020890135613d2481613867565b965060408901359550606089013594506080890135935060a0890135925060c0890135613d5081613867565b8092505060e089013590509295985092959890939650565b602080825260129082015271135bd9549bdd5d195c8e881156141254915160721b604082015260600190565b634e487b7160e01b600052601160045260246000fd5b8181038181111561087e5761087e613d94565b634e487b7160e01b600052603260045260246000fd5b600060208284031215613de557600080fd5b813561084781613867565b60208082526017908201527f4d6f65526f757465723a20494e56414c49445f50415448000000000000000000604082015260600190565b60208082526025908201527f4d6f65526f757465723a20494e53554646494349454e545f4f55545055545f416040820152641353d5539560da1b606082015260800190565b6001600160a01b0397881681529590961660208601526040850193909352606084019190915260ff16608083015260a082015260c081019190915260e00190565b60208082526021908201527f4d6f65526f757465723a204558434553534956455f494e5055545f414d4f554e6040820152601560fa1b606082015260800190565b600060208284031215613f0057600080fd5b5051919050565b600060208284031215613f1957600080fd5b815161084781613a56565b60008060408385031215613f3757600080fd5b505080516020909101519092909150565b8082018082111561087e5761087e613d94565b600060018201613f6d57613f6d613d94565b5060010190565b600060208284031215613f8657600080fd5b815161084781613867565b60005b83811015613fac578181015183820152602001613f94565b50506000910152565b84815283602082015260018060a01b03831660408201526080606082015260008251806080840152613fee8160a0850160208701613f91565b601f01601f19169190910160a00195945050505050565b60208082526022908201527f4d6f654c6962726172793a20494e53554646494349454e545f4c495155494449604082015261545960f01b606082015260800190565b808202811582820484141761087e5761087e613d94565b60008261407b57634e487b7160e01b600052601260045260246000fd5b500490565b60008161408f5761408f613d94565b506000190190565b80516001600160701b038116811461388757600080fd5b6000806000606084860312156140c357600080fd5b6140cc84614097565b92506140da60208501614097565b9150604084015163ffffffff811681146140f357600080fd5b809150509250925092565b60008251614110818460208701613f91565b919091019291505056fea2646970667358221220bd5b600a260e243166f0d4361ccc97c2d68aa6213692fd4819f9ce5540fe1c6664736f6c63430008140033",
    "linkReferences": {}
  },
  "methodIdentifiers": {
    "addLiquidity(address,address,uint256,uint256,uint256,uint256,address,uint256)": "e8e33700",
    "addLiquidityNative(address,uint256,uint256,uint256,address,uint256)": "c9e164e3",
    "factory()": "c45a0155",
    "getAmountIn(uint256,uint256,uint256)": "85f8c259",
    "getAmountOut(uint256,uint256,uint256)": "054d50d4",
    "getAmountsIn(uint256,address[])": "1f00ca74",
    "getAmountsOut(uint256,address[])": "d06ca61f",
    "quote(uint256,uint256,uint256)": "ad615dec",
    "removeLiquidity(address,address,uint256,uint256,uint256,address,uint256)": "baa2abde",
    "removeLiquidityNative(address,uint256,uint256,uint256,address,uint256)": "a96605e8",
    "removeLiquidityNativeSupportingFeeOnTransferTokens(address,uint256,uint256,uint256,address,uint256)": "d638d856",
    "removeLiquidityNativeWithPermit(address,uint256,uint256,uint256,address,uint256,bool,uint8,bytes32,bytes32)": "b47c632e",
    "removeLiquidityNativeWithPermitSupportingFeeOnTransferTokens(address,uint256,uint256,uint256,address,uint256,bool,uint8,bytes32,bytes32)": "b7de50b4",
    "removeLiquidityWithPermit(address,address,uint256,uint256,uint256,address,uint256,bool,uint8,bytes32,bytes32)": "2195995c",
    "swapExactNativeForTokens(uint256,address[],address,uint256)": "c075a591",
    "swapExactNativeForTokensSupportingFeeOnTransferTokens(uint256,address[],address,uint256)": "cbacf4e4",
    "swapExactTokensForNative(uint256,uint256,address[],address,uint256)": "029e384f",
    "swapExactTokensForNativeSupportingFeeOnTransferTokens(uint256,uint256,address[],address,uint256)": "56400497",
    "swapExactTokensForTokens(uint256,uint256,address[],address,uint256)": "38ed1739",
    "swapExactTokensForTokensSupportingFeeOnTransferTokens(uint256,uint256,address[],address,uint256)": "5c11d795",
    "swapNativeForExactTokens(uint256,address[],address,uint256)": "800a758a",
    "swapTokensForExactNative(uint256,uint256,address[],address,uint256)": "4436f4fd",
    "swapTokensForExactTokens(uint256,uint256,address[],address,uint256)": "8803dbee",
    "wNative()": "2d68efc9"
  },
  "id": 70
}