{
  "abi": [
    {
      "inputs": [
        {
          "internalType": "address",
          "name": "_factory",
          "type": "address"
        },
        {
          "internalType": "address",
          "name": "_wNative",
          "type": "address"
        }
      ],
      "stateMutability": "nonpayable",
      "type": "constructor"
    },
    {
      "inputs": [
        {
          "internalType": "address",
          "name": "target",
          "type": "address"
        }
      ],
      "name": "AddressEmptyCode",
      "type": "error"
    },
    {
      "inputs": [
        {
          "internalType": "address",
          "name": "account",
          "type": "address"
        }
      ],
      "name": "AddressInsufficientBalance",
      "type": "error"
    },
    {
      "inputs": [],
      "name": "FailedInnerCall",
      "type": "error"
    },
    {
      "inputs": [
        {
          "internalType": "address",
          "name": "token",
          "type": "address"
        }
      ],
      "name": "SafeERC20FailedOperation",
      "type": "error"
    },
    {
      "inputs": [
        {
          "internalType": "address",
          "name": "tokenA",
          "type": "address"
        },
        {
          "internalType": "address",
          "name": "tokenB",
          "type": "address"
        },
        {
          "internalType": "uint256",
          "name": "amountADesired",
          "type": "uint256"
        },
        {
          "internalType": "uint256",
          "name": "amountBDesired",
          "type": "uint256"
        },
        {
          "internalType": "uint256",
          "name": "amountAMin",
          "type": "uint256"
        },
        {
          "internalType": "uint256",
          "name": "amountBMin",
          "type": "uint256"
        },
        {
          "internalType": "address",
          "name": "to",
          "type": "address"
        },
        {
          "internalType": "uint256",
          "name": "deadline",
          "type": "uint256"
        }
      ],
      "name": "addLiquidity",
      "outputs": [
        {
          "internalType": "uint256",
          "name": "amountA",
          "type": "uint256"
        },
        {
          "internalType": "uint256",
          "name": "amountB",
          "type": "uint256"
        },
        {
          "internalType": "uint256",
          "name": "liquidity",
          "type": "uint256"
        }
      ],
      "stateMutability": "nonpayable",
      "type": "function"
    },
    {
      "inputs": [
        {
          "internalType": "address",
          "name": "token",
          "type": "address"
        },
        {
          "internalType": "uint256",
          "name": "amountTokenDesired",
          "type": "uint256"
        },
        {
          "internalType": "uint256",
          "name": "amountTokenMin",
          "type": "uint256"
        },
        {
          "internalType": "uint256",
          "name": "amountNativeMin",
          "type": "uint256"
        },
        {
          "internalType": "address",
          "name": "to",
          "type": "address"
        },
        {
          "internalType": "uint256",
          "name": "deadline",
          "type": "uint256"
        }
      ],
      "name": "addLiquidityNative",
      "outputs": [
        {
          "internalType": "uint256",
          "name": "amountToken",
          "type": "uint256"
        },
        {
          "internalType": "uint256",
          "name": "amountNative",
          "type": "uint256"
        },
        {
          "internalType": "uint256",
          "name": "liquidity",
          "type": "uint256"
        }
      ],
      "stateMutability": "payable",
      "type": "function"
    },
    {
      "inputs": [],
      "name": "factory",
      "outputs": [
        {
          "internalType": "address",
          "name": "",
          "type": "address"
        }
      ],
      "stateMutability": "view",
      "type": "function"
    },
    {
      "inputs": [
        {
          "internalType": "uint256",
          "name": "amountOut",
          "type": "uint256"
        },
        {
          "internalType": "uint256",
          "name": "reserveIn",
          "type": "uint256"
        },
        {
          "internalType": "uint256",
          "name": "reserveOut",
          "type": "uint256"
        }
      ],
      "name": "getAmountIn",
      "outputs": [
        {
          "internalType": "uint256",
          "name": "amountIn",
          "type": "uint256"
        }
      ],
      "stateMutability": "pure",
      "type": "function"
    },
    {
      "inputs": [
        {
          "internalType": "uint256",
          "name": "amountIn",
          "type": "uint256"
        },
        {
          "internalType": "uint256",
          "name": "reserveIn",
          "type": "uint256"
        },
        {
          "internalType": "uint256",
          "name": "reserveOut",
          "type": "uint256"
        }
      ],
      "name": "getAmountOut",
      "outputs": [
        {
          "internalType": "uint256",
          "name": "amountOut",
          "type": "uint256"
        }
      ],
      "stateMutability": "pure",
      "type": "function"
    },
    {
      "inputs": [
        {
          "internalType": "uint256",
          "name": "amountOut",
          "type": "uint256"
        },
        {
          "internalType": "address[]",
          "name": "path",
          "type": "address[]"
        }
      ],
      "name": "getAmountsIn",
      "outputs": [
        {
          "internalType": "uint256[]",
          "name": "amounts",
          "type": "uint256[]"
        }
      ],
      "stateMutability": "view",
      "type": "function"
    },
    {
      "inputs": [
        {
          "internalType": "uint256",
          "name": "amountIn",
          "type": "uint256"
        },
        {
          "internalType": "address[]",
          "name": "path",
          "type": "address[]"
        }
      ],
      "name": "getAmountsOut",
      "outputs": [
        {
          "internalType": "uint256[]",
          "name": "amounts",
          "type": "uint256[]"
        }
      ],
      "stateMutability": "view",
      "type": "function"
    },
    {
      "inputs": [
        {
          "internalType": "uint256",
          "name": "amountA",
          "type": "uint256"
        },
        {
          "internalType": "uint256",
          "name": "reserveA",
          "type": "uint256"
        },
        {
          "internalType": "uint256",
          "name": "reserveB",
          "type": "uint256"
        }
      ],
      "name": "quote",
      "outputs": [
        {
          "internalType": "uint256",
          "name": "amountB",
          "type": "uint256"
        }
      ],
      "stateMutability": "pure",
      "type": "function"
    },
    {
      "inputs": [
        {
          "internalType": "address",
          "name": "tokenA",
          "type": "address"
        },
        {
          "internalType": "address",
          "name": "tokenB",
          "type": "address"
        },
        {
          "internalType": "uint256",
          "name": "liquidity",
          "type": "uint256"
        },
        {
          "internalType": "uint256",
          "name": "amountAMin",
          "type": "uint256"
        },
        {
          "internalType": "uint256",
          "name": "amountBMin",
          "type": "uint256"
        },
        {
          "internalType": "address",
          "name": "to",
          "type": "address"
        },
        {
          "internalType": "uint256",
          "name": "deadline",
          "type": "uint256"
        }
      ],
      "name": "removeLiquidity",
      "outputs": [
        {
          "internalType": "uint256",
          "name": "amountA",
          "type": "uint256"
        },
        {
          "internalType": "uint256",
          "name": "amountB",
          "type": "uint256"
        }
      ],
      "stateMutability": "nonpayable",
      "type": "function"
    },
    {
      "inputs": [
        {
          "internalType": "address",
          "name": "token",
          "type": "address"
        },
        {
          "internalType": "uint256",
          "name": "liquidity",
          "type": "uint256"
        },
        {
          "internalType": "uint256",
          "name": "amountTokenMin",
          "type": "uint256"
        },
        {
          "internalType": "uint256",
          "name": "amountNativeMin",
          "type": "uint256"
        },
        {
          "internalType": "address",
          "name": "to",
          "type": "address"
        },
        {
          "internalType": "uint256",
          "name": "deadline",
          "type": "uint256"
        }
      ],
      "name": "removeLiquidityNative",
      "outputs": [
        {
          "internalType": "uint256",
          "name": "amountToken",
          "type": "uint256"
        },
        {
          "internalType": "uint256",
          "name": "amountNative",
          "type": "uint256"
        }
      ],
      "stateMutability": "nonpayable",
      "type": "function"
    },
    {
      "inputs": [
        {
          "internalType": "address",
          "name": "token",
          "type": "address"
        },
        {
          "internalType": "uint256",
          "name": "liquidity",
          "type": "uint256"
        },
        {
          "internalType": "uint256",
          "name": "amountTokenMin",
          "type": "uint256"
        },
        {
          "internalType": "uint256",
          "name": "amountNativeMin",
          "type": "uint256"
        },
        {
          "internalType": "address",
          "name": "to",
          "type": "address"
        },
        {
          "internalType": "uint256",
          "name": "deadline",
          "type": "uint256"
        }
      ],
      "name": "removeLiquidityNativeSupportingFeeOnTransferTokens",
      "outputs": [
        {
          "internalType": "uint256",
          "name": "amountNative",
          "type": "uint256"
        }
      ],
      "stateMutability": "nonpayable",
      "type": "function"
    },
    {
      "inputs": [
        {
          "internalType": "address",
          "name": "token",
          "type": "address"
        },
        {
          "internalType": "uint256",
          "name": "liquidity",
          "type": "uint256"
        },
        {
          "internalType": "uint256",
          "name": "amountTokenMin",
          "type": "uint256"
        },
        {
          "internalType": "uint256",
          "name": "amountNativeMin",
          "type": "uint256"
        },
        {
          "internalType": "address",
          "name": "to",
          "type": "address"
        },
        {
          "internalType": "uint256",
          "name": "deadline",
          "type": "uint256"
        },
        {
          "internalType": "bool",
          "name": "approveMax",
          "type": "bool"
        },
        {
          "internalType": "uint8",
          "name": "v",
          "type": "uint8"
        },
        {
          "internalType": "bytes32",
          "name": "r",
          "type": "bytes32"
        },
        {
          "internalType": "bytes32",
          "name": "s",
          "type": "bytes32"
        }
      ],
      "name": "removeLiquidityNativeWithPermit",
      "outputs": [
        {
          "internalType": "uint256",
          "name": "amountToken",
          "type": "uint256"
        },
        {
          "internalType": "uint256",
          "name": "amountNative",
          "type": "uint256"
        }
      ],
      "stateMutability": "nonpayable",
      "type": "function"
    },
    {
      "inputs": [
        {
          "internalType": "address",
          "name": "token",
          "type": "address"
        },
        {
          "internalType": "uint256",
          "name": "liquidity",
          "type": "uint256"
        },
        {
          "internalType": "uint256",
          "name": "amountTokenMin",
          "type": "uint256"
        },
        {
          "internalType": "uint256",
          "name": "amountNativeMin",
          "type": "uint256"
        },
        {
          "internalType": "address",
          "name": "to",
          "type": "address"
        },
        {
          "internalType": "uint256",
          "name": "deadline",
          "type": "uint256"
        },
        {
          "internalType": "bool",
          "name": "approveMax",
          "type": "bool"
        },
        {
          "internalType": "uint8",
          "name": "v",
          "type": "uint8"
        },
        {
          "internalType": "bytes32",
          "name": "r",
          "type": "bytes32"
        },
        {
          "internalType": "bytes32",
          "name": "s",
          "type": "bytes32"
        }
      ],
      "name": "removeLiquidityNativeWithPermitSupportingFeeOnTransferTokens",
      "outputs": [
        {
          "internalType": "uint256",
          "name": "amountNative",
          "type": "uint256"
        }
      ],
      "stateMutability": "nonpayable",
      "type": "function"
    },
    {
      "inputs": [
        {
          "internalType": "address",
          "name": "tokenA",
          "type": "address"
        },
        {
          "internalType": "address",
          "name": "tokenB",
          "type": "address"
        },
        {
          "internalType": "uint256",
          "name": "liquidity",
          "type": "uint256"
        },
        {
          "internalType": "uint256",
          "name": "amountAMin",
          "type": "uint256"
        },
        {
          "internalType": "uint256",
          "name": "amountBMin",
          "type": "uint256"
        },
        {
          "internalType": "address",
          "name": "to",
          "type": "address"
        },
        {
          "internalType": "uint256",
          "name": "deadline",
          "type": "uint256"
        },
        {
          "internalType": "bool",
          "name": "approveMax",
          "type": "bool"
        },
        {
          "internalType": "uint8",
          "name": "v",
          "type": "uint8"
        },
        {
          "internalType": "bytes32",
          "name": "r",
          "type": "bytes32"
        },
        {
          "internalType": "bytes32",
          "name": "s",
          "type": "bytes32"
        }
      ],
      "name": "removeLiquidityWithPermit",
      "outputs": [
        {
          "internalType": "uint256",
          "name": "amountA",
          "type": "uint256"
        },
        {
          "internalType": "uint256",
          "name": "amountB",
          "type": "uint256"
        }
      ],
      "stateMutability": "nonpayable",
      "type": "function"
    },
    {
      "inputs": [
        {
          "internalType": "uint256",
          "name": "amountOutMin",
          "type": "uint256"
        },
        {
          "internalType": "address[]",
          "name": "path",
          "type": "address[]"
        },
        {
          "internalType": "address",
          "name": "to",
          "type": "address"
        },
        {
          "internalType": "uint256",
          "name": "deadline",
          "type": "uint256"
        }
      ],
      "name": "swapExactNativeForTokens",
      "outputs": [
        {
          "internalType": "uint256[]",
          "name": "amounts",
          "type": "uint256[]"
        }
      ],
      "stateMutability": "payable",
      "type": "function"
    },
    {
      "inputs": [
        {
          "internalType": "uint256",
          "name": "amountOutMin",
          "type": "uint256"
        },
        {
          "internalType": "address[]",
          "name": "path",
          "type": "address[]"
        },
        {
          "internalType": "address",
          "name": "to",
          "type": "address"
        },
        {
          "internalType": "uint256",
          "name": "deadline",
          "type": "uint256"
        }
      ],
      "name": "swapExactNativeForTokensSupportingFeeOnTransferTokens",
      "outputs": [],
      "stateMutability": "payable",
      "type": "function"
    },
    {
      "inputs": [
        {
          "internalType": "uint256",
          "name": "amountIn",
          "type": "uint256"
        },
        {
          "internalType": "uint256",
          "name": "amountOutMin",
          "type": "uint256"
        },
        {
          "internalType": "address[]",
          "name": "path",
          "type": "address[]"
        },
        {
          "internalType": "address",
          "name": "to",
          "type": "address"
        },
        {
          "internalType": "uint256",
          "name": "deadline",
          "type": "uint256"
        }
      ],
      "name": "swapExactTokensForNative",
      "outputs": [
        {
          "internalType": "uint256[]",
          "name": "amounts",
          "type": "uint256[]"
        }
      ],
      "stateMutability": "nonpayable",
      "type": "function"
    },
    {
      "inputs": [
        {
          "internalType": "uint256",
          "name": "amountIn",
          "type": "uint256"
        },
        {
          "internalType": "uint256",
          "name": "amountOutMin",
          "type": "uint256"
        },
        {
          "internalType": "address[]",
          "name": "path",
          "type": "address[]"
        },
        {
          "internalType": "address",
          "name": "to",
          "type": "address"
        },
        {
          "internalType": "uint256",
          "name": "deadline",
          "type": "uint256"
        }
      ],
      "name": "swapExactTokensForNativeSupportingFeeOnTransferTokens",
      "outputs": [],
      "stateMutability": "nonpayable",
      "type": "function"
    },
    {
      "inputs": [
        {
          "internalType": "uint256",
          "name": "amountIn",
          "type": "uint256"
        },
        {
          "internalType": "uint256",
          "name": "amountOutMin",
          "type": "uint256"
        },
        {
          "internalType": "address[]",
          "name": "path",
          "type": "address[]"
        },
        {
          "internalType": "address",
          "name": "to",
          "type": "address"
        },
        {
          "internalType": "uint256",
          "name": "deadline",
          "type": "uint256"
        }
      ],
      "name": "swapExactTokensForTokens",
      "outputs": [
        {
          "internalType": "uint256[]",
          "name": "amounts",
          "type": "uint256[]"
        }
      ],
      "stateMutability": "nonpayable",
      "type": "function"
    },
    {
      "inputs": [
        {
          "internalType": "uint256",
          "name": "amountIn",
          "type": "uint256"
        },
        {
          "internalType": "uint256",
          "name": "amountOutMin",
          "type": "uint256"
        },
        {
          "internalType": "address[]",
          "name": "path",
          "type": "address[]"
        },
        {
          "internalType": "address",
          "name": "to",
          "type": "address"
        },
        {
          "internalType": "uint256",
          "name": "deadline",
          "type": "uint256"
        }
      ],
      "name": "swapExactTokensForTokensSupportingFeeOnTransferTokens",
      "outputs": [],
      "stateMutability": "nonpayable",
      "type": "function"
    },
    {
      "inputs": [
        {
          "internalType": "uint256",
          "name": "amountOut",
          "type": "uint256"
        },
        {
          "internalType": "address[]",
          "name": "path",
          "type": "address[]"
        },
        {
          "internalType": "address",
          "name": "to",
          "type": "address"
        },
        {
          "internalType": "uint256",
          "name": "deadline",
          "type": "uint256"
        }
      ],
      "name": "swapNativeForExactTokens",
      "outputs": [
        {
          "internalType": "uint256[]",
          "name": "amounts",
          "type": "uint256[]"
        }
      ],
      "stateMutability": "payable",
      "type": "function"
    },
    {
      "inputs": [
        {
          "internalType": "uint256",
          "name": "amountOut",
          "type": "uint256"
        },
        {
          "internalType": "uint256",
          "name": "amountInMax",
          "type": "uint256"
        },
        {
          "internalType": "address[]",
          "name": "path",
          "type": "address[]"
        },
        {
          "internalType": "address",
          "name": "to",
          "type": "address"
        },
        {
          "internalType": "uint256",
          "name": "deadline",
          "type": "uint256"
        }
      ],
      "name": "swapTokensForExactNative",
      "outputs": [
        {
          "internalType": "uint256[]",
          "name": "amounts",
          "type": "uint256[]"
        }
      ],
      "stateMutability": "nonpayable",
      "type": "function"
    },
    {
      "inputs": [
        {
          "internalType": "uint256",
          "name": "amountOut",
          "type": "uint256"
        },
        {
          "internalType": "uint256",
          "name": "amountInMax",
          "type": "uint256"
        },
        {
          "internalType": "address[]",
          "name": "path",
          "type": "address[]"
        },
        {
          "internalType": "address",
          "name": "to",
          "type": "address"
        },
        {
          "internalType": "uint256",
          "name": "deadline",
          "type": "uint256"
        }
      ],
      "name": "swapTokensForExactTokens",
      "outputs": [
        {
          "internalType": "uint256[]",
          "name": "amounts",
          "type": "uint256[]"
        }
      ],
      "stateMutability": "nonpayable",
      "type": "function"
    },
    {
      "inputs": [],
      "name": "wNative",
      "outputs": [
        {
          "internalType": "address",
          "name": "",
          "type": "address"
        }
      ],
      "stateMutability": "view",
      "type": "function"
    },
    {
      "stateMutability": "payable",
      "type": "receive"
    }
  ],
  "bytecode": {
    "object": "0x60c06040523480156200001157600080fd5b50604051620048a1380380620048a1833981016040819052620000349162000069565b6001600160a01b039182166080521660a052620000a1565b80516001600160a01b03811681146200006457600080fd5b919050565b600080604083850312156200007d57600080fd5b62000088836200004c565b915062000098602084016200004c565b90509250929050565b60805160a051614660620002416000396000818161019f0152818161029e0152818161058a0152818161082101528181610c3801528181610dfd01528181610f6b015281816110540152818161137c015281816114f20152818161158001528181611891015281816118e90152818161199c01528181611aa701528181611e1b01528181611fa10152818161202f015281816121be0152818161221401528181612251015281816122e60152818161243d015281816124e4015281816125580152818161280e01526128d001526000818161047001528181610630015281816107180152818161091e0152818161095701528181610a8d01528181610b7501528181610cde01528181610ea70152818161111b01528181611421015281816115b2015281816117730152818161197a01528181611a8501528181611bd401528181611ec001528181612061015281816121f20152818161258a0152818161279a015281816129a501528181612de301528181612e33015281816132be015281816134750152818161386c0152818161390e015261398501526146606000f3fe60806040526004361061018f5760003560e01c8063a96605e8116100d6578063c45a01551161007f578063d06ca61f11610059578063d06ca61f146104d3578063d638d856146104f3578063e8e337001461051357600080fd5b8063c45a01551461045e578063c9e164e314610492578063cbacf4e4146104c057600080fd5b8063b7de50b4116100b0578063b7de50b41461040b578063baa2abde1461042b578063c075a5911461044b57600080fd5b8063a96605e8146103ab578063ad615dec146103cb578063b47c632e146103eb57600080fd5b80634436f4fd11610138578063800a758a11610112578063800a758a1461035857806385f8c2591461036b5780638803dbee1461038b57600080fd5b80634436f4fd146102f857806356400497146103185780635c11d7951461033857600080fd5b80632195995c116101695780632195995c146102575780632d68efc91461028c57806338ed1739146102d857600080fd5b8063029e384f146101d3578063054d50d4146102095780631f00ca741461023757600080fd5b366101ce57336001600160a01b037f000000000000000000000000000000000000000000000000000000000000000016146101cc576101cc613e80565b005b600080fd5b3480156101df57600080fd5b506101f36101ee366004613f00565b610533565b6040516102009190613f73565b60405180910390f35b34801561021557600080fd5b50610229610224366004613fb7565b610900565b604051908152602001610200565b34801561024357600080fd5b506101f3610252366004613ff9565b610917565b34801561026357600080fd5b506102776102723660046140e9565b61094d565b60408051928352602083019190915201610200565b34801561029857600080fd5b506102c07f000000000000000000000000000000000000000000000000000000000000000081565b6040516001600160a01b039091168152602001610200565b3480156102e457600080fd5b506101f36102f3366004613f00565b610a40565b34801561030457600080fd5b506101f3610313366004613f00565b610be6565b34801561032457600080fd5b506101cc610333366004613f00565b610dad565b34801561034457600080fd5b506101cc610353366004613f00565b6110cc565b6101f3610366366004614193565b611332565b34801561037757600080fd5b50610229610386366004613fb7565b611719565b34801561039757600080fd5b506101f36103a6366004613f00565b611726565b3480156103b757600080fd5b506102776103c63660046141fa565b611842565b3480156103d757600080fd5b506102296103e6366004613fb7565b611963565b3480156103f757600080fd5b50610277610406366004614258565b611970565b34801561041757600080fd5b50610229610426366004614258565b611a7d565b34801561043757600080fd5b506102776104463660046142ee565b611b84565b6101f3610459366004614193565b611dd1565b34801561046a57600080fd5b506102c07f000000000000000000000000000000000000000000000000000000000000000081565b6104a56104a03660046141fa565b61216d565b60408051938452602084019290925290820152606001610200565b6101cc6104ce366004614193565b6123f5565b3480156104df57600080fd5b506101f36104ee366004613ff9565b612793565b3480156104ff57600080fd5b5061022961050e3660046141fa565b6127c0565b34801561051f57600080fd5b506104a561052e366004614360565b61293e565b606081428110156105805760405162461bcd60e51b8152602060048201526012602482015271135bd9549bdd5d195c8e881156141254915160721b60448201526064015b60405180910390fd5b6001600160a01b037f00000000000000000000000000000000000000000000000000000000000000001686866105b76001826143f2565b8181106105c6576105c6614405565b90506020020160208101906105db919061441b565b6001600160a01b03161461062b5760405162461bcd60e51b815260206004820152601760248201527609adecaa4deeae8cae47440929cac82989288bea082a89604b1b6044820152606401610577565b6106897f000000000000000000000000000000000000000000000000000000000000000089888880806020026020016040519081016040528093929190818152602001838360200280828437600092019190915250612a7792505050565b915086826001845161069b91906143f2565b815181106106ab576106ab614405565b6020026020010151101561070f5760405162461bcd60e51b815260206004820152602560248201527f4d6f65526f757465723a20494e53554646494349454e545f4f55545055545f416044820152641353d5539560da1b6064820152608401610577565b6107e03361078c7f00000000000000000000000000000000000000000000000000000000000000008989600081811061074a5761074a614405565b905060200201602081019061075f919061441b565b8a8a600181811061077257610772614405565b9050602002016020810190610787919061441b565b612c02565b8460008151811061079f5761079f614405565b6020026020010151898960008181106107ba576107ba614405565b90506020020160208101906107cf919061441b565b6001600160a01b0316929190612c7e565b61081f82878780806020026020016040519081016040528093929190818152602001838360200280828437600092019190915250309250612d00915050565b7f00000000000000000000000000000000000000000000000000000000000000006001600160a01b0316632e1a7d4d836001855161085d91906143f2565b8151811061086d5761086d614405565b60200260200101516040518263ffffffff1660e01b815260040161089391815260200190565b600060405180830381600087803b1580156108ad57600080fd5b505af11580156108c1573d6000803e3d6000fd5b505050506108f58483600185516108d891906143f2565b815181106108e8576108e8614405565b6020026020010151612f02565b509695505050505050565b600061090d848484612fb4565b90505b9392505050565b60606109447f000000000000000000000000000000000000000000000000000000000000000084846130c8565b90505b92915050565b600080600061097d7f00000000000000000000000000000000000000000000000000000000000000008f8f612c02565b905060008761098c578c610990565b6000195b60405163d505accf60e01b815233600482015230602482015260448101829052606481018b905260ff8916608482015260a4810188905260c481018790529091506001600160a01b0383169063d505accf9060e401600060405180830381600087803b1580156109ff57600080fd5b505af1158015610a13573d6000803e3d6000fd5b50505050610a268f8f8f8f8f8f8f611b84565b809450819550505050509b509b9950505050505050505050565b60608142811015610a885760405162461bcd60e51b8152602060048201526012602482015271135bd9549bdd5d195c8e881156141254915160721b6044820152606401610577565b610ae67f000000000000000000000000000000000000000000000000000000000000000089888880806020026020016040519081016040528093929190818152602001838360200280828437600092019190915250612a7792505050565b9150868260018451610af891906143f2565b81518110610b0857610b08614405565b60200260200101511015610b6c5760405162461bcd60e51b815260206004820152602560248201527f4d6f65526f757465723a20494e53554646494349454e545f4f55545055545f416044820152641353d5539560da1b6064820152608401610577565b610ba73361078c7f00000000000000000000000000000000000000000000000000000000000000008989600081811061074a5761074a614405565b6108f582878780806020026020016040519081016040528093929190818152602001838360200280828437600092019190915250899250612d00915050565b60608142811015610c2e5760405162461bcd60e51b8152602060048201526012602482015271135bd9549bdd5d195c8e881156141254915160721b6044820152606401610577565b6001600160a01b037f0000000000000000000000000000000000000000000000000000000000000000168686610c656001826143f2565b818110610c7457610c74614405565b9050602002016020810190610c89919061441b565b6001600160a01b031614610cd95760405162461bcd60e51b815260206004820152601760248201527609adecaa4deeae8cae47440929cac82989288bea082a89604b1b6044820152606401610577565b610d377f0000000000000000000000000000000000000000000000000000000000000000898888808060200260200160405190810160405280939291908181526020018383602002808284376000920191909152506130c892505050565b91508682600081518110610d4d57610d4d614405565b6020026020010151111561070f5760405162461bcd60e51b815260206004820152602160248201527f4d6f65526f757465723a204558434553534956455f494e5055545f414d4f554e6044820152601560fa1b6064820152608401610577565b8042811015610df35760405162461bcd60e51b8152602060048201526012602482015271135bd9549bdd5d195c8e881156141254915160721b6044820152606401610577565b6001600160a01b037f0000000000000000000000000000000000000000000000000000000000000000168585610e2a6001826143f2565b818110610e3957610e39614405565b9050602002016020810190610e4e919061441b565b6001600160a01b031614610e9e5760405162461bcd60e51b815260206004820152601760248201527609adecaa4deeae8cae47440929cac82989288bea082a89604b1b6044820152606401610577565b610f1533610f017f000000000000000000000000000000000000000000000000000000000000000088886000818110610ed957610ed9614405565b9050602002016020810190610eee919061441b565b8989600181811061077257610772614405565b89888860008181106107ba576107ba614405565b610f53858580806020026020016040519081016040528093929190818152602001838360200280828437600092019190915250309250613249915050565b6040516370a0823160e01b81523060048201526000907f00000000000000000000000000000000000000000000000000000000000000006001600160a01b0316906370a0823190602401602060405180830381865afa158015610fba573d6000803e3d6000fd5b505050506040513d601f19601f82011682018060405250810190610fde9190614438565b90508681101561103e5760405162461bcd60e51b815260206004820152602560248201527f4d6f65526f757465723a20494e53554646494349454e545f4f55545055545f416044820152641353d5539560da1b6064820152608401610577565b604051632e1a7d4d60e01b8152600481018290527f00000000000000000000000000000000000000000000000000000000000000006001600160a01b031690632e1a7d4d90602401600060405180830381600087803b1580156110a057600080fd5b505af11580156110b4573d6000803e3d6000fd5b505050506110c28482612f02565b5050505050505050565b80428110156111125760405162461bcd60e51b8152602060048201526012602482015271135bd9549bdd5d195c8e881156141254915160721b6044820152606401610577565b61114d33610f017f000000000000000000000000000000000000000000000000000000000000000088886000818110610ed957610ed9614405565b6000858561115c6001826143f2565b81811061116b5761116b614405565b9050602002016020810190611180919061441b565b6040516370a0823160e01b81526001600160a01b03868116600483015291909116906370a0823190602401602060405180830381865afa1580156111c8573d6000803e3d6000fd5b505050506040513d601f19601f820116820180604052508101906111ec9190614438565b905061122c868680806020026020016040519081016040528093929190818152602001838360200280828437600092019190915250889250613249915050565b8681878761123b6001826143f2565b81811061124a5761124a614405565b905060200201602081019061125f919061441b565b6040516370a0823160e01b81526001600160a01b03888116600483015291909116906370a08231906024015b602060405180830381865afa1580156112a8573d6000803e3d6000fd5b505050506040513d601f19601f820116820180604052508101906112cc9190614438565b6112d691906143f2565b10156110c25760405162461bcd60e51b815260206004820152602560248201527f4d6f65526f757465723a20494e53554646494349454e545f4f55545055545f416044820152641353d5539560da1b6064820152608401610577565b6060814281101561137a5760405162461bcd60e51b8152602060048201526012602482015271135bd9549bdd5d195c8e881156141254915160721b6044820152606401610577565b7f00000000000000000000000000000000000000000000000000000000000000006001600160a01b0316868660008181106113b7576113b7614405565b90506020020160208101906113cc919061441b565b6001600160a01b03161461141c5760405162461bcd60e51b815260206004820152601760248201527609adecaa4deeae8cae47440929cac82989288bea082a89604b1b6044820152606401610577565b61147a7f0000000000000000000000000000000000000000000000000000000000000000888888808060200260200160405190810160405280939291908181526020018383602002808284376000920191909152506130c892505050565b9150348260008151811061149057611490614405565b602002602001015111156114f05760405162461bcd60e51b815260206004820152602160248201527f4d6f65526f757465723a204558434553534956455f494e5055545f414d4f554e6044820152601560fa1b6064820152608401610577565b7f00000000000000000000000000000000000000000000000000000000000000006001600160a01b031663d0e30db08360008151811061153257611532614405565b60200260200101516040518263ffffffff1660e01b81526004016000604051808303818588803b15801561156557600080fd5b505af1158015611579573d6000803e3d6000fd5b50505050507f00000000000000000000000000000000000000000000000000000000000000006001600160a01b031663a9059cbb6115e47f00000000000000000000000000000000000000000000000000000000000000008989600081811061074a5761074a614405565b846000815181106115f7576115f7614405565b60200260200101516040518363ffffffff1660e01b81526004016116309291906001600160a01b03929092168252602082015260400190565b6020604051808303816000875af115801561164f573d6000803e3d6000fd5b505050506040513d601f19601f820116820180604052508101906116739190614451565b61167f5761167f613e80565b6116be82878780806020026020016040519081016040528093929190818152602001838360200280828437600092019190915250899250612d00915050565b816000815181106116d1576116d1614405565b602002602001015134111561170f5761170f33836000815181106116f7576116f7614405565b60200260200101513461170a91906143f2565b612f02565b5095945050505050565b600061090d848484613531565b6060814281101561176e5760405162461bcd60e51b8152602060048201526012602482015271135bd9549bdd5d195c8e881156141254915160721b6044820152606401610577565b6117cc7f0000000000000000000000000000000000000000000000000000000000000000898888808060200260200160405190810160405280939291908181526020018383602002808284376000920191909152506130c892505050565b915086826000815181106117e2576117e2614405565b60200260200101511115610b6c5760405162461bcd60e51b815260206004820152602160248201527f4d6f65526f757465723a204558434553534956455f494e5055545f414d4f554e6044820152601560fa1b6064820152608401610577565b600080824281101561188b5760405162461bcd60e51b8152602060048201526012602482015271135bd9549bdd5d195c8e881156141254915160721b6044820152606401610577565b6118ba897f00000000000000000000000000000000000000000000000000000000000000008a8a8a308a611b84565b90935091506118d36001600160a01b038a168685613657565b604051632e1a7d4d60e01b8152600481018390527f00000000000000000000000000000000000000000000000000000000000000006001600160a01b031690632e1a7d4d90602401600060405180830381600087803b15801561193557600080fd5b505af1158015611949573d6000803e3d6000fd5b505050506119578583612f02565b50965096945050505050565b600061090d848484613688565b60008060006119c07f00000000000000000000000000000000000000000000000000000000000000008e7f0000000000000000000000000000000000000000000000000000000000000000612c02565b90506000876119cf578c6119d3565b6000195b60405163d505accf60e01b815233600482015230602482015260448101829052606481018b905260ff8916608482015260a4810188905260c481018790529091506001600160a01b0383169063d505accf9060e401600060405180830381600087803b158015611a4257600080fd5b505af1158015611a56573d6000803e3d6000fd5b50505050611a688e8e8e8e8e8e611842565b909f909e509c50505050505050505050505050565b600080611acb7f00000000000000000000000000000000000000000000000000000000000000008d7f0000000000000000000000000000000000000000000000000000000000000000612c02565b9050600086611ada578b611ade565b6000195b60405163d505accf60e01b815233600482015230602482015260448101829052606481018a905260ff8816608482015260a4810187905260c481018690529091506001600160a01b0383169063d505accf9060e401600060405180830381600087803b158015611b4d57600080fd5b505af1158015611b61573d6000803e3d6000fd5b50505050611b738d8d8d8d8d8d6127c0565b9d9c50505050505050505050505050565b6000808242811015611bcd5760405162461bcd60e51b8152602060048201526012602482015271135bd9549bdd5d195c8e881156141254915160721b6044820152606401610577565b6000611bfa7f00000000000000000000000000000000000000000000000000000000000000008c8c612c02565b6040516323b872dd60e01b81523360048201526001600160a01b03821660248201819052604482018c90529192506323b872dd906064016020604051808303816000875af1158015611c50573d6000803e3d6000fd5b505050506040513d601f19601f82011682018060405250810190611c749190614451565b5060405163226bf2d160e21b81526001600160a01b03878116600483015260009182918416906389afcb449060240160408051808303816000875af1158015611cc1573d6000803e3d6000fd5b505050506040513d601f19601f82011682018060405250810190611ce5919061446e565b915091506000611cf58e8e613755565b509050806001600160a01b03168e6001600160a01b031614611d18578183611d1b565b82825b90975095508a871015611d705760405162461bcd60e51b815260206004820181905260248201527f4d6f65526f757465723a20494e53554646494349454e545f415f414d4f554e546044820152606401610577565b89861015611dc05760405162461bcd60e51b815260206004820181905260248201527f4d6f65526f757465723a20494e53554646494349454e545f425f414d4f554e546044820152606401610577565b505050505097509795505050505050565b60608142811015611e195760405162461bcd60e51b8152602060048201526012602482015271135bd9549bdd5d195c8e881156141254915160721b6044820152606401610577565b7f00000000000000000000000000000000000000000000000000000000000000006001600160a01b031686866000818110611e5657611e56614405565b9050602002016020810190611e6b919061441b565b6001600160a01b031614611ebb5760405162461bcd60e51b815260206004820152601760248201527609adecaa4deeae8cae47440929cac82989288bea082a89604b1b6044820152606401610577565b611f197f000000000000000000000000000000000000000000000000000000000000000034888880806020026020016040519081016040528093929190818152602001838360200280828437600092019190915250612a7792505050565b9150868260018451611f2b91906143f2565b81518110611f3b57611f3b614405565b60200260200101511015611f9f5760405162461bcd60e51b815260206004820152602560248201527f4d6f65526f757465723a20494e53554646494349454e545f4f55545055545f416044820152641353d5539560da1b6064820152608401610577565b7f00000000000000000000000000000000000000000000000000000000000000006001600160a01b031663d0e30db083600081518110611fe157611fe1614405565b60200260200101516040518263ffffffff1660e01b81526004016000604051808303818588803b15801561201457600080fd5b505af1158015612028573d6000803e3d6000fd5b50505050507f00000000000000000000000000000000000000000000000000000000000000006001600160a01b031663a9059cbb6120937f00000000000000000000000000000000000000000000000000000000000000008989600081811061074a5761074a614405565b846000815181106120a6576120a6614405565b60200260200101516040518363ffffffff1660e01b81526004016120df9291906001600160a01b03929092168252602082015260400190565b6020604051808303816000875af11580156120fe573d6000803e3d6000fd5b505050506040513d601f19601f820116820180604052508101906121229190614451565b61212e5761212e613e80565b61170f82878780806020026020016040519081016040528093929190818152602001838360200280828437600092019190915250899250612d00915050565b600080600083428110156121b85760405162461bcd60e51b8152602060048201526012602482015271135bd9549bdd5d195c8e881156141254915160721b6044820152606401610577565b6121e68a7f00000000000000000000000000000000000000000000000000000000000000008b348c8c61383e565b909450925060006122387f00000000000000000000000000000000000000000000000000000000000000008c7f0000000000000000000000000000000000000000000000000000000000000000612c02565b905061224f6001600160a01b038c16338388612c7e565b7f00000000000000000000000000000000000000000000000000000000000000006001600160a01b031663d0e30db0856040518263ffffffff1660e01b81526004016000604051808303818588803b1580156122aa57600080fd5b505af11580156122be573d6000803e3d6000fd5b505060405163a9059cbb60e01b81526001600160a01b038581166004830152602482018990527f000000000000000000000000000000000000000000000000000000000000000016935063a9059cbb925060440190506020604051808303816000875af1158015612333573d6000803e3d6000fd5b505050506040513d601f19601f820116820180604052508101906123579190614451565b61236357612363613e80565b6040516335313c2160e11b81526001600160a01b038881166004830152821690636a627842906024016020604051808303816000875af11580156123ab573d6000803e3d6000fd5b505050506040513d601f19601f820116820180604052508101906123cf9190614438565b9250833411156123e7576123e73361170a86346143f2565b505096509650969350505050565b804281101561243b5760405162461bcd60e51b8152602060048201526012602482015271135bd9549bdd5d195c8e881156141254915160721b6044820152606401610577565b7f00000000000000000000000000000000000000000000000000000000000000006001600160a01b03168585600081811061247857612478614405565b905060200201602081019061248d919061441b565b6001600160a01b0316146124dd5760405162461bcd60e51b815260206004820152601760248201527609adecaa4deeae8cae47440929cac82989288bea082a89604b1b6044820152606401610577565b60003490507f00000000000000000000000000000000000000000000000000000000000000006001600160a01b031663d0e30db0826040518263ffffffff1660e01b81526004016000604051808303818588803b15801561253d57600080fd5b505af1158015612551573d6000803e3d6000fd5b50505050507f00000000000000000000000000000000000000000000000000000000000000006001600160a01b031663a9059cbb6125bc7f00000000000000000000000000000000000000000000000000000000000000008989600081811061074a5761074a614405565b6040517fffffffff0000000000000000000000000000000000000000000000000000000060e084901b1681526001600160a01b039091166004820152602481018490526044016020604051808303816000875af1158015612621573d6000803e3d6000fd5b505050506040513d601f19601f820116820180604052508101906126459190614451565b61265157612651613e80565b600086866126606001826143f2565b81811061266f5761266f614405565b9050602002016020810190612684919061441b565b6040516370a0823160e01b81526001600160a01b03878116600483015291909116906370a0823190602401602060405180830381865afa1580156126cc573d6000803e3d6000fd5b505050506040513d601f19601f820116820180604052508101906126f09190614438565b9050612730878780806020026020016040519081016040528093929190818152602001838360200280828437600092019190915250899250613249915050565b8781888861273f6001826143f2565b81811061274e5761274e614405565b9050602002016020810190612763919061441b565b6040516370a0823160e01b81526001600160a01b03898116600483015291909116906370a082319060240161128b565b60606109447f00000000000000000000000000000000000000000000000000000000000000008484612a77565b600081428110156128085760405162461bcd60e51b8152602060048201526012602482015271135bd9549bdd5d195c8e881156141254915160721b6044820152606401610577565b612837887f00000000000000000000000000000000000000000000000000000000000000008989893089611b84565b6040516370a0823160e01b81523060048201529093506128ba915085906001600160a01b038b16906370a0823190602401602060405180830381865afa158015612885573d6000803e3d6000fd5b505050506040513d601f19601f820116820180604052508101906128a99190614438565b6001600160a01b038b169190613657565b604051632e1a7d4d60e01b8152600481018390527f00000000000000000000000000000000000000000000000000000000000000006001600160a01b031690632e1a7d4d90602401600060405180830381600087803b15801561291c57600080fd5b505af1158015612930573d6000803e3d6000fd5b505050506108f58483612f02565b600080600083428110156129895760405162461bcd60e51b8152602060048201526012602482015271135bd9549bdd5d195c8e881156141254915160721b6044820152606401610577565b8b8b61299982828e8e8e8e61383e565b909650945060006129cb7f00000000000000000000000000000000000000000000000000000000000000008484612c02565b90506129e26001600160a01b03841633838a612c7e565b6129f76001600160a01b038316338389612c7e565b6040516335313c2160e11b81526001600160a01b038a81166004830152821690636a627842906024016020604051808303816000875af1158015612a3f573d6000803e3d6000fd5b505050506040513d601f19601f82011682018060405250810190612a639190614438565b945050505050985098509895505050505050565b6060600282511015612acb5760405162461bcd60e51b815260206004820152601860248201527f4d6f654c6962726172793a20494e56414c49445f5041544800000000000000006044820152606401610577565b815167ffffffffffffffff811115612ae557612ae5613fe3565b604051908082528060200260200182016040528015612b0e578160200160208202803683370190505b5090508281600081518110612b2557612b25614405565b60200260200101818152505060005b60018351612b4291906143f2565b811015612bfa57600080612b9587868581518110612b6257612b62614405565b602002602001015187866001612b789190614492565b81518110612b8857612b88614405565b6020026020010151613ac2565b91509150612bbd848481518110612bae57612bae614405565b60200260200101518383612fb4565b84612bc9856001614492565b81518110612bd957612bd9614405565b60200260200101818152505050508080612bf2906144a5565b915050612b34565b509392505050565b600080846001600160a01b0316635c60da1b6040518163ffffffff1660e01b8152600401602060405180830381865afa158015612c43573d6000803e3d6000fd5b505050506040513d601f19601f82011682018060405250810190612c6791906144be565b9050612c7585828686613b9a565b95945050505050565b6040516001600160a01b038481166024830152838116604483015260648201839052612cfa9186918216906323b872dd906084015b604051602081830303815290604052915060e01b6020820180517bffffffffffffffffffffffffffffffffffffffffffffffffffffffff8381831617835250505050613c0d565b50505050565b60005b60018351612d1191906143f2565b811015612cfa57600080848381518110612d2d57612d2d614405565b602002602001015185846001612d439190614492565b81518110612d5357612d53614405565b6020026020010151915091506000612d6b8383613755565b509050600087612d7c866001614492565b81518110612d8c57612d8c614405565b60200260200101519050600080836001600160a01b0316866001600160a01b031614612dba57826000612dbe565b6000835b91509150600060028a51612dd291906143f2565b8810612dde5788612e2c565b612e2c7f0000000000000000000000000000000000000000000000000000000000000000878c612e0f8c6002614492565b81518110612e1f57612e1f614405565b6020026020010151612c02565b9050612e597f00000000000000000000000000000000000000000000000000000000000000008888612c02565b6001600160a01b031663022c0d9f84848460006040519080825280601f01601f191660200182016040528015612e96576020820181803683370190505b506040518563ffffffff1660e01b8152600401612eb694939291906144ff565b600060405180830381600087803b158015612ed057600080fd5b505af1158015612ee4573d6000803e3d6000fd5b50505050505050505050508080612efa906144a5565b915050612d03565b6000826001600160a01b03168260405160006040518083038185875af1925050503d8060008114612f4f576040519150601f19603f3d011682016040523d82523d6000602084013e612f54565b606091505b5050905080612faf5760405162461bcd60e51b815260206004820152602160248201527f4d6f65526f757465723a204e41544956455f5452414e534645525f4641494c456044820152601160fa1b6064820152608401610577565b505050565b60008084116130135760405162461bcd60e51b815260206004820152602560248201527f4d6f654c6962726172793a20494e53554646494349454e545f494e5055545f416044820152641353d5539560da1b6064820152608401610577565b6000831180156130235750600082115b61307a5760405162461bcd60e51b815260206004820152602260248201527f4d6f654c6962726172793a20494e53554646494349454e545f4c495155494449604482015261545960f01b6064820152608401610577565b6000613088856103e5614550565b905060006130968483614550565b90506000826130a7876103e8614550565b6130b19190614492565b90506130bd8183614567565b979650505050505050565b606060028251101561311c5760405162461bcd60e51b815260206004820152601860248201527f4d6f654c6962726172793a20494e56414c49445f5041544800000000000000006044820152606401610577565b815167ffffffffffffffff81111561313657613136613fe3565b60405190808252806020026020018201604052801561315f578160200160208202803683370190505b50905082816001835161317291906143f2565b8151811061318257613182614405565b60200260200101818152505060006001835161319e91906143f2565b90505b8015612bfa576000806131e487866131ba6001876143f2565b815181106131ca576131ca614405565b6020026020010151878681518110612b8857612b88614405565b9150915061320c8484815181106131fd576131fd614405565b60200260200101518383613531565b846132186001866143f2565b8151811061322857613228614405565b6020026020010181815250505050808061324190614589565b9150506131a1565b60005b6001835161325a91906143f2565b811015612faf5760008084838151811061327657613276614405565b60200260200101518584600161328c9190614492565b8151811061329c5761329c614405565b60200260200101519150915060006132b48383613755565b50905060006132e47f00000000000000000000000000000000000000000000000000000000000000008585612c02565b9050600080600080846001600160a01b0316630902f1ac6040518163ffffffff1660e01b8152600401606060405180830381865afa15801561332a573d6000803e3d6000fd5b505050506040513d601f19601f8201168201806040525081019061334e91906145be565b506dffffffffffffffffffffffffffff1691506dffffffffffffffffffffffffffff169150600080876001600160a01b03168a6001600160a01b031614613396578284613399565b83835b6040516370a0823160e01b81526001600160a01b038a8116600483015292945090925083918c16906370a0823190602401602060405180830381865afa1580156133e7573d6000803e3d6000fd5b505050506040513d601f19601f8201168201806040525081019061340b9190614438565b61341591906143f2565b9550613422868383612fb4565b945050505050600080856001600160a01b0316886001600160a01b03161461344c57826000613450565b6000835b91509150600060028c5161346491906143f2565b8a10613470578a6134a1565b6134a17f0000000000000000000000000000000000000000000000000000000000000000898e612e0f8e6002614492565b6040805160008152602081019182905263022c0d9f60e01b9091529091506001600160a01b0387169063022c0d9f906134e390869086908690602481016144ff565b600060405180830381600087803b1580156134fd57600080fd5b505af1158015613511573d6000803e3d6000fd5b505050505050505050505050508080613529906144a5565b91505061324c565b60008084116135915760405162461bcd60e51b815260206004820152602660248201527f4d6f654c6962726172793a20494e53554646494349454e545f4f55545055545f604482015265105353d5539560d21b6064820152608401610577565b6000831180156135a15750600082115b6135f85760405162461bcd60e51b815260206004820152602260248201527f4d6f654c6962726172793a20494e53554646494349454e545f4c495155494449604482015261545960f01b6064820152608401610577565b60006136048585614550565b613610906103e8614550565b9050600061361e86856143f2565b61362a906103e5614550565b9050806136386001846143f2565b6136429190614567565b61364d906001614492565b9695505050505050565b6040516001600160a01b03838116602483015260448201839052612faf91859182169063a9059cbb90606401612cb3565b60008084116136d95760405162461bcd60e51b815260206004820152601f60248201527f4d6f654c6962726172793a20494e53554646494349454e545f414d4f554e54006044820152606401610577565b6000831180156136e95750600082115b6137405760405162461bcd60e51b815260206004820152602260248201527f4d6f654c6962726172793a20494e53554646494349454e545f4c495155494449604482015261545960f01b6064820152608401610577565b8261374b8386614550565b61090d9190614567565b600080826001600160a01b0316846001600160a01b0316036137b95760405162461bcd60e51b815260206004820152601f60248201527f4d6f654c6962726172793a204944454e544943414c5f414444524553534553006044820152606401610577565b826001600160a01b0316846001600160a01b0316106137d95782846137dc565b83835b90925090506001600160a01b0382166138375760405162461bcd60e51b815260206004820152601860248201527f4d6f654c6962726172793a205a45524f5f4144445245535300000000000000006044820152606401610577565b9250929050565b60405163e6a4390560e01b81526001600160a01b0387811660048301528681166024830152600091829182917f00000000000000000000000000000000000000000000000000000000000000009091169063e6a4390590604401602060405180830381865afa1580156138b5573d6000803e3d6000fd5b505050506040513d601f19601f820116820180604052508101906138d991906144be565b6001600160a01b03160361397d576040516364e329cb60e11b81526001600160a01b03898116600483015288811660248301527f0000000000000000000000000000000000000000000000000000000000000000169063c9c65396906044016020604051808303816000875af1158015613957573d6000803e3d6000fd5b505050506040513d601f19601f8201168201806040525081019061397b91906144be565b505b6000806139ab7f00000000000000000000000000000000000000000000000000000000000000008b8b613ac2565b915091508160001480156139bd575080155b156139cd57879350869250613ab5565b60006139da898484613688565b9050878111613a3e5785811015613a335760405162461bcd60e51b815260206004820181905260248201527f4d6f65526f757465723a20494e53554646494349454e545f425f414d4f554e546044820152606401610577565b889450925082613ab3565b6000613a4b898486613688565b905089811115613a5d57613a5d613e80565b87811015613aad5760405162461bcd60e51b815260206004820181905260248201527f4d6f65526f757465723a20494e53554646494349454e545f415f414d4f554e546044820152606401610577565b94508793505b505b5050965096945050505050565b6000806000613ad18585613755565b509050600080613ae2888888612c02565b6001600160a01b0316630902f1ac6040518163ffffffff1660e01b8152600401606060405180830381865afa158015613b1f573d6000803e3d6000fd5b505050506040513d601f19601f82011682018060405250810190613b4391906145be565b506dffffffffffffffffffffffffffff1691506dffffffffffffffffffffffffffff169150826001600160a01b0316876001600160a01b031614613b88578082613b8b565b81815b90999098509650505050505050565b6000806000613ba98585613755565b6040516bffffffffffffffffffffffff19606084811b8216602084015283901b166034820152919350915060009060480160408051601f1981840301815291905280516020820120909150613c008883838c613c70565b9998505050505050505050565b6000613c226001600160a01b03841683613c8a565b90508051600014158015613c47575080806020019051810190613c459190614451565b155b15612faf57604051635274afe760e01b81526001600160a01b0384166004820152602401610577565b600080613c7d8686613c98565b905061364d818585613d41565b606061094483836000613d6a565b600060408203516020830351835180602086010180516002830161ffca811115613cca5763c8c781396000526004601cfd5b6c5af43d3d93803e603357fd5bf38852600c198801989098526035880160d81b604889901b177d6100003d81600a3d39f3363d3d373d3d3d3d610000806035363936013d731760201988015260f088901b8252603f909701601e198701209690528452601f19840152603f19909201919091525090565b600060355160ff600053603594855260609290921b600152506015919091526055600020915290565b606081471015613d8f5760405163cd78605960e01b8152306004820152602401610577565b600080856001600160a01b03168486604051613dab919061460e565b60006040518083038185875af1925050503d8060008114613de8576040519150601f19603f3d011682016040523d82523d6000602084013e613ded565b606091505b509150915061364d868383606082613e0d57613e0882613e54565b610910565b8151158015613e2457506001600160a01b0384163b155b15613e4d57604051639996b31560e01b81526001600160a01b0385166004820152602401610577565b5080610910565b805115613e645780518082602001fd5b604051630a12f52160e11b815260040160405180910390fd5b50565b634e487b7160e01b600052600160045260246000fd5b60008083601f840112613ea857600080fd5b50813567ffffffffffffffff811115613ec057600080fd5b6020830191508360208260051b850101111561383757600080fd5b6001600160a01b0381168114613e7d57600080fd5b8035613efb81613edb565b919050565b60008060008060008060a08789031215613f1957600080fd5b8635955060208701359450604087013567ffffffffffffffff811115613f3e57600080fd5b613f4a89828a01613e96565b9095509350506060870135613f5e81613edb565b80925050608087013590509295509295509295565b6020808252825182820181905260009190848201906040850190845b81811015613fab57835183529284019291840191600101613f8f565b50909695505050505050565b600080600060608486031215613fcc57600080fd5b505081359360208301359350604090920135919050565b634e487b7160e01b600052604160045260246000fd5b6000806040838503121561400c57600080fd5b8235915060208084013567ffffffffffffffff8082111561402c57600080fd5b818601915086601f83011261404057600080fd5b81358181111561405257614052613fe3565b8060051b604051601f19603f8301168101818110858211171561407757614077613fe3565b60405291825284820192508381018501918983111561409557600080fd5b938501935b828510156140ba576140ab85613ef0565b8452938501939285019261409a565b8096505050505050509250929050565b8015158114613e7d57600080fd5b803560ff81168114613efb57600080fd5b60008060008060008060008060008060006101608c8e03121561410b57600080fd5b8b3561411681613edb565b9a5060208c013561412681613edb565b995060408c0135985060608c0135975060808c0135965060a08c013561414b81613edb565b955060c08c0135945060e08c0135614162816140ca565b93506141716101008d016140d8565b92506101208c013591506101408c013590509295989b509295989b9093969950565b6000806000806000608086880312156141ab57600080fd5b85359450602086013567ffffffffffffffff8111156141c957600080fd5b6141d588828901613e96565b90955093505060408601356141e981613edb565b949793965091946060013592915050565b60008060008060008060c0878903121561421357600080fd5b863561421e81613edb565b9550602087013594506040870135935060608701359250608087013561424381613edb565b8092505060a087013590509295509295509295565b6000806000806000806000806000806101408b8d03121561427857600080fd5b8a3561428381613edb565b995060208b0135985060408b0135975060608b0135965060808b01356142a881613edb565b955060a08b0135945060c08b01356142bf816140ca565b93506142cd60e08c016140d8565b92506101008b013591506101208b013590509295989b9194979a5092959850565b600080600080600080600060e0888a03121561430957600080fd5b873561431481613edb565b9650602088013561432481613edb565b955060408801359450606088013593506080880135925060a088013561434981613edb565b8092505060c0880135905092959891949750929550565b600080600080600080600080610100898b03121561437d57600080fd5b883561438881613edb565b9750602089013561439881613edb565b965060408901359550606089013594506080890135935060a0890135925060c08901356143c481613edb565b8092505060e089013590509295985092959890939650565b634e487b7160e01b600052601160045260246000fd5b81810381811115610947576109476143dc565b634e487b7160e01b600052603260045260246000fd5b60006020828403121561442d57600080fd5b813561091081613edb565b60006020828403121561444a57600080fd5b5051919050565b60006020828403121561446357600080fd5b8151610910816140ca565b6000806040838503121561448157600080fd5b505080516020909101519092909150565b80820180821115610947576109476143dc565b6000600182016144b7576144b76143dc565b5060010190565b6000602082840312156144d057600080fd5b815161091081613edb565b60005b838110156144f65781810151838201526020016144de565b50506000910152565b8481528360208201526001600160a01b038316604082015260806060820152600082518060808401526145398160a08501602087016144db565b601f01601f19169190910160a00195945050505050565b8082028115828204841417610947576109476143dc565b60008261458457634e487b7160e01b600052601260045260246000fd5b500490565b600081614598576145986143dc565b506000190190565b80516dffffffffffffffffffffffffffff81168114613efb57600080fd5b6000806000606084860312156145d357600080fd5b6145dc846145a0565b92506145ea602085016145a0565b9150604084015163ffffffff8116811461460357600080fd5b809150509250925092565b600082516146208184602087016144db565b919091019291505056fea26469706673582212207416ca96068e080e832aa967bcd5df6d9818b2fb9e5716e2eca1d820820b4d7a64736f6c63430008140033",
    "linkReferences": {}
  },
  "methodIdentifiers": {
    "addLiquidity(address,address,uint256,uint256,uint256,uint256,address,uint256)": "e8e33700",
    "addLiquidityNative(address,uint256,uint256,uint256,address,uint256)": "c9e164e3",
    "factory()": "c45a0155",
    "getAmountIn(uint256,uint256,uint256)": "85f8c259",
    "getAmountOut(uint256,uint256,uint256)": "054d50d4",
    "getAmountsIn(uint256,address[])": "1f00ca74",
    "getAmountsOut(uint256,address[])": "d06ca61f",
    "quote(uint256,uint256,uint256)": "ad615dec",
    "removeLiquidity(address,address,uint256,uint256,uint256,address,uint256)": "baa2abde",
    "removeLiquidityNative(address,uint256,uint256,uint256,address,uint256)": "a96605e8",
    "removeLiquidityNativeSupportingFeeOnTransferTokens(address,uint256,uint256,uint256,address,uint256)": "d638d856",
    "removeLiquidityNativeWithPermit(address,uint256,uint256,uint256,address,uint256,bool,uint8,bytes32,bytes32)": "b47c632e",
    "removeLiquidityNativeWithPermitSupportingFeeOnTransferTokens(address,uint256,uint256,uint256,address,uint256,bool,uint8,bytes32,bytes32)": "b7de50b4",
    "removeLiquidityWithPermit(address,address,uint256,uint256,uint256,address,uint256,bool,uint8,bytes32,bytes32)": "2195995c",
    "swapExactNativeForTokens(uint256,address[],address,uint256)": "c075a591",
    "swapExactNativeForTokensSupportingFeeOnTransferTokens(uint256,address[],address,uint256)": "cbacf4e4",
    "swapExactTokensForNative(uint256,uint256,address[],address,uint256)": "029e384f",
    "swapExactTokensForNativeSupportingFeeOnTransferTokens(uint256,uint256,address[],address,uint256)": "56400497",
    "swapExactTokensForTokens(uint256,uint256,address[],address,uint256)": "38ed1739",
    "swapExactTokensForTokensSupportingFeeOnTransferTokens(uint256,uint256,address[],address,uint256)": "5c11d795",
    "swapNativeForExactTokens(uint256,address[],address,uint256)": "800a758a",
    "swapTokensForExactNative(uint256,uint256,address[],address,uint256)": "4436f4fd",
    "swapTokensForExactTokens(uint256,uint256,address[],address,uint256)": "8803dbee",
    "wNative()": "2d68efc9"
  },
  "id": 70
}