{"abi":[{"type":"function","name":"getPositionsOf","inputs":[{"name":"pairs","type":"address[]","internalType":"contract IMoePair[]"},{"name":"user","type":"address","internalType":"address"}],"outputs":[{"name":"lps","type":"tuple[]","internalType":"struct MoeHelper.LiquidityPosition[]","components":[{"name":"lpBalance","type":"uint256","internalType":"uint256"},{"name":"token0","type":"address","internalType":"address"},{"name":"token1","type":"address","internalType":"address"},{"name":"amount0","type":"uint256","internalType":"uint256"},{"name":"amount1","type":"uint256","internalType":"uint256"}]}],"stateMutability":"view"}],"bytecode":{"object":"0x608060405234801561001057600080fd5b50610682806100206000396000f3fe608060405234801561001057600080fd5b506004361061002b5760003560e01c8063fde12c9514610030575b600080fd5b61004361003e3660046103f0565b610059565b6040516100509190610476565b60405180910390f35b6060828067ffffffffffffffff811115610075576100756104f0565b6040519080825280602002602001820160405280156100ea57816020015b6100d76040518060a001604052806000815260200160006001600160a01b0316815260200160006001600160a01b0316815260200160008152602001600081525090565b8152602001906001900390816100935790505b50915060005b818110156103cf57600086868381811061010c5761010c610506565b9050602002016020810190610121919061051c565b9050600080826001600160a01b0316630902f1ac6040518163ffffffff1660e01b8152600401606060405180830381865afa158015610164573d6000803e3d6000fd5b505050506040513d601f19601f820116820180604052508101906101889190610563565b506040516370a0823160e01b81526001600160a01b038a811660048301526dffffffffffffffffffffffffffff9384169550919092169250600091908516906370a0823190602401602060405180830381865afa1580156101ed573d6000803e3d6000fd5b505050506040513d601f19601f8201168201806040525081019061021191906105a8565b90506000846001600160a01b03166318160ddd6040518163ffffffff1660e01b8152600401602060405180830381865afa158015610253573d6000803e3d6000fd5b505050506040513d601f19601f8201168201806040525081019061027791906105a8565b90506040518060a00160405280838152602001866001600160a01b0316630dfe16816040518163ffffffff1660e01b8152600401602060405180830381865afa1580156102c8573d6000803e3d6000fd5b505050506040513d601f19601f820116820180604052508101906102ec91906105c1565b6001600160a01b03168152602001866001600160a01b031663d21220a76040518163ffffffff1660e01b8152600401602060405180830381865afa158015610338573d6000803e3d6000fd5b505050506040513d601f19601f8201168201806040525081019061035c91906105c1565b6001600160a01b031681526020018261037587866105f4565b61037f9190610611565b81526020018261038f86866105f4565b6103999190610611565b8152508887815181106103ae576103ae610506565b60200260200101819052505050505050806103c890610633565b90506100f0565b50509392505050565b6001600160a01b03811681146103ed57600080fd5b50565b60008060006040848603121561040557600080fd5b833567ffffffffffffffff8082111561041d57600080fd5b818601915086601f83011261043157600080fd5b81358181111561044057600080fd5b8760208260051b850101111561045557600080fd5b6020928301955093505084013561046b816103d8565b809150509250925092565b602080825282518282018190526000919060409081850190868401855b828110156104e357815180518552868101516001600160a01b0390811688870152868201511686860152606080820151908601526080908101519085015260a09093019290850190600101610493565b5091979650505050505050565b634e487b7160e01b600052604160045260246000fd5b634e487b7160e01b600052603260045260246000fd5b60006020828403121561052e57600080fd5b8135610539816103d8565b9392505050565b80516dffffffffffffffffffffffffffff8116811461055e57600080fd5b919050565b60008060006060848603121561057857600080fd5b61058184610540565b925061058f60208501610540565b9150604084015163ffffffff8116811461046b57600080fd5b6000602082840312156105ba57600080fd5b5051919050565b6000602082840312156105d357600080fd5b8151610539816103d8565b634e487b7160e01b600052601160045260246000fd5b808202811582820484141761060b5761060b6105de565b92915050565b60008261062e57634e487b7160e01b600052601260045260246000fd5b500490565b600060018201610645576106456105de565b506001019056fea26469706673582212208c0a3effec994306d157ca4ae184e8b7c7021643ba79c0f9368f5eaa38cc069264736f6c63430008140033","linkReferences":{}},"methodIdentifiers":{"getPositionsOf(address[],address)":"fde12c95"},"id":72}