{"abi":[{"type":"constructor","inputs":[{"name":"moe","type":"address","internalType":"contract IMoe"},{"name":"veMoe","type":"address","internalType":"contract IVeMoe"},{"name":"factory","type":"address","internalType":"contract IRewarderFactory"},{"name":"treasuryShare","type":"uint256","internalType":"uint256"}],"stateMutability":"nonpayable"},{"type":"function","name":"acceptOwnership","inputs":[],"outputs":[],"stateMutability":"nonpayable"},{"type":"function","name":"add","inputs":[{"name":"token","type":"address","internalType":"contract IERC20"},{"name":"extraRewarder","type":"address","internalType":"contract IMasterChefRewarder"}],"outputs":[],"stateMutability":"nonpayable"},{"type":"function","name":"claim","inputs":[{"name":"pids","type":"uint256[]","internalType":"uint256[]"}],"outputs":[],"stateMutability":"nonpayable"},{"type":"function","name":"deposit","inputs":[{"name":"pid","type":"uint256","internalType":"uint256"},{"name":"amount","type":"uint256","internalType":"uint256"}],"outputs":[],"stateMutability":"nonpayable"},{"type":"function","name":"emergencyWithdraw","inputs":[{"name":"pid","type":"uint256","internalType":"uint256"}],"outputs":[],"stateMutability":"nonpayable"},{"type":"function","name":"getDeposit","inputs":[{"name":"pid","type":"uint256","internalType":"uint256"},{"name":"account","type":"address","internalType":"address"}],"outputs":[{"name":"","type":"uint256","internalType":"uint256"}],"stateMutability":"view"},{"type":"function","name":"getExtraRewarder","inputs":[{"name":"pid","type":"uint256","internalType":"uint256"}],"outputs":[{"name":"","type":"address","internalType":"contract IMasterChefRewarder"}],"stateMutability":"view"},{"type":"function","name":"getLastUpdateTimestamp","inputs":[{"name":"pid","type":"uint256","internalType":"uint256"}],"outputs":[{"name":"","type":"uint256","internalType":"uint256"}],"stateMutability":"view"},{"type":"function","name":"getMoe","inputs":[],"outputs":[{"name":"","type":"address","internalType":"contract IMoe"}],"stateMutability":"view"},{"type":"function","name":"getMoePerSecond","inputs":[],"outputs":[{"name":"","type":"uint256","internalType":"uint256"}],"stateMutability":"view"},{"type":"function","name":"getMoePerSecondForPid","inputs":[{"name":"pid","type":"uint256","internalType":"uint256"}],"outputs":[{"name":"","type":"uint256","internalType":"uint256"}],"stateMutability":"view"},{"type":"function","name":"getNumberOfFarms","inputs":[],"outputs":[{"name":"","type":"uint256","internalType":"uint256"}],"stateMutability":"view"},{"type":"function","name":"getPendingRewards","inputs":[{"name":"account","type":"address","internalType":"address"},{"name":"pids","type":"uint256[]","internalType":"uint256[]"}],"outputs":[{"name":"moeRewards","type":"uint256[]","internalType":"uint256[]"},{"name":"extraTokens","type":"address[]","internalType":"contract IERC20[]"},{"name":"extraRewards","type":"uint256[]","internalType":"uint256[]"}],"stateMutability":"view"},{"type":"function","name":"getRewarderFactory","inputs":[],"outputs":[{"name":"","type":"address","internalType":"contract IRewarderFactory"}],"stateMutability":"view"},{"type":"function","name":"getToken","inputs":[{"name":"pid","type":"uint256","internalType":"uint256"}],"outputs":[{"name":"","type":"address","internalType":"contract IERC20"}],"stateMutability":"view"},{"type":"function","name":"getTotalDeposit","inputs":[{"name":"pid","type":"uint256","internalType":"uint256"}],"outputs":[{"name":"","type":"uint256","internalType":"uint256"}],"stateMutability":"view"},{"type":"function","name":"getTreasury","inputs":[],"outputs":[{"name":"","type":"address","internalType":"address"}],"stateMutability":"view"},{"type":"function","name":"getTreasuryShare","inputs":[],"outputs":[{"name":"","type":"uint256","internalType":"uint256"}],"stateMutability":"view"},{"type":"function","name":"getVeMoe","inputs":[],"outputs":[{"name":"","type":"address","internalType":"contract IVeMoe"}],"stateMutability":"view"},{"type":"function","name":"initialize","inputs":[{"name":"initialOwner","type":"address","internalType":"address"},{"name":"treasury","type":"address","internalType":"address"},{"name":"futureFunding","type":"address","internalType":"address"},{"name":"team","type":"address","internalType":"address"},{"name":"futureFundingAmount","type":"uint256","internalType":"uint256"},{"name":"teamAmount","type":"uint256","internalType":"uint256"}],"outputs":[],"stateMutability":"nonpayable"},{"type":"function","name":"owner","inputs":[],"outputs":[{"name":"","type":"address","internalType":"address"}],"stateMutability":"view"},{"type":"function","name":"pendingOwner","inputs":[],"outputs":[{"name":"","type":"address","internalType":"address"}],"stateMutability":"view"},{"type":"function","name":"renounceOwnership","inputs":[],"outputs":[],"stateMutability":"pure"},{"type":"function","name":"setExtraRewarder","inputs":[{"name":"pid","type":"uint256","internalType":"uint256"},{"name":"extraRewarder","type":"address","internalType":"contract IMasterChefRewarder"}],"outputs":[],"stateMutability":"nonpayable"},{"type":"function","name":"setMoePerSecond","inputs":[{"name":"moePerSecond","type":"uint96","internalType":"uint96"}],"outputs":[],"stateMutability":"nonpayable"},{"type":"function","name":"setTreasury","inputs":[{"name":"treasury","type":"address","internalType":"address"}],"outputs":[],"stateMutability":"nonpayable"},{"type":"function","name":"transferOwnership","inputs":[{"name":"newOwner","type":"address","internalType":"address"}],"outputs":[],"stateMutability":"nonpayable"},{"type":"function","name":"updateAll","inputs":[{"name":"pids","type":"uint256[]","internalType":"uint256[]"}],"outputs":[],"stateMutability":"nonpayable"},{"type":"function","name":"withdraw","inputs":[{"name":"pid","type":"uint256","internalType":"uint256"},{"name":"amount","type":"uint256","internalType":"uint256"}],"outputs":[],"stateMutability":"nonpayable"},{"type":"event","name":"ExtraRewarderSet","inputs":[{"name":"pid","type":"uint256","indexed":true,"internalType":"uint256"},{"name":"extraRewarder","type":"address","indexed":false,"internalType":"contract IMasterChefRewarder"}],"anonymous":false},{"type":"event","name":"FarmAdded","inputs":[{"name":"pid","type":"uint256","indexed":true,"internalType":"uint256"},{"name":"token","type":"address","indexed":true,"internalType":"contract IERC20"}],"anonymous":false},{"type":"event","name":"Initialized","inputs":[{"name":"version","type":"uint64","indexed":false,"internalType":"uint64"}],"anonymous":false},{"type":"event","name":"MoePerSecondSet","inputs":[{"name":"moePerSecond","type":"uint256","indexed":false,"internalType":"uint256"}],"anonymous":false},{"type":"event","name":"OwnershipTransferStarted","inputs":[{"name":"previousOwner","type":"address","indexed":true,"internalType":"address"},{"name":"newOwner","type":"address","indexed":true,"internalType":"address"}],"anonymous":false},{"type":"event","name":"OwnershipTransferred","inputs":[{"name":"previousOwner","type":"address","indexed":true,"internalType":"address"},{"name":"newOwner","type":"address","indexed":true,"internalType":"address"}],"anonymous":false},{"type":"event","name":"PositionModified","inputs":[{"name":"pid","type":"uint256","indexed":true,"internalType":"uint256"},{"name":"account","type":"address","indexed":true,"internalType":"address"},{"name":"deltaAmount","type":"int256","indexed":false,"internalType":"int256"},{"name":"moeReward","type":"uint256","indexed":false,"internalType":"uint256"}],"anonymous":false},{"type":"event","name":"TreasurySet","inputs":[{"name":"treasury","type":"address","indexed":true,"internalType":"address"}],"anonymous":false},{"type":"error","name":"AddressEmptyCode","inputs":[{"name":"target","type":"address","internalType":"address"}]},{"type":"error","name":"AddressInsufficientBalance","inputs":[{"name":"account","type":"address","internalType":"address"}]},{"type":"error","name":"FailedInnerCall","inputs":[]},{"type":"error","name":"InvalidInitialization","inputs":[]},{"type":"error","name":"MasterChef__CannotRenounceOwnership","inputs":[]},{"type":"error","name":"MasterChef__InvalidMoePerSecond","inputs":[]},{"type":"error","name":"MasterChef__InvalidShares","inputs":[]},{"type":"error","name":"MasterChef__MintFailed","inputs":[]},{"type":"error","name":"MasterChef__NotMasterchefRewarder","inputs":[]},{"type":"error","name":"MasterChef__ZeroAddress","inputs":[]},{"type":"error","name":"Math__UnderOverflow","inputs":[]},{"type":"error","name":"NotInitializing","inputs":[]},{"type":"error","name":"OwnableInvalidOwner","inputs":[{"name":"owner","type":"address","internalType":"address"}]},{"type":"error","name":"OwnableUnauthorizedAccount","inputs":[{"name":"account","type":"address","internalType":"address"}]},{"type":"error","name":"SafeERC20FailedOperation","inputs":[{"name":"token","type":"address","internalType":"address"}]}],"bytecode":{"object":"0x6101006040523480156200001257600080fd5b50604051620027bb380380620027bb833981016040819052620000359162000156565b6200003f6200008c565b670de0b6b3a7640000811115620000695760405163169cfea160e11b815260040160405180910390fd5b6001600160a01b0393841660805291831660a05290911660c05260e052620001b0565b7ff0c57e16840df040f15088dc2f81fe391c3923bec73e23a9662efc9c229c6a00805468010000000000000000900460ff1615620000dd5760405163f92ee8a960e01b815260040160405180910390fd5b80546001600160401b03908116146200013d5780546001600160401b0319166001600160401b0390811782556040519081527fc7f505b2f371ae2175ee4913f4499e1f2633a7b5936321eed1cdaeb6115181d29060200160405180910390a15b50565b6001600160a01b03811681146200013d57600080fd5b600080600080608085870312156200016d57600080fd5b84516200017a8162000140565b60208601519094506200018d8162000140565b6040860151909350620001a08162000140565b6060959095015193969295505050565b60805160a05160c05160e05161257d6200023e600039600081816102f901526117cd0152600081816102b8015261127f015260008181610327015281816104d801528181610c47015281816110cd0152818161175601526118cd01526000818161035501528181610da801528181610e4d0152818161155901528181611a7d0152611b07015261257d6000f3fe608060405234801561001057600080fd5b50600436106101cf5760003560e01c80637e63f02811610104578063d4f9dd1d116100a2578063e4b50cb811610071578063e4b50cb8146103fb578063e665b4141461040e578063f0f4426014610421578063f2fde38b1461043457600080fd5b8063d4f9dd1d146103ba578063d7c41c79146103cd578063e2bbb158146103e0578063e30c3978146103f357600080fd5b80639f489e4e116100de5780639f489e4e14610379578063b507a7001461038c578063c7a617831461039f578063d23ab97a146103a757600080fd5b80637e63f028146103255780638da5cb5b1461034b57806393f945031461035357600080fd5b8063566aff6a116101715780636ba4c1381161014b5780636ba4c138146102dc578063715018a6146102ef578063796441bb146102f757806379ba50971461031d57600080fd5b8063566aff6a146102725780635b92d831146102945780635c4323ab146102b657600080fd5b80633b19e84a116101ad5780633b19e84a1461020f578063441a3e701461023957806352c28fab1461024c5780635312ea8e1461025f57600080fd5b806304093c5b146101d457806321bd31de146101e95780632498aef7146101fc575b600080fd5b6101e76101e2366004612049565b610447565b005b6101e76101f73660046120a0565b610487565b6101e761020a3660046120d0565b610499565b6000546001600160a01b03165b6040516001600160a01b0390911681526020015b60405180910390f35b6101e76102473660046120f9565b6105bd565b6101e761025a36600461211b565b61061b565b6101e761026d366004612149565b610778565b610285610280366004612162565b61082b565b604051610230939291906121f2565b600254600160a01b90046001600160601b03165b604051908152602001610230565b7f000000000000000000000000000000000000000000000000000000000000000061021c565b6101e76102ea366004612049565b610aab565b6101e7610aef565b7f00000000000000000000000000000000000000000000000000000000000000006102a8565b6101e7610b08565b7f000000000000000000000000000000000000000000000000000000000000000061021c565b61021c610b55565b7f000000000000000000000000000000000000000000000000000000000000000061021c565b6102a86103873660046120a0565b610b8a565b6102a861039a366004612149565b610bc2565b6003546102a8565b6102a86103b5366004612149565b610bf3565b6102a86103c8366004612149565b610c20565b6101e76103db366004612265565b610ccc565b6101e76103ee3660046120f9565b610f42565b61021c610f94565b61021c610409366004612149565b610fbd565b61021c61041c366004612149565b610ff5565b6101e761042f3660046122d3565b61102d565b6101e76104423660046122d3565b61103e565b6104838282808060200260200160405190810160405280939291908181526020018383602002808284376000920191909152506110c392505050565b5050565b61048f611217565b610483828261124b565b6104a1611217565b678ac7230489e80000816001600160601b031611156104d357604051630793e7b960e31b815260040160405180910390fd5b6105617f00000000000000000000000000000000000000000000000000000000000000006001600160a01b031663e1e4d4196040518163ffffffff1660e01b8152600401600060405180830381865afa158015610534573d6000803e3d6000fd5b505050506040513d6000823e601f3d908101601f1916820160405261055c9190810190612306565b6110c3565b600280546001600160a01b0316600160a01b6001600160601b038416908102919091179091556040519081527f953a915a77e51c643cf28682620b504b7d9df49407f9860e5edeb38babb834f99060200160405180910390a150565b6105d982336105cb84611498565b6105d4906123ce565b6114c6565b8015610483576104833382600385815481106105f7576105f76123ea565b60009182526020909120600560079092020101546001600160a01b0316919061166d565b610623611217565b60038054600181018255600091909152600781027fc2575a0e9e593c00f959f8c92f12db2869c3395a3b0502d05e2516446f71f860810180546001600160a01b0319166001600160a01b0386811691909117909155427fc2575a0e9e593c00f959f8c92f12db2869c3395a3b0502d05e2516446f71f85d8301557fc2575a0e9e593c00f959f8c92f12db2869c3395a3b0502d05e2516446f71f85b909101908316156106d3576106d3828461124b565b6040516370a0823160e01b81523060048201526001600160a01b038516906370a0823190602401602060405180830381865afa158015610717573d6000803e3d6000fd5b505050506040513d601f19601f8201168201806040525081019061073b9190612400565b506040516001600160a01b0385169083907f9d7bf7d496ad44415bf088986e68bcfc590380ab2bf411124744b485329f2fc690600090a350505050565b60006003828154811061078d5761078d6123ea565b60009182526020822060079091020191506107a882336116e1565b905060006107b582611498565b6107be906123ce565b90506107cb833383611701565b50505060058401546107e891506001600160a01b0316338461166d565b6040805182815260006020820152339186917f0e006e790dc8db480892a6d5c0bf539c411db278e5185b07d46bdcc110ba6af5910160405180910390a350505050565b606080808367ffffffffffffffff811115610848576108486122f0565b604051908082528060200260200182016040528015610871578160200160208202803683370190505b5092508367ffffffffffffffff81111561088d5761088d6122f0565b6040519080825280602002602001820160405280156108b6578160200160208202803683370190505b5091508367ffffffffffffffff8111156108d2576108d26122f0565b6040519080825280602002602001820160405280156108fb578160200160208202803683370190505b50905060005b84811015610aa157600086868381811061091d5761091d6123ea565b90506020020135905060006003828154811061093b5761093b6123ea565b60009182526020822060079091020191506002820190829061095d828d6116e1565b90506000610969835490565b9050600061098061097b86898561172c565b6117bc565b91506109919050858f85858561180f565b8b89815181106109a3576109a36123ea565b60209081029190910101525060068501546001600160a01b03168015610a895760405163c718325160e01b81526001600160a01b038f81166004830152602482018590526044820184905282169063c7183251906064016040805180830381865afa158015610a16573d6000803e3d6000fd5b505050506040513d601f19601f82011682018060405250810190610a3a9190612419565b8b8a81518110610a4c57610a4c6123ea565b602002602001018b8b81518110610a6557610a656123ea565b6020026020010182815250826001600160a01b03166001600160a01b031681525050505b5050505050505080610a9a90612447565b9050610901565b5093509350939050565b60005b81811015610aea57610ada838383818110610acb57610acb6123ea565b905060200201353360006114c6565b610ae381612447565b9050610aae565b505050565b60405163a3dd49c760e01b815260040160405180910390fd5b3380610b12610f94565b6001600160a01b031614610b495760405163118cdaa760e01b81526001600160a01b03821660048201526024015b60405180910390fd5b610b5281611875565b50565b6000807f9016d09d72d40fdae2fd8ceac6b6234c7706214fd39c1cd1e609a0528c1993005b546001600160a01b031692915050565b6000610bb98260038581548110610ba357610ba36123ea565b60009182526020909120600790910201906116e1565b90505b92915050565b600060038281548110610bd757610bd76123ea565b9060005260206000209060070201600201600001549050919050565b6000610bbc60038381548110610c0b57610c0b6123ea565b90600052602060002090600702016000015490565b6000610bbc82600260149054906101000a90046001600160601b03166001600160601b03167f00000000000000000000000000000000000000000000000000000000000000006001600160a01b03166306aba0e16040518163ffffffff1660e01b8152600401602060405180830381865afa158015610ca3573d6000803e3d6000fd5b505050506040513d601f19601f82011682018060405250810190610cc79190612400565b6118ad565b7ff0c57e16840df040f15088dc2f81fe391c3923bec73e23a9662efc9c229c6a0080546002919068010000000000000000900460ff1680610d1b5750805467ffffffffffffffff808416911610155b15610d395760405163f92ee8a960e01b815260040160405180910390fd5b805468ffffffffffffffffff191667ffffffffffffffff83161768010000000000000000178155610d6988611963565b610d7287611974565b6000808511610d82576000610e15565b6040516340c10f1960e01b81526001600160a01b038881166004830152602482018790527f000000000000000000000000000000000000000000000000000000000000000016906340c10f19906044016020604051808303816000875af1158015610df1573d6000803e3d6000fd5b505050506040513d601f19601f82011682018060405250810190610e159190612400565b90506000808511610e27576000610eba565b6040516340c10f1960e01b81526001600160a01b038881166004830152602482018790527f000000000000000000000000000000000000000000000000000000000000000016906340c10f19906044016020604051808303816000875af1158015610e96573d6000803e3d6000fd5b505050506040513d601f19601f82011682018060405250810190610eba9190612400565b90508582141580610ecb5750848114155b15610ee95760405163b9f8198b60e01b815260040160405180910390fd5b5050805468ff00000000000000001916815560405167ffffffffffffffff831681527fc7f505b2f371ae2175ee4913f4499e1f2633a7b5936321eed1cdaeb6115181d29060200160405180910390a15050505050505050565b610f5082336105d484611498565b80156104835761048333308360038681548110610f6f57610f6f6123ea565b60009182526020909120600560079092020101546001600160a01b03169291906119e3565b6000807f237e158222e3e6968b72b9db0d8043aacf074ad9f650f0d1606b4d82ee432c00610b7a565b600060038281548110610fd257610fd26123ea565b60009182526020909120600560079092020101546001600160a01b031692915050565b60006003828154811061100a5761100a6123ea565b60009182526020909120600660079092020101546001600160a01b031692915050565b611035611217565b610b5281611974565b611046611217565b7f237e158222e3e6968b72b9db0d8043aacf074ad9f650f0d1606b4d82ee432c0080546001600160a01b0319166001600160a01b038316908117825561108a610b55565b6001600160a01b03167f38d16b8cac22d99fc7c124b9cd0de2d3fa1faef420bfe791d8c362d765e2270060405160405180910390a35050565b60008151905060007f00000000000000000000000000000000000000000000000000000000000000006001600160a01b0316638761e7fb6040518163ffffffff1660e01b8152600401602060405180830381865afa158015611129573d6000803e3d6000fd5b505050506040513d601f19601f8201168201806040525081019061114d9190612400565b600254909150600160a01b90046001600160601b031660005b83811015611210576000858281518110611182576111826123ea565b602002602001015190506000600382815481106111a1576111a16123ea565b600091825260208220600790910201915060028201906111bf835490565b905060006111ce838884611a22565b905060006111dd86838b6118ad565b905060006111ea82611a30565b90506111f7858583611b84565b50505050505050508061120990612447565b9050611166565b5050505050565b33611220610b55565b6001600160a01b0316146112495760405163118cdaa760e01b8152336004820152602401610b40565b565b6001600160a01b038116158015906112fe57506001604051634f4ee65b60e11b81526001600160a01b0383811660048301527f00000000000000000000000000000000000000000000000000000000000000001690639e9dccb690602401602060405180830381865afa1580156112c6573d6000803e3d6000fd5b505050506040513d601f19601f820116820180604052508101906112ea9190612476565b60038111156112fb576112fb612460565b14155b1561131c576040516376644cf960e11b815260040160405180910390fd5b600060038381548110611331576113316123ea565b60009182526020909120600660079092020101546001600160a01b0316905080156113b15760405163f1e023fd60e01b8152600481018490526001600160a01b0382169063f1e023fd90602401600060405180830381600087803b15801561139857600080fd5b505af11580156113ac573d6000803e3d6000fd5b505050505b6001600160a01b0382161561141b5760405163b1a867d560e01b8152600481018490526001600160a01b0383169063b1a867d590602401600060405180830381600087803b15801561140257600080fd5b505af1158015611416573d6000803e3d6000fd5b505050505b816003848154811061142f5761142f6123ea565b60009182526020918290206007919091020160060180546001600160a01b0319166001600160a01b03938416179055604051918416825284917fa0671cc6d1b10c28ed0b4e4a9eaa3a903f4fa57c3a02426bbcc453004fed8745910160405180910390a2505050565b60006001600160ff1b038211156114c2576040516308a942bb60e11b815260040160405180910390fd5b5090565b6000600384815481106114db576114db6123ea565b60009182526020822060066007909202019081015490925060028301916001600160a01b03909116908080611511868989611701565b509250925092506000611525868b8461172c565b9050600061153282611a30565b90506000611544888c88888887611bd5565b90508015611580576115806001600160a01b037f0000000000000000000000000000000000000000000000000000000000000000168c8361166d565b6001600160a01b038716156116195760405163870b50fd60e01b81526001600160a01b038c81166004830152602482018e905260448201889052606482018790526084820186905288169063870b50fd9060a4016020604051808303816000875af11580156115f3573d6000803e3d6000fd5b505050506040513d601f19601f820116820180604052508101906116179190612400565b505b604080518b8152602081018390526001600160a01b038d16918e917f0e006e790dc8db480892a6d5c0bf539c411db278e5185b07d46bdcc110ba6af5910160405180910390a3505050505050505050505050565b6040516001600160a01b03838116602483015260448201839052610aea91859182169063a9059cbb906064015b604051602081830303815290604052915060e01b6020820180517bffffffffffffffffffffffffffffffffffffffffffffffffffffffff8381831617835250505050611c59565b6001600160a01b0381166000908152600183016020526040812054610bb9565b600080808061171a876001600160a01b03881687611cbc565b93509350935093505b93509350935093565b6002546000906117b2908490611754908790600160a01b90046001600160601b031686611a22565b7f00000000000000000000000000000000000000000000000000000000000000006001600160a01b03166306aba0e16040518163ffffffff1660e01b8152600401602060405180830381865afa158015610ca3573d6000803e3d6000fd5b90505b9392505050565b600080670de0b6b3a76400006117f27f000000000000000000000000000000000000000000000000000000000000000085612497565b6117fc91906124ae565b915061180882846124d0565b9050915091565b60008061181c8484611d1b565b876001015461182b91906124e3565b90508415611867576001600160a01b03861660009081526002880160205260409020546118588287611d3f565b61186291906124d0565b61186a565b60005b979650505050505050565b7f237e158222e3e6968b72b9db0d8043aacf074ad9f650f0d1606b4d82ee432c0080546001600160a01b031916815561048382611d56565b600081156119595760405163d851fdfd60e01b81526004810185905282907f00000000000000000000000000000000000000000000000000000000000000006001600160a01b03169063d851fdfd90602401602060405180830381865afa15801561191c573d6000803e3d6000fd5b505050506040513d601f19601f820116820180604052508101906119409190612400565b61194a9085612497565b61195491906124ae565b6117b2565b5060009392505050565b61196b611dc7565b610b5281611e15565b6001600160a01b03811661199b576040516398e7ce9b60e01b815260040160405180910390fd5b600080546001600160a01b0319166001600160a01b038316908117825560405190917f3c864541ef71378c6229510ed90f376565ee42d9c5e0904a984a9e863e6db44f91a250565b6040516001600160a01b038481166024830152838116604483015260648201839052611a1c9186918216906323b872dd9060840161169a565b50505050565b60006117b284844285611e47565b600081600003611a4257506000919050565b600080611a4e846117bc565b6000546040516340c10f1960e01b81526001600160a01b039182166004820152602481018490529294509092507f000000000000000000000000000000000000000000000000000000000000000016906340c10f19906044016020604051808303816000875af1158015611ac6573d6000803e3d6000fd5b505050506040513d601f19601f82011682018060405250810190611aea9190612400565b506040516340c10f1960e01b8152306004820152602481018290527f00000000000000000000000000000000000000000000000000000000000000006001600160a01b0316906340c10f19906044016020604051808303816000875af1158015611b58573d6000803e3d6000fd5b505050506040513d601f19601f82011682018060405250810190611b7c9190612400565b949350505050565b600080611b918484611d1b565b8554909150421115611ba1574285555b8015611bc65780856001016000828254611bbb91906124e3565b925050819055611bcc565b84600101545b95945050505050565b600080611be3888585611b84565b90508515611c1f576001600160a01b0387166000908152600289016020526040902054611c108288611d3f565b611c1a91906124d0565b611c22565b60005b9150611c2e8186611d3f565b6001600160a01b03909716600090815260029098016020525060409096209490945550929392505050565b6000611c6e6001600160a01b03841683611e91565b90508051600014158015611c93575080806020019051810190611c9191906124f6565b155b15610aea57604051635274afe760e01b81526001600160a01b0384166004820152602401610b40565b6000828152600184016020526040812054845490919081848103611ce4575082915080611723565b611cee8486611e9f565b9250611cfa8286611e9f565b60008781526001890160205260409020849055808855905093509350935093565b60008215611d3657611d3183604084901b6124ae565b610bb9565b50600092915050565b60006040611d4d8484612497565b901c9392505050565b7f9016d09d72d40fdae2fd8ceac6b6234c7706214fd39c1cd1e609a0528c19930080546001600160a01b031981166001600160a01b03848116918217845560405192169182907f8be0079c531659141344cd1fd0a4f28419497f9722a3daafe3b4186f6b6457e090600090a3505050565b7ff0c57e16840df040f15088dc2f81fe391c3923bec73e23a9662efc9c229c6a005468010000000000000000900460ff1661124957604051631afcd79f60e31b815260040160405180910390fd5b611e1d611dc7565b6001600160a01b038116610b4957604051631e4fbdf760e01b815260006004820152602401610b40565b600081600003611e5957506000611b7c565b84546000428510611e6a5742611e6c565b845b9050818111611e7c57600061186a565b85611e8783836124d0565b61186a9190612497565b6060610bb983836000611edb565b8181016001600160ff1b0380841190821117156000819003611ed4576040516308a942bb60e11b815260040160405180910390fd5b5092915050565b606081471015611f005760405163cd78605960e01b8152306004820152602401610b40565b600080856001600160a01b03168486604051611f1c9190612518565b60006040518083038185875af1925050503d8060008114611f59576040519150601f19603f3d011682016040523d82523d6000602084013e611f5e565b606091505b5091509150611f6e868383611f78565b9695505050505050565b606082611f8d57611f8882611fd4565b6117b5565b8151158015611fa457506001600160a01b0384163b155b15611fcd57604051639996b31560e01b81526001600160a01b0385166004820152602401610b40565b50806117b5565b805115611fe45780518082602001fd5b604051630a12f52160e11b815260040160405180910390fd5b60008083601f84011261200f57600080fd5b50813567ffffffffffffffff81111561202757600080fd5b6020830191508360208260051b850101111561204257600080fd5b9250929050565b6000806020838503121561205c57600080fd5b823567ffffffffffffffff81111561207357600080fd5b61207f85828601611ffd565b90969095509350505050565b6001600160a01b0381168114610b5257600080fd5b600080604083850312156120b357600080fd5b8235915060208301356120c58161208b565b809150509250929050565b6000602082840312156120e257600080fd5b81356001600160601b03811681146117b557600080fd5b6000806040838503121561210c57600080fd5b50508035926020909101359150565b6000806040838503121561212e57600080fd5b82356121398161208b565b915060208301356120c58161208b565b60006020828403121561215b57600080fd5b5035919050565b60008060006040848603121561217757600080fd5b83356121828161208b565b9250602084013567ffffffffffffffff81111561219e57600080fd5b6121aa86828701611ffd565b9497909650939450505050565b600081518084526020808501945080840160005b838110156121e7578151875295820195908201906001016121cb565b509495945050505050565b60608152600061220560608301866121b7565b82810360208481019190915285518083528682019282019060005b818110156122455784516001600160a01b031683529383019391830191600101612220565b5050848103604086015261225981876121b7565b98975050505050505050565b60008060008060008060c0878903121561227e57600080fd5b86356122898161208b565b955060208701356122998161208b565b945060408701356122a98161208b565b935060608701356122b98161208b565b9598949750929560808101359460a0909101359350915050565b6000602082840312156122e557600080fd5b81356117b58161208b565b634e487b7160e01b600052604160045260246000fd5b6000602080838503121561231957600080fd5b825167ffffffffffffffff8082111561233157600080fd5b818501915085601f83011261234557600080fd5b815181811115612357576123576122f0565b8060051b604051601f19603f8301168101818110858211171561237c5761237c6122f0565b60405291825284820192508381018501918883111561239a57600080fd5b938501935b828510156122595784518452938501939285019261239f565b634e487b7160e01b600052601160045260246000fd5b6000600160ff1b82016123e3576123e36123b8565b5060000390565b634e487b7160e01b600052603260045260246000fd5b60006020828403121561241257600080fd5b5051919050565b6000806040838503121561242c57600080fd5b82516124378161208b565b6020939093015192949293505050565b600060018201612459576124596123b8565b5060010190565b634e487b7160e01b600052602160045260246000fd5b60006020828403121561248857600080fd5b8151600481106117b557600080fd5b8082028115828204841417610bbc57610bbc6123b8565b6000826124cb57634e487b7160e01b600052601260045260246000fd5b500490565b81810381811115610bbc57610bbc6123b8565b80820180821115610bbc57610bbc6123b8565b60006020828403121561250857600080fd5b815180151581146117b557600080fd5b6000825160005b81811015612539576020818601810151858301520161251f565b50600092019182525091905056fea2646970667358221220f6422b0cd3d3de6c91686663c50ed38bba1dbc1bb8c0a455c4b2a3d06797a60c64736f6c63430008140033","linkReferences":{}},"methodIdentifiers":{"acceptOwnership()":"79ba5097","add(address,address)":"52c28fab","claim(uint256[])":"6ba4c138","deposit(uint256,uint256)":"e2bbb158","emergencyWithdraw(uint256)":"5312ea8e","getDeposit(uint256,address)":"9f489e4e","getExtraRewarder(uint256)":"e665b414","getLastUpdateTimestamp(uint256)":"b507a700","getMoe()":"93f94503","getMoePerSecond()":"5b92d831","getMoePerSecondForPid(uint256)":"d4f9dd1d","getNumberOfFarms()":"c7a61783","getPendingRewards(address,uint256[])":"566aff6a","getRewarderFactory()":"5c4323ab","getToken(uint256)":"e4b50cb8","getTotalDeposit(uint256)":"d23ab97a","getTreasury()":"3b19e84a","getTreasuryShare()":"796441bb","getVeMoe()":"7e63f028","initialize(address,address,address,address,uint256,uint256)":"d7c41c79","owner()":"8da5cb5b","pendingOwner()":"e30c3978","renounceOwnership()":"715018a6","setExtraRewarder(uint256,address)":"21bd31de","setMoePerSecond(uint96)":"2498aef7","setTreasury(address)":"f0f44260","transferOwnership(address)":"f2fde38b","updateAll(uint256[])":"04093c5b","withdraw(uint256,uint256)":"441a3e70"},"id":66}