{
  "abi": [
    {
      "inputs": [
        {
          "internalType": "contract IMoe",
          "name": "moe",
          "type": "address"
        },
        {
          "internalType": "contract IVeMoe",
          "name": "veMoe",
          "type": "address"
        },
        {
          "internalType": "contract IRewarderFactory",
          "name": "factory",
          "type": "address"
        },
        {
          "internalType": "uint256",
          "name": "treasuryShare",
          "type": "uint256"
        },
        {
          "internalType": "uint256",
          "name": "futureFundingShare",
          "type": "uint256"
        },
        {
          "internalType": "uint256",
          "name": "teamShare",
          "type": "uint256"
        }
      ],
      "stateMutability": "nonpayable",
      "type": "constructor"
    },
    {
      "inputs": [
        {
          "internalType": "address",
          "name": "target",
          "type": "address"
        }
      ],
      "name": "AddressEmptyCode",
      "type": "error"
    },
    {
      "inputs": [
        {
          "internalType": "address",
          "name": "account",
          "type": "address"
        }
      ],
      "name": "AddressInsufficientBalance",
      "type": "error"
    },
    {
      "inputs": [],
      "name": "FailedInnerCall",
      "type": "error"
    },
    {
      "inputs": [],
      "name": "InvalidInitialization",
      "type": "error"
    },
    {
      "inputs": [],
      "name": "MasterChef__InvalidShares",
      "type": "error"
    },
    {
      "inputs": [],
      "name": "MasterChef__NotMasterchefRewarder",
      "type": "error"
    },
    {
      "inputs": [],
      "name": "MasterChef__ZeroAddress",
      "type": "error"
    },
    {
      "inputs": [],
      "name": "Math__UnderOverflow",
      "type": "error"
    },
    {
      "inputs": [],
      "name": "NotInitializing",
      "type": "error"
    },
    {
      "inputs": [
        {
          "internalType": "address",
          "name": "owner",
          "type": "address"
        }
      ],
      "name": "OwnableInvalidOwner",
      "type": "error"
    },
    {
      "inputs": [
        {
          "internalType": "address",
          "name": "account",
          "type": "address"
        }
      ],
      "name": "OwnableUnauthorizedAccount",
      "type": "error"
    },
    {
      "inputs": [
        {
          "internalType": "address",
          "name": "token",
          "type": "address"
        }
      ],
      "name": "SafeERC20FailedOperation",
      "type": "error"
    },
    {
      "anonymous": false,
      "inputs": [
        {
          "indexed": true,
          "internalType": "uint256",
          "name": "pid",
          "type": "uint256"
        },
        {
          "indexed": false,
          "internalType": "contract IMasterChefRewarder",
          "name": "extraRewarder",
          "type": "address"
        }
      ],
      "name": "ExtraRewarderSet",
      "type": "event"
    },
    {
      "anonymous": false,
      "inputs": [
        {
          "indexed": true,
          "internalType": "uint256",
          "name": "pid",
          "type": "uint256"
        },
        {
          "indexed": true,
          "internalType": "contract IERC20",
          "name": "token",
          "type": "address"
        }
      ],
      "name": "FarmAdded",
      "type": "event"
    },
    {
      "anonymous": false,
      "inputs": [
        {
          "indexed": true,
          "internalType": "address",
          "name": "futureFunding",
          "type": "address"
        }
      ],
      "name": "FutureFundingSet",
      "type": "event"
    },
    {
      "anonymous": false,
      "inputs": [
        {
          "indexed": false,
          "internalType": "uint64",
          "name": "version",
          "type": "uint64"
        }
      ],
      "name": "Initialized",
      "type": "event"
    },
    {
      "anonymous": false,
      "inputs": [
        {
          "indexed": false,
          "internalType": "uint256",
          "name": "moePerSecond",
          "type": "uint256"
        }
      ],
      "name": "MoePerSecondSet",
      "type": "event"
    },
    {
      "anonymous": false,
      "inputs": [
        {
          "indexed": true,
          "internalType": "address",
          "name": "previousOwner",
          "type": "address"
        },
        {
          "indexed": true,
          "internalType": "address",
          "name": "newOwner",
          "type": "address"
        }
      ],
      "name": "OwnershipTransferStarted",
      "type": "event"
    },
    {
      "anonymous": false,
      "inputs": [
        {
          "indexed": true,
          "internalType": "address",
          "name": "previousOwner",
          "type": "address"
        },
        {
          "indexed": true,
          "internalType": "address",
          "name": "newOwner",
          "type": "address"
        }
      ],
      "name": "OwnershipTransferred",
      "type": "event"
    },
    {
      "anonymous": false,
      "inputs": [
        {
          "indexed": true,
          "internalType": "uint256",
          "name": "pid",
          "type": "uint256"
        },
        {
          "indexed": true,
          "internalType": "address",
          "name": "account",
          "type": "address"
        },
        {
          "indexed": false,
          "internalType": "int256",
          "name": "deltaAmount",
          "type": "int256"
        },
        {
          "indexed": false,
          "internalType": "uint256",
          "name": "moeReward",
          "type": "uint256"
        }
      ],
      "name": "PositionModified",
      "type": "event"
    },
    {
      "anonymous": false,
      "inputs": [
        {
          "indexed": true,
          "internalType": "address",
          "name": "team",
          "type": "address"
        }
      ],
      "name": "TeamSet",
      "type": "event"
    },
    {
      "anonymous": false,
      "inputs": [
        {
          "indexed": true,
          "internalType": "address",
          "name": "treasury",
          "type": "address"
        }
      ],
      "name": "TreasurySet",
      "type": "event"
    },
    {
      "inputs": [],
      "name": "acceptOwnership",
      "outputs": [],
      "stateMutability": "nonpayable",
      "type": "function"
    },
    {
      "inputs": [
        {
          "internalType": "contract IERC20",
          "name": "token",
          "type": "address"
        },
        {
          "internalType": "contract IMasterChefRewarder",
          "name": "extraRewarder",
          "type": "address"
        }
      ],
      "name": "add",
      "outputs": [],
      "stateMutability": "nonpayable",
      "type": "function"
    },
    {
      "inputs": [
        {
          "internalType": "uint256[]",
          "name": "pids",
          "type": "uint256[]"
        }
      ],
      "name": "claim",
      "outputs": [],
      "stateMutability": "nonpayable",
      "type": "function"
    },
    {
      "inputs": [
        {
          "internalType": "uint256",
          "name": "pid",
          "type": "uint256"
        },
        {
          "internalType": "uint256",
          "name": "amount",
          "type": "uint256"
        }
      ],
      "name": "deposit",
      "outputs": [],
      "stateMutability": "nonpayable",
      "type": "function"
    },
    {
      "inputs": [
        {
          "internalType": "uint256",
          "name": "pid",
          "type": "uint256"
        }
      ],
      "name": "emergencyWithdraw",
      "outputs": [],
      "stateMutability": "nonpayable",
      "type": "function"
    },
    {
      "inputs": [
        {
          "internalType": "uint256",
          "name": "pid",
          "type": "uint256"
        },
        {
          "internalType": "address",
          "name": "account",
          "type": "address"
        }
      ],
      "name": "getDeposit",
      "outputs": [
        {
          "internalType": "uint256",
          "name": "",
          "type": "uint256"
        }
      ],
      "stateMutability": "view",
      "type": "function"
    },
    {
      "inputs": [
        {
          "internalType": "uint256",
          "name": "pid",
          "type": "uint256"
        }
      ],
      "name": "getExtraRewarder",
      "outputs": [
        {
          "internalType": "contract IMasterChefRewarder",
          "name": "",
          "type": "address"
        }
      ],
      "stateMutability": "view",
      "type": "function"
    },
    {
      "inputs": [],
      "name": "getFutureFunding",
      "outputs": [
        {
          "internalType": "address",
          "name": "",
          "type": "address"
        }
      ],
      "stateMutability": "view",
      "type": "function"
    },
    {
      "inputs": [],
      "name": "getFutureFundingShare",
      "outputs": [
        {
          "internalType": "uint256",
          "name": "",
          "type": "uint256"
        }
      ],
      "stateMutability": "view",
      "type": "function"
    },
    {
      "inputs": [
        {
          "internalType": "uint256",
          "name": "pid",
          "type": "uint256"
        }
      ],
      "name": "getLastUpdateTimestamp",
      "outputs": [
        {
          "internalType": "uint256",
          "name": "",
          "type": "uint256"
        }
      ],
      "stateMutability": "view",
      "type": "function"
    },
    {
      "inputs": [],
      "name": "getMoe",
      "outputs": [
        {
          "internalType": "contract IMoe",
          "name": "",
          "type": "address"
        }
      ],
      "stateMutability": "view",
      "type": "function"
    },
    {
      "inputs": [],
      "name": "getMoePerSecond",
      "outputs": [
        {
          "internalType": "uint256",
          "name": "",
          "type": "uint256"
        }
      ],
      "stateMutability": "view",
      "type": "function"
    },
    {
      "inputs": [
        {
          "internalType": "uint256",
          "name": "pid",
          "type": "uint256"
        }
      ],
      "name": "getMoePerSecondForPid",
      "outputs": [
        {
          "internalType": "uint256",
          "name": "",
          "type": "uint256"
        }
      ],
      "stateMutability": "view",
      "type": "function"
    },
    {
      "inputs": [],
      "name": "getNumberOfFarms",
      "outputs": [
        {
          "internalType": "uint256",
          "name": "",
          "type": "uint256"
        }
      ],
      "stateMutability": "view",
      "type": "function"
    },
    {
      "inputs": [
        {
          "internalType": "address",
          "name": "account",
          "type": "address"
        },
        {
          "internalType": "uint256[]",
          "name": "pids",
          "type": "uint256[]"
        }
      ],
      "name": "getPendingRewards",
      "outputs": [
        {
          "internalType": "uint256[]",
          "name": "moeRewards",
          "type": "uint256[]"
        },
        {
          "internalType": "contract IERC20[]",
          "name": "extraTokens",
          "type": "address[]"
        },
        {
          "internalType": "uint256[]",
          "name": "extraRewards",
          "type": "uint256[]"
        }
      ],
      "stateMutability": "view",
      "type": "function"
    },
    {
      "inputs": [],
      "name": "getRewarderFactory",
      "outputs": [
        {
          "internalType": "contract IRewarderFactory",
          "name": "",
          "type": "address"
        }
      ],
      "stateMutability": "view",
      "type": "function"
    },
    {
      "inputs": [],
      "name": "getTeam",
      "outputs": [
        {
          "internalType": "address",
          "name": "",
          "type": "address"
        }
      ],
      "stateMutability": "view",
      "type": "function"
    },
    {
      "inputs": [],
      "name": "getTeamShare",
      "outputs": [
        {
          "internalType": "uint256",
          "name": "",
          "type": "uint256"
        }
      ],
      "stateMutability": "view",
      "type": "function"
    },
    {
      "inputs": [
        {
          "internalType": "uint256",
          "name": "pid",
          "type": "uint256"
        }
      ],
      "name": "getToken",
      "outputs": [
        {
          "internalType": "contract IERC20",
          "name": "",
          "type": "address"
        }
      ],
      "stateMutability": "view",
      "type": "function"
    },
    {
      "inputs": [
        {
          "internalType": "uint256",
          "name": "pid",
          "type": "uint256"
        }
      ],
      "name": "getTotalDeposit",
      "outputs": [
        {
          "internalType": "uint256",
          "name": "",
          "type": "uint256"
        }
      ],
      "stateMutability": "view",
      "type": "function"
    },
    {
      "inputs": [],
      "name": "getTreasury",
      "outputs": [
        {
          "internalType": "address",
          "name": "",
          "type": "address"
        }
      ],
      "stateMutability": "view",
      "type": "function"
    },
    {
      "inputs": [],
      "name": "getTreasuryShare",
      "outputs": [
        {
          "internalType": "uint256",
          "name": "",
          "type": "uint256"
        }
      ],
      "stateMutability": "view",
      "type": "function"
    },
    {
      "inputs": [],
      "name": "getVeMoe",
      "outputs": [
        {
          "internalType": "contract IVeMoe",
          "name": "",
          "type": "address"
        }
      ],
      "stateMutability": "view",
      "type": "function"
    },
    {
      "inputs": [
        {
          "internalType": "address",
          "name": "initialOwner",
          "type": "address"
        },
        {
          "internalType": "address",
          "name": "treasury",
          "type": "address"
        },
        {
          "internalType": "address",
          "name": "futureFunding",
          "type": "address"
        },
        {
          "internalType": "address",
          "name": "team",
          "type": "address"
        }
      ],
      "name": "initialize",
      "outputs": [],
      "stateMutability": "nonpayable",
      "type": "function"
    },
    {
      "inputs": [],
      "name": "owner",
      "outputs": [
        {
          "internalType": "address",
          "name": "",
          "type": "address"
        }
      ],
      "stateMutability": "view",
      "type": "function"
    },
    {
      "inputs": [],
      "name": "pendingOwner",
      "outputs": [
        {
          "internalType": "address",
          "name": "",
          "type": "address"
        }
      ],
      "stateMutability": "view",
      "type": "function"
    },
    {
      "inputs": [],
      "name": "renounceOwnership",
      "outputs": [],
      "stateMutability": "nonpayable",
      "type": "function"
    },
    {
      "inputs": [
        {
          "internalType": "uint256",
          "name": "pid",
          "type": "uint256"
        },
        {
          "internalType": "contract IMasterChefRewarder",
          "name": "extraRewarder",
          "type": "address"
        }
      ],
      "name": "setExtraRewarder",
      "outputs": [],
      "stateMutability": "nonpayable",
      "type": "function"
    },
    {
      "inputs": [
        {
          "internalType": "address",
          "name": "futureFunding",
          "type": "address"
        }
      ],
      "name": "setFutureFunding",
      "outputs": [],
      "stateMutability": "nonpayable",
      "type": "function"
    },
    {
      "inputs": [
        {
          "internalType": "uint96",
          "name": "moePerSecond",
          "type": "uint96"
        }
      ],
      "name": "setMoePerSecond",
      "outputs": [],
      "stateMutability": "nonpayable",
      "type": "function"
    },
    {
      "inputs": [
        {
          "internalType": "address",
          "name": "team",
          "type": "address"
        }
      ],
      "name": "setTeam",
      "outputs": [],
      "stateMutability": "nonpayable",
      "type": "function"
    },
    {
      "inputs": [
        {
          "internalType": "address",
          "name": "treasury",
          "type": "address"
        }
      ],
      "name": "setTreasury",
      "outputs": [],
      "stateMutability": "nonpayable",
      "type": "function"
    },
    {
      "inputs": [
        {
          "internalType": "address",
          "name": "newOwner",
          "type": "address"
        }
      ],
      "name": "transferOwnership",
      "outputs": [],
      "stateMutability": "nonpayable",
      "type": "function"
    },
    {
      "inputs": [
        {
          "internalType": "uint256[]",
          "name": "pids",
          "type": "uint256[]"
        }
      ],
      "name": "updateAll",
      "outputs": [],
      "stateMutability": "nonpayable",
      "type": "function"
    },
    {
      "inputs": [
        {
          "internalType": "uint256",
          "name": "pid",
          "type": "uint256"
        },
        {
          "internalType": "uint256",
          "name": "amount",
          "type": "uint256"
        }
      ],
      "name": "withdraw",
      "outputs": [],
      "stateMutability": "nonpayable",
      "type": "function"
    }
  ],
  "bytecode": {
    "object": "0x6101406040523480156200001257600080fd5b5060405162002c5e38038062002c5e83398101604081905262000035916200017d565b6200003f620000b3565b670de0b6b3a764000081620000558486620001ed565b620000619190620001ed565b1115620000815760405163169cfea160e11b815260040160405180910390fd5b6001600160a01b0395861660805293851660a0529190931660c05260e092909252610100919091526101205262000215565b7ff0c57e16840df040f15088dc2f81fe391c3923bec73e23a9662efc9c229c6a00805468010000000000000000900460ff1615620001045760405163f92ee8a960e01b815260040160405180910390fd5b80546001600160401b0390811614620001645780546001600160401b0319166001600160401b0390811782556040519081527fc7f505b2f371ae2175ee4913f4499e1f2633a7b5936321eed1cdaeb6115181d29060200160405180910390a15b50565b6001600160a01b03811681146200016457600080fd5b60008060008060008060c087890312156200019757600080fd5b8651620001a48162000167565b6020880151909650620001b78162000167565b6040880151909550620001ca8162000167565b80945050606087015192506080870151915060a087015190509295509295509295565b808201808211156200020f57634e487b7160e01b600052601160045260246000fd5b92915050565b60805160a05160c05160e0516101005161012051612982620002dc6000396000818161042b0152611a1f0152600081816103f201526119de01526000818161035f015261199d01526000818161031e01526113af01526000818161038d0152818161059001528181610d0c01528181610d8f01528181610e32015281816111940152818161185f015281816119040152611c3d0152600081816103cc0152818161168801528181611d2901528181611dc001528181611e590152611ee501526129826000f3fe608060405234801561001057600080fd5b50600436106102115760003560e01c80638bce6edd11610125578063d445ac47116100ad578063e4b50cb81161007c578063e4b50cb8146104be578063e665b414146104d1578063f0f44260146104e4578063f2fde38b146104f7578063f8c8765e1461050a57600080fd5b8063d445ac471461047d578063d4f9dd1d14610490578063e2bbb158146104a3578063e30c3978146104b657600080fd5b80639f489e4e116100f45780639f489e4e14610416578063af32feb314610429578063b507a7001461044f578063c7a6178314610462578063d23ab97a1461046a57600080fd5b80638bce6edd146103b15780638da5cb5b146103c257806393f94503146103ca5780639b5ec70c146103f057600080fd5b80635312ea8e116101a85780636ba4c138116101775780636ba4c13814610342578063715018a614610355578063796441bb1461035d57806379ba5097146103835780637e63f0281461038b57600080fd5b80635312ea8e146102c5578063566aff6a146102d85780635b92d831146102fa5780635c4323ab1461031c57600080fd5b80632498aef7116101e45780632498aef71461027b5780633b19e84a1461028e578063441a3e701461029f57806352c28fab146102b257600080fd5b806304093c5b14610216578063095cf5c61461022b57806313580ae71461023e57806321bd31de14610268575b600080fd5b610229610224366004612460565b61051d565b005b6102296102393660046124b7565b61055d565b6001546001600160a01b03165b6040516001600160a01b0390911681526020015b60405180910390f35b6102296102763660046124d4565b610571565b610229610289366004612504565b610583565b6000546001600160a01b031661024b565b6102296102ad36600461252d565b610675565b6102296102c036600461254f565b6106d3565b6102296102d336600461257d565b610830565b6102eb6102e6366004612596565b6108e3565b60405161025f93929190612626565b600254600160a01b90046001600160601b03165b60405190815260200161025f565b7f000000000000000000000000000000000000000000000000000000000000000061024b565b610229610350366004612460565b610b75565b610229610bb9565b7f000000000000000000000000000000000000000000000000000000000000000061030e565b610229610bcd565b7f000000000000000000000000000000000000000000000000000000000000000061024b565b6002546001600160a01b031661024b565b61024b610c17565b7f000000000000000000000000000000000000000000000000000000000000000061024b565b7f000000000000000000000000000000000000000000000000000000000000000061030e565b61030e6104243660046124d4565b610c4c565b7f000000000000000000000000000000000000000000000000000000000000000061030e565b61030e61045d36600461257d565b610c84565b60035461030e565b61030e61047836600461257d565b610cb5565b61022961048b3660046124b7565b610ce2565b61030e61049e36600461257d565b610cf3565b6102296104b136600461252d565b610edb565b61024b610f2d565b61024b6104cc36600461257d565b610f56565b61024b6104df36600461257d565b610f8e565b6102296104f23660046124b7565b610fc6565b6102296105053660046124b7565b610fd7565b610229610518366004612699565b61105c565b61055982828080602002602001604051908101604052809392919081815260200183836020028082843760009201919091525061118a92505050565b5050565b6105656112d8565b61056e8161130a565b50565b6105796112d8565b610559828261137b565b61058b6112d8565b6106197f00000000000000000000000000000000000000000000000000000000000000006001600160a01b031663e1e4d4196040518163ffffffff1660e01b8152600401600060405180830381865afa1580156105ec573d6000803e3d6000fd5b505050506040513d6000823e601f3d908101601f19168201604052610614919081019061270b565b61118a565b600280546001600160a01b0316600160a01b6001600160601b038416908102919091179091556040519081527f953a915a77e51c643cf28682620b504b7d9df49407f9860e5edeb38babb834f99060200160405180910390a150565b6106918233610683846115c8565b61068c906127d3565b6115f6565b8015610559576105593382600385815481106106af576106af6127ef565b60009182526020909120600560079092020101546001600160a01b0316919061179c565b6106db6112d8565b60038054600181018255600091909152600781027fc2575a0e9e593c00f959f8c92f12db2869c3395a3b0502d05e2516446f71f860810180546001600160a01b0319166001600160a01b0386811691909117909155427fc2575a0e9e593c00f959f8c92f12db2869c3395a3b0502d05e2516446f71f85d8301557fc2575a0e9e593c00f959f8c92f12db2869c3395a3b0502d05e2516446f71f85b9091019083161561078b5761078b828461137b565b6040516370a0823160e01b81523060048201526001600160a01b038516906370a0823190602401602060405180830381865afa1580156107cf573d6000803e3d6000fd5b505050506040513d601f19601f820116820180604052508101906107f39190612805565b506040516001600160a01b0385169083907f9d7bf7d496ad44415bf088986e68bcfc590380ab2bf411124744b485329f2fc690600090a350505050565b600060038281548110610845576108456127ef565b600091825260208220600790910201915061086082336117fb565b9050600061086d826115c8565b610876906127d3565b905061088383338361181b565b50505060058401546108a091506001600160a01b0316338461179c565b6040805182815260006020820152339186917f0e006e790dc8db480892a6d5c0bf539c411db278e5185b07d46bdcc110ba6af5910160405180910390a350505050565b606080808367ffffffffffffffff811115610900576109006126f5565b604051908082528060200260200182016040528015610929578160200160208202803683370190505b5092508367ffffffffffffffff811115610945576109456126f5565b60405190808252806020026020018201604052801561096e578160200160208202803683370190505b5091508367ffffffffffffffff81111561098a5761098a6126f5565b6040519080825280602002602001820160405280156109b3578160200160208202803683370190505b50905060005b84811015610b6b5760008686838181106109d5576109d56127ef565b9050602002013590506000600382815481106109f3576109f36127ef565b60009182526020822060066007909202019081015490925060028301916001600160a01b0390911690610a268386611846565b90506000610a3382611989565b9350610a4792508691508790508f84611a83565b8a8881518110610a5957610a596127ef565b602090810291909101015250506001600160a01b03811615610b5657826001600160a01b03821663c71832518d610a9084826117fb565b84546040516001600160e01b031960e086901b1681526001600160a01b039093166004840152602483019190915260448201526064016040805180830381865afa158015610ae2573d6000803e3d6000fd5b505050506040513d601f19601f82011682018060405250810190610b06919061281e565b898881518110610b1857610b186127ef565b60200260200101898981518110610b3157610b316127ef565b6020026020010182815250826001600160a01b03166001600160a01b03168152505050505b5050505080610b649061284c565b90506109b9565b5093509350939050565b60005b81811015610bb457610ba4838383818110610b9557610b956127ef565b905060200201353360006115f6565b610bad8161284c565b9050610b78565b505050565b610bc16112d8565b610bcb6000611aa5565b565b3380610bd7610f2d565b6001600160a01b031614610c0e5760405163118cdaa760e01b81526001600160a01b03821660048201526024015b60405180910390fd5b61056e81611aa5565b6000807f9016d09d72d40fdae2fd8ceac6b6234c7706214fd39c1cd1e609a0528c1993005b546001600160a01b031692915050565b6000610c7b8260038581548110610c6557610c656127ef565b60009182526020909120600790910201906117fb565b90505b92915050565b600060038281548110610c9957610c996127ef565b9060005260206000209060070201600201600001549050919050565b6000610c7e60038381548110610ccd57610ccd6127ef565b90600052602060002090600702016000015490565b610cea6112d8565b61056e81611add565b60405163444f303960e11b8152600481018290526000907f00000000000000000000000000000000000000000000000000000000000000006001600160a01b03169063889e607290602401602060405180830381865afa158015610d5b573d6000803e3d6000fd5b505050506040513d601f19601f82011682018060405250810190610d7f9190612865565b610d8b57506000919050565b60007f00000000000000000000000000000000000000000000000000000000000000006001600160a01b0316638761e7fb6040518163ffffffff1660e01b8152600401602060405180830381865afa158015610deb573d6000803e3d6000fd5b505050506040513d601f19601f82011682018060405250810190610e0f9190612805565b90508015610ed15760405160016267ef6760e01b031981526004810184905281907f00000000000000000000000000000000000000000000000000000000000000006001600160a01b03169063ff98109990602401602060405180830381865afa158015610e81573d6000803e3d6000fd5b505050506040513d601f19601f82011682018060405250810190610ea59190612805565b600254610ec29190600160a01b90046001600160601b0316612887565b610ecc919061289e565b610ed4565b60005b9392505050565b610ee9823361068c846115c8565b80156105595761055933308360038681548110610f0857610f086127ef565b60009182526020909120600560079092020101546001600160a01b0316929190611b4e565b6000807f237e158222e3e6968b72b9db0d8043aacf074ad9f650f0d1606b4d82ee432c00610c3c565b600060038281548110610f6b57610f6b6127ef565b60009182526020909120600560079092020101546001600160a01b031692915050565b600060038281548110610fa357610fa36127ef565b60009182526020909120600660079092020101546001600160a01b031692915050565b610fce6112d8565b61056e81611b8d565b610fdf6112d8565b7f237e158222e3e6968b72b9db0d8043aacf074ad9f650f0d1606b4d82ee432c0080546001600160a01b0319166001600160a01b0383169081178255611023610c17565b6001600160a01b03167f38d16b8cac22d99fc7c124b9cd0de2d3fa1faef420bfe791d8c362d765e2270060405160405180910390a35050565b7ff0c57e16840df040f15088dc2f81fe391c3923bec73e23a9662efc9c229c6a008054600160401b810460ff16159067ffffffffffffffff166000811580156110a25750825b905060008267ffffffffffffffff1660011480156110bf5750303b155b9050811580156110cd575080155b156110eb5760405163f92ee8a960e01b815260040160405180910390fd5b845467ffffffffffffffff19166001178555831561111557845460ff60401b1916600160401b1785555b61111e89611bfc565b61112788611b8d565b61113087611add565b6111398661130a565b831561117f57845460ff60401b19168555604051600181527fc7f505b2f371ae2175ee4913f4499e1f2633a7b5936321eed1cdaeb6115181d29060200160405180910390a15b505050505050505050565b60008151905060007f00000000000000000000000000000000000000000000000000000000000000006001600160a01b0316638761e7fb6040518163ffffffff1660e01b8152600401602060405180830381865afa1580156111f0573d6000803e3d6000fd5b505050506040513d601f19601f820116820180604052508101906112149190612805565b600254909150600160a01b90046001600160601b031660005b838110156112d1576000858281518110611249576112496127ef565b60200260200101519050600060038281548110611268576112686127ef565b600091825260208220600790910201915060028201906112888287611c0d565b9050600061129785838a611c1a565b905060006112a482611cd4565b90506112b96112b1865490565b859083611f64565b50505050505050806112ca9061284c565b905061122d565b5050505050565b336112e1610c17565b6001600160a01b031614610bcb5760405163118cdaa760e01b8152336004820152602401610c05565b6001600160a01b038116611331576040516398e7ce9b60e01b815260040160405180910390fd5b600280546001600160a01b0319166001600160a01b0383169081179091556040517f219727db7a5b31f3450929f80c0b53efeb06010df19c30ad226e32398da8c0a290600090a250565b6001600160a01b0381161580159061142e57506001604051634f4ee65b60e11b81526001600160a01b0383811660048301527f00000000000000000000000000000000000000000000000000000000000000001690639e9dccb690602401602060405180830381865afa1580156113f6573d6000803e3d6000fd5b505050506040513d601f19601f8201168201806040525081019061141a91906128d6565b600381111561142b5761142b6128c0565b14155b1561144c576040516376644cf960e11b815260040160405180910390fd5b600060038381548110611461576114616127ef565b60009182526020909120600660079092020101546001600160a01b0316905080156114e15760405163f1e023fd60e01b8152600481018490526001600160a01b0382169063f1e023fd90602401600060405180830381600087803b1580156114c857600080fd5b505af11580156114dc573d6000803e3d6000fd5b505050505b6001600160a01b0382161561154b5760405163b1a867d560e01b8152600481018490526001600160a01b0383169063b1a867d590602401600060405180830381600087803b15801561153257600080fd5b505af1158015611546573d6000803e3d6000fd5b505050505b816003848154811061155f5761155f6127ef565b60009182526020918290206007919091020160060180546001600160a01b0319166001600160a01b03938416179055604051918416825284917fa0671cc6d1b10c28ed0b4e4a9eaa3a903f4fa57c3a02426bbcc453004fed8745910160405180910390a2505050565b60006001600160ff1b038211156115f2576040516308a942bb60e11b815260040160405180910390fd5b5090565b60006003848154811061160b5761160b6127ef565b60009182526020822060066007909202019081015490925060028301916001600160a01b0390911690808061164186898961181b565b509250925092506000611654868b611846565b9050600061166182611cd4565b90506000611673888c88888887611fb4565b905080156116af576116af6001600160a01b037f0000000000000000000000000000000000000000000000000000000000000000168c8361179c565b6001600160a01b038716156117485760405163870b50fd60e01b81526001600160a01b038c81166004830152602482018e905260448201889052606482018790526084820186905288169063870b50fd9060a4016020604051808303816000875af1158015611722573d6000803e3d6000fd5b505050506040513d601f19601f820116820180604052508101906117469190612805565b505b604080518b8152602081018390526001600160a01b038d16918e917f0e006e790dc8db480892a6d5c0bf539c411db278e5185b07d46bdcc110ba6af5910160405180910390a3505050505050505050505050565b6040516001600160a01b03838116602483015260448201839052610bb491859182169063a9059cbb906064015b604051602081830303815290604052915060e01b6020820180516001600160e01b038381831617835250505050612038565b6001600160a01b0381166000908152600183016020526040812054610c7b565b6000808080611834876001600160a01b0388168761209b565b93509350935093505b93509350935093565b60405163444f303960e11b8152600481018290526000907f00000000000000000000000000000000000000000000000000000000000000006001600160a01b03169063889e607290602401602060405180830381865afa1580156118ae573d6000803e3d6000fd5b505050506040513d601f19601f820116820180604052508101906118d29190612865565b6118de57506000610c7e565b600254610c7b908390611902908690600160a01b90046001600160601b0316611c0d565b7f00000000000000000000000000000000000000000000000000000000000000006001600160a01b0316638761e7fb6040518163ffffffff1660e01b8152600401602060405180830381865afa158015611960573d6000803e3d6000fd5b505050506040513d601f19601f820116820180604052508101906119849190612805565b611c1a565b600080808080670de0b6b3a76400006119c27f000000000000000000000000000000000000000000000000000000000000000088612887565b6119cc919061289e565b90506000670de0b6b3a7640000611a037f000000000000000000000000000000000000000000000000000000000000000089612887565b611a0d919061289e565b90506000670de0b6b3a7640000611a447f00000000000000000000000000000000000000000000000000000000000000008a612887565b611a4e919061289e565b905060008183611a5e868c6128f7565b611a6891906128f7565b611a7291906128f7565b939992985090965091945092505050565b6000611a9c8584611a9487826117fb565b8754866120fa565b95945050505050565b7f237e158222e3e6968b72b9db0d8043aacf074ad9f650f0d1606b4d82ee432c0080546001600160a01b031916815561055982612160565b6001600160a01b038116611b04576040516398e7ce9b60e01b815260040160405180910390fd5b600180546001600160a01b0319166001600160a01b0383169081179091556040517f1a04a70b1e87ff55fb825283bf704f645bc7273f3872383da5dcf74677eb612b90600090a250565b6040516001600160a01b038481166024830152838116604483015260648201839052611b879186918216906323b872dd906084016117c9565b50505050565b6001600160a01b038116611bb4576040516398e7ce9b60e01b815260040160405180910390fd5b600080546001600160a01b0319166001600160a01b038316908117825560405190917f3c864541ef71378c6229510ed90f376565ee42d9c5e0904a984a9e863e6db44f91a250565b611c046121d1565b61056e8161221a565b6000610c7b83834261224c565b60008115611cc95760405160016267ef6760e01b031981526004810185905282907f00000000000000000000000000000000000000000000000000000000000000006001600160a01b03169063ff98109990602401602060405180830381865afa158015611c8c573d6000803e3d6000fd5b505050506040513d601f19601f82011682018060405250810190611cb09190612805565b611cba9085612887565b611cc4919061289e565b611ccc565b60005b949350505050565b600081600003611ce657506000919050565b600080600080611cf586611989565b6000546040516340c10f1960e01b81526001600160a01b0391821660048201526024810186905294985092965090945092507f000000000000000000000000000000000000000000000000000000000000000016906340c10f19906044016020604051808303816000875af1158015611d72573d6000803e3d6000fd5b505050506040513d601f19601f82011682018060405250810190611d969190612805565b506001546040516340c10f1960e01b81526001600160a01b039182166004820152602481018590527f0000000000000000000000000000000000000000000000000000000000000000909116906340c10f19906044016020604051808303816000875af1158015611e0b573d6000803e3d6000fd5b505050506040513d601f19601f82011682018060405250810190611e2f9190612805565b506002546040516340c10f1960e01b81526001600160a01b039182166004820152602481018490527f0000000000000000000000000000000000000000000000000000000000000000909116906340c10f19906044016020604051808303816000875af1158015611ea4573d6000803e3d6000fd5b505050506040513d601f19601f82011682018060405250810190611ec89190612805565b506040516340c10f1960e01b8152306004820152602481018290527f00000000000000000000000000000000000000000000000000000000000000006001600160a01b0316906340c10f19906044016020604051808303816000875af1158015611f36573d6000803e3d6000fd5b505050506040513d601f19601f82011682018060405250810190611f5a9190612805565b5095945050505050565b600080611f718484612281565b8554909150421115611f81574285555b8015611fa65780856001016000828254611f9b919061290a565b925050819055611a9c565b846001015495945050505050565b600080611fc2888585611f64565b90508515611ffe576001600160a01b0387166000908152600289016020526040902054611fef82886122a5565b611ff991906128f7565b612001565b60005b915061200d81866122a5565b6001600160a01b03909716600090815260029098016020525060409096209490945550929392505050565b600061204d6001600160a01b038416836122bc565b905080516000141580156120725750808060200190518101906120709190612865565b155b15610bb457604051635274afe760e01b81526001600160a01b0384166004820152602401610c05565b60008281526001840160205260408120548454909190818481036120c357508291508061183d565b6120cd84866122ca565b92506120d982866122ca565b60008781526001890160205260409020849055808855905093509350935093565b6000806121078484612281565b8760010154612116919061290a565b90508415612152576001600160a01b038616600090815260028801602052604090205461214382876122a5565b61214d91906128f7565b612155565b60005b979650505050505050565b7f9016d09d72d40fdae2fd8ceac6b6234c7706214fd39c1cd1e609a0528c19930080546001600160a01b031981166001600160a01b03848116918217845560405192169182907f8be0079c531659141344cd1fd0a4f28419497f9722a3daafe3b4186f6b6457e090600090a3505050565b7ff0c57e16840df040f15088dc2f81fe391c3923bec73e23a9662efc9c229c6a0054600160401b900460ff16610bcb57604051631afcd79f60e31b815260040160405180910390fd5b6122226121d1565b6001600160a01b038116610c0e57604051631e4fbdf760e01b815260006004820152602401610c05565b82546000908142841061225f5742612261565b835b9050808211612274578482820302612277565b60005b9695505050505050565b6000821561229c5761229783604084901b61289e565b610c7b565b50600092915050565b600060406122b38484612887565b901c9392505050565b6060610c7b83836000612306565b8181016001600160ff1b03808411908211171560008190036122ff576040516308a942bb60e11b815260040160405180910390fd5b5092915050565b60608147101561232b5760405163cd78605960e01b8152306004820152602401610c05565b600080856001600160a01b03168486604051612347919061291d565b60006040518083038185875af1925050503d8060008114612384576040519150601f19603f3d011682016040523d82523d6000602084013e612389565b606091505b50915091506122778683836060826123a457610ecc826123eb565b81511580156123bb57506001600160a01b0384163b155b156123e457604051639996b31560e01b81526001600160a01b0385166004820152602401610c05565b5080610ed4565b8051156123fb5780518082602001fd5b604051630a12f52160e11b815260040160405180910390fd5b60008083601f84011261242657600080fd5b50813567ffffffffffffffff81111561243e57600080fd5b6020830191508360208260051b850101111561245957600080fd5b9250929050565b6000806020838503121561247357600080fd5b823567ffffffffffffffff81111561248a57600080fd5b61249685828601612414565b90969095509350505050565b6001600160a01b038116811461056e57600080fd5b6000602082840312156124c957600080fd5b8135610ed4816124a2565b600080604083850312156124e757600080fd5b8235915060208301356124f9816124a2565b809150509250929050565b60006020828403121561251657600080fd5b81356001600160601b0381168114610ed457600080fd5b6000806040838503121561254057600080fd5b50508035926020909101359150565b6000806040838503121561256257600080fd5b823561256d816124a2565b915060208301356124f9816124a2565b60006020828403121561258f57600080fd5b5035919050565b6000806000604084860312156125ab57600080fd5b83356125b6816124a2565b9250602084013567ffffffffffffffff8111156125d257600080fd5b6125de86828701612414565b9497909650939450505050565b600081518084526020808501945080840160005b8381101561261b578151875295820195908201906001016125ff565b509495945050505050565b60608152600061263960608301866125eb565b82810360208481019190915285518083528682019282019060005b818110156126795784516001600160a01b031683529383019391830191600101612654565b5050848103604086015261268d81876125eb565b98975050505050505050565b600080600080608085870312156126af57600080fd5b84356126ba816124a2565b935060208501356126ca816124a2565b925060408501356126da816124a2565b915060608501356126ea816124a2565b939692955090935050565b634e487b7160e01b600052604160045260246000fd5b6000602080838503121561271e57600080fd5b825167ffffffffffffffff8082111561273657600080fd5b818501915085601f83011261274a57600080fd5b81518181111561275c5761275c6126f5565b8060051b604051601f19603f83011681018181108582111715612781576127816126f5565b60405291825284820192508381018501918883111561279f57600080fd5b938501935b8285101561268d578451845293850193928501926127a4565b634e487b7160e01b600052601160045260246000fd5b6000600160ff1b82016127e8576127e86127bd565b5060000390565b634e487b7160e01b600052603260045260246000fd5b60006020828403121561281757600080fd5b5051919050565b6000806040838503121561283157600080fd5b825161283c816124a2565b6020939093015192949293505050565b60006001820161285e5761285e6127bd565b5060010190565b60006020828403121561287757600080fd5b81518015158114610ed457600080fd5b8082028115828204841417610c7e57610c7e6127bd565b6000826128bb57634e487b7160e01b600052601260045260246000fd5b500490565b634e487b7160e01b600052602160045260246000fd5b6000602082840312156128e857600080fd5b815160048110610ed457600080fd5b81810381811115610c7e57610c7e6127bd565b80820180821115610c7e57610c7e6127bd565b6000825160005b8181101561293e5760208186018101518583015201612924565b50600092019182525091905056fea26469706673582212203ebe4e54a2662319271bce88156a74230119109477ef219ee7c4c0c01fc539eb64736f6c63430008140033",
    "linkReferences": {}
  },
  "methodIdentifiers": {
    "acceptOwnership()": "79ba5097",
    "add(address,address)": "52c28fab",
    "claim(uint256[])": "6ba4c138",
    "deposit(uint256,uint256)": "e2bbb158",
    "emergencyWithdraw(uint256)": "5312ea8e",
    "getDeposit(uint256,address)": "9f489e4e",
    "getExtraRewarder(uint256)": "e665b414",
    "getFutureFunding()": "13580ae7",
    "getFutureFundingShare()": "9b5ec70c",
    "getLastUpdateTimestamp(uint256)": "b507a700",
    "getMoe()": "93f94503",
    "getMoePerSecond()": "5b92d831",
    "getMoePerSecondForPid(uint256)": "d4f9dd1d",
    "getNumberOfFarms()": "c7a61783",
    "getPendingRewards(address,uint256[])": "566aff6a",
    "getRewarderFactory()": "5c4323ab",
    "getTeam()": "8bce6edd",
    "getTeamShare()": "af32feb3",
    "getToken(uint256)": "e4b50cb8",
    "getTotalDeposit(uint256)": "d23ab97a",
    "getTreasury()": "3b19e84a",
    "getTreasuryShare()": "796441bb",
    "getVeMoe()": "7e63f028",
    "initialize(address,address,address,address)": "f8c8765e",
    "owner()": "8da5cb5b",
    "pendingOwner()": "e30c3978",
    "renounceOwnership()": "715018a6",
    "setExtraRewarder(uint256,address)": "21bd31de",
    "setFutureFunding(address)": "d445ac47",
    "setMoePerSecond(uint96)": "2498aef7",
    "setTeam(address)": "095cf5c6",
    "setTreasury(address)": "f0f44260",
    "transferOwnership(address)": "f2fde38b",
    "updateAll(uint256[])": "04093c5b",
    "withdraw(uint256,uint256)": "441a3e70"
  },
  "id": 60
}