{"abi":[{"type":"constructor","inputs":[{"name":"moe","type":"address","internalType":"contract IMoe"},{"name":"veMoe","type":"address","internalType":"contract IVeMoe"},{"name":"factory","type":"address","internalType":"contract IRewarderFactory"},{"name":"treasuryShare","type":"uint256","internalType":"uint256"}],"stateMutability":"nonpayable"},{"type":"function","name":"acceptOwnership","inputs":[],"outputs":[],"stateMutability":"nonpayable"},{"type":"function","name":"add","inputs":[{"name":"token","type":"address","internalType":"contract IERC20"},{"name":"extraRewarder","type":"address","internalType":"contract IMasterChefRewarder"}],"outputs":[],"stateMutability":"nonpayable"},{"type":"function","name":"claim","inputs":[{"name":"pids","type":"uint256[]","internalType":"uint256[]"}],"outputs":[],"stateMutability":"nonpayable"},{"type":"function","name":"deposit","inputs":[{"name":"pid","type":"uint256","internalType":"uint256"},{"name":"amount","type":"uint256","internalType":"uint256"}],"outputs":[],"stateMutability":"nonpayable"},{"type":"function","name":"emergencyWithdraw","inputs":[{"name":"pid","type":"uint256","internalType":"uint256"}],"outputs":[],"stateMutability":"nonpayable"},{"type":"function","name":"getDeposit","inputs":[{"name":"pid","type":"uint256","internalType":"uint256"},{"name":"account","type":"address","internalType":"address"}],"outputs":[{"name":"","type":"uint256","internalType":"uint256"}],"stateMutability":"view"},{"type":"function","name":"getExtraRewarder","inputs":[{"name":"pid","type":"uint256","internalType":"uint256"}],"outputs":[{"name":"","type":"address","internalType":"contract IMasterChefRewarder"}],"stateMutability":"view"},{"type":"function","name":"getLastUpdateTimestamp","inputs":[{"name":"pid","type":"uint256","internalType":"uint256"}],"outputs":[{"name":"","type":"uint256","internalType":"uint256"}],"stateMutability":"view"},{"type":"function","name":"getMoe","inputs":[],"outputs":[{"name":"","type":"address","internalType":"contract IMoe"}],"stateMutability":"view"},{"type":"function","name":"getMoePerSecond","inputs":[],"outputs":[{"name":"","type":"uint256","internalType":"uint256"}],"stateMutability":"view"},{"type":"function","name":"getMoePerSecondForPid","inputs":[{"name":"pid","type":"uint256","internalType":"uint256"}],"outputs":[{"name":"","type":"uint256","internalType":"uint256"}],"stateMutability":"view"},{"type":"function","name":"getNumberOfFarms","inputs":[],"outputs":[{"name":"","type":"uint256","internalType":"uint256"}],"stateMutability":"view"},{"type":"function","name":"getPendingRewards","inputs":[{"name":"account","type":"address","internalType":"address"},{"name":"pids","type":"uint256[]","internalType":"uint256[]"}],"outputs":[{"name":"moeRewards","type":"uint256[]","internalType":"uint256[]"},{"name":"extraTokens","type":"address[]","internalType":"contract IERC20[]"},{"name":"extraRewards","type":"uint256[]","internalType":"uint256[]"}],"stateMutability":"view"},{"type":"function","name":"getRewarderFactory","inputs":[],"outputs":[{"name":"","type":"address","internalType":"contract IRewarderFactory"}],"stateMutability":"view"},{"type":"function","name":"getToken","inputs":[{"name":"pid","type":"uint256","internalType":"uint256"}],"outputs":[{"name":"","type":"address","internalType":"contract IERC20"}],"stateMutability":"view"},{"type":"function","name":"getTotalDeposit","inputs":[{"name":"pid","type":"uint256","internalType":"uint256"}],"outputs":[{"name":"","type":"uint256","internalType":"uint256"}],"stateMutability":"view"},{"type":"function","name":"getTreasury","inputs":[],"outputs":[{"name":"","type":"address","internalType":"address"}],"stateMutability":"view"},{"type":"function","name":"getTreasuryShare","inputs":[],"outputs":[{"name":"","type":"uint256","internalType":"uint256"}],"stateMutability":"view"},{"type":"function","name":"getVeMoe","inputs":[],"outputs":[{"name":"","type":"address","internalType":"contract IVeMoe"}],"stateMutability":"view"},{"type":"function","name":"initialize","inputs":[{"name":"initialOwner","type":"address","internalType":"address"},{"name":"treasury","type":"address","internalType":"address"},{"name":"futureFunding","type":"address","internalType":"address"},{"name":"team","type":"address","internalType":"address"},{"name":"futureFundingAmount","type":"uint256","internalType":"uint256"},{"name":"teamAmount","type":"uint256","internalType":"uint256"}],"outputs":[],"stateMutability":"nonpayable"},{"type":"function","name":"owner","inputs":[],"outputs":[{"name":"","type":"address","internalType":"address"}],"stateMutability":"view"},{"type":"function","name":"pendingOwner","inputs":[],"outputs":[{"name":"","type":"address","internalType":"address"}],"stateMutability":"view"},{"type":"function","name":"renounceOwnership","inputs":[],"outputs":[],"stateMutability":"pure"},{"type":"function","name":"setExtraRewarder","inputs":[{"name":"pid","type":"uint256","internalType":"uint256"},{"name":"extraRewarder","type":"address","internalType":"contract IMasterChefRewarder"}],"outputs":[],"stateMutability":"nonpayable"},{"type":"function","name":"setMoePerSecond","inputs":[{"name":"moePerSecond","type":"uint96","internalType":"uint96"}],"outputs":[],"stateMutability":"nonpayable"},{"type":"function","name":"setTreasury","inputs":[{"name":"treasury","type":"address","internalType":"address"}],"outputs":[],"stateMutability":"nonpayable"},{"type":"function","name":"transferOwnership","inputs":[{"name":"newOwner","type":"address","internalType":"address"}],"outputs":[],"stateMutability":"nonpayable"},{"type":"function","name":"updateAll","inputs":[{"name":"pids","type":"uint256[]","internalType":"uint256[]"}],"outputs":[],"stateMutability":"nonpayable"},{"type":"function","name":"withdraw","inputs":[{"name":"pid","type":"uint256","internalType":"uint256"},{"name":"amount","type":"uint256","internalType":"uint256"}],"outputs":[],"stateMutability":"nonpayable"},{"type":"event","name":"ExtraRewarderSet","inputs":[{"name":"pid","type":"uint256","indexed":true,"internalType":"uint256"},{"name":"extraRewarder","type":"address","indexed":false,"internalType":"contract IMasterChefRewarder"}],"anonymous":false},{"type":"event","name":"FarmAdded","inputs":[{"name":"pid","type":"uint256","indexed":true,"internalType":"uint256"},{"name":"token","type":"address","indexed":true,"internalType":"contract IERC20"}],"anonymous":false},{"type":"event","name":"Initialized","inputs":[{"name":"version","type":"uint64","indexed":false,"internalType":"uint64"}],"anonymous":false},{"type":"event","name":"MoePerSecondSet","inputs":[{"name":"moePerSecond","type":"uint256","indexed":false,"internalType":"uint256"}],"anonymous":false},{"type":"event","name":"OwnershipTransferStarted","inputs":[{"name":"previousOwner","type":"address","indexed":true,"internalType":"address"},{"name":"newOwner","type":"address","indexed":true,"internalType":"address"}],"anonymous":false},{"type":"event","name":"OwnershipTransferred","inputs":[{"name":"previousOwner","type":"address","indexed":true,"internalType":"address"},{"name":"newOwner","type":"address","indexed":true,"internalType":"address"}],"anonymous":false},{"type":"event","name":"PositionModified","inputs":[{"name":"pid","type":"uint256","indexed":true,"internalType":"uint256"},{"name":"account","type":"address","indexed":true,"internalType":"address"},{"name":"deltaAmount","type":"int256","indexed":false,"internalType":"int256"},{"name":"moeReward","type":"uint256","indexed":false,"internalType":"uint256"}],"anonymous":false},{"type":"event","name":"TreasurySet","inputs":[{"name":"treasury","type":"address","indexed":true,"internalType":"address"}],"anonymous":false},{"type":"error","name":"AddressEmptyCode","inputs":[{"name":"target","type":"address","internalType":"address"}]},{"type":"error","name":"AddressInsufficientBalance","inputs":[{"name":"account","type":"address","internalType":"address"}]},{"type":"error","name":"FailedInnerCall","inputs":[]},{"type":"error","name":"InvalidInitialization","inputs":[]},{"type":"error","name":"MasterChef__CannotRenounceOwnership","inputs":[]},{"type":"error","name":"MasterChef__InvalidMoePerSecond","inputs":[]},{"type":"error","name":"MasterChef__InvalidShares","inputs":[]},{"type":"error","name":"MasterChef__MintFailed","inputs":[]},{"type":"error","name":"MasterChef__NotMasterchefRewarder","inputs":[]},{"type":"error","name":"MasterChef__ZeroAddress","inputs":[]},{"type":"error","name":"Math__UnderOverflow","inputs":[]},{"type":"error","name":"NotInitializing","inputs":[]},{"type":"error","name":"OwnableInvalidOwner","inputs":[{"name":"owner","type":"address","internalType":"address"}]},{"type":"error","name":"OwnableUnauthorizedAccount","inputs":[{"name":"account","type":"address","internalType":"address"}]},{"type":"error","name":"SafeERC20FailedOperation","inputs":[{"name":"token","type":"address","internalType":"address"}]}],"bytecode":{"object":"0x6101006040523480156200001257600080fd5b5060405162002a0d38038062002a0d833981016040819052620000359162000156565b6200003f6200008c565b670de0b6b3a7640000811115620000695760405163169cfea160e11b815260040160405180910390fd5b6001600160a01b0393841660805291831660a05290911660c05260e052620001b0565b7ff0c57e16840df040f15088dc2f81fe391c3923bec73e23a9662efc9c229c6a00805468010000000000000000900460ff1615620000dd5760405163f92ee8a960e01b815260040160405180910390fd5b80546001600160401b03908116146200013d5780546001600160401b0319166001600160401b0390811782556040519081527fc7f505b2f371ae2175ee4913f4499e1f2633a7b5936321eed1cdaeb6115181d29060200160405180910390a15b50565b6001600160a01b03811681146200013d57600080fd5b600080600080608085870312156200016d57600080fd5b84516200017a8162000140565b60208601519094506200018d8162000140565b6040860151909350620001a08162000140565b6060959095015193969295505050565b60805160a05160c05160e0516127ba62000253600039600081816102fe01526119f90152600081816102bd01526113ea01526000818161032c015281816104e201528181610c4801528181610ccb01528181610d8401528181611233015281816118b00152818161195b0152611bdf01526000818161035a01528181610f0e01528181610fb3015281816116c401528181611cc20152611d4c01526127ba6000f3fe608060405234801561001057600080fd5b50600436106101cf5760003560e01c80637e63f02811610104578063d4f9dd1d116100a2578063e4b50cb811610071578063e4b50cb814610400578063e665b41414610413578063f0f4426014610426578063f2fde38b1461043957600080fd5b8063d4f9dd1d146103bf578063d7c41c79146103d2578063e2bbb158146103e5578063e30c3978146103f857600080fd5b80639f489e4e116100de5780639f489e4e1461037e578063b507a70014610391578063c7a61783146103a4578063d23ab97a146103ac57600080fd5b80637e63f0281461032a5780638da5cb5b1461035057806393f945031461035857600080fd5b8063566aff6a116101715780636ba4c1381161014b5780636ba4c138146102e1578063715018a6146102f4578063796441bb146102fc57806379ba50971461032257600080fd5b8063566aff6a146102725780635b92d831146102945780635c4323ab146102bb57600080fd5b80633b19e84a116101ad5780633b19e84a1461020f578063441a3e701461023957806352c28fab1461024c5780635312ea8e1461025f57600080fd5b806304093c5b146101d457806321bd31de146101e95780632498aef7146101fc575b600080fd5b6101e76101e2366004612281565b61044c565b005b6101e76101f73660046122d8565b61048c565b6101e761020a366004612308565b61049e565b6000546001600160a01b03165b6040516001600160a01b0390911681526020015b60405180910390f35b6101e7610247366004612336565b6105cc565b6101e761025a366004612358565b61062a565b6101e761026d366004612386565b610787565b61028561028036600461239f565b61083a565b6040516102309392919061242f565b600254600160a01b90046bffffffffffffffffffffffff165b604051908152602001610230565b7f000000000000000000000000000000000000000000000000000000000000000061021c565b6101e76102ef366004612281565b610aba565b6101e7610afe565b7f00000000000000000000000000000000000000000000000000000000000000006102ad565b6101e7610b17565b7f000000000000000000000000000000000000000000000000000000000000000061021c565b61021c610b64565b7f000000000000000000000000000000000000000000000000000000000000000061021c565b6102ad61038c3660046122d8565b610b99565b6102ad61039f366004612386565b610bd1565b6003546102ad565b6102ad6103ba366004612386565b610c02565b6102ad6103cd366004612386565b610c2f565b6101e76103e03660046124a2565b610e32565b6101e76103f3366004612336565b6110a8565b61021c6110fa565b61021c61040e366004612386565b611123565b61021c610421366004612386565b61115b565b6101e7610434366004612510565b611193565b6101e7610447366004612510565b6111a4565b61048882828080602002602001604051908101604052809392919081815260200183836020028082843760009201919091525061122992505050565b5050565b610494611382565b61048882826113b6565b6104a6611382565b678ac7230489e80000816bffffffffffffffffffffffff1611156104dd57604051630793e7b960e31b815260040160405180910390fd5b61056b7f00000000000000000000000000000000000000000000000000000000000000006001600160a01b031663e1e4d4196040518163ffffffff1660e01b8152600401600060405180830381865afa15801561053e573d6000803e3d6000fd5b505050506040513d6000823e601f3d908101601f191682016040526105669190810190612543565b611229565b600280546001600160a01b0316600160a01b6bffffffffffffffffffffffff8416908102919091179091556040519081527f953a915a77e51c643cf28682620b504b7d9df49407f9860e5edeb38babb834f99060200160405180910390a150565b6105e882336105da84611603565b6105e39061260b565b611631565b80156104885761048833826003858154811061060657610606612627565b60009182526020909120600560079092020101546001600160a01b031691906117d8565b610632611382565b60038054600181018255600091909152600781027fc2575a0e9e593c00f959f8c92f12db2869c3395a3b0502d05e2516446f71f860810180546001600160a01b0319166001600160a01b0386811691909117909155427fc2575a0e9e593c00f959f8c92f12db2869c3395a3b0502d05e2516446f71f85d8301557fc2575a0e9e593c00f959f8c92f12db2869c3395a3b0502d05e2516446f71f85b909101908316156106e2576106e282846113b6565b6040516370a0823160e01b81523060048201526001600160a01b038516906370a0823190602401602060405180830381865afa158015610726573d6000803e3d6000fd5b505050506040513d601f19601f8201168201806040525081019061074a919061263d565b506040516001600160a01b0385169083907f9d7bf7d496ad44415bf088986e68bcfc590380ab2bf411124744b485329f2fc690600090a350505050565b60006003828154811061079c5761079c612627565b60009182526020822060079091020191506107b7823361184c565b905060006107c482611603565b6107cd9061260b565b90506107da83338361186c565b50505060058401546107f791506001600160a01b031633846117d8565b6040805182815260006020820152339186917f0e006e790dc8db480892a6d5c0bf539c411db278e5185b07d46bdcc110ba6af5910160405180910390a350505050565b606080808367ffffffffffffffff8111156108575761085761252d565b604051908082528060200260200182016040528015610880578160200160208202803683370190505b5092508367ffffffffffffffff81111561089c5761089c61252d565b6040519080825280602002602001820160405280156108c5578160200160208202803683370190505b5091508367ffffffffffffffff8111156108e1576108e161252d565b60405190808252806020026020018201604052801561090a578160200160208202803683370190505b50905060005b84811015610ab057600086868381811061092c5761092c612627565b90506020020135905060006003828154811061094a5761094a612627565b60009182526020822060079091020191506002820190829061096c828d61184c565b90506000610978835490565b9050600061098f61098a868985611897565b6119e8565b91506109a09050858f858585611a3b565b8b89815181106109b2576109b2612627565b60209081029190910101525060068501546001600160a01b03168015610a985760405163c718325160e01b81526001600160a01b038f81166004830152602482018590526044820184905282169063c7183251906064016040805180830381865afa158015610a25573d6000803e3d6000fd5b505050506040513d601f19601f82011682018060405250810190610a499190612656565b8b8a81518110610a5b57610a5b612627565b602002602001018b8b81518110610a7457610a74612627565b6020026020010182815250826001600160a01b03166001600160a01b031681525050505b5050505050505080610aa990612684565b9050610910565b5093509350939050565b60005b81811015610af957610ae9838383818110610ada57610ada612627565b90506020020135336000611631565b610af281612684565b9050610abd565b505050565b60405163a3dd49c760e01b815260040160405180910390fd5b3380610b216110fa565b6001600160a01b031614610b585760405163118cdaa760e01b81526001600160a01b03821660048201526024015b60405180910390fd5b610b6181611aa1565b50565b6000807f9016d09d72d40fdae2fd8ceac6b6234c7706214fd39c1cd1e609a0528c1993005b546001600160a01b031692915050565b6000610bc88260038581548110610bb257610bb2612627565b600091825260209091206007909102019061184c565b90505b92915050565b600060038281548110610be657610be6612627565b9060005260206000209060070201600201600001549050919050565b6000610bcb60038381548110610c1a57610c1a612627565b90600052602060002090600702016000015490565b60405163444f303960e11b8152600481018290526000907f00000000000000000000000000000000000000000000000000000000000000006001600160a01b03169063889e607290602401602060405180830381865afa158015610c97573d6000803e3d6000fd5b505050506040513d601f19601f82011682018060405250810190610cbb919061269d565b610cc757506000919050565b60007f00000000000000000000000000000000000000000000000000000000000000006001600160a01b0316638761e7fb6040518163ffffffff1660e01b8152600401602060405180830381865afa158015610d27573d6000803e3d6000fd5b505050506040513d601f19601f82011682018060405250810190610d4b919061263d565b90508015610e28576040517fff9810990000000000000000000000000000000000000000000000000000000081526004810184905281907f00000000000000000000000000000000000000000000000000000000000000006001600160a01b03169063ff98109990602401602060405180830381865afa158015610dd3573d6000803e3d6000fd5b505050506040513d601f19601f82011682018060405250810190610df7919061263d565b600254610e199190600160a01b90046bffffffffffffffffffffffff166126bf565b610e2391906126d6565b610e2b565b60005b9392505050565b7ff0c57e16840df040f15088dc2f81fe391c3923bec73e23a9662efc9c229c6a0080546002919068010000000000000000900460ff1680610e815750805467ffffffffffffffff808416911610155b15610e9f5760405163f92ee8a960e01b815260040160405180910390fd5b805468ffffffffffffffffff191667ffffffffffffffff83161768010000000000000000178155610ecf88611ad9565b610ed887611aea565b6000808511610ee8576000610f7b565b6040516340c10f1960e01b81526001600160a01b038881166004830152602482018790527f000000000000000000000000000000000000000000000000000000000000000016906340c10f19906044016020604051808303816000875af1158015610f57573d6000803e3d6000fd5b505050506040513d601f19601f82011682018060405250810190610f7b919061263d565b90506000808511610f8d576000611020565b6040516340c10f1960e01b81526001600160a01b038881166004830152602482018790527f000000000000000000000000000000000000000000000000000000000000000016906340c10f19906044016020604051808303816000875af1158015610ffc573d6000803e3d6000fd5b505050506040513d601f19601f82011682018060405250810190611020919061263d565b905085821415806110315750848114155b1561104f5760405163b9f8198b60e01b815260040160405180910390fd5b5050805468ff00000000000000001916815560405167ffffffffffffffff831681527fc7f505b2f371ae2175ee4913f4499e1f2633a7b5936321eed1cdaeb6115181d29060200160405180910390a15050505050505050565b6110b682336105e384611603565b801561048857610488333083600386815481106110d5576110d5612627565b60009182526020909120600560079092020101546001600160a01b0316929190611b59565b6000807f237e158222e3e6968b72b9db0d8043aacf074ad9f650f0d1606b4d82ee432c00610b89565b60006003828154811061113857611138612627565b60009182526020909120600560079092020101546001600160a01b031692915050565b60006003828154811061117057611170612627565b60009182526020909120600660079092020101546001600160a01b031692915050565b61119b611382565b610b6181611aea565b6111ac611382565b7f237e158222e3e6968b72b9db0d8043aacf074ad9f650f0d1606b4d82ee432c0080546001600160a01b0319166001600160a01b03831690811782556111f0610b64565b6001600160a01b03167f38d16b8cac22d99fc7c124b9cd0de2d3fa1faef420bfe791d8c362d765e2270060405160405180910390a35050565b60008151905060007f00000000000000000000000000000000000000000000000000000000000000006001600160a01b0316638761e7fb6040518163ffffffff1660e01b8152600401602060405180830381865afa15801561128f573d6000803e3d6000fd5b505050506040513d601f19601f820116820180604052508101906112b3919061263d565b600254909150600160a01b90046bffffffffffffffffffffffff1660005b8381101561137b5760008582815181106112ed576112ed612627565b6020026020010151905060006003828154811061130c5761130c612627565b6000918252602082206007909102019150600282019061132a835490565b90506000611339838884611b98565b9050600061134886838b611ba6565b9050600061135582611c75565b9050611362858583611dc1565b50505050505050508061137490612684565b90506112d1565b5050505050565b3361138b610b64565b6001600160a01b0316146113b45760405163118cdaa760e01b8152336004820152602401610b4f565b565b6001600160a01b0381161580159061146957506001604051634f4ee65b60e11b81526001600160a01b0383811660048301527f00000000000000000000000000000000000000000000000000000000000000001690639e9dccb690602401602060405180830381865afa158015611431573d6000803e3d6000fd5b505050506040513d601f19601f82011682018060405250810190611455919061270e565b6003811115611466576114666126f8565b14155b15611487576040516376644cf960e11b815260040160405180910390fd5b60006003838154811061149c5761149c612627565b60009182526020909120600660079092020101546001600160a01b03169050801561151c5760405163f1e023fd60e01b8152600481018490526001600160a01b0382169063f1e023fd90602401600060405180830381600087803b15801561150357600080fd5b505af1158015611517573d6000803e3d6000fd5b505050505b6001600160a01b038216156115865760405163b1a867d560e01b8152600481018490526001600160a01b0383169063b1a867d590602401600060405180830381600087803b15801561156d57600080fd5b505af1158015611581573d6000803e3d6000fd5b505050505b816003848154811061159a5761159a612627565b60009182526020918290206007919091020160060180546001600160a01b0319166001600160a01b03938416179055604051918416825284917fa0671cc6d1b10c28ed0b4e4a9eaa3a903f4fa57c3a02426bbcc453004fed8745910160405180910390a2505050565b60006001600160ff1b0382111561162d576040516308a942bb60e11b815260040160405180910390fd5b5090565b60006003848154811061164657611646612627565b60009182526020822060066007909202019081015490925060028301916001600160a01b0390911690808061167c86898961186c565b509250925092506000611690868b84611897565b9050600061169d82611c75565b905060006116af888c88888887611e12565b905080156116eb576116eb6001600160a01b037f0000000000000000000000000000000000000000000000000000000000000000168c836117d8565b6001600160a01b038716156117845760405163870b50fd60e01b81526001600160a01b038c81166004830152602482018e905260448201889052606482018790526084820186905288169063870b50fd9060a4016020604051808303816000875af115801561175e573d6000803e3d6000fd5b505050506040513d601f19601f82011682018060405250810190611782919061263d565b505b604080518b8152602081018390526001600160a01b038d16918e917f0e006e790dc8db480892a6d5c0bf539c411db278e5185b07d46bdcc110ba6af5910160405180910390a3505050505050505050505050565b6040516001600160a01b03838116602483015260448201839052610af991859182169063a9059cbb906064015b604051602081830303815290604052915060e01b6020820180517bffffffffffffffffffffffffffffffffffffffffffffffffffffffff8381831617835250505050611e96565b6001600160a01b0381166000908152600183016020526040812054610bc8565b6000808080611885876001600160a01b03881687611ef9565b93509350935093505b93509350935093565b60405163444f303960e11b8152600481018390526000907f00000000000000000000000000000000000000000000000000000000000000006001600160a01b03169063889e607290602401602060405180830381865afa1580156118ff573d6000803e3d6000fd5b505050506040513d601f19601f82011682018060405250810190611923919061269d565b61192f57506000610e2b565b6002546119e0908490611959908790600160a01b90046bffffffffffffffffffffffff1686611b98565b7f00000000000000000000000000000000000000000000000000000000000000006001600160a01b0316638761e7fb6040518163ffffffff1660e01b8152600401602060405180830381865afa1580156119b7573d6000803e3d6000fd5b505050506040513d601f19601f820116820180604052508101906119db919061263d565b611ba6565b949350505050565b600080670de0b6b3a7640000611a1e7f0000000000000000000000000000000000000000000000000000000000000000856126bf565b611a2891906126d6565b9150611a34828461272f565b9050915091565b600080611a488484611f58565b8760010154611a579190612742565b90508415611a93576001600160a01b0386166000908152600288016020526040902054611a848287611f7c565b611a8e919061272f565b611a96565b60005b979650505050505050565b7f237e158222e3e6968b72b9db0d8043aacf074ad9f650f0d1606b4d82ee432c0080546001600160a01b031916815561048882611f93565b611ae1612004565b610b6181612052565b6001600160a01b038116611b11576040516398e7ce9b60e01b815260040160405180910390fd5b600080546001600160a01b0319166001600160a01b038316908117825560405190917f3c864541ef71378c6229510ed90f376565ee42d9c5e0904a984a9e863e6db44f91a250565b6040516001600160a01b038481166024830152838116604483015260648201839052611b929186918216906323b872dd90608401611805565b50505050565b60006119e084844285612084565b60008115611c6b576040517fff9810990000000000000000000000000000000000000000000000000000000081526004810185905282907f00000000000000000000000000000000000000000000000000000000000000006001600160a01b03169063ff98109990602401602060405180830381865afa158015611c2e573d6000803e3d6000fd5b505050506040513d601f19601f82011682018060405250810190611c52919061263d565b611c5c90856126bf565b611c6691906126d6565b6119e0565b5060009392505050565b600081600003611c8757506000919050565b600080611c93846119e8565b6000546040516340c10f1960e01b81526001600160a01b039182166004820152602481018490529294509092507f000000000000000000000000000000000000000000000000000000000000000016906340c10f19906044016020604051808303816000875af1158015611d0b573d6000803e3d6000fd5b505050506040513d601f19601f82011682018060405250810190611d2f919061263d565b506040516340c10f1960e01b8152306004820152602481018290527f00000000000000000000000000000000000000000000000000000000000000006001600160a01b0316906340c10f19906044016020604051808303816000875af1158015611d9d573d6000803e3d6000fd5b505050506040513d601f19601f820116820180604052508101906119e0919061263d565b600080611dce8484611f58565b8554909150421115611dde574285555b8015611e035780856001016000828254611df89190612742565b925050819055611e09565b84600101545b95945050505050565b600080611e20888585611dc1565b90508515611e5c576001600160a01b0387166000908152600289016020526040902054611e4d8288611f7c565b611e57919061272f565b611e5f565b60005b9150611e6b8186611f7c565b6001600160a01b03909716600090815260029098016020525060409096209490945550929392505050565b6000611eab6001600160a01b038416836120ce565b90508051600014158015611ed0575080806020019051810190611ece919061269d565b155b15610af957604051635274afe760e01b81526001600160a01b0384166004820152602401610b4f565b6000828152600184016020526040812054845490919081848103611f2157508291508061188e565b611f2b84866120dc565b9250611f3782866120dc565b60008781526001890160205260409020849055808855905093509350935093565b60008215611f7357611f6e83604084901b6126d6565b610bc8565b50600092915050565b60006040611f8a84846126bf565b901c9392505050565b7f9016d09d72d40fdae2fd8ceac6b6234c7706214fd39c1cd1e609a0528c19930080546001600160a01b031981166001600160a01b03848116918217845560405192169182907f8be0079c531659141344cd1fd0a4f28419497f9722a3daafe3b4186f6b6457e090600090a3505050565b7ff0c57e16840df040f15088dc2f81fe391c3923bec73e23a9662efc9c229c6a005468010000000000000000900460ff166113b457604051631afcd79f60e31b815260040160405180910390fd5b61205a612004565b6001600160a01b038116610b5857604051631e4fbdf760e01b815260006004820152602401610b4f565b600081600003612096575060006119e0565b845460004285106120a757426120a9565b845b90508181116120b9576000611a96565b856120c4838361272f565b611a9691906126bf565b6060610bc883836000612118565b8181016001600160ff1b0380841190821117156000819003612111576040516308a942bb60e11b815260040160405180910390fd5b5092915050565b60608147101561213d5760405163cd78605960e01b8152306004820152602401610b4f565b600080856001600160a01b031684866040516121599190612755565b60006040518083038185875af1925050503d8060008114612196576040519150601f19603f3d011682016040523d82523d6000602084013e61219b565b606091505b50915091506121ab8683836121b5565b9695505050505050565b6060826121c557610e238261220c565b81511580156121dc57506001600160a01b0384163b155b1561220557604051639996b31560e01b81526001600160a01b0385166004820152602401610b4f565b5080610e2b565b80511561221c5780518082602001fd5b604051630a12f52160e11b815260040160405180910390fd5b60008083601f84011261224757600080fd5b50813567ffffffffffffffff81111561225f57600080fd5b6020830191508360208260051b850101111561227a57600080fd5b9250929050565b6000806020838503121561229457600080fd5b823567ffffffffffffffff8111156122ab57600080fd5b6122b785828601612235565b90969095509350505050565b6001600160a01b0381168114610b6157600080fd5b600080604083850312156122eb57600080fd5b8235915060208301356122fd816122c3565b809150509250929050565b60006020828403121561231a57600080fd5b81356bffffffffffffffffffffffff81168114610e2b57600080fd5b6000806040838503121561234957600080fd5b50508035926020909101359150565b6000806040838503121561236b57600080fd5b8235612376816122c3565b915060208301356122fd816122c3565b60006020828403121561239857600080fd5b5035919050565b6000806000604084860312156123b457600080fd5b83356123bf816122c3565b9250602084013567ffffffffffffffff8111156123db57600080fd5b6123e786828701612235565b9497909650939450505050565b600081518084526020808501945080840160005b8381101561242457815187529582019590820190600101612408565b509495945050505050565b60608152600061244260608301866123f4565b82810360208481019190915285518083528682019282019060005b818110156124825784516001600160a01b03168352938301939183019160010161245d565b5050848103604086015261249681876123f4565b98975050505050505050565b60008060008060008060c087890312156124bb57600080fd5b86356124c6816122c3565b955060208701356124d6816122c3565b945060408701356124e6816122c3565b935060608701356124f6816122c3565b9598949750929560808101359460a0909101359350915050565b60006020828403121561252257600080fd5b8135610e2b816122c3565b634e487b7160e01b600052604160045260246000fd5b6000602080838503121561255657600080fd5b825167ffffffffffffffff8082111561256e57600080fd5b818501915085601f83011261258257600080fd5b8151818111156125945761259461252d565b8060051b604051601f19603f830116810181811085821117156125b9576125b961252d565b6040529182528482019250838101850191888311156125d757600080fd5b938501935b82851015612496578451845293850193928501926125dc565b634e487b7160e01b600052601160045260246000fd5b6000600160ff1b8201612620576126206125f5565b5060000390565b634e487b7160e01b600052603260045260246000fd5b60006020828403121561264f57600080fd5b5051919050565b6000806040838503121561266957600080fd5b8251612674816122c3565b6020939093015192949293505050565b600060018201612696576126966125f5565b5060010190565b6000602082840312156126af57600080fd5b81518015158114610e2b57600080fd5b8082028115828204841417610bcb57610bcb6125f5565b6000826126f357634e487b7160e01b600052601260045260246000fd5b500490565b634e487b7160e01b600052602160045260246000fd5b60006020828403121561272057600080fd5b815160048110610e2b57600080fd5b81810381811115610bcb57610bcb6125f5565b80820180821115610bcb57610bcb6125f5565b6000825160005b81811015612776576020818601810151858301520161275c565b50600092019182525091905056fea2646970667358221220f50944602e665fbdfaaa76dc99207a7a4c7316fd7913c7e2c1148db6b7d091d964736f6c63430008140033","linkReferences":{}},"methodIdentifiers":{"acceptOwnership()":"79ba5097","add(address,address)":"52c28fab","claim(uint256[])":"6ba4c138","deposit(uint256,uint256)":"e2bbb158","emergencyWithdraw(uint256)":"5312ea8e","getDeposit(uint256,address)":"9f489e4e","getExtraRewarder(uint256)":"e665b414","getLastUpdateTimestamp(uint256)":"b507a700","getMoe()":"93f94503","getMoePerSecond()":"5b92d831","getMoePerSecondForPid(uint256)":"d4f9dd1d","getNumberOfFarms()":"c7a61783","getPendingRewards(address,uint256[])":"566aff6a","getRewarderFactory()":"5c4323ab","getToken(uint256)":"e4b50cb8","getTotalDeposit(uint256)":"d23ab97a","getTreasury()":"3b19e84a","getTreasuryShare()":"796441bb","getVeMoe()":"7e63f028","initialize(address,address,address,address,uint256,uint256)":"d7c41c79","owner()":"8da5cb5b","pendingOwner()":"e30c3978","renounceOwnership()":"715018a6","setExtraRewarder(uint256,address)":"21bd31de","setMoePerSecond(uint96)":"2498aef7","setTreasury(address)":"f0f44260","transferOwnership(address)":"f2fde38b","updateAll(uint256[])":"04093c5b","withdraw(uint256,uint256)":"441a3e70"},"id":63}