{"abi":[{"type":"constructor","inputs":[{"name":"moe","type":"address","internalType":"contract IMoe"},{"name":"veMoe","type":"address","internalType":"contract IVeMoe"},{"name":"factory","type":"address","internalType":"contract IRewarderFactory"},{"name":"treasuryShare","type":"uint256","internalType":"uint256"},{"name":"futureFundingShare","type":"uint256","internalType":"uint256"},{"name":"teamShare","type":"uint256","internalType":"uint256"}],"stateMutability":"nonpayable"},{"type":"function","name":"acceptOwnership","inputs":[],"outputs":[],"stateMutability":"nonpayable"},{"type":"function","name":"add","inputs":[{"name":"token","type":"address","internalType":"contract IERC20"},{"name":"extraRewarder","type":"address","internalType":"contract IMasterChefRewarder"}],"outputs":[],"stateMutability":"nonpayable"},{"type":"function","name":"claim","inputs":[{"name":"pids","type":"uint256[]","internalType":"uint256[]"}],"outputs":[],"stateMutability":"nonpayable"},{"type":"function","name":"deposit","inputs":[{"name":"pid","type":"uint256","internalType":"uint256"},{"name":"amount","type":"uint256","internalType":"uint256"}],"outputs":[],"stateMutability":"nonpayable"},{"type":"function","name":"emergencyWithdraw","inputs":[{"name":"pid","type":"uint256","internalType":"uint256"}],"outputs":[],"stateMutability":"nonpayable"},{"type":"function","name":"getDeposit","inputs":[{"name":"pid","type":"uint256","internalType":"uint256"},{"name":"account","type":"address","internalType":"address"}],"outputs":[{"name":"","type":"uint256","internalType":"uint256"}],"stateMutability":"view"},{"type":"function","name":"getExtraRewarder","inputs":[{"name":"pid","type":"uint256","internalType":"uint256"}],"outputs":[{"name":"","type":"address","internalType":"contract IMasterChefRewarder"}],"stateMutability":"view"},{"type":"function","name":"getFutureFunding","inputs":[],"outputs":[{"name":"","type":"address","internalType":"address"}],"stateMutability":"view"},{"type":"function","name":"getFutureFundingShare","inputs":[],"outputs":[{"name":"","type":"uint256","internalType":"uint256"}],"stateMutability":"view"},{"type":"function","name":"getLastUpdateTimestamp","inputs":[{"name":"pid","type":"uint256","internalType":"uint256"}],"outputs":[{"name":"","type":"uint256","internalType":"uint256"}],"stateMutability":"view"},{"type":"function","name":"getMoe","inputs":[],"outputs":[{"name":"","type":"address","internalType":"contract IMoe"}],"stateMutability":"view"},{"type":"function","name":"getMoePerSecond","inputs":[],"outputs":[{"name":"","type":"uint256","internalType":"uint256"}],"stateMutability":"view"},{"type":"function","name":"getMoePerSecondForPid","inputs":[{"name":"pid","type":"uint256","internalType":"uint256"}],"outputs":[{"name":"","type":"uint256","internalType":"uint256"}],"stateMutability":"view"},{"type":"function","name":"getNumberOfFarms","inputs":[],"outputs":[{"name":"","type":"uint256","internalType":"uint256"}],"stateMutability":"view"},{"type":"function","name":"getPendingRewards","inputs":[{"name":"account","type":"address","internalType":"address"},{"name":"pids","type":"uint256[]","internalType":"uint256[]"}],"outputs":[{"name":"moeRewards","type":"uint256[]","internalType":"uint256[]"},{"name":"extraTokens","type":"address[]","internalType":"contract IERC20[]"},{"name":"extraRewards","type":"uint256[]","internalType":"uint256[]"}],"stateMutability":"view"},{"type":"function","name":"getRewarderFactory","inputs":[],"outputs":[{"name":"","type":"address","internalType":"contract IRewarderFactory"}],"stateMutability":"view"},{"type":"function","name":"getTeam","inputs":[],"outputs":[{"name":"","type":"address","internalType":"address"}],"stateMutability":"view"},{"type":"function","name":"getTeamShare","inputs":[],"outputs":[{"name":"","type":"uint256","internalType":"uint256"}],"stateMutability":"view"},{"type":"function","name":"getToken","inputs":[{"name":"pid","type":"uint256","internalType":"uint256"}],"outputs":[{"name":"","type":"address","internalType":"contract IERC20"}],"stateMutability":"view"},{"type":"function","name":"getTotalDeposit","inputs":[{"name":"pid","type":"uint256","internalType":"uint256"}],"outputs":[{"name":"","type":"uint256","internalType":"uint256"}],"stateMutability":"view"},{"type":"function","name":"getTreasury","inputs":[],"outputs":[{"name":"","type":"address","internalType":"address"}],"stateMutability":"view"},{"type":"function","name":"getTreasuryShare","inputs":[],"outputs":[{"name":"","type":"uint256","internalType":"uint256"}],"stateMutability":"view"},{"type":"function","name":"getVeMoe","inputs":[],"outputs":[{"name":"","type":"address","internalType":"contract IVeMoe"}],"stateMutability":"view"},{"type":"function","name":"initialize","inputs":[{"name":"initialOwner","type":"address","internalType":"address"},{"name":"treasury","type":"address","internalType":"address"},{"name":"futureFunding","type":"address","internalType":"address"},{"name":"team","type":"address","internalType":"address"}],"outputs":[],"stateMutability":"nonpayable"},{"type":"function","name":"owner","inputs":[],"outputs":[{"name":"","type":"address","internalType":"address"}],"stateMutability":"view"},{"type":"function","name":"pendingOwner","inputs":[],"outputs":[{"name":"","type":"address","internalType":"address"}],"stateMutability":"view"},{"type":"function","name":"renounceOwnership","inputs":[],"outputs":[],"stateMutability":"pure"},{"type":"function","name":"setExtraRewarder","inputs":[{"name":"pid","type":"uint256","internalType":"uint256"},{"name":"extraRewarder","type":"address","internalType":"contract IMasterChefRewarder"}],"outputs":[],"stateMutability":"nonpayable"},{"type":"function","name":"setFutureFunding","inputs":[{"name":"futureFunding","type":"address","internalType":"address"}],"outputs":[],"stateMutability":"nonpayable"},{"type":"function","name":"setMoePerSecond","inputs":[{"name":"moePerSecond","type":"uint96","internalType":"uint96"}],"outputs":[],"stateMutability":"nonpayable"},{"type":"function","name":"setTeam","inputs":[{"name":"team","type":"address","internalType":"address"}],"outputs":[],"stateMutability":"nonpayable"},{"type":"function","name":"setTreasury","inputs":[{"name":"treasury","type":"address","internalType":"address"}],"outputs":[],"stateMutability":"nonpayable"},{"type":"function","name":"transferOwnership","inputs":[{"name":"newOwner","type":"address","internalType":"address"}],"outputs":[],"stateMutability":"nonpayable"},{"type":"function","name":"updateAll","inputs":[{"name":"pids","type":"uint256[]","internalType":"uint256[]"}],"outputs":[],"stateMutability":"nonpayable"},{"type":"function","name":"withdraw","inputs":[{"name":"pid","type":"uint256","internalType":"uint256"},{"name":"amount","type":"uint256","internalType":"uint256"}],"outputs":[],"stateMutability":"nonpayable"},{"type":"event","name":"ExtraRewarderSet","inputs":[{"name":"pid","type":"uint256","indexed":true,"internalType":"uint256"},{"name":"extraRewarder","type":"address","indexed":false,"internalType":"contract IMasterChefRewarder"}],"anonymous":false},{"type":"event","name":"FarmAdded","inputs":[{"name":"pid","type":"uint256","indexed":true,"internalType":"uint256"},{"name":"token","type":"address","indexed":true,"internalType":"contract IERC20"}],"anonymous":false},{"type":"event","name":"FutureFundingSet","inputs":[{"name":"futureFunding","type":"address","indexed":true,"internalType":"address"}],"anonymous":false},{"type":"event","name":"Initialized","inputs":[{"name":"version","type":"uint64","indexed":false,"internalType":"uint64"}],"anonymous":false},{"type":"event","name":"MoePerSecondSet","inputs":[{"name":"moePerSecond","type":"uint256","indexed":false,"internalType":"uint256"}],"anonymous":false},{"type":"event","name":"OwnershipTransferStarted","inputs":[{"name":"previousOwner","type":"address","indexed":true,"internalType":"address"},{"name":"newOwner","type":"address","indexed":true,"internalType":"address"}],"anonymous":false},{"type":"event","name":"OwnershipTransferred","inputs":[{"name":"previousOwner","type":"address","indexed":true,"internalType":"address"},{"name":"newOwner","type":"address","indexed":true,"internalType":"address"}],"anonymous":false},{"type":"event","name":"PositionModified","inputs":[{"name":"pid","type":"uint256","indexed":true,"internalType":"uint256"},{"name":"account","type":"address","indexed":true,"internalType":"address"},{"name":"deltaAmount","type":"int256","indexed":false,"internalType":"int256"},{"name":"moeReward","type":"uint256","indexed":false,"internalType":"uint256"}],"anonymous":false},{"type":"event","name":"TeamSet","inputs":[{"name":"team","type":"address","indexed":true,"internalType":"address"}],"anonymous":false},{"type":"event","name":"TreasurySet","inputs":[{"name":"treasury","type":"address","indexed":true,"internalType":"address"}],"anonymous":false},{"type":"error","name":"AddressEmptyCode","inputs":[{"name":"target","type":"address","internalType":"address"}]},{"type":"error","name":"AddressInsufficientBalance","inputs":[{"name":"account","type":"address","internalType":"address"}]},{"type":"error","name":"FailedInnerCall","inputs":[]},{"type":"error","name":"InvalidInitialization","inputs":[]},{"type":"error","name":"MasterChef__CannotRenounceOwnership","inputs":[]},{"type":"error","name":"MasterChef__InvalidMoePerSecond","inputs":[]},{"type":"error","name":"MasterChef__InvalidShares","inputs":[]},{"type":"error","name":"MasterChef__NotMasterchefRewarder","inputs":[]},{"type":"error","name":"MasterChef__ZeroAddress","inputs":[]},{"type":"error","name":"Math__UnderOverflow","inputs":[]},{"type":"error","name":"NotInitializing","inputs":[]},{"type":"error","name":"OwnableInvalidOwner","inputs":[{"name":"owner","type":"address","internalType":"address"}]},{"type":"error","name":"OwnableUnauthorizedAccount","inputs":[{"name":"account","type":"address","internalType":"address"}]},{"type":"error","name":"SafeERC20FailedOperation","inputs":[{"name":"token","type":"address","internalType":"address"}]}],"bytecode":{"object":"0x6101406040523480156200001257600080fd5b5060405162002d4338038062002d4383398101604081905262000035916200017d565b6200003f620000b3565b670de0b6b3a764000081620000558486620001ed565b620000619190620001ed565b1115620000815760405163169cfea160e11b815260040160405180910390fd5b6001600160a01b0395861660805293851660a0529190931660c05260e092909252610100919091526101205262000215565b7ff0c57e16840df040f15088dc2f81fe391c3923bec73e23a9662efc9c229c6a00805468010000000000000000900460ff1615620001045760405163f92ee8a960e01b815260040160405180910390fd5b80546001600160401b0390811614620001645780546001600160401b0319166001600160401b0390811782556040519081527fc7f505b2f371ae2175ee4913f4499e1f2633a7b5936321eed1cdaeb6115181d29060200160405180910390a15b50565b6001600160a01b03811681146200016457600080fd5b60008060008060008060c087890312156200019757600080fd5b8651620001a48162000167565b6020880151909650620001b78162000167565b6040880151909550620001ca8162000167565b80945050606087015192506080870151915060a087015190509295509295509295565b808201808211156200020f57634e487b7160e01b600052601160045260246000fd5b92915050565b60805160a05160c05160e0516101005161012051612a67620002dc600039600081816104600152611af00152600081816104270152611aaf0152600081816103940152611a6e015260008181610353015261145c0152600081816103c2015281816105fc01528181610d7d01528181610e0001528181610eb90152818161123401528181611922015281816119cd0152611d690152600081816104010152818161173601528181611e5401528181611eeb01528181611f8401526120100152612a676000f3fe608060405234801561001057600080fd5b50600436106102415760003560e01c80638bce6edd11610145578063d445ac47116100bd578063e4b50cb81161008c578063f0f4426011610071578063f0f4426014610519578063f2fde38b1461052c578063f8c8765e1461053f57600080fd5b8063e4b50cb8146104f3578063e665b4141461050657600080fd5b8063d445ac47146104b2578063d4f9dd1d146104c5578063e2bbb158146104d8578063e30c3978146104eb57600080fd5b80639f489e4e11610114578063b507a700116100f9578063b507a70014610484578063c7a6178314610497578063d23ab97a1461049f57600080fd5b80639f489e4e1461044b578063af32feb31461045e57600080fd5b80638bce6edd146103e65780638da5cb5b146103f757806393f94503146103ff5780639b5ec70c1461042557600080fd5b80635312ea8e116101d85780636ba4c138116101a7578063796441bb1161018c578063796441bb1461039257806379ba5097146103b85780637e63f028146103c057600080fd5b80636ba4c13814610377578063715018a61461038a57600080fd5b80635312ea8e146102f5578063566aff6a146103085780635b92d8311461032a5780635c4323ab1461035157600080fd5b80632498aef7116102145780632498aef7146102ab5780633b19e84a146102be578063441a3e70146102cf57806352c28fab146102e257600080fd5b806304093c5b14610246578063095cf5c61461025b57806313580ae71461026e57806321bd31de14610298575b600080fd5b610259610254366004612540565b610552565b005b610259610269366004612597565b610592565b6001546001600160a01b03165b6040516001600160a01b0390911681526020015b60405180910390f35b6102596102a63660046125b4565b6105a6565b6102596102b93660046125e4565b6105b8565b6000546001600160a01b031661027b565b6102596102dd366004612612565b6106e6565b6102596102f0366004612634565b610744565b610259610303366004612662565b6108a1565b61031b61031636600461267b565b610954565b60405161028f9392919061270b565b600254600160a01b90046bffffffffffffffffffffffff165b60405190815260200161028f565b7f000000000000000000000000000000000000000000000000000000000000000061027b565b610259610385366004612540565b610be1565b610259610c25565b7f0000000000000000000000000000000000000000000000000000000000000000610343565b610259610c3e565b7f000000000000000000000000000000000000000000000000000000000000000061027b565b6002546001600160a01b031661027b565b61027b610c88565b7f000000000000000000000000000000000000000000000000000000000000000061027b565b7f0000000000000000000000000000000000000000000000000000000000000000610343565b6103436104593660046125b4565b610cbd565b7f0000000000000000000000000000000000000000000000000000000000000000610343565b610343610492366004612662565b610cf5565b600354610343565b6103436104ad366004612662565b610d26565b6102596104c0366004612597565b610d53565b6103436104d3366004612662565b610d64565b6102596104e6366004612612565b610f67565b61027b610fb9565b61027b610501366004612662565b610fe2565b61027b610514366004612662565b61101a565b610259610527366004612597565b611052565b61025961053a366004612597565b611063565b61025961054d36600461277e565b6110e8565b61058e82828080602002602001604051908101604052809392919081815260200183836020028082843760009201919091525061122a92505050565b5050565b61059a611383565b6105a3816113b7565b50565b6105ae611383565b61058e8282611428565b6105c0611383565b678ac7230489e80000816bffffffffffffffffffffffff1611156105f757604051630793e7b960e31b815260040160405180910390fd5b6106857f00000000000000000000000000000000000000000000000000000000000000006001600160a01b031663e1e4d4196040518163ffffffff1660e01b8152600401600060405180830381865afa158015610658573d6000803e3d6000fd5b505050506040513d6000823e601f3d908101601f1916820160405261068091908101906127f0565b61122a565b600280546001600160a01b0316600160a01b6bffffffffffffffffffffffff8416908102919091179091556040519081527f953a915a77e51c643cf28682620b504b7d9df49407f9860e5edeb38babb834f99060200160405180910390a150565b61070282336106f484611675565b6106fd906128b8565b6116a3565b801561058e5761058e338260038581548110610720576107206128d4565b60009182526020909120600560079092020101546001600160a01b0316919061184a565b61074c611383565b60038054600181018255600091909152600781027fc2575a0e9e593c00f959f8c92f12db2869c3395a3b0502d05e2516446f71f860810180546001600160a01b0319166001600160a01b0386811691909117909155427fc2575a0e9e593c00f959f8c92f12db2869c3395a3b0502d05e2516446f71f85d8301557fc2575a0e9e593c00f959f8c92f12db2869c3395a3b0502d05e2516446f71f85b909101908316156107fc576107fc8284611428565b6040516370a0823160e01b81523060048201526001600160a01b038516906370a0823190602401602060405180830381865afa158015610840573d6000803e3d6000fd5b505050506040513d601f19601f8201168201806040525081019061086491906128ea565b506040516001600160a01b0385169083907f9d7bf7d496ad44415bf088986e68bcfc590380ab2bf411124744b485329f2fc690600090a350505050565b6000600382815481106108b6576108b66128d4565b60009182526020822060079091020191506108d182336118be565b905060006108de82611675565b6108e7906128b8565b90506108f48333836118de565b505050600584015461091191506001600160a01b0316338461184a565b6040805182815260006020820152339186917f0e006e790dc8db480892a6d5c0bf539c411db278e5185b07d46bdcc110ba6af5910160405180910390a350505050565b606080808367ffffffffffffffff811115610971576109716127da565b60405190808252806020026020018201604052801561099a578160200160208202803683370190505b5092508367ffffffffffffffff8111156109b6576109b66127da565b6040519080825280602002602001820160405280156109df578160200160208202803683370190505b5091508367ffffffffffffffff8111156109fb576109fb6127da565b604051908082528060200260200182016040528015610a24578160200160208202803683370190505b50905060005b84811015610bd7576000868683818110610a4657610a466128d4565b905060200201359050600060038281548110610a6457610a646128d4565b600091825260208220600790910201915060028201908290610a86828d6118be565b90506000610a92835490565b90506000610aa9610aa4868985611909565b611a5a565b9350505050610ac78e84848489611b5490949392919063ffffffff16565b8b8981518110610ad957610ad96128d4565b60209081029190910101525060068501546001600160a01b03168015610bbf5760405163c718325160e01b81526001600160a01b038f81166004830152602482018590526044820184905282169063c7183251906064016040805180830381865afa158015610b4c573d6000803e3d6000fd5b505050506040513d601f19601f82011682018060405250810190610b709190612903565b8b8a81518110610b8257610b826128d4565b602002602001018b8b81518110610b9b57610b9b6128d4565b6020026020010182815250826001600160a01b03166001600160a01b031681525050505b5050505050505080610bd090612931565b9050610a2a565b5093509350939050565b60005b81811015610c2057610c10838383818110610c0157610c016128d4565b905060200201353360006116a3565b610c1981612931565b9050610be4565b505050565b60405163a3dd49c760e01b815260040160405180910390fd5b3380610c48610fb9565b6001600160a01b031614610c7f5760405163118cdaa760e01b81526001600160a01b03821660048201526024015b60405180910390fd5b6105a381611bba565b6000807f9016d09d72d40fdae2fd8ceac6b6234c7706214fd39c1cd1e609a0528c1993005b546001600160a01b031692915050565b6000610cec8260038581548110610cd657610cd66128d4565b60009182526020909120600790910201906118be565b90505b92915050565b600060038281548110610d0a57610d0a6128d4565b9060005260206000209060070201600201600001549050919050565b6000610cef60038381548110610d3e57610d3e6128d4565b90600052602060002090600702016000015490565b610d5b611383565b6105a381611bf2565b60405163444f303960e11b8152600481018290526000907f00000000000000000000000000000000000000000000000000000000000000006001600160a01b03169063889e607290602401602060405180830381865afa158015610dcc573d6000803e3d6000fd5b505050506040513d601f19601f82011682018060405250810190610df0919061294a565b610dfc57506000919050565b60007f00000000000000000000000000000000000000000000000000000000000000006001600160a01b0316638761e7fb6040518163ffffffff1660e01b8152600401602060405180830381865afa158015610e5c573d6000803e3d6000fd5b505050506040513d601f19601f82011682018060405250810190610e8091906128ea565b90508015610f5d576040517fff9810990000000000000000000000000000000000000000000000000000000081526004810184905281907f00000000000000000000000000000000000000000000000000000000000000006001600160a01b03169063ff98109990602401602060405180830381865afa158015610f08573d6000803e3d6000fd5b505050506040513d601f19601f82011682018060405250810190610f2c91906128ea565b600254610f4e9190600160a01b90046bffffffffffffffffffffffff1661296c565b610f589190612983565b610f60565b60005b9392505050565b610f7582336106fd84611675565b801561058e5761058e33308360038681548110610f9457610f946128d4565b60009182526020909120600560079092020101546001600160a01b0316929190611c63565b6000807f237e158222e3e6968b72b9db0d8043aacf074ad9f650f0d1606b4d82ee432c00610cad565b600060038281548110610ff757610ff76128d4565b60009182526020909120600560079092020101546001600160a01b031692915050565b60006003828154811061102f5761102f6128d4565b60009182526020909120600660079092020101546001600160a01b031692915050565b61105a611383565b6105a381611ca2565b61106b611383565b7f237e158222e3e6968b72b9db0d8043aacf074ad9f650f0d1606b4d82ee432c0080546001600160a01b0319166001600160a01b03831690811782556110af610c88565b6001600160a01b03167f38d16b8cac22d99fc7c124b9cd0de2d3fa1faef420bfe791d8c362d765e2270060405160405180910390a35050565b7ff0c57e16840df040f15088dc2f81fe391c3923bec73e23a9662efc9c229c6a00805468010000000000000000810460ff16159067ffffffffffffffff166000811580156111335750825b905060008267ffffffffffffffff1660011480156111505750303b155b90508115801561115e575080155b1561117c5760405163f92ee8a960e01b815260040160405180910390fd5b845467ffffffffffffffff1916600117855583156111b057845468ff00000000000000001916680100000000000000001785555b6111b989611d11565b6111c288611ca2565b6111cb87611bf2565b6111d4866113b7565b831561121f57845468ff000000000000000019168555604051600181527fc7f505b2f371ae2175ee4913f4499e1f2633a7b5936321eed1cdaeb6115181d29060200160405180910390a15b505050505050505050565b60008151905060007f00000000000000000000000000000000000000000000000000000000000000006001600160a01b0316638761e7fb6040518163ffffffff1660e01b8152600401602060405180830381865afa158015611290573d6000803e3d6000fd5b505050506040513d601f19601f820116820180604052508101906112b491906128ea565b600254909150600160a01b90046bffffffffffffffffffffffff1660005b8381101561137c5760008582815181106112ee576112ee6128d4565b6020026020010151905060006003828154811061130d5761130d6128d4565b6000918252602082206007909102019150600282019061132b835490565b9050600061133a838884611d22565b9050600061134986838b611d30565b9050600061135682611dff565b905061136385858361208f565b50505050505050508061137590612931565b90506112d2565b5050505050565b3361138c610c88565b6001600160a01b0316146113b55760405163118cdaa760e01b8152336004820152602401610c76565b565b6001600160a01b0381166113de576040516398e7ce9b60e01b815260040160405180910390fd5b600280546001600160a01b0319166001600160a01b0383169081179091556040517f219727db7a5b31f3450929f80c0b53efeb06010df19c30ad226e32398da8c0a290600090a250565b6001600160a01b038116158015906114db57506001604051634f4ee65b60e11b81526001600160a01b0383811660048301527f00000000000000000000000000000000000000000000000000000000000000001690639e9dccb690602401602060405180830381865afa1580156114a3573d6000803e3d6000fd5b505050506040513d601f19601f820116820180604052508101906114c791906129bb565b60038111156114d8576114d86129a5565b14155b156114f9576040516376644cf960e11b815260040160405180910390fd5b60006003838154811061150e5761150e6128d4565b60009182526020909120600660079092020101546001600160a01b03169050801561158e5760405163f1e023fd60e01b8152600481018490526001600160a01b0382169063f1e023fd90602401600060405180830381600087803b15801561157557600080fd5b505af1158015611589573d6000803e3d6000fd5b505050505b6001600160a01b038216156115f85760405163b1a867d560e01b8152600481018490526001600160a01b0383169063b1a867d590602401600060405180830381600087803b1580156115df57600080fd5b505af11580156115f3573d6000803e3d6000fd5b505050505b816003848154811061160c5761160c6128d4565b60009182526020918290206007919091020160060180546001600160a01b0319166001600160a01b03938416179055604051918416825284917fa0671cc6d1b10c28ed0b4e4a9eaa3a903f4fa57c3a02426bbcc453004fed8745910160405180910390a2505050565b60006001600160ff1b0382111561169f576040516308a942bb60e11b815260040160405180910390fd5b5090565b6000600384815481106116b8576116b86128d4565b60009182526020822060066007909202019081015490925060028301916001600160a01b039091169080806116ee8689896118de565b509250925092506000611702868b84611909565b9050600061170f82611dff565b90506000611721888c888888876120e0565b9050801561175d5761175d6001600160a01b037f0000000000000000000000000000000000000000000000000000000000000000168c8361184a565b6001600160a01b038716156117f65760405163870b50fd60e01b81526001600160a01b038c81166004830152602482018e905260448201889052606482018790526084820186905288169063870b50fd9060a4016020604051808303816000875af11580156117d0573d6000803e3d6000fd5b505050506040513d601f19601f820116820180604052508101906117f491906128ea565b505b604080518b8152602081018390526001600160a01b038d16918e917f0e006e790dc8db480892a6d5c0bf539c411db278e5185b07d46bdcc110ba6af5910160405180910390a3505050505050505050505050565b6040516001600160a01b03838116602483015260448201839052610c2091859182169063a9059cbb906064015b604051602081830303815290604052915060e01b6020820180517bffffffffffffffffffffffffffffffffffffffffffffffffffffffff8381831617835250505050612164565b6001600160a01b0381166000908152600183016020526040812054610cec565b60008080806118f7876001600160a01b038816876121c7565b93509350935093505b93509350935093565b60405163444f303960e11b8152600481018390526000907f00000000000000000000000000000000000000000000000000000000000000006001600160a01b03169063889e607290602401602060405180830381865afa158015611971573d6000803e3d6000fd5b505050506040513d601f19601f82011682018060405250810190611995919061294a565b6119a157506000610f60565b600254611a529084906119cb908790600160a01b90046bffffffffffffffffffffffff1686611d22565b7f00000000000000000000000000000000000000000000000000000000000000006001600160a01b0316638761e7fb6040518163ffffffff1660e01b8152600401602060405180830381865afa158015611a29573d6000803e3d6000fd5b505050506040513d601f19601f82011682018060405250810190611a4d91906128ea565b611d30565b949350505050565b600080808080670de0b6b3a7640000611a937f00000000000000000000000000000000000000000000000000000000000000008861296c565b611a9d9190612983565b90506000670de0b6b3a7640000611ad47f00000000000000000000000000000000000000000000000000000000000000008961296c565b611ade9190612983565b90506000670de0b6b3a7640000611b157f00000000000000000000000000000000000000000000000000000000000000008a61296c565b611b1f9190612983565b905060008183611b2f868c6129dc565b611b3991906129dc565b611b4391906129dc565b939992985090965091945092505050565b600080611b618484612226565b8760010154611b7091906129ef565b90508415611bac576001600160a01b0386166000908152600288016020526040902054611b9d828761224a565b611ba791906129dc565b611baf565b60005b979650505050505050565b7f237e158222e3e6968b72b9db0d8043aacf074ad9f650f0d1606b4d82ee432c0080546001600160a01b031916815561058e82612261565b6001600160a01b038116611c19576040516398e7ce9b60e01b815260040160405180910390fd5b600180546001600160a01b0319166001600160a01b0383169081179091556040517f1a04a70b1e87ff55fb825283bf704f645bc7273f3872383da5dcf74677eb612b90600090a250565b6040516001600160a01b038481166024830152838116604483015260648201839052611c9c9186918216906323b872dd90608401611877565b50505050565b6001600160a01b038116611cc9576040516398e7ce9b60e01b815260040160405180910390fd5b600080546001600160a01b0319166001600160a01b038316908117825560405190917f3c864541ef71378c6229510ed90f376565ee42d9c5e0904a984a9e863e6db44f91a250565b611d196122d2565b6105a381612320565b6000611a5284844285612352565b60008115611df5576040517fff9810990000000000000000000000000000000000000000000000000000000081526004810185905282907f00000000000000000000000000000000000000000000000000000000000000006001600160a01b03169063ff98109990602401602060405180830381865afa158015611db8573d6000803e3d6000fd5b505050506040513d601f19601f82011682018060405250810190611ddc91906128ea565b611de6908561296c565b611df09190612983565b611a52565b5060009392505050565b600081600003611e1157506000919050565b600080600080611e2086611a5a565b6000546040516340c10f1960e01b81526001600160a01b0391821660048201526024810186905294985092965090945092507f000000000000000000000000000000000000000000000000000000000000000016906340c10f19906044016020604051808303816000875af1158015611e9d573d6000803e3d6000fd5b505050506040513d601f19601f82011682018060405250810190611ec191906128ea565b506001546040516340c10f1960e01b81526001600160a01b039182166004820152602481018590527f0000000000000000000000000000000000000000000000000000000000000000909116906340c10f19906044016020604051808303816000875af1158015611f36573d6000803e3d6000fd5b505050506040513d601f19601f82011682018060405250810190611f5a91906128ea565b506002546040516340c10f1960e01b81526001600160a01b039182166004820152602481018490527f0000000000000000000000000000000000000000000000000000000000000000909116906340c10f19906044016020604051808303816000875af1158015611fcf573d6000803e3d6000fd5b505050506040513d601f19601f82011682018060405250810190611ff391906128ea565b506040516340c10f1960e01b8152306004820152602481018290527f00000000000000000000000000000000000000000000000000000000000000006001600160a01b0316906340c10f19906044016020604051808303816000875af1158015612061573d6000803e3d6000fd5b505050506040513d601f19601f8201168201806040525081019061208591906128ea565b9695505050505050565b60008061209c8484612226565b85549091504211156120ac574285555b80156120d157808560010160008282546120c691906129ef565b9250508190556120d7565b84600101545b95945050505050565b6000806120ee88858561208f565b9050851561212a576001600160a01b038716600090815260028901602052604090205461211b828861224a565b61212591906129dc565b61212d565b60005b9150612139818661224a565b6001600160a01b03909716600090815260029098016020525060409096209490945550929392505050565b60006121796001600160a01b0384168361239c565b9050805160001415801561219e57508080602001905181019061219c919061294a565b155b15610c2057604051635274afe760e01b81526001600160a01b0384166004820152602401610c76565b60008281526001840160205260408120548454909190818481036121ef575082915080611900565b6121f984866123aa565b925061220582866123aa565b60008781526001890160205260409020849055808855905093509350935093565b600082156122415761223c83604084901b612983565b610cec565b50600092915050565b60006040612258848461296c565b901c9392505050565b7f9016d09d72d40fdae2fd8ceac6b6234c7706214fd39c1cd1e609a0528c19930080546001600160a01b031981166001600160a01b03848116918217845560405192169182907f8be0079c531659141344cd1fd0a4f28419497f9722a3daafe3b4186f6b6457e090600090a3505050565b7ff0c57e16840df040f15088dc2f81fe391c3923bec73e23a9662efc9c229c6a005468010000000000000000900460ff166113b557604051631afcd79f60e31b815260040160405180910390fd5b6123286122d2565b6001600160a01b038116610c7f57604051631e4fbdf760e01b815260006004820152602401610c76565b60008160000361236457506000611a52565b845460004285106123755742612377565b845b9050818111612387576000611baf565b8561239283836129dc565b611baf919061296c565b6060610cec838360006123e6565b8181016001600160ff1b03808411908211171560008190036123df576040516308a942bb60e11b815260040160405180910390fd5b5092915050565b60608147101561240b5760405163cd78605960e01b8152306004820152602401610c76565b600080856001600160a01b031684866040516124279190612a02565b60006040518083038185875af1925050503d8060008114612464576040519150601f19603f3d011682016040523d82523d6000602084013e612469565b606091505b509150915061208586838360608261248457610f58826124cb565b815115801561249b57506001600160a01b0384163b155b156124c457604051639996b31560e01b81526001600160a01b0385166004820152602401610c76565b5080610f60565b8051156124db5780518082602001fd5b604051630a12f52160e11b815260040160405180910390fd5b60008083601f84011261250657600080fd5b50813567ffffffffffffffff81111561251e57600080fd5b6020830191508360208260051b850101111561253957600080fd5b9250929050565b6000806020838503121561255357600080fd5b823567ffffffffffffffff81111561256a57600080fd5b612576858286016124f4565b90969095509350505050565b6001600160a01b03811681146105a357600080fd5b6000602082840312156125a957600080fd5b8135610f6081612582565b600080604083850312156125c757600080fd5b8235915060208301356125d981612582565b809150509250929050565b6000602082840312156125f657600080fd5b81356bffffffffffffffffffffffff81168114610f6057600080fd5b6000806040838503121561262557600080fd5b50508035926020909101359150565b6000806040838503121561264757600080fd5b823561265281612582565b915060208301356125d981612582565b60006020828403121561267457600080fd5b5035919050565b60008060006040848603121561269057600080fd5b833561269b81612582565b9250602084013567ffffffffffffffff8111156126b757600080fd5b6126c3868287016124f4565b9497909650939450505050565b600081518084526020808501945080840160005b83811015612700578151875295820195908201906001016126e4565b509495945050505050565b60608152600061271e60608301866126d0565b82810360208481019190915285518083528682019282019060005b8181101561275e5784516001600160a01b031683529383019391830191600101612739565b5050848103604086015261277281876126d0565b98975050505050505050565b6000806000806080858703121561279457600080fd5b843561279f81612582565b935060208501356127af81612582565b925060408501356127bf81612582565b915060608501356127cf81612582565b939692955090935050565b634e487b7160e01b600052604160045260246000fd5b6000602080838503121561280357600080fd5b825167ffffffffffffffff8082111561281b57600080fd5b818501915085601f83011261282f57600080fd5b815181811115612841576128416127da565b8060051b604051601f19603f83011681018181108582111715612866576128666127da565b60405291825284820192508381018501918883111561288457600080fd5b938501935b8285101561277257845184529385019392850192612889565b634e487b7160e01b600052601160045260246000fd5b6000600160ff1b82016128cd576128cd6128a2565b5060000390565b634e487b7160e01b600052603260045260246000fd5b6000602082840312156128fc57600080fd5b5051919050565b6000806040838503121561291657600080fd5b825161292181612582565b6020939093015192949293505050565b600060018201612943576129436128a2565b5060010190565b60006020828403121561295c57600080fd5b81518015158114610f6057600080fd5b8082028115828204841417610cef57610cef6128a2565b6000826129a057634e487b7160e01b600052601260045260246000fd5b500490565b634e487b7160e01b600052602160045260246000fd5b6000602082840312156129cd57600080fd5b815160048110610f6057600080fd5b81810381811115610cef57610cef6128a2565b80820180821115610cef57610cef6128a2565b6000825160005b81811015612a235760208186018101518583015201612a09565b50600092019182525091905056fea26469706673582212207a6fc75327fadd6d1b1d1c7ba143b6160a68d8a5e640e25923991afa927dba0164736f6c63430008140033","linkReferences":{}},"methodIdentifiers":{"acceptOwnership()":"79ba5097","add(address,address)":"52c28fab","claim(uint256[])":"6ba4c138","deposit(uint256,uint256)":"e2bbb158","emergencyWithdraw(uint256)":"5312ea8e","getDeposit(uint256,address)":"9f489e4e","getExtraRewarder(uint256)":"e665b414","getFutureFunding()":"13580ae7","getFutureFundingShare()":"9b5ec70c","getLastUpdateTimestamp(uint256)":"b507a700","getMoe()":"93f94503","getMoePerSecond()":"5b92d831","getMoePerSecondForPid(uint256)":"d4f9dd1d","getNumberOfFarms()":"c7a61783","getPendingRewards(address,uint256[])":"566aff6a","getRewarderFactory()":"5c4323ab","getTeam()":"8bce6edd","getTeamShare()":"af32feb3","getToken(uint256)":"e4b50cb8","getTotalDeposit(uint256)":"d23ab97a","getTreasury()":"3b19e84a","getTreasuryShare()":"796441bb","getVeMoe()":"7e63f028","initialize(address,address,address,address)":"f8c8765e","owner()":"8da5cb5b","pendingOwner()":"e30c3978","renounceOwnership()":"715018a6","setExtraRewarder(uint256,address)":"21bd31de","setFutureFunding(address)":"d445ac47","setMoePerSecond(uint96)":"2498aef7","setTeam(address)":"095cf5c6","setTreasury(address)":"f0f44260","transferOwnership(address)":"f2fde38b","updateAll(uint256[])":"04093c5b","withdraw(uint256,uint256)":"441a3e70"},"id":62}