{"abi":[{"type":"constructor","inputs":[{"name":"minter","type":"address","internalType":"address"},{"name":"initialSupply","type":"uint256","internalType":"uint256"},{"name":"maxSupply","type":"uint256","internalType":"uint256"}],"stateMutability":"nonpayable"},{"type":"function","name":"DOMAIN_SEPARATOR","inputs":[],"outputs":[{"name":"","type":"bytes32","internalType":"bytes32"}],"stateMutability":"view"},{"type":"function","name":"allowance","inputs":[{"name":"owner","type":"address","internalType":"address"},{"name":"spender","type":"address","internalType":"address"}],"outputs":[{"name":"","type":"uint256","internalType":"uint256"}],"stateMutability":"view"},{"type":"function","name":"approve","inputs":[{"name":"spender","type":"address","internalType":"address"},{"name":"value","type":"uint256","internalType":"uint256"}],"outputs":[{"name":"","type":"bool","internalType":"bool"}],"stateMutability":"nonpayable"},{"type":"function","name":"balanceOf","inputs":[{"name":"account","type":"address","internalType":"address"}],"outputs":[{"name":"","type":"uint256","internalType":"uint256"}],"stateMutability":"view"},{"type":"function","name":"decimals","inputs":[],"outputs":[{"name":"","type":"uint8","internalType":"uint8"}],"stateMutability":"view"},{"type":"function","name":"eip712Domain","inputs":[],"outputs":[{"name":"fields","type":"bytes1","internalType":"bytes1"},{"name":"name","type":"string","internalType":"string"},{"name":"version","type":"string","internalType":"string"},{"name":"chainId","type":"uint256","internalType":"uint256"},{"name":"verifyingContract","type":"address","internalType":"address"},{"name":"salt","type":"bytes32","internalType":"bytes32"},{"name":"extensions","type":"uint256[]","internalType":"uint256[]"}],"stateMutability":"view"},{"type":"function","name":"getMaxSupply","inputs":[],"outputs":[{"name":"","type":"uint256","internalType":"uint256"}],"stateMutability":"view"},{"type":"function","name":"getMinter","inputs":[],"outputs":[{"name":"","type":"address","internalType":"address"}],"stateMutability":"view"},{"type":"function","name":"mint","inputs":[{"name":"account","type":"address","internalType":"address"},{"name":"amount","type":"uint256","internalType":"uint256"}],"outputs":[{"name":"","type":"uint256","internalType":"uint256"}],"stateMutability":"nonpayable"},{"type":"function","name":"name","inputs":[],"outputs":[{"name":"","type":"string","internalType":"string"}],"stateMutability":"view"},{"type":"function","name":"nonces","inputs":[{"name":"owner","type":"address","internalType":"address"}],"outputs":[{"name":"","type":"uint256","internalType":"uint256"}],"stateMutability":"view"},{"type":"function","name":"permit","inputs":[{"name":"owner","type":"address","internalType":"address"},{"name":"spender","type":"address","internalType":"address"},{"name":"value","type":"uint256","internalType":"uint256"},{"name":"deadline","type":"uint256","internalType":"uint256"},{"name":"v","type":"uint8","internalType":"uint8"},{"name":"r","type":"bytes32","internalType":"bytes32"},{"name":"s","type":"bytes32","internalType":"bytes32"}],"outputs":[],"stateMutability":"nonpayable"},{"type":"function","name":"symbol","inputs":[],"outputs":[{"name":"","type":"string","internalType":"string"}],"stateMutability":"view"},{"type":"function","name":"totalSupply","inputs":[],"outputs":[{"name":"","type":"uint256","internalType":"uint256"}],"stateMutability":"view"},{"type":"function","name":"transfer","inputs":[{"name":"to","type":"address","internalType":"address"},{"name":"value","type":"uint256","internalType":"uint256"}],"outputs":[{"name":"","type":"bool","internalType":"bool"}],"stateMutability":"nonpayable"},{"type":"function","name":"transferFrom","inputs":[{"name":"from","type":"address","internalType":"address"},{"name":"to","type":"address","internalType":"address"},{"name":"value","type":"uint256","internalType":"uint256"}],"outputs":[{"name":"","type":"bool","internalType":"bool"}],"stateMutability":"nonpayable"},{"type":"event","name":"Approval","inputs":[{"name":"owner","type":"address","indexed":true,"internalType":"address"},{"name":"spender","type":"address","indexed":true,"internalType":"address"},{"name":"value","type":"uint256","indexed":false,"internalType":"uint256"}],"anonymous":false},{"type":"event","name":"EIP712DomainChanged","inputs":[],"anonymous":false},{"type":"event","name":"Transfer","inputs":[{"name":"from","type":"address","indexed":true,"internalType":"address"},{"name":"to","type":"address","indexed":true,"internalType":"address"},{"name":"value","type":"uint256","indexed":false,"internalType":"uint256"}],"anonymous":false},{"type":"error","name":"ECDSAInvalidSignature","inputs":[]},{"type":"error","name":"ECDSAInvalidSignatureLength","inputs":[{"name":"length","type":"uint256","internalType":"uint256"}]},{"type":"error","name":"ECDSAInvalidSignatureS","inputs":[{"name":"s","type":"bytes32","internalType":"bytes32"}]},{"type":"error","name":"ERC20InsufficientAllowance","inputs":[{"name":"spender","type":"address","internalType":"address"},{"name":"allowance","type":"uint256","internalType":"uint256"},{"name":"needed","type":"uint256","internalType":"uint256"}]},{"type":"error","name":"ERC20InsufficientBalance","inputs":[{"name":"sender","type":"address","internalType":"address"},{"name":"balance","type":"uint256","internalType":"uint256"},{"name":"needed","type":"uint256","internalType":"uint256"}]},{"type":"error","name":"ERC20InvalidApprover","inputs":[{"name":"approver","type":"address","internalType":"address"}]},{"type":"error","name":"ERC20InvalidReceiver","inputs":[{"name":"receiver","type":"address","internalType":"address"}]},{"type":"error","name":"ERC20InvalidSender","inputs":[{"name":"sender","type":"address","internalType":"address"}]},{"type":"error","name":"ERC20InvalidSpender","inputs":[{"name":"spender","type":"address","internalType":"address"}]},{"type":"error","name":"ERC2612ExpiredSignature","inputs":[{"name":"deadline","type":"uint256","internalType":"uint256"}]},{"type":"error","name":"ERC2612InvalidSigner","inputs":[{"name":"signer","type":"address","internalType":"address"},{"name":"owner","type":"address","internalType":"address"}]},{"type":"error","name":"InvalidAccountNonce","inputs":[{"name":"account","type":"address","internalType":"address"},{"name":"currentNonce","type":"uint256","internalType":"uint256"}]},{"type":"error","name":"InvalidShortString","inputs":[]},{"type":"error","name":"Moe__InvalidInitialSupply","inputs":[]},{"type":"error","name":"Moe__NotMinter","inputs":[{"name":"account","type":"address","internalType":"address"}]},{"type":"error","name":"StringTooLong","inputs":[{"name":"str","type":"string","internalType":"string"}]}],"bytecode":{"object":"0x6101a06040523480156200001257600080fd5b506040516200175c3803806200175c8339810160408190526200003591620003c7565b6040518060400160405280600981526020016826b7b2902a37b5b2b760b91b81525080604051806040016040528060018152602001603160f81b8152506040518060400160405280600981526020016826b7b2902a37b5b2b760b91b815250604051806040016040528060038152602001624d4f4560e81b8152508160039081620000c19190620004b1565b506004620000d08282620004b1565b50620000e291508390506005620001d6565b61012052620000f3816006620001d6565b61014052815160208084019190912060e052815190820120610100524660a0526200018160e05161010051604080517f8b73c3c69bb8fe3d512ecc4cf759cc79239f7b179b0ffacaa9a75d522b39400f60208201529081019290925260608201524660808201523060a082015260009060c00160405160208183030381529060405280519060200120905090565b60805250503060c0525080821115620001ad576040516370d5672160e01b815260040160405180910390fd5b6001600160a01b03831661016052610180819052620001cd33836200020f565b50505062000614565b6000602083511015620001f657620001ee8362000251565b905062000209565b81620002038482620004b1565b5060ff90505b92915050565b6001600160a01b0382166200023f5760405163ec442f0560e01b8152600060048201526024015b60405180910390fd5b6200024d6000838362000294565b5050565b600080829050601f815111156200027f578260405163305a27a960e01b81526004016200023691906200057d565b80516200028c82620005cd565b179392505050565b6001600160a01b038316620002c3578060026000828254620002b79190620005f2565b90915550620003379050565b6001600160a01b03831660009081526020819052604090205481811015620003185760405163391434e360e21b81526001600160a01b0385166004820152602481018290526044810183905260640162000236565b6001600160a01b03841660009081526020819052604090209082900390555b6001600160a01b038216620003555760028054829003905562000374565b6001600160a01b03821660009081526020819052604090208054820190555b816001600160a01b0316836001600160a01b03167fddf252ad1be2c89b69c2b068fc378daa952ba7f163c4a11628f55a4df523b3ef83604051620003ba91815260200190565b60405180910390a3505050565b600080600060608486031215620003dd57600080fd5b83516001600160a01b0381168114620003f557600080fd5b602085015160409095015190969495509392505050565b634e487b7160e01b600052604160045260246000fd5b600181811c908216806200043757607f821691505b6020821081036200045857634e487b7160e01b600052602260045260246000fd5b50919050565b601f821115620004ac57600081815260208120601f850160051c81016020861015620004875750805b601f850160051c820191505b81811015620004a85782815560010162000493565b5050505b505050565b81516001600160401b03811115620004cd57620004cd6200040c565b620004e581620004de845462000422565b846200045e565b602080601f8311600181146200051d5760008415620005045750858301515b600019600386901b1c1916600185901b178555620004a8565b600085815260208120601f198616915b828110156200054e578886015182559484019460019091019084016200052d565b50858210156200056d5787850151600019600388901b60f8161c191681555b5050505050600190811b01905550565b600060208083528351808285015260005b81811015620005ac578581018301518582016040015282016200058e565b506000604082860101526040601f19601f8301168501019250505092915050565b80516020808301519190811015620004585760001960209190910360031b1b16919050565b808201808211156200020957634e487b7160e01b600052601160045260246000fd5b60805160a05160c05160e05161010051610120516101405161016051610180516110c26200069a60003960008181610197015281816103f2015261042c015260008181610288015261039e015260006108ad01526000610880015260006107ee015260006107c6015260006107210152600061074b0152600061077501526110c26000f3fe608060405234801561001057600080fd5b50600436106101005760003560e01c806370a0823111610097578063a9059cbb11610066578063a9059cbb1461021a578063d505accf1461022d578063dd62ed3e14610242578063f36675171461027b57600080fd5b806370a08231146101bb5780637ecebe00146101e457806384b0196e146101f757806395d89b411461021257600080fd5b8063313ce567116100d3578063313ce5671461016b5780633644e5151461017a57806340c10f19146101825780634c0f38c21461019557600080fd5b806306fdde0314610105578063095ea7b31461012357806318160ddd1461014657806323b872dd14610158575b600080fd5b61010d6102b2565b60405161011a9190610e0d565b60405180910390f35b610136610131366004610e43565b610344565b604051901515815260200161011a565b6002545b60405190815260200161011a565b610136610166366004610e6d565b61035e565b6040516012815260200161011a565b61014a610382565b61014a610190366004610e43565b610391565b7f000000000000000000000000000000000000000000000000000000000000000061014a565b61014a6101c9366004610ea9565b6001600160a01b031660009081526020819052604090205490565b61014a6101f2366004610ea9565b61046a565b6101ff610488565b60405161011a9796959493929190610ec4565b61010d6104ce565b610136610228366004610e43565b6104dd565b61024061023b366004610f5a565b6104eb565b005b61014a610250366004610fcd565b6001600160a01b03918216600090815260016020908152604080832093909416825291909152205490565b6040516001600160a01b037f000000000000000000000000000000000000000000000000000000000000000016815260200161011a565b6060600380546102c190611000565b80601f01602080910402602001604051908101604052809291908181526020018280546102ed90611000565b801561033a5780601f1061030f5761010080835404028352916020019161033a565b820191906000526020600020905b81548152906001019060200180831161031d57829003601f168201915b5050505050905090565b600033610352818585610625565b60019150505b92915050565b60003361036c858285610637565b6103778585856106b5565b506001949350505050565b600061038c610714565b905090565b6000336001600160a01b037f000000000000000000000000000000000000000000000000000000000000000016146103e357604051633301f4cf60e21b81523360048201526024015b60405180910390fd5b60006103ee60025490565b90507f000000000000000000000000000000000000000000000000000000000000000061041b8483611050565b116104265782610450565b610450817f0000000000000000000000000000000000000000000000000000000000000000611063565b9250821561046257610462848461083f565b509092915050565b6001600160a01b038116600090815260076020526040812054610358565b60006060806000806000606061049c610879565b6104a46108a6565b60408051600080825260208201909252600f60f81b9b939a50919850469750309650945092509050565b6060600480546102c190611000565b6000336103528185856106b5565b8342111561050f5760405163313c898160e11b8152600481018590526024016103da565b60007f6e71edae12b1b97f4d1f60370fef10105fa2faae0126114a169c64845d6126c988888861055c8c6001600160a01b0316600090815260076020526040902080546001810190915590565b6040805160208101969096526001600160a01b0394851690860152929091166060840152608083015260a082015260c0810186905260e00160405160208183030381529060405280519060200120905060006105b7826108d3565b905060006105c782878787610900565b9050896001600160a01b0316816001600160a01b03161461060e576040516325c0072360e11b81526001600160a01b0380831660048301528b1660248201526044016103da565b6106198a8a8a610625565b50505050505050505050565b610632838383600161092e565b505050565b6001600160a01b0383811660009081526001602090815260408083209386168352929052205460001981146106af57818110156106a057604051637dc7a0d960e11b81526001600160a01b038416600482015260248101829052604481018390526064016103da565b6106af8484848403600061092e565b50505050565b6001600160a01b0383166106df57604051634b637e8f60e11b8152600060048201526024016103da565b6001600160a01b0382166107095760405163ec442f0560e01b8152600060048201526024016103da565b610632838383610a03565b6000306001600160a01b037f00000000000000000000000000000000000000000000000000000000000000001614801561076d57507f000000000000000000000000000000000000000000000000000000000000000046145b1561079757507f000000000000000000000000000000000000000000000000000000000000000090565b61038c604080517f8b73c3c69bb8fe3d512ecc4cf759cc79239f7b179b0ffacaa9a75d522b39400f60208201527f0000000000000000000000000000000000000000000000000000000000000000918101919091527f000000000000000000000000000000000000000000000000000000000000000060608201524660808201523060a082015260009060c00160405160208183030381529060405280519060200120905090565b6001600160a01b0382166108695760405163ec442f0560e01b8152600060048201526024016103da565b61087560008383610a03565b5050565b606061038c7f00000000000000000000000000000000000000000000000000000000000000006005610b2d565b606061038c7f00000000000000000000000000000000000000000000000000000000000000006006610b2d565b60006103586108e0610714565b8360405161190160f01b8152600281019290925260228201526042902090565b60008060008061091288888888610bd8565b9250925092506109228282610ca7565b50909695505050505050565b6001600160a01b0384166109585760405163e602df0560e01b8152600060048201526024016103da565b6001600160a01b03831661098257604051634a1406b160e11b8152600060048201526024016103da565b6001600160a01b03808516600090815260016020908152604080832093871683529290522082905580156106af57826001600160a01b0316846001600160a01b03167f8c5be1e5ebec7d5bd14f71427d1e84f3dd0314c0f7b2291e5b200ac8c7c3b925846040516109f591815260200190565b60405180910390a350505050565b6001600160a01b038316610a2e578060026000828254610a239190611050565b90915550610aa09050565b6001600160a01b03831660009081526020819052604090205481811015610a815760405163391434e360e21b81526001600160a01b038516600482015260248101829052604481018390526064016103da565b6001600160a01b03841660009081526020819052604090209082900390555b6001600160a01b038216610abc57600280548290039055610adb565b6001600160a01b03821660009081526020819052604090208054820190555b816001600160a01b0316836001600160a01b03167fddf252ad1be2c89b69c2b068fc378daa952ba7f163c4a11628f55a4df523b3ef83604051610b2091815260200190565b60405180910390a3505050565b606060ff8314610b4757610b4083610d60565b9050610358565b818054610b5390611000565b80601f0160208091040260200160405190810160405280929190818152602001828054610b7f90611000565b8015610bcc5780601f10610ba157610100808354040283529160200191610bcc565b820191906000526020600020905b815481529060010190602001808311610baf57829003601f168201915b50505050509050610358565b600080807f7fffffffffffffffffffffffffffffff5d576e7357a4501ddfe92f46681b20a0841115610c135750600091506003905082610c9d565b604080516000808252602082018084528a905260ff891692820192909252606081018790526080810186905260019060a0016020604051602081039080840390855afa158015610c67573d6000803e3d6000fd5b5050604051601f1901519150506001600160a01b038116610c9357506000925060019150829050610c9d565b9250600091508190505b9450945094915050565b6000826003811115610cbb57610cbb611076565b03610cc4575050565b6001826003811115610cd857610cd8611076565b03610cf65760405163f645eedf60e01b815260040160405180910390fd5b6002826003811115610d0a57610d0a611076565b03610d2b5760405163fce698f760e01b8152600481018290526024016103da565b6003826003811115610d3f57610d3f611076565b03610875576040516335e2f38360e21b8152600481018290526024016103da565b60606000610d6d83610d9f565b604080516020808252818301909252919250600091906020820181803683375050509182525060208101929092525090565b600060ff8216601f81111561035857604051632cd44ac360e21b815260040160405180910390fd5b6000815180845260005b81811015610ded57602081850181015186830182015201610dd1565b506000602082860101526020601f19601f83011685010191505092915050565b602081526000610e206020830184610dc7565b9392505050565b80356001600160a01b0381168114610e3e57600080fd5b919050565b60008060408385031215610e5657600080fd5b610e5f83610e27565b946020939093013593505050565b600080600060608486031215610e8257600080fd5b610e8b84610e27565b9250610e9960208501610e27565b9150604084013590509250925092565b600060208284031215610ebb57600080fd5b610e2082610e27565b60ff60f81b881681526000602060e081840152610ee460e084018a610dc7565b8381036040850152610ef6818a610dc7565b606085018990526001600160a01b038816608086015260a0850187905284810360c0860152855180825283870192509083019060005b81811015610f4857835183529284019291840191600101610f2c565b50909c9b505050505050505050505050565b600080600080600080600060e0888a031215610f7557600080fd5b610f7e88610e27565b9650610f8c60208901610e27565b95506040880135945060608801359350608088013560ff81168114610fb057600080fd5b9699959850939692959460a0840135945060c09093013592915050565b60008060408385031215610fe057600080fd5b610fe983610e27565b9150610ff760208401610e27565b90509250929050565b600181811c9082168061101457607f821691505b60208210810361103457634e487b7160e01b600052602260045260246000fd5b50919050565b634e487b7160e01b600052601160045260246000fd5b808201808211156103585761035861103a565b818103818111156103585761035861103a565b634e487b7160e01b600052602160045260246000fdfea2646970667358221220d3f5f8a9650e2022d63e35e61b5c2b8cb06350c7958f725959ba4d337eab4dbf64736f6c63430008140033","linkReferences":{}},"methodIdentifiers":{"DOMAIN_SEPARATOR()":"3644e515","allowance(address,address)":"dd62ed3e","approve(address,uint256)":"095ea7b3","balanceOf(address)":"70a08231","decimals()":"313ce567","eip712Domain()":"84b0196e","getMaxSupply()":"4c0f38c2","getMinter()":"f3667517","mint(address,uint256)":"40c10f19","name()":"06fdde03","nonces(address)":"7ecebe00","permit(address,address,uint256,uint256,uint8,bytes32,bytes32)":"d505accf","symbol()":"95d89b41","totalSupply()":"18160ddd","transfer(address,uint256)":"a9059cbb","transferFrom(address,address,uint256)":"23b872dd"},"id":63}