{
  "abi": [
    {
      "inputs": [
        {
          "internalType": "contract IERC20",
          "name": "moe",
          "type": "address"
        },
        {
          "internalType": "contract IVeMoe",
          "name": "veMoe",
          "type": "address"
        },
        {
          "internalType": "contract IStableMoe",
          "name": "sMoe",
          "type": "address"
        }
      ],
      "stateMutability": "nonpayable",
      "type": "constructor"
    },
    {
      "inputs": [
        {
          "internalType": "address",
          "name": "target",
          "type": "address"
        }
      ],
      "name": "AddressEmptyCode",
      "type": "error"
    },
    {
      "inputs": [
        {
          "internalType": "address",
          "name": "account",
          "type": "address"
        }
      ],
      "name": "AddressInsufficientBalance",
      "type": "error"
    },
    {
      "inputs": [],
      "name": "FailedInnerCall",
      "type": "error"
    },
    {
      "inputs": [],
      "name": "Math__UnderOverflow",
      "type": "error"
    },
    {
      "inputs": [
        {
          "internalType": "address",
          "name": "token",
          "type": "address"
        }
      ],
      "name": "SafeERC20FailedOperation",
      "type": "error"
    },
    {
      "anonymous": false,
      "inputs": [
        {
          "indexed": true,
          "internalType": "address",
          "name": "account",
          "type": "address"
        },
        {
          "indexed": false,
          "internalType": "int256",
          "name": "deltaAmount",
          "type": "int256"
        }
      ],
      "name": "PositionModified",
      "type": "event"
    },
    {
      "inputs": [],
      "name": "claim",
      "outputs": [],
      "stateMutability": "nonpayable",
      "type": "function"
    },
    {
      "inputs": [
        {
          "internalType": "address",
          "name": "account",
          "type": "address"
        }
      ],
      "name": "getDeposit",
      "outputs": [
        {
          "internalType": "uint256",
          "name": "",
          "type": "uint256"
        }
      ],
      "stateMutability": "view",
      "type": "function"
    },
    {
      "inputs": [],
      "name": "getMoe",
      "outputs": [
        {
          "internalType": "address",
          "name": "",
          "type": "address"
        }
      ],
      "stateMutability": "view",
      "type": "function"
    },
    {
      "inputs": [],
      "name": "getSMoe",
      "outputs": [
        {
          "internalType": "address",
          "name": "",
          "type": "address"
        }
      ],
      "stateMutability": "view",
      "type": "function"
    },
    {
      "inputs": [],
      "name": "getTotalDeposit",
      "outputs": [
        {
          "internalType": "uint256",
          "name": "",
          "type": "uint256"
        }
      ],
      "stateMutability": "view",
      "type": "function"
    },
    {
      "inputs": [],
      "name": "getVeMoe",
      "outputs": [
        {
          "internalType": "address",
          "name": "",
          "type": "address"
        }
      ],
      "stateMutability": "view",
      "type": "function"
    },
    {
      "inputs": [
        {
          "internalType": "uint256",
          "name": "amount",
          "type": "uint256"
        }
      ],
      "name": "stake",
      "outputs": [],
      "stateMutability": "nonpayable",
      "type": "function"
    },
    {
      "inputs": [
        {
          "internalType": "uint256",
          "name": "amount",
          "type": "uint256"
        }
      ],
      "name": "unstake",
      "outputs": [],
      "stateMutability": "nonpayable",
      "type": "function"
    }
  ],
  "bytecode": {
    "object": "0x60e060405234801561001057600080fd5b5060405161090138038061090183398101604081905261002f91610064565b6001600160a01b0392831660805290821660a0521660c0526100b1565b6001600160a01b038116811461006157600080fd5b50565b60008060006060848603121561007957600080fd5b83516100848161004c565b60208501519093506100958161004c565b60408501519092506100a68161004c565b809150509250925092565b60805160a05160c0516108076100fa6000396000818160ac015261034701526000818160eb01526102b00152600081816101110152818161019b01526101f201526108076000f3fe608060405234801561001057600080fd5b50600436106100885760003560e01c806393f945031161005b57806393f945031461010f578063a694fc3a14610135578063c022215c14610148578063e1254fba1461015a57600080fd5b80632e17de781461008d5780634e71d92d146100a25780637ac20b57146100aa5780637e63f028146100e9575b600080fd5b6100a061009b366004610714565b61016d565b005b6100a06101c5565b7f00000000000000000000000000000000000000000000000000000000000000005b6040516001600160a01b0390911681526020015b60405180910390f35b7f00000000000000000000000000000000000000000000000000000000000000006100cc565b7f00000000000000000000000000000000000000000000000000000000000000006100cc565b6100a0610143366004610714565b6101d2565b6000545b6040519081526020016100e0565b61014c61016836600461072d565b61021a565b6101883361017a8361022c565b61018390610756565b61025a565b80156101c2576101c26001600160a01b037f00000000000000000000000000000000000000000000000000000000000000001633836103f0565b50565b6101d033600061025a565b565b6101df336101838361022c565b80156101c2576101c26001600160a01b037f000000000000000000000000000000000000000000000000000000000000000016333084610454565b60006102268183610493565b92915050565b60006001600160ff1b03821115610256576040516308a942bb60e11b815260040160405180910390fd5b5090565b600080808061026a8187876104b6565b60405163870b50fd60e01b81526001600160a01b038b811660048301526024820186905260448201859052606482018490526084820183905294985092965090945092507f00000000000000000000000000000000000000000000000000000000000000009091169063870b50fd9060a401600060405180830381600087803b1580156102f657600080fd5b505af115801561030a573d6000803e3d6000fd5b505060405163870b50fd60e01b81526001600160a01b038981166004830152602482018890526044820187905260648201869052608482018590527f000000000000000000000000000000000000000000000000000000000000000016925063870b50fd915060a401600060405180830381600087803b15801561038d57600080fd5b505af11580156103a1573d6000803e3d6000fd5b50505050856001600160a01b03167f5d3c61193bbcc1603067fd423e11cd08bca2a7ccbeb1dc3dda0c3d4ad9e6d71f866040516103e091815260200190565b60405180910390a2505050505050565b6040516001600160a01b0383811660248301526044820183905261044f91859182169063a9059cbb906064015b604051602081830303815290604052915060e01b6020820180516001600160e01b0383818316178352505050506104e1565b505050565b6040516001600160a01b03848116602483015283811660448301526064820183905261048d9186918216906323b872dd9060840161041d565b50505050565b6001600160a01b03811660009081526001830160205260408120545b9392505050565b60008080806104cf876001600160a01b03881687610549565b93509350935093505b93509350935093565b60006104f66001600160a01b038416836105a8565b9050805160001415801561051b5750808060200190518101906105199190610780565b155b1561044f57604051635274afe760e01b81526001600160a01b03841660048201526024015b60405180910390fd5b60008281526001840160205260408120548454909190818481036105715750829150806104d8565b61057b84866105b6565b925061058782866105b6565b60008781526001890160205260409020849055808855905093509350935093565b60606104af838360006105f2565b8181016001600160ff1b03808411908211171560008190036105eb576040516308a942bb60e11b815260040160405180910390fd5b5092915050565b6060814710156106175760405163cd78605960e01b8152306004820152602401610540565b600080856001600160a01b0316848660405161063391906107a2565b60006040518083038185875af1925050503d8060008114610670576040519150601f19603f3d011682016040523d82523d6000602084013e610675565b606091505b509150915061068586838361068f565b9695505050505050565b6060826106a45761069f826106eb565b6104af565b81511580156106bb57506001600160a01b0384163b155b156106e457604051639996b31560e01b81526001600160a01b0385166004820152602401610540565b50806104af565b8051156106fb5780518082602001fd5b604051630a12f52160e11b815260040160405180910390fd5b60006020828403121561072657600080fd5b5035919050565b60006020828403121561073f57600080fd5b81356001600160a01b03811681146104af57600080fd5b6000600160ff1b820161077957634e487b7160e01b600052601160045260246000fd5b5060000390565b60006020828403121561079257600080fd5b815180151581146104af57600080fd5b6000825160005b818110156107c357602081860181015185830152016107a9565b50600092019182525091905056fea2646970667358221220127be45bab429862a79a5eac65090259e9e7947e0485cd133956ba784f41fb9c64736f6c63430008140033",
    "linkReferences": {}
  },
  "methodIdentifiers": {
    "claim()": "4e71d92d",
    "getDeposit(address)": "e1254fba",
    "getMoe()": "93f94503",
    "getSMoe()": "7ac20b57",
    "getTotalDeposit()": "c022215c",
    "getVeMoe()": "7e63f028",
    "stake(uint256)": "a694fc3a",
    "unstake(uint256)": "2e17de78"
  },
  "id": 62
}