{"abi":[{"type":"constructor","inputs":[{"name":"caller","type":"address","internalType":"address"}],"stateMutability":"nonpayable"},{"type":"fallback","stateMutability":"payable"},{"type":"receive","stateMutability":"payable"},{"type":"function","name":"acceptOwnership","inputs":[],"outputs":[],"stateMutability":"nonpayable"},{"type":"function","name":"claim","inputs":[{"name":"account","type":"address","internalType":"address"},{"name":"amount","type":"uint256","internalType":"uint256"}],"outputs":[],"stateMutability":"nonpayable"},{"type":"function","name":"getCaller","inputs":[],"outputs":[{"name":"","type":"address","internalType":"address"}],"stateMutability":"view"},{"type":"function","name":"getPendingReward","inputs":[{"name":"account","type":"address","internalType":"address"},{"name":"balance","type":"uint256","internalType":"uint256"},{"name":"totalSupply","type":"uint256","internalType":"uint256"}],"outputs":[{"name":"","type":"address","internalType":"contract IERC20"},{"name":"","type":"uint256","internalType":"uint256"}],"stateMutability":"view"},{"type":"function","name":"getPid","inputs":[],"outputs":[{"name":"","type":"uint256","internalType":"uint256"}],"stateMutability":"view"},{"type":"function","name":"getRewarderParameter","inputs":[],"outputs":[{"name":"token","type":"address","internalType":"contract IERC20"},{"name":"rewardPerSecond","type":"uint256","internalType":"uint256"},{"name":"lastUpdateTimestamp","type":"uint256","internalType":"uint256"},{"name":"endTimestamp","type":"uint256","internalType":"uint256"}],"stateMutability":"view"},{"type":"function","name":"getToken","inputs":[],"outputs":[{"name":"","type":"address","internalType":"contract IERC20"}],"stateMutability":"view"},{"type":"function","name":"initialize","inputs":[{"name":"initialOwner","type":"address","internalType":"address"}],"outputs":[],"stateMutability":"nonpayable"},{"type":"function","name":"isStopped","inputs":[],"outputs":[{"name":"","type":"bool","internalType":"bool"}],"stateMutability":"view"},{"type":"function","name":"onModify","inputs":[{"name":"account","type":"address","internalType":"address"},{"name":"pid","type":"uint256","internalType":"uint256"},{"name":"oldBalance","type":"uint256","internalType":"uint256"},{"name":"newBalance","type":"uint256","internalType":"uint256"},{"name":"oldTotalSupply","type":"uint256","internalType":"uint256"}],"outputs":[{"name":"","type":"uint256","internalType":"uint256"}],"stateMutability":"nonpayable"},{"type":"function","name":"owner","inputs":[],"outputs":[{"name":"","type":"address","internalType":"address"}],"stateMutability":"view"},{"type":"function","name":"pendingOwner","inputs":[],"outputs":[{"name":"","type":"address","internalType":"address"}],"stateMutability":"view"},{"type":"function","name":"renounceOwnership","inputs":[],"outputs":[],"stateMutability":"pure"},{"type":"function","name":"setRewardPerSecond","inputs":[{"name":"rewardPerSecond","type":"uint256","internalType":"uint256"},{"name":"expectedDuration","type":"uint256","internalType":"uint256"}],"outputs":[],"stateMutability":"nonpayable"},{"type":"function","name":"setRewarderParameters","inputs":[{"name":"rewardPerSecond","type":"uint256","internalType":"uint256"},{"name":"startTimestamp","type":"uint256","internalType":"uint256"},{"name":"expectedDuration","type":"uint256","internalType":"uint256"}],"outputs":[],"stateMutability":"nonpayable"},{"type":"function","name":"stop","inputs":[],"outputs":[],"stateMutability":"nonpayable"},{"type":"function","name":"sweep","inputs":[{"name":"token","type":"address","internalType":"contract IERC20"},{"name":"account","type":"address","internalType":"address"}],"outputs":[],"stateMutability":"nonpayable"},{"type":"function","name":"transferOwnership","inputs":[{"name":"newOwner","type":"address","internalType":"address"}],"outputs":[],"stateMutability":"nonpayable"},{"type":"event","name":"Claim","inputs":[{"name":"account","type":"address","indexed":true,"internalType":"address"},{"name":"token","type":"address","indexed":true,"internalType":"contract IERC20"},{"name":"reward","type":"uint256","indexed":false,"internalType":"uint256"}],"anonymous":false},{"type":"event","name":"Initialized","inputs":[{"name":"version","type":"uint64","indexed":false,"internalType":"uint64"}],"anonymous":false},{"type":"event","name":"OwnershipTransferStarted","inputs":[{"name":"previousOwner","type":"address","indexed":true,"internalType":"address"},{"name":"newOwner","type":"address","indexed":true,"internalType":"address"}],"anonymous":false},{"type":"event","name":"OwnershipTransferred","inputs":[{"name":"previousOwner","type":"address","indexed":true,"internalType":"address"},{"name":"newOwner","type":"address","indexed":true,"internalType":"address"}],"anonymous":false},{"type":"event","name":"RewardParameterUpdated","inputs":[{"name":"rewardPerSecond","type":"uint256","indexed":false,"internalType":"uint256"},{"name":"startTimestamp","type":"uint256","indexed":false,"internalType":"uint256"},{"name":"endTimestamp","type":"uint256","indexed":false,"internalType":"uint256"}],"anonymous":false},{"type":"event","name":"Stopped","inputs":[],"anonymous":false},{"type":"event","name":"Swept","inputs":[{"name":"token","type":"address","indexed":true,"internalType":"contract IERC20"},{"name":"account","type":"address","indexed":true,"internalType":"address"},{"name":"amount","type":"uint256","indexed":false,"internalType":"uint256"}],"anonymous":false},{"type":"error","name":"AddressEmptyCode","inputs":[{"name":"target","type":"address","internalType":"address"}]},{"type":"error","name":"AddressInsufficientBalance","inputs":[{"name":"account","type":"address","internalType":"address"}]},{"type":"error","name":"BaseRewarder__AlreadyStopped","inputs":[]},{"type":"error","name":"BaseRewarder__CannotRenounceOwnership","inputs":[]},{"type":"error","name":"BaseRewarder__InsufficientReward","inputs":[{"name":"remainingReward","type":"uint256","internalType":"uint256"},{"name":"expectedReward","type":"uint256","internalType":"uint256"}]},{"type":"error","name":"BaseRewarder__InvalidCaller","inputs":[]},{"type":"error","name":"BaseRewarder__InvalidDuration","inputs":[]},{"type":"error","name":"BaseRewarder__InvalidPid","inputs":[{"name":"pid","type":"uint256","internalType":"uint256"}]},{"type":"error","name":"BaseRewarder__InvalidStartTimestamp","inputs":[{"name":"startTimestamp","type":"uint256","internalType":"uint256"}]},{"type":"error","name":"BaseRewarder__NativeTransferFailed","inputs":[]},{"type":"error","name":"BaseRewarder__NotNativeRewarder","inputs":[]},{"type":"error","name":"BaseRewarder__Stopped","inputs":[]},{"type":"error","name":"BaseRewarder__ZeroAmount","inputs":[]},{"type":"error","name":"FailedInnerCall","inputs":[]},{"type":"error","name":"InvalidInitialization","inputs":[]},{"type":"error","name":"NotInitializing","inputs":[]},{"type":"error","name":"OwnableInvalidOwner","inputs":[{"name":"owner","type":"address","internalType":"address"}]},{"type":"error","name":"OwnableUnauthorizedAccount","inputs":[{"name":"account","type":"address","internalType":"address"}]},{"type":"error","name":"SafeERC20FailedOperation","inputs":[{"name":"token","type":"address","internalType":"address"}]}],"bytecode":{"object":"0x60a060405234801561001057600080fd5b5060405161167e38038061167e83398101604081905261002f916100fe565b6001600160a01b0381166080528061004561004c565b505061012e565b7ff0c57e16840df040f15088dc2f81fe391c3923bec73e23a9662efc9c229c6a00805468010000000000000000900460ff161561009c5760405163f92ee8a960e01b815260040160405180910390fd5b80546001600160401b03908116146100fb5780546001600160401b0319166001600160401b0390811782556040519081527fc7f505b2f371ae2175ee4913f4499e1f2633a7b5936321eed1cdaeb6115181d29060200160405180910390a15b50565b60006020828403121561011057600080fd5b81516001600160a01b038116811461012757600080fd5b9392505050565b60805161152061015e600039600081816102ca015281816104f0015281816105f20152610f2701526115206000f3fe60806040526004361061012d5760003560e01c8063aad3ec96116100a5578063c4d66de811610074578063c877296311610059578063c87729631461038d578063e30c3978146103af578063f2fde38b146103c45761013c565b8063c4d66de81461032e578063c71832511461034e5761013c565b8063aad3ec961461029b578063ab470f05146102bb578063b5f578fc146102ee578063b8dc491b1461030e5761013c565b8063715018a6116100fc578063870b50fd116100e1578063870b50fd1461023857806389f5ab0d146102665780638da5cb5b146102865761013c565b8063715018a61461020e57806379ba5097146102235761013c565b806307da68f51461014457806321df0da71461015957806339cbec9d146101945780633f683b6a146101eb5761013c565b3661013c5761013a6103e4565b005b61013a6103e4565b34801561015057600080fd5b5061013a610414565b34801561016557600080fd5b503660011981013560f01c90033560601c5b6040516001600160a01b0390911681526020015b60405180910390f35b3480156101a057600080fd5b506101c1600054600554600354600119369081013560f01c90033560601c93565b604080516001600160a01b039095168552602085019390935291830152606082015260800161018b565b3480156101f757600080fd5b5060045460ff16604051901515815260200161018b565b34801561021a57600080fd5b5061013a61047d565b34801561022f57600080fd5b5061013a610496565b34801561024457600080fd5b506102586102533660046112c2565b6104e3565b60405190815260200161018b565b34801561027257600080fd5b5061013a610281366004611306565b61059a565b34801561029257600080fd5b506101776105b2565b3480156102a757600080fd5b5061013a6102b6366004611332565b6105e7565b3480156102c757600080fd5b507f0000000000000000000000000000000000000000000000000000000000000000610177565b3480156102fa57600080fd5b5061013a61030936600461135e565b61063e565b34801561031a57600080fd5b5061013a610329366004611380565b61066d565b34801561033a57600080fd5b5061013a6103493660046113b9565b610740565b34801561035a57600080fd5b5061036e6103693660046113d6565b610864565b604080516001600160a01b03909316835260208301919091520161018b565b34801561039957600080fd5b503660011981013560f01c900360140135610258565b3480156103bb57600080fd5b506101776108a9565b3480156103d057600080fd5b5061013a6103df3660046113b9565b6108d2565b3660011981013560f01c90033560601c1561041257604051639415816f60e01b815260040160405180910390fd5b565b61041c610957565b60045460ff16156104405760405163b1f033c760e01b815260040160405180910390fd5b6004805460ff191660011790556040517f7acc84e34091ae817647a4c49116f5cc07f319078ba80f8f5fde37ea7e25cbd690600090a1565b905090565b6040516313e3bb6f60e21b815260040160405180910390fd5b33806104a06108a9565b6001600160a01b0316146104d75760405163118cdaa760e01b81526001600160a01b03821660048201526024015b60405180910390fd5b6104e081610989565b50565b6000336001600160a01b037f0000000000000000000000000000000000000000000000000000000000000000161461052e5760405163332bf49d60e21b815260040160405180910390fd5b3660011981013560f01c90036014013585146105605760405163e7ca808760e01b8152600481018690526024016104ce565b60045460ff161561058457604051630f3e8c1360e11b815260040160405180910390fd5b610590868585856109c1565b9695505050505050565b6105a2610957565b6105ad838383610a31565b505050565b6000807f9016d09d72d40fdae2fd8ceac6b6234c7706214fd39c1cd1e609a0528c1993005b546001600160a01b031692915050565b336001600160a01b037f000000000000000000000000000000000000000000000000000000000000000016146106305760405163332bf49d60e21b815260040160405180910390fd5b61063a8282610bcf565b5050565b610646610957565b6005546000428211610658574261065a565b815b9050610667848285610a31565b50505050565b610675610957565b600061068083610c2f565b60045490915060ff161580156106ad57503660011981013560f01c90033560601c6001600160a01b038416145b156106c2576002546106bf9082611421565b90505b806000036106e3576040516360e6da0360e01b815260040160405180910390fd5b6106ee838383610cb5565b816001600160a01b0316836001600160a01b03167f7b09c29f9106defeccc9ac3b823f3aad0b470d120e5df7aed033b5c43a4bf7188360405161073391815260200190565b60405180910390a3505050565b7ff0c57e16840df040f15088dc2f81fe391c3923bec73e23a9662efc9c229c6a00805468010000000000000000810460ff16159067ffffffffffffffff1660008115801561078b5750825b905060008267ffffffffffffffff1660011480156107a85750303b155b9050811580156107b6575080155b156107d45760405163f92ee8a960e01b815260040160405180910390fd5b845467ffffffffffffffff19166001178555831561080857845468ff00000000000000001916680100000000000000001785555b61081186610d58565b831561085c57845468ff000000000000000019168555604051600181527fc7f505b2f371ae2175ee4913f4499e1f2633a7b5936321eed1cdaeb6115181d29060200160405180910390a15b505050505050565b600080546003548291829161087c9160059187610d69565b90503660011981013560f01c90033560601c61089c600588888886610dc0565b9250925050935093915050565b6000807f237e158222e3e6968b72b9db0d8043aacf074ad9f650f0d1606b4d82ee432c006105d7565b6108da610957565b7f237e158222e3e6968b72b9db0d8043aacf074ad9f650f0d1606b4d82ee432c0080546001600160a01b0319166001600160a01b038316908117825561091e6105b2565b6001600160a01b03167f38d16b8cac22d99fc7c124b9cd0de2d3fa1faef420bfe791d8c362d765e2270060405160405180910390a35050565b336109606105b2565b6001600160a01b0316146104125760405163118cdaa760e01b81523360048201526024016104ce565b7f237e158222e3e6968b72b9db0d8043aacf074ad9f650f0d1606b4d82ee432c0080546001600160a01b031916815561063a82610e26565b600154600254600091908284156109ea576000546003546109e59160059188610d69565b6109ed565b60005b90506109fe60058989898986610e97565b935083610a0b8285611434565b610a159190611421565b600155610a228483611421565b60025550919695505050505050565b42821015610a5557604051635c62004b60e11b8152600481018390526024016104ce565b60045460ff1615610a7957604051630f3e8c1360e11b815260040160405180910390fd5b80158015610a8657508215155b15610aa457604051631a4778f160e31b815260040160405180910390fd5b6001546000610ab1610f1b565b90506000610ad1600054600354846005610d69909392919063ffffffff16565b9050610add8184611434565b9250600083610afa3660011981013560f01c90033560601c610c2f565b610b049190611421565b90506000610b128689611447565b905080821015610b3f5760405163f79406ed60e01b815260048101839052602481018290526044016104ce565b6000610b4b8789611434565b60008a90559050610b5c8287611434565b60025560038190556001869055610b7560058686610fe2565b50428814610b835760058890555b604080518a8152602081018a90529081018290527ff0b276e9ee40b3a3d065f636ee656c9bf1c9a0c4060fb212fd0861890c107be59060600160405180910390a1505050505050505050565b3660011981013560f01c90033560601c610bea818484610cb5565b806001600160a01b0316836001600160a01b03167f70eb43c4a8ae8c40502dcf22436c509c28d6ff421cf07c491be56984bd9870688460405161073391815260200190565b60006001600160a01b03821615610cad576040516370a0823160e01b81523060048201526001600160a01b038316906370a0823190602401602060405180830381865afa158015610c84573d6000803e3d6000fd5b505050506040513d601f19601f82011682018060405250810190610ca8919061145e565b610caf565b475b92915050565b80600003610cc257505050565b6001600160a01b038316610d44576000826001600160a01b03168260405160006040518083038185875af1925050503d8060008114610d1d576040519150601f19603f3d011682016040523d82523d6000602084013e610d22565b606091505b505090508061066757604051630df61d5560e01b815260040160405180910390fd5b6105ad6001600160a01b0384168383611035565b610d6061109c565b6104e0816110ea565b600081600003610d7b57506000610db8565b84546000428510610d8c5742610d8e565b845b9050818111610d9e576000610db3565b85610da98383611421565b610db39190611447565b925050505b949350505050565b600080610dcd848461111c565b8760010154610ddc9190611434565b90508415610e18576001600160a01b0386166000908152600288016020526040902054610e098287611140565b610e139190611421565b610e1b565b60005b979650505050505050565b7f9016d09d72d40fdae2fd8ceac6b6234c7706214fd39c1cd1e609a0528c19930080546001600160a01b031981166001600160a01b03848116918217845560405192169182907f8be0079c531659141344cd1fd0a4f28419497f9722a3daafe3b4186f6b6457e090600090a3505050565b600080610ea5888585610fe2565b90508515610ee1576001600160a01b0387166000908152600289016020526040902054610ed28288611140565b610edc9190611421565b610ee4565b60005b9150610ef08186611140565b6001600160a01b03909716600090815260029098016020525060409096209490945550929392505050565b60006001600160a01b037f00000000000000000000000000000000000000000000000000000000000000001663e720e483303660011981013560f01c9003601401356040517fffffffff0000000000000000000000000000000000000000000000000000000060e085901b1681526001600160a01b0390921660048301526024820152604401602060405180830381865afa158015610fbe573d6000803e3d6000fd5b505050506040513d601f19601f82011682018060405250810190610478919061145e565b600080610fef848461111c565b8554909150421115610fff574285555b801561102457808560010160008282546110199190611434565b92505081905561102a565b84600101545b9150505b9392505050565b604080516001600160a01b038416602482015260448082018490528251808303909101815260649091019091526020810180517bffffffffffffffffffffffffffffffffffffffffffffffffffffffff1663a9059cbb60e01b1790526105ad908490611157565b7ff0c57e16840df040f15088dc2f81fe391c3923bec73e23a9662efc9c229c6a005468010000000000000000900460ff1661041257604051631afcd79f60e31b815260040160405180910390fd5b6110f261109c565b6001600160a01b0381166104d757604051631e4fbdf760e01b8152600060048201526024016104ce565b600082156111375761113283604084901b611477565b61102e565b60009392505050565b6000604061114e8484611447565b901c9392505050565b600061116c6001600160a01b038416836111ba565b9050805160001415801561119157508080602001905181019061118f9190611499565b155b156105ad57604051635274afe760e01b81526001600160a01b03841660048201526024016104ce565b606061102e8383600084600080856001600160a01b031684866040516111e091906114bb565b60006040518083038185875af1925050503d806000811461121d576040519150601f19603f3d011682016040523d82523d6000602084013e611222565b606091505b509150915061059086838360608261123d5761113282611284565b815115801561125457506001600160a01b0384163b155b1561127d57604051639996b31560e01b81526001600160a01b03851660048201526024016104ce565b508061102e565b8051156112945780518082602001fd5b604051630a12f52160e11b815260040160405180910390fd5b6001600160a01b03811681146104e057600080fd5b600080600080600060a086880312156112da57600080fd5b85356112e5816112ad565b97602087013597506040870135966060810135965060800135945092505050565b60008060006060848603121561131b57600080fd5b505081359360208301359350604090920135919050565b6000806040838503121561134557600080fd5b8235611350816112ad565b946020939093013593505050565b6000806040838503121561137157600080fd5b50508035926020909101359150565b6000806040838503121561139357600080fd5b823561139e816112ad565b915060208301356113ae816112ad565b809150509250929050565b6000602082840312156113cb57600080fd5b813561102e816112ad565b6000806000606084860312156113eb57600080fd5b83356113f6816112ad565b95602085013595506040909401359392505050565b634e487b7160e01b600052601160045260246000fd5b81810381811115610caf57610caf61140b565b80820180821115610caf57610caf61140b565b8082028115828204841417610caf57610caf61140b565b60006020828403121561147057600080fd5b5051919050565b60008261149457634e487b7160e01b600052601260045260246000fd5b500490565b6000602082840312156114ab57600080fd5b8151801515811461102e57600080fd5b6000825160005b818110156114dc57602081860181015185830152016114c2565b50600092019182525091905056fea26469706673582212208133255064b04e559c200361487944907a4e49f23ea881c8426379b36c7b5d4364736f6c63430008140033","linkReferences":{}},"methodIdentifiers":{"acceptOwnership()":"79ba5097","claim(address,uint256)":"aad3ec96","getCaller()":"ab470f05","getPendingReward(address,uint256,uint256)":"c7183251","getPid()":"c8772963","getRewarderParameter()":"39cbec9d","getToken()":"21df0da7","initialize(address)":"c4d66de8","isStopped()":"3f683b6a","onModify(address,uint256,uint256,uint256,uint256)":"870b50fd","owner()":"8da5cb5b","pendingOwner()":"e30c3978","renounceOwnership()":"715018a6","setRewardPerSecond(uint256,uint256)":"b5f578fc","setRewarderParameters(uint256,uint256,uint256)":"89f5ab0d","stop()":"07da68f5","sweep(address,address)":"b8dc491b","transferOwnership(address)":"f2fde38b"},"id":102}