{"abi":[{"type":"constructor","inputs":[{"name":"caller","type":"address","internalType":"address"}],"stateMutability":"nonpayable"},{"type":"fallback","stateMutability":"payable"},{"type":"receive","stateMutability":"payable"},{"type":"function","name":"acceptOwnership","inputs":[],"outputs":[],"stateMutability":"nonpayable"},{"type":"function","name":"claim","inputs":[{"name":"account","type":"address","internalType":"address"},{"name":"amount","type":"uint256","internalType":"uint256"}],"outputs":[],"stateMutability":"nonpayable"},{"type":"function","name":"getCaller","inputs":[],"outputs":[{"name":"","type":"address","internalType":"address"}],"stateMutability":"view"},{"type":"function","name":"getPendingReward","inputs":[{"name":"account","type":"address","internalType":"address"},{"name":"balance","type":"uint256","internalType":"uint256"},{"name":"totalSupply","type":"uint256","internalType":"uint256"}],"outputs":[{"name":"","type":"address","internalType":"contract IERC20"},{"name":"","type":"uint256","internalType":"uint256"}],"stateMutability":"view"},{"type":"function","name":"getPid","inputs":[],"outputs":[{"name":"","type":"uint256","internalType":"uint256"}],"stateMutability":"view"},{"type":"function","name":"getRemainingReward","inputs":[],"outputs":[{"name":"","type":"uint256","internalType":"uint256"}],"stateMutability":"view"},{"type":"function","name":"getRewarderParameter","inputs":[],"outputs":[{"name":"token","type":"address","internalType":"contract IERC20"},{"name":"rewardPerSecond","type":"uint256","internalType":"uint256"},{"name":"lastUpdateTimestamp","type":"uint256","internalType":"uint256"},{"name":"endTimestamp","type":"uint256","internalType":"uint256"}],"stateMutability":"view"},{"type":"function","name":"getToken","inputs":[],"outputs":[{"name":"","type":"address","internalType":"contract IERC20"}],"stateMutability":"view"},{"type":"function","name":"implementation","inputs":[],"outputs":[{"name":"","type":"address","internalType":"address"}],"stateMutability":"view"},{"type":"function","name":"initialize","inputs":[{"name":"initialOwner","type":"address","internalType":"address"}],"outputs":[],"stateMutability":"nonpayable"},{"type":"function","name":"isStopped","inputs":[],"outputs":[{"name":"","type":"bool","internalType":"bool"}],"stateMutability":"view"},{"type":"function","name":"onModify","inputs":[{"name":"account","type":"address","internalType":"address"},{"name":"pid","type":"uint256","internalType":"uint256"},{"name":"oldBalance","type":"uint256","internalType":"uint256"},{"name":"newBalance","type":"uint256","internalType":"uint256"},{"name":"oldTotalSupply","type":"uint256","internalType":"uint256"}],"outputs":[{"name":"","type":"uint256","internalType":"uint256"}],"stateMutability":"nonpayable"},{"type":"function","name":"owner","inputs":[],"outputs":[{"name":"","type":"address","internalType":"address"}],"stateMutability":"view"},{"type":"function","name":"pendingOwner","inputs":[],"outputs":[{"name":"","type":"address","internalType":"address"}],"stateMutability":"view"},{"type":"function","name":"renounceOwnership","inputs":[],"outputs":[],"stateMutability":"pure"},{"type":"function","name":"setRewardPerSecond","inputs":[{"name":"maxRewardPerSecond","type":"uint256","internalType":"uint256"},{"name":"expectedDuration","type":"uint256","internalType":"uint256"}],"outputs":[{"name":"rewardPerSecond","type":"uint256","internalType":"uint256"}],"stateMutability":"nonpayable"},{"type":"function","name":"setRewarderParameters","inputs":[{"name":"maxRewardPerSecond","type":"uint256","internalType":"uint256"},{"name":"startTimestamp","type":"uint256","internalType":"uint256"},{"name":"expectedDuration","type":"uint256","internalType":"uint256"}],"outputs":[{"name":"rewardPerSecond","type":"uint256","internalType":"uint256"}],"stateMutability":"nonpayable"},{"type":"function","name":"stop","inputs":[],"outputs":[],"stateMutability":"nonpayable"},{"type":"function","name":"sweep","inputs":[{"name":"token","type":"address","internalType":"contract IERC20"},{"name":"account","type":"address","internalType":"address"}],"outputs":[],"stateMutability":"nonpayable"},{"type":"function","name":"transferOwnership","inputs":[{"name":"newOwner","type":"address","internalType":"address"}],"outputs":[],"stateMutability":"nonpayable"},{"type":"event","name":"Claim","inputs":[{"name":"account","type":"address","indexed":true,"internalType":"address"},{"name":"token","type":"address","indexed":true,"internalType":"contract IERC20"},{"name":"reward","type":"uint256","indexed":false,"internalType":"uint256"}],"anonymous":false},{"type":"event","name":"Initialized","inputs":[{"name":"version","type":"uint64","indexed":false,"internalType":"uint64"}],"anonymous":false},{"type":"event","name":"OwnershipTransferStarted","inputs":[{"name":"previousOwner","type":"address","indexed":true,"internalType":"address"},{"name":"newOwner","type":"address","indexed":true,"internalType":"address"}],"anonymous":false},{"type":"event","name":"OwnershipTransferred","inputs":[{"name":"previousOwner","type":"address","indexed":true,"internalType":"address"},{"name":"newOwner","type":"address","indexed":true,"internalType":"address"}],"anonymous":false},{"type":"event","name":"RewardParameterUpdated","inputs":[{"name":"rewardPerSecond","type":"uint256","indexed":false,"internalType":"uint256"},{"name":"startTimestamp","type":"uint256","indexed":false,"internalType":"uint256"},{"name":"endTimestamp","type":"uint256","indexed":false,"internalType":"uint256"}],"anonymous":false},{"type":"event","name":"Stopped","inputs":[],"anonymous":false},{"type":"event","name":"Swept","inputs":[{"name":"token","type":"address","indexed":true,"internalType":"contract IERC20"},{"name":"account","type":"address","indexed":true,"internalType":"address"},{"name":"amount","type":"uint256","indexed":false,"internalType":"uint256"}],"anonymous":false},{"type":"error","name":"AddressEmptyCode","inputs":[{"name":"target","type":"address","internalType":"address"}]},{"type":"error","name":"AddressInsufficientBalance","inputs":[{"name":"account","type":"address","internalType":"address"}]},{"type":"error","name":"BaseRewarder__AlreadyStopped","inputs":[]},{"type":"error","name":"BaseRewarder__CannotRenounceOwnership","inputs":[]},{"type":"error","name":"BaseRewarder__InvalidCaller","inputs":[]},{"type":"error","name":"BaseRewarder__InvalidDuration","inputs":[]},{"type":"error","name":"BaseRewarder__InvalidPid","inputs":[{"name":"pid","type":"uint256","internalType":"uint256"}]},{"type":"error","name":"BaseRewarder__InvalidStartTimestamp","inputs":[{"name":"startTimestamp","type":"uint256","internalType":"uint256"}]},{"type":"error","name":"BaseRewarder__NativeTransferFailed","inputs":[]},{"type":"error","name":"BaseRewarder__NotNativeRewarder","inputs":[]},{"type":"error","name":"BaseRewarder__Stopped","inputs":[]},{"type":"error","name":"BaseRewarder__ZeroAmount","inputs":[]},{"type":"error","name":"BaseRewarder__ZeroReward","inputs":[]},{"type":"error","name":"FailedInnerCall","inputs":[]},{"type":"error","name":"InvalidInitialization","inputs":[]},{"type":"error","name":"NotInitializing","inputs":[]},{"type":"error","name":"OwnableInvalidOwner","inputs":[{"name":"owner","type":"address","internalType":"address"}]},{"type":"error","name":"OwnableUnauthorizedAccount","inputs":[{"name":"account","type":"address","internalType":"address"}]},{"type":"error","name":"SafeERC20FailedOperation","inputs":[{"name":"token","type":"address","internalType":"address"}]}],"bytecode":{"object":"0x60c060405234801561001057600080fd5b50604051620018083803806200180883398101604081905261003191610104565b6001600160a01b03811660a052306080528061004b610052565b5050610134565b7ff0c57e16840df040f15088dc2f81fe391c3923bec73e23a9662efc9c229c6a00805468010000000000000000900460ff16156100a25760405163f92ee8a960e01b815260040160405180910390fd5b80546001600160401b03908116146101015780546001600160401b0319166001600160401b0390811782556040519081527fc7f505b2f371ae2175ee4913f4499e1f2633a7b5936321eed1cdaeb6115181d29060200160405180910390a15b50565b60006020828403121561011657600080fd5b81516001600160a01b038116811461012d57600080fd5b9392505050565b60805160a0516116996200016f60003960008181610334015281816105c2015281816106a70152610ada0152600061025601526116996000f3fe6080604052600436106101635760003560e01c8063aad3ec96116100c0578063c4d66de811610074578063c877296311610059578063c87729631461040c578063e30c39781461042e578063f2fde38b1461044357610172565b8063c4d66de8146103ad578063c7183251146103cd57610172565b8063b5f578fc116100a5578063b5f578fc14610358578063b8dc491b14610378578063c0b5fca01461039857610172565b8063aad3ec9614610305578063ab470f051461032557610172565b8063715018a611610117578063870b50fd116100fc578063870b50fd146102a257806389f5ab0d146102d05780638da5cb5b146102f057610172565b8063715018a61461027857806379ba50971461028d57610172565b806339cbec9d1161014857806339cbec9d146101ca5780633f683b6a146102215780635c60da1b1461024457610172565b806307da68f51461017a57806321df0da71461018f57610172565b3661017257610170610463565b005b610170610463565b34801561018657600080fd5b50610170610493565b34801561019b57600080fd5b503660011981013560f01c90033560601c5b6040516001600160a01b0390911681526020015b60405180910390f35b3480156101d657600080fd5b506101f7600054600554600354600119369081013560f01c90033560601c93565b604080516001600160a01b03909516855260208501939093529183015260608201526080016101c1565b34801561022d57600080fd5b5060045460ff1660405190151581526020016101c1565b34801561025057600080fd5b506101ad7f000000000000000000000000000000000000000000000000000000000000000081565b34801561028457600080fd5b5061017061054f565b34801561029957600080fd5b50610170610568565b3480156102ae57600080fd5b506102c26102bd36600461143b565b6105b5565b6040519081526020016101c1565b3480156102dc57600080fd5b506102c26102eb36600461147f565b610648565b3480156102fc57600080fd5b506101ad610667565b34801561031157600080fd5b506101706103203660046114ab565b61069c565b34801561033157600080fd5b507f00000000000000000000000000000000000000000000000000000000000000006101ad565b34801561036457600080fd5b506102c26103733660046114d7565b6106f3565b34801561038457600080fd5b506101706103933660046114f9565b610729565b3480156103a457600080fd5b506102c261081b565b3480156103b957600080fd5b506101706103c8366004611532565b610885565b3480156103d957600080fd5b506103ed6103e836600461154f565b6109a9565b604080516001600160a01b0390931683526020830191909152016101c1565b34801561041857600080fd5b503660011981013560f01c9003601401356102c2565b34801561043a57600080fd5b506101ad6109ee565b34801561044f57600080fd5b5061017061045e366004611532565b610a17565b3660011981013560f01c90033560601c1561049157604051639415816f60e01b815260040160405180910390fd5b565b61049b610a9c565b60045460ff16156104bf5760405163b1f033c760e01b815260040160405180910390fd5b60006104c9610ace565b905060006104e9600054600354846005610b95909392919063ffffffff16565b905080600160008282546104fd919061159a565b9091555061050f905060058383610bec565b506004805460ff191660011790556040517f7acc84e34091ae817647a4c49116f5cc07f319078ba80f8f5fde37ea7e25cbd690600090a15050565b905090565b6040516313e3bb6f60e21b815260040160405180910390fd5b33806105726109ee565b6001600160a01b0316146105a95760405163118cdaa760e01b81526001600160a01b03821660048201526024015b60405180910390fd5b6105b281610c3d565b50565b6000336001600160a01b037f000000000000000000000000000000000000000000000000000000000000000016146106005760405163332bf49d60e21b815260040160405180910390fd5b3660011981013560f01c90036014013585146106325760405163e7ca808760e01b8152600481018690526024016105a0565b61063e86858585610c75565b9695505050505050565b6000610652610a9c565b61065d848484610ce5565b90505b9392505050565b6000807f9016d09d72d40fdae2fd8ceac6b6234c7706214fd39c1cd1e609a0528c1993005b546001600160a01b031692915050565b336001600160a01b037f000000000000000000000000000000000000000000000000000000000000000016146106e55760405163332bf49d60e21b815260040160405180910390fd5b6106ef8282610eaf565b5050565b60006106fd610a9c565b600554600042821161070f5742610711565b815b905061071e858286610ce5565b925050505b92915050565b610731610a9c565b600061073c83610f0f565b90503660011981013560f01c90033560601c6001600160a01b0384160361079d5760045460ff161561078d576000610772610ace565b11156107885760015461078590826115ad565b90505b61079d565b60025461079a90826115ad565b90505b806000036107be576040516360e6da0360e01b815260040160405180910390fd5b6107c9838383610f94565b816001600160a01b0316836001600160a01b03167f7b09c29f9106defeccc9ac3b823f3aad0b470d120e5df7aed033b5c43a4bf7188360405161080e91815260200190565b60405180910390a3505050565b600080610826610ace565b90506000610846600054600354846005610b95909392919063ffffffff16565b9050600081600154610858919061159a565b9050806108733660011981013560f01c90033560601c610f0f565b61087d91906115ad565b935050505090565b7ff0c57e16840df040f15088dc2f81fe391c3923bec73e23a9662efc9c229c6a00805468010000000000000000810460ff16159067ffffffffffffffff166000811580156108d05750825b905060008267ffffffffffffffff1660011480156108ed5750303b155b9050811580156108fb575080155b156109195760405163f92ee8a960e01b815260040160405180910390fd5b845467ffffffffffffffff19166001178555831561094d57845468ff00000000000000001916680100000000000000001785555b61095686611042565b83156109a157845468ff000000000000000019168555604051600181527fc7f505b2f371ae2175ee4913f4499e1f2633a7b5936321eed1cdaeb6115181d29060200160405180910390a15b505050505050565b60008054600354829182916109c19160059187610b95565b90503660011981013560f01c90033560601c6109e1600588888886611053565b9250925050935093915050565b6000807f237e158222e3e6968b72b9db0d8043aacf074ad9f650f0d1606b4d82ee432c0061068c565b610a1f610a9c565b7f237e158222e3e6968b72b9db0d8043aacf074ad9f650f0d1606b4d82ee432c0080546001600160a01b0319166001600160a01b0383169081178255610a63610667565b6001600160a01b03167f38d16b8cac22d99fc7c124b9cd0de2d3fa1faef420bfe791d8c362d765e2270060405160405180910390a35050565b33610aa5610667565b6001600160a01b0316146104915760405163118cdaa760e01b81523360048201526024016105a0565b60006001600160a01b037f00000000000000000000000000000000000000000000000000000000000000001663e720e483303660011981013560f01c9003601401356040517fffffffff0000000000000000000000000000000000000000000000000000000060e085901b1681526001600160a01b0390921660048301526024820152604401602060405180830381865afa158015610b71573d6000803e3d6000fd5b505050506040513d601f19601f8201168201806040525081019061054a91906115c0565b600081600003610ba757506000610be4565b84546000428510610bb85742610bba565b845b9050818111610bca576000610bdf565b85610bd583836115ad565b610bdf91906115d9565b925050505b949350505050565b600080610bf984846110b9565b8554909150421115610c09574285555b8015610c2e5780856001016000828254610c23919061159a565b925050819055610c34565b84600101545b95945050505050565b7f237e158222e3e6968b72b9db0d8043aacf074ad9f650f0d1606b4d82ee432c0080546001600160a01b03191681556106ef826110dd565b60015460025460009190828415610c9e57600054600354610c999160059188610b95565b610ca1565b60005b9050610cb26005898989898661114e565b935083610cbf828561159a565b610cc991906115ad565b600155610cd684836115ad565b60025550919695505050505050565b600042831015610d0b57604051635c62004b60e11b8152600481018490526024016105a0565b60045460ff1615610d2f57604051630f3e8c1360e11b815260040160405180910390fd5b81158015610d3c57508315155b15610d5a57604051631a4778f160e31b815260040160405180910390fd5b6001546000610d67610ace565b90506000610d87600054600354846005610b95909392919063ffffffff16565b9050610d93818461159a565b9250600083610db03660011981013560f01c90033560601c610f0f565b610dba91906115ad565b90506000610dc8878a6115d9565b9050818111610dd75788610de1565b610de187836115f0565b95506000610def88886115d9565b90508715801590610dfe575080155b15610e1c57604051634ef6878160e01b815260040160405180910390fd5b6000610e28898b61159a565b60008990559050610e39828861159a565b60025560038190556001879055610e5260058787610bec565b50428a14610e605760058a90555b60408051898152602081018c90529081018290527ff0b276e9ee40b3a3d065f636ee656c9bf1c9a0c4060fb212fd0861890c107be59060600160405180910390a1505050505050509392505050565b3660011981013560f01c90033560601c610eca818484610f94565b806001600160a01b0316836001600160a01b03167f70eb43c4a8ae8c40502dcf22436c509c28d6ff421cf07c491be56984bd9870688460405161080e91815260200190565b60006001600160a01b03821615610f8d576040516370a0823160e01b81523060048201526001600160a01b038316906370a0823190602401602060405180830381865afa158015610f64573d6000803e3d6000fd5b505050506040513d601f19601f82011682018060405250810190610f8891906115c0565b610723565b4792915050565b80600003610fa157505050565b6001600160a01b038316611029576000826001600160a01b03168260405160006040518083038185875af1925050503d8060008114610ffc576040519150601f19603f3d011682016040523d82523d6000602084013e611001565b606091505b505090508061102357604051630df61d5560e01b815260040160405180910390fd5b50505050565b61103d6001600160a01b03841683836111d2565b505050565b61104a611239565b6105b281611287565b60008061106084846110b9565b876001015461106f919061159a565b905084156110ab576001600160a01b038616600090815260028801602052604090205461109c82876112b9565b6110a691906115ad565b6110ae565b60005b979650505050505050565b600082156110d4576110cf83604084901b6115f0565b610660565b60009392505050565b7f9016d09d72d40fdae2fd8ceac6b6234c7706214fd39c1cd1e609a0528c19930080546001600160a01b031981166001600160a01b03848116918217845560405192169182907f8be0079c531659141344cd1fd0a4f28419497f9722a3daafe3b4186f6b6457e090600090a3505050565b60008061115c888585610bec565b90508515611198576001600160a01b038716600090815260028901602052604090205461118982886112b9565b61119391906115ad565b61119b565b60005b91506111a781866112b9565b6001600160a01b03909716600090815260029098016020525060409096209490945550929392505050565b604080516001600160a01b038416602482015260448082018490528251808303909101815260649091019091526020810180517bffffffffffffffffffffffffffffffffffffffffffffffffffffffff1663a9059cbb60e01b17905261103d9084906112d0565b7ff0c57e16840df040f15088dc2f81fe391c3923bec73e23a9662efc9c229c6a005468010000000000000000900460ff1661049157604051631afcd79f60e31b815260040160405180910390fd5b61128f611239565b6001600160a01b0381166105a957604051631e4fbdf760e01b8152600060048201526024016105a0565b600060406112c784846115d9565b901c9392505050565b60006112e56001600160a01b03841683611333565b9050805160001415801561130a5750808060200190518101906113089190611612565b155b1561103d57604051635274afe760e01b81526001600160a01b03841660048201526024016105a0565b60606106608383600084600080856001600160a01b031684866040516113599190611634565b60006040518083038185875af1925050503d8060008114611396576040519150601f19603f3d011682016040523d82523d6000602084013e61139b565b606091505b509150915061063e8683836060826113b6576110cf826113fd565b81511580156113cd57506001600160a01b0384163b155b156113f657604051639996b31560e01b81526001600160a01b03851660048201526024016105a0565b5080610660565b80511561140d5780518082602001fd5b604051630a12f52160e11b815260040160405180910390fd5b6001600160a01b03811681146105b257600080fd5b600080600080600060a0868803121561145357600080fd5b853561145e81611426565b97602087013597506040870135966060810135965060800135945092505050565b60008060006060848603121561149457600080fd5b505081359360208301359350604090920135919050565b600080604083850312156114be57600080fd5b82356114c981611426565b946020939093013593505050565b600080604083850312156114ea57600080fd5b50508035926020909101359150565b6000806040838503121561150c57600080fd5b823561151781611426565b9150602083013561152781611426565b809150509250929050565b60006020828403121561154457600080fd5b813561066081611426565b60008060006060848603121561156457600080fd5b833561156f81611426565b95602085013595506040909401359392505050565b634e487b7160e01b600052601160045260246000fd5b8082018082111561072357610723611584565b8181038181111561072357610723611584565b6000602082840312156115d257600080fd5b5051919050565b808202811582820484141761072357610723611584565b60008261160d57634e487b7160e01b600052601260045260246000fd5b500490565b60006020828403121561162457600080fd5b8151801515811461066057600080fd5b6000825160005b81811015611655576020818601810151858301520161163b565b50600092019182525091905056fea26469706673582212205c5fac1046fb7922af5fecb383f9d38d57c5fc109bcdb2c9c0eb5e21b1c00ccb64736f6c63430008140033","linkReferences":{}},"methodIdentifiers":{"acceptOwnership()":"79ba5097","claim(address,uint256)":"aad3ec96","getCaller()":"ab470f05","getPendingReward(address,uint256,uint256)":"c7183251","getPid()":"c8772963","getRemainingReward()":"c0b5fca0","getRewarderParameter()":"39cbec9d","getToken()":"21df0da7","implementation()":"5c60da1b","initialize(address)":"c4d66de8","isStopped()":"3f683b6a","onModify(address,uint256,uint256,uint256,uint256)":"870b50fd","owner()":"8da5cb5b","pendingOwner()":"e30c3978","renounceOwnership()":"715018a6","setRewardPerSecond(uint256,uint256)":"b5f578fc","setRewarderParameters(uint256,uint256,uint256)":"89f5ab0d","stop()":"07da68f5","sweep(address,address)":"b8dc491b","transferOwnership(address)":"f2fde38b"},"id":107}