{
  "abi": [
    {
      "inputs": [
        {
          "internalType": "address",
          "name": "caller",
          "type": "address"
        }
      ],
      "stateMutability": "nonpayable",
      "type": "constructor"
    },
    {
      "inputs": [
        {
          "internalType": "address",
          "name": "target",
          "type": "address"
        }
      ],
      "name": "AddressEmptyCode",
      "type": "error"
    },
    {
      "inputs": [
        {
          "internalType": "address",
          "name": "account",
          "type": "address"
        }
      ],
      "name": "AddressInsufficientBalance",
      "type": "error"
    },
    {
      "inputs": [],
      "name": "BaseRewarder__AlreadyStopped",
      "type": "error"
    },
    {
      "inputs": [
        {
          "internalType": "uint256",
          "name": "remainingReward",
          "type": "uint256"
        },
        {
          "internalType": "uint256",
          "name": "expectedReward",
          "type": "uint256"
        }
      ],
      "name": "BaseRewarder__InsufficientReward",
      "type": "error"
    },
    {
      "inputs": [],
      "name": "BaseRewarder__InvalidCaller",
      "type": "error"
    },
    {
      "inputs": [],
      "name": "BaseRewarder__InvalidDuration",
      "type": "error"
    },
    {
      "inputs": [
        {
          "internalType": "uint256",
          "name": "pid",
          "type": "uint256"
        }
      ],
      "name": "BaseRewarder__InvalidPid",
      "type": "error"
    },
    {
      "inputs": [
        {
          "internalType": "uint256",
          "name": "startTimestamp",
          "type": "uint256"
        }
      ],
      "name": "BaseRewarder__InvalidStartTimestamp",
      "type": "error"
    },
    {
      "inputs": [],
      "name": "BaseRewarder__NativeTransferFailed",
      "type": "error"
    },
    {
      "inputs": [],
      "name": "BaseRewarder__NotNativeRewarder",
      "type": "error"
    },
    {
      "inputs": [],
      "name": "BaseRewarder__Stopped",
      "type": "error"
    },
    {
      "inputs": [],
      "name": "BaseRewarder__ZeroAmount",
      "type": "error"
    },
    {
      "inputs": [],
      "name": "FailedInnerCall",
      "type": "error"
    },
    {
      "inputs": [],
      "name": "InvalidInitialization",
      "type": "error"
    },
    {
      "inputs": [],
      "name": "NotInitializing",
      "type": "error"
    },
    {
      "inputs": [
        {
          "internalType": "address",
          "name": "owner",
          "type": "address"
        }
      ],
      "name": "OwnableInvalidOwner",
      "type": "error"
    },
    {
      "inputs": [
        {
          "internalType": "address",
          "name": "account",
          "type": "address"
        }
      ],
      "name": "OwnableUnauthorizedAccount",
      "type": "error"
    },
    {
      "inputs": [
        {
          "internalType": "address",
          "name": "token",
          "type": "address"
        }
      ],
      "name": "SafeERC20FailedOperation",
      "type": "error"
    },
    {
      "anonymous": false,
      "inputs": [
        {
          "indexed": true,
          "internalType": "address",
          "name": "account",
          "type": "address"
        },
        {
          "indexed": true,
          "internalType": "contract IERC20",
          "name": "token",
          "type": "address"
        },
        {
          "indexed": false,
          "internalType": "uint256",
          "name": "reward",
          "type": "uint256"
        }
      ],
      "name": "Claim",
      "type": "event"
    },
    {
      "anonymous": false,
      "inputs": [
        {
          "indexed": false,
          "internalType": "uint64",
          "name": "version",
          "type": "uint64"
        }
      ],
      "name": "Initialized",
      "type": "event"
    },
    {
      "anonymous": false,
      "inputs": [
        {
          "indexed": true,
          "internalType": "address",
          "name": "previousOwner",
          "type": "address"
        },
        {
          "indexed": true,
          "internalType": "address",
          "name": "newOwner",
          "type": "address"
        }
      ],
      "name": "OwnershipTransferStarted",
      "type": "event"
    },
    {
      "anonymous": false,
      "inputs": [
        {
          "indexed": true,
          "internalType": "address",
          "name": "previousOwner",
          "type": "address"
        },
        {
          "indexed": true,
          "internalType": "address",
          "name": "newOwner",
          "type": "address"
        }
      ],
      "name": "OwnershipTransferred",
      "type": "event"
    },
    {
      "anonymous": false,
      "inputs": [
        {
          "indexed": false,
          "internalType": "uint256",
          "name": "rewardPerSecond",
          "type": "uint256"
        },
        {
          "indexed": false,
          "internalType": "uint256",
          "name": "startTimestamp",
          "type": "uint256"
        },
        {
          "indexed": false,
          "internalType": "uint256",
          "name": "endTimestamp",
          "type": "uint256"
        }
      ],
      "name": "RewardParameterUpdated",
      "type": "event"
    },
    {
      "stateMutability": "payable",
      "type": "fallback"
    },
    {
      "inputs": [],
      "name": "acceptOwnership",
      "outputs": [],
      "stateMutability": "nonpayable",
      "type": "function"
    },
    {
      "inputs": [
        {
          "internalType": "address",
          "name": "account",
          "type": "address"
        },
        {
          "internalType": "uint256",
          "name": "amount",
          "type": "uint256"
        }
      ],
      "name": "claim",
      "outputs": [],
      "stateMutability": "nonpayable",
      "type": "function"
    },
    {
      "inputs": [],
      "name": "getCaller",
      "outputs": [
        {
          "internalType": "address",
          "name": "",
          "type": "address"
        }
      ],
      "stateMutability": "view",
      "type": "function"
    },
    {
      "inputs": [
        {
          "internalType": "address",
          "name": "account",
          "type": "address"
        },
        {
          "internalType": "uint256",
          "name": "balance",
          "type": "uint256"
        },
        {
          "internalType": "uint256",
          "name": "totalSupply",
          "type": "uint256"
        }
      ],
      "name": "getPendingReward",
      "outputs": [
        {
          "internalType": "contract IERC20",
          "name": "",
          "type": "address"
        },
        {
          "internalType": "uint256",
          "name": "",
          "type": "uint256"
        }
      ],
      "stateMutability": "view",
      "type": "function"
    },
    {
      "inputs": [],
      "name": "getPid",
      "outputs": [
        {
          "internalType": "uint256",
          "name": "",
          "type": "uint256"
        }
      ],
      "stateMutability": "view",
      "type": "function"
    },
    {
      "inputs": [],
      "name": "getRewarderParameter",
      "outputs": [
        {
          "internalType": "contract IERC20",
          "name": "token",
          "type": "address"
        },
        {
          "internalType": "uint256",
          "name": "rewardPerSecond",
          "type": "uint256"
        },
        {
          "internalType": "uint256",
          "name": "lastUpdateTimestamp",
          "type": "uint256"
        },
        {
          "internalType": "uint256",
          "name": "endTimestamp",
          "type": "uint256"
        }
      ],
      "stateMutability": "view",
      "type": "function"
    },
    {
      "inputs": [],
      "name": "getToken",
      "outputs": [
        {
          "internalType": "contract IERC20",
          "name": "",
          "type": "address"
        }
      ],
      "stateMutability": "view",
      "type": "function"
    },
    {
      "inputs": [
        {
          "internalType": "address",
          "name": "initialOwner",
          "type": "address"
        }
      ],
      "name": "initialize",
      "outputs": [],
      "stateMutability": "nonpayable",
      "type": "function"
    },
    {
      "inputs": [],
      "name": "isStopped",
      "outputs": [
        {
          "internalType": "bool",
          "name": "",
          "type": "bool"
        }
      ],
      "stateMutability": "view",
      "type": "function"
    },
    {
      "inputs": [
        {
          "internalType": "address",
          "name": "account",
          "type": "address"
        },
        {
          "internalType": "uint256",
          "name": "pid",
          "type": "uint256"
        },
        {
          "internalType": "uint256",
          "name": "oldBalance",
          "type": "uint256"
        },
        {
          "internalType": "uint256",
          "name": "newBalance",
          "type": "uint256"
        },
        {
          "internalType": "uint256",
          "name": "oldTotalSupply",
          "type": "uint256"
        }
      ],
      "name": "onModify",
      "outputs": [
        {
          "internalType": "uint256",
          "name": "",
          "type": "uint256"
        }
      ],
      "stateMutability": "nonpayable",
      "type": "function"
    },
    {
      "inputs": [],
      "name": "owner",
      "outputs": [
        {
          "internalType": "address",
          "name": "",
          "type": "address"
        }
      ],
      "stateMutability": "view",
      "type": "function"
    },
    {
      "inputs": [],
      "name": "pendingOwner",
      "outputs": [
        {
          "internalType": "address",
          "name": "",
          "type": "address"
        }
      ],
      "stateMutability": "view",
      "type": "function"
    },
    {
      "inputs": [],
      "name": "renounceOwnership",
      "outputs": [],
      "stateMutability": "nonpayable",
      "type": "function"
    },
    {
      "inputs": [
        {
          "internalType": "uint256",
          "name": "rewardPerSecond",
          "type": "uint256"
        },
        {
          "internalType": "uint256",
          "name": "expectedDuration",
          "type": "uint256"
        }
      ],
      "name": "setRewardPerSecond",
      "outputs": [],
      "stateMutability": "nonpayable",
      "type": "function"
    },
    {
      "inputs": [
        {
          "internalType": "uint256",
          "name": "rewardPerSecond",
          "type": "uint256"
        },
        {
          "internalType": "uint256",
          "name": "startTimestamp",
          "type": "uint256"
        },
        {
          "internalType": "uint256",
          "name": "expectedDuration",
          "type": "uint256"
        }
      ],
      "name": "setRewarderParameters",
      "outputs": [],
      "stateMutability": "nonpayable",
      "type": "function"
    },
    {
      "inputs": [],
      "name": "stop",
      "outputs": [],
      "stateMutability": "nonpayable",
      "type": "function"
    },
    {
      "inputs": [
        {
          "internalType": "contract IERC20",
          "name": "token",
          "type": "address"
        },
        {
          "internalType": "address",
          "name": "account",
          "type": "address"
        }
      ],
      "name": "sweep",
      "outputs": [],
      "stateMutability": "nonpayable",
      "type": "function"
    },
    {
      "inputs": [
        {
          "internalType": "address",
          "name": "newOwner",
          "type": "address"
        }
      ],
      "name": "transferOwnership",
      "outputs": [],
      "stateMutability": "nonpayable",
      "type": "function"
    },
    {
      "stateMutability": "payable",
      "type": "receive"
    }
  ],
  "bytecode": {
    "object": "0x60a060405234801561001057600080fd5b506040516115fb3803806115fb83398101604081905261002f916100fe565b6001600160a01b0381166080528061004561004c565b505061012e565b7ff0c57e16840df040f15088dc2f81fe391c3923bec73e23a9662efc9c229c6a00805468010000000000000000900460ff161561009c5760405163f92ee8a960e01b815260040160405180910390fd5b80546001600160401b03908116146100fb5780546001600160401b0319166001600160401b0390811782556040519081527fc7f505b2f371ae2175ee4913f4499e1f2633a7b5936321eed1cdaeb6115181d29060200160405180910390a15b50565b60006020828403121561011057600080fd5b81516001600160a01b038116811461012757600080fd5b9392505050565b60805161149d61015e600039600081816102ca015281816104c00152818161060a0152610ea6015261149d6000f3fe60806040526004361061012d5760003560e01c8063aad3ec96116100a5578063c4d66de811610074578063c877296311610059578063c87729631461038d578063e30c3978146103af578063f2fde38b146103c45761013c565b8063c4d66de81461032e578063c71832511461034e5761013c565b8063aad3ec961461029b578063ab470f05146102bb578063b5f578fc146102ee578063b8dc491b1461030e5761013c565b8063715018a6116100fc578063870b50fd116100e1578063870b50fd1461023857806389f5ab0d146102665780638da5cb5b146102865761013c565b8063715018a61461020e57806379ba5097146102235761013c565b806307da68f51461014457806321df0da71461015957806339cbec9d146101945780633f683b6a146101eb5761013c565b3661013c5761013a6103e4565b005b61013a6103e4565b34801561015057600080fd5b5061013a610414565b34801561016557600080fd5b503660011981013560f01c90033560601c5b6040516001600160a01b0390911681526020015b60405180910390f35b3480156101a057600080fd5b506101c1600054600554600354600119369081013560f01c90033560601c93565b604080516001600160a01b039095168552602085019390935291830152606082015260800161018b565b3480156101f757600080fd5b5060045460ff16604051901515815260200161018b565b34801561021a57600080fd5b5061013a610454565b34801561022f57600080fd5b5061013a610466565b34801561024457600080fd5b5061025861025336600461123f565b6104b3565b60405190815260200161018b565b34801561027257600080fd5b5061013a610281366004611283565b61056a565b34801561029257600080fd5b506101776105ca565b3480156102a757600080fd5b5061013a6102b63660046112af565b6105ff565b3480156102c757600080fd5b507f0000000000000000000000000000000000000000000000000000000000000000610177565b3480156102fa57600080fd5b5061013a6103093660046112db565b610656565b34801561031a57600080fd5b5061013a6103293660046112fd565b610685565b34801561033a57600080fd5b5061013a610349366004611336565b610706565b34801561035a57600080fd5b5061036e610369366004611353565b61082a565b604080516001600160a01b03909316835260208301919091520161018b565b34801561039957600080fd5b503660011981013560f01c900360140135610258565b3480156103bb57600080fd5b50610177610876565b3480156103d057600080fd5b5061013a6103df366004611336565b61089f565b3660011981013560f01c90033560601c1561041257604051639415816f60e01b815260040160405180910390fd5b565b61041c610924565b60045460ff16156104405760405163b1f033c760e01b815260040160405180910390fd5b6004805460ff19166001179055565b905090565b61045c610924565b6104126000610956565b3380610470610876565b6001600160a01b0316146104a75760405163118cdaa760e01b81526001600160a01b03821660048201526024015b60405180910390fd5b6104b081610956565b50565b6000336001600160a01b037f000000000000000000000000000000000000000000000000000000000000000016146104fe5760405163332bf49d60e21b815260040160405180910390fd5b3660011981013560f01c90036014013585146105305760405163e7ca808760e01b81526004810186905260240161049e565b60045460ff161561055457604051630f3e8c1360e11b815260040160405180910390fd5b6105608685858561098e565b9695505050505050565b610572610924565b60045460ff161561059657604051630f3e8c1360e11b815260040160405180910390fd5b428210156105ba57604051635c62004b60e11b81526004810183905260240161049e565b6105c58383836109f2565b505050565b6000807f9016d09d72d40fdae2fd8ceac6b6234c7706214fd39c1cd1e609a0528c1993005b546001600160a01b031692915050565b336001600160a01b037f000000000000000000000000000000000000000000000000000000000000000016146106485760405163332bf49d60e21b815260040160405180910390fd5b6106528282610b61565b5050565b61065e610924565b60055460004282116106705742610672565b815b905061067f8482856109f2565b50505050565b61068d610924565b600061069883610bce565b60045490915060ff161580156106c557503660011981013560f01c90033560601c6001600160a01b038416145b156106da576002546106d7908261139e565b90505b806000036106fb576040516360e6da0360e01b815260040160405180910390fd5b6105c5838383610c54565b7ff0c57e16840df040f15088dc2f81fe391c3923bec73e23a9662efc9c229c6a00805468010000000000000000810460ff16159067ffffffffffffffff166000811580156107515750825b905060008267ffffffffffffffff16600114801561076e5750303b155b90508115801561077c575080155b1561079a5760405163f92ee8a960e01b815260040160405180910390fd5b845467ffffffffffffffff1916600117855583156107ce57845468ff00000000000000001916680100000000000000001785555b6107d786610cf7565b831561082257845468ff000000000000000019168555604051600181527fc7f505b2f371ae2175ee4913f4499e1f2633a7b5936321eed1cdaeb6115181d29060200160405180910390a15b505050505050565b60008060006108496000546003546005610d089092919063ffffffff16565b90503660011981013560f01c90033560601c610869600588888886610d3f565b9250925050935093915050565b6000807f237e158222e3e6968b72b9db0d8043aacf074ad9f650f0d1606b4d82ee432c006105ef565b6108a7610924565b7f237e158222e3e6968b72b9db0d8043aacf074ad9f650f0d1606b4d82ee432c0080546001600160a01b0319166001600160a01b03831690811782556108eb6105ca565b6001600160a01b03167f38d16b8cac22d99fc7c124b9cd0de2d3fa1faef420bfe791d8c362d765e2270060405160405180910390a35050565b3361092d6105ca565b6001600160a01b0316146104125760405163118cdaa760e01b815233600482015260240161049e565b7f237e158222e3e6968b72b9db0d8043aacf074ad9f650f0d1606b4d82ee432c0080546001600160a01b031916815561065282610da5565b600154600254600080546003549193929184916109ae9160059190610d08565b90506109bf60058989898986610e16565b9350836109cc82856113b1565b6109d6919061139e565b6001556109e3848361139e565b60025550919695505050505050565b60045460ff1615610a1657604051630f3e8c1360e11b815260040160405180910390fd5b80158015610a2357508215155b15610a4157604051631a4778f160e31b815260040160405180910390fd5b60015460008054600354610a5791600591610d08565b9050610a6381836113b1565b9150600082610a803660011981013560f01c90033560601c610bce565b610a8a919061139e565b90506000610a9885886113c4565b905080821015610ac55760405163f79406ed60e01b8152600481018390526024810182905260440161049e565b6000610ad186886113b1565b90506000610add610e9a565b60008a90559050610aee83876113b1565b60025560038290556001869055610b0760058287610f61565b50428814610b155760058890555b604080518a8152602081018a90529081018390527ff0b276e9ee40b3a3d065f636ee656c9bf1c9a0c4060fb212fd0861890c107be59060600160405180910390a1505050505050505050565b3660011981013560f01c90033560601c610b7c818484610c54565b806001600160a01b0316836001600160a01b03167f70eb43c4a8ae8c40502dcf22436c509c28d6ff421cf07c491be56984bd98706884604051610bc191815260200190565b60405180910390a3505050565b60006001600160a01b03821615610c4c576040516370a0823160e01b81523060048201526001600160a01b038316906370a0823190602401602060405180830381865afa158015610c23573d6000803e3d6000fd5b505050506040513d601f19601f82011682018060405250810190610c4791906113db565b610c4e565b475b92915050565b80600003610c6157505050565b6001600160a01b038316610ce3576000826001600160a01b03168260405160006040518083038185875af1925050503d8060008114610cbc576040519150601f19603f3d011682016040523d82523d6000602084013e610cc1565b606091505b505090508061067f57604051630df61d5560e01b815260040160405180910390fd5b6105c56001600160a01b0384168383610fb2565b610cff611019565b6104b081611067565b825460009081428410610d1b5742610d1d565b835b9050808211610d30578482820302610d33565b60005b925050505b9392505050565b600080610d4c8484611099565b8760010154610d5b91906113b1565b90508415610d97576001600160a01b0386166000908152600288016020526040902054610d8882876110bd565b610d92919061139e565b610d9a565b60005b979650505050505050565b7f9016d09d72d40fdae2fd8ceac6b6234c7706214fd39c1cd1e609a0528c19930080546001600160a01b031981166001600160a01b03848116918217845560405192169182907f8be0079c531659141344cd1fd0a4f28419497f9722a3daafe3b4186f6b6457e090600090a3505050565b600080610e24888585610f61565b90508515610e60576001600160a01b0387166000908152600289016020526040902054610e5182886110bd565b610e5b919061139e565b610e63565b60005b9150610e6f81866110bd565b6001600160a01b03909716600090815260029098016020525060409096209490945550929392505050565b60006001600160a01b037f00000000000000000000000000000000000000000000000000000000000000001663e720e483303660011981013560f01c9003601401356040517fffffffff0000000000000000000000000000000000000000000000000000000060e085901b1681526001600160a01b0390921660048301526024820152604401602060405180830381865afa158015610f3d573d6000803e3d6000fd5b505050506040513d601f19601f8201168201806040525081019061044f91906113db565b600080610f6e8484611099565b8554909150421115610f7e574285555b8015610fa35780856001016000828254610f9891906113b1565b925050819055610fa9565b84600101545b95945050505050565b604080516001600160a01b038416602482015260448082018490528251808303909101815260649091019091526020810180517bffffffffffffffffffffffffffffffffffffffffffffffffffffffff1663a9059cbb60e01b1790526105c59084906110d4565b7ff0c57e16840df040f15088dc2f81fe391c3923bec73e23a9662efc9c229c6a005468010000000000000000900460ff1661041257604051631afcd79f60e31b815260040160405180910390fd5b61106f611019565b6001600160a01b0381166104a757604051631e4fbdf760e01b81526000600482015260240161049e565b600082156110b4576110af83604084901b6113f4565b610d38565b60009392505050565b600060406110cb84846113c4565b901c9392505050565b60006110e96001600160a01b03841683611137565b9050805160001415801561110e57508080602001905181019061110c9190611416565b155b156105c557604051635274afe760e01b81526001600160a01b038416600482015260240161049e565b6060610d388383600084600080856001600160a01b0316848660405161115d9190611438565b60006040518083038185875af1925050503d806000811461119a576040519150601f19603f3d011682016040523d82523d6000602084013e61119f565b606091505b5091509150610d338683836060826111ba576110af82611201565b81511580156111d157506001600160a01b0384163b155b156111fa57604051639996b31560e01b81526001600160a01b038516600482015260240161049e565b5080610d38565b8051156112115780518082602001fd5b604051630a12f52160e11b815260040160405180910390fd5b6001600160a01b03811681146104b057600080fd5b600080600080600060a0868803121561125757600080fd5b85356112628161122a565b97602087013597506040870135966060810135965060800135945092505050565b60008060006060848603121561129857600080fd5b505081359360208301359350604090920135919050565b600080604083850312156112c257600080fd5b82356112cd8161122a565b946020939093013593505050565b600080604083850312156112ee57600080fd5b50508035926020909101359150565b6000806040838503121561131057600080fd5b823561131b8161122a565b9150602083013561132b8161122a565b809150509250929050565b60006020828403121561134857600080fd5b8135610d388161122a565b60008060006060848603121561136857600080fd5b83356113738161122a565b95602085013595506040909401359392505050565b634e487b7160e01b600052601160045260246000fd5b81810381811115610c4e57610c4e611388565b80820180821115610c4e57610c4e611388565b8082028115828204841417610c4e57610c4e611388565b6000602082840312156113ed57600080fd5b5051919050565b60008261141157634e487b7160e01b600052601260045260246000fd5b500490565b60006020828403121561142857600080fd5b81518015158114610d3857600080fd5b6000825160005b81811015611459576020818601810151858301520161143f565b50600092019182525091905056fea26469706673582212200d75ff1897b7cfd8ecfd26f9455f8a40fbddf4e8d5ad01d0a668a0b3f69c62b064736f6c63430008140033",
    "linkReferences": {}
  },
  "methodIdentifiers": {
    "acceptOwnership()": "79ba5097",
    "claim(address,uint256)": "aad3ec96",
    "getCaller()": "ab470f05",
    "getPendingReward(address,uint256,uint256)": "c7183251",
    "getPid()": "c8772963",
    "getRewarderParameter()": "39cbec9d",
    "getToken()": "21df0da7",
    "initialize(address)": "c4d66de8",
    "isStopped()": "3f683b6a",
    "onModify(address,uint256,uint256,uint256,uint256)": "870b50fd",
    "owner()": "8da5cb5b",
    "pendingOwner()": "e30c3978",
    "renounceOwnership()": "715018a6",
    "setRewardPerSecond(uint256,uint256)": "b5f578fc",
    "setRewarderParameters(uint256,uint256,uint256)": "89f5ab0d",
    "stop()": "07da68f5",
    "sweep(address,address)": "b8dc491b",
    "transferOwnership(address)": "f2fde38b"
  },
  "id": 99
}