{
  "abi": [
    {
      "inputs": [],
      "stateMutability": "nonpayable",
      "type": "constructor"
    },
    {
      "inputs": [
        {
          "internalType": "address",
          "name": "target",
          "type": "address"
        }
      ],
      "name": "AddressEmptyCode",
      "type": "error"
    },
    {
      "inputs": [
        {
          "internalType": "address",
          "name": "account",
          "type": "address"
        }
      ],
      "name": "AddressInsufficientBalance",
      "type": "error"
    },
    {
      "inputs": [],
      "name": "FailedInnerCall",
      "type": "error"
    },
    {
      "inputs": [
        {
          "internalType": "address",
          "name": "token",
          "type": "address"
        }
      ],
      "name": "SafeERC20FailedOperation",
      "type": "error"
    },
    {
      "anonymous": false,
      "inputs": [
        {
          "indexed": true,
          "internalType": "address",
          "name": "owner",
          "type": "address"
        },
        {
          "indexed": true,
          "internalType": "address",
          "name": "spender",
          "type": "address"
        },
        {
          "indexed": false,
          "internalType": "uint256",
          "name": "value",
          "type": "uint256"
        }
      ],
      "name": "Approval",
      "type": "event"
    },
    {
      "anonymous": false,
      "inputs": [
        {
          "indexed": true,
          "internalType": "address",
          "name": "sender",
          "type": "address"
        },
        {
          "indexed": false,
          "internalType": "uint256",
          "name": "amount0",
          "type": "uint256"
        },
        {
          "indexed": false,
          "internalType": "uint256",
          "name": "amount1",
          "type": "uint256"
        },
        {
          "indexed": true,
          "internalType": "address",
          "name": "to",
          "type": "address"
        }
      ],
      "name": "Burn",
      "type": "event"
    },
    {
      "anonymous": false,
      "inputs": [
        {
          "indexed": true,
          "internalType": "address",
          "name": "sender",
          "type": "address"
        },
        {
          "indexed": false,
          "internalType": "uint256",
          "name": "amount0",
          "type": "uint256"
        },
        {
          "indexed": false,
          "internalType": "uint256",
          "name": "amount1",
          "type": "uint256"
        }
      ],
      "name": "Mint",
      "type": "event"
    },
    {
      "anonymous": false,
      "inputs": [
        {
          "indexed": true,
          "internalType": "address",
          "name": "sender",
          "type": "address"
        },
        {
          "indexed": false,
          "internalType": "uint256",
          "name": "amount0In",
          "type": "uint256"
        },
        {
          "indexed": false,
          "internalType": "uint256",
          "name": "amount1In",
          "type": "uint256"
        },
        {
          "indexed": false,
          "internalType": "uint256",
          "name": "amount0Out",
          "type": "uint256"
        },
        {
          "indexed": false,
          "internalType": "uint256",
          "name": "amount1Out",
          "type": "uint256"
        },
        {
          "indexed": true,
          "internalType": "address",
          "name": "to",
          "type": "address"
        }
      ],
      "name": "Swap",
      "type": "event"
    },
    {
      "anonymous": false,
      "inputs": [
        {
          "indexed": false,
          "internalType": "uint112",
          "name": "reserve0",
          "type": "uint112"
        },
        {
          "indexed": false,
          "internalType": "uint112",
          "name": "reserve1",
          "type": "uint112"
        }
      ],
      "name": "Sync",
      "type": "event"
    },
    {
      "anonymous": false,
      "inputs": [
        {
          "indexed": true,
          "internalType": "address",
          "name": "from",
          "type": "address"
        },
        {
          "indexed": true,
          "internalType": "address",
          "name": "to",
          "type": "address"
        },
        {
          "indexed": false,
          "internalType": "uint256",
          "name": "value",
          "type": "uint256"
        }
      ],
      "name": "Transfer",
      "type": "event"
    },
    {
      "inputs": [],
      "name": "DOMAIN_SEPARATOR",
      "outputs": [
        {
          "internalType": "bytes32",
          "name": "",
          "type": "bytes32"
        }
      ],
      "stateMutability": "view",
      "type": "function"
    },
    {
      "inputs": [],
      "name": "MINIMUM_LIQUIDITY",
      "outputs": [
        {
          "internalType": "uint256",
          "name": "",
          "type": "uint256"
        }
      ],
      "stateMutability": "view",
      "type": "function"
    },
    {
      "inputs": [],
      "name": "PERMIT_TYPEHASH",
      "outputs": [
        {
          "internalType": "bytes32",
          "name": "",
          "type": "bytes32"
        }
      ],
      "stateMutability": "view",
      "type": "function"
    },
    {
      "inputs": [
        {
          "internalType": "address",
          "name": "",
          "type": "address"
        },
        {
          "internalType": "address",
          "name": "",
          "type": "address"
        }
      ],
      "name": "allowance",
      "outputs": [
        {
          "internalType": "uint256",
          "name": "",
          "type": "uint256"
        }
      ],
      "stateMutability": "view",
      "type": "function"
    },
    {
      "inputs": [
        {
          "internalType": "address",
          "name": "spender",
          "type": "address"
        },
        {
          "internalType": "uint256",
          "name": "value",
          "type": "uint256"
        }
      ],
      "name": "approve",
      "outputs": [
        {
          "internalType": "bool",
          "name": "",
          "type": "bool"
        }
      ],
      "stateMutability": "nonpayable",
      "type": "function"
    },
    {
      "inputs": [
        {
          "internalType": "address",
          "name": "",
          "type": "address"
        }
      ],
      "name": "balanceOf",
      "outputs": [
        {
          "internalType": "uint256",
          "name": "",
          "type": "uint256"
        }
      ],
      "stateMutability": "view",
      "type": "function"
    },
    {
      "inputs": [
        {
          "internalType": "address",
          "name": "to",
          "type": "address"
        }
      ],
      "name": "burn",
      "outputs": [
        {
          "internalType": "uint256",
          "name": "amount0",
          "type": "uint256"
        },
        {
          "internalType": "uint256",
          "name": "amount1",
          "type": "uint256"
        }
      ],
      "stateMutability": "nonpayable",
      "type": "function"
    },
    {
      "inputs": [],
      "name": "decimals",
      "outputs": [
        {
          "internalType": "uint8",
          "name": "",
          "type": "uint8"
        }
      ],
      "stateMutability": "view",
      "type": "function"
    },
    {
      "inputs": [],
      "name": "factory",
      "outputs": [
        {
          "internalType": "address",
          "name": "",
          "type": "address"
        }
      ],
      "stateMutability": "view",
      "type": "function"
    },
    {
      "inputs": [],
      "name": "getReserves",
      "outputs": [
        {
          "internalType": "uint112",
          "name": "_reserve0",
          "type": "uint112"
        },
        {
          "internalType": "uint112",
          "name": "_reserve1",
          "type": "uint112"
        },
        {
          "internalType": "uint32",
          "name": "_blockTimestampLast",
          "type": "uint32"
        }
      ],
      "stateMutability": "view",
      "type": "function"
    },
    {
      "inputs": [],
      "name": "implementation",
      "outputs": [
        {
          "internalType": "address",
          "name": "",
          "type": "address"
        }
      ],
      "stateMutability": "view",
      "type": "function"
    },
    {
      "inputs": [],
      "name": "initialize",
      "outputs": [],
      "stateMutability": "nonpayable",
      "type": "function"
    },
    {
      "inputs": [],
      "name": "kLast",
      "outputs": [
        {
          "internalType": "uint256",
          "name": "",
          "type": "uint256"
        }
      ],
      "stateMutability": "view",
      "type": "function"
    },
    {
      "inputs": [
        {
          "internalType": "address",
          "name": "to",
          "type": "address"
        }
      ],
      "name": "mint",
      "outputs": [
        {
          "internalType": "uint256",
          "name": "liquidity",
          "type": "uint256"
        }
      ],
      "stateMutability": "nonpayable",
      "type": "function"
    },
    {
      "inputs": [],
      "name": "name",
      "outputs": [
        {
          "internalType": "string",
          "name": "",
          "type": "string"
        }
      ],
      "stateMutability": "view",
      "type": "function"
    },
    {
      "inputs": [
        {
          "internalType": "address",
          "name": "",
          "type": "address"
        }
      ],
      "name": "nonces",
      "outputs": [
        {
          "internalType": "uint256",
          "name": "",
          "type": "uint256"
        }
      ],
      "stateMutability": "view",
      "type": "function"
    },
    {
      "inputs": [
        {
          "internalType": "address",
          "name": "owner",
          "type": "address"
        },
        {
          "internalType": "address",
          "name": "spender",
          "type": "address"
        },
        {
          "internalType": "uint256",
          "name": "value",
          "type": "uint256"
        },
        {
          "internalType": "uint256",
          "name": "deadline",
          "type": "uint256"
        },
        {
          "internalType": "uint8",
          "name": "v",
          "type": "uint8"
        },
        {
          "internalType": "bytes32",
          "name": "r",
          "type": "bytes32"
        },
        {
          "internalType": "bytes32",
          "name": "s",
          "type": "bytes32"
        }
      ],
      "name": "permit",
      "outputs": [],
      "stateMutability": "nonpayable",
      "type": "function"
    },
    {
      "inputs": [],
      "name": "price0CumulativeLast",
      "outputs": [
        {
          "internalType": "uint256",
          "name": "",
          "type": "uint256"
        }
      ],
      "stateMutability": "view",
      "type": "function"
    },
    {
      "inputs": [],
      "name": "price1CumulativeLast",
      "outputs": [
        {
          "internalType": "uint256",
          "name": "",
          "type": "uint256"
        }
      ],
      "stateMutability": "view",
      "type": "function"
    },
    {
      "inputs": [
        {
          "internalType": "address",
          "name": "to",
          "type": "address"
        }
      ],
      "name": "skim",
      "outputs": [],
      "stateMutability": "nonpayable",
      "type": "function"
    },
    {
      "inputs": [
        {
          "internalType": "uint256",
          "name": "amount0Out",
          "type": "uint256"
        },
        {
          "internalType": "uint256",
          "name": "amount1Out",
          "type": "uint256"
        },
        {
          "internalType": "address",
          "name": "to",
          "type": "address"
        },
        {
          "internalType": "bytes",
          "name": "data",
          "type": "bytes"
        }
      ],
      "name": "swap",
      "outputs": [],
      "stateMutability": "nonpayable",
      "type": "function"
    },
    {
      "inputs": [
        {
          "internalType": "address",
          "name": "token",
          "type": "address"
        },
        {
          "internalType": "address",
          "name": "recipient",
          "type": "address"
        },
        {
          "internalType": "uint256",
          "name": "amount",
          "type": "uint256"
        }
      ],
      "name": "sweep",
      "outputs": [],
      "stateMutability": "nonpayable",
      "type": "function"
    },
    {
      "inputs": [],
      "name": "symbol",
      "outputs": [
        {
          "internalType": "string",
          "name": "",
          "type": "string"
        }
      ],
      "stateMutability": "view",
      "type": "function"
    },
    {
      "inputs": [],
      "name": "sync",
      "outputs": [],
      "stateMutability": "nonpayable",
      "type": "function"
    },
    {
      "inputs": [],
      "name": "token0",
      "outputs": [
        {
          "internalType": "address",
          "name": "",
          "type": "address"
        }
      ],
      "stateMutability": "pure",
      "type": "function"
    },
    {
      "inputs": [],
      "name": "token1",
      "outputs": [
        {
          "internalType": "address",
          "name": "",
          "type": "address"
        }
      ],
      "stateMutability": "pure",
      "type": "function"
    },
    {
      "inputs": [],
      "name": "totalSupply",
      "outputs": [
        {
          "internalType": "uint256",
          "name": "",
          "type": "uint256"
        }
      ],
      "stateMutability": "view",
      "type": "function"
    },
    {
      "inputs": [
        {
          "internalType": "address",
          "name": "to",
          "type": "address"
        },
        {
          "internalType": "uint256",
          "name": "value",
          "type": "uint256"
        }
      ],
      "name": "transfer",
      "outputs": [
        {
          "internalType": "bool",
          "name": "",
          "type": "bool"
        }
      ],
      "stateMutability": "nonpayable",
      "type": "function"
    },
    {
      "inputs": [
        {
          "internalType": "address",
          "name": "from",
          "type": "address"
        },
        {
          "internalType": "address",
          "name": "to",
          "type": "address"
        },
        {
          "internalType": "uint256",
          "name": "value",
          "type": "uint256"
        }
      ],
      "name": "transferFrom",
      "outputs": [
        {
          "internalType": "bool",
          "name": "",
          "type": "bool"
        }
      ],
      "stateMutability": "nonpayable",
      "type": "function"
    }
  ],
  "bytecode": {
    "object": "0x60c060405234801561001057600080fd5b50604080518082018252600c81526b26b7b2902628102a37b5b2b760a11b6020918201528151808301835260018152603160f81b9082015281517f8b73c3c69bb8fe3d512ecc4cf759cc79239f7b179b0ffacaa9a75d522b39400f918101919091527fb76c667a40d6c1f54a45cfe635138309ac4736f0c19d2b95c73481b6250bb3e9918101919091527fc89efdaa54c0f20c7adf612882df0950f5a951637e0307cdcb4c672f298b8bc6606082015246608082018190523060a08301529060c00160408051601f19818403018152919052805160209091012060035550336080523060a05260001960095560805160a05161246661012f600039600061032c01526000818161044501528181610a8f0152611a5d01526124666000f3fe608060405234801561001057600080fd5b50600436106101cf5760003560e01c80636a62784211610104578063a9059cbb116100a2578063d21220a711610071578063d21220a714610467578063d505accf1461046f578063dd62ed3e14610482578063fff6cae9146104ad57600080fd5b8063a9059cbb14610411578063ba9a7a5614610424578063bc25cf771461042d578063c45a01551461044057600080fd5b80637ecebe00116100de5780637ecebe001461039d5780638129fc1c146103bd57806389afcb44146103c557806395d89b41146103ed57600080fd5b80636a6278421461036157806370a08231146103745780637464fc3d1461039457600080fd5b806330adf81f116101715780635909c0d51161014b5780635909c0d5146103155780635a3d54931461031e5780635c60da1b1461032757806362c067671461034e57600080fd5b806330adf81f146102cb578063313ce567146102f25780633644e5151461030c57600080fd5b8063095ea7b3116101ad578063095ea7b31461025e5780630dfe16811461028157806318160ddd146102a157806323b872dd146102b857600080fd5b8063022c0d9f146101d457806306fdde03146101e95780630902f1ac1461022a575b600080fd5b6101e76101e2366004612059565b6104b5565b005b6102146040518060400160405280600c81526020016b26b7b2902628102a37b5b2b760a11b81525081565b6040516102219190612113565b60405180910390f35b6102326109c2565b604080516001600160701b03948516815293909216602084015263ffffffff1690820152606001610221565b61027161026c366004612146565b6109ec565b6040519015158152602001610221565b610289610a03565b6040516001600160a01b039091168152602001610221565b6102aa60005481565b604051908152602001610221565b6102716102c6366004612172565b610a12565b6102aa7f6e71edae12b1b97f4d1f60370fef10105fa2faae0126114a169c64845d6126c981565b6102fa601281565b60405160ff9091168152602001610221565b6102aa60035481565b6102aa60065481565b6102aa60075481565b6102897f000000000000000000000000000000000000000000000000000000000000000081565b6101e761035c366004612172565b610a8d565b6102aa61036f3660046121b3565b610bfc565b6102aa6103823660046121b3565b60016020526000908152604090205481565b6102aa60085481565b6102aa6103ab3660046121b3565b60046020526000908152604090205481565b6101e7610ebf565b6103d86103d33660046121b3565b610ed3565b60408051928352602083019190915201610221565b6102146040518060400160405280600581526020016404d6f654c560dc1b81525081565b61027161041f366004612146565b611244565b6102aa6103e881565b6101e761043b3660046121b3565b611251565b6102897f000000000000000000000000000000000000000000000000000000000000000081565b6102896113cf565b6101e761047d3660046121d0565b6113d9565b6102aa610490366004612247565b600260209081526000928352604080842090915290825290205481565b6101e76115e0565b6009546001146104e05760405162461bcd60e51b81526004016104d790612280565b60405180910390fd5b6002600955841515806104f35750600084115b61053f5760405162461bcd60e51b815260206004820152601f60248201527f4d6f653a20494e53554646494349454e545f4f55545055545f414d4f554e540060448201526064016104d7565b60008061054a6109c2565b5091509150816001600160701b03168710801561056f5750806001600160701b031686105b6105bb5760405162461bcd60e51b815260206004820152601b60248201527f4d6f653a20494e53554646494349454e545f4c4951554944495459000000000060448201526064016104d7565b60008060006105c861170a565b905060006105d461171d565b9050816001600160a01b0316896001600160a01b03161415801561060a5750806001600160a01b0316896001600160a01b031614155b6106485760405162461bcd60e51b815260206004820152600f60248201526e4d6f653a20494e56414c49445f544f60881b60448201526064016104d7565b8a15610662576106626001600160a01b0383168a8d611733565b891561067c5761067c6001600160a01b0382168a8c611733565b86156106e95760405163ba85410f60e01b81526001600160a01b038a169063ba85410f906106b69033908f908f908e908e906004016122a5565b600060405180830381600087803b1580156106d057600080fd5b505af11580156106e4573d6000803e3d6000fd5b505050505b6040516370a0823160e01b81523060048201526001600160a01b038316906370a0823190602401602060405180830381865afa15801561072d573d6000803e3d6000fd5b505050506040513d601f19601f8201168201806040525081019061075191906122f1565b6040516370a0823160e01b81523060048201529094506001600160a01b038216906370a0823190602401602060405180830381865afa158015610798573d6000803e3d6000fd5b505050506040513d601f19601f820116820180604052508101906107bc91906122f1565b92505050600089856001600160701b03166107d79190612320565b83116107e4576000610801565b6107f78a6001600160701b038716612320565b6108019084612320565b905060006108188a6001600160701b038716612320565b8311610825576000610842565b6108388a6001600160701b038716612320565b6108429084612320565b905060008211806108535750600081115b61089f5760405162461bcd60e51b815260206004820152601e60248201527f4d6f653a20494e53554646494349454e545f494e5055545f414d4f554e54000060448201526064016104d7565b60006108ac836003612333565b6108b8866103e8612333565b6108c29190612320565b905060006108d1836003612333565b6108dd866103e8612333565b6108e79190612320565b90506108ff6001600160701b03808916908a16612333565b61090c90620f4240612333565b6109168284612333565b101561094d5760405162461bcd60e51b81526020600482015260066024820152654d6f653a204b60d01b60448201526064016104d7565b505061095b84848888611785565b60408051838152602081018390529081018c9052606081018b90526001600160a01b038a169033907fd78ad95fa46c994b6551d0da85fc275fe613ce37657fb8d5e3d130840159d8229060800160405180910390a350506001600955505050505050505050565b6005546001600160701b0380821692600160701b830490911691600160e01b900463ffffffff1690565b60006109f9338484611940565b5060015b92915050565b6000610a0d61170a565b905090565b6001600160a01b038316600090815260026020908152604080832033845290915281205460001914610a77576001600160a01b038416600090815260026020908152604080832033845290915281208054849290610a71908490612320565b90915550505b610a828484846119a2565b5060015b9392505050565b7f00000000000000000000000000000000000000000000000000000000000000006001600160a01b0316638da5cb5b6040518163ffffffff1660e01b8152600401602060405180830381865afa158015610aeb573d6000803e3d6000fd5b505050506040513d601f19601f82011682018060405250810190610b0f919061234a565b6001600160a01b0316336001600160a01b031614610b605760405162461bcd60e51b815260206004820152600e60248201526d26b7b29d102327a92124a22222a760911b60448201526064016104d7565b610b6861170a565b6001600160a01b0316836001600160a01b031614158015610ba25750610b8c61171d565b6001600160a01b0316836001600160a01b031614155b610be35760405162461bcd60e51b815260206004820152601260248201527126b7b29d1024a72b20a624a22faa27a5a2a760711b60448201526064016104d7565b610bf76001600160a01b0384168383611733565b505050565b6000600954600114610c205760405162461bcd60e51b81526004016104d790612280565b600260095560008080610c31611a43565b9250925092506000610c4161170a565b6040516370a0823160e01b81523060048201526001600160a01b0391909116906370a0823190602401602060405180830381865afa158015610c87573d6000803e3d6000fd5b505050506040513d601f19601f82011682018060405250810190610cab91906122f1565b90506000610cb761171d565b6040516370a0823160e01b81523060048201526001600160a01b0391909116906370a0823190602401602060405180830381865afa158015610cfd573d6000803e3d6000fd5b505050506040513d601f19601f82011682018060405250810190610d2191906122f1565b90506000610d386001600160701b03861684612320565b90506000610d4f6001600160701b03861684612320565b60008054919250819003610d90576103e8610d72610d6d8486612333565b611c39565b610d7c9190612320565b9850610d8b60006103e8611d21565b610dd7565b610dd46001600160701b038816610da78386612333565b610db1919061237d565b6001600160701b038816610dc58486612333565b610dcf919061237d565b611daa565b98505b60008911610e325760405162461bcd60e51b815260206004820152602260248201527f4d6f653a20494e53554646494349454e545f4c49515549444954595f4d494e54604482015261115160f21b60648201526084016104d7565b610e3c8a8a611d21565b610e4885858989611785565b8715610e7157600554610e6d906001600160701b03600160701b820481169116612333565b6008555b604080518481526020810184905233917f4c209b5fc8ad50758f13e2e1088ba56a560dff690a1c6fef26394f4c03821c4f910160405180910390a25050600160095550949695505050505050565b60095415610ecc57600080fd5b6001600955565b600080600954600114610ef85760405162461bcd60e51b81526004016104d790612280565b600260095560008080610f09611a43565b9250925092506000610f1961170a565b90506000610f2561171d565b6040516370a0823160e01b81523060048201529091506000906001600160a01b038416906370a0823190602401602060405180830381865afa158015610f6f573d6000803e3d6000fd5b505050506040513d601f19601f82011682018060405250810190610f9391906122f1565b6040516370a0823160e01b81523060048201529091506000906001600160a01b038416906370a0823190602401602060405180830381865afa158015610fdd573d6000803e3d6000fd5b505050506040513d601f19601f8201168201806040525081019061100191906122f1565b30600090815260016020526040812054905491925090806110228584612333565b61102c919061237d565b9a50806110398484612333565b611043919061237d565b995060008b118015611055575060008a115b6110ac5760405162461bcd60e51b815260206004820152602260248201527f4d6f653a20494e53554646494349454e545f4c49515549444954595f4255524e604482015261115160f21b60648201526084016104d7565b6110b63083611dc0565b6110ca6001600160a01b0387168d8d611733565b6110de6001600160a01b0386168d8c611733565b6040516370a0823160e01b81523060048201526001600160a01b038716906370a0823190602401602060405180830381865afa158015611122573d6000803e3d6000fd5b505050506040513d601f19601f8201168201806040525081019061114691906122f1565b6040516370a0823160e01b81523060048201529094506001600160a01b038616906370a0823190602401602060405180830381865afa15801561118d573d6000803e3d6000fd5b505050506040513d601f19601f820116820180604052508101906111b191906122f1565b92506111bf84848a8a611785565b88156111e8576005546111e4906001600160701b03600160701b820481169116612333565b6008555b604080518c8152602081018c90526001600160a01b038e169133917fdccd412f0b1252819cb1fd330b93224ca42612892bb3f4f789976e6d81936496910160405180910390a35050505050505050506001600981905550915091565b60006109f93384846119a2565b6009546001146112735760405162461bcd60e51b81526004016104d790612280565b6002600955600061128261170a565b9050600061128e61171d565b6005546040516370a0823160e01b81523060048201529192506113279185916001600160701b0316906001600160a01b038616906370a0823190602401602060405180830381865afa1580156112e8573d6000803e3d6000fd5b505050506040513d601f19601f8201168201806040525081019061130c91906122f1565b6113169190612320565b6001600160a01b0385169190611733565b6005546040516370a0823160e01b81523060048201526113c5918591600160701b9091046001600160701b0316906001600160a01b038516906370a0823190602401602060405180830381865afa158015611386573d6000803e3d6000fd5b505050506040513d601f19601f820116820180604052508101906113aa91906122f1565b6113b49190612320565b6001600160a01b0384169190611733565b5050600160095550565b6000610a0d61171d565b428410156114185760405162461bcd60e51b815260206004820152600c60248201526b135bd94e881156141254915160a21b60448201526064016104d7565b6003546001600160a01b038816600090815260046020526040812080549192917f6e71edae12b1b97f4d1f60370fef10105fa2faae0126114a169c64845d6126c9918b918b918b91908761146b8361239f565b909155506040805160208101969096526001600160a01b0394851690860152929091166060840152608083015260a082015260c0810187905260e001604051602081830303815290604052805190602001206040516020016114e492919061190160f01b81526002810192909252602282015260420190565b60408051601f198184030181528282528051602091820120600080855291840180845281905260ff88169284019290925260608301869052608083018590529092509060019060a0016020604051602081039080840390855afa15801561154f573d6000803e3d6000fd5b5050604051601f1901519150506001600160a01b038116158015906115855750886001600160a01b0316816001600160a01b0316145b6115ca5760405162461bcd60e51b81526020600482015260166024820152754d6f653a20494e56414c49445f5349474e415455524560501b60448201526064016104d7565b6115d5898989611940565b505050505050505050565b6009546001146116025760405162461bcd60e51b81526004016104d790612280565b6002600955610ecc61161261170a565b6040516370a0823160e01b81523060048201526001600160a01b0391909116906370a0823190602401602060405180830381865afa158015611658573d6000803e3d6000fd5b505050506040513d601f19601f8201168201806040525081019061167c91906122f1565b61168461171d565b6040516370a0823160e01b81523060048201526001600160a01b0391909116906370a0823190602401602060405180830381865afa1580156116ca573d6000803e3d6000fd5b505050506040513d601f19601f820116820180604052508101906116ee91906122f1565b6005546001600160701b0380821691600160701b900416611785565b3660011981013560f01c90033560601c90565b3660011981013560f01c90036014013560601c90565b604080516001600160a01b038416602482015260448082018490528251808303909101815260649091019091526020810180516001600160e01b031663a9059cbb60e01b179052610bf7908490611e43565b6001600160701b0384118015906117a357506001600160701b038311155b6117df5760405162461bcd60e51b815260206004820152600d60248201526c4d6f653a204f564552464c4f5760981b60448201526064016104d7565b600554429063ffffffff600160e01b909104811682039081161580159061180e57506001600160701b03841615155b801561182257506001600160701b03831615155b156118a8578063ffffffff16846001600160701b03166070856001600160701b0316901b8161185357611853612367565b60068054929091049290920201905563ffffffff81166001600160701b0384166dffffffffffffffffffffffffffff60701b607087901b168161189857611898612367565b6007805492909104929092020190555b506005805463ffffffff8316600160e01b026001600160e01b036001600160701b03888116600160701b9081026001600160e01b03199095168b83161794909417918216831794859055604080519382169282169290921783529290930490911660208201527f1c411e9a96e071241c2f21f7726b17ae89e3cab4c78be50e062b03a9fffbbad1910160405180910390a15050505050565b6001600160a01b0383811660008181526002602090815260408083209487168084529482529182902085905590518481527f8c5be1e5ebec7d5bd14f71427d1e84f3dd0314c0f7b2291e5b200ac8c7c3b92591015b60405180910390a3505050565b6001600160a01b038316600090815260016020526040812080548392906119ca908490612320565b90915550506001600160a01b038216600090815260016020526040812080548392906119f79084906123b8565b92505081905550816001600160a01b0316836001600160a01b03167fddf252ad1be2c89b69c2b068fc378daa952ba7f163c4a11628f55a4df523b3ef8360405161199591815260200190565b6000806000611a506109c2565b50809250819350505060007f00000000000000000000000000000000000000000000000000000000000000006001600160a01b031663017e7e586040518163ffffffff1660e01b8152600401602060405180830381865afa158015611ab9573d6000803e3d6000fd5b505050506040513d601f19601f82011682018060405250810190611add919061234a565b6008546001600160a01b038216158015965091925090611c26578015611c21576000611b18610d6d6001600160701b03808716908816612333565b90506000611b2583611c39565b905080821115611c1e576000805490611b3e8385612320565b611b489083612333565b9050600083611b58866005612333565b611b6291906123b8565b90506000611b70828461237d565b90508015611c1957611b8281856123b8565b9350600084611b9a836001600160701b038e16612333565b611ba4919061237d565b9050600085611bbc846001600160701b038e16612333565b611bc6919061237d565b90508115611bf757611bd8828d6123cb565b9b50611bf78a83611be761170a565b6001600160a01b03169190611733565b8015611c1657611c07818c6123cb565b9a50611c168a82611be761171d565b50505b505050505b50505b611c32565b8015611c325760006008555b5050909192565b600081600003611c4b57506000919050565b60006001611c5884611ea6565b901c6001901b90506001818481611c7157611c71612367565b048201901c90506001818481611c8957611c89612367565b048201901c90506001818481611ca157611ca1612367565b048201901c90506001818481611cb957611cb9612367565b048201901c90506001818481611cd157611cd1612367565b048201901c90506001818481611ce957611ce9612367565b048201901c90506001818481611d0157611d01612367565b048201901c9050610a8681828581611d1b57611d1b612367565b04611daa565b80600080828254611d3291906123b8565b90915550506001600160a01b03821660009081526001602052604081208054839290611d5f9084906123b8565b90915550506040518181526001600160a01b038316906000907fddf252ad1be2c89b69c2b068fc378daa952ba7f163c4a11628f55a4df523b3ef906020015b60405180910390a35050565b6000818310611db95781610a86565b5090919050565b6001600160a01b03821660009081526001602052604081208054839290611de8908490612320565b9250508190555080600080828254611e009190612320565b90915550506040518181526000906001600160a01b038416907fddf252ad1be2c89b69c2b068fc378daa952ba7f163c4a11628f55a4df523b3ef90602001611d9e565b6000611e586001600160a01b03841683611f3a565b90508051600014158015611e7d575080806020019051810190611e7b91906123f2565b155b15610bf757604051635274afe760e01b81526001600160a01b03841660048201526024016104d7565b600080608083901c15611ebb57608092831c92015b604083901c15611ecd57604092831c92015b602083901c15611edf57602092831c92015b601083901c15611ef157601092831c92015b600883901c15611f0357600892831c92015b600483901c15611f1557600492831c92015b600283901c15611f2757600292831c92015b600183901c156109fd5760010192915050565b6060610a868383600084600080856001600160a01b03168486604051611f609190612414565b60006040518083038185875af1925050503d8060008114611f9d576040519150601f19603f3d011682016040523d82523d6000602084013e611fa2565b606091505b5091509150611fb2868383611fbc565b9695505050505050565b606082611fd157611fcc82612018565b610a86565b8151158015611fe857506001600160a01b0384163b155b1561201157604051639996b31560e01b81526001600160a01b03851660048201526024016104d7565b5080610a86565b8051156120285780518082602001fd5b604051630a12f52160e11b815260040160405180910390fd5b50565b6001600160a01b038116811461204157600080fd5b60008060008060006080868803121561207157600080fd5b8535945060208601359350604086013561208a81612044565b9250606086013567ffffffffffffffff808211156120a757600080fd5b818801915088601f8301126120bb57600080fd5b8135818111156120ca57600080fd5b8960208285010111156120dc57600080fd5b9699959850939650602001949392505050565b60005b8381101561210a5781810151838201526020016120f2565b50506000910152565b60208152600082518060208401526121328160408501602087016120ef565b601f01601f19169190910160400192915050565b6000806040838503121561215957600080fd5b823561216481612044565b946020939093013593505050565b60008060006060848603121561218757600080fd5b833561219281612044565b925060208401356121a281612044565b929592945050506040919091013590565b6000602082840312156121c557600080fd5b8135610a8681612044565b600080600080600080600060e0888a0312156121eb57600080fd5b87356121f681612044565b9650602088013561220681612044565b95506040880135945060608801359350608088013560ff8116811461222a57600080fd5b9699959850939692959460a0840135945060c09093013592915050565b6000806040838503121561225a57600080fd5b823561226581612044565b9150602083013561227581612044565b809150509250929050565b6020808252600b908201526a135bd94e881313d0d2d15160aa1b604082015260600190565b60018060a01b038616815284602082015283604082015260806060820152816080820152818360a0830137600081830160a090810191909152601f909201601f19160101949350505050565b60006020828403121561230357600080fd5b5051919050565b634e487b7160e01b600052601160045260246000fd5b818103818111156109fd576109fd61230a565b80820281158282048414176109fd576109fd61230a565b60006020828403121561235c57600080fd5b8151610a8681612044565b634e487b7160e01b600052601260045260246000fd5b60008261239a57634e487b7160e01b600052601260045260246000fd5b500490565b6000600182016123b1576123b161230a565b5060010190565b808201808211156109fd576109fd61230a565b6001600160701b038281168282160390808211156123eb576123eb61230a565b5092915050565b60006020828403121561240457600080fd5b81518015158114610a8657600080fd5b600082516124268184602087016120ef565b919091019291505056fea2646970667358221220ad1848fdf23284e869fa1d1f92a6933e658a9288dd3a22abd16d98b82cc4dc5364736f6c63430008140033",
    "linkReferences": {}
  },
  "methodIdentifiers": {
    "DOMAIN_SEPARATOR()": "3644e515",
    "MINIMUM_LIQUIDITY()": "ba9a7a56",
    "PERMIT_TYPEHASH()": "30adf81f",
    "allowance(address,address)": "dd62ed3e",
    "approve(address,uint256)": "095ea7b3",
    "balanceOf(address)": "70a08231",
    "burn(address)": "89afcb44",
    "decimals()": "313ce567",
    "factory()": "c45a0155",
    "getReserves()": "0902f1ac",
    "implementation()": "5c60da1b",
    "initialize()": "8129fc1c",
    "kLast()": "7464fc3d",
    "mint(address)": "6a627842",
    "name()": "06fdde03",
    "nonces(address)": "7ecebe00",
    "permit(address,address,uint256,uint256,uint8,bytes32,bytes32)": "d505accf",
    "price0CumulativeLast()": "5909c0d5",
    "price1CumulativeLast()": "5a3d5493",
    "skim(address)": "bc25cf77",
    "swap(uint256,uint256,address,bytes)": "022c0d9f",
    "sweep(address,address,uint256)": "62c06767",
    "symbol()": "95d89b41",
    "sync()": "fff6cae9",
    "token0()": "0dfe1681",
    "token1()": "d21220a7",
    "totalSupply()": "18160ddd",
    "transfer(address,uint256)": "a9059cbb",
    "transferFrom(address,address,uint256)": "23b872dd"
  },
  "id": 68
}