{
  "abi": [
    {
      "inputs": [
        {
          "internalType": "contract IMoeStaking",
          "name": "moeStaking",
          "type": "address"
        },
        {
          "internalType": "contract IMasterChef",
          "name": "masterChef",
          "type": "address"
        },
        {
          "internalType": "contract IRewarderFactory",
          "name": "rewarderFactory",
          "type": "address"
        },
        {
          "internalType": "uint256",
          "name": "maxVeMoePerMoe",
          "type": "uint256"
        }
      ],
      "stateMutability": "nonpayable",
      "type": "constructor"
    },
    {
      "inputs": [],
      "name": "InvalidInitialization",
      "type": "error"
    },
    {
      "inputs": [],
      "name": "Math__UnderOverflow",
      "type": "error"
    },
    {
      "inputs": [],
      "name": "NotInitializing",
      "type": "error"
    },
    {
      "inputs": [
        {
          "internalType": "address",
          "name": "owner",
          "type": "address"
        }
      ],
      "name": "OwnableInvalidOwner",
      "type": "error"
    },
    {
      "inputs": [
        {
          "internalType": "address",
          "name": "account",
          "type": "address"
        }
      ],
      "name": "OwnableUnauthorizedAccount",
      "type": "error"
    },
    {
      "inputs": [],
      "name": "VeMoe__CannotUnstakeWithVotes",
      "type": "error"
    },
    {
      "inputs": [
        {
          "internalType": "uint256",
          "name": "pid",
          "type": "uint256"
        }
      ],
      "name": "VeMoe__DuplicatePoolId",
      "type": "error"
    },
    {
      "inputs": [
        {
          "internalType": "uint256",
          "name": "totalVeMoe",
          "type": "uint256"
        },
        {
          "internalType": "uint256",
          "name": "requiredVeMoe",
          "type": "uint256"
        }
      ],
      "name": "VeMoe__InsufficientVeMoe",
      "type": "error"
    },
    {
      "inputs": [],
      "name": "VeMoe__InvalidBribeAddress",
      "type": "error"
    },
    {
      "inputs": [],
      "name": "VeMoe__InvalidCaller",
      "type": "error"
    },
    {
      "inputs": [],
      "name": "VeMoe__InvalidLength",
      "type": "error"
    },
    {
      "inputs": [
        {
          "internalType": "uint256",
          "name": "pid",
          "type": "uint256"
        }
      ],
      "name": "VeMoe__InvalidPid",
      "type": "error"
    },
    {
      "inputs": [
        {
          "internalType": "uint256",
          "name": "pid",
          "type": "uint256"
        }
      ],
      "name": "VeMoe__NoBribeForPid",
      "type": "error"
    },
    {
      "inputs": [],
      "name": "VeMoe__TooManyPoolIds",
      "type": "error"
    },
    {
      "anonymous": false,
      "inputs": [
        {
          "indexed": true,
          "internalType": "address",
          "name": "account",
          "type": "address"
        },
        {
          "indexed": false,
          "internalType": "uint256[]",
          "name": "pids",
          "type": "uint256[]"
        },
        {
          "indexed": false,
          "internalType": "contract IVeMoeRewarder[]",
          "name": "bribes",
          "type": "address[]"
        }
      ],
      "name": "BribesSet",
      "type": "event"
    },
    {
      "anonymous": false,
      "inputs": [
        {
          "indexed": true,
          "internalType": "address",
          "name": "account",
          "type": "address"
        },
        {
          "indexed": false,
          "internalType": "int256",
          "name": "deltaVeMoe",
          "type": "int256"
        }
      ],
      "name": "Claim",
      "type": "event"
    },
    {
      "anonymous": false,
      "inputs": [
        {
          "indexed": false,
          "internalType": "uint64",
          "name": "version",
          "type": "uint64"
        }
      ],
      "name": "Initialized",
      "type": "event"
    },
    {
      "anonymous": false,
      "inputs": [
        {
          "indexed": true,
          "internalType": "address",
          "name": "previousOwner",
          "type": "address"
        },
        {
          "indexed": true,
          "internalType": "address",
          "name": "newOwner",
          "type": "address"
        }
      ],
      "name": "OwnershipTransferStarted",
      "type": "event"
    },
    {
      "anonymous": false,
      "inputs": [
        {
          "indexed": true,
          "internalType": "address",
          "name": "previousOwner",
          "type": "address"
        },
        {
          "indexed": true,
          "internalType": "address",
          "name": "newOwner",
          "type": "address"
        }
      ],
      "name": "OwnershipTransferred",
      "type": "event"
    },
    {
      "anonymous": false,
      "inputs": [
        {
          "indexed": false,
          "internalType": "uint256[]",
          "name": "topPoolIds",
          "type": "uint256[]"
        }
      ],
      "name": "TopPoolIdsSet",
      "type": "event"
    },
    {
      "anonymous": false,
      "inputs": [
        {
          "indexed": false,
          "internalType": "uint256",
          "name": "veMoePerSecondPerMoe",
          "type": "uint256"
        }
      ],
      "name": "VeMoePerSecondPerMoeSet",
      "type": "event"
    },
    {
      "anonymous": false,
      "inputs": [
        {
          "indexed": false,
          "internalType": "address",
          "name": "account",
          "type": "address"
        },
        {
          "indexed": false,
          "internalType": "uint256[]",
          "name": "pids",
          "type": "uint256[]"
        },
        {
          "indexed": false,
          "internalType": "int256[]",
          "name": "deltaVeAmounts",
          "type": "int256[]"
        }
      ],
      "name": "Vote",
      "type": "event"
    },
    {
      "inputs": [],
      "name": "acceptOwnership",
      "outputs": [],
      "stateMutability": "nonpayable",
      "type": "function"
    },
    {
      "inputs": [
        {
          "internalType": "address",
          "name": "account",
          "type": "address"
        }
      ],
      "name": "balanceOf",
      "outputs": [
        {
          "internalType": "uint256",
          "name": "veMoe",
          "type": "uint256"
        }
      ],
      "stateMutability": "view",
      "type": "function"
    },
    {
      "inputs": [
        {
          "internalType": "uint256[]",
          "name": "pids",
          "type": "uint256[]"
        }
      ],
      "name": "claim",
      "outputs": [],
      "stateMutability": "nonpayable",
      "type": "function"
    },
    {
      "inputs": [
        {
          "internalType": "uint256[]",
          "name": "pids",
          "type": "uint256[]"
        }
      ],
      "name": "emergencyUnsetBribes",
      "outputs": [],
      "stateMutability": "nonpayable",
      "type": "function"
    },
    {
      "inputs": [
        {
          "internalType": "address",
          "name": "account",
          "type": "address"
        },
        {
          "internalType": "uint256",
          "name": "pid",
          "type": "uint256"
        }
      ],
      "name": "getBribesOf",
      "outputs": [
        {
          "internalType": "contract IVeMoeRewarder",
          "name": "",
          "type": "address"
        }
      ],
      "stateMutability": "view",
      "type": "function"
    },
    {
      "inputs": [
        {
          "internalType": "contract IVeMoeRewarder",
          "name": "bribe",
          "type": "address"
        },
        {
          "internalType": "uint256",
          "name": "pid",
          "type": "uint256"
        }
      ],
      "name": "getBribesTotalVotes",
      "outputs": [
        {
          "internalType": "uint256",
          "name": "",
          "type": "uint256"
        }
      ],
      "stateMutability": "view",
      "type": "function"
    },
    {
      "inputs": [],
      "name": "getMasterChef",
      "outputs": [
        {
          "internalType": "contract IMasterChef",
          "name": "",
          "type": "address"
        }
      ],
      "stateMutability": "view",
      "type": "function"
    },
    {
      "inputs": [],
      "name": "getMaxVeMoePerMoe",
      "outputs": [
        {
          "internalType": "uint256",
          "name": "",
          "type": "uint256"
        }
      ],
      "stateMutability": "view",
      "type": "function"
    },
    {
      "inputs": [],
      "name": "getMoeStaking",
      "outputs": [
        {
          "internalType": "contract IMoeStaking",
          "name": "",
          "type": "address"
        }
      ],
      "stateMutability": "view",
      "type": "function"
    },
    {
      "inputs": [
        {
          "internalType": "address",
          "name": "account",
          "type": "address"
        },
        {
          "internalType": "uint256[]",
          "name": "pids",
          "type": "uint256[]"
        }
      ],
      "name": "getPendingRewards",
      "outputs": [
        {
          "internalType": "contract IERC20[]",
          "name": "tokens",
          "type": "address[]"
        },
        {
          "internalType": "uint256[]",
          "name": "pendingRewards",
          "type": "uint256[]"
        }
      ],
      "stateMutability": "view",
      "type": "function"
    },
    {
      "inputs": [],
      "name": "getRewarderFactory",
      "outputs": [
        {
          "internalType": "contract IRewarderFactory",
          "name": "",
          "type": "address"
        }
      ],
      "stateMutability": "view",
      "type": "function"
    },
    {
      "inputs": [],
      "name": "getTopPidsTotalVotes",
      "outputs": [
        {
          "internalType": "uint256",
          "name": "",
          "type": "uint256"
        }
      ],
      "stateMutability": "view",
      "type": "function"
    },
    {
      "inputs": [],
      "name": "getTopPoolIds",
      "outputs": [
        {
          "internalType": "uint256[]",
          "name": "",
          "type": "uint256[]"
        }
      ],
      "stateMutability": "view",
      "type": "function"
    },
    {
      "inputs": [],
      "name": "getTotalVotes",
      "outputs": [
        {
          "internalType": "uint256",
          "name": "",
          "type": "uint256"
        }
      ],
      "stateMutability": "view",
      "type": "function"
    },
    {
      "inputs": [
        {
          "internalType": "address",
          "name": "account",
          "type": "address"
        }
      ],
      "name": "getTotalVotesOf",
      "outputs": [
        {
          "internalType": "uint256",
          "name": "",
          "type": "uint256"
        }
      ],
      "stateMutability": "view",
      "type": "function"
    },
    {
      "inputs": [],
      "name": "getVeMoePerSecondPerMoe",
      "outputs": [
        {
          "internalType": "uint256",
          "name": "",
          "type": "uint256"
        }
      ],
      "stateMutability": "view",
      "type": "function"
    },
    {
      "inputs": [
        {
          "internalType": "uint256",
          "name": "pid",
          "type": "uint256"
        }
      ],
      "name": "getVotes",
      "outputs": [
        {
          "internalType": "uint256",
          "name": "",
          "type": "uint256"
        }
      ],
      "stateMutability": "view",
      "type": "function"
    },
    {
      "inputs": [
        {
          "internalType": "address",
          "name": "account",
          "type": "address"
        },
        {
          "internalType": "uint256",
          "name": "pid",
          "type": "uint256"
        }
      ],
      "name": "getVotesOf",
      "outputs": [
        {
          "internalType": "uint256",
          "name": "",
          "type": "uint256"
        }
      ],
      "stateMutability": "view",
      "type": "function"
    },
    {
      "inputs": [
        {
          "internalType": "address",
          "name": "initialOwner",
          "type": "address"
        }
      ],
      "name": "initialize",
      "outputs": [],
      "stateMutability": "nonpayable",
      "type": "function"
    },
    {
      "inputs": [
        {
          "internalType": "uint256",
          "name": "pid",
          "type": "uint256"
        }
      ],
      "name": "isInTopPoolIds",
      "outputs": [
        {
          "internalType": "bool",
          "name": "",
          "type": "bool"
        }
      ],
      "stateMutability": "view",
      "type": "function"
    },
    {
      "inputs": [
        {
          "internalType": "address",
          "name": "account",
          "type": "address"
        },
        {
          "internalType": "uint256",
          "name": "oldBalance",
          "type": "uint256"
        },
        {
          "internalType": "uint256",
          "name": "newBalance",
          "type": "uint256"
        },
        {
          "internalType": "uint256",
          "name": "",
          "type": "uint256"
        },
        {
          "internalType": "uint256",
          "name": "",
          "type": "uint256"
        }
      ],
      "name": "onModify",
      "outputs": [],
      "stateMutability": "nonpayable",
      "type": "function"
    },
    {
      "inputs": [],
      "name": "owner",
      "outputs": [
        {
          "internalType": "address",
          "name": "",
          "type": "address"
        }
      ],
      "stateMutability": "view",
      "type": "function"
    },
    {
      "inputs": [],
      "name": "pendingOwner",
      "outputs": [
        {
          "internalType": "address",
          "name": "",
          "type": "address"
        }
      ],
      "stateMutability": "view",
      "type": "function"
    },
    {
      "inputs": [],
      "name": "renounceOwnership",
      "outputs": [],
      "stateMutability": "nonpayable",
      "type": "function"
    },
    {
      "inputs": [
        {
          "internalType": "uint256[]",
          "name": "pids",
          "type": "uint256[]"
        },
        {
          "internalType": "contract IVeMoeRewarder[]",
          "name": "bribes",
          "type": "address[]"
        }
      ],
      "name": "setBribes",
      "outputs": [],
      "stateMutability": "nonpayable",
      "type": "function"
    },
    {
      "inputs": [
        {
          "internalType": "uint256[]",
          "name": "pids",
          "type": "uint256[]"
        }
      ],
      "name": "setTopPoolIds",
      "outputs": [],
      "stateMutability": "nonpayable",
      "type": "function"
    },
    {
      "inputs": [
        {
          "internalType": "uint256",
          "name": "veMoePerSecondPerMoe",
          "type": "uint256"
        }
      ],
      "name": "setVeMoePerSecondPerMoe",
      "outputs": [],
      "stateMutability": "nonpayable",
      "type": "function"
    },
    {
      "inputs": [
        {
          "internalType": "address",
          "name": "newOwner",
          "type": "address"
        }
      ],
      "name": "transferOwnership",
      "outputs": [],
      "stateMutability": "nonpayable",
      "type": "function"
    },
    {
      "inputs": [
        {
          "internalType": "uint256[]",
          "name": "pids",
          "type": "uint256[]"
        },
        {
          "internalType": "int256[]",
          "name": "deltaAmounts",
          "type": "int256[]"
        }
      ],
      "name": "vote",
      "outputs": [],
      "stateMutability": "nonpayable",
      "type": "function"
    }
  ],
  "bytecode": {
    "object": "0x6101006040523480156200001257600080fd5b50604051620029643803806200296483398101604081905262000035916200012c565b6200003f62000062565b6001600160a01b0393841660805291831660a05290911660c05260e05262000186565b7ff0c57e16840df040f15088dc2f81fe391c3923bec73e23a9662efc9c229c6a00805468010000000000000000900460ff1615620000b35760405163f92ee8a960e01b815260040160405180910390fd5b80546001600160401b0390811614620001135780546001600160401b0319166001600160401b0390811782556040519081527fc7f505b2f371ae2175ee4913f4499e1f2633a7b5936321eed1cdaeb6115181d29060200160405180910390a15b50565b6001600160a01b03811681146200011357600080fd5b600080600080608085870312156200014357600080fd5b8451620001508162000116565b6020860151909450620001638162000116565b6040860151909350620001768162000116565b6060959095015193969295505050565b60805160a05160c05160e051612765620001ff600039600081816103620152611bd20152600081816102c501526111ab0152600081816103ce0152818161065f015281816106e3015281816108f201526109880152600081816103190152818161079801528181610f07015261102601526127656000f3fe608060405234801561001057600080fd5b50600436106101cf5760003560e01c8063870b50fd11610104578063b5644963116100a2578063e30c397811610071578063e30c39781461042d578063e720e48314610435578063f2fde38b1461046b578063ff9810991461047e57600080fd5b8063b5644963146103cc578063c4d66de8146103f2578063e1e4d41914610405578063e21e41461461041a57600080fd5b8063889e6072116100de578063889e6072146103865780638da5cb5b146103a95780639a0e7d66146103b1578063af2a73f5146103b957600080fd5b8063870b50fd146103455780638761e7fb14610358578063888ed79e1461036057600080fd5b8063566aff6a1161017157806370a082311161014b57806370a08231146102fc578063715018a61461030f57806372f148b81461031757806379ba50971461033d57600080fd5b8063566aff6a146102a25780635c4323ab146102c35780636ba4c138146102e957600080fd5b80632f4f7fbb116101ad5780632f4f7fbb1461026157806347eaa2b4146102745780634f913d3414610287578063518ab0d01461028f57600080fd5b806307532f56146101d457806308ada2ed146101fa5780631befbe361461020f575b600080fd5b6101e76101e23660046121a3565b610491565b6040519081526020015b60405180910390f35b61020d61020836600461221b565b6104bf565b005b61024961021d3660046121a3565b6001600160a01b0391821660009081526009602090815260408083209383526003909301905220541690565b6040516001600160a01b0390911681526020016101f1565b61020d61026f36600461225d565b61063b565b61020d61028236600461221b565b6108b0565b6003546101e7565b6101e761029d3660046122c9565b610b0b565b6102b56102b03660046122e6565b610b2c565b6040516101f1929190612376565b7f0000000000000000000000000000000000000000000000000000000000000000610249565b61020d6102f736600461221b565b610d33565b6101e761030a3660046122c9565b610ed1565b61020d610fbf565b7f0000000000000000000000000000000000000000000000000000000000000000610249565b61020d610fd3565b61020d6103533660046123cc565b61101b565b6000546101e7565b7f00000000000000000000000000000000000000000000000000000000000000006101e7565b610399610394366004612410565b611076565b60405190151581526020016101f1565b610249611083565b6101e76110b8565b61020d6103c736600461225d565b6110c8565b7f0000000000000000000000000000000000000000000000000000000000000000610249565b61020d6104003660046122c9565b6115be565b61040d6116e2565b6040516101f19190612429565b61020d610428366004612410565b6116ee565b61024961175d565b6101e76104433660046121a3565b6001600160a01b03919091166000908152600a60209081526040808320938352929052205490565b61020d6104793660046122c9565b611786565b6101e761048c366004612410565b61180b565b6001600160a01b03821660009081526009602052604081206104b69060010183611814565b90505b92915050565b336000908152600960205260408120905b828110156105b75760008484838181106104ec576104ec61243c565b60209081029290920135600081815260038701909352604090922054919250506001600160a01b03168061053b5760405163bd959ca760e01b8152600481018390526024015b60405180910390fd5b600061054a6001860184611814565b6001600160a01b0383166000908152600a60209081526040808320878452909152812080549293508392909190610582908490612468565b909155505050600091825250600383016020526040902080546001600160a01b03191690556105b08161247b565b90506104d0565b50337f3fc3eae11c26578aac7a474672c345ee287e2859e213535ebc95ee1cc903798184848067ffffffffffffffff8111156105f5576105f5612494565b60405190808252806020026020018201604052801561061e578160200160208202803683370190505b5060405161062e939291906124f5565b60405180910390a2505050565b82811461065b576040516371af99ab60e11b815260040160405180910390fd5b60007f00000000000000000000000000000000000000000000000000000000000000006001600160a01b031663c7a617836040518163ffffffff1660e01b8152600401602060405180830381865afa1580156106bb573d6000803e3d6000fd5b505050506040513d601f19601f820116820180604052508101906106df9190612557565b90507f00000000000000000000000000000000000000000000000000000000000000006001600160a01b03166304093c5b61071a600161182a565b6040518263ffffffff1660e01b81526004016107369190612429565b600060405180830381600087803b15801561075057600080fd5b505af1158015610764573d6000803e3d6000fd5b5050336000818152600960205260408082209051637092a7dd60e11b81526004810193909352935091506001600160a01b037f0000000000000000000000000000000000000000000000000000000000000000169063e1254fba90602401602060405180830381865afa1580156107df573d6000803e3d6000fd5b505050506040513d601f19601f820116820180604052508101906108039190612557565b905061081033828361183e565b60005b8681101561086757610857838989848181106108315761083161243c565b9050602002013588888581811061084a5761084a61243c565b90506020020135876118e4565b6108608161247b565b9050610813565b507f3fcfd6369a124d94ed3356cce74c59840354822057e95889c108c6119ab7f49c338888888860405161089f959493929190612570565b60405180910390a150505050505050565b6108b8611aeb565b8060208111156108db576040516384c066d960e01b815260040160405180910390fd5b6040516304093c5b60e01b81526001600160a01b037f000000000000000000000000000000000000000000000000000000000000000016906304093c5b9061092990869086906004016125d0565b600060405180830381600087803b15801561094357600080fd5b505af1158015610957573d6000803e3d6000fd5b505050506000610967600161182a565b805190915015610a39576040516304093c5b60e01b81526001600160a01b037f000000000000000000000000000000000000000000000000000000000000000016906304093c5b906109bd908490600401612429565b600060405180830381600087803b1580156109d757600080fd5b505af11580156109eb573d6000803e3d6000fd5b505082519150505b8015610a3757610a3182610a06836125ec565b92508281518110610a1957610a1961243c565b60200260200101516001611b1d90919063ffffffff16565b506109f3565b505b6000805b83811015610ac4576000868683818110610a5957610a5961243c565b905060200201359050610a76816001611b2990919063ffffffff16565b610a9657604051637e716dfd60e11b815260048101829052602401610532565b6000610aa3600783611814565b9050610aaf8185612603565b9350505080610abd9061247b565b9050610a3d565b5060008190556040517f6a1be1056a891d625c5573d1a185d3f9d5e06e223f7570493778debf491c037390610afc90879087906125d0565b60405180910390a15050505050565b6001600160a01b0381166000908152600960205260408120600101546104b9565b606080828067ffffffffffffffff811115610b4957610b49612494565b604051908082528060200260200182016040528015610b72578160200160208202803683370190505b5092508067ffffffffffffffff811115610b8e57610b8e612494565b604051908082528060200260200182016040528015610bb7578160200160208202803683370190505b506001600160a01b03871660009081526009602052604081209193505b82811015610d28576000878783818110610bf057610bf061243c565b60209081029290920135600081815260038701909352604090922054919250506001600160a01b03168015610d15576000610c2e6001860184611814565b6001600160a01b038381166000818152600a602090815260408083208984529091529081902054905163c718325160e01b8152928f16600484015260248301849052604483018190529293509063c7183251906064016040805180830381865afa158015610ca0573d6000803e3d6000fd5b505050506040513d601f19601f82011682018060405250810190610cc49190612616565b8a8781518110610cd657610cd661243c565b602002602001018a8881518110610cef57610cef61243c565b6020026020010182815250826001600160a01b03166001600160a01b0316815250505050505b505080610d219061247b565b9050610bd4565b505050935093915050565b336000908152600960205260408120905b82811015610ecb576000848483818110610d6057610d6061243c565b3360009081526009602090815260408083209382029590950135808352600390930190529290922054919250506001600160a01b03168015610eb8576000610dab6001860184611814565b6001600160a01b0383166000818152600a6020908152604080832088845290915280822054905163870b50fd60e01b8152336004820152602481018890526044810185905260648101859052608481018290529394509290919063870b50fd9060a4016020604051808303816000875af1158015610e2d573d6000803e3d6000fd5b505050506040513d601f19601f82011682018060405250810190610e519190612557565b604051635569f64b60e11b8152336004820152602481018290529091506001600160a01b0385169063aad3ec9690604401600060405180830381600087803b158015610e9c57600080fd5b505af1158015610eb0573d6000803e3d6000fd5b505050505050505b505080610ec49061247b565b9050610d44565b50505050565b6001600160a01b038181166000818152600960205260408082209051637092a7dd60e11b815260048101939093529092909183917f0000000000000000000000000000000000000000000000000000000000000000169063e1254fba90602401602060405180830381865afa158015610f4e573d6000803e3d6000fd5b505050506040513d601f19601f82011682018060405250810190610f729190612557565b90506000610f8c6003546004611b3590919063ffffffff16565b90506000610fa660048785670de0b6b3a764000086611b42565b9050610fb484848584611ba8565b509695505050505050565b610fc7611aeb565b610fd16000611c6a565b565b3380610fdd61175d565b6001600160a01b03161461100f5760405163118cdaa760e01b81526001600160a01b0382166004820152602401610532565b61101881611c6a565b50565b336001600160a01b037f000000000000000000000000000000000000000000000000000000000000000016146110645760405163f74fc43360e01b815260040160405180910390fd5b61106f85858561183e565b5050505050565b60006104b9600183611ca6565b6000807f9016d09d72d40fdae2fd8ceac6b6234c7706214fd39c1cd1e609a0528c1993005b546001600160a01b031692915050565b60006110c360075490565b905090565b8281146110e8576040516371af99ab60e11b815260040160405180910390fd5b336000908152600960205260408120905b8481101561156f5760008686838181106111155761111561243c565b90506020020135905060008585848181106111325761113261243c565b905060200201602081019061114791906122c9565b60008381526003860160205260409020549091506001600160a01b0390811690821681036111775750505061155f565b6001600160a01b0382161580159061122a57506002604051634f4ee65b60e11b81526001600160a01b0384811660048301527f00000000000000000000000000000000000000000000000000000000000000001690639e9dccb690602401602060405180830381865afa1580156111f2573d6000803e3d6000fd5b505050506040513d601f19601f82011682018060405250810190611216919061265a565b600381111561122757611227612644565b14155b156112485760405163f070a1f760e01b815260040160405180910390fd5b60006112576001870185611814565b6000858152600388016020526040812080546001600160a01b0319166001600160a01b03878116919091179091559192509081908416156112e7576001600160a01b0384166000908152600a6020908152604080832089845290915290205491506112c28383612468565b6001600160a01b0385166000908152600a602090815260408083208a84529091529020555b6001600160a01b0385161561134a57506001600160a01b0384166000908152600a602090815260408083208884529091529020546113258382612603565b6001600160a01b0386166000908152600a602090815260408083208a84529091529020555b60006001600160a01b0386166113615760006113e7565b60405163870b50fd60e01b8152336004820152602481018890526000604482015260648101859052608481018390526001600160a01b0387169063870b50fd9060a4016020604051808303816000875af11580156113c3573d6000803e3d6000fd5b505050506040513d601f19601f820116820180604052508101906113e79190612557565b905060006001600160a01b038616611400576000611486565b60405163870b50fd60e01b8152336004820152602481018990526044810186905260006064820152608481018590526001600160a01b0387169063870b50fd9060a4016020604051808303816000875af1158015611462573d6000803e3d6000fd5b505050506040513d601f19601f820116820180604052508101906114869190612557565b905081156114ef57604051635569f64b60e11b8152336004820152602481018390526001600160a01b0388169063aad3ec9690604401600060405180830381600087803b1580156114d657600080fd5b505af11580156114ea573d6000803e3d6000fd5b505050505b801561155657604051635569f64b60e11b8152336004820152602481018290526001600160a01b0387169063aad3ec9690604401600060405180830381600087803b15801561153d57600080fd5b505af1158015611551573d6000803e3d6000fd5b505050505b50505050505050505b6115688161247b565b90506110f9565b50336001600160a01b03167f3fc3eae11c26578aac7a474672c345ee287e2859e213535ebc95ee1cc9037981868686866040516115af949392919061267b565b60405180910390a25050505050565b7ff0c57e16840df040f15088dc2f81fe391c3923bec73e23a9662efc9c229c6a00805468010000000000000000810460ff16159067ffffffffffffffff166000811580156116095750825b905060008267ffffffffffffffff1660011480156116265750303b155b905081158015611634575080155b156116525760405163f92ee8a960e01b815260040160405180910390fd5b845467ffffffffffffffff19166001178555831561168657845468ff00000000000000001916680100000000000000001785555b61168f86611cbe565b83156116da57845468ff000000000000000019168555604051600181527fc7f505b2f371ae2175ee4913f4499e1f2633a7b5936321eed1cdaeb6115181d29060200160405180910390a15b505050505050565b60606110c3600161182a565b6116f6611aeb565b611721670de0b6b3a76400006117186003546004611b3590919063ffffffff16565b60049190611ccf565b5060038190556040518181527fa642a95837e5219f0719446e8dbc21c5ba557241cb65cd2ff3d411adb45bb94b9060200160405180910390a150565b6000807f237e158222e3e6968b72b9db0d8043aacf074ad9f650f0d1606b4d82ee432c006110a8565b61178e611aeb565b7f237e158222e3e6968b72b9db0d8043aacf074ad9f650f0d1606b4d82ee432c0080546001600160a01b0319166001600160a01b03831690811782556117d2611083565b6001600160a01b03167f38d16b8cac22d99fc7c124b9cd0de2d3fa1faef420bfe791d8c362d765e2270060405160405180910390a35050565b60006104b96007835b60008181526001830160205260408120546104b6565b6060600061183783611d20565b9392505050565b6001600160a01b038316600090815260096020526040812060035490919061186890600490611b35565b905060006118836004878787670de0b6b3a764000087611d7c565b905060008061189485888886611ba8565b81875560405181815291935091506001600160a01b038916907fc1de1e7006f734e05946fe01d9535dbcb496877ff6f378def8c705b65540cbe69060200160405180910390a25050505050505050565b80831061190757604051630e491bd960e01b815260048101849052602401610532565b60008080611919600188018787611e00565b8a5493965091945090925050808211156119505760405163066c0de360e41b81526004810182905260248101839052604401610532565b61195c60078888611e00565b50505050611974876001611ca690919063ffffffff16565b1561198a576000546119869087611e22565b6000555b60008781526003890160205260409020546001600160a01b03168015611ae0576001600160a01b0381166000908152600a602090815260408083208b84529091529020546119d88189611e22565b6001600160a01b0383166000818152600a602090815260408083208e845290915280822093909355915163870b50fd60e01b8152336004820152602481018c905260448101899052606481018890526084810184905263870b50fd9060a4016020604051808303816000875af1158015611a56573d6000803e3d6000fd5b505050506040513d601f19601f82011682018060405250810190611a7a9190612557565b604051635569f64b60e11b8152336004820152602481018290529091506001600160a01b0384169063aad3ec9690604401600060405180830381600087803b158015611ac557600080fd5b505af1158015611ad9573d6000803e3d6000fd5b5050505050505b505050505050505050565b33611af4611083565b6001600160a01b031614610fd15760405163118cdaa760e01b8152336004820152602401610532565b60006104b68383611e5e565b60006104b68383611f51565b60006104b6838342611fa0565b600080611b4f8484611fd5565b8760010154611b5e9190612603565b90508415611b9a576001600160a01b0386166000908152600288016020526040902054611b8b8287611ff9565b611b959190612468565b611b9d565b60005b979650505050505050565b83546000908190858510611c1a57611bc08482612603565b92506000670de0b6b3a7640000611bf77f0000000000000000000000000000000000000000000000000000000000000000896126e0565b611c0191906126f7565b9050808411611c105783611c12565b805b935050611c4b565b6000611c27886001015490565b1115611c465760405163fe73bb2560e01b815260040160405180910390fd5b600092505b611c5481612010565b611c5d84612010565b0391505094509492505050565b7f237e158222e3e6968b72b9db0d8043aacf074ad9f650f0d1606b4d82ee432c0080546001600160a01b0319168155611ca28261203e565b5050565b600081815260018301602052604081205415156104b6565b611cc66120af565b611018816120fd565b600080611cdc8484611fd5565b8554909150421115611cec574285555b8015611d115780856001016000828254611d069190612603565b925050819055611d17565b84600101545b95945050505050565b606081600001805480602002602001604051908101604052809291908181526020018280548015611d7057602002820191906000526020600020905b815481526020019060010190808311611d5c575b50505050509050919050565b600080611d8a888585611ccf565b90508515611dc6576001600160a01b0387166000908152600289016020526040902054611db78288611ff9565b611dc19190612468565b611dc9565b60005b9150611dd58186611ff9565b6001600160a01b03909716600090815260029098016020525060409096209490945550929392505050565b6000808080611e1087878761212f565b93509350935093505b93509350935093565b8181016001600160ff1b0380841190821117156000819003611e57576040516308a942bb60e11b815260040160405180910390fd5b5092915050565b60008181526001830160205260408120548015611f47576000611e82600183612468565b8554909150600090611e9690600190612468565b9050808214611efb576000866000018281548110611eb657611eb661243c565b9060005260206000200154905080876000018481548110611ed957611ed961243c565b6000918252602080832090910192909255918252600188019052604090208390555b8554869080611f0c57611f0c612719565b6001900381819060005260206000200160009055905585600101600086815260200190815260200160002060009055600193505050506104b9565b60009150506104b9565b6000818152600183016020526040812054611f98575081546001818101845560008481526020808220909301849055845484825282860190935260409020919091556104b9565b5060006104b9565b825460009081428410611fb35742611fb5565b835b9050808211611fc8578482820302611fcb565b60005b9695505050505050565b60008215611ff057611feb83604084901b6126f7565b6104b6565b50600092915050565b6000604061200784846126e0565b901c9392505050565b60006001600160ff1b0382111561203a576040516308a942bb60e11b815260040160405180910390fd5b5090565b7f9016d09d72d40fdae2fd8ceac6b6234c7706214fd39c1cd1e609a0528c19930080546001600160a01b031981166001600160a01b03848116918217845560405192169182907f8be0079c531659141344cd1fd0a4f28419497f9722a3daafe3b4186f6b6457e090600090a3505050565b7ff0c57e16840df040f15088dc2f81fe391c3923bec73e23a9662efc9c229c6a005468010000000000000000900460ff16610fd157604051631afcd79f60e31b815260040160405180910390fd5b6121056120af565b6001600160a01b03811661100f57604051631e4fbdf760e01b815260006004820152602401610532565b6000828152600184016020526040812054845490919081848103612157575082915080611e19565b6121618486611e22565b925061216d8286611e22565b60008781526001890160205260409020849055808855905093509350935093565b6001600160a01b038116811461101857600080fd5b600080604083850312156121b657600080fd5b82356121c18161218e565b946020939093013593505050565b60008083601f8401126121e157600080fd5b50813567ffffffffffffffff8111156121f957600080fd5b6020830191508360208260051b850101111561221457600080fd5b9250929050565b6000806020838503121561222e57600080fd5b823567ffffffffffffffff81111561224557600080fd5b612251858286016121cf565b90969095509350505050565b6000806000806040858703121561227357600080fd5b843567ffffffffffffffff8082111561228b57600080fd5b612297888389016121cf565b909650945060208701359150808211156122b057600080fd5b506122bd878288016121cf565b95989497509550505050565b6000602082840312156122db57600080fd5b81356118378161218e565b6000806000604084860312156122fb57600080fd5b83356123068161218e565b9250602084013567ffffffffffffffff81111561232257600080fd5b61232e868287016121cf565b9497909650939450505050565b600081518084526020808501945080840160005b8381101561236b5781518752958201959082019060010161234f565b509495945050505050565b604080825283519082018190526000906020906060840190828701845b828110156123b85781516001600160a01b031684529284019290840190600101612393565b50505083810382850152611fcb818661233b565b600080600080600060a086880312156123e457600080fd5b85356123ef8161218e565b97602087013597506040870135966060810135965060800135945092505050565b60006020828403121561242257600080fd5b5035919050565b6020815260006104b6602083018461233b565b634e487b7160e01b600052603260045260246000fd5b634e487b7160e01b600052601160045260246000fd5b818103818111156104b9576104b9612452565b60006001820161248d5761248d612452565b5060010190565b634e487b7160e01b600052604160045260246000fd5b81835260007f07ffffffffffffffffffffffffffffffffffffffffffffffffffffffffffffff8311156124dc57600080fd5b8260051b80836020870137939093016020019392505050565b6040815260006125096040830185876124aa565b82810360208481019190915284518083528582019282019060005b818110156125495784516001600160a01b031683529383019391830191600101612524565b509098975050505050505050565b60006020828403121561256957600080fd5b5051919050565b6001600160a01b0386168152600060206060818401526125946060840187896124aa565b83810360408501528481528590820160005b868110156125c2578235825291830191908301906001016125a6565b509998505050505050505050565b6020815260006125e46020830184866124aa565b949350505050565b6000816125fb576125fb612452565b506000190190565b808201808211156104b9576104b9612452565b6000806040838503121561262957600080fd5b82516126348161218e565b6020939093015192949293505050565b634e487b7160e01b600052602160045260246000fd5b60006020828403121561266c57600080fd5b81516004811061183757600080fd5b60408152600061268f6040830186886124aa565b8281036020848101919091528482528591810160005b868110156126d35783356126b88161218e565b6001600160a01b0316825292820192908201906001016126a5565b5098975050505050505050565b80820281158282048414176104b9576104b9612452565b60008261271457634e487b7160e01b600052601260045260246000fd5b500490565b634e487b7160e01b600052603160045260246000fdfea2646970667358221220383616855cd7c7fc5c21539ef72cfaee2b17e1c06a046580d7e324c3faa025f664736f6c63430008140033",
    "linkReferences": {}
  },
  "methodIdentifiers": {
    "acceptOwnership()": "79ba5097",
    "balanceOf(address)": "70a08231",
    "claim(uint256[])": "6ba4c138",
    "emergencyUnsetBribes(uint256[])": "08ada2ed",
    "getBribesOf(address,uint256)": "1befbe36",
    "getBribesTotalVotes(address,uint256)": "e720e483",
    "getMasterChef()": "b5644963",
    "getMaxVeMoePerMoe()": "888ed79e",
    "getMoeStaking()": "72f148b8",
    "getPendingRewards(address,uint256[])": "566aff6a",
    "getRewarderFactory()": "5c4323ab",
    "getTopPidsTotalVotes()": "8761e7fb",
    "getTopPoolIds()": "e1e4d419",
    "getTotalVotes()": "9a0e7d66",
    "getTotalVotesOf(address)": "518ab0d0",
    "getVeMoePerSecondPerMoe()": "4f913d34",
    "getVotes(uint256)": "ff981099",
    "getVotesOf(address,uint256)": "07532f56",
    "initialize(address)": "c4d66de8",
    "isInTopPoolIds(uint256)": "889e6072",
    "onModify(address,uint256,uint256,uint256,uint256)": "870b50fd",
    "owner()": "8da5cb5b",
    "pendingOwner()": "e30c3978",
    "renounceOwnership()": "715018a6",
    "setBribes(uint256[],address[])": "af2a73f5",
    "setTopPoolIds(uint256[])": "47eaa2b4",
    "setVeMoePerSecondPerMoe(uint256)": "e21e4146",
    "transferOwnership(address)": "f2fde38b",
    "vote(uint256[],int256[])": "2f4f7fbb"
  },
  "id": 64
}