{"abi":[{"type":"constructor","inputs":[{"name":"moeStaking","type":"address","internalType":"contract IMoeStaking"},{"name":"masterChef","type":"address","internalType":"contract IMasterChef"},{"name":"rewarderFactory","type":"address","internalType":"contract IRewarderFactory"},{"name":"maxVeMoePerMoe","type":"uint256","internalType":"uint256"}],"stateMutability":"nonpayable"},{"type":"function","name":"acceptOwnership","inputs":[],"outputs":[],"stateMutability":"nonpayable"},{"type":"function","name":"balanceOf","inputs":[{"name":"account","type":"address","internalType":"address"}],"outputs":[{"name":"veMoe","type":"uint256","internalType":"uint256"}],"stateMutability":"view"},{"type":"function","name":"claim","inputs":[{"name":"pids","type":"uint256[]","internalType":"uint256[]"}],"outputs":[],"stateMutability":"nonpayable"},{"type":"function","name":"emergencyUnsetBribes","inputs":[{"name":"pids","type":"uint256[]","internalType":"uint256[]"}],"outputs":[],"stateMutability":"nonpayable"},{"type":"function","name":"getBribesOf","inputs":[{"name":"account","type":"address","internalType":"address"},{"name":"pid","type":"uint256","internalType":"uint256"}],"outputs":[{"name":"","type":"address","internalType":"contract IVeMoeRewarder"}],"stateMutability":"view"},{"type":"function","name":"getBribesTotalVotes","inputs":[{"name":"bribe","type":"address","internalType":"contract IVeMoeRewarder"},{"name":"pid","type":"uint256","internalType":"uint256"}],"outputs":[{"name":"","type":"uint256","internalType":"uint256"}],"stateMutability":"view"},{"type":"function","name":"getMasterChef","inputs":[],"outputs":[{"name":"","type":"address","internalType":"contract IMasterChef"}],"stateMutability":"view"},{"type":"function","name":"getMaxVeMoePerMoe","inputs":[],"outputs":[{"name":"","type":"uint256","internalType":"uint256"}],"stateMutability":"view"},{"type":"function","name":"getMoeStaking","inputs":[],"outputs":[{"name":"","type":"address","internalType":"contract IMoeStaking"}],"stateMutability":"view"},{"type":"function","name":"getPendingRewards","inputs":[{"name":"account","type":"address","internalType":"address"},{"name":"pids","type":"uint256[]","internalType":"uint256[]"}],"outputs":[{"name":"tokens","type":"address[]","internalType":"contract IERC20[]"},{"name":"pendingRewards","type":"uint256[]","internalType":"uint256[]"}],"stateMutability":"view"},{"type":"function","name":"getRewarderFactory","inputs":[],"outputs":[{"name":"","type":"address","internalType":"contract IRewarderFactory"}],"stateMutability":"view"},{"type":"function","name":"getTopPidsTotalVotes","inputs":[],"outputs":[{"name":"","type":"uint256","internalType":"uint256"}],"stateMutability":"view"},{"type":"function","name":"getTopPoolIds","inputs":[],"outputs":[{"name":"","type":"uint256[]","internalType":"uint256[]"}],"stateMutability":"view"},{"type":"function","name":"getTotalVotes","inputs":[],"outputs":[{"name":"","type":"uint256","internalType":"uint256"}],"stateMutability":"view"},{"type":"function","name":"getTotalVotesOf","inputs":[{"name":"account","type":"address","internalType":"address"}],"outputs":[{"name":"","type":"uint256","internalType":"uint256"}],"stateMutability":"view"},{"type":"function","name":"getVeMoePerSecondPerMoe","inputs":[],"outputs":[{"name":"","type":"uint256","internalType":"uint256"}],"stateMutability":"view"},{"type":"function","name":"getVotes","inputs":[{"name":"pid","type":"uint256","internalType":"uint256"}],"outputs":[{"name":"","type":"uint256","internalType":"uint256"}],"stateMutability":"view"},{"type":"function","name":"getVotesOf","inputs":[{"name":"account","type":"address","internalType":"address"},{"name":"pid","type":"uint256","internalType":"uint256"}],"outputs":[{"name":"","type":"uint256","internalType":"uint256"}],"stateMutability":"view"},{"type":"function","name":"initialize","inputs":[{"name":"initialOwner","type":"address","internalType":"address"}],"outputs":[],"stateMutability":"nonpayable"},{"type":"function","name":"isInTopPoolIds","inputs":[{"name":"pid","type":"uint256","internalType":"uint256"}],"outputs":[{"name":"","type":"bool","internalType":"bool"}],"stateMutability":"view"},{"type":"function","name":"onModify","inputs":[{"name":"account","type":"address","internalType":"address"},{"name":"oldBalance","type":"uint256","internalType":"uint256"},{"name":"newBalance","type":"uint256","internalType":"uint256"},{"name":"","type":"uint256","internalType":"uint256"},{"name":"","type":"uint256","internalType":"uint256"}],"outputs":[],"stateMutability":"nonpayable"},{"type":"function","name":"owner","inputs":[],"outputs":[{"name":"","type":"address","internalType":"address"}],"stateMutability":"view"},{"type":"function","name":"pendingOwner","inputs":[],"outputs":[{"name":"","type":"address","internalType":"address"}],"stateMutability":"view"},{"type":"function","name":"renounceOwnership","inputs":[],"outputs":[],"stateMutability":"pure"},{"type":"function","name":"setBribes","inputs":[{"name":"pids","type":"uint256[]","internalType":"uint256[]"},{"name":"bribes","type":"address[]","internalType":"contract IVeMoeRewarder[]"}],"outputs":[],"stateMutability":"nonpayable"},{"type":"function","name":"setTopPoolIds","inputs":[{"name":"pids","type":"uint256[]","internalType":"uint256[]"}],"outputs":[],"stateMutability":"nonpayable"},{"type":"function","name":"setVeMoePerSecondPerMoe","inputs":[{"name":"veMoePerSecondPerMoe","type":"uint256","internalType":"uint256"}],"outputs":[],"stateMutability":"nonpayable"},{"type":"function","name":"transferOwnership","inputs":[{"name":"newOwner","type":"address","internalType":"address"}],"outputs":[],"stateMutability":"nonpayable"},{"type":"function","name":"vote","inputs":[{"name":"pids","type":"uint256[]","internalType":"uint256[]"},{"name":"deltaAmounts","type":"int256[]","internalType":"int256[]"}],"outputs":[],"stateMutability":"nonpayable"},{"type":"event","name":"BribesSet","inputs":[{"name":"account","type":"address","indexed":true,"internalType":"address"},{"name":"pids","type":"uint256[]","indexed":false,"internalType":"uint256[]"},{"name":"bribes","type":"address[]","indexed":false,"internalType":"contract IVeMoeRewarder[]"}],"anonymous":false},{"type":"event","name":"Claim","inputs":[{"name":"account","type":"address","indexed":true,"internalType":"address"},{"name":"deltaVeMoe","type":"int256","indexed":false,"internalType":"int256"}],"anonymous":false},{"type":"event","name":"Initialized","inputs":[{"name":"version","type":"uint64","indexed":false,"internalType":"uint64"}],"anonymous":false},{"type":"event","name":"OwnershipTransferStarted","inputs":[{"name":"previousOwner","type":"address","indexed":true,"internalType":"address"},{"name":"newOwner","type":"address","indexed":true,"internalType":"address"}],"anonymous":false},{"type":"event","name":"OwnershipTransferred","inputs":[{"name":"previousOwner","type":"address","indexed":true,"internalType":"address"},{"name":"newOwner","type":"address","indexed":true,"internalType":"address"}],"anonymous":false},{"type":"event","name":"TopPoolIdsSet","inputs":[{"name":"topPoolIds","type":"uint256[]","indexed":false,"internalType":"uint256[]"}],"anonymous":false},{"type":"event","name":"VeMoePerSecondPerMoeSet","inputs":[{"name":"veMoePerSecondPerMoe","type":"uint256","indexed":false,"internalType":"uint256"}],"anonymous":false},{"type":"event","name":"Vote","inputs":[{"name":"account","type":"address","indexed":false,"internalType":"address"},{"name":"pids","type":"uint256[]","indexed":false,"internalType":"uint256[]"},{"name":"deltaVeAmounts","type":"int256[]","indexed":false,"internalType":"int256[]"}],"anonymous":false},{"type":"error","name":"InvalidInitialization","inputs":[]},{"type":"error","name":"Math__UnderOverflow","inputs":[]},{"type":"error","name":"NotInitializing","inputs":[]},{"type":"error","name":"OwnableInvalidOwner","inputs":[{"name":"owner","type":"address","internalType":"address"}]},{"type":"error","name":"OwnableUnauthorizedAccount","inputs":[{"name":"account","type":"address","internalType":"address"}]},{"type":"error","name":"VeMoe__CannotRenounceOwnership","inputs":[]},{"type":"error","name":"VeMoe__CannotUnstakeWithVotes","inputs":[]},{"type":"error","name":"VeMoe__DuplicatePoolId","inputs":[{"name":"pid","type":"uint256","internalType":"uint256"}]},{"type":"error","name":"VeMoe__InsufficientVeMoe","inputs":[{"name":"totalVeMoe","type":"uint256","internalType":"uint256"},{"name":"requiredVeMoe","type":"uint256","internalType":"uint256"}]},{"type":"error","name":"VeMoe__InvalidBribeAddress","inputs":[]},{"type":"error","name":"VeMoe__InvalidCaller","inputs":[]},{"type":"error","name":"VeMoe__InvalidLength","inputs":[]},{"type":"error","name":"VeMoe__InvalidPid","inputs":[{"name":"pid","type":"uint256","internalType":"uint256"}]},{"type":"error","name":"VeMoe__NoBribeForPid","inputs":[{"name":"pid","type":"uint256","internalType":"uint256"}]},{"type":"error","name":"VeMoe__TooManyPoolIds","inputs":[]}],"bytecode":{"object":"0x6101006040523480156200001257600080fd5b5060405162002b1238038062002b1283398101604081905262000035916200012c565b6200003f62000062565b6001600160a01b0393841660805291831660a05290911660c05260e05262000186565b7ff0c57e16840df040f15088dc2f81fe391c3923bec73e23a9662efc9c229c6a00805468010000000000000000900460ff1615620000b35760405163f92ee8a960e01b815260040160405180910390fd5b80546001600160401b0390811614620001135780546001600160401b0319166001600160401b0390811782556040519081527fc7f505b2f371ae2175ee4913f4499e1f2633a7b5936321eed1cdaeb6115181d29060200160405180910390a15b50565b6001600160a01b03811681146200011357600080fd5b600080600080608085870312156200014357600080fd5b8451620001508162000116565b6020860151909450620001638162000116565b6040860151909350620001768162000116565b6060959095015193969295505050565b60805160a05160c05160e051612913620001ff600039600081816103620152611dbd0152600081816102c501526113ad0152600081816103ce01528181610660015281816106e401528181610ae50152610b7b01526000818161031901528181610799015281816110fa015261122801526129136000f3fe608060405234801561001057600080fd5b50600436106101cf5760003560e01c8063870b50fd11610104578063b5644963116100a2578063e30c397811610071578063e30c39781461042d578063e720e48314610435578063f2fde38b1461046b578063ff9810991461047e57600080fd5b8063b5644963146103cc578063c4d66de8146103f2578063e1e4d41914610405578063e21e41461461041a57600080fd5b8063889e6072116100de578063889e6072146103865780638da5cb5b146103a95780639a0e7d66146103b1578063af2a73f5146103b957600080fd5b8063870b50fd146103455780638761e7fb14610358578063888ed79e1461036057600080fd5b8063566aff6a1161017157806370a082311161014b57806370a08231146102fc578063715018a61461030f57806372f148b81461031757806379ba50971461033d57600080fd5b8063566aff6a146102a25780635c4323ab146102c35780636ba4c138146102e957600080fd5b80632f4f7fbb116101ad5780632f4f7fbb1461026157806347eaa2b4146102745780634f913d3414610287578063518ab0d01461028f57600080fd5b806307532f56146101d457806308ada2ed146101fa5780631befbe361461020f575b600080fd5b6101e76101e236600461234f565b610491565b6040519081526020015b60405180910390f35b61020d6102083660046123c7565b6104bf565b005b61024961021d36600461234f565b6001600160a01b0391821660009081526009602090815260408083209383526003909301905220541690565b6040516001600160a01b0390911681526020016101f1565b61020d61026f366004612409565b61063b565b61020d6102823660046123c7565b610aa3565b6003546101e7565b6101e761029d366004612475565b610cfe565b6102b56102b0366004612492565b610d1f565b6040516101f1929190612522565b7f0000000000000000000000000000000000000000000000000000000000000000610249565b61020d6102f73660046123c7565b610f26565b6101e761030a366004612475565b6110c4565b61020d6111bc565b7f0000000000000000000000000000000000000000000000000000000000000000610249565b61020d6111d5565b61020d610353366004612582565b61121d565b6000546101e7565b7f00000000000000000000000000000000000000000000000000000000000000006101e7565b6103996103943660046125c6565b611278565b60405190151581526020016101f1565b610249611285565b6101e76112ba565b61020d6103c7366004612409565b6112ca565b7f0000000000000000000000000000000000000000000000000000000000000000610249565b61020d610400366004612475565b6117c0565b61040d6118e4565b6040516101f191906125df565b61020d6104283660046125c6565b6118f0565b610249611969565b6101e761044336600461234f565b6001600160a01b03919091166000908152600a60209081526040808320938352929052205490565b61020d610479366004612475565b611992565b6101e761048c3660046125c6565b611a17565b6001600160a01b03821660009081526009602052604081206104b69060010183611a20565b90505b92915050565b336000908152600960205260408120905b828110156105b75760008484838181106104ec576104ec6125f2565b60209081029290920135600081815260038701909352604090922054919250506001600160a01b03168061053b5760405163bd959ca760e01b8152600481018390526024015b60405180910390fd5b600061054a6001860184611a20565b6001600160a01b0383166000908152600a6020908152604080832087845290915281208054929350839290919061058290849061261e565b909155505050600091825250600383016020526040902080546001600160a01b03191690556105b081612631565b90506104d0565b50337f3fc3eae11c26578aac7a474672c345ee287e2859e213535ebc95ee1cc903798184848067ffffffffffffffff8111156105f5576105f561264a565b60405190808252806020026020018201604052801561061e578160200160208202803683370190505b5060405161062e939291906126ab565b60405180910390a2505050565b8281811461065c576040516371af99ab60e11b815260040160405180910390fd5b60007f00000000000000000000000000000000000000000000000000000000000000006001600160a01b031663c7a617836040518163ffffffff1660e01b8152600401602060405180830381865afa1580156106bc573d6000803e3d6000fd5b505050506040513d601f19601f820116820180604052508101906106e0919061270d565b90507f00000000000000000000000000000000000000000000000000000000000000006001600160a01b03166304093c5b61071b6001611a36565b6040518263ffffffff1660e01b815260040161073791906125df565b600060405180830381600087803b15801561075157600080fd5b505af1158015610765573d6000803e3d6000fd5b5050336000818152600960205260408082209051637092a7dd60e11b81526004810193909352935091506001600160a01b037f0000000000000000000000000000000000000000000000000000000000000000169063e1254fba90602401602060405180830381865afa1580156107e0573d6000803e3d6000fd5b505050506040513d601f19601f82011682018060405250810190610804919061270d565b9050610811338283611a4a565b815460008054908667ffffffffffffffff8111156108315761083161264a565b60405190808252806020026020018201604052801561085a578160200160208202803683370190505b50905060008767ffffffffffffffff8111156108785761087861264a565b6040519080825280602002602001820160405280156108a1578160200160208202803683370190505b50905060005b8881101561098f5760008d8d838181106108c3576108c36125f2565b9050602002013590506108e0816001611af990919063ffffffff16565b15610913576109108c8c848181106108fa576108fa6125f2565b9050602002013586611b1190919063ffffffff16565b94505b61093888828e8e8681811061092a5761092a6125f2565b90506020020135898d611b4d565b85848151811061094a5761094a6125f2565b60200260200101858581518110610963576109636125f2565b60209081029190910101919091526001600160a01b0390911690525061098881612631565b90506108a7565b5060008381555b88811015610a555760008282815181106109b2576109b26125f2565b602002602001015190506000811115610a44578382815181106109d7576109d76125f2565b6020908102919091010151604051635569f64b60e11b8152336004820152602481018390526001600160a01b039091169063aad3ec9690604401600060405180830381600087803b158015610a2b57600080fd5b505af1158015610a3f573d6000803e3d6000fd5b505050505b50610a4e81612631565b9050610996565b507f3fcfd6369a124d94ed3356cce74c59840354822057e95889c108c6119ab7f49c338d8d8d8d604051610a8d959493929190612726565b60405180910390a1505050505050505050505050565b610aab611ccb565b806020811115610ace576040516384c066d960e01b815260040160405180910390fd5b6040516304093c5b60e01b81526001600160a01b037f000000000000000000000000000000000000000000000000000000000000000016906304093c5b90610b1c9086908690600401612786565b600060405180830381600087803b158015610b3657600080fd5b505af1158015610b4a573d6000803e3d6000fd5b505050506000610b5a6001611a36565b805190915015610c2c576040516304093c5b60e01b81526001600160a01b037f000000000000000000000000000000000000000000000000000000000000000016906304093c5b90610bb09084906004016125df565b600060405180830381600087803b158015610bca57600080fd5b505af1158015610bde573d6000803e3d6000fd5b505082519150505b8015610c2a57610c2482610bf98361279a565b92508281518110610c0c57610c0c6125f2565b60200260200101516001611cff90919063ffffffff16565b50610be6565b505b6000805b83811015610cb7576000868683818110610c4c57610c4c6125f2565b905060200201359050610c69816001611d0b90919063ffffffff16565b610c8957604051637e716dfd60e11b815260048101829052602401610532565b6000610c96600783611a20565b9050610ca281856127b1565b9350505080610cb090612631565b9050610c30565b5060008190556040517f6a1be1056a891d625c5573d1a185d3f9d5e06e223f7570493778debf491c037390610cef9087908790612786565b60405180910390a15050505050565b6001600160a01b0381166000908152600960205260408120600101546104b9565b606080828067ffffffffffffffff811115610d3c57610d3c61264a565b604051908082528060200260200182016040528015610d65578160200160208202803683370190505b5092508067ffffffffffffffff811115610d8157610d8161264a565b604051908082528060200260200182016040528015610daa578160200160208202803683370190505b506001600160a01b03871660009081526009602052604081209193505b82811015610f1b576000878783818110610de357610de36125f2565b60209081029290920135600081815260038701909352604090922054919250506001600160a01b03168015610f08576000610e216001860184611a20565b6001600160a01b038381166000818152600a602090815260408083208984529091529081902054905163c718325160e01b8152928f16600484015260248301849052604483018190529293509063c7183251906064016040805180830381865afa158015610e93573d6000803e3d6000fd5b505050506040513d601f19601f82011682018060405250810190610eb791906127c4565b8a8781518110610ec957610ec96125f2565b602002602001018a8881518110610ee257610ee26125f2565b6020026020010182815250826001600160a01b03166001600160a01b0316815250505050505b505080610f1490612631565b9050610dc7565b505050935093915050565b336000908152600960205260408120905b828110156110be576000848483818110610f5357610f536125f2565b3360009081526009602090815260408083209382029590950135808352600390930190529290922054919250506001600160a01b031680156110ab576000610f9e6001860184611a20565b6001600160a01b0383166000818152600a6020908152604080832088845290915280822054905163870b50fd60e01b8152336004820152602481018890526044810185905260648101859052608481018290529394509290919063870b50fd9060a4016020604051808303816000875af1158015611020573d6000803e3d6000fd5b505050506040513d601f19601f82011682018060405250810190611044919061270d565b604051635569f64b60e11b8152336004820152602481018290529091506001600160a01b0385169063aad3ec9690604401600060405180830381600087803b15801561108f57600080fd5b505af11580156110a3573d6000803e3d6000fd5b505050505050505b5050806110b790612631565b9050610f37565b50505050565b6001600160a01b038181166000818152600960205260408082209051637092a7dd60e11b815260048101939093529092909183917f0000000000000000000000000000000000000000000000000000000000000000169063e1254fba90602401602060405180830381865afa158015611141573d6000803e3d6000fd5b505050506040513d601f19601f82011682018060405250810190611165919061270d565b90506000611189600354670de0b6b3a76400006004611d179092919063ffffffff16565b905060006111a360048785670de0b6b3a764000086611d2d565b90506111b184848584611d93565b509695505050505050565b604051636e5d2feb60e01b815260040160405180910390fd5b33806111df611969565b6001600160a01b0316146112115760405163118cdaa760e01b81526001600160a01b0382166004820152602401610532565b61121a81611e55565b50565b336001600160a01b037f000000000000000000000000000000000000000000000000000000000000000016146112665760405163f74fc43360e01b815260040160405180910390fd5b611271858585611a4a565b5050505050565b60006104b9600183611af9565b6000807f9016d09d72d40fdae2fd8ceac6b6234c7706214fd39c1cd1e609a0528c1993005b546001600160a01b031692915050565b60006112c560075490565b905090565b8281146112ea576040516371af99ab60e11b815260040160405180910390fd5b336000908152600960205260408120905b84811015611771576000868683818110611317576113176125f2565b9050602002013590506000858584818110611334576113346125f2565b90506020020160208101906113499190612475565b60008381526003860160205260409020549091506001600160a01b03908116908216810361137957505050611761565b6001600160a01b0382161580159061142c57506002604051634f4ee65b60e11b81526001600160a01b0384811660048301527f00000000000000000000000000000000000000000000000000000000000000001690639e9dccb690602401602060405180830381865afa1580156113f4573d6000803e3d6000fd5b505050506040513d601f19601f820116820180604052508101906114189190612808565b6003811115611429576114296127f2565b14155b1561144a5760405163f070a1f760e01b815260040160405180910390fd5b60006114596001870185611a20565b6000858152600388016020526040812080546001600160a01b0319166001600160a01b03878116919091179091559192509081908416156114e9576001600160a01b0384166000908152600a6020908152604080832089845290915290205491506114c4838361261e565b6001600160a01b0385166000908152600a602090815260408083208a84529091529020555b6001600160a01b0385161561154c57506001600160a01b0384166000908152600a6020908152604080832088845290915290205461152783826127b1565b6001600160a01b0386166000908152600a602090815260408083208a84529091529020555b60006001600160a01b0386166115635760006115e9565b60405163870b50fd60e01b8152336004820152602481018890526000604482015260648101859052608481018390526001600160a01b0387169063870b50fd9060a4016020604051808303816000875af11580156115c5573d6000803e3d6000fd5b505050506040513d601f19601f820116820180604052508101906115e9919061270d565b905060006001600160a01b038616611602576000611688565b60405163870b50fd60e01b8152336004820152602481018990526044810186905260006064820152608481018590526001600160a01b0387169063870b50fd9060a4016020604051808303816000875af1158015611664573d6000803e3d6000fd5b505050506040513d601f19601f82011682018060405250810190611688919061270d565b905081156116f157604051635569f64b60e11b8152336004820152602481018390526001600160a01b0388169063aad3ec9690604401600060405180830381600087803b1580156116d857600080fd5b505af11580156116ec573d6000803e3d6000fd5b505050505b801561175857604051635569f64b60e11b8152336004820152602481018290526001600160a01b0387169063aad3ec9690604401600060405180830381600087803b15801561173f57600080fd5b505af1158015611753573d6000803e3d6000fd5b505050505b50505050505050505b61176a81612631565b90506112fb565b50336001600160a01b03167f3fc3eae11c26578aac7a474672c345ee287e2859e213535ebc95ee1cc9037981868686866040516117b19493929190612829565b60405180910390a25050505050565b7ff0c57e16840df040f15088dc2f81fe391c3923bec73e23a9662efc9c229c6a00805468010000000000000000810460ff16159067ffffffffffffffff1660008115801561180b5750825b905060008267ffffffffffffffff1660011480156118285750303b155b905081158015611836575080155b156118545760405163f92ee8a960e01b815260040160405180910390fd5b845467ffffffffffffffff19166001178555831561188857845468ff00000000000000001916680100000000000000001785555b61189186611e91565b83156118dc57845468ff000000000000000019168555604051600181527fc7f505b2f371ae2175ee4913f4499e1f2633a7b5936321eed1cdaeb6115181d29060200160405180910390a15b505050505050565b60606112c56001611a36565b6118f8611ccb565b61192d670de0b6b3a7640000611924600354670de0b6b3a76400006004611d179092919063ffffffff16565b60049190611ea2565b5060038190556040518181527fa642a95837e5219f0719446e8dbc21c5ba557241cb65cd2ff3d411adb45bb94b9060200160405180910390a150565b6000807f237e158222e3e6968b72b9db0d8043aacf074ad9f650f0d1606b4d82ee432c006112aa565b61199a611ccb565b7f237e158222e3e6968b72b9db0d8043aacf074ad9f650f0d1606b4d82ee432c0080546001600160a01b0319166001600160a01b03831690811782556119de611285565b6001600160a01b03167f38d16b8cac22d99fc7c124b9cd0de2d3fa1faef420bfe791d8c362d765e2270060405160405180910390a35050565b60006104b96007835b60008181526001830160205260408120546104b6565b60606000611a4383611ef3565b9392505050565b6001600160a01b0383166000908152600960205260408120600354909190611a7d90600490670de0b6b3a7640000611d17565b90506000611a986004878787670de0b6b3a764000087611f4f565b9050600080611aa985888886611d93565b81875560405181815291935091506001600160a01b038916907fc1de1e7006f734e05946fe01d9535dbcb496877ff6f378def8c705b65540cbe69060200160405180910390a25050505050505050565b600081815260018301602052604081205415156104b6565b8181016001600160ff1b0380841190821117156000819003611b46576040516308a942bb60e11b815260040160405180910390fd5b5092915050565b600080828610611b7357604051630e491bd960e01b815260048101879052602401610532565b60008080611b8560018b018a8a611fd3565b9350509250925086811115611bb75760405163066c0de360e41b81526004810188905260248101829052604401610532565b611bc360078a8a611fd3565b50505060008a815260038c0160205260409020546001600160a01b03169550508415611cbe576001600160a01b0385166000908152600a602090815260408083208c8452909152902054611c17818a611b11565b6001600160a01b0387166000818152600a602090815260408083208f84529091529081902092909255905163870b50fd60e01b8152336004820152602481018c905260448101869052606481018590526084810183905263870b50fd9060a4016020604051808303816000875af1158015611c96573d6000803e3d6000fd5b505050506040513d601f19601f82011682018060405250810190611cba919061270d565b9450505b5050509550959350505050565b33611cd4611285565b6001600160a01b031614611cfd5760405163118cdaa760e01b8152336004820152602401610532565b565b60006104b68383611ff5565b60006104b683836120e8565b6000611d2584844285612137565b949350505050565b600080611d3a8484612181565b8760010154611d4991906127b1565b90508415611d85576001600160a01b0386166000908152600288016020526040902054611d7682876121a5565b611d80919061261e565b611d88565b60005b979650505050505050565b83546000908190858510611e0557611dab84826127b1565b92506000670de0b6b3a7640000611de27f00000000000000000000000000000000000000000000000000000000000000008961288e565b611dec91906128a5565b9050808411611dfb5783611dfd565b805b935050611e36565b6000611e12886001015490565b1115611e315760405163fe73bb2560e01b815260040160405180910390fd5b600092505b611e3f816121bc565b611e48846121bc565b0391505094509492505050565b7f237e158222e3e6968b72b9db0d8043aacf074ad9f650f0d1606b4d82ee432c0080546001600160a01b0319168155611e8d826121ea565b5050565b611e9961225b565b61121a816122a9565b600080611eaf8484612181565b8554909150421115611ebf574285555b8015611ee45780856001016000828254611ed991906127b1565b925050819055611eea565b84600101545b95945050505050565b606081600001805480602002602001604051908101604052809291908181526020018280548015611f4357602002820191906000526020600020905b815481526020019060010190808311611f2f575b50505050509050919050565b600080611f5d888585611ea2565b90508515611f99576001600160a01b0387166000908152600289016020526040902054611f8a82886121a5565b611f94919061261e565b611f9c565b60005b9150611fa881866121a5565b6001600160a01b03909716600090815260029098016020525060409096209490945550929392505050565b6000808080611fe38787876122db565b93509350935093505b93509350935093565b600081815260018301602052604081205480156120de57600061201960018361261e565b855490915060009061202d9060019061261e565b905080821461209257600086600001828154811061204d5761204d6125f2565b9060005260206000200154905080876000018481548110612070576120706125f2565b6000918252602080832090910192909255918252600188019052604090208390555b85548690806120a3576120a36128c7565b6001900381819060005260206000200160009055905585600101600086815260200190815260200160002060009055600193505050506104b9565b60009150506104b9565b600081815260018301602052604081205461212f575081546001818101845560008481526020808220909301849055845484825282860190935260409020919091556104b9565b5060006104b9565b60008160000361214957506000611d25565b8454600042851061215a574261215c565b845b905081811161216c576000611d88565b85612177838361261e565b611d88919061288e565b6000821561219c5761219783604084901b6128a5565b6104b6565b50600092915050565b600060406121b3848461288e565b901c9392505050565b60006001600160ff1b038211156121e6576040516308a942bb60e11b815260040160405180910390fd5b5090565b7f9016d09d72d40fdae2fd8ceac6b6234c7706214fd39c1cd1e609a0528c19930080546001600160a01b031981166001600160a01b03848116918217845560405192169182907f8be0079c531659141344cd1fd0a4f28419497f9722a3daafe3b4186f6b6457e090600090a3505050565b7ff0c57e16840df040f15088dc2f81fe391c3923bec73e23a9662efc9c229c6a005468010000000000000000900460ff16611cfd57604051631afcd79f60e31b815260040160405180910390fd5b6122b161225b565b6001600160a01b03811661121157604051631e4fbdf760e01b815260006004820152602401610532565b6000828152600184016020526040812054845490919081848103612303575082915080611fec565b61230d8486611b11565b92506123198286611b11565b60008781526001890160205260409020849055808855905093509350935093565b6001600160a01b038116811461121a57600080fd5b6000806040838503121561236257600080fd5b823561236d8161233a565b946020939093013593505050565b60008083601f84011261238d57600080fd5b50813567ffffffffffffffff8111156123a557600080fd5b6020830191508360208260051b85010111156123c057600080fd5b9250929050565b600080602083850312156123da57600080fd5b823567ffffffffffffffff8111156123f157600080fd5b6123fd8582860161237b565b90969095509350505050565b6000806000806040858703121561241f57600080fd5b843567ffffffffffffffff8082111561243757600080fd5b6124438883890161237b565b9096509450602087013591508082111561245c57600080fd5b506124698782880161237b565b95989497509550505050565b60006020828403121561248757600080fd5b8135611a438161233a565b6000806000604084860312156124a757600080fd5b83356124b28161233a565b9250602084013567ffffffffffffffff8111156124ce57600080fd5b6124da8682870161237b565b9497909650939450505050565b600081518084526020808501945080840160005b83811015612517578151875295820195908201906001016124fb565b509495945050505050565b604080825283519082018190526000906020906060840190828701845b828110156125645781516001600160a01b03168452928401929084019060010161253f565b5050508381038285015261257881866124e7565b9695505050505050565b600080600080600060a0868803121561259a57600080fd5b85356125a58161233a565b97602087013597506040870135966060810135965060800135945092505050565b6000602082840312156125d857600080fd5b5035919050565b6020815260006104b660208301846124e7565b634e487b7160e01b600052603260045260246000fd5b634e487b7160e01b600052601160045260246000fd5b818103818111156104b9576104b9612608565b60006001820161264357612643612608565b5060010190565b634e487b7160e01b600052604160045260246000fd5b81835260007f07ffffffffffffffffffffffffffffffffffffffffffffffffffffffffffffff83111561269257600080fd5b8260051b80836020870137939093016020019392505050565b6040815260006126bf604083018587612660565b82810360208481019190915284518083528582019282019060005b818110156126ff5784516001600160a01b0316835293830193918301916001016126da565b509098975050505050505050565b60006020828403121561271f57600080fd5b5051919050565b6001600160a01b03861681526000602060608184015261274a606084018789612660565b83810360408501528481528590820160005b868110156127785782358252918301919083019060010161275c565b509998505050505050505050565b602081526000611d25602083018486612660565b6000816127a9576127a9612608565b506000190190565b808201808211156104b9576104b9612608565b600080604083850312156127d757600080fd5b82516127e28161233a565b6020939093015192949293505050565b634e487b7160e01b600052602160045260246000fd5b60006020828403121561281a57600080fd5b815160048110611a4357600080fd5b60408152600061283d604083018688612660565b8281036020848101919091528482528591810160005b868110156128815783356128668161233a565b6001600160a01b031682529282019290820190600101612853565b5098975050505050505050565b80820281158282048414176104b9576104b9612608565b6000826128c257634e487b7160e01b600052601260045260246000fd5b500490565b634e487b7160e01b600052603160045260246000fdfea2646970667358221220ccd9e8ec547c9f99f7ce94b87f7ac040350080a2f73db1e5b5aa91849768feb664736f6c63430008140033","linkReferences":{}},"methodIdentifiers":{"acceptOwnership()":"79ba5097","balanceOf(address)":"70a08231","claim(uint256[])":"6ba4c138","emergencyUnsetBribes(uint256[])":"08ada2ed","getBribesOf(address,uint256)":"1befbe36","getBribesTotalVotes(address,uint256)":"e720e483","getMasterChef()":"b5644963","getMaxVeMoePerMoe()":"888ed79e","getMoeStaking()":"72f148b8","getPendingRewards(address,uint256[])":"566aff6a","getRewarderFactory()":"5c4323ab","getTopPidsTotalVotes()":"8761e7fb","getTopPoolIds()":"e1e4d419","getTotalVotes()":"9a0e7d66","getTotalVotesOf(address)":"518ab0d0","getVeMoePerSecondPerMoe()":"4f913d34","getVotes(uint256)":"ff981099","getVotesOf(address,uint256)":"07532f56","initialize(address)":"c4d66de8","isInTopPoolIds(uint256)":"889e6072","onModify(address,uint256,uint256,uint256,uint256)":"870b50fd","owner()":"8da5cb5b","pendingOwner()":"e30c3978","renounceOwnership()":"715018a6","setBribes(uint256[],address[])":"af2a73f5","setTopPoolIds(uint256[])":"47eaa2b4","setVeMoePerSecondPerMoe(uint256)":"e21e4146","transferOwnership(address)":"f2fde38b","vote(uint256[],int256[])":"2f4f7fbb"},"id":67}