{"abi":[{"type":"constructor","inputs":[{"name":"moeStaking","type":"address","internalType":"contract IMoeStaking"},{"name":"masterChef","type":"address","internalType":"contract IMasterChef"},{"name":"rewarderFactory","type":"address","internalType":"contract IRewarderFactory"},{"name":"maxVeMoePerMoe","type":"uint256","internalType":"uint256"}],"stateMutability":"nonpayable"},{"type":"function","name":"acceptOwnership","inputs":[],"outputs":[],"stateMutability":"nonpayable"},{"type":"function","name":"balanceOf","inputs":[{"name":"account","type":"address","internalType":"address"}],"outputs":[{"name":"veMoe","type":"uint256","internalType":"uint256"}],"stateMutability":"view"},{"type":"function","name":"claim","inputs":[{"name":"pids","type":"uint256[]","internalType":"uint256[]"}],"outputs":[],"stateMutability":"nonpayable"},{"type":"function","name":"emergencyUnsetBribes","inputs":[{"name":"pids","type":"uint256[]","internalType":"uint256[]"}],"outputs":[],"stateMutability":"nonpayable"},{"type":"function","name":"getAlpha","inputs":[],"outputs":[{"name":"","type":"uint256","internalType":"uint256"}],"stateMutability":"view"},{"type":"function","name":"getBribesOf","inputs":[{"name":"account","type":"address","internalType":"address"},{"name":"pid","type":"uint256","internalType":"uint256"}],"outputs":[{"name":"","type":"address","internalType":"contract IVeMoeRewarder"}],"stateMutability":"view"},{"type":"function","name":"getBribesTotalVotes","inputs":[{"name":"bribe","type":"address","internalType":"contract IVeMoeRewarder"},{"name":"pid","type":"uint256","internalType":"uint256"}],"outputs":[{"name":"","type":"uint256","internalType":"uint256"}],"stateMutability":"view"},{"type":"function","name":"getMasterChef","inputs":[],"outputs":[{"name":"","type":"address","internalType":"contract IMasterChef"}],"stateMutability":"view"},{"type":"function","name":"getMaxVeMoePerMoe","inputs":[],"outputs":[{"name":"","type":"uint256","internalType":"uint256"}],"stateMutability":"view"},{"type":"function","name":"getMoeStaking","inputs":[],"outputs":[{"name":"","type":"address","internalType":"contract IMoeStaking"}],"stateMutability":"view"},{"type":"function","name":"getPendingRewards","inputs":[{"name":"account","type":"address","internalType":"address"},{"name":"pids","type":"uint256[]","internalType":"uint256[]"}],"outputs":[{"name":"tokens","type":"address[]","internalType":"contract IERC20[]"},{"name":"pendingRewards","type":"uint256[]","internalType":"uint256[]"}],"stateMutability":"view"},{"type":"function","name":"getRewarderFactory","inputs":[],"outputs":[{"name":"","type":"address","internalType":"contract IRewarderFactory"}],"stateMutability":"view"},{"type":"function","name":"getTopPidsTotalVotes","inputs":[],"outputs":[{"name":"","type":"uint256","internalType":"uint256"}],"stateMutability":"view"},{"type":"function","name":"getTopPoolIds","inputs":[],"outputs":[{"name":"","type":"uint256[]","internalType":"uint256[]"}],"stateMutability":"view"},{"type":"function","name":"getTotalVotes","inputs":[],"outputs":[{"name":"","type":"uint256","internalType":"uint256"}],"stateMutability":"view"},{"type":"function","name":"getTotalVotesOf","inputs":[{"name":"account","type":"address","internalType":"address"}],"outputs":[{"name":"","type":"uint256","internalType":"uint256"}],"stateMutability":"view"},{"type":"function","name":"getTotalWeight","inputs":[],"outputs":[{"name":"","type":"uint256","internalType":"uint256"}],"stateMutability":"view"},{"type":"function","name":"getVeMoePerSecondPerMoe","inputs":[],"outputs":[{"name":"","type":"uint256","internalType":"uint256"}],"stateMutability":"view"},{"type":"function","name":"getVotes","inputs":[{"name":"pid","type":"uint256","internalType":"uint256"}],"outputs":[{"name":"","type":"uint256","internalType":"uint256"}],"stateMutability":"view"},{"type":"function","name":"getVotesOf","inputs":[{"name":"account","type":"address","internalType":"address"},{"name":"pid","type":"uint256","internalType":"uint256"}],"outputs":[{"name":"","type":"uint256","internalType":"uint256"}],"stateMutability":"view"},{"type":"function","name":"getWeight","inputs":[{"name":"pid","type":"uint256","internalType":"uint256"}],"outputs":[{"name":"","type":"uint256","internalType":"uint256"}],"stateMutability":"view"},{"type":"function","name":"initialize","inputs":[{"name":"initialOwner","type":"address","internalType":"address"}],"outputs":[],"stateMutability":"nonpayable"},{"type":"function","name":"isInTopPoolIds","inputs":[{"name":"pid","type":"uint256","internalType":"uint256"}],"outputs":[{"name":"","type":"bool","internalType":"bool"}],"stateMutability":"view"},{"type":"function","name":"onModify","inputs":[{"name":"account","type":"address","internalType":"address"},{"name":"oldBalance","type":"uint256","internalType":"uint256"},{"name":"newBalance","type":"uint256","internalType":"uint256"},{"name":"","type":"uint256","internalType":"uint256"},{"name":"","type":"uint256","internalType":"uint256"}],"outputs":[],"stateMutability":"nonpayable"},{"type":"function","name":"owner","inputs":[],"outputs":[{"name":"","type":"address","internalType":"address"}],"stateMutability":"view"},{"type":"function","name":"pendingOwner","inputs":[],"outputs":[{"name":"","type":"address","internalType":"address"}],"stateMutability":"view"},{"type":"function","name":"renounceOwnership","inputs":[],"outputs":[],"stateMutability":"pure"},{"type":"function","name":"setAlpha","inputs":[{"name":"alpha","type":"uint256","internalType":"uint256"}],"outputs":[],"stateMutability":"nonpayable"},{"type":"function","name":"setBribes","inputs":[{"name":"pids","type":"uint256[]","internalType":"uint256[]"},{"name":"bribes","type":"address[]","internalType":"contract IVeMoeRewarder[]"}],"outputs":[],"stateMutability":"nonpayable"},{"type":"function","name":"setTopPoolIds","inputs":[{"name":"pids","type":"uint256[]","internalType":"uint256[]"}],"outputs":[],"stateMutability":"nonpayable"},{"type":"function","name":"setVeMoePerSecondPerMoe","inputs":[{"name":"veMoePerSecondPerMoe","type":"uint256","internalType":"uint256"}],"outputs":[],"stateMutability":"nonpayable"},{"type":"function","name":"transferOwnership","inputs":[{"name":"newOwner","type":"address","internalType":"address"}],"outputs":[],"stateMutability":"nonpayable"},{"type":"function","name":"vote","inputs":[{"name":"pids","type":"uint256[]","internalType":"uint256[]"},{"name":"deltaAmounts","type":"int256[]","internalType":"int256[]"}],"outputs":[],"stateMutability":"nonpayable"},{"type":"event","name":"AlphaSet","inputs":[{"name":"alpha","type":"uint256","indexed":false,"internalType":"uint256"}],"anonymous":false},{"type":"event","name":"BribesSet","inputs":[{"name":"account","type":"address","indexed":true,"internalType":"address"},{"name":"pids","type":"uint256[]","indexed":false,"internalType":"uint256[]"},{"name":"bribes","type":"address[]","indexed":false,"internalType":"contract IVeMoeRewarder[]"}],"anonymous":false},{"type":"event","name":"Claim","inputs":[{"name":"account","type":"address","indexed":true,"internalType":"address"},{"name":"deltaVeMoe","type":"int256","indexed":false,"internalType":"int256"}],"anonymous":false},{"type":"event","name":"Initialized","inputs":[{"name":"version","type":"uint64","indexed":false,"internalType":"uint64"}],"anonymous":false},{"type":"event","name":"OwnershipTransferStarted","inputs":[{"name":"previousOwner","type":"address","indexed":true,"internalType":"address"},{"name":"newOwner","type":"address","indexed":true,"internalType":"address"}],"anonymous":false},{"type":"event","name":"OwnershipTransferred","inputs":[{"name":"previousOwner","type":"address","indexed":true,"internalType":"address"},{"name":"newOwner","type":"address","indexed":true,"internalType":"address"}],"anonymous":false},{"type":"event","name":"TopPoolIdsSet","inputs":[{"name":"topPoolIds","type":"uint256[]","indexed":false,"internalType":"uint256[]"}],"anonymous":false},{"type":"event","name":"VeMoePerSecondPerMoeSet","inputs":[{"name":"veMoePerSecondPerMoe","type":"uint256","indexed":false,"internalType":"uint256"}],"anonymous":false},{"type":"event","name":"Vote","inputs":[{"name":"account","type":"address","indexed":false,"internalType":"address"},{"name":"pids","type":"uint256[]","indexed":false,"internalType":"uint256[]"},{"name":"deltaVeAmounts","type":"int256[]","indexed":false,"internalType":"int256[]"}],"anonymous":false},{"type":"error","name":"InvalidInitialization","inputs":[]},{"type":"error","name":"Math__UnderOverflow","inputs":[]},{"type":"error","name":"NotInitializing","inputs":[]},{"type":"error","name":"OwnableInvalidOwner","inputs":[{"name":"owner","type":"address","internalType":"address"}]},{"type":"error","name":"OwnableUnauthorizedAccount","inputs":[{"name":"account","type":"address","internalType":"address"}]},{"type":"error","name":"VeMoe__CannotRenounceOwnership","inputs":[]},{"type":"error","name":"VeMoe__CannotUnstakeWithVotes","inputs":[]},{"type":"error","name":"VeMoe__DuplicatePoolId","inputs":[{"name":"pid","type":"uint256","internalType":"uint256"}]},{"type":"error","name":"VeMoe__InsufficientVeMoe","inputs":[{"name":"totalVeMoe","type":"uint256","internalType":"uint256"},{"name":"requiredVeMoe","type":"uint256","internalType":"uint256"}]},{"type":"error","name":"VeMoe__InvalidAlpha","inputs":[]},{"type":"error","name":"VeMoe__InvalidBribeAddress","inputs":[]},{"type":"error","name":"VeMoe__InvalidCaller","inputs":[]},{"type":"error","name":"VeMoe__InvalidLength","inputs":[]},{"type":"error","name":"VeMoe__InvalidPid","inputs":[{"name":"pid","type":"uint256","internalType":"uint256"}]},{"type":"error","name":"VeMoe__InvalidWeight","inputs":[]},{"type":"error","name":"VeMoe__NoBribeForPid","inputs":[{"name":"pid","type":"uint256","internalType":"uint256"}]},{"type":"error","name":"VeMoe__TooManyPoolIds","inputs":[]}],"bytecode":{"object":"0x6101006040523480156200001257600080fd5b506040516200323b3803806200323b83398101604081905262000035916200012c565b6200003f62000062565b6001600160a01b0393841660805291831660a05290911660c05260e05262000186565b7ff0c57e16840df040f15088dc2f81fe391c3923bec73e23a9662efc9c229c6a00805468010000000000000000900460ff1615620000b35760405163f92ee8a960e01b815260040160405180910390fd5b80546001600160401b0390811614620001135780546001600160401b0319166001600160401b0390811782556040519081527fc7f505b2f371ae2175ee4913f4499e1f2633a7b5936321eed1cdaeb6115181d29060200160405180910390a15b50565b6001600160a01b03811681146200011357600080fd5b600080600080608085870312156200014357600080fd5b8451620001508162000116565b6020860151909450620001638162000116565b6040860151909350620001768162000116565b6060959095015193969295505050565b60805160a05160c05160e05161303c620001ff600039600081816103b50152611ffb015260008181610318015261148e015260008181610421015281816106ef0152818161077301528181610b9a0152610c3001526000818161036c01528181610828015281816111de0152611309015261303c6000f3fe608060405234801561001057600080fd5b506004361061020b5760003560e01c8063870b50fd1161012a578063c4d66de8116100bd578063e30c39781161008c578063f2fde38b11610071578063f2fde38b146104de578063f4988a3d146104f1578063ff981099146104f957600080fd5b8063e30c3978146104a0578063e720e483146104a857600080fd5b8063c4d66de814610445578063d851fdfd14610458578063e1e4d41914610478578063e21e41461461048d57600080fd5b80638da5cb5b116100f95780638da5cb5b146103fc5780639a0e7d6614610404578063af2a73f51461040c578063b56449631461041f57600080fd5b8063870b50fd146103985780638761e7fb146103ab578063888ed79e146103b3578063889e6072146103d957600080fd5b8063518ab0d0116101a257806370a082311161017157806370a082311461034f578063715018a61461036257806372f148b81461036a57806379ba50971461039057600080fd5b8063518ab0d0146102e2578063566aff6a146102f55780635c4323ab146103165780636ba4c1381461033c57600080fd5b80631befbe36116101de5780631befbe36146102625780632f4f7fbb146102b457806347eaa2b4146102c75780634f913d34146102da57600080fd5b806306aba0e11461021057806307532f561461022757806308ada2ed1461023a5780630c17d42c1461024f575b600080fd5b600c545b6040519081526020015b60405180910390f35b610214610235366004612a12565b61050c565b61024d610248366004612a8a565b61053a565b005b61024d61025d366004612acc565b6106b6565b61029c610270366004612a12565b6001600160a01b0391821660009081526009602090815260408083209383526003909301905220541690565b6040516001600160a01b03909116815260200161021e565b61024d6102c2366004612ae5565b6106ca565b61024d6102d5366004612a8a565b610b58565b600354610214565b6102146102f0366004612b51565b610de2565b610308610303366004612b6e565b610e03565b60405161021e929190612bfe565b7f000000000000000000000000000000000000000000000000000000000000000061029c565b61024d61034a366004612a8a565b61100a565b61021461035d366004612b51565b6111a8565b61024d6112a0565b7f000000000000000000000000000000000000000000000000000000000000000061029c565b61024d6112b9565b61024d6103a6366004612c5e565b6112fe565b600054610214565b7f0000000000000000000000000000000000000000000000000000000000000000610214565b6103ec6103e7366004612acc565b611359565b604051901515815260200161021e565b61029c611366565b61021461139b565b61024d61041a366004612ae5565b6113ab565b7f000000000000000000000000000000000000000000000000000000000000000061029c565b61024d610453366004612b51565b6118a1565b610214610466366004612acc565b6000908152600d602052604090205490565b6104806119a1565b60405161021e9190612ca2565b61024d61049b366004612acc565b6119ad565b61029c611a27565b6102146104b6366004612a12565b6001600160a01b03919091166000908152600a60209081526040808320938352929052205490565b61024d6104ec366004612b51565b611a50565b600b54610214565b610214610507366004612acc565b611ad5565b6001600160a01b03821660009081526009602052604081206105319060010183611ade565b90505b92915050565b336000908152600960205260408120905b8281101561063257600084848381811061056757610567612cb5565b60209081029290920135600081815260038701909352604090922054919250506001600160a01b0316806105b65760405163bd959ca760e01b8152600481018390526024015b60405180910390fd5b60006105c56001860184611ade565b6001600160a01b0383166000908152600a602090815260408083208784529091528120805492935083929091906105fd908490612ce1565b909155505050600091825250600383016020526040902080546001600160a01b031916905561062b81612cf4565b905061054b565b50337f3fc3eae11c26578aac7a474672c345ee287e2859e213535ebc95ee1cc903798184848067ffffffffffffffff81111561067057610670612d0d565b604051908082528060200260200182016040528015610699578160200160208202803683370190505b506040516106a993929190612d6e565b60405180910390a2505050565b6106be611af4565b6106c781611b28565b50565b828181146106eb576040516371af99ab60e11b815260040160405180910390fd5b60007f00000000000000000000000000000000000000000000000000000000000000006001600160a01b031663c7a617836040518163ffffffff1660e01b8152600401602060405180830381865afa15801561074b573d6000803e3d6000fd5b505050506040513d601f19601f8201168201806040525081019061076f9190612dd0565b90507f00000000000000000000000000000000000000000000000000000000000000006001600160a01b03166304093c5b6107aa6001611ba2565b6040518263ffffffff1660e01b81526004016107c69190612ca2565b600060405180830381600087803b1580156107e057600080fd5b505af11580156107f4573d6000803e3d6000fd5b5050336000818152600960205260408082209051637092a7dd60e11b81526004810193909352935091506001600160a01b037f0000000000000000000000000000000000000000000000000000000000000000169063e1254fba90602401602060405180830381865afa15801561086f573d6000803e3d6000fd5b505050506040513d601f19601f820116820180604052508101906108939190612dd0565b90506108a0338283611bb6565b50805460008054600c5490918667ffffffffffffffff8111156108c5576108c5612d0d565b60405190808252806020026020018201604052801561090a57816020015b60408051808201909152600080825260208201528152602001906001900390816108e35790505b50600b54909150600090815b89811015610a395760008e8e8381811061093257610932612cb5565b90506020020135905089811061095e57604051630e491bd960e01b8152600481018290526024016105ad565b61098289828f8f8681811061097557610975612cb5565b905060200201358b611c65565b86848151811061099457610994612cb5565b602090810291909101019190915293506109af600182611de4565b15610a28576000818152600d6020526040812054906109ce8686611dfc565b6000848152600d602052604090208190559050610a0c8f8f868181106109f6576109f6612cb5565b905060200201358a611e6890919063ffffffff16565b985080610a19838a612ce1565b610a239190612de9565b975050505b50610a3281612cf4565b9050610916565b506000858155600c8590555b89811015610b09576000848281518110610a6157610a61612cb5565b60200260200101516020015190506000811115610af857848281518110610a8a57610a8a612cb5565b602090810291909101015151604051635569f64b60e11b8152336004820152602481018390526001600160a01b039091169063aad3ec9690604401600060405180830381600087803b158015610adf57600080fd5b505af1158015610af3573d6000803e3d6000fd5b505050505b50610b0281612cf4565b9050610a45565b507f3fcfd6369a124d94ed3356cce74c59840354822057e95889c108c6119ab7f49c338e8e8e8e604051610b41959493929190612dfc565b60405180910390a150505050505050505050505050565b610b60611af4565b806020811115610b83576040516384c066d960e01b815260040160405180910390fd5b6040516304093c5b60e01b81526001600160a01b037f000000000000000000000000000000000000000000000000000000000000000016906304093c5b90610bd19086908690600401612e5c565b600060405180830381600087803b158015610beb57600080fd5b505af1158015610bff573d6000803e3d6000fd5b505050506000610c0f6001611ba2565b805190915015610cf5576040516304093c5b60e01b81526001600160a01b037f000000000000000000000000000000000000000000000000000000000000000016906304093c5b90610c65908490600401612ca2565b600060405180830381600087803b158015610c7f57600080fd5b505af1158015610c93573d6000803e3d6000fd5b505082519150505b8015610cf357600082610cad83612e70565b92508281518110610cc057610cc0612cb5565b60200260200101519050610cde816001611ea490919063ffffffff16565b506000908152600d6020526040812055610c9b565b505b60005b82811015610d62576000858583818110610d1457610d14612cb5565b905060200201359050610d31816001611eb090919063ffffffff16565b610d5157604051637e716dfd60e11b8152600481018290526024016105ad565b50610d5b81612cf4565b9050610cf8565b50610da384848080602002602001604051908101604052809392919081815260200183836020028082843760009201919091525050600b549150611ebc9050565b7f6a1be1056a891d625c5573d1a185d3f9d5e06e223f7570493778debf491c03738484604051610dd4929190612e5c565b60405180910390a150505050565b6001600160a01b038116600090815260096020526040812060010154610534565b606080828067ffffffffffffffff811115610e2057610e20612d0d565b604051908082528060200260200182016040528015610e49578160200160208202803683370190505b5092508067ffffffffffffffff811115610e6557610e65612d0d565b604051908082528060200260200182016040528015610e8e578160200160208202803683370190505b506001600160a01b03871660009081526009602052604081209193505b82811015610fff576000878783818110610ec757610ec7612cb5565b60209081029290920135600081815260038701909352604090922054919250506001600160a01b03168015610fec576000610f056001860184611ade565b6001600160a01b038381166000818152600a602090815260408083208984529091529081902054905163c718325160e01b8152928f16600484015260248301849052604483018190529293509063c7183251906064016040805180830381865afa158015610f77573d6000803e3d6000fd5b505050506040513d601f19601f82011682018060405250810190610f9b9190612e87565b8a8781518110610fad57610fad612cb5565b602002602001018a8881518110610fc657610fc6612cb5565b6020026020010182815250826001600160a01b03166001600160a01b0316815250505050505b505080610ff890612cf4565b9050610eab565b505050935093915050565b336000908152600960205260408120905b828110156111a257600084848381811061103757611037612cb5565b3360009081526009602090815260408083209382029590950135808352600390930190529290922054919250506001600160a01b0316801561118f5760006110826001860184611ade565b6001600160a01b0383166000818152600a6020908152604080832088845290915280822054905163870b50fd60e01b8152336004820152602481018890526044810185905260648101859052608481018290529394509290919063870b50fd9060a4016020604051808303816000875af1158015611104573d6000803e3d6000fd5b505050506040513d601f19601f820116820180604052508101906111289190612dd0565b604051635569f64b60e11b8152336004820152602481018290529091506001600160a01b0385169063aad3ec9690604401600060405180830381600087803b15801561117357600080fd5b505af1158015611187573d6000803e3d6000fd5b505050505050505b50508061119b90612cf4565b905061101b565b50505050565b6001600160a01b038181166000818152600960205260408082209051637092a7dd60e11b815260048101939093529092909183917f0000000000000000000000000000000000000000000000000000000000000000169063e1254fba90602401602060405180830381865afa158015611225573d6000803e3d6000fd5b505050506040513d601f19601f820116820180604052508101906112499190612dd0565b9050600061126d600354670de0b6b3a76400006004611f5d9092919063ffffffff16565b9050600061128760048785670de0b6b3a764000086611f6b565b905061129584848584611fd1565b509695505050505050565b604051636e5d2feb60e01b815260040160405180910390fd5b33806112c3611a27565b6001600160a01b0316146112f55760405163118cdaa760e01b81526001600160a01b03821660048201526024016105ad565b6106c781612093565b336001600160a01b037f000000000000000000000000000000000000000000000000000000000000000016146113475760405163f74fc43360e01b815260040160405180910390fd5b611352858585611bb6565b5050505050565b6000610534600183611de4565b6000807f9016d09d72d40fdae2fd8ceac6b6234c7706214fd39c1cd1e609a0528c1993005b546001600160a01b031692915050565b60006113a660075490565b905090565b8281146113cb576040516371af99ab60e11b815260040160405180910390fd5b336000908152600960205260408120905b848110156118525760008686838181106113f8576113f8612cb5565b905060200201359050600085858481811061141557611415612cb5565b905060200201602081019061142a9190612b51565b60008381526003860160205260409020549091506001600160a01b03908116908216810361145a57505050611842565b6001600160a01b0382161580159061150d57506002604051634f4ee65b60e11b81526001600160a01b0384811660048301527f00000000000000000000000000000000000000000000000000000000000000001690639e9dccb690602401602060405180830381865afa1580156114d5573d6000803e3d6000fd5b505050506040513d601f19601f820116820180604052508101906114f99190612ecb565b600381111561150a5761150a612eb5565b14155b1561152b5760405163f070a1f760e01b815260040160405180910390fd5b600061153a6001870185611ade565b6000858152600388016020526040812080546001600160a01b0319166001600160a01b03878116919091179091559192509081908416156115ca576001600160a01b0384166000908152600a6020908152604080832089845290915290205491506115a58383612ce1565b6001600160a01b0385166000908152600a602090815260408083208a84529091529020555b6001600160a01b0385161561162d57506001600160a01b0384166000908152600a602090815260408083208884529091529020546116088382612de9565b6001600160a01b0386166000908152600a602090815260408083208a84529091529020555b60006001600160a01b0386166116445760006116ca565b60405163870b50fd60e01b8152336004820152602481018890526000604482015260648101859052608481018390526001600160a01b0387169063870b50fd9060a4016020604051808303816000875af11580156116a6573d6000803e3d6000fd5b505050506040513d601f19601f820116820180604052508101906116ca9190612dd0565b905060006001600160a01b0386166116e3576000611769565b60405163870b50fd60e01b8152336004820152602481018990526044810186905260006064820152608481018590526001600160a01b0387169063870b50fd9060a4016020604051808303816000875af1158015611745573d6000803e3d6000fd5b505050506040513d601f19601f820116820180604052508101906117699190612dd0565b905081156117d257604051635569f64b60e11b8152336004820152602481018390526001600160a01b0388169063aad3ec9690604401600060405180830381600087803b1580156117b957600080fd5b505af11580156117cd573d6000803e3d6000fd5b505050505b801561183957604051635569f64b60e11b8152336004820152602481018290526001600160a01b0387169063aad3ec9690604401600060405180830381600087803b15801561182057600080fd5b505af1158015611834573d6000803e3d6000fd5b505050505b50505050505050505b61184b81612cf4565b90506113dc565b50336001600160a01b03167f3fc3eae11c26578aac7a474672c345ee287e2859e213535ebc95ee1cc9037981868686866040516118929493929190612eec565b60405180910390a25050505050565b7ff0c57e16840df040f15088dc2f81fe391c3923bec73e23a9662efc9c229c6a0080546002919068010000000000000000900460ff16806118f05750805467ffffffffffffffff808416911610155b1561190e5760405163f92ee8a960e01b815260040160405180910390fd5b805468ffffffffffffffffff191667ffffffffffffffff8316176801000000000000000017815561193e836120cf565b61194f670de0b6b3a7640000611b28565b805468ff00000000000000001916815560405167ffffffffffffffff831681527fc7f505b2f371ae2175ee4913f4499e1f2633a7b5936321eed1cdaeb6115181d29060200160405180910390a1505050565b60606113a66001611ba2565b6119b5611af4565b6119ea670de0b6b3a76400006119e1600354670de0b6b3a76400006004611f5d9092919063ffffffff16565b600491906120e0565b5060038190556040518181527fa642a95837e5219f0719446e8dbc21c5ba557241cb65cd2ff3d411adb45bb94b906020015b60405180910390a150565b6000807f237e158222e3e6968b72b9db0d8043aacf074ad9f650f0d1606b4d82ee432c0061138b565b611a58611af4565b7f237e158222e3e6968b72b9db0d8043aacf074ad9f650f0d1606b4d82ee432c0080546001600160a01b0319166001600160a01b0383169081178255611a9c611366565b6001600160a01b03167f38d16b8cac22d99fc7c124b9cd0de2d3fa1faef420bfe791d8c362d765e2270060405160405180910390a35050565b60006105346007835b6000818152600183016020526040812054610531565b33611afd611366565b6001600160a01b031614611b265760405163118cdaa760e01b81523360048201526024016105ad565b565b801580611b3c5750670de0b6b3a764000081115b15611b5a5760405163337b1d4b60e11b815260040160405180910390fd5b600b819055611b72611b6c6001611ba2565b82611ebc565b6040518181527f16954ed2b53a00c4f9cd4d5025ad8f7ac7d88c60b07eac34a1baacff8f2877b590602001611a1c565b60606000611baf83612131565b9392505050565b6001600160a01b0383166000908152600960205260408120600354909190611be990600490670de0b6b3a7640000611f5d565b90506000611c046004878787670de0b6b3a76400008761218d565b9050600080611c1585888886611fd1565b81875560405181815291935091506001600160a01b038916907fc1de1e7006f734e05946fe01d9535dbcb496877ff6f378def8c705b65540cbe69060200160405180910390a25050505050505050565b60408051808201909152600080825260208201526000808080611c8c60018a018989612211565b9350509250925085811115611cbe5760405163066c0de360e41b815260048101879052602481018290526044016105ad565b611cca60078989612211565b505060008a815260038c0160205260409020549095506001600160a01b031690508015611dd7576001600160a01b0381166000908152600a602090815260408083208c8452909152902054611d1f818a611e68565b6001600160a01b0383166000818152600a602090815260408083208f84528252918290209390935580518082018252828152905163870b50fd60e01b8152336004820152602481018e905260448101899052606481018890526084810185905290928301919063870b50fd9060a4016020604051808303816000875af1158015611dad573d6000803e3d6000fd5b505050506040513d601f19601f82011682018060405250810190611dd19190612dd0565b90529650505b5050505094509492505050565b60008181526001830160205260408120541515610531565b6000670de0b6b3a764000083111580611e1c5750670de0b6b3a764000082145b15611e28575081610534565b6000611e3c611e3685612233565b84612261565b90506000811215611e51576000915050610534565b838111611e5e5780611e60565b835b949350505050565b8181016001600160ff1b0380841190821117156000819003611e9d576040516308a942bb60e11b815260040160405180910390fd5b5092915050565b60006105318383612292565b60006105318383612385565b81516000908190815b81811015611f4e576000868281518110611ee157611ee1612cb5565b602002602001015190506000611f01826007611ade90919063ffffffff16565b90506000611f0f8289611dfc565b6000848152600d602052604090208190559050611f2c8288612de9565b9650611f388187612de9565b955050505080611f4790612cf4565b9050611ec5565b5050600091909155600c555050565b6000611e60848442856123d4565b600080611f78848461241e565b8760010154611f879190612de9565b90508415611fc3576001600160a01b0386166000908152600288016020526040902054611fb48287612442565b611fbe9190612ce1565b611fc6565b60005b979650505050505050565b8354600090819085851061204357611fe98482612de9565b92506000670de0b6b3a76400006120207f000000000000000000000000000000000000000000000000000000000000000089612f51565b61202a9190612f7e565b9050808411612039578361203b565b805b935050612074565b6000612050886001015490565b111561206f5760405163fe73bb2560e01b815260040160405180910390fd5b600092505b61207d81612233565b61208684612233565b0391505094509492505050565b7f237e158222e3e6968b72b9db0d8043aacf074ad9f650f0d1606b4d82ee432c0080546001600160a01b03191681556120cb82612459565b5050565b6120d76124ca565b6106c781612518565b6000806120ed848461241e565b85549091504211156120fd574285555b801561212257808560010160008282546121179190612de9565b925050819055612128565b84600101545b95945050505050565b60608160000180548060200260200160405190810160405280929190818152602001828054801561218157602002820191906000526020600020905b81548152602001906001019080831161216d575b50505050509050919050565b60008061219b8885856120e0565b905085156121d7576001600160a01b03871660009081526002890160205260409020546121c88288612442565b6121d29190612ce1565b6121da565b60005b91506121e68186612442565b6001600160a01b03909716600090815260029098016020525060409096209490945550929392505050565b600080808061222187878761254a565b93509350935093505b93509350935093565b60006001600160ff1b0382111561225d576040516308a942bb60e11b815260040160405180910390fd5b5090565b6000610531670de0b6b3a764000083612279866125a9565b6122839190612f92565b61228d9190612fc2565b61278a565b6000818152600183016020526040812054801561237b5760006122b6600183612ce1565b85549091506000906122ca90600190612ce1565b905080821461232f5760008660000182815481106122ea576122ea612cb5565b906000526020600020015490508087600001848154811061230d5761230d612cb5565b6000918252602080832090910192909255918252600188019052604090208390555b855486908061234057612340612ff0565b600190038181906000526020600020016000905590558560010160008681526020019081526020016000206000905560019350505050610534565b6000915050610534565b60008181526001830160205260408120546123cc57508154600181810184556000848152602080822090930184905584548482528286019093526040902091909155610534565b506000610534565b6000816000036123e657506000611e60565b845460004285106123f757426123f9565b845b9050818111612409576000611fc6565b856124148383612ce1565b611fc69190612f51565b600082156124395761243483604084901b612f7e565b610531565b50600092915050565b600060406124508484612f51565b901c9392505050565b7f9016d09d72d40fdae2fd8ceac6b6234c7706214fd39c1cd1e609a0528c19930080546001600160a01b031981166001600160a01b03848116918217845560405192169182907f8be0079c531659141344cd1fd0a4f28419497f9722a3daafe3b4186f6b6457e090600090a3505050565b7ff0c57e16840df040f15088dc2f81fe391c3923bec73e23a9662efc9c229c6a005468010000000000000000900460ff16611b2657604051631afcd79f60e31b815260040160405180910390fd5b6125206124ca565b6001600160a01b0381166112f557604051631e4fbdf760e01b8152600060048201526024016105ad565b600082815260018401602052604081205484549091908184810361257257508291508061222a565b61257c8486611e68565b92506125888286611e68565b60008781526001890160205260409020849055808855905093509350935093565b60008082136125e65760405162461bcd60e51b815260206004820152600960248201526815539111519253915160ba1b60448201526064016105ad565b600060606125f384612955565b03609f8181039490941b90931c6c465772b2bbbb5f824b15207a3081018102606090811d6d0388eaa27412d5aca026815d636e018202811d6d0df99ac502031bf953eff472fdcc018202811d6d13cdffb29d51d99322bdff5f2211018202811d6d0a0f742023def783a307a986912e018202811d6d01920d8043ca89b5239253284e42018202811d6c0b7a86d7375468fac667a0a527016c29508e458543d8aa4df2abee7883018302821d6d0139601a2efabe717e604cbb4894018302821d6d02247f7a7b6594320649aa03aba1018302821d6c8c3f38e95a6b1ff2ab1c3b343619018302821d6d02384773bdf1ac5676facced60901901830290911d6cb9a025d814b29c212b8b1a07cd19019091027ffffffffffffffff5f6af8f7b3396644f18e157960000000000000000000000000105711340daa0d5f769dba1915cef59f0815a5506027d0267a36c0c95b3975ab3ee5b203a7614a3f75373f047d803ae7b6687f2b393909302929092017d57115e47018c7177eebf7cd370a3356a1b7863008a5ae8028c72b88642840160ae1d92915050565b6000680248ce36a70cb26b3e1982136127a557506000919050565b680755bf798b4a1bf1e582126127fd5760405162461bcd60e51b815260206004820152600c60248201527f4558505f4f564552464c4f57000000000000000000000000000000000000000060448201526064016105ad565b6503782dace9d9604e83901b059150600060606bb17217f7d1cf79abc9e3b39884821b056b80000000000000000000000001901d6bb17217f7d1cf79abc9e3b39881029093036c240c330e9fb2d9cbaf0fd5aafb1981018102606090811d6d0277594991cfc85f6e2461837cd9018202811d6d1a521255e34f6a5061b25ef1c9c319018202811d6db1bbb201f443cf962f1a1d3db4a5018202811d6e02c72388d9f74f51a9331fed693f1419018202811d6e05180bb14799ab47a8a8cb2a527d57016d02d16720577bd19bf614176fe9ea6c10fe68e7fd37d0007b713f765084018402831d9081019084016d01d3967ed30fc4f89c02bab5708119010290911d6e0587f503bb6ea29d25fcb7401964500190910279d835ebba824c98fb31b83b2ca45c000000000000000000000000010574029d9dc38563c32e5c2f6dc192ee70ef65f9978af30260c3939093039290921c92915050565b60008082116129925760405162461bcd60e51b815260206004820152600960248201526815539111519253915160ba1b60448201526064016105ad565b5060016fffffffffffffffffffffffffffffffff821160071b82811c67ffffffffffffffff1060061b1782811c63ffffffff1060051b1782811c61ffff1060041b1782811c60ff10600390811b90911783811c600f1060021b1783811c909110821b1791821c111790565b6001600160a01b03811681146106c757600080fd5b60008060408385031215612a2557600080fd5b8235612a30816129fd565b946020939093013593505050565b60008083601f840112612a5057600080fd5b50813567ffffffffffffffff811115612a6857600080fd5b6020830191508360208260051b8501011115612a8357600080fd5b9250929050565b60008060208385031215612a9d57600080fd5b823567ffffffffffffffff811115612ab457600080fd5b612ac085828601612a3e565b90969095509350505050565b600060208284031215612ade57600080fd5b5035919050565b60008060008060408587031215612afb57600080fd5b843567ffffffffffffffff80821115612b1357600080fd5b612b1f88838901612a3e565b90965094506020870135915080821115612b3857600080fd5b50612b4587828801612a3e565b95989497509550505050565b600060208284031215612b6357600080fd5b8135611baf816129fd565b600080600060408486031215612b8357600080fd5b8335612b8e816129fd565b9250602084013567ffffffffffffffff811115612baa57600080fd5b612bb686828701612a3e565b9497909650939450505050565b600081518084526020808501945080840160005b83811015612bf357815187529582019590820190600101612bd7565b509495945050505050565b604080825283519082018190526000906020906060840190828701845b82811015612c405781516001600160a01b031684529284019290840190600101612c1b565b50505083810382850152612c548186612bc3565b9695505050505050565b600080600080600060a08688031215612c7657600080fd5b8535612c81816129fd565b97602087013597506040870135966060810135965060800135945092505050565b6020815260006105316020830184612bc3565b634e487b7160e01b600052603260045260246000fd5b634e487b7160e01b600052601160045260246000fd5b8181038181111561053457610534612ccb565b600060018201612d0657612d06612ccb565b5060010190565b634e487b7160e01b600052604160045260246000fd5b81835260007f07ffffffffffffffffffffffffffffffffffffffffffffffffffffffffffffff831115612d5557600080fd5b8260051b80836020870137939093016020019392505050565b604081526000612d82604083018587612d23565b82810360208481019190915284518083528582019282019060005b81811015612dc25784516001600160a01b031683529383019391830191600101612d9d565b509098975050505050505050565b600060208284031215612de257600080fd5b5051919050565b8082018082111561053457610534612ccb565b6001600160a01b038616815260006020606081840152612e20606084018789612d23565b83810360408501528481528590820160005b86811015612e4e57823582529183019190830190600101612e32565b509998505050505050505050565b602081526000611e60602083018486612d23565b600081612e7f57612e7f612ccb565b506000190190565b60008060408385031215612e9a57600080fd5b8251612ea5816129fd565b6020939093015192949293505050565b634e487b7160e01b600052602160045260246000fd5b600060208284031215612edd57600080fd5b815160048110611baf57600080fd5b604081526000612f00604083018688612d23565b8281036020848101919091528482528591810160005b86811015612f44578335612f29816129fd565b6001600160a01b031682529282019290820190600101612f16565b5098975050505050505050565b808202811582820484141761053457610534612ccb565b634e487b7160e01b600052601260045260246000fd5b600082612f8d57612f8d612f68565b500490565b80820260008212600160ff1b84141615612fae57612fae612ccb565b818105831482151761053457610534612ccb565b600082612fd157612fd1612f68565b600160ff1b821460001984141615612feb57612feb612ccb565b500590565b634e487b7160e01b600052603160045260246000fdfea26469706673582212200f39a9fe62ec1d26232700e5c0999ba97d3a2841d47938742e6227abe72addb764736f6c63430008140033","linkReferences":{}},"methodIdentifiers":{"acceptOwnership()":"79ba5097","balanceOf(address)":"70a08231","claim(uint256[])":"6ba4c138","emergencyUnsetBribes(uint256[])":"08ada2ed","getAlpha()":"f4988a3d","getBribesOf(address,uint256)":"1befbe36","getBribesTotalVotes(address,uint256)":"e720e483","getMasterChef()":"b5644963","getMaxVeMoePerMoe()":"888ed79e","getMoeStaking()":"72f148b8","getPendingRewards(address,uint256[])":"566aff6a","getRewarderFactory()":"5c4323ab","getTopPidsTotalVotes()":"8761e7fb","getTopPoolIds()":"e1e4d419","getTotalVotes()":"9a0e7d66","getTotalVotesOf(address)":"518ab0d0","getTotalWeight()":"06aba0e1","getVeMoePerSecondPerMoe()":"4f913d34","getVotes(uint256)":"ff981099","getVotesOf(address,uint256)":"07532f56","getWeight(uint256)":"d851fdfd","initialize(address)":"c4d66de8","isInTopPoolIds(uint256)":"889e6072","onModify(address,uint256,uint256,uint256,uint256)":"870b50fd","owner()":"8da5cb5b","pendingOwner()":"e30c3978","renounceOwnership()":"715018a6","setAlpha(uint256)":"0c17d42c","setBribes(uint256[],address[])":"af2a73f5","setTopPoolIds(uint256[])":"47eaa2b4","setVeMoePerSecondPerMoe(uint256)":"e21e4146","transferOwnership(address)":"f2fde38b","vote(uint256[],int256[])":"2f4f7fbb"},"id":71}