{"abi":[{"type":"constructor","inputs":[{"name":"moeStaking","type":"address","internalType":"contract IMoeStaking"}],"stateMutability":"nonpayable"},{"type":"receive","stateMutability":"payable"},{"type":"function","name":"acceptOwnership","inputs":[],"outputs":[],"stateMutability":"nonpayable"},{"type":"function","name":"addReward","inputs":[{"name":"reward","type":"address","internalType":"contract IERC20"}],"outputs":[],"stateMutability":"nonpayable"},{"type":"function","name":"claim","inputs":[],"outputs":[],"stateMutability":"nonpayable"},{"type":"function","name":"getMoeStaking","inputs":[],"outputs":[{"name":"","type":"address","internalType":"contract IMoeStaking"}],"stateMutability":"view"},{"type":"function","name":"getNumberOfRewards","inputs":[],"outputs":[{"name":"","type":"uint256","internalType":"uint256"}],"stateMutability":"view"},{"type":"function","name":"getPendingRewards","inputs":[{"name":"account","type":"address","internalType":"address"}],"outputs":[{"name":"tokens","type":"address[]","internalType":"contract IERC20[]"},{"name":"rewards","type":"uint256[]","internalType":"uint256[]"}],"stateMutability":"view"},{"type":"function","name":"getRewardToken","inputs":[{"name":"id","type":"uint256","internalType":"uint256"}],"outputs":[{"name":"","type":"address","internalType":"address"}],"stateMutability":"view"},{"type":"function","name":"getRewardTokens","inputs":[],"outputs":[{"name":"tokens","type":"address[]","internalType":"address[]"}],"stateMutability":"view"},{"type":"function","name":"initialize","inputs":[{"name":"initialOwner","type":"address","internalType":"address"}],"outputs":[],"stateMutability":"nonpayable"},{"type":"function","name":"onModify","inputs":[{"name":"account","type":"address","internalType":"address"},{"name":"oldBalance","type":"uint256","internalType":"uint256"},{"name":"newBalance","type":"uint256","internalType":"uint256"},{"name":"oldTotalSupply","type":"uint256","internalType":"uint256"},{"name":"","type":"uint256","internalType":"uint256"}],"outputs":[],"stateMutability":"nonpayable"},{"type":"function","name":"owner","inputs":[],"outputs":[{"name":"","type":"address","internalType":"address"}],"stateMutability":"view"},{"type":"function","name":"pendingOwner","inputs":[],"outputs":[{"name":"","type":"address","internalType":"address"}],"stateMutability":"view"},{"type":"function","name":"removeReward","inputs":[{"name":"reward","type":"address","internalType":"contract IERC20"}],"outputs":[],"stateMutability":"nonpayable"},{"type":"function","name":"renounceOwnership","inputs":[],"outputs":[],"stateMutability":"pure"},{"type":"function","name":"sweep","inputs":[{"name":"token","type":"address","internalType":"contract IERC20"},{"name":"account","type":"address","internalType":"address"}],"outputs":[],"stateMutability":"nonpayable"},{"type":"function","name":"transferOwnership","inputs":[{"name":"newOwner","type":"address","internalType":"address"}],"outputs":[],"stateMutability":"nonpayable"},{"type":"event","name":"AddReward","inputs":[{"name":"reward","type":"address","indexed":true,"internalType":"contract IERC20"}],"anonymous":false},{"type":"event","name":"Claim","inputs":[{"name":"account","type":"address","indexed":true,"internalType":"address"},{"name":"token","type":"address","indexed":true,"internalType":"contract IERC20"},{"name":"amount","type":"uint256","indexed":false,"internalType":"uint256"}],"anonymous":false},{"type":"event","name":"Initialized","inputs":[{"name":"version","type":"uint64","indexed":false,"internalType":"uint64"}],"anonymous":false},{"type":"event","name":"OwnershipTransferStarted","inputs":[{"name":"previousOwner","type":"address","indexed":true,"internalType":"address"},{"name":"newOwner","type":"address","indexed":true,"internalType":"address"}],"anonymous":false},{"type":"event","name":"OwnershipTransferred","inputs":[{"name":"previousOwner","type":"address","indexed":true,"internalType":"address"},{"name":"newOwner","type":"address","indexed":true,"internalType":"address"}],"anonymous":false},{"type":"event","name":"RemoveReward","inputs":[{"name":"reward","type":"address","indexed":true,"internalType":"contract IERC20"}],"anonymous":false},{"type":"event","name":"Sweep","inputs":[{"name":"token","type":"address","indexed":true,"internalType":"contract IERC20"},{"name":"account","type":"address","indexed":true,"internalType":"address"}],"anonymous":false},{"type":"error","name":"AddressEmptyCode","inputs":[{"name":"target","type":"address","internalType":"address"}]},{"type":"error","name":"AddressInsufficientBalance","inputs":[{"name":"account","type":"address","internalType":"address"}]},{"type":"error","name":"FailedInnerCall","inputs":[]},{"type":"error","name":"InvalidInitialization","inputs":[]},{"type":"error","name":"NotInitializing","inputs":[]},{"type":"error","name":"OwnableInvalidOwner","inputs":[{"name":"owner","type":"address","internalType":"address"}]},{"type":"error","name":"OwnableUnauthorizedAccount","inputs":[{"name":"account","type":"address","internalType":"address"}]},{"type":"error","name":"SafeERC20FailedOperation","inputs":[{"name":"token","type":"address","internalType":"address"}]},{"type":"error","name":"StableMoe__ActiveReward","inputs":[{"name":"reward","type":"address","internalType":"contract IERC20"}]},{"type":"error","name":"StableMoe__CannotRenounceOwnership","inputs":[]},{"type":"error","name":"StableMoe__NativeTransferFailed","inputs":[]},{"type":"error","name":"StableMoe__RewardAlreadyAdded","inputs":[{"name":"reward","type":"address","internalType":"contract IERC20"}]},{"type":"error","name":"StableMoe__RewardAlreadyRemoved","inputs":[{"name":"reward","type":"address","internalType":"contract IERC20"}]},{"type":"error","name":"StableMoe__TooManyActiveRewards","inputs":[]},{"type":"error","name":"StableMoe__UnauthorizedCaller","inputs":[]}],"bytecode":{"object":"0x60a06040523480156200001157600080fd5b5060405162001a5838038062001a58833981016040819052620000349162000104565b6200003e62000050565b6001600160a01b031660805262000136565b7ff0c57e16840df040f15088dc2f81fe391c3923bec73e23a9662efc9c229c6a00805468010000000000000000900460ff1615620000a15760405163f92ee8a960e01b815260040160405180910390fd5b80546001600160401b0390811614620001015780546001600160401b0319166001600160401b0390811782556040519081527fc7f505b2f371ae2175ee4913f4499e1f2633a7b5936321eed1cdaeb6115181d29060200160405180910390a15b50565b6000602082840312156200011757600080fd5b81516001600160a01b03811681146200012f57600080fd5b9392505050565b6080516118e3620001756000396000818161017b0152818161033b015281816103b4015281816104b7015281816109a30152610a4801526118e36000f3fe6080604052600436106100f75760003560e01c8063a4d5e67c1161008a578063e30c397811610059578063e30c39781461028b578063e5437265146102a0578063f2fde38b146102c3578063f6ed2017146102e357600080fd5b8063a4d5e67c14610209578063b8dc491b14610229578063c4d66de814610249578063c4f59f9b1461026957600080fd5b806379ba5097116100c657806379ba50971461019f578063870b50fd146101b45780638da5cb5b146101d45780639c9b2e21146101e957600080fd5b8063134b6edb146101035780634e71d92d14610140578063715018a61461015757806372f148b81461016c57600080fd5b366100fe57005b600080fd5b34801561010f57600080fd5b5061012361011e3660046115da565b610311565b6040516001600160a01b0390911681526020015b60405180910390f35b34801561014c57600080fd5b50610155610323565b005b34801561016357600080fd5b50610155610446565b34801561017857600080fd5b507f0000000000000000000000000000000000000000000000000000000000000000610123565b3480156101ab57600080fd5b5061015561045f565b3480156101c057600080fd5b506101556101cf366004611608565b6104ac565b3480156101e057600080fd5b50610123610508565b3480156101f557600080fd5b5061015561020436600461164c565b61053d565b34801561021557600080fd5b5061015561022436600461164c565b610610565b34801561023557600080fd5b50610155610244366004611669565b610682565b34801561025557600080fd5b5061015561026436600461164c565b610715565b34801561027557600080fd5b5061027e610839565b60405161013791906116a2565b34801561029757600080fd5b5061012361084a565b3480156102ac57600080fd5b506102b5610873565b604051908152602001610137565b3480156102cf57600080fd5b506101556102de36600461164c565b61087f565b3480156102ef57600080fd5b506103036102fe36600461164c565b610904565b6040516101379291906116ef565b600061031d8183610b75565b92915050565b604051637092a7dd60e11b81523360048201526000907f00000000000000000000000000000000000000000000000000000000000000006001600160a01b03169063e1254fba90602401602060405180830381865afa15801561038a573d6000803e3d6000fd5b505050506040513d601f19601f820116820180604052508101906103ae9190611773565b905060007f00000000000000000000000000000000000000000000000000000000000000006001600160a01b031663c022215c6040518163ffffffff1660e01b8152600401602060405180830381865afa158015610410573d6000803e3d6000fd5b505050506040513d601f19601f820116820180604052508101906104349190611773565b905061044233838484610b88565b5050565b6040516325e0109d60e01b815260040160405180910390fd5b338061046961084a565b6001600160a01b0316146104a05760405163118cdaa760e01b81526001600160a01b03821660048201526024015b60405180910390fd5b6104a981610dcc565b50565b336001600160a01b037f000000000000000000000000000000000000000000000000000000000000000016146104f55760405163e76991ef60e01b815260040160405180910390fd5b61050185858585610b88565b5050505050565b6000807f9016d09d72d40fdae2fd8ceac6b6234c7706214fd39c1cd1e609a0528c1993005b546001600160a01b031692915050565b610545610e04565b610550600082610e38565b158061057657506001600160a01b03811660009081526002602052604090206001015415155b1561059f57604051630de2afbb60e31b81526001600160a01b0382166004820152602401610497565b60206105ab6000610e4d565b11156105ca5760405163048d575f60e01b815260040160405180910390fd5b6001600160a01b0381166000818152600260205260408082206000199055517f1714865bf5baa84e3439536a013c87cfe030b4cd69f344a5f2a4877de3d517ce9190a250565b610618610e04565b610623600082610e57565b61064b576040516326c3f06f60e21b81526001600160a01b0382166004820152602401610497565b6040516001600160a01b038216907f963b7c735475147a62c589c2d7cb8ec4b0a6b7af4f97373d79ebfa42ab8aa7dc90600090a250565b61068a610e04565b610695600083610e6c565b156106be5760405163ba8600cd60e01b81526001600160a01b0383166004820152602401610497565b6106d182826106cc85610e8e565b610f13565b806001600160a01b0316826001600160a01b03167f951f51ee88c8e42633698bba90d1e53c0954470938036879e691c0232b47e09660405160405180910390a35050565b7ff0c57e16840df040f15088dc2f81fe391c3923bec73e23a9662efc9c229c6a00805468010000000000000000810460ff16159067ffffffffffffffff166000811580156107605750825b905060008267ffffffffffffffff16600114801561077d5750303b155b90508115801561078b575080155b156107a95760405163f92ee8a960e01b815260040160405180910390fd5b845467ffffffffffffffff1916600117855583156107dd57845468ff00000000000000001916680100000000000000001785555b6107e686610fc1565b831561083157845468ff000000000000000019168555604051600181527fc7f505b2f371ae2175ee4913f4499e1f2633a7b5936321eed1cdaeb6115181d29060200160405180910390a15b505050505050565b60606108456000610fd2565b905090565b6000807f237e158222e3e6968b72b9db0d8043aacf074ad9f650f0d1606b4d82ee432c0061052d565b60006108456000610e4d565b610887610e04565b7f237e158222e3e6968b72b9db0d8043aacf074ad9f650f0d1606b4d82ee432c0080546001600160a01b0319166001600160a01b03831690811782556108cb610508565b6001600160a01b03167f38d16b8cac22d99fc7c124b9cd0de2d3fa1faef420bfe791d8c362d765e2270060405160405180910390a35050565b60608060006109136000610e4d565b90508067ffffffffffffffff81111561092e5761092e61178c565b604051908082528060200260200182016040528015610957578160200160208202803683370190505b5092508067ffffffffffffffff8111156109735761097361178c565b60405190808252806020026020018201604052801561099c578160200160208202803683370190505b50915060007f00000000000000000000000000000000000000000000000000000000000000006001600160a01b031663c022215c6040518163ffffffff1660e01b8152600401602060405180830381865afa1580156109ff573d6000803e3d6000fd5b505050506040513d601f19601f82011682018060405250810190610a239190611773565b604051637092a7dd60e11b81526001600160a01b0387811660048301529192506000917f0000000000000000000000000000000000000000000000000000000000000000169063e1254fba90602401602060405180830381865afa158015610a8f573d6000803e3d6000fd5b505050506040513d601f19601f82011682018060405250810190610ab39190611773565b905060005b83811015610b6c576000610acc8183610b75565b6001600160a01b0381166000908152600260205260408120600381015492935091610af684610e8e565b610b0091906117b8565b905082898581518110610b1557610b156117cb565b6001600160a01b0390921660209283029190910190910152610b3a828b878985610fdf565b888581518110610b4c57610b4c6117cb565b60200260200101818152505050505080610b65906117e1565b9050610ab8565b50505050915091565b6000610b818383611045565b9392505050565b6000610b946000610e4d565b905060008167ffffffffffffffff811115610bb157610bb161178c565b604051908082528060200260200182016040528015610bda578160200160208202803683370190505b50905060008267ffffffffffffffff811115610bf857610bf861178c565b604051908082528060200260200182016040528015610c21578160200160208202803683370190505b50905060005b83811015610d0f576000610c3b8183610b75565b6001600160a01b0381166000908152600260205260408120600381015492935091908815610c7157610c6c84610e8e565b610c73565b815b90506000610c8183836117b8565b90506000610c93858f8f8f8f8761106f565b905085898881518110610ca857610ca86117cb565b60200260200101906001600160a01b031690816001600160a01b03168152505080888881518110610cdb57610cdb6117cb565b6020908102919091010152610cf081846117b8565b856003018190555050505050505080610d08906117e1565b9050610c27565b5060005b83811015610dc2576000838281518110610d2f57610d2f6117cb565b602002602001015190506000838381518110610d4d57610d4d6117cb565b60200260200101519050610d62828b83610f13565b816001600160a01b03168a6001600160a01b03167f70eb43c4a8ae8c40502dcf22436c509c28d6ff421cf07c491be56984bd98706883604051610da791815260200190565b60405180910390a3505080610dbb906117e1565b9050610d13565b5050505050505050565b7f237e158222e3e6968b72b9db0d8043aacf074ad9f650f0d1606b4d82ee432c0080546001600160a01b0319168155610442826110f3565b33610e0d610508565b6001600160a01b031614610e365760405163118cdaa760e01b8152336004820152602401610497565b565b6000610b81836001600160a01b038416611164565b600061031d825490565b6000610b81836001600160a01b0384166111b3565b6001600160a01b03811660009081526001830160205260408120541515610b81565b60006001600160a01b03821615610f0c576040516370a0823160e01b81523060048201526001600160a01b038316906370a0823190602401602060405180830381865afa158015610ee3573d6000803e3d6000fd5b505050506040513d601f19601f82011682018060405250810190610f079190611773565b61031d565b4792915050565b80600003610f2057505050565b6001600160a01b038316610fa8576000826001600160a01b03168260405160006040518083038185875af1925050503d8060008114610f7b576040519150601f19603f3d011682016040523d82523d6000602084013e610f80565b606091505b5050905080610fa25760405163ba1584fd60e01b815260040160405180910390fd5b50505050565b610fbc6001600160a01b03841683836112a6565b505050565b610fc961130d565b6104a98161135b565b60606000610b818361138d565b600080610fec84846113e9565b8760010154610ffb91906117fa565b90508415611037576001600160a01b0386166000908152600288016020526040902054611028828761140d565b61103291906117b8565b61103a565b60005b979650505050505050565b600082600001828154811061105c5761105c6117cb565b9060005260206000200154905092915050565b60008061107d888585611424565b905085156110b9576001600160a01b03871660009081526002890160205260409020546110aa828861140d565b6110b491906117b8565b6110bc565b60005b91506110c8818661140d565b6001600160a01b03909716600090815260029098016020525060409096209490945550929392505050565b7f9016d09d72d40fdae2fd8ceac6b6234c7706214fd39c1cd1e609a0528c19930080546001600160a01b031981166001600160a01b03848116918217845560405192169182907f8be0079c531659141344cd1fd0a4f28419497f9722a3daafe3b4186f6b6457e090600090a3505050565b60008181526001830160205260408120546111ab5750815460018181018455600084815260208082209093018490558454848252828601909352604090209190915561031d565b50600061031d565b6000818152600183016020526040812054801561129c5760006111d76001836117b8565b85549091506000906111eb906001906117b8565b905080821461125057600086600001828154811061120b5761120b6117cb565b906000526020600020015490508087600001848154811061122e5761122e6117cb565b6000918252602080832090910192909255918252600188019052604090208390555b85548690806112615761126161180d565b60019003818190600052602060002001600090559055856001016000868152602001908152602001600020600090556001935050505061031d565b600091505061031d565b604080516001600160a01b038416602482015260448082018490528251808303909101815260649091019091526020810180517bffffffffffffffffffffffffffffffffffffffffffffffffffffffff1663a9059cbb60e01b179052610fbc908490611475565b7ff0c57e16840df040f15088dc2f81fe391c3923bec73e23a9662efc9c229c6a005468010000000000000000900460ff16610e3657604051631afcd79f60e31b815260040160405180910390fd5b61136361130d565b6001600160a01b0381166104a057604051631e4fbdf760e01b815260006004820152602401610497565b6060816000018054806020026020016040519081016040528092919081815260200182805480156113dd57602002820191906000526020600020905b8154815260200190600101908083116113c9575b50505050509050919050565b60008215611404576113ff83604084901b611823565b610b81565b50600092915050565b6000604061141b8484611845565b901c9392505050565b60008061143184846113e9565b8554909150421115611441574285555b8015611466578085600101600082825461145b91906117fa565b92505081905561146c565b84600101545b95945050505050565b600061148a6001600160a01b038416836114d8565b905080516000141580156114af5750808060200190518101906114ad919061185c565b155b15610fbc57604051635274afe760e01b81526001600160a01b0384166004820152602401610497565b6060610b818383600084600080856001600160a01b031684866040516114fe919061187e565b60006040518083038185875af1925050503d806000811461153b576040519150601f19603f3d011682016040523d82523d6000602084013e611540565b606091505b509150915061155086838361155a565b9695505050505050565b60608261156a576113ff826115b1565b815115801561158157506001600160a01b0384163b155b156115aa57604051639996b31560e01b81526001600160a01b0385166004820152602401610497565b5080610b81565b8051156115c15780518082602001fd5b604051630a12f52160e11b815260040160405180910390fd5b6000602082840312156115ec57600080fd5b5035919050565b6001600160a01b03811681146104a957600080fd5b600080600080600060a0868803121561162057600080fd5b853561162b816115f3565b97602087013597506040870135966060810135965060800135945092505050565b60006020828403121561165e57600080fd5b8135610b81816115f3565b6000806040838503121561167c57600080fd5b8235611687816115f3565b91506020830135611697816115f3565b809150509250929050565b6020808252825182820181905260009190848201906040850190845b818110156116e35783516001600160a01b0316835292840192918401916001016116be565b50909695505050505050565b604080825283519082018190526000906020906060840190828701845b828110156117315781516001600160a01b03168452928401929084019060010161170c565b5050508381038285015284518082528583019183019060005b818110156117665783518352928401929184019160010161174a565b5090979650505050505050565b60006020828403121561178557600080fd5b5051919050565b634e487b7160e01b600052604160045260246000fd5b634e487b7160e01b600052601160045260246000fd5b8181038181111561031d5761031d6117a2565b634e487b7160e01b600052603260045260246000fd5b6000600182016117f3576117f36117a2565b5060010190565b8082018082111561031d5761031d6117a2565b634e487b7160e01b600052603160045260246000fd5b60008261184057634e487b7160e01b600052601260045260246000fd5b500490565b808202811582820484141761031d5761031d6117a2565b60006020828403121561186e57600080fd5b81518015158114610b8157600080fd5b6000825160005b8181101561189f5760208186018101518583015201611885565b50600092019182525091905056fea2646970667358221220c4a12759f8ccc95c7988a1c91a1b121aeebb6f0001a48386321a27177f99ae1e64736f6c63430008140033","linkReferences":{}},"methodIdentifiers":{"acceptOwnership()":"79ba5097","addReward(address)":"9c9b2e21","claim()":"4e71d92d","getMoeStaking()":"72f148b8","getNumberOfRewards()":"e5437265","getPendingRewards(address)":"f6ed2017","getRewardToken(uint256)":"134b6edb","getRewardTokens()":"c4f59f9b","initialize(address)":"c4d66de8","onModify(address,uint256,uint256,uint256,uint256)":"870b50fd","owner()":"8da5cb5b","pendingOwner()":"e30c3978","removeReward(address)":"a4d5e67c","renounceOwnership()":"715018a6","sweep(address,address)":"b8dc491b","transferOwnership(address)":"f2fde38b"},"id":69}