{
  "abi": [
    {
      "inputs": [
        {
          "internalType": "contract IMoeStaking",
          "name": "moeStaking",
          "type": "address"
        }
      ],
      "stateMutability": "nonpayable",
      "type": "constructor"
    },
    {
      "inputs": [
        {
          "internalType": "address",
          "name": "target",
          "type": "address"
        }
      ],
      "name": "AddressEmptyCode",
      "type": "error"
    },
    {
      "inputs": [
        {
          "internalType": "address",
          "name": "account",
          "type": "address"
        }
      ],
      "name": "AddressInsufficientBalance",
      "type": "error"
    },
    {
      "inputs": [],
      "name": "FailedInnerCall",
      "type": "error"
    },
    {
      "inputs": [],
      "name": "InvalidInitialization",
      "type": "error"
    },
    {
      "inputs": [],
      "name": "NotInitializing",
      "type": "error"
    },
    {
      "inputs": [
        {
          "internalType": "address",
          "name": "owner",
          "type": "address"
        }
      ],
      "name": "OwnableInvalidOwner",
      "type": "error"
    },
    {
      "inputs": [
        {
          "internalType": "address",
          "name": "account",
          "type": "address"
        }
      ],
      "name": "OwnableUnauthorizedAccount",
      "type": "error"
    },
    {
      "inputs": [
        {
          "internalType": "address",
          "name": "token",
          "type": "address"
        }
      ],
      "name": "SafeERC20FailedOperation",
      "type": "error"
    },
    {
      "inputs": [
        {
          "internalType": "contract IERC20",
          "name": "reward",
          "type": "address"
        }
      ],
      "name": "StableMoe__ActiveReward",
      "type": "error"
    },
    {
      "inputs": [],
      "name": "StableMoe__NativeTransferFailed",
      "type": "error"
    },
    {
      "inputs": [
        {
          "internalType": "contract IERC20",
          "name": "reward",
          "type": "address"
        }
      ],
      "name": "StableMoe__RewardAlreadyAdded",
      "type": "error"
    },
    {
      "inputs": [
        {
          "internalType": "contract IERC20",
          "name": "reward",
          "type": "address"
        }
      ],
      "name": "StableMoe__RewardAlreadyRemoved",
      "type": "error"
    },
    {
      "inputs": [],
      "name": "StableMoe__TooManyActiveRewards",
      "type": "error"
    },
    {
      "inputs": [],
      "name": "StableMoe__UnauthorizedCaller",
      "type": "error"
    },
    {
      "anonymous": false,
      "inputs": [
        {
          "indexed": true,
          "internalType": "contract IERC20",
          "name": "reward",
          "type": "address"
        }
      ],
      "name": "AddReward",
      "type": "event"
    },
    {
      "anonymous": false,
      "inputs": [
        {
          "indexed": true,
          "internalType": "address",
          "name": "account",
          "type": "address"
        },
        {
          "indexed": true,
          "internalType": "contract IERC20",
          "name": "token",
          "type": "address"
        },
        {
          "indexed": false,
          "internalType": "uint256",
          "name": "amount",
          "type": "uint256"
        }
      ],
      "name": "Claim",
      "type": "event"
    },
    {
      "anonymous": false,
      "inputs": [
        {
          "indexed": false,
          "internalType": "uint64",
          "name": "version",
          "type": "uint64"
        }
      ],
      "name": "Initialized",
      "type": "event"
    },
    {
      "anonymous": false,
      "inputs": [
        {
          "indexed": true,
          "internalType": "address",
          "name": "previousOwner",
          "type": "address"
        },
        {
          "indexed": true,
          "internalType": "address",
          "name": "newOwner",
          "type": "address"
        }
      ],
      "name": "OwnershipTransferStarted",
      "type": "event"
    },
    {
      "anonymous": false,
      "inputs": [
        {
          "indexed": true,
          "internalType": "address",
          "name": "previousOwner",
          "type": "address"
        },
        {
          "indexed": true,
          "internalType": "address",
          "name": "newOwner",
          "type": "address"
        }
      ],
      "name": "OwnershipTransferred",
      "type": "event"
    },
    {
      "anonymous": false,
      "inputs": [
        {
          "indexed": true,
          "internalType": "contract IERC20",
          "name": "reward",
          "type": "address"
        }
      ],
      "name": "RemoveReward",
      "type": "event"
    },
    {
      "anonymous": false,
      "inputs": [
        {
          "indexed": true,
          "internalType": "contract IERC20",
          "name": "token",
          "type": "address"
        },
        {
          "indexed": true,
          "internalType": "address",
          "name": "account",
          "type": "address"
        }
      ],
      "name": "Sweep",
      "type": "event"
    },
    {
      "inputs": [],
      "name": "acceptOwnership",
      "outputs": [],
      "stateMutability": "nonpayable",
      "type": "function"
    },
    {
      "inputs": [
        {
          "internalType": "contract IERC20",
          "name": "reward",
          "type": "address"
        }
      ],
      "name": "addReward",
      "outputs": [],
      "stateMutability": "nonpayable",
      "type": "function"
    },
    {
      "inputs": [],
      "name": "claim",
      "outputs": [],
      "stateMutability": "nonpayable",
      "type": "function"
    },
    {
      "inputs": [],
      "name": "getMoeStaking",
      "outputs": [
        {
          "internalType": "contract IMoeStaking",
          "name": "",
          "type": "address"
        }
      ],
      "stateMutability": "view",
      "type": "function"
    },
    {
      "inputs": [],
      "name": "getNumberOfRewards",
      "outputs": [
        {
          "internalType": "uint256",
          "name": "",
          "type": "uint256"
        }
      ],
      "stateMutability": "view",
      "type": "function"
    },
    {
      "inputs": [
        {
          "internalType": "address",
          "name": "account",
          "type": "address"
        }
      ],
      "name": "getPendingRewards",
      "outputs": [
        {
          "internalType": "contract IERC20[]",
          "name": "tokens",
          "type": "address[]"
        },
        {
          "internalType": "uint256[]",
          "name": "rewards",
          "type": "uint256[]"
        }
      ],
      "stateMutability": "view",
      "type": "function"
    },
    {
      "inputs": [
        {
          "internalType": "uint256",
          "name": "id",
          "type": "uint256"
        }
      ],
      "name": "getRewardToken",
      "outputs": [
        {
          "internalType": "address",
          "name": "",
          "type": "address"
        }
      ],
      "stateMutability": "view",
      "type": "function"
    },
    {
      "inputs": [],
      "name": "getRewardTokens",
      "outputs": [
        {
          "internalType": "address[]",
          "name": "tokens",
          "type": "address[]"
        }
      ],
      "stateMutability": "view",
      "type": "function"
    },
    {
      "inputs": [
        {
          "internalType": "address",
          "name": "initialOwner",
          "type": "address"
        }
      ],
      "name": "initialize",
      "outputs": [],
      "stateMutability": "nonpayable",
      "type": "function"
    },
    {
      "inputs": [
        {
          "internalType": "address",
          "name": "account",
          "type": "address"
        },
        {
          "internalType": "uint256",
          "name": "oldBalance",
          "type": "uint256"
        },
        {
          "internalType": "uint256",
          "name": "newBalance",
          "type": "uint256"
        },
        {
          "internalType": "uint256",
          "name": "oldTotalSupply",
          "type": "uint256"
        },
        {
          "internalType": "uint256",
          "name": "",
          "type": "uint256"
        }
      ],
      "name": "onModify",
      "outputs": [],
      "stateMutability": "nonpayable",
      "type": "function"
    },
    {
      "inputs": [],
      "name": "owner",
      "outputs": [
        {
          "internalType": "address",
          "name": "",
          "type": "address"
        }
      ],
      "stateMutability": "view",
      "type": "function"
    },
    {
      "inputs": [],
      "name": "pendingOwner",
      "outputs": [
        {
          "internalType": "address",
          "name": "",
          "type": "address"
        }
      ],
      "stateMutability": "view",
      "type": "function"
    },
    {
      "inputs": [
        {
          "internalType": "contract IERC20",
          "name": "reward",
          "type": "address"
        }
      ],
      "name": "removeReward",
      "outputs": [],
      "stateMutability": "nonpayable",
      "type": "function"
    },
    {
      "inputs": [],
      "name": "renounceOwnership",
      "outputs": [],
      "stateMutability": "nonpayable",
      "type": "function"
    },
    {
      "inputs": [
        {
          "internalType": "contract IERC20",
          "name": "token",
          "type": "address"
        },
        {
          "internalType": "address",
          "name": "account",
          "type": "address"
        }
      ],
      "name": "sweep",
      "outputs": [],
      "stateMutability": "nonpayable",
      "type": "function"
    },
    {
      "inputs": [
        {
          "internalType": "address",
          "name": "newOwner",
          "type": "address"
        }
      ],
      "name": "transferOwnership",
      "outputs": [],
      "stateMutability": "nonpayable",
      "type": "function"
    },
    {
      "stateMutability": "payable",
      "type": "receive"
    }
  ],
  "bytecode": {
    "object": "0x60a06040523480156200001157600080fd5b5060405162001a3538038062001a35833981016040819052620000349162000104565b6200003e62000050565b6001600160a01b031660805262000136565b7ff0c57e16840df040f15088dc2f81fe391c3923bec73e23a9662efc9c229c6a00805468010000000000000000900460ff1615620000a15760405163f92ee8a960e01b815260040160405180910390fd5b80546001600160401b0390811614620001015780546001600160401b0319166001600160401b0390811782556040519081527fc7f505b2f371ae2175ee4913f4499e1f2633a7b5936321eed1cdaeb6115181d29060200160405180910390a15b50565b6000602082840312156200011757600080fd5b81516001600160a01b03811681146200012f57600080fd5b9392505050565b6080516118c0620001756000396000818161017b0152818161033b015281816103b4015281816104b20152818161098f0152610a3401526118c06000f3fe6080604052600436106100f75760003560e01c8063a4d5e67c1161008a578063e30c397811610059578063e30c39781461028b578063e5437265146102a0578063f2fde38b146102c3578063f6ed2017146102e357600080fd5b8063a4d5e67c14610209578063b8dc491b14610229578063c4d66de814610249578063c4f59f9b1461026957600080fd5b806379ba5097116100c657806379ba50971461019f578063870b50fd146101b45780638da5cb5b146101d45780639c9b2e21146101e957600080fd5b8063134b6edb146101035780634e71d92d14610140578063715018a61461015757806372f148b81461016c57600080fd5b366100fe57005b600080fd5b34801561010f57600080fd5b5061012361011e3660046115b7565b610311565b6040516001600160a01b0390911681526020015b60405180910390f35b34801561014c57600080fd5b50610155610323565b005b34801561016357600080fd5b50610155610446565b34801561017857600080fd5b507f0000000000000000000000000000000000000000000000000000000000000000610123565b3480156101ab57600080fd5b5061015561045a565b3480156101c057600080fd5b506101556101cf3660046115e5565b6104a7565b3480156101e057600080fd5b50610123610503565b3480156101f557600080fd5b50610155610204366004611629565b610538565b34801561021557600080fd5b50610155610224366004611629565b6105fc565b34801561023557600080fd5b50610155610244366004611646565b61066e565b34801561025557600080fd5b50610155610264366004611629565b610701565b34801561027557600080fd5b5061027e610825565b604051610137919061167f565b34801561029757600080fd5b50610123610836565b3480156102ac57600080fd5b506102b561085f565b604051908152602001610137565b3480156102cf57600080fd5b506101556102de366004611629565b61086b565b3480156102ef57600080fd5b506103036102fe366004611629565b6108f0565b6040516101379291906116cc565b600061031d8183610b61565b92915050565b604051637092a7dd60e11b81523360048201526000907f00000000000000000000000000000000000000000000000000000000000000006001600160a01b03169063e1254fba90602401602060405180830381865afa15801561038a573d6000803e3d6000fd5b505050506040513d601f19601f820116820180604052508101906103ae9190611750565b905060007f00000000000000000000000000000000000000000000000000000000000000006001600160a01b031663c022215c6040518163ffffffff1660e01b8152600401602060405180830381865afa158015610410573d6000803e3d6000fd5b505050506040513d601f19601f820116820180604052508101906104349190611750565b905061044233838484610b74565b5050565b61044e610dab565b6104586000610ddd565b565b3380610464610836565b6001600160a01b03161461049b5760405163118cdaa760e01b81526001600160a01b03821660048201526024015b60405180910390fd5b6104a481610ddd565b50565b336001600160a01b037f000000000000000000000000000000000000000000000000000000000000000016146104f05760405163e76991ef60e01b815260040160405180910390fd5b6104fc85858585610b74565b5050505050565b6000807f9016d09d72d40fdae2fd8ceac6b6234c7706214fd39c1cd1e609a0528c1993005b546001600160a01b031692915050565b610540610dab565b61054b600082610e15565b158061057157506001600160a01b03811660009081526002602052604090206001015415155b1561059a57604051630de2afbb60e31b81526001600160a01b0382166004820152602401610492565b60206105a66000610e2a565b11156105c55760405163048d575f60e01b815260040160405180910390fd5b6040516001600160a01b038216907f1714865bf5baa84e3439536a013c87cfe030b4cd69f344a5f2a4877de3d517ce90600090a250565b610604610dab565b61060f600082610e34565b610637576040516326c3f06f60e21b81526001600160a01b0382166004820152602401610492565b6040516001600160a01b038216907f963b7c735475147a62c589c2d7cb8ec4b0a6b7af4f97373d79ebfa42ab8aa7dc90600090a250565b610676610dab565b610681600083610e49565b156106aa5760405163ba8600cd60e01b81526001600160a01b0383166004820152602401610492565b6106bd82826106b885610e6b565b610ef0565b806001600160a01b0316826001600160a01b03167f951f51ee88c8e42633698bba90d1e53c0954470938036879e691c0232b47e09660405160405180910390a35050565b7ff0c57e16840df040f15088dc2f81fe391c3923bec73e23a9662efc9c229c6a00805468010000000000000000810460ff16159067ffffffffffffffff1660008115801561074c5750825b905060008267ffffffffffffffff1660011480156107695750303b155b905081158015610777575080155b156107955760405163f92ee8a960e01b815260040160405180910390fd5b845467ffffffffffffffff1916600117855583156107c957845468ff00000000000000001916680100000000000000001785555b6107d286610f9e565b831561081d57845468ff000000000000000019168555604051600181527fc7f505b2f371ae2175ee4913f4499e1f2633a7b5936321eed1cdaeb6115181d29060200160405180910390a15b505050505050565b60606108316000610faf565b905090565b6000807f237e158222e3e6968b72b9db0d8043aacf074ad9f650f0d1606b4d82ee432c00610528565b60006108316000610e2a565b610873610dab565b7f237e158222e3e6968b72b9db0d8043aacf074ad9f650f0d1606b4d82ee432c0080546001600160a01b0319166001600160a01b03831690811782556108b7610503565b6001600160a01b03167f38d16b8cac22d99fc7c124b9cd0de2d3fa1faef420bfe791d8c362d765e2270060405160405180910390a35050565b60608060006108ff6000610e2a565b90508067ffffffffffffffff81111561091a5761091a611769565b604051908082528060200260200182016040528015610943578160200160208202803683370190505b5092508067ffffffffffffffff81111561095f5761095f611769565b604051908082528060200260200182016040528015610988578160200160208202803683370190505b50915060007f00000000000000000000000000000000000000000000000000000000000000006001600160a01b031663c022215c6040518163ffffffff1660e01b8152600401602060405180830381865afa1580156109eb573d6000803e3d6000fd5b505050506040513d601f19601f82011682018060405250810190610a0f9190611750565b604051637092a7dd60e11b81526001600160a01b0387811660048301529192506000917f0000000000000000000000000000000000000000000000000000000000000000169063e1254fba90602401602060405180830381865afa158015610a7b573d6000803e3d6000fd5b505050506040513d601f19601f82011682018060405250810190610a9f9190611750565b905060005b83811015610b58576000610ab88183610b61565b6001600160a01b0381166000908152600260205260408120600381015492935091610ae284610e6b565b610aec9190611795565b905082898581518110610b0157610b016117a8565b6001600160a01b0390921660209283029190910190910152610b26828b878985610fbc565b888581518110610b3857610b386117a8565b60200260200101818152505050505080610b51906117be565b9050610aa4565b50505050915091565b6000610b6d8383611022565b9392505050565b6000610b806000610e2a565b905060008167ffffffffffffffff811115610b9d57610b9d611769565b604051908082528060200260200182016040528015610bc6578160200160208202803683370190505b50905060008267ffffffffffffffff811115610be457610be4611769565b604051908082528060200260200182016040528015610c0d578160200160208202803683370190505b50905060005b83811015610cee576000610c278183610b61565b6001600160a01b038116600090815260026020526040812060038101549293509190610c5284610e6b565b90506000610c608383611795565b90506000610c72858f8f8f8f8761104c565b905085898881518110610c8757610c876117a8565b60200260200101906001600160a01b031690816001600160a01b03168152505080888881518110610cba57610cba6117a8565b6020908102919091010152610ccf8184611795565b856003018190555050505050505080610ce7906117be565b9050610c13565b5060005b83811015610da1576000838281518110610d0e57610d0e6117a8565b602002602001015190506000838381518110610d2c57610d2c6117a8565b60200260200101519050610d41828b83610ef0565b816001600160a01b03168a6001600160a01b03167f70eb43c4a8ae8c40502dcf22436c509c28d6ff421cf07c491be56984bd98706883604051610d8691815260200190565b60405180910390a3505080610d9a906117be565b9050610cf2565b5050505050505050565b33610db4610503565b6001600160a01b0316146104585760405163118cdaa760e01b8152336004820152602401610492565b7f237e158222e3e6968b72b9db0d8043aacf074ad9f650f0d1606b4d82ee432c0080546001600160a01b0319168155610442826110d0565b6000610b6d836001600160a01b038416611141565b600061031d825490565b6000610b6d836001600160a01b038416611190565b6001600160a01b03811660009081526001830160205260408120541515610b6d565b60006001600160a01b03821615610ee9576040516370a0823160e01b81523060048201526001600160a01b038316906370a0823190602401602060405180830381865afa158015610ec0573d6000803e3d6000fd5b505050506040513d601f19601f82011682018060405250810190610ee49190611750565b61031d565b4792915050565b80600003610efd57505050565b6001600160a01b038316610f85576000826001600160a01b03168260405160006040518083038185875af1925050503d8060008114610f58576040519150601f19603f3d011682016040523d82523d6000602084013e610f5d565b606091505b5050905080610f7f5760405163ba1584fd60e01b815260040160405180910390fd5b50505050565b610f996001600160a01b0384168383611283565b505050565b610fa66112ea565b6104a481611338565b60606000610b6d8361136a565b600080610fc984846113c6565b8760010154610fd891906117d7565b90508415611014576001600160a01b038616600090815260028801602052604090205461100582876113ea565b61100f9190611795565b611017565b60005b979650505050505050565b6000826000018281548110611039576110396117a8565b9060005260206000200154905092915050565b60008061105a888585611401565b90508515611096576001600160a01b038716600090815260028901602052604090205461108782886113ea565b6110919190611795565b611099565b60005b91506110a581866113ea565b6001600160a01b03909716600090815260029098016020525060409096209490945550929392505050565b7f9016d09d72d40fdae2fd8ceac6b6234c7706214fd39c1cd1e609a0528c19930080546001600160a01b031981166001600160a01b03848116918217845560405192169182907f8be0079c531659141344cd1fd0a4f28419497f9722a3daafe3b4186f6b6457e090600090a3505050565b60008181526001830160205260408120546111885750815460018181018455600084815260208082209093018490558454848252828601909352604090209190915561031d565b50600061031d565b600081815260018301602052604081205480156112795760006111b4600183611795565b85549091506000906111c890600190611795565b905080821461122d5760008660000182815481106111e8576111e86117a8565b906000526020600020015490508087600001848154811061120b5761120b6117a8565b6000918252602080832090910192909255918252600188019052604090208390555b855486908061123e5761123e6117ea565b60019003818190600052602060002001600090559055856001016000868152602001908152602001600020600090556001935050505061031d565b600091505061031d565b604080516001600160a01b038416602482015260448082018490528251808303909101815260649091019091526020810180517bffffffffffffffffffffffffffffffffffffffffffffffffffffffff1663a9059cbb60e01b179052610f99908490611452565b7ff0c57e16840df040f15088dc2f81fe391c3923bec73e23a9662efc9c229c6a005468010000000000000000900460ff1661045857604051631afcd79f60e31b815260040160405180910390fd5b6113406112ea565b6001600160a01b03811661049b57604051631e4fbdf760e01b815260006004820152602401610492565b6060816000018054806020026020016040519081016040528092919081815260200182805480156113ba57602002820191906000526020600020905b8154815260200190600101908083116113a6575b50505050509050919050565b600082156113e1576113dc83604084901b611800565b610b6d565b50600092915050565b600060406113f88484611822565b901c9392505050565b60008061140e84846113c6565b855490915042111561141e574285555b8015611443578085600101600082825461143891906117d7565b925050819055611449565b84600101545b95945050505050565b60006114676001600160a01b038416836114b5565b9050805160001415801561148c57508080602001905181019061148a9190611839565b155b15610f9957604051635274afe760e01b81526001600160a01b0384166004820152602401610492565b6060610b6d8383600084600080856001600160a01b031684866040516114db919061185b565b60006040518083038185875af1925050503d8060008114611518576040519150601f19603f3d011682016040523d82523d6000602084013e61151d565b606091505b509150915061152d868383611537565b9695505050505050565b606082611547576113dc8261158e565b815115801561155e57506001600160a01b0384163b155b1561158757604051639996b31560e01b81526001600160a01b0385166004820152602401610492565b5080610b6d565b80511561159e5780518082602001fd5b604051630a12f52160e11b815260040160405180910390fd5b6000602082840312156115c957600080fd5b5035919050565b6001600160a01b03811681146104a457600080fd5b600080600080600060a086880312156115fd57600080fd5b8535611608816115d0565b97602087013597506040870135966060810135965060800135945092505050565b60006020828403121561163b57600080fd5b8135610b6d816115d0565b6000806040838503121561165957600080fd5b8235611664816115d0565b91506020830135611674816115d0565b809150509250929050565b6020808252825182820181905260009190848201906040850190845b818110156116c05783516001600160a01b03168352928401929184019160010161169b565b50909695505050505050565b604080825283519082018190526000906020906060840190828701845b8281101561170e5781516001600160a01b0316845292840192908401906001016116e9565b5050508381038285015284518082528583019183019060005b8181101561174357835183529284019291840191600101611727565b5090979650505050505050565b60006020828403121561176257600080fd5b5051919050565b634e487b7160e01b600052604160045260246000fd5b634e487b7160e01b600052601160045260246000fd5b8181038181111561031d5761031d61177f565b634e487b7160e01b600052603260045260246000fd5b6000600182016117d0576117d061177f565b5060010190565b8082018082111561031d5761031d61177f565b634e487b7160e01b600052603160045260246000fd5b60008261181d57634e487b7160e01b600052601260045260246000fd5b500490565b808202811582820484141761031d5761031d61177f565b60006020828403121561184b57600080fd5b81518015158114610b6d57600080fd5b6000825160005b8181101561187c5760208186018101518583015201611862565b50600092019182525091905056fea2646970667358221220c1fa80fa5e8d98689d472c68f07e8af4b6e47c7309c23e285ce4b4fe2fbcd7fd64736f6c63430008140033",
    "linkReferences": {}
  },
  "methodIdentifiers": {
    "acceptOwnership()": "79ba5097",
    "addReward(address)": "9c9b2e21",
    "claim()": "4e71d92d",
    "getMoeStaking()": "72f148b8",
    "getNumberOfRewards()": "e5437265",
    "getPendingRewards(address)": "f6ed2017",
    "getRewardToken(uint256)": "134b6edb",
    "getRewardTokens()": "c4f59f9b",
    "initialize(address)": "c4d66de8",
    "onModify(address,uint256,uint256,uint256,uint256)": "870b50fd",
    "owner()": "8da5cb5b",
    "pendingOwner()": "e30c3978",
    "removeReward(address)": "a4d5e67c",
    "renounceOwnership()": "715018a6",
    "sweep(address,address)": "b8dc491b",
    "transferOwnership(address)": "f2fde38b"
  },
  "id": 63
}