{
  "abi": [
    {
      "inputs": [
        {
          "internalType": "address",
          "name": "caller",
          "type": "address"
        }
      ],
      "stateMutability": "nonpayable",
      "type": "constructor"
    },
    {
      "inputs": [
        {
          "internalType": "address",
          "name": "target",
          "type": "address"
        }
      ],
      "name": "AddressEmptyCode",
      "type": "error"
    },
    {
      "inputs": [
        {
          "internalType": "address",
          "name": "account",
          "type": "address"
        }
      ],
      "name": "AddressInsufficientBalance",
      "type": "error"
    },
    {
      "inputs": [],
      "name": "BaseRewarder__AlreadyStopped",
      "type": "error"
    },
    {
      "inputs": [
        {
          "internalType": "uint256",
          "name": "remainingReward",
          "type": "uint256"
        },
        {
          "internalType": "uint256",
          "name": "expectedReward",
          "type": "uint256"
        }
      ],
      "name": "BaseRewarder__InsufficientReward",
      "type": "error"
    },
    {
      "inputs": [],
      "name": "BaseRewarder__InvalidCaller",
      "type": "error"
    },
    {
      "inputs": [],
      "name": "BaseRewarder__InvalidDuration",
      "type": "error"
    },
    {
      "inputs": [
        {
          "internalType": "uint256",
          "name": "pid",
          "type": "uint256"
        }
      ],
      "name": "BaseRewarder__InvalidPid",
      "type": "error"
    },
    {
      "inputs": [
        {
          "internalType": "uint256",
          "name": "startTimestamp",
          "type": "uint256"
        }
      ],
      "name": "BaseRewarder__InvalidStartTimestamp",
      "type": "error"
    },
    {
      "inputs": [],
      "name": "BaseRewarder__NativeTransferFailed",
      "type": "error"
    },
    {
      "inputs": [],
      "name": "BaseRewarder__NotNativeRewarder",
      "type": "error"
    },
    {
      "inputs": [],
      "name": "BaseRewarder__Stopped",
      "type": "error"
    },
    {
      "inputs": [],
      "name": "BaseRewarder__ZeroAmount",
      "type": "error"
    },
    {
      "inputs": [],
      "name": "FailedInnerCall",
      "type": "error"
    },
    {
      "inputs": [],
      "name": "InvalidInitialization",
      "type": "error"
    },
    {
      "inputs": [],
      "name": "MasterChefRewarder__AlreadyLinked",
      "type": "error"
    },
    {
      "inputs": [],
      "name": "MasterChefRewarder__NotLinked",
      "type": "error"
    },
    {
      "inputs": [],
      "name": "MasterChefRewarder__UseUnlink",
      "type": "error"
    },
    {
      "inputs": [],
      "name": "NotInitializing",
      "type": "error"
    },
    {
      "inputs": [
        {
          "internalType": "address",
          "name": "owner",
          "type": "address"
        }
      ],
      "name": "OwnableInvalidOwner",
      "type": "error"
    },
    {
      "inputs": [
        {
          "internalType": "address",
          "name": "account",
          "type": "address"
        }
      ],
      "name": "OwnableUnauthorizedAccount",
      "type": "error"
    },
    {
      "inputs": [
        {
          "internalType": "address",
          "name": "token",
          "type": "address"
        }
      ],
      "name": "SafeERC20FailedOperation",
      "type": "error"
    },
    {
      "anonymous": false,
      "inputs": [
        {
          "indexed": true,
          "internalType": "address",
          "name": "account",
          "type": "address"
        },
        {
          "indexed": true,
          "internalType": "contract IERC20",
          "name": "token",
          "type": "address"
        },
        {
          "indexed": false,
          "internalType": "uint256",
          "name": "reward",
          "type": "uint256"
        }
      ],
      "name": "Claim",
      "type": "event"
    },
    {
      "anonymous": false,
      "inputs": [
        {
          "indexed": false,
          "internalType": "uint64",
          "name": "version",
          "type": "uint64"
        }
      ],
      "name": "Initialized",
      "type": "event"
    },
    {
      "anonymous": false,
      "inputs": [
        {
          "indexed": true,
          "internalType": "address",
          "name": "previousOwner",
          "type": "address"
        },
        {
          "indexed": true,
          "internalType": "address",
          "name": "newOwner",
          "type": "address"
        }
      ],
      "name": "OwnershipTransferStarted",
      "type": "event"
    },
    {
      "anonymous": false,
      "inputs": [
        {
          "indexed": true,
          "internalType": "address",
          "name": "previousOwner",
          "type": "address"
        },
        {
          "indexed": true,
          "internalType": "address",
          "name": "newOwner",
          "type": "address"
        }
      ],
      "name": "OwnershipTransferred",
      "type": "event"
    },
    {
      "anonymous": false,
      "inputs": [
        {
          "indexed": false,
          "internalType": "uint256",
          "name": "rewardPerSecond",
          "type": "uint256"
        },
        {
          "indexed": false,
          "internalType": "uint256",
          "name": "startTimestamp",
          "type": "uint256"
        },
        {
          "indexed": false,
          "internalType": "uint256",
          "name": "endTimestamp",
          "type": "uint256"
        }
      ],
      "name": "RewardParameterUpdated",
      "type": "event"
    },
    {
      "anonymous": false,
      "inputs": [],
      "name": "Stopped",
      "type": "event"
    },
    {
      "anonymous": false,
      "inputs": [
        {
          "indexed": true,
          "internalType": "contract IERC20",
          "name": "token",
          "type": "address"
        },
        {
          "indexed": true,
          "internalType": "address",
          "name": "account",
          "type": "address"
        },
        {
          "indexed": false,
          "internalType": "uint256",
          "name": "amount",
          "type": "uint256"
        }
      ],
      "name": "Swept",
      "type": "event"
    },
    {
      "stateMutability": "payable",
      "type": "fallback"
    },
    {
      "inputs": [],
      "name": "acceptOwnership",
      "outputs": [],
      "stateMutability": "nonpayable",
      "type": "function"
    },
    {
      "inputs": [],
      "name": "getCaller",
      "outputs": [
        {
          "internalType": "address",
          "name": "",
          "type": "address"
        }
      ],
      "stateMutability": "view",
      "type": "function"
    },
    {
      "inputs": [
        {
          "internalType": "address",
          "name": "account",
          "type": "address"
        },
        {
          "internalType": "uint256",
          "name": "balance",
          "type": "uint256"
        },
        {
          "internalType": "uint256",
          "name": "totalSupply",
          "type": "uint256"
        }
      ],
      "name": "getPendingReward",
      "outputs": [
        {
          "internalType": "contract IERC20",
          "name": "",
          "type": "address"
        },
        {
          "internalType": "uint256",
          "name": "",
          "type": "uint256"
        }
      ],
      "stateMutability": "view",
      "type": "function"
    },
    {
      "inputs": [],
      "name": "getPid",
      "outputs": [
        {
          "internalType": "uint256",
          "name": "",
          "type": "uint256"
        }
      ],
      "stateMutability": "view",
      "type": "function"
    },
    {
      "inputs": [],
      "name": "getRewarderParameter",
      "outputs": [
        {
          "internalType": "contract IERC20",
          "name": "token",
          "type": "address"
        },
        {
          "internalType": "uint256",
          "name": "rewardPerSecond",
          "type": "uint256"
        },
        {
          "internalType": "uint256",
          "name": "lastUpdateTimestamp",
          "type": "uint256"
        },
        {
          "internalType": "uint256",
          "name": "endTimestamp",
          "type": "uint256"
        }
      ],
      "stateMutability": "view",
      "type": "function"
    },
    {
      "inputs": [],
      "name": "getToken",
      "outputs": [
        {
          "internalType": "contract IERC20",
          "name": "",
          "type": "address"
        }
      ],
      "stateMutability": "view",
      "type": "function"
    },
    {
      "inputs": [
        {
          "internalType": "address",
          "name": "initialOwner",
          "type": "address"
        }
      ],
      "name": "initialize",
      "outputs": [],
      "stateMutability": "nonpayable",
      "type": "function"
    },
    {
      "inputs": [],
      "name": "isStopped",
      "outputs": [
        {
          "internalType": "bool",
          "name": "",
          "type": "bool"
        }
      ],
      "stateMutability": "view",
      "type": "function"
    },
    {
      "inputs": [
        {
          "internalType": "uint256",
          "name": "pid",
          "type": "uint256"
        }
      ],
      "name": "link",
      "outputs": [],
      "stateMutability": "nonpayable",
      "type": "function"
    },
    {
      "inputs": [
        {
          "internalType": "address",
          "name": "account",
          "type": "address"
        },
        {
          "internalType": "uint256",
          "name": "pid",
          "type": "uint256"
        },
        {
          "internalType": "uint256",
          "name": "oldBalance",
          "type": "uint256"
        },
        {
          "internalType": "uint256",
          "name": "newBalance",
          "type": "uint256"
        },
        {
          "internalType": "uint256",
          "name": "oldTotalSupply",
          "type": "uint256"
        }
      ],
      "name": "onModify",
      "outputs": [
        {
          "internalType": "uint256",
          "name": "reward",
          "type": "uint256"
        }
      ],
      "stateMutability": "nonpayable",
      "type": "function"
    },
    {
      "inputs": [],
      "name": "owner",
      "outputs": [
        {
          "internalType": "address",
          "name": "",
          "type": "address"
        }
      ],
      "stateMutability": "view",
      "type": "function"
    },
    {
      "inputs": [],
      "name": "pendingOwner",
      "outputs": [
        {
          "internalType": "address",
          "name": "",
          "type": "address"
        }
      ],
      "stateMutability": "view",
      "type": "function"
    },
    {
      "inputs": [],
      "name": "renounceOwnership",
      "outputs": [],
      "stateMutability": "nonpayable",
      "type": "function"
    },
    {
      "inputs": [
        {
          "internalType": "uint256",
          "name": "rewardPerSecond",
          "type": "uint256"
        },
        {
          "internalType": "uint256",
          "name": "expectedDuration",
          "type": "uint256"
        }
      ],
      "name": "setRewardPerSecond",
      "outputs": [],
      "stateMutability": "nonpayable",
      "type": "function"
    },
    {
      "inputs": [
        {
          "internalType": "uint256",
          "name": "rewardPerSecond",
          "type": "uint256"
        },
        {
          "internalType": "uint256",
          "name": "startTimestamp",
          "type": "uint256"
        },
        {
          "internalType": "uint256",
          "name": "expectedDuration",
          "type": "uint256"
        }
      ],
      "name": "setRewarderParameters",
      "outputs": [],
      "stateMutability": "nonpayable",
      "type": "function"
    },
    {
      "inputs": [],
      "name": "stop",
      "outputs": [],
      "stateMutability": "pure",
      "type": "function"
    },
    {
      "inputs": [
        {
          "internalType": "contract IERC20",
          "name": "token",
          "type": "address"
        },
        {
          "internalType": "address",
          "name": "account",
          "type": "address"
        }
      ],
      "name": "sweep",
      "outputs": [],
      "stateMutability": "nonpayable",
      "type": "function"
    },
    {
      "inputs": [
        {
          "internalType": "address",
          "name": "newOwner",
          "type": "address"
        }
      ],
      "name": "transferOwnership",
      "outputs": [],
      "stateMutability": "nonpayable",
      "type": "function"
    },
    {
      "inputs": [
        {
          "internalType": "uint256",
          "name": "pid",
          "type": "uint256"
        }
      ],
      "name": "unlink",
      "outputs": [],
      "stateMutability": "nonpayable",
      "type": "function"
    },
    {
      "stateMutability": "payable",
      "type": "receive"
    }
  ],
  "bytecode": {
    "object": "0x60a060405234801561001057600080fd5b50604051620017de380380620017de83398101604081905261003191610100565b6001600160a01b0381166080528061004761004e565b5050610130565b7ff0c57e16840df040f15088dc2f81fe391c3923bec73e23a9662efc9c229c6a00805468010000000000000000900460ff161561009e5760405163f92ee8a960e01b815260040160405180910390fd5b80546001600160401b03908116146100fd5780546001600160401b0319166001600160401b0390811782556040519081527fc7f505b2f371ae2175ee4913f4499e1f2633a7b5936321eed1cdaeb6115181d29060200160405180910390a15b50565b60006020828403121561011257600080fd5b81516001600160a01b038116811461012957600080fd5b9392505050565b60805161167662000168600039600081816102c50152818161057f0152818161090001528181610ac6015261104901526116766000f3fe6080604052600436106101485760003560e01c8063ab470f05116100c0578063c718325111610074578063e30c397811610059578063e30c3978146103ca578063f1e023fd146103df578063f2fde38b146103ff57610157565b8063c718325114610369578063c8772963146103a857610157565b8063b5f578fc116100a5578063b5f578fc14610309578063b8dc491b14610329578063c4d66de81461034957610157565b8063ab470f05146102b6578063b1a867d5146102e957610157565b8063715018a611610117578063870b50fd116100fc578063870b50fd1461025357806389f5ab0d146102815780638da5cb5b146102a157610157565b8063715018a61461022957806379ba50971461023e57610157565b806307da68f51461015f57806321df0da71461017457806339cbec9d146101af5780633f683b6a1461020657610157565b366101575761015561041f565b005b61015561041f565b34801561016b57600080fd5b5061015561044f565b34801561018057600080fd5b503660011981013560f01c90033560601c5b6040516001600160a01b0390911681526020015b60405180910390f35b3480156101bb57600080fd5b506101dc600054600554600354600119369081013560f01c90033560601c93565b604080516001600160a01b03909516855260208501939093529183015260608201526080016101a6565b34801561021257600080fd5b5060045460ff1660405190151581526020016101a6565b34801561023557600080fd5b5061015561046d565b34801561024a57600080fd5b5061015561047f565b34801561025f57600080fd5b5061027361026e366004611415565b6104cc565b6040519081526020016101a6565b34801561028d57600080fd5b5061015561029c366004611459565b610527565b3480156102ad57600080fd5b5061019261053f565b3480156102c257600080fd5b507f0000000000000000000000000000000000000000000000000000000000000000610192565b3480156102f557600080fd5b50610155610304366004611485565b610574565b34801561031557600080fd5b5061015561032436600461149e565b61065a565b34801561033557600080fd5b506101556103443660046114c0565b610689565b34801561035557600080fd5b506101556103643660046114f9565b61075c565b34801561037557600080fd5b50610389610384366004611516565b610880565b604080516001600160a01b0390931683526020830191909152016101a6565b3480156103b457600080fd5b503660011981013560f01c900360140135610273565b3480156103d657600080fd5b506101926108cc565b3480156103eb57600080fd5b506101556103fa366004611485565b6108f5565b34801561040b57600080fd5b5061015561041a3660046114f9565b6109c6565b3660011981013560f01c90033560601c1561044d57604051639415816f60e01b815260040160405180910390fd5b565b60405163f92ad2c760e01b815260040160405180910390fd5b905090565b610475610a4b565b61044d6000610a7d565b33806104896108cc565b6001600160a01b0316146104c05760405163118cdaa760e01b81526001600160a01b03821660048201526024015b60405180910390fd5b6104c981610a7d565b50565b6000600160085460ff1660028111156104e7576104e761154b565b146105055760405163d0ef47e760e01b815260040160405180910390fd5b6105128686868686610ab9565b905061051e8682610b70565b95945050505050565b61052f610a4b565b61053a838383610bd0565b505050565b6000807f9016d09d72d40fdae2fd8ceac6b6234c7706214fd39c1cd1e609a0528c1993005b546001600160a01b031692915050565b336001600160a01b037f000000000000000000000000000000000000000000000000000000000000000016146105bd5760405163332bf49d60e21b815260040160405180910390fd5b600060085460ff1660028111156105d6576105d661154b565b146105f457604051630d85b6ed60e01b815260040160405180910390fd5b3660011981013560f01c90036014013581146106265760405163e7ca808760e01b8152600481018290526024016104b7565b60045460ff161561064a57604051630f3e8c1360e11b815260040160405180910390fd5b506008805460ff19166001179055565b610662610a4b565b60055460004282116106745742610676565b815b9050610683848285610bd0565b50505050565b610691610a4b565b600061069c83610d63565b60045490915060ff161580156106c957503660011981013560f01c90033560601c6001600160a01b038416145b156106de576002546106db9082611577565b90505b806000036106ff576040516360e6da0360e01b815260040160405180910390fd5b61070a838383610de9565b816001600160a01b0316836001600160a01b03167f7b09c29f9106defeccc9ac3b823f3aad0b470d120e5df7aed033b5c43a4bf7188360405161074f91815260200190565b60405180910390a3505050565b7ff0c57e16840df040f15088dc2f81fe391c3923bec73e23a9662efc9c229c6a00805468010000000000000000810460ff16159067ffffffffffffffff166000811580156107a75750825b905060008267ffffffffffffffff1660011480156107c45750303b155b9050811580156107d2575080155b156107f05760405163f92ee8a960e01b815260040160405180910390fd5b845467ffffffffffffffff19166001178555831561082457845468ff00000000000000001916680100000000000000001785555b61082d86610e8c565b831561087857845468ff000000000000000019168555604051600181527fc7f505b2f371ae2175ee4913f4499e1f2633a7b5936321eed1cdaeb6115181d29060200160405180910390a15b505050505050565b600080600061089f6000546003546005610e9d9092919063ffffffff16565b90503660011981013560f01c90033560601c6108bf600588888886610ed4565b9250925050935093915050565b6000807f237e158222e3e6968b72b9db0d8043aacf074ad9f650f0d1606b4d82ee432c00610564565b336001600160a01b037f0000000000000000000000000000000000000000000000000000000000000000161461093e5760405163332bf49d60e21b815260040160405180910390fd5b3660011981013560f01c90036014013581146109705760405163e7ca808760e01b8152600481018290526024016104b7565b600160085460ff1660028111156109895761098961154b565b146109a75760405163d0ef47e760e01b815260040160405180910390fd5b506008805460ff19908116600217909155600480549091166001179055565b6109ce610a4b565b7f237e158222e3e6968b72b9db0d8043aacf074ad9f650f0d1606b4d82ee432c0080546001600160a01b0319166001600160a01b0383169081178255610a1261053f565b6001600160a01b03167f38d16b8cac22d99fc7c124b9cd0de2d3fa1faef420bfe791d8c362d765e2270060405160405180910390a35050565b33610a5461053f565b6001600160a01b03161461044d5760405163118cdaa760e01b81523360048201526024016104b7565b7f237e158222e3e6968b72b9db0d8043aacf074ad9f650f0d1606b4d82ee432c0080546001600160a01b0319168155610ab582610f3a565b5050565b6000336001600160a01b037f00000000000000000000000000000000000000000000000000000000000000001614610b045760405163332bf49d60e21b815260040160405180910390fd5b3660011981013560f01c9003601401358514610b365760405163e7ca808760e01b8152600481018690526024016104b7565b60045460ff1615610b5a57604051630f3e8c1360e11b815260040160405180910390fd5b610b6686858585610fab565b9695505050505050565b3660011981013560f01c90033560601c610b8b818484610de9565b806001600160a01b0316836001600160a01b03167f70eb43c4a8ae8c40502dcf22436c509c28d6ff421cf07c491be56984bd9870688460405161074f91815260200190565b42821015610bf457604051635c62004b60e11b8152600481018390526024016104b7565b60045460ff1615610c1857604051630f3e8c1360e11b815260040160405180910390fd5b80158015610c2557508215155b15610c4357604051631a4778f160e31b815260040160405180910390fd5b60015460008054600354610c5991600591610e9d565b9050610c65818361158a565b9150600082610c823660011981013560f01c90033560601c610d63565b610c8c9190611577565b90506000610c9a858861159d565b905080821015610cc75760405163f79406ed60e01b815260048101839052602481018290526044016104b7565b6000610cd3868861158a565b90506000610cdf61101a565b60008a90559050610cf0838761158a565b60025560038290556001869055610d09600582876110b4565b50428814610d175760058890555b604080518a8152602081018a90529081018390527ff0b276e9ee40b3a3d065f636ee656c9bf1c9a0c4060fb212fd0861890c107be59060600160405180910390a1505050505050505050565b60006001600160a01b03821615610de1576040516370a0823160e01b81523060048201526001600160a01b038316906370a0823190602401602060405180830381865afa158015610db8573d6000803e3d6000fd5b505050506040513d601f19601f82011682018060405250810190610ddc91906115b4565b610de3565b475b92915050565b80600003610df657505050565b6001600160a01b038316610e78576000826001600160a01b03168260405160006040518083038185875af1925050503d8060008114610e51576040519150601f19603f3d011682016040523d82523d6000602084013e610e56565b606091505b505090508061068357604051630df61d5560e01b815260040160405180910390fd5b61053a6001600160a01b0384168383611104565b610e9461116b565b6104c9816111b9565b825460009081428410610eb05742610eb2565b835b9050818111610ec2576000610ec8565b84828203025b925050505b9392505050565b600080610ee184846111eb565b8760010154610ef0919061158a565b90508415610f2c576001600160a01b0386166000908152600288016020526040902054610f1d828761120f565b610f279190611577565b610f2f565b60005b979650505050505050565b7f9016d09d72d40fdae2fd8ceac6b6234c7706214fd39c1cd1e609a0528c19930080546001600160a01b031981166001600160a01b03848116918217845560405192169182907f8be0079c531659141344cd1fd0a4f28419497f9722a3daafe3b4186f6b6457e090600090a3505050565b60015460025460009190828415610fd357600054600354610fce91600591610e9d565b610fd6565b60005b9050610fe760058989898986611226565b935083610ff4828561158a565b610ffe9190611577565b60015561100b8483611577565b60025550919695505050505050565b60405163691d5cbd60e11b81523660011981013560f01c90036014013560048201526000906001600160a01b037f0000000000000000000000000000000000000000000000000000000000000000169063d23ab97a90602401602060405180830381865afa158015611090573d6000803e3d6000fd5b505050506040513d601f19601f8201168201806040525081019061046891906115b4565b6000806110c184846111eb565b85549091504211156110d1574285555b80156110f657808560010160008282546110eb919061158a565b92505081905561051e565b846001015495945050505050565b604080516001600160a01b038416602482015260448082018490528251808303909101815260649091019091526020810180517bffffffffffffffffffffffffffffffffffffffffffffffffffffffff1663a9059cbb60e01b17905261053a9084906112aa565b7ff0c57e16840df040f15088dc2f81fe391c3923bec73e23a9662efc9c229c6a005468010000000000000000900460ff1661044d57604051631afcd79f60e31b815260040160405180910390fd5b6111c161116b565b6001600160a01b0381166104c057604051631e4fbdf760e01b8152600060048201526024016104b7565b600082156112065761120183604084901b6115cd565b610ecd565b60009392505050565b6000604061121d848461159d565b901c9392505050565b6000806112348885856110b4565b90508515611270576001600160a01b0387166000908152600289016020526040902054611261828861120f565b61126b9190611577565b611273565b60005b915061127f818661120f565b6001600160a01b03909716600090815260029098016020525060409096209490945550929392505050565b60006112bf6001600160a01b0384168361130d565b905080516000141580156112e45750808060200190518101906112e291906115ef565b155b1561053a57604051635274afe760e01b81526001600160a01b03841660048201526024016104b7565b6060610ecd8383600084600080856001600160a01b031684866040516113339190611611565b60006040518083038185875af1925050503d8060008114611370576040519150601f19603f3d011682016040523d82523d6000602084013e611375565b606091505b5091509150610ec886838360608261139057611201826113d7565b81511580156113a757506001600160a01b0384163b155b156113d057604051639996b31560e01b81526001600160a01b03851660048201526024016104b7565b5080610ecd565b8051156113e75780518082602001fd5b604051630a12f52160e11b815260040160405180910390fd5b6001600160a01b03811681146104c957600080fd5b600080600080600060a0868803121561142d57600080fd5b853561143881611400565b97602087013597506040870135966060810135965060800135945092505050565b60008060006060848603121561146e57600080fd5b505081359360208301359350604090920135919050565b60006020828403121561149757600080fd5b5035919050565b600080604083850312156114b157600080fd5b50508035926020909101359150565b600080604083850312156114d357600080fd5b82356114de81611400565b915060208301356114ee81611400565b809150509250929050565b60006020828403121561150b57600080fd5b8135610ecd81611400565b60008060006060848603121561152b57600080fd5b833561153681611400565b95602085013595506040909401359392505050565b634e487b7160e01b600052602160045260246000fd5b634e487b7160e01b600052601160045260246000fd5b81810381811115610de357610de3611561565b80820180821115610de357610de3611561565b8082028115828204841417610de357610de3611561565b6000602082840312156115c657600080fd5b5051919050565b6000826115ea57634e487b7160e01b600052601260045260246000fd5b500490565b60006020828403121561160157600080fd5b81518015158114610ecd57600080fd5b6000825160005b818110156116325760208186018101518583015201611618565b50600092019182525091905056fea26469706673582212202a387b21dfa277e6f2921a7b4fe16b68a791a1b2c362ae1dd44cf3e9346a67ec64736f6c63430008140033",
    "linkReferences": {}
  },
  "methodIdentifiers": {
    "acceptOwnership()": "79ba5097",
    "getCaller()": "ab470f05",
    "getPendingReward(address,uint256,uint256)": "c7183251",
    "getPid()": "c8772963",
    "getRewarderParameter()": "39cbec9d",
    "getToken()": "21df0da7",
    "initialize(address)": "c4d66de8",
    "isStopped()": "3f683b6a",
    "link(uint256)": "b1a867d5",
    "onModify(address,uint256,uint256,uint256,uint256)": "870b50fd",
    "owner()": "8da5cb5b",
    "pendingOwner()": "e30c3978",
    "renounceOwnership()": "715018a6",
    "setRewardPerSecond(uint256,uint256)": "b5f578fc",
    "setRewarderParameters(uint256,uint256,uint256)": "89f5ab0d",
    "stop()": "07da68f5",
    "sweep(address,address)": "b8dc491b",
    "transferOwnership(address)": "f2fde38b",
    "unlink(uint256)": "f1e023fd"
  },
  "id": 97
}