{
  "abi": [
    {
      "inputs": [
        {
          "internalType": "address",
          "name": "caller",
          "type": "address"
        }
      ],
      "stateMutability": "nonpayable",
      "type": "constructor"
    },
    {
      "inputs": [
        {
          "internalType": "address",
          "name": "target",
          "type": "address"
        }
      ],
      "name": "AddressEmptyCode",
      "type": "error"
    },
    {
      "inputs": [
        {
          "internalType": "address",
          "name": "account",
          "type": "address"
        }
      ],
      "name": "AddressInsufficientBalance",
      "type": "error"
    },
    {
      "inputs": [],
      "name": "BaseRewarder__AlreadyStopped",
      "type": "error"
    },
    {
      "inputs": [
        {
          "internalType": "uint256",
          "name": "remainingReward",
          "type": "uint256"
        },
        {
          "internalType": "uint256",
          "name": "expectedReward",
          "type": "uint256"
        }
      ],
      "name": "BaseRewarder__InsufficientReward",
      "type": "error"
    },
    {
      "inputs": [],
      "name": "BaseRewarder__InvalidCaller",
      "type": "error"
    },
    {
      "inputs": [],
      "name": "BaseRewarder__InvalidDuration",
      "type": "error"
    },
    {
      "inputs": [
        {
          "internalType": "uint256",
          "name": "pid",
          "type": "uint256"
        }
      ],
      "name": "BaseRewarder__InvalidPid",
      "type": "error"
    },
    {
      "inputs": [
        {
          "internalType": "uint256",
          "name": "startTimestamp",
          "type": "uint256"
        }
      ],
      "name": "BaseRewarder__InvalidStartTimestamp",
      "type": "error"
    },
    {
      "inputs": [],
      "name": "BaseRewarder__NativeTransferFailed",
      "type": "error"
    },
    {
      "inputs": [],
      "name": "BaseRewarder__NotNativeRewarder",
      "type": "error"
    },
    {
      "inputs": [],
      "name": "BaseRewarder__Stopped",
      "type": "error"
    },
    {
      "inputs": [],
      "name": "BaseRewarder__ZeroAmount",
      "type": "error"
    },
    {
      "inputs": [],
      "name": "FailedInnerCall",
      "type": "error"
    },
    {
      "inputs": [],
      "name": "InvalidInitialization",
      "type": "error"
    },
    {
      "inputs": [],
      "name": "MasterChefRewarder__AlreadyLinked",
      "type": "error"
    },
    {
      "inputs": [],
      "name": "MasterChefRewarder__NotLinked",
      "type": "error"
    },
    {
      "inputs": [],
      "name": "MasterChefRewarder__UseUnlink",
      "type": "error"
    },
    {
      "inputs": [],
      "name": "NotInitializing",
      "type": "error"
    },
    {
      "inputs": [
        {
          "internalType": "address",
          "name": "owner",
          "type": "address"
        }
      ],
      "name": "OwnableInvalidOwner",
      "type": "error"
    },
    {
      "inputs": [
        {
          "internalType": "address",
          "name": "account",
          "type": "address"
        }
      ],
      "name": "OwnableUnauthorizedAccount",
      "type": "error"
    },
    {
      "inputs": [
        {
          "internalType": "address",
          "name": "token",
          "type": "address"
        }
      ],
      "name": "SafeERC20FailedOperation",
      "type": "error"
    },
    {
      "anonymous": false,
      "inputs": [
        {
          "indexed": true,
          "internalType": "address",
          "name": "account",
          "type": "address"
        },
        {
          "indexed": true,
          "internalType": "contract IERC20",
          "name": "token",
          "type": "address"
        },
        {
          "indexed": false,
          "internalType": "uint256",
          "name": "reward",
          "type": "uint256"
        }
      ],
      "name": "Claim",
      "type": "event"
    },
    {
      "anonymous": false,
      "inputs": [
        {
          "indexed": false,
          "internalType": "uint64",
          "name": "version",
          "type": "uint64"
        }
      ],
      "name": "Initialized",
      "type": "event"
    },
    {
      "anonymous": false,
      "inputs": [
        {
          "indexed": true,
          "internalType": "address",
          "name": "previousOwner",
          "type": "address"
        },
        {
          "indexed": true,
          "internalType": "address",
          "name": "newOwner",
          "type": "address"
        }
      ],
      "name": "OwnershipTransferStarted",
      "type": "event"
    },
    {
      "anonymous": false,
      "inputs": [
        {
          "indexed": true,
          "internalType": "address",
          "name": "previousOwner",
          "type": "address"
        },
        {
          "indexed": true,
          "internalType": "address",
          "name": "newOwner",
          "type": "address"
        }
      ],
      "name": "OwnershipTransferred",
      "type": "event"
    },
    {
      "anonymous": false,
      "inputs": [
        {
          "indexed": false,
          "internalType": "uint256",
          "name": "rewardPerSecond",
          "type": "uint256"
        },
        {
          "indexed": false,
          "internalType": "uint256",
          "name": "startTimestamp",
          "type": "uint256"
        },
        {
          "indexed": false,
          "internalType": "uint256",
          "name": "endTimestamp",
          "type": "uint256"
        }
      ],
      "name": "RewardParameterUpdated",
      "type": "event"
    },
    {
      "stateMutability": "payable",
      "type": "fallback"
    },
    {
      "inputs": [],
      "name": "acceptOwnership",
      "outputs": [],
      "stateMutability": "nonpayable",
      "type": "function"
    },
    {
      "inputs": [],
      "name": "getCaller",
      "outputs": [
        {
          "internalType": "address",
          "name": "",
          "type": "address"
        }
      ],
      "stateMutability": "view",
      "type": "function"
    },
    {
      "inputs": [
        {
          "internalType": "address",
          "name": "account",
          "type": "address"
        },
        {
          "internalType": "uint256",
          "name": "balance",
          "type": "uint256"
        },
        {
          "internalType": "uint256",
          "name": "totalSupply",
          "type": "uint256"
        }
      ],
      "name": "getPendingReward",
      "outputs": [
        {
          "internalType": "contract IERC20",
          "name": "",
          "type": "address"
        },
        {
          "internalType": "uint256",
          "name": "",
          "type": "uint256"
        }
      ],
      "stateMutability": "view",
      "type": "function"
    },
    {
      "inputs": [],
      "name": "getPid",
      "outputs": [
        {
          "internalType": "uint256",
          "name": "",
          "type": "uint256"
        }
      ],
      "stateMutability": "view",
      "type": "function"
    },
    {
      "inputs": [],
      "name": "getRewarderParameter",
      "outputs": [
        {
          "internalType": "contract IERC20",
          "name": "token",
          "type": "address"
        },
        {
          "internalType": "uint256",
          "name": "rewardPerSecond",
          "type": "uint256"
        },
        {
          "internalType": "uint256",
          "name": "lastUpdateTimestamp",
          "type": "uint256"
        },
        {
          "internalType": "uint256",
          "name": "endTimestamp",
          "type": "uint256"
        }
      ],
      "stateMutability": "view",
      "type": "function"
    },
    {
      "inputs": [],
      "name": "getToken",
      "outputs": [
        {
          "internalType": "contract IERC20",
          "name": "",
          "type": "address"
        }
      ],
      "stateMutability": "view",
      "type": "function"
    },
    {
      "inputs": [
        {
          "internalType": "address",
          "name": "initialOwner",
          "type": "address"
        }
      ],
      "name": "initialize",
      "outputs": [],
      "stateMutability": "nonpayable",
      "type": "function"
    },
    {
      "inputs": [],
      "name": "isStopped",
      "outputs": [
        {
          "internalType": "bool",
          "name": "",
          "type": "bool"
        }
      ],
      "stateMutability": "view",
      "type": "function"
    },
    {
      "inputs": [
        {
          "internalType": "uint256",
          "name": "pid",
          "type": "uint256"
        }
      ],
      "name": "link",
      "outputs": [],
      "stateMutability": "nonpayable",
      "type": "function"
    },
    {
      "inputs": [
        {
          "internalType": "address",
          "name": "account",
          "type": "address"
        },
        {
          "internalType": "uint256",
          "name": "pid",
          "type": "uint256"
        },
        {
          "internalType": "uint256",
          "name": "oldBalance",
          "type": "uint256"
        },
        {
          "internalType": "uint256",
          "name": "newBalance",
          "type": "uint256"
        },
        {
          "internalType": "uint256",
          "name": "oldTotalSupply",
          "type": "uint256"
        }
      ],
      "name": "onModify",
      "outputs": [
        {
          "internalType": "uint256",
          "name": "reward",
          "type": "uint256"
        }
      ],
      "stateMutability": "nonpayable",
      "type": "function"
    },
    {
      "inputs": [],
      "name": "owner",
      "outputs": [
        {
          "internalType": "address",
          "name": "",
          "type": "address"
        }
      ],
      "stateMutability": "view",
      "type": "function"
    },
    {
      "inputs": [],
      "name": "pendingOwner",
      "outputs": [
        {
          "internalType": "address",
          "name": "",
          "type": "address"
        }
      ],
      "stateMutability": "view",
      "type": "function"
    },
    {
      "inputs": [],
      "name": "renounceOwnership",
      "outputs": [],
      "stateMutability": "nonpayable",
      "type": "function"
    },
    {
      "inputs": [
        {
          "internalType": "uint256",
          "name": "rewardPerSecond",
          "type": "uint256"
        },
        {
          "internalType": "uint256",
          "name": "expectedDuration",
          "type": "uint256"
        }
      ],
      "name": "setRewardPerSecond",
      "outputs": [],
      "stateMutability": "nonpayable",
      "type": "function"
    },
    {
      "inputs": [
        {
          "internalType": "uint256",
          "name": "rewardPerSecond",
          "type": "uint256"
        },
        {
          "internalType": "uint256",
          "name": "startTimestamp",
          "type": "uint256"
        },
        {
          "internalType": "uint256",
          "name": "expectedDuration",
          "type": "uint256"
        }
      ],
      "name": "setRewarderParameters",
      "outputs": [],
      "stateMutability": "nonpayable",
      "type": "function"
    },
    {
      "inputs": [],
      "name": "stop",
      "outputs": [],
      "stateMutability": "pure",
      "type": "function"
    },
    {
      "inputs": [
        {
          "internalType": "contract IERC20",
          "name": "token",
          "type": "address"
        },
        {
          "internalType": "address",
          "name": "account",
          "type": "address"
        }
      ],
      "name": "sweep",
      "outputs": [],
      "stateMutability": "nonpayable",
      "type": "function"
    },
    {
      "inputs": [
        {
          "internalType": "address",
          "name": "newOwner",
          "type": "address"
        }
      ],
      "name": "transferOwnership",
      "outputs": [],
      "stateMutability": "nonpayable",
      "type": "function"
    },
    {
      "inputs": [
        {
          "internalType": "uint256",
          "name": "pid",
          "type": "uint256"
        }
      ],
      "name": "unlink",
      "outputs": [],
      "stateMutability": "nonpayable",
      "type": "function"
    },
    {
      "stateMutability": "payable",
      "type": "receive"
    }
  ],
  "bytecode": {
    "object": "0x60a060405234801561001057600080fd5b506040516200175b3803806200175b83398101604081905261003191610100565b6001600160a01b0381166080528061004761004e565b5050610130565b7ff0c57e16840df040f15088dc2f81fe391c3923bec73e23a9662efc9c229c6a00805468010000000000000000900460ff161561009e5760405163f92ee8a960e01b815260040160405180910390fd5b80546001600160401b03908116146100fd5780546001600160401b0319166001600160401b0390811782556040519081527fc7f505b2f371ae2175ee4913f4499e1f2633a7b5936321eed1cdaeb6115181d29060200160405180910390a15b50565b60006020828403121561011257600080fd5b81516001600160a01b038116811461012957600080fd5b9392505050565b6080516115f362000168600039600081816102740152818161059b015281816108b101528181610a820152610fb701526115f36000f3fe6080604052600436106101185760003560e01c8063ab470f05116100a0578063c718325111610064578063c718325114610318578063c877296314610357578063e30c39781461036c578063f1e023fd14610381578063f2fde38b146103a157610127565b8063ab470f0514610265578063b1a867d514610298578063b5f578fc146102b8578063b8dc491b146102d8578063c4d66de8146102f857610127565b8063715018a6116100e7578063715018a6146101d857806379ba5097146101ed578063870b50fd1461020257806389f5ab0d146102305780638da5cb5b1461025057610127565b806307da68f51461012f57806321df0da71461014457806339cbec9d146101765780633f683b6a146101b557610127565b36610127576101256103c1565b005b6101256103c1565b34801561013b57600080fd5b506101256103f4565b34801561015057600080fd5b5061015961040d565b6040516001600160a01b0390911681526020015b60405180910390f35b34801561018257600080fd5b5061018b61041c565b604080516001600160a01b039095168552602085019390935291830152606082015260800161016d565b3480156101c157600080fd5b5060045460ff16604051901515815260200161016d565b3480156101e457600080fd5b50610125610441565b3480156101f957600080fd5b50610125610453565b34801561020e57600080fd5b5061022261021d366004611392565b6104a0565b60405190815260200161016d565b34801561023c57600080fd5b5061012561024b3660046113d6565b6104fb565b34801561025c57600080fd5b5061015961055b565b34801561027157600080fd5b507f0000000000000000000000000000000000000000000000000000000000000000610159565b3480156102a457600080fd5b506101256102b3366004611402565b610590565b3480156102c457600080fd5b506101256102d336600461141b565b61066e565b3480156102e457600080fd5b506101256102f336600461143d565b61069d565b34801561030457600080fd5b50610125610313366004611476565b61071f565b34801561032457600080fd5b50610338610333366004611493565b61082f565b604080516001600160a01b03909316835260208301919091520161016d565b34801561036357600080fd5b50610222610873565b34801561037857600080fd5b5061015961087d565b34801561038d57600080fd5b5061012561039c366004611402565b6108a6565b3480156103ad57600080fd5b506101256103bc366004611476565b61096f565b60006103cb6109f4565b6001600160a01b0316146103f257604051639415816f60e01b815260040160405180910390fd5b565b60405163f92ad2c760e01b815260040160405180910390fd5b60006104176109f4565b905090565b60008060008061042a6109f4565b600054600554600354929791965094509092509050565b610449610a07565b6103f26000610a39565b338061045d61087d565b6001600160a01b0316146104945760405163118cdaa760e01b81526001600160a01b03821660048201526024015b60405180910390fd5b61049d81610a39565b50565b6000600160085460ff1660028111156104bb576104bb6114c8565b146104d95760405163d0ef47e760e01b815260040160405180910390fd5b6104e68686868686610a75565b90506104f28682610b24565b95945050505050565b610503610a07565b60045460ff161561052757604051630f3e8c1360e11b815260040160405180910390fd5b4282101561054b57604051635c62004b60e11b81526004810183905260240161048b565b610556838383610b8d565b505050565b6000807f9016d09d72d40fdae2fd8ceac6b6234c7706214fd39c1cd1e609a0528c1993005b546001600160a01b031692915050565b336001600160a01b037f000000000000000000000000000000000000000000000000000000000000000016146105d95760405163332bf49d60e21b815260040160405180910390fd5b600060085460ff1660028111156105f2576105f26114c8565b1461061057604051630d85b6ed60e01b815260040160405180910390fd5b610618610cf4565b811461063a5760405163e7ca808760e01b81526004810182905260240161048b565b60045460ff161561065e57604051630f3e8c1360e11b815260040160405180910390fd5b506008805460ff19166001179055565b610676610a07565b6005546000428211610688574261068a565b815b9050610697848285610b8d565b50505050565b6106a5610a07565b60006106b083610d07565b60045490915060ff161580156106de57506106c96109f4565b6001600160a01b0316836001600160a01b0316145b156106f3576002546106f090826114f4565b90505b80600003610714576040516360e6da0360e01b815260040160405180910390fd5b610556838383610d8d565b7ff0c57e16840df040f15088dc2f81fe391c3923bec73e23a9662efc9c229c6a008054600160401b810460ff16159067ffffffffffffffff166000811580156107655750825b905060008267ffffffffffffffff1660011480156107825750303b155b905081158015610790575080155b156107ae5760405163f92ee8a960e01b815260040160405180910390fd5b845467ffffffffffffffff1916600117855583156107d857845460ff60401b1916600160401b1785555b6107e186610e30565b831561082757845460ff60401b19168555604051600181527fc7f505b2f371ae2175ee4913f4499e1f2633a7b5936321eed1cdaeb6115181d29060200160405180910390a15b505050505050565b600080600061084e6000546003546005610e419092919063ffffffff16565b90506108586109f4565b610866600588888886610e78565b9250925050935093915050565b6000610417610cf4565b6000807f237e158222e3e6968b72b9db0d8043aacf074ad9f650f0d1606b4d82ee432c00610580565b336001600160a01b037f000000000000000000000000000000000000000000000000000000000000000016146108ef5760405163332bf49d60e21b815260040160405180910390fd5b6108f7610cf4565b81146109195760405163e7ca808760e01b81526004810182905260240161048b565b600160085460ff166002811115610932576109326114c8565b146109505760405163d0ef47e760e01b815260040160405180910390fd5b506008805460ff19908116600217909155600480549091166001179055565b610977610a07565b7f237e158222e3e6968b72b9db0d8043aacf074ad9f650f0d1606b4d82ee432c0080546001600160a01b0319166001600160a01b03831690811782556109bb61055b565b6001600160a01b03167f38d16b8cac22d99fc7c124b9cd0de2d3fa1faef420bfe791d8c362d765e2270060405160405180910390a35050565b3660011981013560f01c90033560601c90565b33610a1061055b565b6001600160a01b0316146103f25760405163118cdaa760e01b815233600482015260240161048b565b7f237e158222e3e6968b72b9db0d8043aacf074ad9f650f0d1606b4d82ee432c0080546001600160a01b0319168155610a7182610ede565b5050565b6000336001600160a01b037f00000000000000000000000000000000000000000000000000000000000000001614610ac05760405163332bf49d60e21b815260040160405180910390fd5b610ac8610cf4565b8514610aea5760405163e7ca808760e01b81526004810186905260240161048b565b60045460ff1615610b0e57604051630f3e8c1360e11b815260040160405180910390fd5b610b1a86858585610f4f565b9695505050505050565b6000610b2e6109f4565b9050610b3b818484610d8d565b806001600160a01b0316836001600160a01b03167f70eb43c4a8ae8c40502dcf22436c509c28d6ff421cf07c491be56984bd98706884604051610b8091815260200190565b60405180910390a3505050565b60045460ff1615610bb157604051630f3e8c1360e11b815260040160405180910390fd5b80158015610bbe57508215155b15610bdc57604051631a4778f160e31b815260040160405180910390fd5b60015460008054600354610bf291600591610e41565b9050610bfe8183611507565b9150600082610c13610c0e6109f4565b610d07565b610c1d91906114f4565b90506000610c2b858861151a565b905080821015610c585760405163f79406ed60e01b8152600481018390526024810182905260440161048b565b6000610c648688611507565b90506000610c70610fb3565b60008a90559050610c818387611507565b60025560038290556001869055610c9a6005828761104b565b50428814610ca85760058890555b604080518a8152602081018a90529081018390527ff0b276e9ee40b3a3d065f636ee656c9bf1c9a0c4060fb212fd0861890c107be59060600160405180910390a1505050505050505050565b3660011981013560f01c90036014013590565b60006001600160a01b03821615610d85576040516370a0823160e01b81523060048201526001600160a01b038316906370a0823190602401602060405180830381865afa158015610d5c573d6000803e3d6000fd5b505050506040513d601f19601f82011682018060405250810190610d809190611531565b610d87565b475b92915050565b80600003610d9a57505050565b6001600160a01b038316610e1c576000826001600160a01b03168260405160006040518083038185875af1925050503d8060008114610df5576040519150601f19603f3d011682016040523d82523d6000602084013e610dfa565b606091505b505090508061069757604051630df61d5560e01b815260040160405180910390fd5b6105566001600160a01b038416838361109b565b610e386110ed565b61049d81611136565b825460009081428410610e545742610e56565b835b9050808211610e69578482820302610e6c565b60005b925050505b9392505050565b600080610e858484611168565b8760010154610e949190611507565b90508415610ed0576001600160a01b0386166000908152600288016020526040902054610ec1828761118c565b610ecb91906114f4565b610ed3565b60005b979650505050505050565b7f9016d09d72d40fdae2fd8ceac6b6234c7706214fd39c1cd1e609a0528c19930080546001600160a01b031981166001600160a01b03848116918217845560405192169182907f8be0079c531659141344cd1fd0a4f28419497f9722a3daafe3b4186f6b6457e090600090a3505050565b60015460025460008054600354919392918491610f6f9160059190610e41565b9050610f80600589898989866111a3565b935083610f8d8285611507565b610f9791906114f4565b600155610fa484836114f4565b60025550919695505050505050565b60007f00000000000000000000000000000000000000000000000000000000000000006001600160a01b031663d23ab97a610fec610cf4565b6040518263ffffffff1660e01b815260040161100a91815260200190565b602060405180830381865afa158015611027573d6000803e3d6000fd5b505050506040513d601f19601f820116820180604052508101906104179190611531565b6000806110588484611168565b8554909150421115611068574285555b801561108d57808560010160008282546110829190611507565b9250508190556104f2565b846001015495945050505050565b604080516001600160a01b038416602482015260448082018490528251808303909101815260649091019091526020810180516001600160e01b031663a9059cbb60e01b179052610556908490611227565b7ff0c57e16840df040f15088dc2f81fe391c3923bec73e23a9662efc9c229c6a0054600160401b900460ff166103f257604051631afcd79f60e31b815260040160405180910390fd5b61113e6110ed565b6001600160a01b03811661049457604051631e4fbdf760e01b81526000600482015260240161048b565b600082156111835761117e83604084901b61154a565b610e71565b60009392505050565b6000604061119a848461151a565b901c9392505050565b6000806111b188858561104b565b905085156111ed576001600160a01b03871660009081526002890160205260409020546111de828861118c565b6111e891906114f4565b6111f0565b60005b91506111fc818661118c565b6001600160a01b03909716600090815260029098016020525060409096209490945550929392505050565b600061123c6001600160a01b0384168361128a565b9050805160001415801561126157508080602001905181019061125f919061156c565b155b1561055657604051635274afe760e01b81526001600160a01b038416600482015260240161048b565b6060610e718383600084600080856001600160a01b031684866040516112b0919061158e565b60006040518083038185875af1925050503d80600081146112ed576040519150601f19603f3d011682016040523d82523d6000602084013e6112f2565b606091505b5091509150610e6c86838360608261130d5761117e82611354565b815115801561132457506001600160a01b0384163b155b1561134d57604051639996b31560e01b81526001600160a01b038516600482015260240161048b565b5080610e71565b8051156113645780518082602001fd5b604051630a12f52160e11b815260040160405180910390fd5b6001600160a01b038116811461049d57600080fd5b600080600080600060a086880312156113aa57600080fd5b85356113b58161137d565b97602087013597506040870135966060810135965060800135945092505050565b6000806000606084860312156113eb57600080fd5b505081359360208301359350604090920135919050565b60006020828403121561141457600080fd5b5035919050565b6000806040838503121561142e57600080fd5b50508035926020909101359150565b6000806040838503121561145057600080fd5b823561145b8161137d565b9150602083013561146b8161137d565b809150509250929050565b60006020828403121561148857600080fd5b8135610e718161137d565b6000806000606084860312156114a857600080fd5b83356114b38161137d565b95602085013595506040909401359392505050565b634e487b7160e01b600052602160045260246000fd5b634e487b7160e01b600052601160045260246000fd5b81810381811115610d8757610d876114de565b80820180821115610d8757610d876114de565b8082028115828204841417610d8757610d876114de565b60006020828403121561154357600080fd5b5051919050565b60008261156757634e487b7160e01b600052601260045260246000fd5b500490565b60006020828403121561157e57600080fd5b81518015158114610e7157600080fd5b6000825160005b818110156115af5760208186018101518583015201611595565b50600092019182525091905056fea26469706673582212204848344686c3357d3fa18227e25c21678ae1823c0a1f340458fccabf49e12dc564736f6c63430008140033",
    "linkReferences": {}
  },
  "methodIdentifiers": {
    "acceptOwnership()": "79ba5097",
    "getCaller()": "ab470f05",
    "getPendingReward(address,uint256,uint256)": "c7183251",
    "getPid()": "c8772963",
    "getRewarderParameter()": "39cbec9d",
    "getToken()": "21df0da7",
    "initialize(address)": "c4d66de8",
    "isStopped()": "3f683b6a",
    "link(uint256)": "b1a867d5",
    "onModify(address,uint256,uint256,uint256,uint256)": "870b50fd",
    "owner()": "8da5cb5b",
    "pendingOwner()": "e30c3978",
    "renounceOwnership()": "715018a6",
    "setRewardPerSecond(uint256,uint256)": "b5f578fc",
    "setRewarderParameters(uint256,uint256,uint256)": "89f5ab0d",
    "stop()": "07da68f5",
    "sweep(address,address)": "b8dc491b",
    "transferOwnership(address)": "f2fde38b",
    "unlink(uint256)": "f1e023fd"
  },
  "id": 97
}