{"abi":[{"type":"constructor","inputs":[{"name":"caller","type":"address","internalType":"address"}],"stateMutability":"nonpayable"},{"type":"fallback","stateMutability":"payable"},{"type":"receive","stateMutability":"payable"},{"type":"function","name":"acceptOwnership","inputs":[],"outputs":[],"stateMutability":"nonpayable"},{"type":"function","name":"getCaller","inputs":[],"outputs":[{"name":"","type":"address","internalType":"address"}],"stateMutability":"view"},{"type":"function","name":"getPendingReward","inputs":[{"name":"account","type":"address","internalType":"address"},{"name":"balance","type":"uint256","internalType":"uint256"},{"name":"totalSupply","type":"uint256","internalType":"uint256"}],"outputs":[{"name":"","type":"address","internalType":"contract IERC20"},{"name":"","type":"uint256","internalType":"uint256"}],"stateMutability":"view"},{"type":"function","name":"getPid","inputs":[],"outputs":[{"name":"","type":"uint256","internalType":"uint256"}],"stateMutability":"view"},{"type":"function","name":"getRemainingReward","inputs":[],"outputs":[{"name":"","type":"uint256","internalType":"uint256"}],"stateMutability":"view"},{"type":"function","name":"getRewarderParameter","inputs":[],"outputs":[{"name":"token","type":"address","internalType":"contract IERC20"},{"name":"rewardPerSecond","type":"uint256","internalType":"uint256"},{"name":"lastUpdateTimestamp","type":"uint256","internalType":"uint256"},{"name":"endTimestamp","type":"uint256","internalType":"uint256"}],"stateMutability":"view"},{"type":"function","name":"getToken","inputs":[],"outputs":[{"name":"","type":"address","internalType":"contract IERC20"}],"stateMutability":"view"},{"type":"function","name":"implementation","inputs":[],"outputs":[{"name":"","type":"address","internalType":"address"}],"stateMutability":"view"},{"type":"function","name":"initialize","inputs":[{"name":"initialOwner","type":"address","internalType":"address"}],"outputs":[],"stateMutability":"nonpayable"},{"type":"function","name":"isStopped","inputs":[],"outputs":[{"name":"","type":"bool","internalType":"bool"}],"stateMutability":"view"},{"type":"function","name":"link","inputs":[{"name":"pid","type":"uint256","internalType":"uint256"}],"outputs":[],"stateMutability":"nonpayable"},{"type":"function","name":"onModify","inputs":[{"name":"account","type":"address","internalType":"address"},{"name":"pid","type":"uint256","internalType":"uint256"},{"name":"oldBalance","type":"uint256","internalType":"uint256"},{"name":"newBalance","type":"uint256","internalType":"uint256"},{"name":"oldTotalSupply","type":"uint256","internalType":"uint256"}],"outputs":[{"name":"reward","type":"uint256","internalType":"uint256"}],"stateMutability":"nonpayable"},{"type":"function","name":"owner","inputs":[],"outputs":[{"name":"","type":"address","internalType":"address"}],"stateMutability":"view"},{"type":"function","name":"pendingOwner","inputs":[],"outputs":[{"name":"","type":"address","internalType":"address"}],"stateMutability":"view"},{"type":"function","name":"renounceOwnership","inputs":[],"outputs":[],"stateMutability":"pure"},{"type":"function","name":"setRewardPerSecond","inputs":[{"name":"maxRewardPerSecond","type":"uint256","internalType":"uint256"},{"name":"expectedDuration","type":"uint256","internalType":"uint256"}],"outputs":[{"name":"rewardPerSecond","type":"uint256","internalType":"uint256"}],"stateMutability":"nonpayable"},{"type":"function","name":"setRewarderParameters","inputs":[{"name":"maxRewardPerSecond","type":"uint256","internalType":"uint256"},{"name":"startTimestamp","type":"uint256","internalType":"uint256"},{"name":"expectedDuration","type":"uint256","internalType":"uint256"}],"outputs":[{"name":"rewardPerSecond","type":"uint256","internalType":"uint256"}],"stateMutability":"nonpayable"},{"type":"function","name":"stop","inputs":[],"outputs":[],"stateMutability":"pure"},{"type":"function","name":"sweep","inputs":[{"name":"token","type":"address","internalType":"contract IERC20"},{"name":"account","type":"address","internalType":"address"}],"outputs":[],"stateMutability":"nonpayable"},{"type":"function","name":"transferOwnership","inputs":[{"name":"newOwner","type":"address","internalType":"address"}],"outputs":[],"stateMutability":"nonpayable"},{"type":"function","name":"unlink","inputs":[{"name":"pid","type":"uint256","internalType":"uint256"}],"outputs":[],"stateMutability":"nonpayable"},{"type":"event","name":"Claim","inputs":[{"name":"account","type":"address","indexed":true,"internalType":"address"},{"name":"token","type":"address","indexed":true,"internalType":"contract IERC20"},{"name":"reward","type":"uint256","indexed":false,"internalType":"uint256"}],"anonymous":false},{"type":"event","name":"Initialized","inputs":[{"name":"version","type":"uint64","indexed":false,"internalType":"uint64"}],"anonymous":false},{"type":"event","name":"OwnershipTransferStarted","inputs":[{"name":"previousOwner","type":"address","indexed":true,"internalType":"address"},{"name":"newOwner","type":"address","indexed":true,"internalType":"address"}],"anonymous":false},{"type":"event","name":"OwnershipTransferred","inputs":[{"name":"previousOwner","type":"address","indexed":true,"internalType":"address"},{"name":"newOwner","type":"address","indexed":true,"internalType":"address"}],"anonymous":false},{"type":"event","name":"RewardParameterUpdated","inputs":[{"name":"rewardPerSecond","type":"uint256","indexed":false,"internalType":"uint256"},{"name":"startTimestamp","type":"uint256","indexed":false,"internalType":"uint256"},{"name":"endTimestamp","type":"uint256","indexed":false,"internalType":"uint256"}],"anonymous":false},{"type":"event","name":"Stopped","inputs":[],"anonymous":false},{"type":"event","name":"Swept","inputs":[{"name":"token","type":"address","indexed":true,"internalType":"contract IERC20"},{"name":"account","type":"address","indexed":true,"internalType":"address"},{"name":"amount","type":"uint256","indexed":false,"internalType":"uint256"}],"anonymous":false},{"type":"error","name":"AddressEmptyCode","inputs":[{"name":"target","type":"address","internalType":"address"}]},{"type":"error","name":"AddressInsufficientBalance","inputs":[{"name":"account","type":"address","internalType":"address"}]},{"type":"error","name":"BaseRewarder__AlreadyStopped","inputs":[]},{"type":"error","name":"BaseRewarder__CannotRenounceOwnership","inputs":[]},{"type":"error","name":"BaseRewarder__InvalidCaller","inputs":[]},{"type":"error","name":"BaseRewarder__InvalidDuration","inputs":[]},{"type":"error","name":"BaseRewarder__InvalidPid","inputs":[{"name":"pid","type":"uint256","internalType":"uint256"}]},{"type":"error","name":"BaseRewarder__InvalidStartTimestamp","inputs":[{"name":"startTimestamp","type":"uint256","internalType":"uint256"}]},{"type":"error","name":"BaseRewarder__NativeTransferFailed","inputs":[]},{"type":"error","name":"BaseRewarder__NotNativeRewarder","inputs":[]},{"type":"error","name":"BaseRewarder__Stopped","inputs":[]},{"type":"error","name":"BaseRewarder__ZeroAmount","inputs":[]},{"type":"error","name":"BaseRewarder__ZeroReward","inputs":[]},{"type":"error","name":"FailedInnerCall","inputs":[]},{"type":"error","name":"InvalidInitialization","inputs":[]},{"type":"error","name":"MasterChefRewarder__AlreadyLinked","inputs":[]},{"type":"error","name":"MasterChefRewarder__NotLinked","inputs":[]},{"type":"error","name":"MasterChefRewarder__UseUnlink","inputs":[]},{"type":"error","name":"NotInitializing","inputs":[]},{"type":"error","name":"OwnableInvalidOwner","inputs":[{"name":"owner","type":"address","internalType":"address"}]},{"type":"error","name":"OwnableUnauthorizedAccount","inputs":[{"name":"account","type":"address","internalType":"address"}]},{"type":"error","name":"SafeERC20FailedOperation","inputs":[{"name":"token","type":"address","internalType":"address"}]}],"bytecode":{"object":"0x60c06040523480156200001157600080fd5b506040516200195d3803806200195d83398101604081905262000034916200010c565b6001600160a01b03811660a05230608052806200005062000058565b50506200013e565b7ff0c57e16840df040f15088dc2f81fe391c3923bec73e23a9662efc9c229c6a00805468010000000000000000900460ff1615620000a95760405163f92ee8a960e01b815260040160405180910390fd5b80546001600160401b0390811614620001095780546001600160401b0319166001600160401b0390811782556040519081527fc7f505b2f371ae2175ee4913f4499e1f2633a7b5936321eed1cdaeb6115181d29060200160405180910390a15b50565b6000602082840312156200011f57600080fd5b81516001600160a01b03811681146200013757600080fd5b9392505050565b60805160a0516117dd620001806000396000818161031f015281816105fc01528181610a0601528181610b9a0152610f4d0152600061026101526117dd6000f3fe60806040526004361061016e5760003560e01c8063ab470f05116100cb578063c4d66de81161007f578063e30c397811610059578063e30c397814610439578063f1e023fd1461044e578063f2fde38b1461046e5761017d565b8063c4d66de8146103b8578063c7183251146103d8578063c8772963146104175761017d565b8063b5f578fc116100b0578063b5f578fc14610363578063b8dc491b14610383578063c0b5fca0146103a35761017d565b8063ab470f0514610310578063b1a867d5146103435761017d565b8063715018a611610122578063870b50fd11610107578063870b50fd146102ad57806389f5ab0d146102db5780638da5cb5b146102fb5761017d565b8063715018a61461028357806379ba5097146102985761017d565b806339cbec9d1161015357806339cbec9d146101d55780633f683b6a1461022c5780635c60da1b1461024f5761017d565b806307da68f51461018557806321df0da71461019a5761017d565b3661017d5761017b61048e565b005b61017b61048e565b34801561019157600080fd5b5061017b6104be565b3480156101a657600080fd5b503660011981013560f01c90033560601c5b6040516001600160a01b0390911681526020015b60405180910390f35b3480156101e157600080fd5b50610202600054600554600354600119369081013560f01c90033560601c93565b604080516001600160a01b03909516855260208501939093529183015260608201526080016101cc565b34801561023857600080fd5b5060045460ff1660405190151581526020016101cc565b34801561025b57600080fd5b506101b87f000000000000000000000000000000000000000000000000000000000000000081565b34801561028f57600080fd5b5061017b6104dc565b3480156102a457600080fd5b5061017b6104f5565b3480156102b957600080fd5b506102cd6102c836600461157c565b610542565b6040519081526020016101cc565b3480156102e757600080fd5b506102cd6102f63660046115c0565b61059d565b34801561030757600080fd5b506101b86105bc565b34801561031c57600080fd5b507f00000000000000000000000000000000000000000000000000000000000000006101b8565b34801561034f57600080fd5b5061017b61035e3660046115ec565b6105f1565b34801561036f57600080fd5b506102cd61037e366004611605565b6106d7565b34801561038f57600080fd5b5061017b61039e366004611627565b61070d565b3480156103af57600080fd5b506102cd6107ff565b3480156103c457600080fd5b5061017b6103d3366004611660565b610869565b3480156103e457600080fd5b506103f86103f336600461167d565b61098d565b604080516001600160a01b0390931683526020830191909152016101cc565b34801561042357600080fd5b503660011981013560f01c9003601401356102cd565b34801561044557600080fd5b506101b86109d2565b34801561045a57600080fd5b5061017b6104693660046115ec565b6109fb565b34801561047a57600080fd5b5061017b610489366004611660565b610acc565b3660011981013560f01c90033560601c156104bc57604051639415816f60e01b815260040160405180910390fd5b565b60405163f92ad2c760e01b815260040160405180910390fd5b905090565b6040516313e3bb6f60e21b815260040160405180910390fd5b33806104ff6109d2565b6001600160a01b0316146105365760405163118cdaa760e01b81526001600160a01b03821660048201526024015b60405180910390fd5b61053f81610b51565b50565b6000600160085460ff16600281111561055d5761055d6116b2565b1461057b5760405163d0ef47e760e01b815260040160405180910390fd5b6105888686868686610b8d565b90506105948682610c20565b95945050505050565b60006105a7610c80565b6105b2848484610cb2565b90505b9392505050565b6000807f9016d09d72d40fdae2fd8ceac6b6234c7706214fd39c1cd1e609a0528c1993005b546001600160a01b031692915050565b336001600160a01b037f0000000000000000000000000000000000000000000000000000000000000000161461063a5760405163332bf49d60e21b815260040160405180910390fd5b600060085460ff166002811115610653576106536116b2565b1461067157604051630d85b6ed60e01b815260040160405180910390fd5b3660011981013560f01c90036014013581146106a35760405163e7ca808760e01b81526004810182905260240161052d565b60045460ff16156106c757604051630f3e8c1360e11b815260040160405180910390fd5b506008805460ff19166001179055565b60006106e1610c80565b60055460004282116106f357426106f5565b815b9050610702858286610cb2565b925050505b92915050565b610715610c80565b600061072083610e7c565b90503660011981013560f01c90033560601c6001600160a01b038416036107815760045460ff1615610771576000610756610f01565b111561076c5760015461076990826116de565b90505b610781565b60025461077e90826116de565b90505b806000036107a2576040516360e6da0360e01b815260040160405180910390fd5b6107ad838383610fbe565b816001600160a01b0316836001600160a01b03167f7b09c29f9106defeccc9ac3b823f3aad0b470d120e5df7aed033b5c43a4bf718836040516107f291815260200190565b60405180910390a3505050565b60008061080a610f01565b9050600061082a60005460035484600561106c909392919063ffffffff16565b905060008160015461083c91906116f1565b9050806108573660011981013560f01c90033560601c610e7c565b61086191906116de565b935050505090565b7ff0c57e16840df040f15088dc2f81fe391c3923bec73e23a9662efc9c229c6a00805468010000000000000000810460ff16159067ffffffffffffffff166000811580156108b45750825b905060008267ffffffffffffffff1660011480156108d15750303b155b9050811580156108df575080155b156108fd5760405163f92ee8a960e01b815260040160405180910390fd5b845467ffffffffffffffff19166001178555831561093157845468ff00000000000000001916680100000000000000001785555b61093a866110c3565b831561098557845468ff000000000000000019168555604051600181527fc7f505b2f371ae2175ee4913f4499e1f2633a7b5936321eed1cdaeb6115181d29060200160405180910390a15b505050505050565b60008054600354829182916109a5916005918761106c565b90503660011981013560f01c90033560601c6109c56005888888866110d4565b9250925050935093915050565b6000807f237e158222e3e6968b72b9db0d8043aacf074ad9f650f0d1606b4d82ee432c006105e1565b336001600160a01b037f00000000000000000000000000000000000000000000000000000000000000001614610a445760405163332bf49d60e21b815260040160405180910390fd5b3660011981013560f01c9003601401358114610a765760405163e7ca808760e01b81526004810182905260240161052d565b600160085460ff166002811115610a8f57610a8f6116b2565b14610aad5760405163d0ef47e760e01b815260040160405180910390fd5b506008805460ff19908116600217909155600480549091166001179055565b610ad4610c80565b7f237e158222e3e6968b72b9db0d8043aacf074ad9f650f0d1606b4d82ee432c0080546001600160a01b0319166001600160a01b0383169081178255610b186105bc565b6001600160a01b03167f38d16b8cac22d99fc7c124b9cd0de2d3fa1faef420bfe791d8c362d765e2270060405160405180910390a35050565b7f237e158222e3e6968b72b9db0d8043aacf074ad9f650f0d1606b4d82ee432c0080546001600160a01b0319168155610b898261113a565b5050565b6000336001600160a01b037f00000000000000000000000000000000000000000000000000000000000000001614610bd85760405163332bf49d60e21b815260040160405180910390fd5b3660011981013560f01c9003601401358514610c0a5760405163e7ca808760e01b81526004810186905260240161052d565b610c16868585856111ab565b9695505050505050565b3660011981013560f01c90033560601c610c3b818484610fbe565b806001600160a01b0316836001600160a01b03167f70eb43c4a8ae8c40502dcf22436c509c28d6ff421cf07c491be56984bd987068846040516107f291815260200190565b33610c896105bc565b6001600160a01b0316146104bc5760405163118cdaa760e01b815233600482015260240161052d565b600042831015610cd857604051635c62004b60e11b81526004810184905260240161052d565b60045460ff1615610cfc57604051630f3e8c1360e11b815260040160405180910390fd5b81158015610d0957508315155b15610d2757604051631a4778f160e31b815260040160405180910390fd5b6001546000610d34610f01565b90506000610d5460005460035484600561106c909392919063ffffffff16565b9050610d6081846116f1565b9250600083610d7d3660011981013560f01c90033560601c610e7c565b610d8791906116de565b90506000610d95878a611704565b9050818111610da45788610dae565b610dae878361171b565b95506000610dbc8888611704565b90508715801590610dcb575080155b15610de957604051634ef6878160e01b815260040160405180910390fd5b6000610df5898b6116f1565b60008990559050610e0682886116f1565b60025560038190556001879055610e1f6005878761121b565b50428a14610e2d5760058a90555b60408051898152602081018c90529081018290527ff0b276e9ee40b3a3d065f636ee656c9bf1c9a0c4060fb212fd0861890c107be59060600160405180910390a1505050505050509392505050565b60006001600160a01b03821615610efa576040516370a0823160e01b81523060048201526001600160a01b038316906370a0823190602401602060405180830381865afa158015610ed1573d6000803e3d6000fd5b505050506040513d601f19601f82011682018060405250810190610ef5919061173d565b610707565b4792915050565b6000600160085460ff166002811115610f1c57610f1c6116b2565b03610fb85760405163691d5cbd60e11b81523660011981013560f01c90036014013560048201526001600160a01b037f0000000000000000000000000000000000000000000000000000000000000000169063d23ab97a90602401602060405180830381865afa158015610f94573d6000803e3d6000fd5b505050506040513d601f19601f820116820180604052508101906104d7919061173d565b50600090565b80600003610fcb57505050565b6001600160a01b038316611053576000826001600160a01b03168260405160006040518083038185875af1925050503d8060008114611026576040519150601f19603f3d011682016040523d82523d6000602084013e61102b565b606091505b505090508061104d57604051630df61d5560e01b815260040160405180910390fd5b50505050565b6110676001600160a01b038416838361126b565b505050565b60008160000361107e575060006110bb565b8454600042851061108f5742611091565b845b90508181116110a15760006110b6565b856110ac83836116de565b6110b69190611704565b925050505b949350505050565b6110cb6112d2565b61053f81611320565b6000806110e18484611352565b87600101546110f091906116f1565b9050841561112c576001600160a01b038616600090815260028801602052604090205461111d8287611376565b61112791906116de565b61112f565b60005b979650505050505050565b7f9016d09d72d40fdae2fd8ceac6b6234c7706214fd39c1cd1e609a0528c19930080546001600160a01b031981166001600160a01b03848116918217845560405192169182907f8be0079c531659141344cd1fd0a4f28419497f9722a3daafe3b4186f6b6457e090600090a3505050565b600154600254600091908284156111d4576000546003546111cf916005918861106c565b6111d7565b60005b90506111e86005898989898661138d565b9350836111f582856116f1565b6111ff91906116de565b60015561120c84836116de565b60025550919695505050505050565b6000806112288484611352565b8554909150421115611238574285555b801561125d578085600101600082825461125291906116f1565b925050819055610594565b846001015495945050505050565b604080516001600160a01b038416602482015260448082018490528251808303909101815260649091019091526020810180517bffffffffffffffffffffffffffffffffffffffffffffffffffffffff1663a9059cbb60e01b179052611067908490611411565b7ff0c57e16840df040f15088dc2f81fe391c3923bec73e23a9662efc9c229c6a005468010000000000000000900460ff166104bc57604051631afcd79f60e31b815260040160405180910390fd5b6113286112d2565b6001600160a01b03811661053657604051631e4fbdf760e01b81526000600482015260240161052d565b6000821561136d5761136883604084901b61171b565b6105b5565b60009392505050565b600060406113848484611704565b901c9392505050565b60008061139b88858561121b565b905085156113d7576001600160a01b03871660009081526002890160205260409020546113c88288611376565b6113d291906116de565b6113da565b60005b91506113e68186611376565b6001600160a01b03909716600090815260029098016020525060409096209490945550929392505050565b60006114266001600160a01b03841683611474565b9050805160001415801561144b5750808060200190518101906114499190611756565b155b1561106757604051635274afe760e01b81526001600160a01b038416600482015260240161052d565b60606105b58383600084600080856001600160a01b0316848660405161149a9190611778565b60006040518083038185875af1925050503d80600081146114d7576040519150601f19603f3d011682016040523d82523d6000602084013e6114dc565b606091505b5091509150610c168683836060826114f7576113688261153e565b815115801561150e57506001600160a01b0384163b155b1561153757604051639996b31560e01b81526001600160a01b038516600482015260240161052d565b50806105b5565b80511561154e5780518082602001fd5b604051630a12f52160e11b815260040160405180910390fd5b6001600160a01b038116811461053f57600080fd5b600080600080600060a0868803121561159457600080fd5b853561159f81611567565b97602087013597506040870135966060810135965060800135945092505050565b6000806000606084860312156115d557600080fd5b505081359360208301359350604090920135919050565b6000602082840312156115fe57600080fd5b5035919050565b6000806040838503121561161857600080fd5b50508035926020909101359150565b6000806040838503121561163a57600080fd5b823561164581611567565b9150602083013561165581611567565b809150509250929050565b60006020828403121561167257600080fd5b81356105b581611567565b60008060006060848603121561169257600080fd5b833561169d81611567565b95602085013595506040909401359392505050565b634e487b7160e01b600052602160045260246000fd5b634e487b7160e01b600052601160045260246000fd5b81810381811115610707576107076116c8565b80820180821115610707576107076116c8565b8082028115828204841417610707576107076116c8565b60008261173857634e487b7160e01b600052601260045260246000fd5b500490565b60006020828403121561174f57600080fd5b5051919050565b60006020828403121561176857600080fd5b815180151581146105b557600080fd5b6000825160005b81811015611799576020818601810151858301520161177f565b50600092019182525091905056fea2646970667358221220a041396a7d71e3796306914c1530687558c6897c22950cdf6717808ef3f45a9c64736f6c63430008140033","linkReferences":{}},"methodIdentifiers":{"acceptOwnership()":"79ba5097","getCaller()":"ab470f05","getPendingReward(address,uint256,uint256)":"c7183251","getPid()":"c8772963","getRemainingReward()":"c0b5fca0","getRewarderParameter()":"39cbec9d","getToken()":"21df0da7","implementation()":"5c60da1b","initialize(address)":"c4d66de8","isStopped()":"3f683b6a","link(uint256)":"b1a867d5","onModify(address,uint256,uint256,uint256,uint256)":"870b50fd","owner()":"8da5cb5b","pendingOwner()":"e30c3978","renounceOwnership()":"715018a6","setRewardPerSecond(uint256,uint256)":"b5f578fc","setRewarderParameters(uint256,uint256,uint256)":"89f5ab0d","stop()":"07da68f5","sweep(address,address)":"b8dc491b","transferOwnership(address)":"f2fde38b","unlink(uint256)":"f1e023fd"},"id":105}