{
  "abi": [
    {
      "inputs": [
        {
          "internalType": "address",
          "name": "masterChef_",
          "type": "address"
        },
        {
          "internalType": "contract IERC20",
          "name": "token_",
          "type": "address"
        },
        {
          "internalType": "uint256",
          "name": "start_",
          "type": "uint256"
        },
        {
          "internalType": "uint256",
          "name": "duration_",
          "type": "uint256"
        }
      ],
      "stateMutability": "nonpayable",
      "type": "constructor"
    },
    {
      "inputs": [
        {
          "internalType": "address",
          "name": "target",
          "type": "address"
        }
      ],
      "name": "AddressEmptyCode",
      "type": "error"
    },
    {
      "inputs": [
        {
          "internalType": "address",
          "name": "account",
          "type": "address"
        }
      ],
      "name": "AddressInsufficientBalance",
      "type": "error"
    },
    {
      "inputs": [],
      "name": "FailedInnerCall",
      "type": "error"
    },
    {
      "inputs": [
        {
          "internalType": "uint8",
          "name": "bits",
          "type": "uint8"
        },
        {
          "internalType": "uint256",
          "name": "value",
          "type": "uint256"
        }
      ],
      "name": "SafeCastOverflowedUintDowncast",
      "type": "error"
    },
    {
      "inputs": [
        {
          "internalType": "address",
          "name": "token",
          "type": "address"
        }
      ],
      "name": "SafeERC20FailedOperation",
      "type": "error"
    },
    {
      "inputs": [],
      "name": "VestingContract__NotBeneficiary",
      "type": "error"
    },
    {
      "inputs": [],
      "name": "VestingContract__NotMasterChefOwner",
      "type": "error"
    },
    {
      "anonymous": false,
      "inputs": [
        {
          "indexed": false,
          "internalType": "address",
          "name": "beneficiary",
          "type": "address"
        }
      ],
      "name": "BeneficiarySet",
      "type": "event"
    },
    {
      "anonymous": false,
      "inputs": [
        {
          "indexed": false,
          "internalType": "address",
          "name": "beneficiary",
          "type": "address"
        },
        {
          "indexed": false,
          "internalType": "uint256",
          "name": "amount",
          "type": "uint256"
        }
      ],
      "name": "Released",
      "type": "event"
    },
    {
      "anonymous": false,
      "inputs": [],
      "name": "Revoked",
      "type": "event"
    },
    {
      "inputs": [],
      "name": "beneficiary",
      "outputs": [
        {
          "internalType": "address",
          "name": "",
          "type": "address"
        }
      ],
      "stateMutability": "view",
      "type": "function"
    },
    {
      "inputs": [],
      "name": "duration",
      "outputs": [
        {
          "internalType": "uint256",
          "name": "",
          "type": "uint256"
        }
      ],
      "stateMutability": "view",
      "type": "function"
    },
    {
      "inputs": [],
      "name": "end",
      "outputs": [
        {
          "internalType": "uint256",
          "name": "",
          "type": "uint256"
        }
      ],
      "stateMutability": "view",
      "type": "function"
    },
    {
      "inputs": [],
      "name": "masterChef",
      "outputs": [
        {
          "internalType": "address",
          "name": "",
          "type": "address"
        }
      ],
      "stateMutability": "view",
      "type": "function"
    },
    {
      "inputs": [],
      "name": "releasable",
      "outputs": [
        {
          "internalType": "uint256",
          "name": "",
          "type": "uint256"
        }
      ],
      "stateMutability": "view",
      "type": "function"
    },
    {
      "inputs": [],
      "name": "release",
      "outputs": [],
      "stateMutability": "nonpayable",
      "type": "function"
    },
    {
      "inputs": [],
      "name": "released",
      "outputs": [
        {
          "internalType": "uint256",
          "name": "",
          "type": "uint256"
        }
      ],
      "stateMutability": "view",
      "type": "function"
    },
    {
      "inputs": [],
      "name": "revoke",
      "outputs": [],
      "stateMutability": "nonpayable",
      "type": "function"
    },
    {
      "inputs": [],
      "name": "revoked",
      "outputs": [
        {
          "internalType": "bool",
          "name": "",
          "type": "bool"
        }
      ],
      "stateMutability": "view",
      "type": "function"
    },
    {
      "inputs": [
        {
          "internalType": "address",
          "name": "newBeneficiary",
          "type": "address"
        }
      ],
      "name": "setBeneficiary",
      "outputs": [],
      "stateMutability": "nonpayable",
      "type": "function"
    },
    {
      "inputs": [],
      "name": "start",
      "outputs": [
        {
          "internalType": "uint256",
          "name": "",
          "type": "uint256"
        }
      ],
      "stateMutability": "view",
      "type": "function"
    },
    {
      "inputs": [],
      "name": "token",
      "outputs": [
        {
          "internalType": "contract IERC20",
          "name": "",
          "type": "address"
        }
      ],
      "stateMutability": "view",
      "type": "function"
    },
    {
      "inputs": [
        {
          "internalType": "uint256",
          "name": "timestamp",
          "type": "uint256"
        }
      ],
      "name": "vestedAmount",
      "outputs": [
        {
          "internalType": "uint256",
          "name": "",
          "type": "uint256"
        }
      ],
      "stateMutability": "view",
      "type": "function"
    }
  ],
  "bytecode": {
    "object": "0x61010060405234801561001157600080fd5b50604051610d51380380610d518339810160408190526100309161006b565b6001600160a01b039384166080529190921660a05260c09190915260e0526100b3565b6001600160a01b038116811461006857600080fd5b50565b6000806000806080858703121561008157600080fd5b845161008c81610053565b602086015190945061009d81610053565b6040860151606090960151949790965092505050565b60805160a05160c05160e051610c196101386000396000818160e60152818161071d01526107f30152600081816101d70152818161073e015281816107ae015261081701526000818161020d0152818161026201528181610496015281816105d201526106c1015260008181610168015281816102ed015261050f0152610c196000f3fe608060405234801561001057600080fd5b50600436106100df5760003560e01c806386d1a69f1161008c578063be9a655511610066578063be9a6555146101d5578063efbe1c1c146101fb578063fbccedae14610203578063fc0c546a1461020b57600080fd5b806386d1a69f146101a957806396132521146101b1578063b6549f75146101cd57600080fd5b806338af3eed116100bd57806338af3eed14610141578063575a86b21461016657806363d256ce1461018c57600080fd5b80630fb5a6b4146100e45780631bfce853146101195780631c31f7101461012c575b600080fd5b7f00000000000000000000000000000000000000000000000000000000000000005b6040519081526020015b60405180910390f35b610106610127366004610a71565b610231565b61013f61013a366004610a9f565b6102eb565b005b6000546001600160a01b03165b6040516001600160a01b039091168152602001610110565b7f000000000000000000000000000000000000000000000000000000000000000061014e565b600054600160f81b900460ff166040519015158152602001610110565b61013f610400565b600054600160a01b90046affffffffffffffffffffff16610106565b61013f61050b565b7f0000000000000000000000000000000000000000000000000000000000000000610106565b610106610716565b610106610767565b7f000000000000000000000000000000000000000000000000000000000000000061014e565b600080546102e590600160a01b90046affffffffffffffffffffff166040516370a0823160e01b81523060048201527f00000000000000000000000000000000000000000000000000000000000000006001600160a01b0316906370a0823190602401602060405180830381865afa1580156102b1573d6000803e3d6000fd5b505050506040513d601f19601f820116820180604052508101906102d59190610abc565b6102df9190610aeb565b83610792565b92915050565b7f00000000000000000000000000000000000000000000000000000000000000006001600160a01b0316638da5cb5b6040518163ffffffff1660e01b8152600401602060405180830381865afa158015610349573d6000803e3d6000fd5b505050506040513d601f19601f8201168201806040525081019061036d9190610afe565b6001600160a01b0316336001600160a01b03161461039e57604051634ccfe47160e11b815260040160405180910390fd5b6000805473ffffffffffffffffffffffffffffffffffffffff19166001600160a01b0383169081179091556040519081527f04d55a8be181fb8d75b76f2d48aa0b2ee40f47e53d6e61763eeeec46feea8a24906020015b60405180910390a150565b6000546001600160a01b0316331461042b576040516378bc1bbf60e11b815260040160405180910390fd5b6000610435610767565b905061044081610857565b60008054601490610466908490600160a01b90046affffffffffffffffffffff16610b1b565b82546affffffffffffffffffffff9182166101009390930a9283029190920219909116179055506000546104c8907f00000000000000000000000000000000000000000000000000000000000000006001600160a01b03908116911683610898565b600054604080516001600160a01b039092168252602082018390527fb21fb52d5749b80f3182f8c6992236b5e5576681880914484d7f4c9b062e619e91016103f5565b60007f00000000000000000000000000000000000000000000000000000000000000006001600160a01b0316638da5cb5b6040518163ffffffff1660e01b8152600401602060405180830381865afa15801561056b573d6000803e3d6000fd5b505050506040513d601f19601f8201168201806040525081019061058f9190610afe565b9050336001600160a01b038216146105ba57604051634ccfe47160e11b815260040160405180910390fd5b6040516370a0823160e01b81523060048201526000907f00000000000000000000000000000000000000000000000000000000000000006001600160a01b0316906370a0823190602401602060405180830381865afa158015610621573d6000803e3d6000fd5b505050506040513d601f19601f820116820180604052508101906106459190610abc565b9050600061067a61066a6000546affffffffffffffffffffff600160a01b9091041690565b6106749084610aeb565b42610792565b600080547effffffffffffffffffffffffffffffffffffffffffffffffffffffffffffff16600160f81b17905590506106e8836106b78385610b46565b6001600160a01b037f0000000000000000000000000000000000000000000000000000000000000000169190610898565b6040517f44825a4b2df8acb19ce4e1afba9aa850c8b65cdb7942e2078f27d0b0960efee690600090a1505050565b60006107627f00000000000000000000000000000000000000000000000000000000000000007f0000000000000000000000000000000000000000000000000000000000000000610aeb565b905090565b60008054600160a01b90046affffffffffffffffffffff1661078842610231565b6107629190610b46565b60008054600160f81b900460ff16156107ac5750816102e5565b7f00000000000000000000000000000000000000000000000000000000000000008210156107dc575060006102e5565b6107e4610716565b82106107f15750816102e5565b7f000000000000000000000000000000000000000000000000000000000000000061083c7f000000000000000000000000000000000000000000000000000000000000000084610b46565b6108469085610b59565b6108509190610b70565b9392505050565b60006affffffffffffffffffffff821115610894576040516306dfcc6560e41b815260586004820152602481018390526044015b60405180910390fd5b5090565b604080516001600160a01b038416602482015260448082018490528251808303909101815260649091019091526020810180517bffffffffffffffffffffffffffffffffffffffffffffffffffffffff1663a9059cbb60e01b1790526108ff908490610904565b505050565b60006109196001600160a01b03841683610967565b9050805160001415801561093e57508080602001905181019061093c9190610b92565b155b156108ff57604051635274afe760e01b81526001600160a01b038416600482015260240161088b565b60606108508383600084600080856001600160a01b0316848660405161098d9190610bb4565b60006040518083038185875af1925050503d80600081146109ca576040519150601f19603f3d011682016040523d82523d6000602084013e6109cf565b606091505b50915091506109df8683836109e9565b9695505050505050565b6060826109fe576109f982610a45565b610850565b8151158015610a1557506001600160a01b0384163b155b15610a3e57604051639996b31560e01b81526001600160a01b038516600482015260240161088b565b5080610850565b805115610a555780518082602001fd5b604051630a12f52160e11b815260040160405180910390fd5b50565b600060208284031215610a8357600080fd5b5035919050565b6001600160a01b0381168114610a6e57600080fd5b600060208284031215610ab157600080fd5b813561085081610a8a565b600060208284031215610ace57600080fd5b5051919050565b634e487b7160e01b600052601160045260246000fd5b808201808211156102e5576102e5610ad5565b600060208284031215610b1057600080fd5b815161085081610a8a565b6affffffffffffffffffffff818116838216019080821115610b3f57610b3f610ad5565b5092915050565b818103818111156102e5576102e5610ad5565b80820281158282048414176102e5576102e5610ad5565b600082610b8d57634e487b7160e01b600052601260045260246000fd5b500490565b600060208284031215610ba457600080fd5b8151801515811461085057600080fd5b6000825160005b81811015610bd55760208186018101518583015201610bbb565b50600092019182525091905056fea2646970667358221220de06eec6bd3366cce9a8906d3a0a7e27f5628c55b5462440394b5bd6315a3f9964736f6c63430008140033",
    "linkReferences": {}
  },
  "methodIdentifiers": {
    "beneficiary()": "38af3eed",
    "duration()": "0fb5a6b4",
    "end()": "efbe1c1c",
    "masterChef()": "575a86b2",
    "releasable()": "fbccedae",
    "release()": "86d1a69f",
    "released()": "96132521",
    "revoke()": "b6549f75",
    "revoked()": "63d256ce",
    "setBeneficiary(address)": "1c31f710",
    "start()": "be9a6555",
    "token()": "fc0c546a",
    "vestedAmount(uint256)": "1bfce853"
  },
  "id": 65
}