{"abi":[{"type":"constructor","inputs":[{"name":"masterChef_","type":"address","internalType":"address"},{"name":"token_","type":"address","internalType":"contract IERC20"},{"name":"start_","type":"uint256","internalType":"uint256"},{"name":"duration_","type":"uint256","internalType":"uint256"}],"stateMutability":"nonpayable"},{"type":"function","name":"beneficiary","inputs":[],"outputs":[{"name":"","type":"address","internalType":"address"}],"stateMutability":"view"},{"type":"function","name":"duration","inputs":[],"outputs":[{"name":"","type":"uint256","internalType":"uint256"}],"stateMutability":"view"},{"type":"function","name":"end","inputs":[],"outputs":[{"name":"","type":"uint256","internalType":"uint256"}],"stateMutability":"view"},{"type":"function","name":"masterChef","inputs":[],"outputs":[{"name":"","type":"address","internalType":"address"}],"stateMutability":"view"},{"type":"function","name":"releasable","inputs":[],"outputs":[{"name":"","type":"uint256","internalType":"uint256"}],"stateMutability":"view"},{"type":"function","name":"release","inputs":[],"outputs":[],"stateMutability":"nonpayable"},{"type":"function","name":"released","inputs":[],"outputs":[{"name":"","type":"uint256","internalType":"uint256"}],"stateMutability":"view"},{"type":"function","name":"revoke","inputs":[],"outputs":[],"stateMutability":"nonpayable"},{"type":"function","name":"revoked","inputs":[],"outputs":[{"name":"","type":"bool","internalType":"bool"}],"stateMutability":"view"},{"type":"function","name":"setBeneficiary","inputs":[{"name":"newBeneficiary","type":"address","internalType":"address"}],"outputs":[],"stateMutability":"nonpayable"},{"type":"function","name":"start","inputs":[],"outputs":[{"name":"","type":"uint256","internalType":"uint256"}],"stateMutability":"view"},{"type":"function","name":"token","inputs":[],"outputs":[{"name":"","type":"address","internalType":"contract IERC20"}],"stateMutability":"view"},{"type":"function","name":"vestedAmount","inputs":[{"name":"timestamp","type":"uint256","internalType":"uint256"}],"outputs":[{"name":"","type":"uint256","internalType":"uint256"}],"stateMutability":"view"},{"type":"event","name":"BeneficiarySet","inputs":[{"name":"beneficiary","type":"address","indexed":false,"internalType":"address"}],"anonymous":false},{"type":"event","name":"Released","inputs":[{"name":"beneficiary","type":"address","indexed":false,"internalType":"address"},{"name":"amount","type":"uint256","indexed":false,"internalType":"uint256"}],"anonymous":false},{"type":"event","name":"Revoked","inputs":[],"anonymous":false},{"type":"error","name":"AddressEmptyCode","inputs":[{"name":"target","type":"address","internalType":"address"}]},{"type":"error","name":"AddressInsufficientBalance","inputs":[{"name":"account","type":"address","internalType":"address"}]},{"type":"error","name":"FailedInnerCall","inputs":[]},{"type":"error","name":"SafeERC20FailedOperation","inputs":[{"name":"token","type":"address","internalType":"address"}]},{"type":"error","name":"VestingContract__AlreadyRevoked","inputs":[]},{"type":"error","name":"VestingContract__NotBeneficiary","inputs":[]},{"type":"error","name":"VestingContract__NotMasterChefOwner","inputs":[]}],"bytecode":{"object":"0x61010060405234801561001157600080fd5b50604051610c8e380380610c8e8339810160408190526100309161006b565b6001600160a01b039384166080529190921660a05260c09190915260e0526100b3565b6001600160a01b038116811461006857600080fd5b50565b6000806000806080858703121561008157600080fd5b845161008c81610053565b602086015190945061009d81610053565b6040860151606090960151949790965092505050565b60805160a05160c05160e051610b5d6101316000396000818160e6015281816106bf015261075f0152600081816101c3015281816106e0015261073e0152600081816101f90152818161024001528181610439015281816105970152610662015260008181610168015281816102cb015261049a0152610b5d6000f3fe608060405234801561001057600080fd5b50600436106100df5760003560e01c806386d1a69f1161008c578063be9a655511610066578063be9a6555146101c1578063efbe1c1c146101e7578063fbccedae146101ef578063fc0c546a146101f757600080fd5b806386d1a69f146101a957806396132521146101b1578063b6549f75146101b957600080fd5b806338af3eed116100bd57806338af3eed14610141578063575a86b21461016657806363d256ce1461018c57600080fd5b80630fb5a6b4146100e45780631bfce853146101195780631c31f7101461012c575b600080fd5b7f00000000000000000000000000000000000000000000000000000000000000005b6040519081526020015b60405180910390f35b6101066101273660046109e0565b61021d565b61013f61013a366004610a0e565b6102c9565b005b6001546001600160a01b03165b6040516001600160a01b039091168152602001610110565b7f000000000000000000000000000000000000000000000000000000000000000061014e565b600154600160a01b900460ff166040519015158152602001610110565b61013f6103de565b600054610106565b61013f610496565b7f0000000000000000000000000000000000000000000000000000000000000000610106565b6101066106b8565b610106610709565b7f000000000000000000000000000000000000000000000000000000000000000061014e565b60006102c361022b60005490565b6040516370a0823160e01b81523060048201527f00000000000000000000000000000000000000000000000000000000000000006001600160a01b0316906370a0823190602401602060405180830381865afa15801561028f573d6000803e3d6000fd5b505050506040513d601f19601f820116820180604052508101906102b39190610a2b565b6102bd9190610a5a565b83610720565b92915050565b7f00000000000000000000000000000000000000000000000000000000000000006001600160a01b0316638da5cb5b6040518163ffffffff1660e01b8152600401602060405180830381865afa158015610327573d6000803e3d6000fd5b505050506040513d601f19601f8201168201806040525081019061034b9190610a6d565b6001600160a01b0316336001600160a01b03161461037c57604051634ccfe47160e11b815260040160405180910390fd5b6001805473ffffffffffffffffffffffffffffffffffffffff19166001600160a01b0383169081179091556040519081527f04d55a8be181fb8d75b76f2d48aa0b2ee40f47e53d6e61763eeeec46feea8a24906020015b60405180910390a150565b6001546001600160a01b03163314610409576040516378bc1bbf60e11b815260040160405180910390fd5b6000610413610709565b9050806000808282546104269190610a5a565b9091555061046090506001600160a01b037f00000000000000000000000000000000000000000000000000000000000000001633836107d2565b60408051338152602081018390527fb21fb52d5749b80f3182f8c6992236b5e5576681880914484d7f4c9b062e619e91016103d3565b60007f00000000000000000000000000000000000000000000000000000000000000006001600160a01b0316638da5cb5b6040518163ffffffff1660e01b8152600401602060405180830381865afa1580156104f6573d6000803e3d6000fd5b505050506040513d601f19601f8201168201806040525081019061051a9190610a6d565b9050336001600160a01b0382161461054557604051634ccfe47160e11b815260040160405180910390fd5b600154600160a01b900460ff161561057057604051630c7d1b4f60e41b815260040160405180910390fd5b600080546040516370a0823160e01b81523060048201529091506000906001600160a01b037f000000000000000000000000000000000000000000000000000000000000000016906370a0823190602401602060405180830381865afa1580156105de573d6000803e3d6000fd5b505050506040513d601f19601f820116820180604052508101906106029190610a2b565b905060006106196106138484610a5a565b42610720565b6001805474ff00000000000000000000000000000000000000001916600160a01b1790559050610689848261064e8686610a5a565b6106589190610a8a565b6001600160a01b037f00000000000000000000000000000000000000000000000000000000000000001691906107d2565b6040517f44825a4b2df8acb19ce4e1afba9aa850c8b65cdb7942e2078f27d0b0960efee690600090a150505050565b60006107047f00000000000000000000000000000000000000000000000000000000000000007f0000000000000000000000000000000000000000000000000000000000000000610a5a565b905090565b600080546107164261021d565b6107049190610a8a565b600154600090600160a01b900460ff161561073c5750816102c3565b7f00000000000000000000000000000000000000000000000000000000000000007f0000000000000000000000000000000000000000000000000000000000000000818411610790576000925050506102c3565b61079a8183610a5a565b84106107aa5784925050506102c3565b806107b58386610a8a565b6107bf9087610a9d565b6107c99190610ab4565b95945050505050565b604080516001600160a01b038416602482015260448082018490528251808303909101815260649091019091526020810180517bffffffffffffffffffffffffffffffffffffffffffffffffffffffff1663a9059cbb60e01b17905261083990849061083e565b505050565b60006108536001600160a01b038416836108a6565b905080516000141580156108785750808060200190518101906108769190610ad6565b155b1561083957604051635274afe760e01b81526001600160a01b03841660048201526024015b60405180910390fd5b60606108b4838360006108bb565b9392505050565b6060814710156108e05760405163cd78605960e01b815230600482015260240161089d565b600080856001600160a01b031684866040516108fc9190610af8565b60006040518083038185875af1925050503d8060008114610939576040519150601f19603f3d011682016040523d82523d6000602084013e61093e565b606091505b509150915061094e868383610958565b9695505050505050565b60608261096d57610968826109b4565b6108b4565b815115801561098457506001600160a01b0384163b155b156109ad57604051639996b31560e01b81526001600160a01b038516600482015260240161089d565b50806108b4565b8051156109c45780518082602001fd5b604051630a12f52160e11b815260040160405180910390fd5b50565b6000602082840312156109f257600080fd5b5035919050565b6001600160a01b03811681146109dd57600080fd5b600060208284031215610a2057600080fd5b81356108b4816109f9565b600060208284031215610a3d57600080fd5b5051919050565b634e487b7160e01b600052601160045260246000fd5b808201808211156102c3576102c3610a44565b600060208284031215610a7f57600080fd5b81516108b4816109f9565b818103818111156102c3576102c3610a44565b80820281158282048414176102c3576102c3610a44565b600082610ad157634e487b7160e01b600052601260045260246000fd5b500490565b600060208284031215610ae857600080fd5b815180151581146108b457600080fd5b6000825160005b81811015610b195760208186018101518583015201610aff565b50600092019182525091905056fea26469706673582212202035bc77f9af269c8f396ea4f89947cb9d0ff70f0d5d975d05426cac4396a77364736f6c63430008140033","linkReferences":{}},"methodIdentifiers":{"beneficiary()":"38af3eed","duration()":"0fb5a6b4","end()":"efbe1c1c","masterChef()":"575a86b2","releasable()":"fbccedae","release()":"86d1a69f","released()":"96132521","revoke()":"b6549f75","revoked()":"63d256ce","setBeneficiary(address)":"1c31f710","start()":"be9a6555","token()":"fc0c546a","vestedAmount(uint256)":"1bfce853"},"id":68}