{"abi":[{"type":"constructor","inputs":[{"name":"masterChef_","type":"address","internalType":"address"},{"name":"token_","type":"address","internalType":"contract IERC20"},{"name":"start_","type":"uint256","internalType":"uint256"},{"name":"cliffDuration_","type":"uint256","internalType":"uint256"},{"name":"vestingDuration_","type":"uint256","internalType":"uint256"}],"stateMutability":"nonpayable"},{"type":"function","name":"beneficiary","inputs":[],"outputs":[{"name":"","type":"address","internalType":"address"}],"stateMutability":"view"},{"type":"function","name":"cliffDuration","inputs":[],"outputs":[{"name":"","type":"uint256","internalType":"uint256"}],"stateMutability":"view"},{"type":"function","name":"end","inputs":[],"outputs":[{"name":"","type":"uint256","internalType":"uint256"}],"stateMutability":"view"},{"type":"function","name":"masterChef","inputs":[],"outputs":[{"name":"","type":"address","internalType":"address"}],"stateMutability":"view"},{"type":"function","name":"releasable","inputs":[],"outputs":[{"name":"","type":"uint256","internalType":"uint256"}],"stateMutability":"view"},{"type":"function","name":"release","inputs":[],"outputs":[],"stateMutability":"nonpayable"},{"type":"function","name":"released","inputs":[],"outputs":[{"name":"","type":"uint256","internalType":"uint256"}],"stateMutability":"view"},{"type":"function","name":"revoke","inputs":[],"outputs":[],"stateMutability":"nonpayable"},{"type":"function","name":"revoked","inputs":[],"outputs":[{"name":"","type":"bool","internalType":"bool"}],"stateMutability":"view"},{"type":"function","name":"setBeneficiary","inputs":[{"name":"newBeneficiary","type":"address","internalType":"address"}],"outputs":[],"stateMutability":"nonpayable"},{"type":"function","name":"start","inputs":[],"outputs":[{"name":"","type":"uint256","internalType":"uint256"}],"stateMutability":"view"},{"type":"function","name":"token","inputs":[],"outputs":[{"name":"","type":"address","internalType":"contract IERC20"}],"stateMutability":"view"},{"type":"function","name":"vestedAmount","inputs":[{"name":"timestamp","type":"uint256","internalType":"uint256"}],"outputs":[{"name":"","type":"uint256","internalType":"uint256"}],"stateMutability":"view"},{"type":"function","name":"vestingDuration","inputs":[],"outputs":[{"name":"","type":"uint256","internalType":"uint256"}],"stateMutability":"view"},{"type":"event","name":"BeneficiarySet","inputs":[{"name":"beneficiary","type":"address","indexed":false,"internalType":"address"}],"anonymous":false},{"type":"event","name":"Released","inputs":[{"name":"beneficiary","type":"address","indexed":false,"internalType":"address"},{"name":"amount","type":"uint256","indexed":false,"internalType":"uint256"}],"anonymous":false},{"type":"event","name":"Revoked","inputs":[],"anonymous":false},{"type":"error","name":"AddressEmptyCode","inputs":[{"name":"target","type":"address","internalType":"address"}]},{"type":"error","name":"AddressInsufficientBalance","inputs":[{"name":"account","type":"address","internalType":"address"}]},{"type":"error","name":"FailedInnerCall","inputs":[]},{"type":"error","name":"SafeERC20FailedOperation","inputs":[{"name":"token","type":"address","internalType":"address"}]},{"type":"error","name":"VestingContract__AlreadyRevoked","inputs":[]},{"type":"error","name":"VestingContract__InvalidCliffDuration","inputs":[]},{"type":"error","name":"VestingContract__NotBeneficiary","inputs":[]},{"type":"error","name":"VestingContract__NotMasterChefOwner","inputs":[]}],"bytecode":{"object":"0x61012060405234801561001157600080fd5b50604051610d96380380610d9683398101604081905261003091610090565b8082111561005157604051630d91788360e41b815260040160405180910390fd5b6001600160a01b039485166080529290931660a05260c05260e091909152610100526100e3565b6001600160a01b038116811461008d57600080fd5b50565b600080600080600060a086880312156100a857600080fd5b85516100b381610078565b60208701519095506100c481610078565b6040870151606088015160809098015196999198509695945092505050565b60805160a05160c05160e05161010051610c156101816000396000818160f1015281816106670152818161073201526107d90152600081816101f401526107b80152600081816101ce0152818161064601528181610753015261079701526000818161022a015281816102710152818161046a015281816105c801526106d5015260008181610173015281816102fc01526104cb0152610c156000f3fe608060405234801561001057600080fd5b50600436106100ea5760003560e01c8063961325211161008c578063d85349f711610066578063d85349f7146101f2578063efbe1c1c14610218578063fbccedae14610220578063fc0c546a1461022857600080fd5b806396132521146101bc578063b6549f75146101c4578063be9a6555146101cc57600080fd5b806338af3eed116100c857806338af3eed1461014c578063575a86b21461017157806363d256ce1461019757806386d1a69f146101b457600080fd5b80631514617e146100ef5780631bfce853146101245780631c31f71014610137575b600080fd5b7f00000000000000000000000000000000000000000000000000000000000000005b6040519081526020015b60405180910390f35b610111610132366004610a98565b61024e565b61014a610145366004610ac6565b6102fa565b005b6001546001600160a01b03165b6040516001600160a01b03909116815260200161011b565b7f0000000000000000000000000000000000000000000000000000000000000000610159565b600154600160a01b900460ff16604051901515815260200161011b565b61014a61040f565b600054610111565b61014a6104c7565b7f0000000000000000000000000000000000000000000000000000000000000000610111565b7f0000000000000000000000000000000000000000000000000000000000000000610111565b61011161072b565b61011161077c565b7f0000000000000000000000000000000000000000000000000000000000000000610159565b60006102f461025c60005490565b6040516370a0823160e01b81523060048201527f00000000000000000000000000000000000000000000000000000000000000006001600160a01b0316906370a0823190602401602060405180830381865afa1580156102c0573d6000803e3d6000fd5b505050506040513d601f19601f820116820180604052508101906102e49190610ae3565b6102ee9190610b12565b83610793565b92915050565b7f00000000000000000000000000000000000000000000000000000000000000006001600160a01b0316638da5cb5b6040518163ffffffff1660e01b8152600401602060405180830381865afa158015610358573d6000803e3d6000fd5b505050506040513d601f19601f8201168201806040525081019061037c9190610b25565b6001600160a01b0316336001600160a01b0316146103ad57604051634ccfe47160e11b815260040160405180910390fd5b6001805473ffffffffffffffffffffffffffffffffffffffff19166001600160a01b0383169081179091556040519081527f04d55a8be181fb8d75b76f2d48aa0b2ee40f47e53d6e61763eeeec46feea8a24906020015b60405180910390a150565b6001546001600160a01b0316331461043a576040516378bc1bbf60e11b815260040160405180910390fd5b600061044461077c565b9050806000808282546104579190610b12565b9091555061049190506001600160a01b037f0000000000000000000000000000000000000000000000000000000000000000163383610847565b60408051338152602081018390527fb21fb52d5749b80f3182f8c6992236b5e5576681880914484d7f4c9b062e619e9101610404565b60007f00000000000000000000000000000000000000000000000000000000000000006001600160a01b0316638da5cb5b6040518163ffffffff1660e01b8152600401602060405180830381865afa158015610527573d6000803e3d6000fd5b505050506040513d601f19601f8201168201806040525081019061054b9190610b25565b9050336001600160a01b0382161461057657604051634ccfe47160e11b815260040160405180910390fd5b600154600160a01b900460ff16156105a157604051630c7d1b4f60e41b815260040160405180910390fd5b600080546040516370a0823160e01b81523060048201529091506000906001600160a01b037f000000000000000000000000000000000000000000000000000000000000000016906370a0823190602401602060405180830381865afa15801561060f573d6000803e3d6000fd5b505050506040513d601f19601f820116820180604052508101906106339190610ae3565b9050600061068c6106448484610b12565b7f00000000000000000000000000000000000000000000000000000000000000007f0000000000000000000000000000000000000000000000000000000000000000426108b3565b6001805474ff00000000000000000000000000000000000000001916600160a01b17905590506106fc84826106c18686610b12565b6106cb9190610b42565b6001600160a01b037f0000000000000000000000000000000000000000000000000000000000000000169190610847565b6040517f44825a4b2df8acb19ce4e1afba9aa850c8b65cdb7942e2078f27d0b0960efee690600090a150505050565b60006107777f00000000000000000000000000000000000000000000000000000000000000007f0000000000000000000000000000000000000000000000000000000000000000610b12565b905090565b600080546107894261024e565b6107779190610b42565b60007f00000000000000000000000000000000000000000000000000000000000000007f00000000000000000000000000000000000000000000000000000000000000007f00000000000000000000000000000000000000000000000000000000000000006108028284610b12565b851161081457600093505050506102f4565b600154600160a01b900460ff1615610831578593505050506102f4565b61083d868483886108b3565b9695505050505050565b604080516001600160a01b038416602482015260448082018490528251808303909101815260649091019091526020810180517bffffffffffffffffffffffffffffffffffffffffffffffffffffffff1663a9059cbb60e01b1790526108ae908490610905565b505050565b60008382116108c4575060006108fd565b6108ce8385610b12565b82106108db5750836108fd565b826108e68584610b42565b6108f09087610b55565b6108fa9190610b6c565b90505b949350505050565b600061091a6001600160a01b0384168361096d565b9050805160001415801561093f57508080602001905181019061093d9190610b8e565b155b156108ae57604051635274afe760e01b81526001600160a01b03841660048201526024015b60405180910390fd5b606061097b83836000610982565b9392505050565b6060814710156109a75760405163cd78605960e01b8152306004820152602401610964565b600080856001600160a01b031684866040516109c39190610bb0565b60006040518083038185875af1925050503d8060008114610a00576040519150601f19603f3d011682016040523d82523d6000602084013e610a05565b606091505b509150915061083d868383606082610a2557610a2082610a6c565b61097b565b8151158015610a3c57506001600160a01b0384163b155b15610a6557604051639996b31560e01b81526001600160a01b0385166004820152602401610964565b508061097b565b805115610a7c5780518082602001fd5b604051630a12f52160e11b815260040160405180910390fd5b50565b600060208284031215610aaa57600080fd5b5035919050565b6001600160a01b0381168114610a9557600080fd5b600060208284031215610ad857600080fd5b813561097b81610ab1565b600060208284031215610af557600080fd5b5051919050565b634e487b7160e01b600052601160045260246000fd5b808201808211156102f4576102f4610afc565b600060208284031215610b3757600080fd5b815161097b81610ab1565b818103818111156102f4576102f4610afc565b80820281158282048414176102f4576102f4610afc565b600082610b8957634e487b7160e01b600052601260045260246000fd5b500490565b600060208284031215610ba057600080fd5b8151801515811461097b57600080fd5b6000825160005b81811015610bd15760208186018101518583015201610bb7565b50600092019182525091905056fea2646970667358221220d2fa56da2b39ef495016b8f47220df0f1df0f0ce3231ffe0e2aefe0fef1d4b3d64736f6c63430008140033","linkReferences":{}},"methodIdentifiers":{"beneficiary()":"38af3eed","cliffDuration()":"d85349f7","end()":"efbe1c1c","masterChef()":"575a86b2","releasable()":"fbccedae","release()":"86d1a69f","released()":"96132521","revoke()":"b6549f75","revoked()":"63d256ce","setBeneficiary(address)":"1c31f710","start()":"be9a6555","token()":"fc0c546a","vestedAmount(uint256)":"1bfce853","vestingDuration()":"1514617e"},"id":69}