{
  "abi": [
    {
      "inputs": [
        {
          "internalType": "address",
          "name": "caller",
          "type": "address"
        }
      ],
      "stateMutability": "nonpayable",
      "type": "constructor"
    },
    {
      "inputs": [
        {
          "internalType": "address",
          "name": "target",
          "type": "address"
        }
      ],
      "name": "AddressEmptyCode",
      "type": "error"
    },
    {
      "inputs": [
        {
          "internalType": "address",
          "name": "account",
          "type": "address"
        }
      ],
      "name": "AddressInsufficientBalance",
      "type": "error"
    },
    {
      "inputs": [],
      "name": "BaseRewarder__AlreadyStopped",
      "type": "error"
    },
    {
      "inputs": [
        {
          "internalType": "uint256",
          "name": "remainingReward",
          "type": "uint256"
        },
        {
          "internalType": "uint256",
          "name": "expectedReward",
          "type": "uint256"
        }
      ],
      "name": "BaseRewarder__InsufficientReward",
      "type": "error"
    },
    {
      "inputs": [],
      "name": "BaseRewarder__InvalidCaller",
      "type": "error"
    },
    {
      "inputs": [],
      "name": "BaseRewarder__InvalidDuration",
      "type": "error"
    },
    {
      "inputs": [
        {
          "internalType": "uint256",
          "name": "pid",
          "type": "uint256"
        }
      ],
      "name": "BaseRewarder__InvalidPid",
      "type": "error"
    },
    {
      "inputs": [
        {
          "internalType": "uint256",
          "name": "startTimestamp",
          "type": "uint256"
        }
      ],
      "name": "BaseRewarder__InvalidStartTimestamp",
      "type": "error"
    },
    {
      "inputs": [],
      "name": "BaseRewarder__NativeTransferFailed",
      "type": "error"
    },
    {
      "inputs": [],
      "name": "BaseRewarder__NotNativeRewarder",
      "type": "error"
    },
    {
      "inputs": [],
      "name": "BaseRewarder__Stopped",
      "type": "error"
    },
    {
      "inputs": [],
      "name": "BaseRewarder__ZeroAmount",
      "type": "error"
    },
    {
      "inputs": [],
      "name": "FailedInnerCall",
      "type": "error"
    },
    {
      "inputs": [],
      "name": "InvalidInitialization",
      "type": "error"
    },
    {
      "inputs": [],
      "name": "NotInitializing",
      "type": "error"
    },
    {
      "inputs": [
        {
          "internalType": "address",
          "name": "owner",
          "type": "address"
        }
      ],
      "name": "OwnableInvalidOwner",
      "type": "error"
    },
    {
      "inputs": [
        {
          "internalType": "address",
          "name": "account",
          "type": "address"
        }
      ],
      "name": "OwnableUnauthorizedAccount",
      "type": "error"
    },
    {
      "inputs": [
        {
          "internalType": "address",
          "name": "token",
          "type": "address"
        }
      ],
      "name": "SafeERC20FailedOperation",
      "type": "error"
    },
    {
      "anonymous": false,
      "inputs": [
        {
          "indexed": true,
          "internalType": "address",
          "name": "account",
          "type": "address"
        },
        {
          "indexed": true,
          "internalType": "contract IERC20",
          "name": "token",
          "type": "address"
        },
        {
          "indexed": false,
          "internalType": "uint256",
          "name": "reward",
          "type": "uint256"
        }
      ],
      "name": "Claim",
      "type": "event"
    },
    {
      "anonymous": false,
      "inputs": [
        {
          "indexed": false,
          "internalType": "uint64",
          "name": "version",
          "type": "uint64"
        }
      ],
      "name": "Initialized",
      "type": "event"
    },
    {
      "anonymous": false,
      "inputs": [
        {
          "indexed": true,
          "internalType": "address",
          "name": "previousOwner",
          "type": "address"
        },
        {
          "indexed": true,
          "internalType": "address",
          "name": "newOwner",
          "type": "address"
        }
      ],
      "name": "OwnershipTransferStarted",
      "type": "event"
    },
    {
      "anonymous": false,
      "inputs": [
        {
          "indexed": true,
          "internalType": "address",
          "name": "previousOwner",
          "type": "address"
        },
        {
          "indexed": true,
          "internalType": "address",
          "name": "newOwner",
          "type": "address"
        }
      ],
      "name": "OwnershipTransferred",
      "type": "event"
    },
    {
      "anonymous": false,
      "inputs": [
        {
          "indexed": false,
          "internalType": "uint256",
          "name": "rewardPerSecond",
          "type": "uint256"
        },
        {
          "indexed": false,
          "internalType": "uint256",
          "name": "startTimestamp",
          "type": "uint256"
        },
        {
          "indexed": false,
          "internalType": "uint256",
          "name": "endTimestamp",
          "type": "uint256"
        }
      ],
      "name": "RewardParameterUpdated",
      "type": "event"
    },
    {
      "stateMutability": "payable",
      "type": "fallback"
    },
    {
      "inputs": [],
      "name": "acceptOwnership",
      "outputs": [],
      "stateMutability": "nonpayable",
      "type": "function"
    },
    {
      "inputs": [],
      "name": "getCaller",
      "outputs": [
        {
          "internalType": "address",
          "name": "",
          "type": "address"
        }
      ],
      "stateMutability": "view",
      "type": "function"
    },
    {
      "inputs": [
        {
          "internalType": "address",
          "name": "account",
          "type": "address"
        },
        {
          "internalType": "uint256",
          "name": "balance",
          "type": "uint256"
        },
        {
          "internalType": "uint256",
          "name": "totalSupply",
          "type": "uint256"
        }
      ],
      "name": "getPendingReward",
      "outputs": [
        {
          "internalType": "contract IERC20",
          "name": "",
          "type": "address"
        },
        {
          "internalType": "uint256",
          "name": "",
          "type": "uint256"
        }
      ],
      "stateMutability": "view",
      "type": "function"
    },
    {
      "inputs": [],
      "name": "getPid",
      "outputs": [
        {
          "internalType": "uint256",
          "name": "",
          "type": "uint256"
        }
      ],
      "stateMutability": "view",
      "type": "function"
    },
    {
      "inputs": [],
      "name": "getRewarderParameter",
      "outputs": [
        {
          "internalType": "contract IERC20",
          "name": "token",
          "type": "address"
        },
        {
          "internalType": "uint256",
          "name": "rewardPerSecond",
          "type": "uint256"
        },
        {
          "internalType": "uint256",
          "name": "lastUpdateTimestamp",
          "type": "uint256"
        },
        {
          "internalType": "uint256",
          "name": "endTimestamp",
          "type": "uint256"
        }
      ],
      "stateMutability": "view",
      "type": "function"
    },
    {
      "inputs": [],
      "name": "getToken",
      "outputs": [
        {
          "internalType": "contract IERC20",
          "name": "",
          "type": "address"
        }
      ],
      "stateMutability": "view",
      "type": "function"
    },
    {
      "inputs": [
        {
          "internalType": "address",
          "name": "initialOwner",
          "type": "address"
        }
      ],
      "name": "initialize",
      "outputs": [],
      "stateMutability": "nonpayable",
      "type": "function"
    },
    {
      "inputs": [],
      "name": "isStopped",
      "outputs": [
        {
          "internalType": "bool",
          "name": "",
          "type": "bool"
        }
      ],
      "stateMutability": "view",
      "type": "function"
    },
    {
      "inputs": [
        {
          "internalType": "address",
          "name": "account",
          "type": "address"
        },
        {
          "internalType": "uint256",
          "name": "pid",
          "type": "uint256"
        },
        {
          "internalType": "uint256",
          "name": "oldBalance",
          "type": "uint256"
        },
        {
          "internalType": "uint256",
          "name": "newBalance",
          "type": "uint256"
        },
        {
          "internalType": "uint256",
          "name": "oldTotalSupply",
          "type": "uint256"
        }
      ],
      "name": "onModify",
      "outputs": [
        {
          "internalType": "uint256",
          "name": "reward",
          "type": "uint256"
        }
      ],
      "stateMutability": "nonpayable",
      "type": "function"
    },
    {
      "inputs": [],
      "name": "owner",
      "outputs": [
        {
          "internalType": "address",
          "name": "",
          "type": "address"
        }
      ],
      "stateMutability": "view",
      "type": "function"
    },
    {
      "inputs": [],
      "name": "pendingOwner",
      "outputs": [
        {
          "internalType": "address",
          "name": "",
          "type": "address"
        }
      ],
      "stateMutability": "view",
      "type": "function"
    },
    {
      "inputs": [],
      "name": "renounceOwnership",
      "outputs": [],
      "stateMutability": "nonpayable",
      "type": "function"
    },
    {
      "inputs": [
        {
          "internalType": "uint256",
          "name": "rewardPerSecond",
          "type": "uint256"
        },
        {
          "internalType": "uint256",
          "name": "expectedDuration",
          "type": "uint256"
        }
      ],
      "name": "setRewardPerSecond",
      "outputs": [],
      "stateMutability": "nonpayable",
      "type": "function"
    },
    {
      "inputs": [
        {
          "internalType": "uint256",
          "name": "rewardPerSecond",
          "type": "uint256"
        },
        {
          "internalType": "uint256",
          "name": "startTimestamp",
          "type": "uint256"
        },
        {
          "internalType": "uint256",
          "name": "expectedDuration",
          "type": "uint256"
        }
      ],
      "name": "setRewarderParameters",
      "outputs": [],
      "stateMutability": "nonpayable",
      "type": "function"
    },
    {
      "inputs": [],
      "name": "stop",
      "outputs": [],
      "stateMutability": "nonpayable",
      "type": "function"
    },
    {
      "inputs": [
        {
          "internalType": "contract IERC20",
          "name": "token",
          "type": "address"
        },
        {
          "internalType": "address",
          "name": "account",
          "type": "address"
        }
      ],
      "name": "sweep",
      "outputs": [],
      "stateMutability": "nonpayable",
      "type": "function"
    },
    {
      "inputs": [
        {
          "internalType": "address",
          "name": "newOwner",
          "type": "address"
        }
      ],
      "name": "transferOwnership",
      "outputs": [],
      "stateMutability": "nonpayable",
      "type": "function"
    },
    {
      "stateMutability": "payable",
      "type": "receive"
    }
  ],
  "bytecode": {
    "object": "0x60a060405234801561001057600080fd5b5060405161151a38038061151a83398101604081905261002f916100fe565b6001600160a01b0381166080528061004561004c565b505061012e565b7ff0c57e16840df040f15088dc2f81fe391c3923bec73e23a9662efc9c229c6a00805468010000000000000000900460ff161561009c5760405163f92ee8a960e01b815260040160405180910390fd5b80546001600160401b03908116146100fb5780546001600160401b0319166001600160401b0390811782556040519081527fc7f505b2f371ae2175ee4913f4499e1f2633a7b5936321eed1cdaeb6115181d29060200160405180910390a15b50565b60006020828403121561011057600080fd5b81516001600160a01b038116811461012757600080fd5b9392505050565b6080516113c36101576000396000818161028f0152818161087a0152610db001526113c36000f3fe6080604052600436106101125760003560e01c80638da5cb5b116100a5578063c4d66de811610074578063c877296311610059578063c877296314610352578063e30c397814610374578063f2fde38b1461038957610121565b8063c4d66de8146102f3578063c71832511461031357610121565b80638da5cb5b1461026b578063ab470f0514610280578063b5f578fc146102b3578063b8dc491b146102d357610121565b8063715018a6116100e1578063715018a6146101f357806379ba509714610208578063870b50fd1461021d57806389f5ab0d1461024b57610121565b806307da68f51461012957806321df0da71461013e57806339cbec9d146101795780633f683b6a146101d057610121565b366101215761011f6103a9565b005b61011f6103a9565b34801561013557600080fd5b5061011f6103d9565b34801561014a57600080fd5b503660011981013560f01c90033560601c5b6040516001600160a01b0390911681526020015b60405180910390f35b34801561018557600080fd5b506101a6600054600554600354600119369081013560f01c90033560601c93565b604080516001600160a01b0390951685526020850193909352918301526060820152608001610170565b3480156101dc57600080fd5b5060045460ff166040519015158152602001610170565b3480156101ff57600080fd5b5061011f610419565b34801561021457600080fd5b5061011f61042b565b34801561022957600080fd5b5061023d610238366004611191565b610478565b604051908152602001610170565b34801561025757600080fd5b5061011f6102663660046111d5565b61049c565b34801561027757600080fd5b5061015c6104fc565b34801561028c57600080fd5b507f000000000000000000000000000000000000000000000000000000000000000061015c565b3480156102bf57600080fd5b5061011f6102ce366004611201565b610531565b3480156102df57600080fd5b5061011f6102ee366004611223565b610560565b3480156102ff57600080fd5b5061011f61030e36600461125c565b6105e1565b34801561031f57600080fd5b5061033361032e366004611279565b610705565b604080516001600160a01b039093168352602083019190915201610170565b34801561035e57600080fd5b503660011981013560f01c90036014013561023d565b34801561038057600080fd5b5061015c610751565b34801561039557600080fd5b5061011f6103a436600461125c565b61077a565b3660011981013560f01c90033560601c156103d757604051639415816f60e01b815260040160405180910390fd5b565b6103e16107ff565b60045460ff16156104055760405163b1f033c760e01b815260040160405180910390fd5b6004805460ff19166001179055565b905090565b6104216107ff565b6103d76000610831565b3380610435610751565b6001600160a01b03161461046c5760405163118cdaa760e01b81526001600160a01b03821660048201526024015b60405180910390fd5b61047581610831565b50565b6000610487868686868661086d565b90506104938682610924565b95945050505050565b6104a46107ff565b60045460ff16156104c857604051630f3e8c1360e11b815260040160405180910390fd5b428210156104ec57604051635c62004b60e11b815260048101839052602401610463565b6104f7838383610991565b505050565b6000807f9016d09d72d40fdae2fd8ceac6b6234c7706214fd39c1cd1e609a0528c1993005b546001600160a01b031692915050565b6105396107ff565b600554600042821161054b574261054d565b815b905061055a848285610991565b50505050565b6105686107ff565b600061057383610b00565b60045490915060ff161580156105a057503660011981013560f01c90033560601c6001600160a01b038416145b156105b5576002546105b290826112c4565b90505b806000036105d6576040516360e6da0360e01b815260040160405180910390fd5b6104f7838383610b86565b7ff0c57e16840df040f15088dc2f81fe391c3923bec73e23a9662efc9c229c6a00805468010000000000000000810460ff16159067ffffffffffffffff1660008115801561062c5750825b905060008267ffffffffffffffff1660011480156106495750303b155b905081158015610657575080155b156106755760405163f92ee8a960e01b815260040160405180910390fd5b845467ffffffffffffffff1916600117855583156106a957845468ff00000000000000001916680100000000000000001785555b6106b286610c29565b83156106fd57845468ff000000000000000019168555604051600181527fc7f505b2f371ae2175ee4913f4499e1f2633a7b5936321eed1cdaeb6115181d29060200160405180910390a15b505050505050565b60008060006107246000546003546005610c3a9092919063ffffffff16565b90503660011981013560f01c90033560601c610744600588888886610c71565b9250925050935093915050565b6000807f237e158222e3e6968b72b9db0d8043aacf074ad9f650f0d1606b4d82ee432c00610521565b6107826107ff565b7f237e158222e3e6968b72b9db0d8043aacf074ad9f650f0d1606b4d82ee432c0080546001600160a01b0319166001600160a01b03831690811782556107c66104fc565b6001600160a01b03167f38d16b8cac22d99fc7c124b9cd0de2d3fa1faef420bfe791d8c362d765e2270060405160405180910390a35050565b336108086104fc565b6001600160a01b0316146103d75760405163118cdaa760e01b8152336004820152602401610463565b7f237e158222e3e6968b72b9db0d8043aacf074ad9f650f0d1606b4d82ee432c0080546001600160a01b031916815561086982610cd7565b5050565b6000336001600160a01b037f000000000000000000000000000000000000000000000000000000000000000016146108b85760405163332bf49d60e21b815260040160405180910390fd5b3660011981013560f01c90036014013585146108ea5760405163e7ca808760e01b815260048101869052602401610463565b60045460ff161561090e57604051630f3e8c1360e11b815260040160405180910390fd5b61091a86858585610d48565b9695505050505050565b3660011981013560f01c90033560601c61093f818484610b86565b806001600160a01b0316836001600160a01b03167f70eb43c4a8ae8c40502dcf22436c509c28d6ff421cf07c491be56984bd9870688460405161098491815260200190565b60405180910390a3505050565b60045460ff16156109b557604051630f3e8c1360e11b815260040160405180910390fd5b801580156109c257508215155b156109e057604051631a4778f160e31b815260040160405180910390fd5b600154600080546003546109f691600591610c3a565b9050610a0281836112d7565b9150600082610a1f3660011981013560f01c90033560601c610b00565b610a2991906112c4565b90506000610a3785886112ea565b905080821015610a645760405163f79406ed60e01b81526004810183905260248101829052604401610463565b6000610a7086886112d7565b90506000610a7c610dac565b60008a90559050610a8d83876112d7565b60025560038290556001869055610aa660058287610e30565b50428814610ab45760058890555b604080518a8152602081018a90529081018390527ff0b276e9ee40b3a3d065f636ee656c9bf1c9a0c4060fb212fd0861890c107be59060600160405180910390a1505050505050505050565b60006001600160a01b03821615610b7e576040516370a0823160e01b81523060048201526001600160a01b038316906370a0823190602401602060405180830381865afa158015610b55573d6000803e3d6000fd5b505050506040513d601f19601f82011682018060405250810190610b799190611301565b610b80565b475b92915050565b80600003610b9357505050565b6001600160a01b038316610c15576000826001600160a01b03168260405160006040518083038185875af1925050503d8060008114610bee576040519150601f19603f3d011682016040523d82523d6000602084013e610bf3565b606091505b505090508061055a57604051630df61d5560e01b815260040160405180910390fd5b6104f76001600160a01b0384168383610e80565b610c31610ee7565b61047581610f35565b825460009081428410610c4d5742610c4f565b835b9050808211610c62578482820302610c65565b60005b925050505b9392505050565b600080610c7e8484610f67565b8760010154610c8d91906112d7565b90508415610cc9576001600160a01b0386166000908152600288016020526040902054610cba8287610f8b565b610cc491906112c4565b610ccc565b60005b979650505050505050565b7f9016d09d72d40fdae2fd8ceac6b6234c7706214fd39c1cd1e609a0528c19930080546001600160a01b031981166001600160a01b03848116918217845560405192169182907f8be0079c531659141344cd1fd0a4f28419497f9722a3daafe3b4186f6b6457e090600090a3505050565b60015460025460008054600354919392918491610d689160059190610c3a565b9050610d7960058989898986610fa2565b935083610d8682856112d7565b610d9091906112c4565b600155610d9d84836112c4565b60025550919695505050505050565b60007f00000000000000000000000000000000000000000000000000000000000000006001600160a01b031663c022215c6040518163ffffffff1660e01b8152600401602060405180830381865afa158015610e0c573d6000803e3d6000fd5b505050506040513d601f19601f820116820180604052508101906104149190611301565b600080610e3d8484610f67565b8554909150421115610e4d574285555b8015610e725780856001016000828254610e6791906112d7565b925050819055610493565b846001015495945050505050565b604080516001600160a01b038416602482015260448082018490528251808303909101815260649091019091526020810180517bffffffffffffffffffffffffffffffffffffffffffffffffffffffff1663a9059cbb60e01b1790526104f7908490611026565b7ff0c57e16840df040f15088dc2f81fe391c3923bec73e23a9662efc9c229c6a005468010000000000000000900460ff166103d757604051631afcd79f60e31b815260040160405180910390fd5b610f3d610ee7565b6001600160a01b03811661046c57604051631e4fbdf760e01b815260006004820152602401610463565b60008215610f8257610f7d83604084901b61131a565b610c6a565b60009392505050565b60006040610f9984846112ea565b901c9392505050565b600080610fb0888585610e30565b90508515610fec576001600160a01b0387166000908152600289016020526040902054610fdd8288610f8b565b610fe791906112c4565b610fef565b60005b9150610ffb8186610f8b565b6001600160a01b03909716600090815260029098016020525060409096209490945550929392505050565b600061103b6001600160a01b03841683611089565b9050805160001415801561106057508080602001905181019061105e919061133c565b155b156104f757604051635274afe760e01b81526001600160a01b0384166004820152602401610463565b6060610c6a8383600084600080856001600160a01b031684866040516110af919061135e565b60006040518083038185875af1925050503d80600081146110ec576040519150601f19603f3d011682016040523d82523d6000602084013e6110f1565b606091505b5091509150610c6586838360608261110c57610f7d82611153565b815115801561112357506001600160a01b0384163b155b1561114c57604051639996b31560e01b81526001600160a01b0385166004820152602401610463565b5080610c6a565b8051156111635780518082602001fd5b604051630a12f52160e11b815260040160405180910390fd5b6001600160a01b038116811461047557600080fd5b600080600080600060a086880312156111a957600080fd5b85356111b48161117c565b97602087013597506040870135966060810135965060800135945092505050565b6000806000606084860312156111ea57600080fd5b505081359360208301359350604090920135919050565b6000806040838503121561121457600080fd5b50508035926020909101359150565b6000806040838503121561123657600080fd5b82356112418161117c565b915060208301356112518161117c565b809150509250929050565b60006020828403121561126e57600080fd5b8135610c6a8161117c565b60008060006060848603121561128e57600080fd5b83356112998161117c565b95602085013595506040909401359392505050565b634e487b7160e01b600052601160045260246000fd5b81810381811115610b8057610b806112ae565b80820180821115610b8057610b806112ae565b8082028115828204841417610b8057610b806112ae565b60006020828403121561131357600080fd5b5051919050565b60008261133757634e487b7160e01b600052601260045260246000fd5b500490565b60006020828403121561134e57600080fd5b81518015158114610c6a57600080fd5b6000825160005b8181101561137f5760208186018101518583015201611365565b50600092019182525091905056fea26469706673582212204c7adf28d434c4913dfcdd6708f38ada39fe94603906ceaad819545aaae0fca764736f6c63430008140033",
    "linkReferences": {}
  },
  "methodIdentifiers": {
    "acceptOwnership()": "79ba5097",
    "getCaller()": "ab470f05",
    "getPendingReward(address,uint256,uint256)": "c7183251",
    "getPid()": "c8772963",
    "getRewarderParameter()": "39cbec9d",
    "getToken()": "21df0da7",
    "initialize(address)": "c4d66de8",
    "isStopped()": "3f683b6a",
    "onModify(address,uint256,uint256,uint256,uint256)": "870b50fd",
    "owner()": "8da5cb5b",
    "pendingOwner()": "e30c3978",
    "renounceOwnership()": "715018a6",
    "setRewardPerSecond(uint256,uint256)": "b5f578fc",
    "setRewarderParameters(uint256,uint256,uint256)": "89f5ab0d",
    "stop()": "07da68f5",
    "sweep(address,address)": "b8dc491b",
    "transferOwnership(address)": "f2fde38b"
  },
  "id": 96
}