{
  "abi": [
    {
      "inputs": [
        {
          "internalType": "address",
          "name": "caller",
          "type": "address"
        }
      ],
      "stateMutability": "nonpayable",
      "type": "constructor"
    },
    {
      "inputs": [
        {
          "internalType": "address",
          "name": "target",
          "type": "address"
        }
      ],
      "name": "AddressEmptyCode",
      "type": "error"
    },
    {
      "inputs": [
        {
          "internalType": "address",
          "name": "account",
          "type": "address"
        }
      ],
      "name": "AddressInsufficientBalance",
      "type": "error"
    },
    {
      "inputs": [],
      "name": "BaseRewarder__AlreadyStopped",
      "type": "error"
    },
    {
      "inputs": [
        {
          "internalType": "uint256",
          "name": "remainingReward",
          "type": "uint256"
        },
        {
          "internalType": "uint256",
          "name": "expectedReward",
          "type": "uint256"
        }
      ],
      "name": "BaseRewarder__InsufficientReward",
      "type": "error"
    },
    {
      "inputs": [],
      "name": "BaseRewarder__InvalidCaller",
      "type": "error"
    },
    {
      "inputs": [],
      "name": "BaseRewarder__InvalidDuration",
      "type": "error"
    },
    {
      "inputs": [
        {
          "internalType": "uint256",
          "name": "pid",
          "type": "uint256"
        }
      ],
      "name": "BaseRewarder__InvalidPid",
      "type": "error"
    },
    {
      "inputs": [
        {
          "internalType": "uint256",
          "name": "startTimestamp",
          "type": "uint256"
        }
      ],
      "name": "BaseRewarder__InvalidStartTimestamp",
      "type": "error"
    },
    {
      "inputs": [],
      "name": "BaseRewarder__NativeTransferFailed",
      "type": "error"
    },
    {
      "inputs": [],
      "name": "BaseRewarder__NotNativeRewarder",
      "type": "error"
    },
    {
      "inputs": [],
      "name": "BaseRewarder__Stopped",
      "type": "error"
    },
    {
      "inputs": [],
      "name": "BaseRewarder__ZeroAmount",
      "type": "error"
    },
    {
      "inputs": [],
      "name": "FailedInnerCall",
      "type": "error"
    },
    {
      "inputs": [],
      "name": "InvalidInitialization",
      "type": "error"
    },
    {
      "inputs": [],
      "name": "NotInitializing",
      "type": "error"
    },
    {
      "inputs": [
        {
          "internalType": "address",
          "name": "owner",
          "type": "address"
        }
      ],
      "name": "OwnableInvalidOwner",
      "type": "error"
    },
    {
      "inputs": [
        {
          "internalType": "address",
          "name": "account",
          "type": "address"
        }
      ],
      "name": "OwnableUnauthorizedAccount",
      "type": "error"
    },
    {
      "inputs": [
        {
          "internalType": "address",
          "name": "token",
          "type": "address"
        }
      ],
      "name": "SafeERC20FailedOperation",
      "type": "error"
    },
    {
      "anonymous": false,
      "inputs": [
        {
          "indexed": true,
          "internalType": "address",
          "name": "account",
          "type": "address"
        },
        {
          "indexed": true,
          "internalType": "contract IERC20",
          "name": "token",
          "type": "address"
        },
        {
          "indexed": false,
          "internalType": "uint256",
          "name": "reward",
          "type": "uint256"
        }
      ],
      "name": "Claim",
      "type": "event"
    },
    {
      "anonymous": false,
      "inputs": [
        {
          "indexed": false,
          "internalType": "uint64",
          "name": "version",
          "type": "uint64"
        }
      ],
      "name": "Initialized",
      "type": "event"
    },
    {
      "anonymous": false,
      "inputs": [
        {
          "indexed": true,
          "internalType": "address",
          "name": "previousOwner",
          "type": "address"
        },
        {
          "indexed": true,
          "internalType": "address",
          "name": "newOwner",
          "type": "address"
        }
      ],
      "name": "OwnershipTransferStarted",
      "type": "event"
    },
    {
      "anonymous": false,
      "inputs": [
        {
          "indexed": true,
          "internalType": "address",
          "name": "previousOwner",
          "type": "address"
        },
        {
          "indexed": true,
          "internalType": "address",
          "name": "newOwner",
          "type": "address"
        }
      ],
      "name": "OwnershipTransferred",
      "type": "event"
    },
    {
      "anonymous": false,
      "inputs": [
        {
          "indexed": false,
          "internalType": "uint256",
          "name": "rewardPerSecond",
          "type": "uint256"
        },
        {
          "indexed": false,
          "internalType": "uint256",
          "name": "startTimestamp",
          "type": "uint256"
        },
        {
          "indexed": false,
          "internalType": "uint256",
          "name": "endTimestamp",
          "type": "uint256"
        }
      ],
      "name": "RewardParameterUpdated",
      "type": "event"
    },
    {
      "stateMutability": "payable",
      "type": "fallback"
    },
    {
      "inputs": [],
      "name": "acceptOwnership",
      "outputs": [],
      "stateMutability": "nonpayable",
      "type": "function"
    },
    {
      "inputs": [],
      "name": "getCaller",
      "outputs": [
        {
          "internalType": "address",
          "name": "",
          "type": "address"
        }
      ],
      "stateMutability": "view",
      "type": "function"
    },
    {
      "inputs": [
        {
          "internalType": "address",
          "name": "account",
          "type": "address"
        },
        {
          "internalType": "uint256",
          "name": "balance",
          "type": "uint256"
        },
        {
          "internalType": "uint256",
          "name": "totalSupply",
          "type": "uint256"
        }
      ],
      "name": "getPendingReward",
      "outputs": [
        {
          "internalType": "contract IERC20",
          "name": "",
          "type": "address"
        },
        {
          "internalType": "uint256",
          "name": "",
          "type": "uint256"
        }
      ],
      "stateMutability": "view",
      "type": "function"
    },
    {
      "inputs": [],
      "name": "getPid",
      "outputs": [
        {
          "internalType": "uint256",
          "name": "",
          "type": "uint256"
        }
      ],
      "stateMutability": "view",
      "type": "function"
    },
    {
      "inputs": [],
      "name": "getRewarderParameter",
      "outputs": [
        {
          "internalType": "contract IERC20",
          "name": "token",
          "type": "address"
        },
        {
          "internalType": "uint256",
          "name": "rewardPerSecond",
          "type": "uint256"
        },
        {
          "internalType": "uint256",
          "name": "lastUpdateTimestamp",
          "type": "uint256"
        },
        {
          "internalType": "uint256",
          "name": "endTimestamp",
          "type": "uint256"
        }
      ],
      "stateMutability": "view",
      "type": "function"
    },
    {
      "inputs": [],
      "name": "getToken",
      "outputs": [
        {
          "internalType": "contract IERC20",
          "name": "",
          "type": "address"
        }
      ],
      "stateMutability": "view",
      "type": "function"
    },
    {
      "inputs": [
        {
          "internalType": "address",
          "name": "initialOwner",
          "type": "address"
        }
      ],
      "name": "initialize",
      "outputs": [],
      "stateMutability": "nonpayable",
      "type": "function"
    },
    {
      "inputs": [],
      "name": "isStopped",
      "outputs": [
        {
          "internalType": "bool",
          "name": "",
          "type": "bool"
        }
      ],
      "stateMutability": "view",
      "type": "function"
    },
    {
      "inputs": [
        {
          "internalType": "address",
          "name": "account",
          "type": "address"
        },
        {
          "internalType": "uint256",
          "name": "pid",
          "type": "uint256"
        },
        {
          "internalType": "uint256",
          "name": "oldBalance",
          "type": "uint256"
        },
        {
          "internalType": "uint256",
          "name": "newBalance",
          "type": "uint256"
        },
        {
          "internalType": "uint256",
          "name": "oldTotalSupply",
          "type": "uint256"
        }
      ],
      "name": "onModify",
      "outputs": [
        {
          "internalType": "uint256",
          "name": "reward",
          "type": "uint256"
        }
      ],
      "stateMutability": "nonpayable",
      "type": "function"
    },
    {
      "inputs": [],
      "name": "owner",
      "outputs": [
        {
          "internalType": "address",
          "name": "",
          "type": "address"
        }
      ],
      "stateMutability": "view",
      "type": "function"
    },
    {
      "inputs": [],
      "name": "pendingOwner",
      "outputs": [
        {
          "internalType": "address",
          "name": "",
          "type": "address"
        }
      ],
      "stateMutability": "view",
      "type": "function"
    },
    {
      "inputs": [],
      "name": "renounceOwnership",
      "outputs": [],
      "stateMutability": "nonpayable",
      "type": "function"
    },
    {
      "inputs": [
        {
          "internalType": "uint256",
          "name": "rewardPerSecond",
          "type": "uint256"
        },
        {
          "internalType": "uint256",
          "name": "expectedDuration",
          "type": "uint256"
        }
      ],
      "name": "setRewardPerSecond",
      "outputs": [],
      "stateMutability": "nonpayable",
      "type": "function"
    },
    {
      "inputs": [
        {
          "internalType": "uint256",
          "name": "rewardPerSecond",
          "type": "uint256"
        },
        {
          "internalType": "uint256",
          "name": "startTimestamp",
          "type": "uint256"
        },
        {
          "internalType": "uint256",
          "name": "expectedDuration",
          "type": "uint256"
        }
      ],
      "name": "setRewarderParameters",
      "outputs": [],
      "stateMutability": "nonpayable",
      "type": "function"
    },
    {
      "inputs": [],
      "name": "stop",
      "outputs": [],
      "stateMutability": "nonpayable",
      "type": "function"
    },
    {
      "inputs": [
        {
          "internalType": "contract IERC20",
          "name": "token",
          "type": "address"
        },
        {
          "internalType": "address",
          "name": "account",
          "type": "address"
        }
      ],
      "name": "sweep",
      "outputs": [],
      "stateMutability": "nonpayable",
      "type": "function"
    },
    {
      "inputs": [
        {
          "internalType": "address",
          "name": "newOwner",
          "type": "address"
        }
      ],
      "name": "transferOwnership",
      "outputs": [],
      "stateMutability": "nonpayable",
      "type": "function"
    },
    {
      "stateMutability": "payable",
      "type": "receive"
    }
  ],
  "bytecode": {
    "object": "0x60a060405234801561001057600080fd5b506040516114ed3803806114ed83398101604081905261002f916100fe565b6001600160a01b0381166080528061004561004c565b505061012e565b7ff0c57e16840df040f15088dc2f81fe391c3923bec73e23a9662efc9c229c6a00805468010000000000000000900460ff161561009c5760405163f92ee8a960e01b815260040160405180910390fd5b80546001600160401b03908116146100fb5780546001600160401b0319166001600160401b0390811782556040519081527fc7f505b2f371ae2175ee4913f4499e1f2633a7b5936321eed1cdaeb6115181d29060200160405180910390a15b50565b60006020828403121561011057600080fd5b81516001600160a01b038116811461012757600080fd5b9392505050565b6080516113966101576000396000818161025e015281816108730152610d9d01526113966000f3fe6080604052600436106101025760003560e01c80638da5cb5b11610095578063c4d66de811610064578063c4d66de8146102c2578063c7183251146102e2578063c877296314610321578063e30c397814610343578063f2fde38b1461035857610111565b80638da5cb5b1461023a578063ab470f051461024f578063b5f578fc14610282578063b8dc491b146102a257610111565b8063715018a6116100d1578063715018a6146101c257806379ba5097146101d7578063870b50fd146101ec57806389f5ab0d1461021a57610111565b806307da68f51461011957806321df0da71461012e57806339cbec9d146101605780633f683b6a1461019f57610111565b366101115761010f610378565b005b61010f610378565b34801561012557600080fd5b5061010f6103ab565b34801561013a57600080fd5b506101436103e6565b6040516001600160a01b0390911681526020015b60405180910390f35b34801561016c57600080fd5b506101756103f5565b604080516001600160a01b0390951685526020850193909352918301526060820152608001610157565b3480156101ab57600080fd5b5060045460ff166040519015158152602001610157565b3480156101ce57600080fd5b5061010f61041a565b3480156101e357600080fd5b5061010f61042c565b3480156101f857600080fd5b5061020c610207366004611164565b610479565b604051908152602001610157565b34801561022657600080fd5b5061010f6102353660046111a8565b61049d565b34801561024657600080fd5b506101436104fd565b34801561025b57600080fd5b507f0000000000000000000000000000000000000000000000000000000000000000610143565b34801561028e57600080fd5b5061010f61029d3660046111d4565b610532565b3480156102ae57600080fd5b5061010f6102bd3660046111f6565b610561565b3480156102ce57600080fd5b5061010f6102dd36600461122f565b6105e3565b3480156102ee57600080fd5b506103026102fd36600461124c565b6106f3565b604080516001600160a01b039093168352602083019190915201610157565b34801561032d57600080fd5b503660011981013560f01c90036014013561020c565b34801561034f57600080fd5b50610143610737565b34801561036457600080fd5b5061010f61037336600461122f565b610760565b60006103826107e5565b6001600160a01b0316146103a957604051639415816f60e01b815260040160405180910390fd5b565b6103b36107f8565b60045460ff16156103d75760405163b1f033c760e01b815260040160405180910390fd5b6004805460ff19166001179055565b60006103f06107e5565b905090565b6000806000806104036107e5565b600054600554600354929791965094509092509050565b6104226107f8565b6103a9600061082a565b3380610436610737565b6001600160a01b03161461046d5760405163118cdaa760e01b81526001600160a01b03821660048201526024015b60405180910390fd5b6104768161082a565b50565b60006104888686868686610866565b9050610494868261091d565b95945050505050565b6104a56107f8565b60045460ff16156104c957604051630f3e8c1360e11b815260040160405180910390fd5b428210156104ed57604051635c62004b60e11b815260048101839052602401610464565b6104f8838383610986565b505050565b6000807f9016d09d72d40fdae2fd8ceac6b6234c7706214fd39c1cd1e609a0528c1993005b546001600160a01b031692915050565b61053a6107f8565b600554600042821161054c574261054e565b815b905061055b848285610986565b50505050565b6105696107f8565b600061057483610aed565b60045490915060ff161580156105a2575061058d6107e5565b6001600160a01b0316836001600160a01b0316145b156105b7576002546105b49082611297565b90505b806000036105d8576040516360e6da0360e01b815260040160405180910390fd5b6104f8838383610b73565b7ff0c57e16840df040f15088dc2f81fe391c3923bec73e23a9662efc9c229c6a008054600160401b810460ff16159067ffffffffffffffff166000811580156106295750825b905060008267ffffffffffffffff1660011480156106465750303b155b905081158015610654575080155b156106725760405163f92ee8a960e01b815260040160405180910390fd5b845467ffffffffffffffff19166001178555831561069c57845460ff60401b1916600160401b1785555b6106a586610c16565b83156106eb57845460ff60401b19168555604051600181527fc7f505b2f371ae2175ee4913f4499e1f2633a7b5936321eed1cdaeb6115181d29060200160405180910390a15b505050505050565b60008060006107126000546003546005610c279092919063ffffffff16565b905061071c6107e5565b61072a600588888886610c5e565b9250925050935093915050565b6000807f237e158222e3e6968b72b9db0d8043aacf074ad9f650f0d1606b4d82ee432c00610522565b6107686107f8565b7f237e158222e3e6968b72b9db0d8043aacf074ad9f650f0d1606b4d82ee432c0080546001600160a01b0319166001600160a01b03831690811782556107ac6104fd565b6001600160a01b03167f38d16b8cac22d99fc7c124b9cd0de2d3fa1faef420bfe791d8c362d765e2270060405160405180910390a35050565b3660011981013560f01c90033560601c90565b336108016104fd565b6001600160a01b0316146103a95760405163118cdaa760e01b8152336004820152602401610464565b7f237e158222e3e6968b72b9db0d8043aacf074ad9f650f0d1606b4d82ee432c0080546001600160a01b031916815561086282610cc4565b5050565b6000336001600160a01b037f000000000000000000000000000000000000000000000000000000000000000016146108b15760405163332bf49d60e21b815260040160405180910390fd5b3660011981013560f01c90036014013585146108e35760405163e7ca808760e01b815260048101869052602401610464565b60045460ff161561090757604051630f3e8c1360e11b815260040160405180910390fd5b61091386858585610d35565b9695505050505050565b60006109276107e5565b9050610934818484610b73565b806001600160a01b0316836001600160a01b03167f70eb43c4a8ae8c40502dcf22436c509c28d6ff421cf07c491be56984bd9870688460405161097991815260200190565b60405180910390a3505050565b60045460ff16156109aa57604051630f3e8c1360e11b815260040160405180910390fd5b801580156109b757508215155b156109d557604051631a4778f160e31b815260040160405180910390fd5b600154600080546003546109eb91600591610c27565b90506109f781836112aa565b9150600082610a0c610a076107e5565b610aed565b610a169190611297565b90506000610a2485886112bd565b905080821015610a515760405163f79406ed60e01b81526004810183905260248101829052604401610464565b6000610a5d86886112aa565b90506000610a69610d99565b60008a90559050610a7a83876112aa565b60025560038290556001869055610a9360058287610e1d565b50428814610aa15760058890555b604080518a8152602081018a90529081018390527ff0b276e9ee40b3a3d065f636ee656c9bf1c9a0c4060fb212fd0861890c107be59060600160405180910390a1505050505050505050565b60006001600160a01b03821615610b6b576040516370a0823160e01b81523060048201526001600160a01b038316906370a0823190602401602060405180830381865afa158015610b42573d6000803e3d6000fd5b505050506040513d601f19601f82011682018060405250810190610b6691906112d4565b610b6d565b475b92915050565b80600003610b8057505050565b6001600160a01b038316610c02576000826001600160a01b03168260405160006040518083038185875af1925050503d8060008114610bdb576040519150601f19603f3d011682016040523d82523d6000602084013e610be0565b606091505b505090508061055b57604051630df61d5560e01b815260040160405180910390fd5b6104f86001600160a01b0384168383610e6d565b610c1e610ebf565b61047681610f08565b825460009081428410610c3a5742610c3c565b835b9050808211610c4f578482820302610c52565b60005b925050505b9392505050565b600080610c6b8484610f3a565b8760010154610c7a91906112aa565b90508415610cb6576001600160a01b0386166000908152600288016020526040902054610ca78287610f5e565b610cb19190611297565b610cb9565b60005b979650505050505050565b7f9016d09d72d40fdae2fd8ceac6b6234c7706214fd39c1cd1e609a0528c19930080546001600160a01b031981166001600160a01b03848116918217845560405192169182907f8be0079c531659141344cd1fd0a4f28419497f9722a3daafe3b4186f6b6457e090600090a3505050565b60015460025460008054600354919392918491610d559160059190610c27565b9050610d6660058989898986610f75565b935083610d7382856112aa565b610d7d9190611297565b600155610d8a8483611297565b60025550919695505050505050565b60007f00000000000000000000000000000000000000000000000000000000000000006001600160a01b031663c022215c6040518163ffffffff1660e01b8152600401602060405180830381865afa158015610df9573d6000803e3d6000fd5b505050506040513d601f19601f820116820180604052508101906103f091906112d4565b600080610e2a8484610f3a565b8554909150421115610e3a574285555b8015610e5f5780856001016000828254610e5491906112aa565b925050819055610494565b846001015495945050505050565b604080516001600160a01b038416602482015260448082018490528251808303909101815260649091019091526020810180516001600160e01b031663a9059cbb60e01b1790526104f8908490610ff9565b7ff0c57e16840df040f15088dc2f81fe391c3923bec73e23a9662efc9c229c6a0054600160401b900460ff166103a957604051631afcd79f60e31b815260040160405180910390fd5b610f10610ebf565b6001600160a01b03811661046d57604051631e4fbdf760e01b815260006004820152602401610464565b60008215610f5557610f5083604084901b6112ed565b610c57565b60009392505050565b60006040610f6c84846112bd565b901c9392505050565b600080610f83888585610e1d565b90508515610fbf576001600160a01b0387166000908152600289016020526040902054610fb08288610f5e565b610fba9190611297565b610fc2565b60005b9150610fce8186610f5e565b6001600160a01b03909716600090815260029098016020525060409096209490945550929392505050565b600061100e6001600160a01b0384168361105c565b90508051600014158015611033575080806020019051810190611031919061130f565b155b156104f857604051635274afe760e01b81526001600160a01b0384166004820152602401610464565b6060610c578383600084600080856001600160a01b031684866040516110829190611331565b60006040518083038185875af1925050503d80600081146110bf576040519150601f19603f3d011682016040523d82523d6000602084013e6110c4565b606091505b5091509150610c528683836060826110df57610f5082611126565b81511580156110f657506001600160a01b0384163b155b1561111f57604051639996b31560e01b81526001600160a01b0385166004820152602401610464565b5080610c57565b8051156111365780518082602001fd5b604051630a12f52160e11b815260040160405180910390fd5b6001600160a01b038116811461047657600080fd5b600080600080600060a0868803121561117c57600080fd5b85356111878161114f565b97602087013597506040870135966060810135965060800135945092505050565b6000806000606084860312156111bd57600080fd5b505081359360208301359350604090920135919050565b600080604083850312156111e757600080fd5b50508035926020909101359150565b6000806040838503121561120957600080fd5b82356112148161114f565b915060208301356112248161114f565b809150509250929050565b60006020828403121561124157600080fd5b8135610c578161114f565b60008060006060848603121561126157600080fd5b833561126c8161114f565b95602085013595506040909401359392505050565b634e487b7160e01b600052601160045260246000fd5b81810381811115610b6d57610b6d611281565b80820180821115610b6d57610b6d611281565b8082028115828204841417610b6d57610b6d611281565b6000602082840312156112e657600080fd5b5051919050565b60008261130a57634e487b7160e01b600052601260045260246000fd5b500490565b60006020828403121561132157600080fd5b81518015158114610c5757600080fd5b6000825160005b818110156113525760208186018101518583015201611338565b50600092019182525091905056fea26469706673582212201992a1c5e912e2a83b46fd01f94cc4b99c67a5eb869988a8b2c02fcd5cc54db164736f6c63430008140033",
    "linkReferences": {}
  },
  "methodIdentifiers": {
    "acceptOwnership()": "79ba5097",
    "getCaller()": "ab470f05",
    "getPendingReward(address,uint256,uint256)": "c7183251",
    "getPid()": "c8772963",
    "getRewarderParameter()": "39cbec9d",
    "getToken()": "21df0da7",
    "initialize(address)": "c4d66de8",
    "isStopped()": "3f683b6a",
    "onModify(address,uint256,uint256,uint256,uint256)": "870b50fd",
    "owner()": "8da5cb5b",
    "pendingOwner()": "e30c3978",
    "renounceOwnership()": "715018a6",
    "setRewardPerSecond(uint256,uint256)": "b5f578fc",
    "setRewarderParameters(uint256,uint256,uint256)": "89f5ab0d",
    "stop()": "07da68f5",
    "sweep(address,address)": "b8dc491b",
    "transferOwnership(address)": "f2fde38b"
  },
  "id": 96
}