{"abi":[{"type":"constructor","inputs":[{"name":"caller","type":"address","internalType":"address"}],"stateMutability":"nonpayable"},{"type":"fallback","stateMutability":"payable"},{"type":"receive","stateMutability":"payable"},{"type":"function","name":"acceptOwnership","inputs":[],"outputs":[],"stateMutability":"nonpayable"},{"type":"function","name":"getCaller","inputs":[],"outputs":[{"name":"","type":"address","internalType":"address"}],"stateMutability":"view"},{"type":"function","name":"getPendingReward","inputs":[{"name":"account","type":"address","internalType":"address"},{"name":"balance","type":"uint256","internalType":"uint256"},{"name":"totalSupply","type":"uint256","internalType":"uint256"}],"outputs":[{"name":"","type":"address","internalType":"contract IERC20"},{"name":"","type":"uint256","internalType":"uint256"}],"stateMutability":"view"},{"type":"function","name":"getPid","inputs":[],"outputs":[{"name":"","type":"uint256","internalType":"uint256"}],"stateMutability":"view"},{"type":"function","name":"getRemainingReward","inputs":[],"outputs":[{"name":"","type":"uint256","internalType":"uint256"}],"stateMutability":"view"},{"type":"function","name":"getRewarderParameter","inputs":[],"outputs":[{"name":"token","type":"address","internalType":"contract IERC20"},{"name":"rewardPerSecond","type":"uint256","internalType":"uint256"},{"name":"lastUpdateTimestamp","type":"uint256","internalType":"uint256"},{"name":"endTimestamp","type":"uint256","internalType":"uint256"}],"stateMutability":"view"},{"type":"function","name":"getToken","inputs":[],"outputs":[{"name":"","type":"address","internalType":"contract IERC20"}],"stateMutability":"view"},{"type":"function","name":"implementation","inputs":[],"outputs":[{"name":"","type":"address","internalType":"address"}],"stateMutability":"view"},{"type":"function","name":"initialize","inputs":[{"name":"initialOwner","type":"address","internalType":"address"}],"outputs":[],"stateMutability":"nonpayable"},{"type":"function","name":"isStopped","inputs":[],"outputs":[{"name":"","type":"bool","internalType":"bool"}],"stateMutability":"view"},{"type":"function","name":"onModify","inputs":[{"name":"account","type":"address","internalType":"address"},{"name":"pid","type":"uint256","internalType":"uint256"},{"name":"oldBalance","type":"uint256","internalType":"uint256"},{"name":"newBalance","type":"uint256","internalType":"uint256"},{"name":"oldTotalSupply","type":"uint256","internalType":"uint256"}],"outputs":[{"name":"reward","type":"uint256","internalType":"uint256"}],"stateMutability":"nonpayable"},{"type":"function","name":"owner","inputs":[],"outputs":[{"name":"","type":"address","internalType":"address"}],"stateMutability":"view"},{"type":"function","name":"pendingOwner","inputs":[],"outputs":[{"name":"","type":"address","internalType":"address"}],"stateMutability":"view"},{"type":"function","name":"renounceOwnership","inputs":[],"outputs":[],"stateMutability":"pure"},{"type":"function","name":"setRewardPerSecond","inputs":[{"name":"maxRewardPerSecond","type":"uint256","internalType":"uint256"},{"name":"expectedDuration","type":"uint256","internalType":"uint256"}],"outputs":[{"name":"rewardPerSecond","type":"uint256","internalType":"uint256"}],"stateMutability":"nonpayable"},{"type":"function","name":"setRewarderParameters","inputs":[{"name":"maxRewardPerSecond","type":"uint256","internalType":"uint256"},{"name":"startTimestamp","type":"uint256","internalType":"uint256"},{"name":"expectedDuration","type":"uint256","internalType":"uint256"}],"outputs":[{"name":"rewardPerSecond","type":"uint256","internalType":"uint256"}],"stateMutability":"nonpayable"},{"type":"function","name":"stop","inputs":[],"outputs":[],"stateMutability":"nonpayable"},{"type":"function","name":"sweep","inputs":[{"name":"token","type":"address","internalType":"contract IERC20"},{"name":"account","type":"address","internalType":"address"}],"outputs":[],"stateMutability":"nonpayable"},{"type":"function","name":"transferOwnership","inputs":[{"name":"newOwner","type":"address","internalType":"address"}],"outputs":[],"stateMutability":"nonpayable"},{"type":"event","name":"Claim","inputs":[{"name":"account","type":"address","indexed":true,"internalType":"address"},{"name":"token","type":"address","indexed":true,"internalType":"contract IERC20"},{"name":"reward","type":"uint256","indexed":false,"internalType":"uint256"}],"anonymous":false},{"type":"event","name":"Initialized","inputs":[{"name":"version","type":"uint64","indexed":false,"internalType":"uint64"}],"anonymous":false},{"type":"event","name":"OwnershipTransferStarted","inputs":[{"name":"previousOwner","type":"address","indexed":true,"internalType":"address"},{"name":"newOwner","type":"address","indexed":true,"internalType":"address"}],"anonymous":false},{"type":"event","name":"OwnershipTransferred","inputs":[{"name":"previousOwner","type":"address","indexed":true,"internalType":"address"},{"name":"newOwner","type":"address","indexed":true,"internalType":"address"}],"anonymous":false},{"type":"event","name":"RewardParameterUpdated","inputs":[{"name":"rewardPerSecond","type":"uint256","indexed":false,"internalType":"uint256"},{"name":"startTimestamp","type":"uint256","indexed":false,"internalType":"uint256"},{"name":"endTimestamp","type":"uint256","indexed":false,"internalType":"uint256"}],"anonymous":false},{"type":"event","name":"Stopped","inputs":[],"anonymous":false},{"type":"event","name":"Swept","inputs":[{"name":"token","type":"address","indexed":true,"internalType":"contract IERC20"},{"name":"account","type":"address","indexed":true,"internalType":"address"},{"name":"amount","type":"uint256","indexed":false,"internalType":"uint256"}],"anonymous":false},{"type":"error","name":"AddressEmptyCode","inputs":[{"name":"target","type":"address","internalType":"address"}]},{"type":"error","name":"AddressInsufficientBalance","inputs":[{"name":"account","type":"address","internalType":"address"}]},{"type":"error","name":"BaseRewarder__AlreadyStopped","inputs":[]},{"type":"error","name":"BaseRewarder__CannotRenounceOwnership","inputs":[]},{"type":"error","name":"BaseRewarder__InvalidCaller","inputs":[]},{"type":"error","name":"BaseRewarder__InvalidDuration","inputs":[]},{"type":"error","name":"BaseRewarder__InvalidPid","inputs":[{"name":"pid","type":"uint256","internalType":"uint256"}]},{"type":"error","name":"BaseRewarder__InvalidStartTimestamp","inputs":[{"name":"startTimestamp","type":"uint256","internalType":"uint256"}]},{"type":"error","name":"BaseRewarder__NativeTransferFailed","inputs":[]},{"type":"error","name":"BaseRewarder__NotNativeRewarder","inputs":[]},{"type":"error","name":"BaseRewarder__Stopped","inputs":[]},{"type":"error","name":"BaseRewarder__ZeroAmount","inputs":[]},{"type":"error","name":"BaseRewarder__ZeroReward","inputs":[]},{"type":"error","name":"FailedInnerCall","inputs":[]},{"type":"error","name":"InvalidInitialization","inputs":[]},{"type":"error","name":"NotInitializing","inputs":[]},{"type":"error","name":"OwnableInvalidOwner","inputs":[{"name":"owner","type":"address","internalType":"address"}]},{"type":"error","name":"OwnableUnauthorizedAccount","inputs":[{"name":"account","type":"address","internalType":"address"}]},{"type":"error","name":"SafeERC20FailedOperation","inputs":[{"name":"token","type":"address","internalType":"address"}]}],"bytecode":{"object":"0x60c060405234801561001057600080fd5b50604051620017eb380380620017eb83398101604081905261003191610104565b6001600160a01b03811660a052306080528061004b610052565b5050610134565b7ff0c57e16840df040f15088dc2f81fe391c3923bec73e23a9662efc9c229c6a00805468010000000000000000900460ff16156100a25760405163f92ee8a960e01b815260040160405180910390fd5b80546001600160401b03908116146101015780546001600160401b0319166001600160401b0390811782556040519081527fc7f505b2f371ae2175ee4913f4499e1f2633a7b5936321eed1cdaeb6115181d29060200160405180910390a15b50565b60006020828403121561011657600080fd5b81516001600160a01b038116811461012d57600080fd5b9392505050565b60805160a05161167c6200016f600039600081816102f9015281816109db01528181610a710152610be10152600061023b015261167c6000f3fe6080604052600436106101485760003560e01c80638da5cb5b116100c0578063c4d66de811610074578063c877296311610059578063c8772963146103d1578063e30c3978146103f3578063f2fde38b1461040857610157565b8063c4d66de814610372578063c71832511461039257610157565b8063b5f578fc116100a5578063b5f578fc1461031d578063b8dc491b1461033d578063c0b5fca01461035d57610157565b80638da5cb5b146102d5578063ab470f05146102ea57610157565b80635c60da1b1161011757806379ba5097116100fc57806379ba509714610272578063870b50fd1461028757806389f5ab0d146102b557610157565b80635c60da1b14610229578063715018a61461025d57610157565b806307da68f51461015f57806321df0da71461017457806339cbec9d146101af5780633f683b6a1461020657610157565b3661015757610155610428565b005b610155610428565b34801561016b57600080fd5b50610155610458565b34801561018057600080fd5b503660011981013560f01c90033560601c5b6040516001600160a01b0390911681526020015b60405180910390f35b3480156101bb57600080fd5b506101dc600054600554600354600119369081013560f01c90033560601c93565b604080516001600160a01b03909516855260208501939093529183015260608201526080016101a6565b34801561021257600080fd5b5060045460ff1660405190151581526020016101a6565b34801561023557600080fd5b506101927f000000000000000000000000000000000000000000000000000000000000000081565b34801561026957600080fd5b50610155610514565b34801561027e57600080fd5b5061015561052d565b34801561029357600080fd5b506102a76102a236600461142d565b61057a565b6040519081526020016101a6565b3480156102c157600080fd5b506102a76102d0366004611471565b61059e565b3480156102e157600080fd5b506101926105bd565b3480156102f657600080fd5b507f0000000000000000000000000000000000000000000000000000000000000000610192565b34801561032957600080fd5b506102a761033836600461149d565b6105f2565b34801561034957600080fd5b506101556103583660046114bf565b610628565b34801561036957600080fd5b506102a761071a565b34801561037e57600080fd5b5061015561038d3660046114f8565b610784565b34801561039e57600080fd5b506103b26103ad366004611515565b6108a8565b604080516001600160a01b0390931683526020830191909152016101a6565b3480156103dd57600080fd5b503660011981013560f01c9003601401356102a7565b3480156103ff57600080fd5b506101926108ed565b34801561041457600080fd5b506101556104233660046114f8565b610916565b3660011981013560f01c90033560601c1561045657604051639415816f60e01b815260040160405180910390fd5b565b61046061099b565b60045460ff16156104845760405163b1f033c760e01b815260040160405180910390fd5b600061048e6109cd565b905060006104ae600054600354846005610af1909392919063ffffffff16565b905080600160008282546104c29190611560565b909155506104d4905060058383610b48565b506004805460ff191660011790556040517f7acc84e34091ae817647a4c49116f5cc07f319078ba80f8f5fde37ea7e25cbd690600090a15050565b905090565b6040516313e3bb6f60e21b815260040160405180910390fd5b33806105376108ed565b6001600160a01b03161461056e5760405163118cdaa760e01b81526001600160a01b03821660048201526024015b60405180910390fd5b61057781610b98565b50565b60006105898686868686610bd4565b90506105958682610c67565b95945050505050565b60006105a861099b565b6105b3848484610cc7565b90505b9392505050565b6000807f9016d09d72d40fdae2fd8ceac6b6234c7706214fd39c1cd1e609a0528c1993005b546001600160a01b031692915050565b60006105fc61099b565b600554600042821161060e5742610610565b815b905061061d858286610cc7565b925050505b92915050565b61063061099b565b600061063b83610e91565b90503660011981013560f01c90033560601c6001600160a01b0384160361069c5760045460ff161561068c5760006106716109cd565b1115610687576001546106849082611573565b90505b61069c565b6002546106999082611573565b90505b806000036106bd576040516360e6da0360e01b815260040160405180910390fd5b6106c8838383610f16565b816001600160a01b0316836001600160a01b03167f7b09c29f9106defeccc9ac3b823f3aad0b470d120e5df7aed033b5c43a4bf7188360405161070d91815260200190565b60405180910390a3505050565b6000806107256109cd565b90506000610745600054600354846005610af1909392919063ffffffff16565b90506000816001546107579190611560565b9050806107723660011981013560f01c90033560601c610e91565b61077c9190611573565b935050505090565b7ff0c57e16840df040f15088dc2f81fe391c3923bec73e23a9662efc9c229c6a00805468010000000000000000810460ff16159067ffffffffffffffff166000811580156107cf5750825b905060008267ffffffffffffffff1660011480156107ec5750303b155b9050811580156107fa575080155b156108185760405163f92ee8a960e01b815260040160405180910390fd5b845467ffffffffffffffff19166001178555831561084c57845468ff00000000000000001916680100000000000000001785555b61085586610fc4565b83156108a057845468ff000000000000000019168555604051600181527fc7f505b2f371ae2175ee4913f4499e1f2633a7b5936321eed1cdaeb6115181d29060200160405180910390a15b505050505050565b60008054600354829182916108c09160059187610af1565b90503660011981013560f01c90033560601c6108e0600588888886610fd5565b9250925050935093915050565b6000807f237e158222e3e6968b72b9db0d8043aacf074ad9f650f0d1606b4d82ee432c006105e2565b61091e61099b565b7f237e158222e3e6968b72b9db0d8043aacf074ad9f650f0d1606b4d82ee432c0080546001600160a01b0319166001600160a01b03831690811782556109626105bd565b6001600160a01b03167f38d16b8cac22d99fc7c124b9cd0de2d3fa1faef420bfe791d8c362d765e2270060405160405180910390a35050565b336109a46105bd565b6001600160a01b0316146104565760405163118cdaa760e01b8152336004820152602401610565565b6000306001600160a01b03167f00000000000000000000000000000000000000000000000000000000000000006001600160a01b0316639015dcc96040518163ffffffff1660e01b8152600401602060405180830381865afa158015610a37573d6000803e3d6000fd5b505050506040513d601f19601f82011682018060405250810190610a5b9190611586565b6001600160a01b031614610a6f5750600090565b7f00000000000000000000000000000000000000000000000000000000000000006001600160a01b031663c022215c6040518163ffffffff1660e01b8152600401602060405180830381865afa158015610acd573d6000803e3d6000fd5b505050506040513d601f19601f8201168201806040525081019061050f91906115a3565b600081600003610b0357506000610b40565b84546000428510610b145742610b16565b845b9050818111610b26576000610b3b565b85610b318383611573565b610b3b91906115bc565b925050505b949350505050565b600080610b55848461103b565b8554909150421115610b65574285555b8015610b8a5780856001016000828254610b7f9190611560565b925050819055610595565b846001015495945050505050565b7f237e158222e3e6968b72b9db0d8043aacf074ad9f650f0d1606b4d82ee432c0080546001600160a01b0319168155610bd08261105f565b5050565b6000336001600160a01b037f00000000000000000000000000000000000000000000000000000000000000001614610c1f5760405163332bf49d60e21b815260040160405180910390fd5b3660011981013560f01c9003601401358514610c515760405163e7ca808760e01b815260048101869052602401610565565b610c5d868585856110d0565b9695505050505050565b3660011981013560f01c90033560601c610c82818484610f16565b806001600160a01b0316836001600160a01b03167f70eb43c4a8ae8c40502dcf22436c509c28d6ff421cf07c491be56984bd9870688460405161070d91815260200190565b600042831015610ced57604051635c62004b60e11b815260048101849052602401610565565b60045460ff1615610d1157604051630f3e8c1360e11b815260040160405180910390fd5b81158015610d1e57508315155b15610d3c57604051631a4778f160e31b815260040160405180910390fd5b6001546000610d496109cd565b90506000610d69600054600354846005610af1909392919063ffffffff16565b9050610d758184611560565b9250600083610d923660011981013560f01c90033560601c610e91565b610d9c9190611573565b90506000610daa878a6115bc565b9050818111610db95788610dc3565b610dc387836115d3565b95506000610dd188886115bc565b90508715801590610de0575080155b15610dfe57604051634ef6878160e01b815260040160405180910390fd5b6000610e0a898b611560565b60008990559050610e1b8288611560565b60025560038190556001879055610e3460058787610b48565b50428a14610e425760058a90555b60408051898152602081018c90529081018290527ff0b276e9ee40b3a3d065f636ee656c9bf1c9a0c4060fb212fd0861890c107be59060600160405180910390a1505050505050509392505050565b60006001600160a01b03821615610f0f576040516370a0823160e01b81523060048201526001600160a01b038316906370a0823190602401602060405180830381865afa158015610ee6573d6000803e3d6000fd5b505050506040513d601f19601f82011682018060405250810190610f0a91906115a3565b610622565b4792915050565b80600003610f2357505050565b6001600160a01b038316610fab576000826001600160a01b03168260405160006040518083038185875af1925050503d8060008114610f7e576040519150601f19603f3d011682016040523d82523d6000602084013e610f83565b606091505b5050905080610fa557604051630df61d5560e01b815260040160405180910390fd5b50505050565b610fbf6001600160a01b0384168383611140565b505050565b610fcc6111a7565b610577816111f5565b600080610fe2848461103b565b8760010154610ff19190611560565b9050841561102d576001600160a01b038616600090815260028801602052604090205461101e8287611227565b6110289190611573565b611030565b60005b979650505050505050565b600082156110565761105183604084901b6115d3565b6105b6565b60009392505050565b7f9016d09d72d40fdae2fd8ceac6b6234c7706214fd39c1cd1e609a0528c19930080546001600160a01b031981166001600160a01b03848116918217845560405192169182907f8be0079c531659141344cd1fd0a4f28419497f9722a3daafe3b4186f6b6457e090600090a3505050565b600154600254600091908284156110f9576000546003546110f49160059188610af1565b6110fc565b60005b905061110d6005898989898661123e565b93508361111a8285611560565b6111249190611573565b6001556111318483611573565b60025550919695505050505050565b604080516001600160a01b038416602482015260448082018490528251808303909101815260649091019091526020810180517bffffffffffffffffffffffffffffffffffffffffffffffffffffffff1663a9059cbb60e01b179052610fbf9084906112c2565b7ff0c57e16840df040f15088dc2f81fe391c3923bec73e23a9662efc9c229c6a005468010000000000000000900460ff1661045657604051631afcd79f60e31b815260040160405180910390fd5b6111fd6111a7565b6001600160a01b03811661056e57604051631e4fbdf760e01b815260006004820152602401610565565b6000604061123584846115bc565b901c9392505050565b60008061124c888585610b48565b90508515611288576001600160a01b03871660009081526002890160205260409020546112798288611227565b6112839190611573565b61128b565b60005b91506112978186611227565b6001600160a01b03909716600090815260029098016020525060409096209490945550929392505050565b60006112d76001600160a01b03841683611325565b905080516000141580156112fc5750808060200190518101906112fa91906115f5565b155b15610fbf57604051635274afe760e01b81526001600160a01b0384166004820152602401610565565b60606105b68383600084600080856001600160a01b0316848660405161134b9190611617565b60006040518083038185875af1925050503d8060008114611388576040519150601f19603f3d011682016040523d82523d6000602084013e61138d565b606091505b5091509150610c5d8683836060826113a857611051826113ef565b81511580156113bf57506001600160a01b0384163b155b156113e857604051639996b31560e01b81526001600160a01b0385166004820152602401610565565b50806105b6565b8051156113ff5780518082602001fd5b604051630a12f52160e11b815260040160405180910390fd5b6001600160a01b038116811461057757600080fd5b600080600080600060a0868803121561144557600080fd5b853561145081611418565b97602087013597506040870135966060810135965060800135945092505050565b60008060006060848603121561148657600080fd5b505081359360208301359350604090920135919050565b600080604083850312156114b057600080fd5b50508035926020909101359150565b600080604083850312156114d257600080fd5b82356114dd81611418565b915060208301356114ed81611418565b809150509250929050565b60006020828403121561150a57600080fd5b81356105b681611418565b60008060006060848603121561152a57600080fd5b833561153581611418565b95602085013595506040909401359392505050565b634e487b7160e01b600052601160045260246000fd5b808201808211156106225761062261154a565b818103818111156106225761062261154a565b60006020828403121561159857600080fd5b81516105b681611418565b6000602082840312156115b557600080fd5b5051919050565b80820281158282048414176106225761062261154a565b6000826115f057634e487b7160e01b600052601260045260246000fd5b500490565b60006020828403121561160757600080fd5b815180151581146105b657600080fd5b6000825160005b81811015611638576020818601810151858301520161161e565b50600092019182525091905056fea26469706673582212207799c6cb89bf3edbde9cbb1176af7f69ef78c051259a785f3ca108eb85cc28a564736f6c63430008140033","linkReferences":{}},"methodIdentifiers":{"acceptOwnership()":"79ba5097","getCaller()":"ab470f05","getPendingReward(address,uint256,uint256)":"c7183251","getPid()":"c8772963","getRemainingReward()":"c0b5fca0","getRewarderParameter()":"39cbec9d","getToken()":"21df0da7","implementation()":"5c60da1b","initialize(address)":"c4d66de8","isStopped()":"3f683b6a","onModify(address,uint256,uint256,uint256,uint256)":"870b50fd","owner()":"8da5cb5b","pendingOwner()":"e30c3978","renounceOwnership()":"715018a6","setRewardPerSecond(uint256,uint256)":"b5f578fc","setRewarderParameters(uint256,uint256,uint256)":"89f5ab0d","stop()":"07da68f5","sweep(address,address)":"b8dc491b","transferOwnership(address)":"f2fde38b"},"id":104}