{
  "abi": [
    {
      "inputs": [
        {
          "internalType": "address",
          "name": "initialFeeTo",
          "type": "address"
        },
        {
          "internalType": "address",
          "name": "initialOwner",
          "type": "address"
        }
      ],
      "stateMutability": "nonpayable",
      "type": "constructor"
    },
    {
      "inputs": [
        {
          "internalType": "address",
          "name": "owner",
          "type": "address"
        }
      ],
      "name": "OwnableInvalidOwner",
      "type": "error"
    },
    {
      "inputs": [
        {
          "internalType": "address",
          "name": "account",
          "type": "address"
        }
      ],
      "name": "OwnableUnauthorizedAccount",
      "type": "error"
    },
    {
      "anonymous": false,
      "inputs": [
        {
          "indexed": true,
          "internalType": "address",
          "name": "previousOwner",
          "type": "address"
        },
        {
          "indexed": true,
          "internalType": "address",
          "name": "newOwner",
          "type": "address"
        }
      ],
      "name": "OwnershipTransferStarted",
      "type": "event"
    },
    {
      "anonymous": false,
      "inputs": [
        {
          "indexed": true,
          "internalType": "address",
          "name": "previousOwner",
          "type": "address"
        },
        {
          "indexed": true,
          "internalType": "address",
          "name": "newOwner",
          "type": "address"
        }
      ],
      "name": "OwnershipTransferred",
      "type": "event"
    },
    {
      "anonymous": false,
      "inputs": [
        {
          "indexed": true,
          "internalType": "address",
          "name": "token0",
          "type": "address"
        },
        {
          "indexed": true,
          "internalType": "address",
          "name": "token1",
          "type": "address"
        },
        {
          "indexed": false,
          "internalType": "address",
          "name": "pair",
          "type": "address"
        },
        {
          "indexed": false,
          "internalType": "uint256",
          "name": "",
          "type": "uint256"
        }
      ],
      "name": "PairCreated",
      "type": "event"
    },
    {
      "inputs": [],
      "name": "acceptOwnership",
      "outputs": [],
      "stateMutability": "nonpayable",
      "type": "function"
    },
    {
      "inputs": [
        {
          "internalType": "uint256",
          "name": "",
          "type": "uint256"
        }
      ],
      "name": "allPairs",
      "outputs": [
        {
          "internalType": "address",
          "name": "",
          "type": "address"
        }
      ],
      "stateMutability": "view",
      "type": "function"
    },
    {
      "inputs": [],
      "name": "allPairsLength",
      "outputs": [
        {
          "internalType": "uint256",
          "name": "",
          "type": "uint256"
        }
      ],
      "stateMutability": "view",
      "type": "function"
    },
    {
      "inputs": [
        {
          "internalType": "address",
          "name": "tokenA",
          "type": "address"
        },
        {
          "internalType": "address",
          "name": "tokenB",
          "type": "address"
        }
      ],
      "name": "createPair",
      "outputs": [
        {
          "internalType": "address",
          "name": "pair",
          "type": "address"
        }
      ],
      "stateMutability": "nonpayable",
      "type": "function"
    },
    {
      "inputs": [],
      "name": "feeTo",
      "outputs": [
        {
          "internalType": "address",
          "name": "",
          "type": "address"
        }
      ],
      "stateMutability": "view",
      "type": "function"
    },
    {
      "inputs": [
        {
          "internalType": "address",
          "name": "",
          "type": "address"
        },
        {
          "internalType": "address",
          "name": "",
          "type": "address"
        }
      ],
      "name": "getPair",
      "outputs": [
        {
          "internalType": "address",
          "name": "",
          "type": "address"
        }
      ],
      "stateMutability": "view",
      "type": "function"
    },
    {
      "inputs": [],
      "name": "implementation",
      "outputs": [
        {
          "internalType": "address",
          "name": "",
          "type": "address"
        }
      ],
      "stateMutability": "view",
      "type": "function"
    },
    {
      "inputs": [],
      "name": "owner",
      "outputs": [
        {
          "internalType": "address",
          "name": "",
          "type": "address"
        }
      ],
      "stateMutability": "view",
      "type": "function"
    },
    {
      "inputs": [],
      "name": "pendingOwner",
      "outputs": [
        {
          "internalType": "address",
          "name": "",
          "type": "address"
        }
      ],
      "stateMutability": "view",
      "type": "function"
    },
    {
      "inputs": [],
      "name": "renounceOwnership",
      "outputs": [],
      "stateMutability": "nonpayable",
      "type": "function"
    },
    {
      "inputs": [
        {
          "internalType": "address",
          "name": "_feeTo",
          "type": "address"
        }
      ],
      "name": "setFeeTo",
      "outputs": [],
      "stateMutability": "nonpayable",
      "type": "function"
    },
    {
      "inputs": [
        {
          "internalType": "address",
          "name": "newOwner",
          "type": "address"
        }
      ],
      "name": "transferOwnership",
      "outputs": [],
      "stateMutability": "nonpayable",
      "type": "function"
    }
  ],
  "bytecode": {
    "object": "0x60a060405234801561001057600080fd5b506040516130a53803806130a583398101604081905261002f91610153565b806001600160a01b03811661005e57604051631e4fbdf760e01b81526000600482015260240160405180910390fd5b610067816100be565b506040516100749061012a565b604051809103906000f080158015610090573d6000803e3d6000fd5b506001600160a01b03908116608052600280546001600160a01b031916939091169290921790915550610186565b600180546001600160a01b03191690556100d7816100da565b50565b600080546001600160a01b038381166001600160a01b0319831681178455604051919092169283917f8be0079c531659141344cd1fd0a4f28419497f9722a3daafe3b4186f6b6457e09190a35050565b6126c8806109dd83390190565b80516001600160a01b038116811461014e57600080fd5b919050565b6000806040838503121561016657600080fd5b61016f83610137565b915061017d60208401610137565b90509250929050565b6080516108356101a860003960008181610132015261043e01526108356000f3fe608060405234801561001057600080fd5b50600436106100d45760003560e01c80638da5cb5b11610081578063e6a439051161005b578063e6a439051461019b578063f2fde38b146101cf578063f46901ed146101e257600080fd5b80638da5cb5b14610166578063c9c6539614610177578063e30c39781461018a57600080fd5b80635c60da1b116100b25780635c60da1b1461012d578063715018a61461015457806379ba50971461015e57600080fd5b8063017e7e58146100d95780631e3dd18b14610109578063574f2ba31461011c575b600080fd5b6002546100ec906001600160a01b031681565b6040516001600160a01b0390911681526020015b60405180910390f35b6100ec610117366004610775565b6101f5565b600454604051908152602001610100565b6100ec7f000000000000000000000000000000000000000000000000000000000000000081565b61015c61021f565b005b61015c610233565b6000546001600160a01b03166100ec565b6100ec6101853660046107aa565b61027c565b6001546001600160a01b03166100ec565b6100ec6101a93660046107aa565b60036020908152600092835260408084209091529082529020546001600160a01b031681565b61015c6101dd3660046107dd565b610589565b61015c6101f03660046107dd565b6105fa565b6004818154811061020557600080fd5b6000918252602090912001546001600160a01b0316905081565b610227610624565b6102316000610651565b565b60015433906001600160a01b031681146102705760405163118cdaa760e01b81526001600160a01b03821660048201526024015b60405180910390fd5b61027981610651565b50565b6000816001600160a01b0316836001600160a01b0316036102df5760405162461bcd60e51b815260206004820152601860248201527f4d6f653a204944454e544943414c5f41444452455353455300000000000000006044820152606401610267565b600080836001600160a01b0316856001600160a01b031610610302578385610305565b84845b90925090506001600160a01b0382166103605760405162461bcd60e51b815260206004820152601160248201527f4d6f653a205a45524f5f414444524553530000000000000000000000000000006044820152606401610267565b6001600160a01b038281166000908152600360209081526040808320858516845290915290205416156103d55760405162461bcd60e51b815260206004820152601060248201527f4d6f653a20504149525f455849535453000000000000000000000000000000006044820152606401610267565b60408051606084811b6bffffffffffffffffffffffff1990811660208085018290529286901b90911660348401819052845160288186030181526048850186526068850192909252607c84015283516070818503018152609090930190935281519101206104647f0000000000000000000000000000000000000000000000000000000000000000838361066a565b9450846001600160a01b0316638129fc1c6040518163ffffffff1660e01b8152600401600060405180830381600087803b1580156104a157600080fd5b505af11580156104b5573d6000803e3d6000fd5b505050506001600160a01b0384811660008181526003602081815260408084208987168086529083528185208054978d166001600160a01b031998891681179091559383528185208686528352818520805488168517905560048054600181018255958190527f8a35acfbc15ff81a39ae7d344fd709f28e8600b4aa8c65c6b64bfe7fe36bd19b9095018054909716841790965592548351928352908201527f0d3648bd0f6ba80134a33ba9275ac585d9d315f0ad8355cddefde31afa28d0e9910160405180910390a35050505092915050565b610591610624565b600180546001600160a01b0383166001600160a01b031990911681179091556105c26000546001600160a01b031690565b6001600160a01b03167f38d16b8cac22d99fc7c124b9cd0de2d3fa1faef420bfe791d8c362d765e2270060405160405180910390a350565b610602610624565b600280546001600160a01b0319166001600160a01b0392909216919091179055565b6000546001600160a01b031633146102315760405163118cdaa760e01b8152336004820152602401610267565b600180546001600160a01b031916905561027981610725565b600060408303516020840351845180602087010180516002830161ffca81111561069c5763c8c781396000526004601cfd5b6c5af43d3d93803e603357fd5bf3895289600d8a03527d6100003d81600a3d39f3363d3d373d3d3d3d610000806035363936013d738160481b176035820160d81b1760218a03528060f01b835287603f8201601f8b036000f59650508561070b5763301164256000526004601cfd5b90528552601f19850152603f199093019290925250919050565b600080546001600160a01b038381166001600160a01b0319831681178455604051919092169283917f8be0079c531659141344cd1fd0a4f28419497f9722a3daafe3b4186f6b6457e09190a35050565b60006020828403121561078757600080fd5b5035919050565b80356001600160a01b03811681146107a557600080fd5b919050565b600080604083850312156107bd57600080fd5b6107c68361078e565b91506107d46020840161078e565b90509250929050565b6000602082840312156107ef57600080fd5b6107f88261078e565b939250505056fea2646970667358221220aceccfbc967f71a770e3640a832949108f99fa7ab2ba79ad9ad13f6a3d4f40ee64736f6c6343000814003360c060405234801561001057600080fd5b50604080518082018252600c81526b26b7b2902628102a37b5b2b760a11b6020918201528151808301835260018152603160f81b9082015281517f8b73c3c69bb8fe3d512ecc4cf759cc79239f7b179b0ffacaa9a75d522b39400f918101919091527fb76c667a40d6c1f54a45cfe635138309ac4736f0c19d2b95c73481b6250bb3e9918101919091527fc89efdaa54c0f20c7adf612882df0950f5a951637e0307cdcb4c672f298b8bc6606082015246608082018190523060a08301529060c00160408051601f19818403018152919052805160209091012060035550336080523060a05260001960095560805160a05161259961012f600039600061034d01526000818161046601528181610ace0152611b9b01526125996000f3fe608060405234801561001057600080fd5b50600436106101cf5760003560e01c80636a62784211610104578063a9059cbb116100a2578063d21220a711610071578063d21220a714610488578063d505accf146104a0578063dd62ed3e146104b3578063fff6cae9146104de57600080fd5b8063a9059cbb14610432578063ba9a7a5614610445578063bc25cf771461044e578063c45a01551461046157600080fd5b80637ecebe00116100de5780637ecebe00146103be5780638129fc1c146103de57806389afcb44146103e657806395d89b411461040e57600080fd5b80636a6278421461038257806370a08231146103955780637464fc3d146103b557600080fd5b806330adf81f116101715780635909c0d51161014b5780635909c0d5146103365780635a3d54931461033f5780635c60da1b1461034857806362c067671461036f57600080fd5b806330adf81f146102ec578063313ce567146103135780633644e5151461032d57600080fd5b8063095ea7b3116101ad578063095ea7b3146102765780630dfe16811461029957806318160ddd146102c257806323b872dd146102d957600080fd5b8063022c0d9f146101d457806306fdde03146101e95780630902f1ac1461023b575b600080fd5b6101e76101e23660046121b0565b6104e6565b005b6102256040518060400160405280600c81526020017f4d6f65204c5020546f6b656e000000000000000000000000000000000000000081525081565b604051610232919061226a565b60405180910390f35b600554604080516001600160701b038084168252600160701b8404166020820152600160e01b90920463ffffffff1690820152606001610232565b61028961028436600461229d565b610a3a565b6040519015158152602001610232565b3660011981013560f01c90033560601c5b6040516001600160a01b039091168152602001610232565b6102cb60005481565b604051908152602001610232565b6102896102e73660046122c9565b610a51565b6102cb7f6e71edae12b1b97f4d1f60370fef10105fa2faae0126114a169c64845d6126c981565b61031b601281565b60405160ff9091168152602001610232565b6102cb60035481565b6102cb60065481565b6102cb60075481565b6102aa7f000000000000000000000000000000000000000000000000000000000000000081565b6101e761037d3660046122c9565b610acc565b6102cb61039036600461230a565b610c56565b6102cb6103a336600461230a565b60016020526000908152604090205481565b6102cb60085481565b6102cb6103cc36600461230a565b60046020526000908152604090205481565b6101e7610f4b565b6103f96103f436600461230a565b610f5f565b60408051928352602083019190915201610232565b6102256040518060400160405280600581526020016404d6f654c560dc1b81525081565b61028961044036600461229d565b6112f2565b6102cb6103e881565b6101e761045c36600461230a565b6112ff565b6102aa7f000000000000000000000000000000000000000000000000000000000000000081565b3660011981013560f01c90036014013560601c6102aa565b6101e76104ae366004612327565b61149e565b6102cb6104c136600461239e565b600260209081526000928352604080842090915290825290205481565b6101e76116bd565b60095460011461052b5760405162461bcd60e51b815260206004820152600b60248201526a135bd94e881313d0d2d15160aa1b60448201526064015b60405180910390fd5b60026009558415158061053e5750600084115b61058a5760405162461bcd60e51b815260206004820152601f60248201527f4d6f653a20494e53554646494349454e545f4f55545055545f414d4f554e54006044820152606401610522565b6000806105bb6005546001600160701b0380821692600160701b83049091169163ffffffff600160e01b9091041690565b5091509150816001600160701b0316871080156105e05750806001600160701b031686105b61062c5760405162461bcd60e51b815260206004820152601b60248201527f4d6f653a20494e53554646494349454e545f4c495155494449545900000000006044820152606401610522565b6000803660011981013560f01c90038035606090811c9160140135901c6001600160a01b03891682148015906106745750806001600160a01b0316896001600160a01b031614155b6106c05760405162461bcd60e51b815260206004820152600f60248201527f4d6f653a20494e56414c49445f544f00000000000000000000000000000000006044820152606401610522565b8a156106da576106da6001600160a01b0383168a8d611818565b89156106f4576106f46001600160a01b0382168a8c611818565b86156107615760405163ba85410f60e01b81526001600160a01b038a169063ba85410f9061072e9033908f908f908e908e906004016123d7565b600060405180830381600087803b15801561074857600080fd5b505af115801561075c573d6000803e3d6000fd5b505050505b6040516370a0823160e01b81523060048201526001600160a01b038316906370a0823190602401602060405180830381865afa1580156107a5573d6000803e3d6000fd5b505050506040513d601f19601f820116820180604052508101906107c99190612424565b6040516370a0823160e01b81523060048201529094506001600160a01b038216906370a0823190602401602060405180830381865afa158015610810573d6000803e3d6000fd5b505050506040513d601f19601f820116820180604052508101906108349190612424565b92505050600089856001600160701b031661084f9190612453565b831161085c576000610879565b61086f8a6001600160701b038716612453565b6108799084612453565b905060006108908a6001600160701b038716612453565b831161089d5760006108ba565b6108b08a6001600160701b038716612453565b6108ba9084612453565b905060008211806108cb5750600081115b6109175760405162461bcd60e51b815260206004820152601e60248201527f4d6f653a20494e53554646494349454e545f494e5055545f414d4f554e5400006044820152606401610522565b6000610924836003612466565b610930866103e8612466565b61093a9190612453565b90506000610949836003612466565b610955866103e8612466565b61095f9190612453565b90506109776001600160701b03808916908a16612466565b61098490620f4240612466565b61098e8284612466565b10156109c55760405162461bcd60e51b81526020600482015260066024820152654d6f653a204b60d01b6044820152606401610522565b50506109d38484888861186a565b60408051838152602081018390529081018c9052606081018b90526001600160a01b038a169033907fd78ad95fa46c994b6551d0da85fc275fe613ce37657fb8d5e3d130840159d8229060800160405180910390a350506001600955505050505050505050565b6000610a47338484611a58565b5060015b92915050565b6001600160a01b038316600090815260026020908152604080832033845290915281205460001914610ab6576001600160a01b038416600090815260026020908152604080832033845290915281208054849290610ab0908490612453565b90915550505b610ac1848484611aba565b5060015b9392505050565b7f00000000000000000000000000000000000000000000000000000000000000006001600160a01b0316638da5cb5b6040518163ffffffff1660e01b8152600401602060405180830381865afa158015610b2a573d6000803e3d6000fd5b505050506040513d601f19601f82011682018060405250810190610b4e919061247d565b6001600160a01b0316336001600160a01b031614610bae5760405162461bcd60e51b815260206004820152600e60248201527f4d6f653a20464f5242494444454e0000000000000000000000000000000000006044820152606401610522565b3660011981013560f01c90033560601c6001600160a01b03841614801590610bf157503660011981013560f01c90036014013560601c6001600160a01b03841614155b610c3d5760405162461bcd60e51b815260206004820152601260248201527f4d6f653a20494e56414c49445f544f4b454e00000000000000000000000000006044820152606401610522565b610c516001600160a01b0384168383611818565b505050565b6000600954600114610c985760405162461bcd60e51b815260206004820152600b60248201526a135bd94e881313d0d2d15160aa1b6044820152606401610522565b600260095560008080610ca9611b5b565b9194509250905060003660011981013560f01c90033560601c6040516370a0823160e01b81523060048201526001600160a01b0391909116906370a0823190602401602060405180830381865afa158015610d08573d6000803e3d6000fd5b505050506040513d601f19601f82011682018060405250810190610d2c9190612424565b905060003660011981013560f01c90036014013560601c6040516370a0823160e01b81523060048201526001600160a01b0391909116906370a0823190602401602060405180830381865afa158015610d89573d6000803e3d6000fd5b505050506040513d601f19601f82011682018060405250810190610dad9190612424565b90506000610dc46001600160701b03861684612453565b90506000610ddb6001600160701b03861684612453565b60008054919250819003610e1c576103e8610dfe610df98486612466565b611d90565b610e089190612453565b9850610e1760006103e8611e78565b610e63565b610e606001600160701b038816610e338386612466565b610e3d91906124b0565b6001600160701b038816610e518486612466565b610e5b91906124b0565b611f01565b98505b60008911610ebe5760405162461bcd60e51b815260206004820152602260248201527f4d6f653a20494e53554646494349454e545f4c49515549444954595f4d494e54604482015261115160f21b6064820152608401610522565b610ec88a8a611e78565b610ed48585898961186a565b8715610efd57600554610ef9906001600160701b03600160701b820481169116612466565b6008555b604080518481526020810184905233917f4c209b5fc8ad50758f13e2e1088ba56a560dff690a1c6fef26394f4c03821c4f910160405180910390a25050600160095550949695505050505050565b60095415610f5857600080fd5b6001600955565b600080600954600114610fa25760405162461bcd60e51b815260206004820152600b60248201526a135bd94e881313d0d2d15160aa1b6044820152606401610522565b600260095560008080610fb3611b5b565b604080516370a0823160e01b8152306004820152905193965091945092503660011981013560f01c90038035606090811c93601490920135901c9160009184916370a082319160248083019260209291908290030181865afa15801561101d573d6000803e3d6000fd5b505050506040513d601f19601f820116820180604052508101906110419190612424565b6040516370a0823160e01b81523060048201529091506000906001600160a01b038416906370a0823190602401602060405180830381865afa15801561108b573d6000803e3d6000fd5b505050506040513d601f19601f820116820180604052508101906110af9190612424565b30600090815260016020526040812054905491925090806110d08584612466565b6110da91906124b0565b9a50806110e78484612466565b6110f191906124b0565b995060008b118015611103575060008a115b61115a5760405162461bcd60e51b815260206004820152602260248201527f4d6f653a20494e53554646494349454e545f4c49515549444954595f4255524e604482015261115160f21b6064820152608401610522565b6111643083611f17565b6111786001600160a01b0387168d8d611818565b61118c6001600160a01b0386168d8c611818565b6040516370a0823160e01b81523060048201526001600160a01b038716906370a0823190602401602060405180830381865afa1580156111d0573d6000803e3d6000fd5b505050506040513d601f19601f820116820180604052508101906111f49190612424565b6040516370a0823160e01b81523060048201529094506001600160a01b038616906370a0823190602401602060405180830381865afa15801561123b573d6000803e3d6000fd5b505050506040513d601f19601f8201168201806040525081019061125f9190612424565b925061126d84848a8a61186a565b881561129657600554611292906001600160701b03600160701b820481169116612466565b6008555b604080518c8152602081018c90526001600160a01b038e169133917fdccd412f0b1252819cb1fd330b93224ca42612892bb3f4f789976e6d81936496910160405180910390a35050505050505050506001600981905550915091565b6000610a47338484611aba565b60095460011461133f5760405162461bcd60e51b815260206004820152600b60248201526a135bd94e881313d0d2d15160aa1b6044820152606401610522565b6002600955600554604080516370a0823160e01b815230600482015290513660011981013560f01c90038035606090811c94601490920135901c926113f69286926001600160701b03169186916370a08231916024808201926020929091908290030181865afa1580156113b7573d6000803e3d6000fd5b505050506040513d601f19601f820116820180604052508101906113db9190612424565b6113e59190612453565b6001600160a01b0385169190611818565b6005546040516370a0823160e01b8152306004820152611494918591600160701b9091046001600160701b0316906001600160a01b038516906370a0823190602401602060405180830381865afa158015611455573d6000803e3d6000fd5b505050506040513d601f19601f820116820180604052508101906114799190612424565b6114839190612453565b6001600160a01b0384169190611818565b5050600160095550565b428410156114ee5760405162461bcd60e51b815260206004820152600c60248201527f4d6f653a204558504952454400000000000000000000000000000000000000006044820152606401610522565b6003546001600160a01b038816600090815260046020526040812080549192917f6e71edae12b1b97f4d1f60370fef10105fa2faae0126114a169c64845d6126c9918b918b918b919087611541836124d2565b909155506040805160208101969096526001600160a01b0394851690860152929091166060840152608083015260a082015260c0810187905260e001604051602081830303815290604052805190602001206040516020016115ba92919061190160f01b81526002810192909252602282015260420190565b60408051601f198184030181528282528051602091820120600080855291840180845281905260ff88169284019290925260608301869052608083018590529092509060019060a0016020604051602081039080840390855afa158015611625573d6000803e3d6000fd5b5050604051601f1901519150506001600160a01b0381161580159061165b5750886001600160a01b0316816001600160a01b0316145b6116a75760405162461bcd60e51b815260206004820152601660248201527f4d6f653a20494e56414c49445f5349474e4154555245000000000000000000006044820152606401610522565b6116b2898989611a58565b505050505050505050565b6009546001146116fd5760405162461bcd60e51b815260206004820152600b60248201526a135bd94e881313d0d2d15160aa1b6044820152606401610522565b6002600955610f583660011981013560f01c90033560601c6040516370a0823160e01b81523060048201526001600160a01b0391909116906370a0823190602401602060405180830381865afa15801561175b573d6000803e3d6000fd5b505050506040513d601f19601f8201168201806040525081019061177f9190612424565b3660011981013560f01c90036014013560601c6040516370a0823160e01b81523060048201526001600160a01b0391909116906370a0823190602401602060405180830381865afa1580156117d8573d6000803e3d6000fd5b505050506040513d601f19601f820116820180604052508101906117fc9190612424565b6005546001600160701b0380821691600160701b90041661186a565b604080516001600160a01b038416602482015260448082018490528251808303909101815260649091019091526020810180516001600160e01b031663a9059cbb60e01b179052610c51908490611f9a565b6001600160701b03841180159061188857506001600160701b038311155b6118d45760405162461bcd60e51b815260206004820152600d60248201527f4d6f653a204f564552464c4f57000000000000000000000000000000000000006044820152606401610522565b600554429063ffffffff600160e01b909104811682039081161580159061190357506001600160701b03841615155b801561191757506001600160701b03831615155b156119a8578063ffffffff16846001600160701b03166070856001600160701b0316901b816119485761194861249a565b60068054929091049290920201905563ffffffff81166001600160701b0384167bffffffffffffffffffffffffffff0000000000000000000000000000607087901b16816119985761199861249a565b6007805492909104929092020190555b506005805463ffffffff8316600160e01b026001600160e01b036001600160701b03888116600160701b9081027fffffffff000000000000000000000000000000000000000000000000000000009095168b83161794909417918216831794859055604080519382169282169290921783529290930490911660208201527f1c411e9a96e071241c2f21f7726b17ae89e3cab4c78be50e062b03a9fffbbad1910160405180910390a15050505050565b6001600160a01b0383811660008181526002602090815260408083209487168084529482529182902085905590518481527f8c5be1e5ebec7d5bd14f71427d1e84f3dd0314c0f7b2291e5b200ac8c7c3b92591015b60405180910390a3505050565b6001600160a01b03831660009081526001602052604081208054839290611ae2908490612453565b90915550506001600160a01b03821660009081526001602052604081208054839290611b0f9084906124eb565b92505081905550816001600160a01b0316836001600160a01b03167fddf252ad1be2c89b69c2b068fc378daa952ba7f163c4a11628f55a4df523b3ef83604051611aad91815260200190565b6000806000611b8e6005546001600160701b0380821692600160701b83049091169163ffffffff600160e01b9091041690565b50809250819350505060007f00000000000000000000000000000000000000000000000000000000000000006001600160a01b031663017e7e586040518163ffffffff1660e01b8152600401602060405180830381865afa158015611bf7573d6000803e3d6000fd5b505050506040513d601f19601f82011682018060405250810190611c1b919061247d565b6008546001600160a01b038216158015965091925090611d7d578015611d78576000611c56610df96001600160701b03808716908816612466565b90506000611c6383611d90565b905080821115611d75576000805490611c7c8385612453565b611c869083612466565b9050600083611c96866005612466565b611ca091906124eb565b90506000611cae82846124b0565b90508015611d7057611cc081856124eb565b9350600084611cd8836001600160701b038e16612466565b611ce291906124b0565b9050600085611cfa846001600160701b038e16612466565b611d0491906124b0565b90508115611d3e57611d16828d6124fe565b9b50611d3e8a833660011981013560f01c90033560601c5b6001600160a01b03169190611818565b8015611d6d57611d4e818c6124fe565b9a50611d6d8a823660011981013560f01c90036014013560601c611d2e565b50505b505050505b50505b611d89565b8015611d895760006008555b5050909192565b600081600003611da257506000919050565b60006001611daf84611ffd565b901c6001901b90506001818481611dc857611dc861249a565b048201901c90506001818481611de057611de061249a565b048201901c90506001818481611df857611df861249a565b048201901c90506001818481611e1057611e1061249a565b048201901c90506001818481611e2857611e2861249a565b048201901c90506001818481611e4057611e4061249a565b048201901c90506001818481611e5857611e5861249a565b048201901c9050610ac581828581611e7257611e7261249a565b04611f01565b80600080828254611e8991906124eb565b90915550506001600160a01b03821660009081526001602052604081208054839290611eb69084906124eb565b90915550506040518181526001600160a01b038316906000907fddf252ad1be2c89b69c2b068fc378daa952ba7f163c4a11628f55a4df523b3ef906020015b60405180910390a35050565b6000818310611f105781610ac5565b5090919050565b6001600160a01b03821660009081526001602052604081208054839290611f3f908490612453565b9250508190555080600080828254611f579190612453565b90915550506040518181526000906001600160a01b038416907fddf252ad1be2c89b69c2b068fc378daa952ba7f163c4a11628f55a4df523b3ef90602001611ef5565b6000611faf6001600160a01b03841683612091565b90508051600014158015611fd4575080806020019051810190611fd29190612525565b155b15610c5157604051635274afe760e01b81526001600160a01b0384166004820152602401610522565b600080608083901c1561201257608092831c92015b604083901c1561202457604092831c92015b602083901c1561203657602092831c92015b601083901c1561204857601092831c92015b600883901c1561205a57600892831c92015b600483901c1561206c57600492831c92015b600283901c1561207e57600292831c92015b600183901c15610a4b5760010192915050565b6060610ac58383600084600080856001600160a01b031684866040516120b79190612547565b60006040518083038185875af1925050503d80600081146120f4576040519150601f19603f3d011682016040523d82523d6000602084013e6120f9565b606091505b5091509150612109868383612113565b9695505050505050565b606082612128576121238261216f565b610ac5565b815115801561213f57506001600160a01b0384163b155b1561216857604051639996b31560e01b81526001600160a01b0385166004820152602401610522565b5080610ac5565b80511561217f5780518082602001fd5b604051630a12f52160e11b815260040160405180910390fd5b50565b6001600160a01b038116811461219857600080fd5b6000806000806000608086880312156121c857600080fd5b853594506020860135935060408601356121e18161219b565b9250606086013567ffffffffffffffff808211156121fe57600080fd5b818801915088601f83011261221257600080fd5b81358181111561222157600080fd5b89602082850101111561223357600080fd5b9699959850939650602001949392505050565b60005b83811015612261578181015183820152602001612249565b50506000910152565b6020815260008251806020840152612289816040850160208701612246565b601f01601f19169190910160400192915050565b600080604083850312156122b057600080fd5b82356122bb8161219b565b946020939093013593505050565b6000806000606084860312156122de57600080fd5b83356122e98161219b565b925060208401356122f98161219b565b929592945050506040919091013590565b60006020828403121561231c57600080fd5b8135610ac58161219b565b600080600080600080600060e0888a03121561234257600080fd5b873561234d8161219b565b9650602088013561235d8161219b565b95506040880135945060608801359350608088013560ff8116811461238157600080fd5b9699959850939692959460a0840135945060c09093013592915050565b600080604083850312156123b157600080fd5b82356123bc8161219b565b915060208301356123cc8161219b565b809150509250929050565b6001600160a01b038616815284602082015283604082015260806060820152816080820152818360a0830137600081830160a090810191909152601f909201601f19160101949350505050565b60006020828403121561243657600080fd5b5051919050565b634e487b7160e01b600052601160045260246000fd5b81810381811115610a4b57610a4b61243d565b8082028115828204841417610a4b57610a4b61243d565b60006020828403121561248f57600080fd5b8151610ac58161219b565b634e487b7160e01b600052601260045260246000fd5b6000826124cd57634e487b7160e01b600052601260045260246000fd5b500490565b6000600182016124e4576124e461243d565b5060010190565b80820180821115610a4b57610a4b61243d565b6001600160701b0382811682821603908082111561251e5761251e61243d565b5092915050565b60006020828403121561253757600080fd5b81518015158114610ac557600080fd5b60008251612559818460208701612246565b919091019291505056fea2646970667358221220bdd2f4d422fba2d6e1cae51d4fb55591584522acbde2a020844070f2c1caa21364736f6c63430008140033",
    "linkReferences": {}
  },
  "methodIdentifiers": {
    "acceptOwnership()": "79ba5097",
    "allPairs(uint256)": "1e3dd18b",
    "allPairsLength()": "574f2ba3",
    "createPair(address,address)": "c9c65396",
    "feeTo()": "017e7e58",
    "getPair(address,address)": "e6a43905",
    "implementation()": "5c60da1b",
    "owner()": "8da5cb5b",
    "pendingOwner()": "e30c3978",
    "renounceOwnership()": "715018a6",
    "setFeeTo(address)": "f46901ed",
    "transferOwnership(address)": "f2fde38b"
  },
  "id": 67
}