{"abi":[{"type":"constructor","inputs":[{"name":"initialFeeTo","type":"address","internalType":"address"},{"name":"initialOwner","type":"address","internalType":"address"},{"name":"moePairImplementation_","type":"address","internalType":"address"}],"stateMutability":"nonpayable"},{"type":"function","name":"acceptOwnership","inputs":[],"outputs":[],"stateMutability":"nonpayable"},{"type":"function","name":"allPairs","inputs":[{"name":"","type":"uint256","internalType":"uint256"}],"outputs":[{"name":"","type":"address","internalType":"address"}],"stateMutability":"view"},{"type":"function","name":"allPairsLength","inputs":[],"outputs":[{"name":"","type":"uint256","internalType":"uint256"}],"stateMutability":"view"},{"type":"function","name":"createPair","inputs":[{"name":"tokenA","type":"address","internalType":"address"},{"name":"tokenB","type":"address","internalType":"address"}],"outputs":[{"name":"pair","type":"address","internalType":"address"}],"stateMutability":"nonpayable"},{"type":"function","name":"feeTo","inputs":[],"outputs":[{"name":"","type":"address","internalType":"address"}],"stateMutability":"view"},{"type":"function","name":"getPair","inputs":[{"name":"","type":"address","internalType":"address"},{"name":"","type":"address","internalType":"address"}],"outputs":[{"name":"","type":"address","internalType":"address"}],"stateMutability":"view"},{"type":"function","name":"moePairImplementation","inputs":[],"outputs":[{"name":"","type":"address","internalType":"address"}],"stateMutability":"view"},{"type":"function","name":"owner","inputs":[],"outputs":[{"name":"","type":"address","internalType":"address"}],"stateMutability":"view"},{"type":"function","name":"pendingOwner","inputs":[],"outputs":[{"name":"","type":"address","internalType":"address"}],"stateMutability":"view"},{"type":"function","name":"renounceOwnership","inputs":[],"outputs":[],"stateMutability":"nonpayable"},{"type":"function","name":"setFeeTo","inputs":[{"name":"_feeTo","type":"address","internalType":"address"}],"outputs":[],"stateMutability":"nonpayable"},{"type":"function","name":"transferOwnership","inputs":[{"name":"newOwner","type":"address","internalType":"address"}],"outputs":[],"stateMutability":"nonpayable"},{"type":"event","name":"FeeToSet","inputs":[{"name":"feeTo","type":"address","indexed":true,"internalType":"address"}],"anonymous":false},{"type":"event","name":"OwnershipTransferStarted","inputs":[{"name":"previousOwner","type":"address","indexed":true,"internalType":"address"},{"name":"newOwner","type":"address","indexed":true,"internalType":"address"}],"anonymous":false},{"type":"event","name":"OwnershipTransferred","inputs":[{"name":"previousOwner","type":"address","indexed":true,"internalType":"address"},{"name":"newOwner","type":"address","indexed":true,"internalType":"address"}],"anonymous":false},{"type":"event","name":"PairCreated","inputs":[{"name":"token0","type":"address","indexed":true,"internalType":"address"},{"name":"token1","type":"address","indexed":true,"internalType":"address"},{"name":"pair","type":"address","indexed":false,"internalType":"address"},{"name":"","type":"uint256","indexed":false,"internalType":"uint256"}],"anonymous":false},{"type":"error","name":"OwnableInvalidOwner","inputs":[{"name":"owner","type":"address","internalType":"address"}]},{"type":"error","name":"OwnableUnauthorizedAccount","inputs":[{"name":"account","type":"address","internalType":"address"}]}],"bytecode":{"object":"0x60a060405234801561001057600080fd5b506040516109df3803806109df83398101604081905261002f9161011d565b816001600160a01b03811661005e57604051631e4fbdf760e01b81526000600482015260240160405180910390fd5b61006781610095565b506001600160a01b03908116608052600280546001600160a01b031916939091169290921790915550610160565b600180546001600160a01b03191690556100ae816100b1565b50565b600080546001600160a01b038381166001600160a01b0319831681178455604051919092169283917f8be0079c531659141344cd1fd0a4f28419497f9722a3daafe3b4186f6b6457e09190a35050565b80516001600160a01b038116811461011857600080fd5b919050565b60008060006060848603121561013257600080fd5b61013b84610101565b925061014960208501610101565b915061015760408501610101565b90509250925092565b60805161085d6101826000396000818161013c015261043e015261085d6000f3fe608060405234801561001057600080fd5b50600436106100d45760003560e01c80638da5cb5b11610081578063e6a439051161005b578063e6a439051461019b578063f2fde38b146101cf578063f46901ed146101e257600080fd5b80638da5cb5b14610166578063c9c6539614610177578063e30c39781461018a57600080fd5b8063715018a6116100b2578063715018a61461012d57806373f9936d1461013757806379ba50971461015e57600080fd5b8063017e7e58146100d95780631e3dd18b14610109578063574f2ba31461011c575b600080fd5b6002546100ec906001600160a01b031681565b6040516001600160a01b0390911681526020015b60405180910390f35b6100ec61011736600461079d565b6101f5565b600454604051908152602001610100565b61013561021f565b005b6100ec7f000000000000000000000000000000000000000000000000000000000000000081565b610135610233565b6000546001600160a01b03166100ec565b6100ec6101853660046107d2565b61027c565b6001546001600160a01b03166100ec565b6100ec6101a93660046107d2565b60036020908152600092835260408084209091529082529020546001600160a01b031681565b6101356101dd366004610805565b610589565b6101356101f0366004610805565b6105fa565b6004818154811061020557600080fd5b6000918252602090912001546001600160a01b0316905081565b61022761064c565b6102316000610679565b565b60015433906001600160a01b031681146102705760405163118cdaa760e01b81526001600160a01b03821660048201526024015b60405180910390fd5b61027981610679565b50565b6000816001600160a01b0316836001600160a01b0316036102df5760405162461bcd60e51b815260206004820152601860248201527f4d6f653a204944454e544943414c5f41444452455353455300000000000000006044820152606401610267565b600080836001600160a01b0316856001600160a01b031610610302578385610305565b84845b90925090506001600160a01b0382166103605760405162461bcd60e51b815260206004820152601160248201527f4d6f653a205a45524f5f414444524553530000000000000000000000000000006044820152606401610267565b6001600160a01b038281166000908152600360209081526040808320858516845290915290205416156103d55760405162461bcd60e51b815260206004820152601060248201527f4d6f653a20504149525f455849535453000000000000000000000000000000006044820152606401610267565b60408051606084811b6bffffffffffffffffffffffff1990811660208085018290529286901b90911660348401819052845160288186030181526048850186526068850192909252607c84015283516070818503018152609090930190935281519101206104647f00000000000000000000000000000000000000000000000000000000000000008383610692565b9450846001600160a01b0316638129fc1c6040518163ffffffff1660e01b8152600401600060405180830381600087803b1580156104a157600080fd5b505af11580156104b5573d6000803e3d6000fd5b505050506001600160a01b0384811660008181526003602081815260408084208987168086529083528185208054978d166001600160a01b031998891681179091559383528185208686528352818520805488168517905560048054600181018255958190527f8a35acfbc15ff81a39ae7d344fd709f28e8600b4aa8c65c6b64bfe7fe36bd19b9095018054909716841790965592548351928352908201527f0d3648bd0f6ba80134a33ba9275ac585d9d315f0ad8355cddefde31afa28d0e9910160405180910390a35050505092915050565b61059161064c565b600180546001600160a01b0383166001600160a01b031990911681179091556105c26000546001600160a01b031690565b6001600160a01b03167f38d16b8cac22d99fc7c124b9cd0de2d3fa1faef420bfe791d8c362d765e2270060405160405180910390a350565b61060261064c565b600280546001600160a01b0319166001600160a01b0383169081179091556040517fe7ba424f407983edfb652af33e51f926d1d41a22bb4850c65eb21c02e378957c90600090a250565b6000546001600160a01b031633146102315760405163118cdaa760e01b8152336004820152602401610267565b600180546001600160a01b03191690556102798161074d565b600060408303516020840351845180602087010180516002830161ffca8111156106c45763c8c781396000526004601cfd5b6c5af43d3d93803e603357fd5bf3895289600d8a03527d6100003d81600a3d39f3363d3d373d3d3d3d610000806035363936013d738160481b176035820160d81b1760218a03528060f01b835287603f8201601f8b036000f5965050856107335763301164256000526004601cfd5b90528552601f19850152603f199093019290925250919050565b600080546001600160a01b038381166001600160a01b0319831681178455604051919092169283917f8be0079c531659141344cd1fd0a4f28419497f9722a3daafe3b4186f6b6457e09190a35050565b6000602082840312156107af57600080fd5b5035919050565b80356001600160a01b03811681146107cd57600080fd5b919050565b600080604083850312156107e557600080fd5b6107ee836107b6565b91506107fc602084016107b6565b90509250929050565b60006020828403121561081757600080fd5b610820826107b6565b939250505056fea2646970667358221220cd84e81423f6497212078067421e430248637a30ff735c8e58624791e80873b164736f6c63430008140033","linkReferences":{}},"methodIdentifiers":{"acceptOwnership()":"79ba5097","allPairs(uint256)":"1e3dd18b","allPairsLength()":"574f2ba3","createPair(address,address)":"c9c65396","feeTo()":"017e7e58","getPair(address,address)":"e6a43905","moePairImplementation()":"73f9936d","owner()":"8da5cb5b","pendingOwner()":"e30c3978","renounceOwnership()":"715018a6","setFeeTo(address)":"f46901ed","transferOwnership(address)":"f2fde38b"},"id":71}