{"abi":[{"type":"constructor","inputs":[{"name":"initialFeeTo","type":"address","internalType":"address"},{"name":"initialOwner","type":"address","internalType":"address"}],"stateMutability":"nonpayable"},{"type":"function","name":"acceptOwnership","inputs":[],"outputs":[],"stateMutability":"nonpayable"},{"type":"function","name":"allPairs","inputs":[{"name":"","type":"uint256","internalType":"uint256"}],"outputs":[{"name":"","type":"address","internalType":"address"}],"stateMutability":"view"},{"type":"function","name":"allPairsLength","inputs":[],"outputs":[{"name":"","type":"uint256","internalType":"uint256"}],"stateMutability":"view"},{"type":"function","name":"createPair","inputs":[{"name":"tokenA","type":"address","internalType":"address"},{"name":"tokenB","type":"address","internalType":"address"}],"outputs":[{"name":"pair","type":"address","internalType":"address"}],"stateMutability":"nonpayable"},{"type":"function","name":"feeTo","inputs":[],"outputs":[{"name":"","type":"address","internalType":"address"}],"stateMutability":"view"},{"type":"function","name":"getPair","inputs":[{"name":"","type":"address","internalType":"address"},{"name":"","type":"address","internalType":"address"}],"outputs":[{"name":"","type":"address","internalType":"address"}],"stateMutability":"view"},{"type":"function","name":"implementation","inputs":[],"outputs":[{"name":"","type":"address","internalType":"address"}],"stateMutability":"view"},{"type":"function","name":"owner","inputs":[],"outputs":[{"name":"","type":"address","internalType":"address"}],"stateMutability":"view"},{"type":"function","name":"pendingOwner","inputs":[],"outputs":[{"name":"","type":"address","internalType":"address"}],"stateMutability":"view"},{"type":"function","name":"renounceOwnership","inputs":[],"outputs":[],"stateMutability":"nonpayable"},{"type":"function","name":"setFeeTo","inputs":[{"name":"_feeTo","type":"address","internalType":"address"}],"outputs":[],"stateMutability":"nonpayable"},{"type":"function","name":"transferOwnership","inputs":[{"name":"newOwner","type":"address","internalType":"address"}],"outputs":[],"stateMutability":"nonpayable"},{"type":"event","name":"FeeToSet","inputs":[{"name":"feeTo","type":"address","indexed":true,"internalType":"address"}],"anonymous":false},{"type":"event","name":"OwnershipTransferStarted","inputs":[{"name":"previousOwner","type":"address","indexed":true,"internalType":"address"},{"name":"newOwner","type":"address","indexed":true,"internalType":"address"}],"anonymous":false},{"type":"event","name":"OwnershipTransferred","inputs":[{"name":"previousOwner","type":"address","indexed":true,"internalType":"address"},{"name":"newOwner","type":"address","indexed":true,"internalType":"address"}],"anonymous":false},{"type":"event","name":"PairCreated","inputs":[{"name":"token0","type":"address","indexed":true,"internalType":"address"},{"name":"token1","type":"address","indexed":true,"internalType":"address"},{"name":"pair","type":"address","indexed":false,"internalType":"address"},{"name":"","type":"uint256","indexed":false,"internalType":"uint256"}],"anonymous":false},{"type":"error","name":"OwnableInvalidOwner","inputs":[{"name":"owner","type":"address","internalType":"address"}]},{"type":"error","name":"OwnableUnauthorizedAccount","inputs":[{"name":"account","type":"address","internalType":"address"}]}],"bytecode":{"object":"0x60a060405234801561001057600080fd5b506040516130ab3803806130ab83398101604081905261002f91610153565b806001600160a01b03811661005e57604051631e4fbdf760e01b81526000600482015260240160405180910390fd5b610067816100be565b506040516100749061012a565b604051809103906000f080158015610090573d6000803e3d6000fd5b506001600160a01b03908116608052600280546001600160a01b031916939091169290921790915550610186565b600180546001600160a01b03191690556100d7816100da565b50565b600080546001600160a01b038381166001600160a01b0319831681178455604051919092169283917f8be0079c531659141344cd1fd0a4f28419497f9722a3daafe3b4186f6b6457e09190a35050565b6126a680610a0583390190565b80516001600160a01b038116811461014e57600080fd5b919050565b6000806040838503121561016657600080fd5b61016f83610137565b915061017d60208401610137565b90509250929050565b60805161085d6101a860003960008181610132015261043e015261085d6000f3fe608060405234801561001057600080fd5b50600436106100d45760003560e01c80638da5cb5b11610081578063e6a439051161005b578063e6a439051461019b578063f2fde38b146101cf578063f46901ed146101e257600080fd5b80638da5cb5b14610166578063c9c6539614610177578063e30c39781461018a57600080fd5b80635c60da1b116100b25780635c60da1b1461012d578063715018a61461015457806379ba50971461015e57600080fd5b8063017e7e58146100d95780631e3dd18b14610109578063574f2ba31461011c575b600080fd5b6002546100ec906001600160a01b031681565b6040516001600160a01b0390911681526020015b60405180910390f35b6100ec61011736600461079d565b6101f5565b600454604051908152602001610100565b6100ec7f000000000000000000000000000000000000000000000000000000000000000081565b61015c61021f565b005b61015c610233565b6000546001600160a01b03166100ec565b6100ec6101853660046107d2565b61027c565b6001546001600160a01b03166100ec565b6100ec6101a93660046107d2565b60036020908152600092835260408084209091529082529020546001600160a01b031681565b61015c6101dd366004610805565b610589565b61015c6101f0366004610805565b6105fa565b6004818154811061020557600080fd5b6000918252602090912001546001600160a01b0316905081565b61022761064c565b6102316000610679565b565b60015433906001600160a01b031681146102705760405163118cdaa760e01b81526001600160a01b03821660048201526024015b60405180910390fd5b61027981610679565b50565b6000816001600160a01b0316836001600160a01b0316036102df5760405162461bcd60e51b815260206004820152601860248201527f4d6f653a204944454e544943414c5f41444452455353455300000000000000006044820152606401610267565b600080836001600160a01b0316856001600160a01b031610610302578385610305565b84845b90925090506001600160a01b0382166103605760405162461bcd60e51b815260206004820152601160248201527f4d6f653a205a45524f5f414444524553530000000000000000000000000000006044820152606401610267565b6001600160a01b038281166000908152600360209081526040808320858516845290915290205416156103d55760405162461bcd60e51b815260206004820152601060248201527f4d6f653a20504149525f455849535453000000000000000000000000000000006044820152606401610267565b60408051606084811b6bffffffffffffffffffffffff1990811660208085018290529286901b90911660348401819052845160288186030181526048850186526068850192909252607c84015283516070818503018152609090930190935281519101206104647f00000000000000000000000000000000000000000000000000000000000000008383610692565b9450846001600160a01b0316638129fc1c6040518163ffffffff1660e01b8152600401600060405180830381600087803b1580156104a157600080fd5b505af11580156104b5573d6000803e3d6000fd5b505050506001600160a01b0384811660008181526003602081815260408084208987168086529083528185208054978d166001600160a01b031998891681179091559383528185208686528352818520805488168517905560048054600181018255958190527f8a35acfbc15ff81a39ae7d344fd709f28e8600b4aa8c65c6b64bfe7fe36bd19b9095018054909716841790965592548351928352908201527f0d3648bd0f6ba80134a33ba9275ac585d9d315f0ad8355cddefde31afa28d0e9910160405180910390a35050505092915050565b61059161064c565b600180546001600160a01b0383166001600160a01b031990911681179091556105c26000546001600160a01b031690565b6001600160a01b03167f38d16b8cac22d99fc7c124b9cd0de2d3fa1faef420bfe791d8c362d765e2270060405160405180910390a350565b61060261064c565b600280546001600160a01b0319166001600160a01b0383169081179091556040517fe7ba424f407983edfb652af33e51f926d1d41a22bb4850c65eb21c02e378957c90600090a250565b6000546001600160a01b031633146102315760405163118cdaa760e01b8152336004820152602401610267565b600180546001600160a01b03191690556102798161074d565b600060408303516020840351845180602087010180516002830161ffca8111156106c45763c8c781396000526004601cfd5b6c5af43d3d93803e603357fd5bf3895289600d8a03527d6100003d81600a3d39f3363d3d373d3d3d3d610000806035363936013d738160481b176035820160d81b1760218a03528060f01b835287603f8201601f8b036000f5965050856107335763301164256000526004601cfd5b90528552601f19850152603f199093019290925250919050565b600080546001600160a01b038381166001600160a01b0319831681178455604051919092169283917f8be0079c531659141344cd1fd0a4f28419497f9722a3daafe3b4186f6b6457e09190a35050565b6000602082840312156107af57600080fd5b5035919050565b80356001600160a01b03811681146107cd57600080fd5b919050565b600080604083850312156107e557600080fd5b6107ee836107b6565b91506107fc602084016107b6565b90509250929050565b60006020828403121561081757600080fd5b610820826107b6565b939250505056fea26469706673582212200967594e436ec835a76dab93e9c206fc9db7c631ff33a182d722e5e9b2134ef864736f6c6343000814003360c060405234801561001057600080fd5b50604080518082018252600c81526b26b7b2902628102a37b5b2b760a11b6020918201528151808301835260018152603160f81b9082015281517f8b73c3c69bb8fe3d512ecc4cf759cc79239f7b179b0ffacaa9a75d522b39400f918101919091527fb76c667a40d6c1f54a45cfe635138309ac4736f0c19d2b95c73481b6250bb3e9918101919091527fc89efdaa54c0f20c7adf612882df0950f5a951637e0307cdcb4c672f298b8bc6606082015246608082018190523060a08301529060c00160408051601f19818403018152919052805160209091012060035550336080523060a05260001960095560805160a05161257761012f600039600061034d01526000818161046601528181610aac0152611b7901526125776000f3fe608060405234801561001057600080fd5b50600436106101cf5760003560e01c80636a62784211610104578063a9059cbb116100a2578063d21220a711610071578063d21220a714610488578063d505accf146104a0578063dd62ed3e146104b3578063fff6cae9146104de57600080fd5b8063a9059cbb14610432578063ba9a7a5614610445578063bc25cf771461044e578063c45a01551461046157600080fd5b80637ecebe00116100de5780637ecebe00146103be5780638129fc1c146103de57806389afcb44146103e657806395d89b411461040e57600080fd5b80636a6278421461038257806370a08231146103955780637464fc3d146103b557600080fd5b806330adf81f116101715780635909c0d51161014b5780635909c0d5146103365780635a3d54931461033f5780635c60da1b1461034857806362c067671461036f57600080fd5b806330adf81f146102ec578063313ce567146103135780633644e5151461032d57600080fd5b8063095ea7b3116101ad578063095ea7b3146102765780630dfe16811461029957806318160ddd146102c257806323b872dd146102d957600080fd5b8063022c0d9f146101d457806306fdde03146101e95780630902f1ac1461023b575b600080fd5b6101e76101e236600461218e565b6104e6565b005b6102256040518060400160405280600c81526020017f4d6f65204c5020546f6b656e000000000000000000000000000000000000000081525081565b6040516102329190612248565b60405180910390f35b600554604080516001600160701b038084168252600160701b8404166020820152600160e01b90920463ffffffff1690820152606001610232565b61028961028436600461227b565b610a3a565b6040519015158152602001610232565b3660011981013560f01c90033560601c5b6040516001600160a01b039091168152602001610232565b6102cb60005481565b604051908152602001610232565b6102896102e73660046122a7565b610a51565b6102cb7f6e71edae12b1b97f4d1f60370fef10105fa2faae0126114a169c64845d6126c981565b61031b601281565b60405160ff9091168152602001610232565b6102cb60035481565b6102cb60065481565b6102cb60075481565b6102aa7f000000000000000000000000000000000000000000000000000000000000000081565b6101e761037d3660046122a7565b610aaa565b6102cb6103903660046122e8565b610c34565b6102cb6103a33660046122e8565b60016020526000908152604090205481565b6102cb60085481565b6102cb6103cc3660046122e8565b60046020526000908152604090205481565b6101e7610f29565b6103f96103f43660046122e8565b610f3d565b60408051928352602083019190915201610232565b6102256040518060400160405280600581526020016404d6f654c560dc1b81525081565b61028961044036600461227b565b6112d0565b6102cb6103e881565b6101e761045c3660046122e8565b6112dd565b6102aa7f000000000000000000000000000000000000000000000000000000000000000081565b3660011981013560f01c90036014013560601c6102aa565b6101e76104ae366004612305565b61147c565b6102cb6104c136600461237c565b600260209081526000928352604080842090915290825290205481565b6101e761169b565b60095460011461052b5760405162461bcd60e51b815260206004820152600b60248201526a135bd94e881313d0d2d15160aa1b60448201526064015b60405180910390fd5b60026009558415158061053e5750600084115b61058a5760405162461bcd60e51b815260206004820152601f60248201527f4d6f653a20494e53554646494349454e545f4f55545055545f414d4f554e54006044820152606401610522565b6000806105bb6005546001600160701b0380821692600160701b83049091169163ffffffff600160e01b9091041690565b5091509150816001600160701b0316871080156105e05750806001600160701b031686105b61062c5760405162461bcd60e51b815260206004820152601b60248201527f4d6f653a20494e53554646494349454e545f4c495155494449545900000000006044820152606401610522565b6000803660011981013560f01c90038035606090811c9160140135901c6001600160a01b03891682148015906106745750806001600160a01b0316896001600160a01b031614155b6106c05760405162461bcd60e51b815260206004820152600f60248201527f4d6f653a20494e56414c49445f544f00000000000000000000000000000000006044820152606401610522565b8a156106da576106da6001600160a01b0383168a8d6117f6565b89156106f4576106f46001600160a01b0382168a8c6117f6565b86156107615760405163ba85410f60e01b81526001600160a01b038a169063ba85410f9061072e9033908f908f908e908e906004016123b5565b600060405180830381600087803b15801561074857600080fd5b505af115801561075c573d6000803e3d6000fd5b505050505b6040516370a0823160e01b81523060048201526001600160a01b038316906370a0823190602401602060405180830381865afa1580156107a5573d6000803e3d6000fd5b505050506040513d601f19601f820116820180604052508101906107c99190612402565b6040516370a0823160e01b81523060048201529094506001600160a01b038216906370a0823190602401602060405180830381865afa158015610810573d6000803e3d6000fd5b505050506040513d601f19601f820116820180604052508101906108349190612402565b92505050600089856001600160701b031661084f9190612431565b831161085c576000610879565b61086f8a6001600160701b038716612431565b6108799084612431565b905060006108908a6001600160701b038716612431565b831161089d5760006108ba565b6108b08a6001600160701b038716612431565b6108ba9084612431565b905060008211806108cb5750600081115b6109175760405162461bcd60e51b815260206004820152601e60248201527f4d6f653a20494e53554646494349454e545f494e5055545f414d4f554e5400006044820152606401610522565b6000610924836003612444565b610930866103e8612444565b61093a9190612431565b90506000610949836003612444565b610955866103e8612444565b61095f9190612431565b90506109776001600160701b03808916908a16612444565b61098490620f4240612444565b61098e8284612444565b10156109c55760405162461bcd60e51b81526020600482015260066024820152654d6f653a204b60d01b6044820152606401610522565b50506109d384848888611848565b60408051838152602081018390529081018c9052606081018b90526001600160a01b038a169033907fd78ad95fa46c994b6551d0da85fc275fe613ce37657fb8d5e3d130840159d8229060800160405180910390a350506001600955505050505050505050565b6000610a47338484611a36565b5060015b92915050565b6001600160a01b03831660009081526002602090815260408083203384529091528120546000198114610a9257610a928533610a8d8685612431565b611a36565b610a9d858585611a98565b60019150505b9392505050565b7f00000000000000000000000000000000000000000000000000000000000000006001600160a01b0316638da5cb5b6040518163ffffffff1660e01b8152600401602060405180830381865afa158015610b08573d6000803e3d6000fd5b505050506040513d601f19601f82011682018060405250810190610b2c919061245b565b6001600160a01b0316336001600160a01b031614610b8c5760405162461bcd60e51b815260206004820152600e60248201527f4d6f653a20464f5242494444454e0000000000000000000000000000000000006044820152606401610522565b3660011981013560f01c90033560601c6001600160a01b03841614801590610bcf57503660011981013560f01c90036014013560601c6001600160a01b03841614155b610c1b5760405162461bcd60e51b815260206004820152601260248201527f4d6f653a20494e56414c49445f544f4b454e00000000000000000000000000006044820152606401610522565b610c2f6001600160a01b03841683836117f6565b505050565b6000600954600114610c765760405162461bcd60e51b815260206004820152600b60248201526a135bd94e881313d0d2d15160aa1b6044820152606401610522565b600260095560008080610c87611b39565b9194509250905060003660011981013560f01c90033560601c6040516370a0823160e01b81523060048201526001600160a01b0391909116906370a0823190602401602060405180830381865afa158015610ce6573d6000803e3d6000fd5b505050506040513d601f19601f82011682018060405250810190610d0a9190612402565b905060003660011981013560f01c90036014013560601c6040516370a0823160e01b81523060048201526001600160a01b0391909116906370a0823190602401602060405180830381865afa158015610d67573d6000803e3d6000fd5b505050506040513d601f19601f82011682018060405250810190610d8b9190612402565b90506000610da26001600160701b03861684612431565b90506000610db96001600160701b03861684612431565b60008054919250819003610dfa576103e8610ddc610dd78486612444565b611d6e565b610de69190612431565b9850610df560006103e8611e56565b610e41565b610e3e6001600160701b038816610e118386612444565b610e1b919061248e565b6001600160701b038816610e2f8486612444565b610e39919061248e565b611edf565b98505b60008911610e9c5760405162461bcd60e51b815260206004820152602260248201527f4d6f653a20494e53554646494349454e545f4c49515549444954595f4d494e54604482015261115160f21b6064820152608401610522565b610ea68a8a611e56565b610eb285858989611848565b8715610edb57600554610ed7906001600160701b03600160701b820481169116612444565b6008555b604080518481526020810184905233917f4c209b5fc8ad50758f13e2e1088ba56a560dff690a1c6fef26394f4c03821c4f910160405180910390a25050600160095550949695505050505050565b60095415610f3657600080fd5b6001600955565b600080600954600114610f805760405162461bcd60e51b815260206004820152600b60248201526a135bd94e881313d0d2d15160aa1b6044820152606401610522565b600260095560008080610f91611b39565b604080516370a0823160e01b8152306004820152905193965091945092503660011981013560f01c90038035606090811c93601490920135901c9160009184916370a082319160248083019260209291908290030181865afa158015610ffb573d6000803e3d6000fd5b505050506040513d601f19601f8201168201806040525081019061101f9190612402565b6040516370a0823160e01b81523060048201529091506000906001600160a01b038416906370a0823190602401602060405180830381865afa158015611069573d6000803e3d6000fd5b505050506040513d601f19601f8201168201806040525081019061108d9190612402565b30600090815260016020526040812054905491925090806110ae8584612444565b6110b8919061248e565b9a50806110c58484612444565b6110cf919061248e565b995060008b1180156110e1575060008a115b6111385760405162461bcd60e51b815260206004820152602260248201527f4d6f653a20494e53554646494349454e545f4c49515549444954595f4255524e604482015261115160f21b6064820152608401610522565b6111423083611ef5565b6111566001600160a01b0387168d8d6117f6565b61116a6001600160a01b0386168d8c6117f6565b6040516370a0823160e01b81523060048201526001600160a01b038716906370a0823190602401602060405180830381865afa1580156111ae573d6000803e3d6000fd5b505050506040513d601f19601f820116820180604052508101906111d29190612402565b6040516370a0823160e01b81523060048201529094506001600160a01b038616906370a0823190602401602060405180830381865afa158015611219573d6000803e3d6000fd5b505050506040513d601f19601f8201168201806040525081019061123d9190612402565b925061124b84848a8a611848565b881561127457600554611270906001600160701b03600160701b820481169116612444565b6008555b604080518c8152602081018c90526001600160a01b038e169133917fdccd412f0b1252819cb1fd330b93224ca42612892bb3f4f789976e6d81936496910160405180910390a35050505050505050506001600981905550915091565b6000610a47338484611a98565b60095460011461131d5760405162461bcd60e51b815260206004820152600b60248201526a135bd94e881313d0d2d15160aa1b6044820152606401610522565b6002600955600554604080516370a0823160e01b815230600482015290513660011981013560f01c90038035606090811c94601490920135901c926113d49286926001600160701b03169186916370a08231916024808201926020929091908290030181865afa158015611395573d6000803e3d6000fd5b505050506040513d601f19601f820116820180604052508101906113b99190612402565b6113c39190612431565b6001600160a01b03851691906117f6565b6005546040516370a0823160e01b8152306004820152611472918591600160701b9091046001600160701b0316906001600160a01b038516906370a0823190602401602060405180830381865afa158015611433573d6000803e3d6000fd5b505050506040513d601f19601f820116820180604052508101906114579190612402565b6114619190612431565b6001600160a01b03841691906117f6565b5050600160095550565b428410156114cc5760405162461bcd60e51b815260206004820152600c60248201527f4d6f653a204558504952454400000000000000000000000000000000000000006044820152606401610522565b6003546001600160a01b038816600090815260046020526040812080549192917f6e71edae12b1b97f4d1f60370fef10105fa2faae0126114a169c64845d6126c9918b918b918b91908761151f836124b0565b909155506040805160208101969096526001600160a01b0394851690860152929091166060840152608083015260a082015260c0810187905260e0016040516020818303038152906040528051906020012060405160200161159892919061190160f01b81526002810192909252602282015260420190565b60408051601f198184030181528282528051602091820120600080855291840180845281905260ff88169284019290925260608301869052608083018590529092509060019060a0016020604051602081039080840390855afa158015611603573d6000803e3d6000fd5b5050604051601f1901519150506001600160a01b038116158015906116395750886001600160a01b0316816001600160a01b0316145b6116855760405162461bcd60e51b815260206004820152601660248201527f4d6f653a20494e56414c49445f5349474e4154555245000000000000000000006044820152606401610522565b611690898989611a36565b505050505050505050565b6009546001146116db5760405162461bcd60e51b815260206004820152600b60248201526a135bd94e881313d0d2d15160aa1b6044820152606401610522565b6002600955610f363660011981013560f01c90033560601c6040516370a0823160e01b81523060048201526001600160a01b0391909116906370a0823190602401602060405180830381865afa158015611739573d6000803e3d6000fd5b505050506040513d601f19601f8201168201806040525081019061175d9190612402565b3660011981013560f01c90036014013560601c6040516370a0823160e01b81523060048201526001600160a01b0391909116906370a0823190602401602060405180830381865afa1580156117b6573d6000803e3d6000fd5b505050506040513d601f19601f820116820180604052508101906117da9190612402565b6005546001600160701b0380821691600160701b900416611848565b604080516001600160a01b038416602482015260448082018490528251808303909101815260649091019091526020810180516001600160e01b031663a9059cbb60e01b179052610c2f908490611f78565b6001600160701b03841180159061186657506001600160701b038311155b6118b25760405162461bcd60e51b815260206004820152600d60248201527f4d6f653a204f564552464c4f57000000000000000000000000000000000000006044820152606401610522565b600554429063ffffffff600160e01b90910481168203908116158015906118e157506001600160701b03841615155b80156118f557506001600160701b03831615155b15611986578063ffffffff16846001600160701b03166070856001600160701b0316901b8161192657611926612478565b60068054929091049290920201905563ffffffff81166001600160701b0384167bffffffffffffffffffffffffffff0000000000000000000000000000607087901b168161197657611976612478565b6007805492909104929092020190555b506005805463ffffffff8316600160e01b026001600160e01b036001600160701b03888116600160701b9081027fffffffff000000000000000000000000000000000000000000000000000000009095168b83161794909417918216831794859055604080519382169282169290921783529290930490911660208201527f1c411e9a96e071241c2f21f7726b17ae89e3cab4c78be50e062b03a9fffbbad1910160405180910390a15050505050565b6001600160a01b0383811660008181526002602090815260408083209487168084529482529182902085905590518481527f8c5be1e5ebec7d5bd14f71427d1e84f3dd0314c0f7b2291e5b200ac8c7c3b92591015b60405180910390a3505050565b6001600160a01b03831660009081526001602052604081208054839290611ac0908490612431565b90915550506001600160a01b03821660009081526001602052604081208054839290611aed9084906124c9565b92505081905550816001600160a01b0316836001600160a01b03167fddf252ad1be2c89b69c2b068fc378daa952ba7f163c4a11628f55a4df523b3ef83604051611a8b91815260200190565b6000806000611b6c6005546001600160701b0380821692600160701b83049091169163ffffffff600160e01b9091041690565b50809250819350505060007f00000000000000000000000000000000000000000000000000000000000000006001600160a01b031663017e7e586040518163ffffffff1660e01b8152600401602060405180830381865afa158015611bd5573d6000803e3d6000fd5b505050506040513d601f19601f82011682018060405250810190611bf9919061245b565b6008546001600160a01b038216158015965091925090611d5b578015611d56576000611c34610dd76001600160701b03808716908816612444565b90506000611c4183611d6e565b905080821115611d53576000805490611c5a8385612431565b611c649083612444565b9050600083611c74866005612444565b611c7e91906124c9565b90506000611c8c828461248e565b90508015611d4e57611c9e81856124c9565b9350600084611cb6836001600160701b038e16612444565b611cc0919061248e565b9050600085611cd8846001600160701b038e16612444565b611ce2919061248e565b90508115611d1c57611cf4828d6124dc565b9b50611d1c8a833660011981013560f01c90033560601c5b6001600160a01b031691906117f6565b8015611d4b57611d2c818c6124dc565b9a50611d4b8a823660011981013560f01c90036014013560601c611d0c565b50505b505050505b50505b611d67565b8015611d675760006008555b5050909192565b600081600003611d8057506000919050565b60006001611d8d84611fdb565b901c6001901b90506001818481611da657611da6612478565b048201901c90506001818481611dbe57611dbe612478565b048201901c90506001818481611dd657611dd6612478565b048201901c90506001818481611dee57611dee612478565b048201901c90506001818481611e0657611e06612478565b048201901c90506001818481611e1e57611e1e612478565b048201901c90506001818481611e3657611e36612478565b048201901c9050610aa381828581611e5057611e50612478565b04611edf565b80600080828254611e6791906124c9565b90915550506001600160a01b03821660009081526001602052604081208054839290611e949084906124c9565b90915550506040518181526001600160a01b038316906000907fddf252ad1be2c89b69c2b068fc378daa952ba7f163c4a11628f55a4df523b3ef906020015b60405180910390a35050565b6000818310611eee5781610aa3565b5090919050565b6001600160a01b03821660009081526001602052604081208054839290611f1d908490612431565b9250508190555080600080828254611f359190612431565b90915550506040518181526000906001600160a01b038416907fddf252ad1be2c89b69c2b068fc378daa952ba7f163c4a11628f55a4df523b3ef90602001611ed3565b6000611f8d6001600160a01b0384168361206f565b90508051600014158015611fb2575080806020019051810190611fb09190612503565b155b15610c2f57604051635274afe760e01b81526001600160a01b0384166004820152602401610522565b600080608083901c15611ff057608092831c92015b604083901c1561200257604092831c92015b602083901c1561201457602092831c92015b601083901c1561202657601092831c92015b600883901c1561203857600892831c92015b600483901c1561204a57600492831c92015b600283901c1561205c57600292831c92015b600183901c15610a4b5760010192915050565b6060610aa38383600084600080856001600160a01b031684866040516120959190612525565b60006040518083038185875af1925050503d80600081146120d2576040519150601f19603f3d011682016040523d82523d6000602084013e6120d7565b606091505b50915091506120e78683836120f1565b9695505050505050565b606082612106576121018261214d565b610aa3565b815115801561211d57506001600160a01b0384163b155b1561214657604051639996b31560e01b81526001600160a01b0385166004820152602401610522565b5080610aa3565b80511561215d5780518082602001fd5b604051630a12f52160e11b815260040160405180910390fd5b50565b6001600160a01b038116811461217657600080fd5b6000806000806000608086880312156121a657600080fd5b853594506020860135935060408601356121bf81612179565b9250606086013567ffffffffffffffff808211156121dc57600080fd5b818801915088601f8301126121f057600080fd5b8135818111156121ff57600080fd5b89602082850101111561221157600080fd5b9699959850939650602001949392505050565b60005b8381101561223f578181015183820152602001612227565b50506000910152565b6020815260008251806020840152612267816040850160208701612224565b601f01601f19169190910160400192915050565b6000806040838503121561228e57600080fd5b823561229981612179565b946020939093013593505050565b6000806000606084860312156122bc57600080fd5b83356122c781612179565b925060208401356122d781612179565b929592945050506040919091013590565b6000602082840312156122fa57600080fd5b8135610aa381612179565b600080600080600080600060e0888a03121561232057600080fd5b873561232b81612179565b9650602088013561233b81612179565b95506040880135945060608801359350608088013560ff8116811461235f57600080fd5b9699959850939692959460a0840135945060c09093013592915050565b6000806040838503121561238f57600080fd5b823561239a81612179565b915060208301356123aa81612179565b809150509250929050565b6001600160a01b038616815284602082015283604082015260806060820152816080820152818360a0830137600081830160a090810191909152601f909201601f19160101949350505050565b60006020828403121561241457600080fd5b5051919050565b634e487b7160e01b600052601160045260246000fd5b81810381811115610a4b57610a4b61241b565b8082028115828204841417610a4b57610a4b61241b565b60006020828403121561246d57600080fd5b8151610aa381612179565b634e487b7160e01b600052601260045260246000fd5b6000826124ab57634e487b7160e01b600052601260045260246000fd5b500490565b6000600182016124c2576124c261241b565b5060010190565b80820180821115610a4b57610a4b61241b565b6001600160701b038281168282160390808211156124fc576124fc61241b565b5092915050565b60006020828403121561251557600080fd5b81518015158114610aa357600080fd5b60008251612537818460208701612224565b919091019291505056fea26469706673582212203272e878b20d88bb73e7b88c9befe4259cde8367f7e2a25aaa186f35cb03d4fa64736f6c63430008140033","linkReferences":{}},"methodIdentifiers":{"acceptOwnership()":"79ba5097","allPairs(uint256)":"1e3dd18b","allPairsLength()":"574f2ba3","createPair(address,address)":"c9c65396","feeTo()":"017e7e58","getPair(address,address)":"e6a43905","implementation()":"5c60da1b","owner()":"8da5cb5b","pendingOwner()":"e30c3978","renounceOwnership()":"715018a6","setFeeTo(address)":"f46901ed","transferOwnership(address)":"f2fde38b"},"id":70}