{
  "abi": [
    {
      "inputs": [
        {
          "internalType": "contract IERC20",
          "name": "joe",
          "type": "address"
        },
        {
          "internalType": "contract IJoeStakingRewarder",
          "name": "rewarder",
          "type": "address"
        }
      ],
      "stateMutability": "nonpayable",
      "type": "constructor"
    },
    {
      "inputs": [
        {
          "internalType": "address",
          "name": "target",
          "type": "address"
        }
      ],
      "name": "AddressEmptyCode",
      "type": "error"
    },
    {
      "inputs": [
        {
          "internalType": "address",
          "name": "account",
          "type": "address"
        }
      ],
      "name": "AddressInsufficientBalance",
      "type": "error"
    },
    {
      "inputs": [],
      "name": "FailedInnerCall",
      "type": "error"
    },
    {
      "inputs": [],
      "name": "Math__UnderOverflow",
      "type": "error"
    },
    {
      "inputs": [
        {
          "internalType": "address",
          "name": "token",
          "type": "address"
        }
      ],
      "name": "SafeERC20FailedOperation",
      "type": "error"
    },
    {
      "anonymous": false,
      "inputs": [
        {
          "indexed": true,
          "internalType": "address",
          "name": "account",
          "type": "address"
        },
        {
          "indexed": false,
          "internalType": "int256",
          "name": "deltaAmount",
          "type": "int256"
        }
      ],
      "name": "PositionModified",
      "type": "event"
    },
    {
      "inputs": [],
      "name": "claim",
      "outputs": [],
      "stateMutability": "nonpayable",
      "type": "function"
    },
    {
      "inputs": [
        {
          "internalType": "address",
          "name": "account",
          "type": "address"
        }
      ],
      "name": "getDeposit",
      "outputs": [
        {
          "internalType": "uint256",
          "name": "",
          "type": "uint256"
        }
      ],
      "stateMutability": "view",
      "type": "function"
    },
    {
      "inputs": [],
      "name": "getJoe",
      "outputs": [
        {
          "internalType": "address",
          "name": "",
          "type": "address"
        }
      ],
      "stateMutability": "view",
      "type": "function"
    },
    {
      "inputs": [
        {
          "internalType": "address",
          "name": "account",
          "type": "address"
        }
      ],
      "name": "getPendingReward",
      "outputs": [
        {
          "internalType": "contract IERC20",
          "name": "rewardToken",
          "type": "address"
        },
        {
          "internalType": "uint256",
          "name": "rewardAmount",
          "type": "uint256"
        }
      ],
      "stateMutability": "view",
      "type": "function"
    },
    {
      "inputs": [],
      "name": "getRewarder",
      "outputs": [
        {
          "internalType": "address",
          "name": "",
          "type": "address"
        }
      ],
      "stateMutability": "view",
      "type": "function"
    },
    {
      "inputs": [],
      "name": "getTotalDeposit",
      "outputs": [
        {
          "internalType": "uint256",
          "name": "",
          "type": "uint256"
        }
      ],
      "stateMutability": "view",
      "type": "function"
    },
    {
      "inputs": [
        {
          "internalType": "uint256",
          "name": "amount",
          "type": "uint256"
        }
      ],
      "name": "stake",
      "outputs": [],
      "stateMutability": "nonpayable",
      "type": "function"
    },
    {
      "inputs": [
        {
          "internalType": "uint256",
          "name": "amount",
          "type": "uint256"
        }
      ],
      "name": "unstake",
      "outputs": [],
      "stateMutability": "nonpayable",
      "type": "function"
    }
  ],
  "bytecode": {
    "object": "0x60c060405234801561001057600080fd5b5060405161096f38038061096f83398101604081905261002f9161005e565b6001600160a01b039182166080521660a052610098565b6001600160a01b038116811461005b57600080fd5b50565b6000806040838503121561007157600080fd5b825161007c81610046565b602084015190925061008d81610046565b809150509250929050565b60805160a0516108976100d86000396000818161011d015281816101de0152610376015260008181608f015281816101a701526102bb01526108976000f3fe608060405234801561001057600080fd5b50600436106100885760003560e01c80639015dcc91161005b5780639015dcc91461011b578063a694fc3a14610141578063c022215c14610154578063e1254fba1461016657600080fd5b8063193117ca1461008d5780632e17de78146100cc5780634df9d6ba146100e15780634e71d92d14610113575b600080fd5b7f00000000000000000000000000000000000000000000000000000000000000005b6040516001600160a01b0390911681526020015b60405180910390f35b6100df6100da366004610754565b610179565b005b6100f46100ef366004610782565b6101d1565b604080516001600160a01b0390931683526020830191909152016100c3565b6100df61028e565b7f00000000000000000000000000000000000000000000000000000000000000006100af565b6100df61014f366004610754565b61029b565b6000545b6040519081526020016100c3565b610158610174366004610782565b6102e3565b61019433610186836102f5565b61018f9061079f565b610323565b80156101ce576101ce6001600160a01b037f0000000000000000000000000000000000000000000000000000000000000000163383610430565b50565b6000806001600160a01b037f00000000000000000000000000000000000000000000000000000000000000001663c71832518461020e8482610494565b6000546040516001600160e01b031960e086901b1681526001600160a01b039093166004840152602483019190915260448201526064016040805180830381865afa158015610261573d6000803e3d6000fd5b505050506040513d601f19601f8201168201806040525081019061028591906107c9565b91509150915091565b610299336000610323565b565b6102a83361018f836102f5565b80156101ce576101ce6001600160a01b037f0000000000000000000000000000000000000000000000000000000000000000163330846104b7565b60006102ef8183610494565b92915050565b60006001600160ff1b0382111561031f576040516308a942bb60e11b815260040160405180910390fd5b5090565b600080806103328186866104f6565b5060405163870b50fd60e01b81526001600160a01b0389811660048301526000602483015260448201859052606482018490526084820183905293965091945092507f00000000000000000000000000000000000000000000000000000000000000009091169063870b50fd9060a4016020604051808303816000875af11580156103c1573d6000803e3d6000fd5b505050506040513d601f19601f820116820180604052508101906103e591906107f7565b50846001600160a01b03167f5d3c61193bbcc1603067fd423e11cd08bca2a7ccbeb1dc3dda0c3d4ad9e6d71f8560405161042191815260200190565b60405180910390a25050505050565b6040516001600160a01b0383811660248301526044820183905261048f91859182169063a9059cbb906064015b604051602081830303815290604052915060e01b6020820180516001600160e01b038381831617835250505050610521565b505050565b6001600160a01b03811660009081526001830160205260408120545b9392505050565b6040516001600160a01b0384811660248301528381166044830152606482018390526104f09186918216906323b872dd9060840161045d565b50505050565b600080808061050f876001600160a01b03881687610589565b93509350935093505b93509350935093565b60006105366001600160a01b038416836105e8565b9050805160001415801561055b5750808060200190518101906105599190610810565b155b1561048f57604051635274afe760e01b81526001600160a01b03841660048201526024015b60405180910390fd5b60008281526001840160205260408120548454909190818481036105b1575082915080610518565b6105bb84866105f6565b92506105c782866105f6565b60008781526001890160205260409020849055808855905093509350935093565b60606104b083836000610632565b8181016001600160ff1b038084119082111715600081900361062b576040516308a942bb60e11b815260040160405180910390fd5b5092915050565b6060814710156106575760405163cd78605960e01b8152306004820152602401610580565b600080856001600160a01b031684866040516106739190610832565b60006040518083038185875af1925050503d80600081146106b0576040519150601f19603f3d011682016040523d82523d6000602084013e6106b5565b606091505b50915091506106c58683836106cf565b9695505050505050565b6060826106e4576106df8261072b565b6104b0565b81511580156106fb57506001600160a01b0384163b155b1561072457604051639996b31560e01b81526001600160a01b0385166004820152602401610580565b50806104b0565b80511561073b5780518082602001fd5b604051630a12f52160e11b815260040160405180910390fd5b60006020828403121561076657600080fd5b5035919050565b6001600160a01b03811681146101ce57600080fd5b60006020828403121561079457600080fd5b81356104b08161076d565b6000600160ff1b82016107c257634e487b7160e01b600052601160045260246000fd5b5060000390565b600080604083850312156107dc57600080fd5b82516107e78161076d565b6020939093015192949293505050565b60006020828403121561080957600080fd5b5051919050565b60006020828403121561082257600080fd5b815180151581146104b057600080fd5b6000825160005b818110156108535760208186018101518583015201610839565b50600092019182525091905056fea2646970667358221220f3f17ed8aee652bfde7843b967e5db9d790a97eafd70327d1652a4badfafa9b664736f6c63430008140033",
    "linkReferences": {}
  },
  "methodIdentifiers": {
    "claim()": "4e71d92d",
    "getDeposit(address)": "e1254fba",
    "getJoe()": "193117ca",
    "getPendingReward(address)": "4df9d6ba",
    "getRewarder()": "9015dcc9",
    "getTotalDeposit()": "c022215c",
    "stake(uint256)": "a694fc3a",
    "unstake(uint256)": "2e17de78"
  },
  "id": 59
}