{
  "abi": [
    {
      "inputs": [
        {
          "internalType": "contract IERC20",
          "name": "joe",
          "type": "address"
        },
        {
          "internalType": "contract IRewarderFactory",
          "name": "rewarderFactory",
          "type": "address"
        }
      ],
      "stateMutability": "nonpayable",
      "type": "constructor"
    },
    {
      "inputs": [
        {
          "internalType": "address",
          "name": "target",
          "type": "address"
        }
      ],
      "name": "AddressEmptyCode",
      "type": "error"
    },
    {
      "inputs": [
        {
          "internalType": "address",
          "name": "account",
          "type": "address"
        }
      ],
      "name": "AddressInsufficientBalance",
      "type": "error"
    },
    {
      "inputs": [],
      "name": "FailedInnerCall",
      "type": "error"
    },
    {
      "inputs": [],
      "name": "InvalidInitialization",
      "type": "error"
    },
    {
      "inputs": [],
      "name": "JoeStaking__InvalidRewarderType",
      "type": "error"
    },
    {
      "inputs": [],
      "name": "Math__UnderOverflow",
      "type": "error"
    },
    {
      "inputs": [],
      "name": "NotInitializing",
      "type": "error"
    },
    {
      "inputs": [
        {
          "internalType": "address",
          "name": "owner",
          "type": "address"
        }
      ],
      "name": "OwnableInvalidOwner",
      "type": "error"
    },
    {
      "inputs": [
        {
          "internalType": "address",
          "name": "account",
          "type": "address"
        }
      ],
      "name": "OwnableUnauthorizedAccount",
      "type": "error"
    },
    {
      "inputs": [
        {
          "internalType": "address",
          "name": "token",
          "type": "address"
        }
      ],
      "name": "SafeERC20FailedOperation",
      "type": "error"
    },
    {
      "anonymous": false,
      "inputs": [
        {
          "indexed": false,
          "internalType": "uint64",
          "name": "version",
          "type": "uint64"
        }
      ],
      "name": "Initialized",
      "type": "event"
    },
    {
      "anonymous": false,
      "inputs": [
        {
          "indexed": true,
          "internalType": "address",
          "name": "previousOwner",
          "type": "address"
        },
        {
          "indexed": true,
          "internalType": "address",
          "name": "newOwner",
          "type": "address"
        }
      ],
      "name": "OwnershipTransferStarted",
      "type": "event"
    },
    {
      "anonymous": false,
      "inputs": [
        {
          "indexed": true,
          "internalType": "address",
          "name": "previousOwner",
          "type": "address"
        },
        {
          "indexed": true,
          "internalType": "address",
          "name": "newOwner",
          "type": "address"
        }
      ],
      "name": "OwnershipTransferred",
      "type": "event"
    },
    {
      "anonymous": false,
      "inputs": [
        {
          "indexed": true,
          "internalType": "address",
          "name": "account",
          "type": "address"
        },
        {
          "indexed": false,
          "internalType": "int256",
          "name": "deltaAmount",
          "type": "int256"
        }
      ],
      "name": "PositionModified",
      "type": "event"
    },
    {
      "anonymous": false,
      "inputs": [
        {
          "indexed": true,
          "internalType": "contract IJoeStakingRewarder",
          "name": "rewarder",
          "type": "address"
        }
      ],
      "name": "RewarderSet",
      "type": "event"
    },
    {
      "inputs": [],
      "name": "acceptOwnership",
      "outputs": [],
      "stateMutability": "nonpayable",
      "type": "function"
    },
    {
      "inputs": [],
      "name": "claim",
      "outputs": [],
      "stateMutability": "nonpayable",
      "type": "function"
    },
    {
      "inputs": [
        {
          "internalType": "address",
          "name": "account",
          "type": "address"
        }
      ],
      "name": "getDeposit",
      "outputs": [
        {
          "internalType": "uint256",
          "name": "",
          "type": "uint256"
        }
      ],
      "stateMutability": "view",
      "type": "function"
    },
    {
      "inputs": [],
      "name": "getJoe",
      "outputs": [
        {
          "internalType": "address",
          "name": "",
          "type": "address"
        }
      ],
      "stateMutability": "view",
      "type": "function"
    },
    {
      "inputs": [
        {
          "internalType": "address",
          "name": "account",
          "type": "address"
        }
      ],
      "name": "getPendingReward",
      "outputs": [
        {
          "internalType": "contract IERC20",
          "name": "rewardToken",
          "type": "address"
        },
        {
          "internalType": "uint256",
          "name": "rewardAmount",
          "type": "uint256"
        }
      ],
      "stateMutability": "view",
      "type": "function"
    },
    {
      "inputs": [],
      "name": "getRewarder",
      "outputs": [
        {
          "internalType": "address",
          "name": "",
          "type": "address"
        }
      ],
      "stateMutability": "view",
      "type": "function"
    },
    {
      "inputs": [],
      "name": "getTotalDeposit",
      "outputs": [
        {
          "internalType": "uint256",
          "name": "",
          "type": "uint256"
        }
      ],
      "stateMutability": "view",
      "type": "function"
    },
    {
      "inputs": [
        {
          "internalType": "address",
          "name": "initialOwner",
          "type": "address"
        }
      ],
      "name": "initialize",
      "outputs": [],
      "stateMutability": "nonpayable",
      "type": "function"
    },
    {
      "inputs": [],
      "name": "owner",
      "outputs": [
        {
          "internalType": "address",
          "name": "",
          "type": "address"
        }
      ],
      "stateMutability": "view",
      "type": "function"
    },
    {
      "inputs": [],
      "name": "pendingOwner",
      "outputs": [
        {
          "internalType": "address",
          "name": "",
          "type": "address"
        }
      ],
      "stateMutability": "view",
      "type": "function"
    },
    {
      "inputs": [],
      "name": "renounceOwnership",
      "outputs": [],
      "stateMutability": "nonpayable",
      "type": "function"
    },
    {
      "inputs": [
        {
          "internalType": "contract IJoeStakingRewarder",
          "name": "rewarder",
          "type": "address"
        }
      ],
      "name": "setRewarder",
      "outputs": [],
      "stateMutability": "nonpayable",
      "type": "function"
    },
    {
      "inputs": [
        {
          "internalType": "uint256",
          "name": "amount",
          "type": "uint256"
        }
      ],
      "name": "stake",
      "outputs": [],
      "stateMutability": "nonpayable",
      "type": "function"
    },
    {
      "inputs": [
        {
          "internalType": "address",
          "name": "newOwner",
          "type": "address"
        }
      ],
      "name": "transferOwnership",
      "outputs": [],
      "stateMutability": "nonpayable",
      "type": "function"
    },
    {
      "inputs": [
        {
          "internalType": "uint256",
          "name": "amount",
          "type": "uint256"
        }
      ],
      "name": "unstake",
      "outputs": [],
      "stateMutability": "nonpayable",
      "type": "function"
    }
  ],
  "bytecode": {
    "object": "0x60c060405234801561001057600080fd5b5060405161101d38038061101d83398101604081905261002f91610118565b6001600160a01b03808316608052811660a05261004a610051565b5050610152565b7ff0c57e16840df040f15088dc2f81fe391c3923bec73e23a9662efc9c229c6a00805468010000000000000000900460ff16156100a15760405163f92ee8a960e01b815260040160405180910390fd5b80546001600160401b03908116146101005780546001600160401b0319166001600160401b0390811782556040519081527fc7f505b2f371ae2175ee4913f4499e1f2633a7b5936321eed1cdaeb6115181d29060200160405180910390a15b50565b6001600160a01b038116811461010057600080fd5b6000806040838503121561012b57600080fd5b825161013681610103565b602084015190925061014781610103565b809150509250929050565b60805160a051610e9961018460003960006102c201526000818160fc0152818161025c01526105300152610e996000f3fe608060405234801561001057600080fd5b50600436106100f55760003560e01c80638da5cb5b11610097578063c4d66de811610066578063c4d66de8146101ed578063e1254fba14610200578063e30c397814610213578063f2fde38b1461021b57600080fd5b80638da5cb5b146101ab5780639015dcc9146101b3578063a694fc3a146101c4578063c022215c146101d757600080fd5b80634df9d6ba116100d35780634df9d6ba146101615780634e71d92d14610193578063715018a61461019b57806379ba5097146101a357600080fd5b8063193117ca146100fa5780632e17de78146101395780633a6462e41461014e575b600080fd5b7f00000000000000000000000000000000000000000000000000000000000000005b6040516001600160a01b0390911681526020015b60405180910390f35b61014c610147366004610d1f565b61022e565b005b61014c61015c366004610d4d565b610286565b61017461016f366004610d4d565b6103a7565b604080516001600160a01b039093168352602083019190915201610130565b61014c610472565b61014c61047f565b61014c610491565b61011c6104db565b6000546001600160a01b031661011c565b61014c6101d2366004610d1f565b610510565b6101df610558565b604051908152602001610130565b61014c6101fb366004610d4d565b610568565b6101df61020e366004610d4d565b61068c565b61011c61069f565b61014c610229366004610d4d565b6106c8565b6102493361023b8361074d565b61024490610d6a565b61077b565b8015610283576102836001600160a01b037f000000000000000000000000000000000000000000000000000000000000000016338361087b565b50565b61028e6108f4565b6001600160a01b0381161580159061034157506003604051634f4ee65b60e11b81526001600160a01b0383811660048301527f00000000000000000000000000000000000000000000000000000000000000001690639e9dccb690602401602060405180830381865afa158015610309573d6000803e3d6000fd5b505050506040513d601f19601f8201168201806040525081019061032d9190610daa565b600381111561033e5761033e610d94565b14155b1561035f57604051634062160760e01b815260040160405180910390fd5b600080546001600160a01b0319166001600160a01b038316908117825560405190917f988fe7f79eda939055038334a107450a164e53747eb8ff449cf8f16f54f26ddd91a250565b6000805481906001600160a01b0316801561046c576001600160a01b03811663c7183251856103d7600182610926565b6001546040517fffffffff0000000000000000000000000000000000000000000000000000000060e086901b1681526001600160a01b039093166004840152602483019190915260448201526064016040805180830381865afa158015610442573d6000803e3d6000fd5b505050506040513d601f19601f820116820180604052508101906104669190610dcb565b90935091505b50915091565b61047d33600061077b565b565b6104876108f4565b61047d6000610949565b338061049b61069f565b6001600160a01b0316146104d25760405163118cdaa760e01b81526001600160a01b03821660048201526024015b60405180910390fd5b61028381610949565b6000807f9016d09d72d40fdae2fd8ceac6b6234c7706214fd39c1cd1e609a0528c1993005b546001600160a01b031692915050565b61051d336102448361074d565b8015610283576102836001600160a01b037f000000000000000000000000000000000000000000000000000000000000000016333084610985565b600061056360015490565b905090565b7ff0c57e16840df040f15088dc2f81fe391c3923bec73e23a9662efc9c229c6a00805468010000000000000000810460ff16159067ffffffffffffffff166000811580156105b35750825b905060008267ffffffffffffffff1660011480156105d05750303b155b9050811580156105de575080155b156105fc5760405163f92ee8a960e01b815260040160405180910390fd5b845467ffffffffffffffff19166001178555831561063057845468ff00000000000000001916680100000000000000001785555b610639866109c4565b831561068457845468ff000000000000000019168555604051600181527fc7f505b2f371ae2175ee4913f4499e1f2633a7b5936321eed1cdaeb6115181d29060200160405180910390a15b505050505050565b6000610699600183610926565b92915050565b6000807f237e158222e3e6968b72b9db0d8043aacf074ad9f650f0d1606b4d82ee432c00610500565b6106d06108f4565b7f237e158222e3e6968b72b9db0d8043aacf074ad9f650f0d1606b4d82ee432c0080546001600160a01b0319166001600160a01b03831690811782556107146104db565b6001600160a01b03167f38d16b8cac22d99fc7c124b9cd0de2d3fa1faef420bfe791d8c362d765e2270060405160405180910390a35050565b60006001600160ff1b03821115610777576040516308a942bb60e11b815260040160405180910390fd5b5090565b6000808061078b600186866109d5565b5060005492955090935091506001600160a01b031680156108305760405163870b50fd60e01b81526001600160a01b0387811660048301526000602483015260448201869052606482018590526084820184905282169063870b50fd9060a4016020604051808303816000875af115801561080a573d6000803e3d6000fd5b505050506040513d601f19601f8201168201806040525081019061082e9190610df9565b505b856001600160a01b03167f5d3c61193bbcc1603067fd423e11cd08bca2a7ccbeb1dc3dda0c3d4ad9e6d71f8660405161086b91815260200190565b60405180910390a2505050505050565b6040516001600160a01b038381166024830152604482018390526108ef91859182169063a9059cbb906064015b604051602081830303815290604052915060e01b6020820180517bffffffffffffffffffffffffffffffffffffffffffffffffffffffff8381831617835250505050610a00565b505050565b336108fd6104db565b6001600160a01b03161461047d5760405163118cdaa760e01b81523360048201526024016104c9565b6001600160a01b03811660009081526001830160205260408120545b9392505050565b7f237e158222e3e6968b72b9db0d8043aacf074ad9f650f0d1606b4d82ee432c0080546001600160a01b031916815561098182610a63565b5050565b6040516001600160a01b0384811660248301528381166044830152606482018390526109be9186918216906323b872dd906084016108a8565b50505050565b6109cc610ad4565b61028381610b22565b60008080806109ee876001600160a01b03881687610b54565b93509350935093505b93509350935093565b6000610a156001600160a01b03841683610bb3565b90508051600014158015610a3a575080806020019051810190610a389190610e12565b155b156108ef57604051635274afe760e01b81526001600160a01b03841660048201526024016104c9565b7f9016d09d72d40fdae2fd8ceac6b6234c7706214fd39c1cd1e609a0528c19930080546001600160a01b031981166001600160a01b03848116918217845560405192169182907f8be0079c531659141344cd1fd0a4f28419497f9722a3daafe3b4186f6b6457e090600090a3505050565b7ff0c57e16840df040f15088dc2f81fe391c3923bec73e23a9662efc9c229c6a005468010000000000000000900460ff1661047d57604051631afcd79f60e31b815260040160405180910390fd5b610b2a610ad4565b6001600160a01b0381166104d257604051631e4fbdf760e01b8152600060048201526024016104c9565b6000828152600184016020526040812054845490919081848103610b7c5750829150806109f7565b610b868486610bc1565b9250610b928286610bc1565b60008781526001890160205260409020849055808855905093509350935093565b606061094283836000610bfd565b8181016001600160ff1b0380841190821117156000819003610bf6576040516308a942bb60e11b815260040160405180910390fd5b5092915050565b606081471015610c225760405163cd78605960e01b81523060048201526024016104c9565b600080856001600160a01b03168486604051610c3e9190610e34565b60006040518083038185875af1925050503d8060008114610c7b576040519150601f19603f3d011682016040523d82523d6000602084013e610c80565b606091505b5091509150610c90868383610c9a565b9695505050505050565b606082610caf57610caa82610cf6565b610942565b8151158015610cc657506001600160a01b0384163b155b15610cef57604051639996b31560e01b81526001600160a01b03851660048201526024016104c9565b5080610942565b805115610d065780518082602001fd5b604051630a12f52160e11b815260040160405180910390fd5b600060208284031215610d3157600080fd5b5035919050565b6001600160a01b038116811461028357600080fd5b600060208284031215610d5f57600080fd5b813561094281610d38565b6000600160ff1b8201610d8d57634e487b7160e01b600052601160045260246000fd5b5060000390565b634e487b7160e01b600052602160045260246000fd5b600060208284031215610dbc57600080fd5b81516004811061094257600080fd5b60008060408385031215610dde57600080fd5b8251610de981610d38565b6020939093015192949293505050565b600060208284031215610e0b57600080fd5b5051919050565b600060208284031215610e2457600080fd5b8151801515811461094257600080fd5b6000825160005b81811015610e555760208186018101518583015201610e3b565b50600092019182525091905056fea2646970667358221220998b6790dfdbc5a79b8ebdae39b7d02a825dc515308b3f82b443ac5b37da1aae64736f6c63430008140033",
    "linkReferences": {}
  },
  "methodIdentifiers": {
    "acceptOwnership()": "79ba5097",
    "claim()": "4e71d92d",
    "getDeposit(address)": "e1254fba",
    "getJoe()": "193117ca",
    "getPendingReward(address)": "4df9d6ba",
    "getRewarder()": "9015dcc9",
    "getTotalDeposit()": "c022215c",
    "initialize(address)": "c4d66de8",
    "owner()": "8da5cb5b",
    "pendingOwner()": "e30c3978",
    "renounceOwnership()": "715018a6",
    "setRewarder(address)": "3a6462e4",
    "stake(uint256)": "a694fc3a",
    "transferOwnership(address)": "f2fde38b",
    "unstake(uint256)": "2e17de78"
  },
  "id": 59
}