{"abi":[{"type":"constructor","inputs":[{"name":"joe","type":"address","internalType":"contract IERC20"},{"name":"rewarderFactory","type":"address","internalType":"contract IRewarderFactory"}],"stateMutability":"nonpayable"},{"type":"function","name":"acceptOwnership","inputs":[],"outputs":[],"stateMutability":"nonpayable"},{"type":"function","name":"claim","inputs":[],"outputs":[],"stateMutability":"nonpayable"},{"type":"function","name":"getDeposit","inputs":[{"name":"account","type":"address","internalType":"address"}],"outputs":[{"name":"","type":"uint256","internalType":"uint256"}],"stateMutability":"view"},{"type":"function","name":"getJoe","inputs":[],"outputs":[{"name":"","type":"address","internalType":"contract IERC20"}],"stateMutability":"view"},{"type":"function","name":"getPendingReward","inputs":[{"name":"account","type":"address","internalType":"address"}],"outputs":[{"name":"rewardToken","type":"address","internalType":"contract IERC20"},{"name":"rewardAmount","type":"uint256","internalType":"uint256"}],"stateMutability":"view"},{"type":"function","name":"getRewarder","inputs":[],"outputs":[{"name":"","type":"address","internalType":"contract IJoeStakingRewarder"}],"stateMutability":"view"},{"type":"function","name":"getTotalDeposit","inputs":[],"outputs":[{"name":"","type":"uint256","internalType":"uint256"}],"stateMutability":"view"},{"type":"function","name":"initialize","inputs":[{"name":"initialOwner","type":"address","internalType":"address"}],"outputs":[],"stateMutability":"nonpayable"},{"type":"function","name":"owner","inputs":[],"outputs":[{"name":"","type":"address","internalType":"address"}],"stateMutability":"view"},{"type":"function","name":"pendingOwner","inputs":[],"outputs":[{"name":"","type":"address","internalType":"address"}],"stateMutability":"view"},{"type":"function","name":"renounceOwnership","inputs":[],"outputs":[],"stateMutability":"pure"},{"type":"function","name":"setRewarder","inputs":[{"name":"rewarder","type":"address","internalType":"contract IJoeStakingRewarder"}],"outputs":[],"stateMutability":"nonpayable"},{"type":"function","name":"stake","inputs":[{"name":"amount","type":"uint256","internalType":"uint256"}],"outputs":[],"stateMutability":"nonpayable"},{"type":"function","name":"transferOwnership","inputs":[{"name":"newOwner","type":"address","internalType":"address"}],"outputs":[],"stateMutability":"nonpayable"},{"type":"function","name":"unstake","inputs":[{"name":"amount","type":"uint256","internalType":"uint256"}],"outputs":[],"stateMutability":"nonpayable"},{"type":"event","name":"Initialized","inputs":[{"name":"version","type":"uint64","indexed":false,"internalType":"uint64"}],"anonymous":false},{"type":"event","name":"OwnershipTransferStarted","inputs":[{"name":"previousOwner","type":"address","indexed":true,"internalType":"address"},{"name":"newOwner","type":"address","indexed":true,"internalType":"address"}],"anonymous":false},{"type":"event","name":"OwnershipTransferred","inputs":[{"name":"previousOwner","type":"address","indexed":true,"internalType":"address"},{"name":"newOwner","type":"address","indexed":true,"internalType":"address"}],"anonymous":false},{"type":"event","name":"PositionModified","inputs":[{"name":"account","type":"address","indexed":true,"internalType":"address"},{"name":"deltaAmount","type":"int256","indexed":false,"internalType":"int256"}],"anonymous":false},{"type":"event","name":"RewarderSet","inputs":[{"name":"rewarder","type":"address","indexed":true,"internalType":"contract IJoeStakingRewarder"}],"anonymous":false},{"type":"error","name":"AddressEmptyCode","inputs":[{"name":"target","type":"address","internalType":"address"}]},{"type":"error","name":"AddressInsufficientBalance","inputs":[{"name":"account","type":"address","internalType":"address"}]},{"type":"error","name":"FailedInnerCall","inputs":[]},{"type":"error","name":"InvalidInitialization","inputs":[]},{"type":"error","name":"JoeStaking__CannotRenounceOwnership","inputs":[]},{"type":"error","name":"JoeStaking__InvalidRewarderType","inputs":[]},{"type":"error","name":"Math__UnderOverflow","inputs":[]},{"type":"error","name":"NotInitializing","inputs":[]},{"type":"error","name":"OwnableInvalidOwner","inputs":[{"name":"owner","type":"address","internalType":"address"}]},{"type":"error","name":"OwnableUnauthorizedAccount","inputs":[{"name":"account","type":"address","internalType":"address"}]},{"type":"error","name":"SafeERC20FailedOperation","inputs":[{"name":"token","type":"address","internalType":"address"}]}],"bytecode":{"object":"0x60c060405234801561001057600080fd5b5060405161102438038061102483398101604081905261002f91610118565b6001600160a01b03808316608052811660a05261004a610051565b5050610152565b7ff0c57e16840df040f15088dc2f81fe391c3923bec73e23a9662efc9c229c6a00805468010000000000000000900460ff16156100a15760405163f92ee8a960e01b815260040160405180910390fd5b80546001600160401b03908116146101005780546001600160401b0319166001600160401b0390811782556040519081527fc7f505b2f371ae2175ee4913f4499e1f2633a7b5936321eed1cdaeb6115181d29060200160405180910390a15b50565b6001600160a01b038116811461010057600080fd5b6000806040838503121561012b57600080fd5b825161013681610103565b602084015190925061014781610103565b809150509250929050565b60805160a051610ea061018460003960006102c201526000818160fc0152818161025c01526105370152610ea06000f3fe608060405234801561001057600080fd5b50600436106100f55760003560e01c80638da5cb5b11610097578063c4d66de811610066578063c4d66de8146101ed578063e1254fba14610200578063e30c397814610213578063f2fde38b1461021b57600080fd5b80638da5cb5b146101ab5780639015dcc9146101b3578063a694fc3a146101c4578063c022215c146101d757600080fd5b80634df9d6ba116100d35780634df9d6ba146101615780634e71d92d14610193578063715018a61461019b57806379ba5097146101a357600080fd5b8063193117ca146100fa5780632e17de78146101395780633a6462e41461014e575b600080fd5b7f00000000000000000000000000000000000000000000000000000000000000005b6040516001600160a01b0390911681526020015b60405180910390f35b61014c610147366004610d26565b61022e565b005b61014c61015c366004610d54565b610286565b61017461016f366004610d54565b6103a7565b604080516001600160a01b039093168352602083019190915201610130565b61014c610472565b61014c61047f565b61014c610498565b61011c6104e2565b6000546001600160a01b031661011c565b61014c6101d2366004610d26565b610517565b6101df61055f565b604051908152602001610130565b61014c6101fb366004610d54565b61056f565b6101df61020e366004610d54565b610693565b61011c6106a6565b61014c610229366004610d54565b6106cf565b6102493361023b83610754565b61024490610d71565b610782565b8015610283576102836001600160a01b037f0000000000000000000000000000000000000000000000000000000000000000163383610882565b50565b61028e6108fb565b6001600160a01b0381161580159061034157506003604051634f4ee65b60e11b81526001600160a01b0383811660048301527f00000000000000000000000000000000000000000000000000000000000000001690639e9dccb690602401602060405180830381865afa158015610309573d6000803e3d6000fd5b505050506040513d601f19601f8201168201806040525081019061032d9190610db1565b600381111561033e5761033e610d9b565b14155b1561035f57604051634062160760e01b815260040160405180910390fd5b600080546001600160a01b0319166001600160a01b038316908117825560405190917f988fe7f79eda939055038334a107450a164e53747eb8ff449cf8f16f54f26ddd91a250565b6000805481906001600160a01b0316801561046c576001600160a01b03811663c7183251856103d760018261092d565b6001546040517fffffffff0000000000000000000000000000000000000000000000000000000060e086901b1681526001600160a01b039093166004840152602483019190915260448201526064016040805180830381865afa158015610442573d6000803e3d6000fd5b505050506040513d601f19601f820116820180604052508101906104669190610dd2565b90935091505b50915091565b61047d336000610782565b565b6040516319b32d9b60e31b815260040160405180910390fd5b33806104a26106a6565b6001600160a01b0316146104d95760405163118cdaa760e01b81526001600160a01b03821660048201526024015b60405180910390fd5b61028381610950565b6000807f9016d09d72d40fdae2fd8ceac6b6234c7706214fd39c1cd1e609a0528c1993005b546001600160a01b031692915050565b6105243361024483610754565b8015610283576102836001600160a01b037f00000000000000000000000000000000000000000000000000000000000000001633308461098c565b600061056a60015490565b905090565b7ff0c57e16840df040f15088dc2f81fe391c3923bec73e23a9662efc9c229c6a00805468010000000000000000810460ff16159067ffffffffffffffff166000811580156105ba5750825b905060008267ffffffffffffffff1660011480156105d75750303b155b9050811580156105e5575080155b156106035760405163f92ee8a960e01b815260040160405180910390fd5b845467ffffffffffffffff19166001178555831561063757845468ff00000000000000001916680100000000000000001785555b610640866109cb565b831561068b57845468ff000000000000000019168555604051600181527fc7f505b2f371ae2175ee4913f4499e1f2633a7b5936321eed1cdaeb6115181d29060200160405180910390a15b505050505050565b60006106a060018361092d565b92915050565b6000807f237e158222e3e6968b72b9db0d8043aacf074ad9f650f0d1606b4d82ee432c00610507565b6106d76108fb565b7f237e158222e3e6968b72b9db0d8043aacf074ad9f650f0d1606b4d82ee432c0080546001600160a01b0319166001600160a01b038316908117825561071b6104e2565b6001600160a01b03167f38d16b8cac22d99fc7c124b9cd0de2d3fa1faef420bfe791d8c362d765e2270060405160405180910390a35050565b60006001600160ff1b0382111561077e576040516308a942bb60e11b815260040160405180910390fd5b5090565b60008080610792600186866109dc565b5060005492955090935091506001600160a01b031680156108375760405163870b50fd60e01b81526001600160a01b0387811660048301526000602483015260448201869052606482018590526084820184905282169063870b50fd9060a4016020604051808303816000875af1158015610811573d6000803e3d6000fd5b505050506040513d601f19601f820116820180604052508101906108359190610e00565b505b856001600160a01b03167f5d3c61193bbcc1603067fd423e11cd08bca2a7ccbeb1dc3dda0c3d4ad9e6d71f8660405161087291815260200190565b60405180910390a2505050505050565b6040516001600160a01b038381166024830152604482018390526108f691859182169063a9059cbb906064015b604051602081830303815290604052915060e01b6020820180517bffffffffffffffffffffffffffffffffffffffffffffffffffffffff8381831617835250505050610a07565b505050565b336109046104e2565b6001600160a01b03161461047d5760405163118cdaa760e01b81523360048201526024016104d0565b6001600160a01b03811660009081526001830160205260408120545b9392505050565b7f237e158222e3e6968b72b9db0d8043aacf074ad9f650f0d1606b4d82ee432c0080546001600160a01b031916815561098882610a6a565b5050565b6040516001600160a01b0384811660248301528381166044830152606482018390526109c59186918216906323b872dd906084016108af565b50505050565b6109d3610adb565b61028381610b29565b60008080806109f5876001600160a01b03881687610b5b565b93509350935093505b93509350935093565b6000610a1c6001600160a01b03841683610bba565b90508051600014158015610a41575080806020019051810190610a3f9190610e19565b155b156108f657604051635274afe760e01b81526001600160a01b03841660048201526024016104d0565b7f9016d09d72d40fdae2fd8ceac6b6234c7706214fd39c1cd1e609a0528c19930080546001600160a01b031981166001600160a01b03848116918217845560405192169182907f8be0079c531659141344cd1fd0a4f28419497f9722a3daafe3b4186f6b6457e090600090a3505050565b7ff0c57e16840df040f15088dc2f81fe391c3923bec73e23a9662efc9c229c6a005468010000000000000000900460ff1661047d57604051631afcd79f60e31b815260040160405180910390fd5b610b31610adb565b6001600160a01b0381166104d957604051631e4fbdf760e01b8152600060048201526024016104d0565b6000828152600184016020526040812054845490919081848103610b835750829150806109fe565b610b8d8486610bc8565b9250610b998286610bc8565b60008781526001890160205260409020849055808855905093509350935093565b606061094983836000610c04565b8181016001600160ff1b0380841190821117156000819003610bfd576040516308a942bb60e11b815260040160405180910390fd5b5092915050565b606081471015610c295760405163cd78605960e01b81523060048201526024016104d0565b600080856001600160a01b03168486604051610c459190610e3b565b60006040518083038185875af1925050503d8060008114610c82576040519150601f19603f3d011682016040523d82523d6000602084013e610c87565b606091505b5091509150610c97868383610ca1565b9695505050505050565b606082610cb657610cb182610cfd565b610949565b8151158015610ccd57506001600160a01b0384163b155b15610cf657604051639996b31560e01b81526001600160a01b03851660048201526024016104d0565b5080610949565b805115610d0d5780518082602001fd5b604051630a12f52160e11b815260040160405180910390fd5b600060208284031215610d3857600080fd5b5035919050565b6001600160a01b038116811461028357600080fd5b600060208284031215610d6657600080fd5b813561094981610d3f565b6000600160ff1b8201610d9457634e487b7160e01b600052601160045260246000fd5b5060000390565b634e487b7160e01b600052602160045260246000fd5b600060208284031215610dc357600080fd5b81516004811061094957600080fd5b60008060408385031215610de557600080fd5b8251610df081610d3f565b6020939093015192949293505050565b600060208284031215610e1257600080fd5b5051919050565b600060208284031215610e2b57600080fd5b8151801515811461094957600080fd5b6000825160005b81811015610e5c5760208186018101518583015201610e42565b50600092019182525091905056fea26469706673582212206a4bf110c9ea1ea658aca465447cd4fb6f2c7a5a9b2d0c37dfa8b21f81caf8ad64736f6c63430008140033","linkReferences":{}},"methodIdentifiers":{"acceptOwnership()":"79ba5097","claim()":"4e71d92d","getDeposit(address)":"e1254fba","getJoe()":"193117ca","getPendingReward(address)":"4df9d6ba","getRewarder()":"9015dcc9","getTotalDeposit()":"c022215c","initialize(address)":"c4d66de8","owner()":"8da5cb5b","pendingOwner()":"e30c3978","renounceOwnership()":"715018a6","setRewarder(address)":"3a6462e4","stake(uint256)":"a694fc3a","transferOwnership(address)":"f2fde38b","unstake(uint256)":"2e17de78"},"id":64}